{
  "contractName": "ChessNFT",
  "abi": [
    {
      "inputs": [
        {
          "internalType": "address",
          "name": "_initialOwner",
          "type": "address"
        }
      ],
      "stateMutability": "nonpayable",
      "type": "constructor"
    },
    {
      "anonymous": false,
      "inputs": [
        {
          "indexed": true,
          "internalType": "address",
          "name": "owner",
          "type": "address"
        },
        {
          "indexed": true,
          "internalType": "address",
          "name": "approved",
          "type": "address"
        },
        {
          "indexed": true,
          "internalType": "uint256",
          "name": "tokenId",
          "type": "uint256"
        }
      ],
      "name": "Approval",
      "type": "event"
    },
    {
      "anonymous": false,
      "inputs": [
        {
          "indexed": true,
          "internalType": "address",
          "name": "owner",
          "type": "address"
        },
        {
          "indexed": true,
          "internalType": "address",
          "name": "operator",
          "type": "address"
        },
        {
          "indexed": false,
          "internalType": "bool",
          "name": "approved",
          "type": "bool"
        }
      ],
      "name": "ApprovalForAll",
      "type": "event"
    },
    {
      "anonymous": false,
      "inputs": [
        {
          "indexed": true,
          "internalType": "address",
          "name": "previousOwner",
          "type": "address"
        },
        {
          "indexed": true,
          "internalType": "address",
          "name": "newOwner",
          "type": "address"
        }
      ],
      "name": "OwnershipTransferred",
      "type": "event"
    },
    {
      "anonymous": false,
      "inputs": [
        {
          "indexed": true,
          "internalType": "address",
          "name": "from",
          "type": "address"
        },
        {
          "indexed": true,
          "internalType": "address",
          "name": "to",
          "type": "address"
        },
        {
          "indexed": true,
          "internalType": "uint256",
          "name": "tokenId",
          "type": "uint256"
        }
      ],
      "name": "Transfer",
      "type": "event"
    },
    {
      "inputs": [
        {
          "internalType": "address",
          "name": "to",
          "type": "address"
        },
        {
          "internalType": "uint256",
          "name": "tokenId",
          "type": "uint256"
        }
      ],
      "name": "approve",
      "outputs": [],
      "stateMutability": "nonpayable",
      "type": "function"
    },
    {
      "inputs": [
        {
          "internalType": "address",
          "name": "owner",
          "type": "address"
        }
      ],
      "name": "balanceOf",
      "outputs": [
        {
          "internalType": "uint256",
          "name": "",
          "type": "uint256"
        }
      ],
      "stateMutability": "view",
      "type": "function"
    },
    {
      "inputs": [
        {
          "internalType": "uint256",
          "name": "",
          "type": "uint256"
        }
      ],
      "name": "gameAddresses",
      "outputs": [
        {
          "internalType": "address",
          "name": "",
          "type": "address"
        }
      ],
      "stateMutability": "view",
      "type": "function"
    },
    {
      "inputs": [
        {
          "internalType": "uint256",
          "name": "",
          "type": "uint256"
        }
      ],
      "name": "gameNFTs",
      "outputs": [
        {
          "internalType": "address",
          "name": "",
          "type": "address"
        }
      ],
      "stateMutability": "view",
      "type": "function"
    },
    {
      "inputs": [
        {
          "internalType": "uint256",
          "name": "tokenId",
          "type": "uint256"
        }
      ],
      "name": "getApproved",
      "outputs": [
        {
          "internalType": "address",
          "name": "",
          "type": "address"
        }
      ],
      "stateMutability": "view",
      "type": "function"
    },
    {
      "inputs": [
        {
          "internalType": "address",
          "name": "owner",
          "type": "address"
        },
        {
          "internalType": "address",
          "name": "operator",
          "type": "address"
        }
      ],
      "name": "isApprovedForAll",
      "outputs": [
        {
          "internalType": "bool",
          "name": "",
          "type": "bool"
        }
      ],
      "stateMutability": "view",
      "type": "function"
    },
    {
      "inputs": [],
      "name": "name",
      "outputs": [
        {
          "internalType": "string",
          "name": "",
          "type": "string"
        }
      ],
      "stateMutability": "view",
      "type": "function"
    },
    {
      "inputs": [],
      "name": "owner",
      "outputs": [
        {
          "internalType": "address",
          "name": "",
          "type": "address"
        }
      ],
      "stateMutability": "view",
      "type": "function"
    },
    {
      "inputs": [
        {
          "internalType": "uint256",
          "name": "tokenId",
          "type": "uint256"
        }
      ],
      "name": "ownerOf",
      "outputs": [
        {
          "internalType": "address",
          "name": "",
          "type": "address"
        }
      ],
      "stateMutability": "view",
      "type": "function"
    },
    {
      "inputs": [],
      "name": "renounceOwnership",
      "outputs": [],
      "stateMutability": "nonpayable",
      "type": "function"
    },
    {
      "inputs": [
        {
          "internalType": "address",
          "name": "from",
          "type": "address"
        },
        {
          "internalType": "address",
          "name": "to",
          "type": "address"
        },
        {
          "internalType": "uint256",
          "name": "tokenId",
          "type": "uint256"
        }
      ],
      "name": "safeTransferFrom",
      "outputs": [],
      "stateMutability": "nonpayable",
      "type": "function"
    },
    {
      "inputs": [
        {
          "internalType": "address",
          "name": "from",
          "type": "address"
        },
        {
          "internalType": "address",
          "name": "to",
          "type": "address"
        },
        {
          "internalType": "uint256",
          "name": "tokenId",
          "type": "uint256"
        },
        {
          "internalType": "bytes",
          "name": "_data",
          "type": "bytes"
        }
      ],
      "name": "safeTransferFrom",
      "outputs": [],
      "stateMutability": "nonpayable",
      "type": "function"
    },
    {
      "inputs": [
        {
          "internalType": "address",
          "name": "operator",
          "type": "address"
        },
        {
          "internalType": "bool",
          "name": "approved",
          "type": "bool"
        }
      ],
      "name": "setApprovalForAll",
      "outputs": [],
      "stateMutability": "nonpayable",
      "type": "function"
    },
    {
      "inputs": [
        {
          "internalType": "bytes4",
          "name": "interfaceId",
          "type": "bytes4"
        }
      ],
      "name": "supportsInterface",
      "outputs": [
        {
          "internalType": "bool",
          "name": "",
          "type": "bool"
        }
      ],
      "stateMutability": "view",
      "type": "function"
    },
    {
      "inputs": [],
      "name": "symbol",
      "outputs": [
        {
          "internalType": "string",
          "name": "",
          "type": "string"
        }
      ],
      "stateMutability": "view",
      "type": "function"
    },
    {
      "inputs": [
        {
          "internalType": "uint256",
          "name": "index",
          "type": "uint256"
        }
      ],
      "name": "tokenByIndex",
      "outputs": [
        {
          "internalType": "uint256",
          "name": "",
          "type": "uint256"
        }
      ],
      "stateMutability": "view",
      "type": "function"
    },
    {
      "inputs": [
        {
          "internalType": "address",
          "name": "owner",
          "type": "address"
        },
        {
          "internalType": "uint256",
          "name": "index",
          "type": "uint256"
        }
      ],
      "name": "tokenOfOwnerByIndex",
      "outputs": [
        {
          "internalType": "uint256",
          "name": "",
          "type": "uint256"
        }
      ],
      "stateMutability": "view",
      "type": "function"
    },
    {
      "inputs": [],
      "name": "totalSupply",
      "outputs": [
        {
          "internalType": "uint256",
          "name": "",
          "type": "uint256"
        }
      ],
      "stateMutability": "view",
      "type": "function"
    },
    {
      "inputs": [
        {
          "internalType": "address",
          "name": "from",
          "type": "address"
        },
        {
          "internalType": "address",
          "name": "to",
          "type": "address"
        },
        {
          "internalType": "uint256",
          "name": "tokenId",
          "type": "uint256"
        }
      ],
      "name": "transferFrom",
      "outputs": [],
      "stateMutability": "nonpayable",
      "type": "function"
    },
    {
      "inputs": [
        {
          "internalType": "address",
          "name": "newOwner",
          "type": "address"
        }
      ],
      "name": "transferOwnership",
      "outputs": [],
      "stateMutability": "nonpayable",
      "type": "function"
    },
    {
      "inputs": [
        {
          "internalType": "uint256",
          "name": "_tokenId",
          "type": "uint256"
        }
      ],
      "name": "tokenURI",
      "outputs": [
        {
          "internalType": "string",
          "name": "",
          "type": "string"
        }
      ],
      "stateMutability": "view",
      "type": "function"
    },
    {
      "inputs": [
        {
          "internalType": "uint256",
          "name": "gameId",
          "type": "uint256"
        },
        {
          "internalType": "address",
          "name": "_chessCoreAddress",
          "type": "address"
        }
      ],
      "name": "createGameNFT",
      "outputs": [],
      "stateMutability": "nonpayable",
      "type": "function"
    }
  ],
  "bytecode": "0x60806040523480156200001157600080fd5b5060405162001ddc38038062001ddc83398101604081905262000034916200020d565b6040518060400160405280600881526020016710da195cdcd3919560c21b81525060405180604001604052806005815260200164436865737360d81b8152508160009081620000849190620002e4565b506001620000938282620002e4565b5050506000620000a8620000f760201b60201c565b600a80546001600160a01b0319166001600160a01b0383169081179091556040519192509060009060008051602062001dbc833981519152908290a350620000f081620000fb565b50620003b0565b3390565b600a546001600160a01b031633146200015b5760405162461bcd60e51b815260206004820181905260248201527f4f776e61626c653a2063616c6c6572206973206e6f7420746865206f776e657260448201526064015b60405180910390fd5b6001600160a01b038116620001c25760405162461bcd60e51b815260206004820152602660248201527f4f776e61626c653a206e6577206f776e657220697320746865207a65726f206160448201526564647265737360d01b606482015260840162000152565b600a546040516001600160a01b0380841692169060008051602062001dbc83398151915290600090a3600a80546001600160a01b0319166001600160a01b0392909216919091179055565b6000602082840312156200022057600080fd5b81516001600160a01b03811681146200023857600080fd5b9392505050565b634e487b7160e01b600052604160045260246000fd5b600181811c908216806200026a57607f821691505b6020821081036200028b57634e487b7160e01b600052602260045260246000fd5b50919050565b601f821115620002df57600081815260208120601f850160051c81016020861015620002ba5750805b601f850160051c820191505b81811015620002db57828155600101620002c6565b5050505b505050565b81516001600160401b038111156200030057620003006200023f565b620003188162000311845462000255565b8462000291565b602080601f831160018114620003505760008415620003375750858301515b600019600386901b1c1916600185901b178555620002db565b600085815260208120601f198616915b82811015620003815788860151825594840194600190910190840162000360565b5085821015620003a05787850151600019600388901b60f8161c191681555b5050505050600190811b01905550565b6119fc80620003c06000396000f3fe608060405234801561001057600080fd5b50600436106101425760003560e01c80636352211e116100b8578063a22cb4651161007c578063a22cb465146102a5578063b88d4fde146102b8578063c87b56dd146102cb578063e985e9c5146102de578063f2fde38b1461031a578063ff1f333a1461032d57600080fd5b80636352211e1461025e57806370a0823114610271578063715018a6146102845780638da5cb5b1461028c57806395d89b411461029d57600080fd5b806318160ddd1161010a57806318160ddd146101d757806323b872dd146101e95780632f745c59146101fc57806342842e0e1461020f5780634f6ccce714610222578063562d60b71461023557600080fd5b806301ffc9a71461014757806306fdde031461016f578063081812fc14610184578063095ea7b3146101af57806313ec0eb7146101c4575b600080fd5b61015a6101553660046114c7565b610340565b60405190151581526020015b60405180910390f35b61017761036b565b604051610166919061153b565b61019761019236600461154e565b6103fd565b6040516001600160a01b039091168152602001610166565b6101c26101bd366004611583565b610497565b005b6101976101d236600461154e565b6105ac565b6008545b604051908152602001610166565b6101c26101f73660046115ad565b6105d6565b6101db61020a366004611583565b610607565b6101c261021d3660046115ad565b61069d565b6101db61023036600461154e565b6106b8565b61019761024336600461154e565b600b602052600090815260409020546001600160a01b031681565b61019761026c36600461154e565b61074b565b6101db61027f3660046115e9565b6107c2565b6101c2610849565b600a546001600160a01b0316610197565b6101776108ed565b6101c26102b3366004611604565b6108fc565b6101c26102c63660046116af565b6109c0565b6101776102d936600461154e565b6109f8565b61015a6102ec36600461175a565b6001600160a01b03918216600090815260056020908152604080832093909416825291909152205460ff1690565b6101c26103283660046115e9565b610a92565b6101c261033b36600461178d565b610bad565b60006001600160e01b0319821663780e9d6360e01b1480610365575061036582610c88565b92915050565b60606000805461037a906117b0565b80601f01602080910402602001604051908101604052809291908181526020018280546103a6906117b0565b80156103f35780601f106103c8576101008083540402835291602001916103f3565b820191906000526020600020905b8154815290600101906020018083116103d657829003601f168201915b5050505050905090565b6000818152600260205260408120546001600160a01b031661047b5760405162461bcd60e51b815260206004820152602c60248201527f4552433732313a20617070726f76656420717565727920666f72206e6f6e657860448201526b34b9ba32b73a103a37b5b2b760a11b60648201526084015b60405180910390fd5b506000908152600460205260409020546001600160a01b031690565b60006104a28261074b565b9050806001600160a01b0316836001600160a01b03160361050f5760405162461bcd60e51b815260206004820152602160248201527f4552433732313a20617070726f76616c20746f2063757272656e74206f776e656044820152603960f91b6064820152608401610472565b336001600160a01b038216148061052b575061052b81336102ec565b61059d5760405162461bcd60e51b815260206004820152603860248201527f4552433732313a20617070726f76652063616c6c6572206973206e6f74206f7760448201527f6e6572206e6f7220617070726f76656420666f7220616c6c00000000000000006064820152608401610472565b6105a78383610cd8565b505050565b600c81815481106105bc57600080fd5b6000918252602090912001546001600160a01b0316905081565b6105e03382610d46565b6105fc5760405162461bcd60e51b8152600401610472906117ea565b6105a7838383610e39565b6000610612836107c2565b82106106745760405162461bcd60e51b815260206004820152602b60248201527f455243373231456e756d657261626c653a206f776e657220696e646578206f7560448201526a74206f6620626f756e647360a81b6064820152608401610472565b506001600160a01b03919091166000908152600660209081526040808320938352929052205490565b6105a7838383604051806020016040528060008152506109c0565b60006106c360085490565b82106107265760405162461bcd60e51b815260206004820152602c60248201527f455243373231456e756d657261626c653a20676c6f62616c20696e646578206f60448201526b7574206f6620626f756e647360a01b6064820152608401610472565b600882815481106107395761073961183b565b90600052602060002001549050919050565b6000818152600260205260408120546001600160a01b0316806103655760405162461bcd60e51b815260206004820152602960248201527f4552433732313a206f776e657220717565727920666f72206e6f6e657869737460448201526832b73a103a37b5b2b760b91b6064820152608401610472565b60006001600160a01b03821661082d5760405162461bcd60e51b815260206004820152602a60248201527f4552433732313a2062616c616e636520717565727920666f7220746865207a65604482015269726f206164647265737360b01b6064820152608401610472565b506001600160a01b031660009081526003602052604090205490565b600a546001600160a01b031633146108a35760405162461bcd60e51b815260206004820181905260248201527f4f776e61626c653a2063616c6c6572206973206e6f7420746865206f776e65726044820152606401610472565b600a546040516000916001600160a01b0316907f8be0079c531659141344cd1fd0a4f28419497f9722a3daafe3b4186f6b6457e0908390a3600a80546001600160a01b0319169055565b60606001805461037a906117b0565b336001600160a01b038316036109545760405162461bcd60e51b815260206004820152601960248201527f4552433732313a20617070726f766520746f2063616c6c6572000000000000006044820152606401610472565b3360008181526005602090815260408083206001600160a01b03871680855290835292819020805460ff191686151590811790915590519081529192917f17307eab39ab6107e8899845ad3d59bd9653f200f220920489ca2b5937696c31910160405180910390a35050565b6109ca3383610d46565b6109e65760405162461bcd60e51b8152600401610472906117ea565b6109f284848484610fe4565b50505050565b60606000600c8381548110610a0f57610a0f61183b565b60009182526020822001546040805163042bc8db60e11b815290516001600160a01b0390921693508392839263085791b69260048082019392918290030181865afa158015610a62573d6000803e3d6000fd5b505050506040513d6000823e601f3d908101601f19168201604052610a8a9190810190611851565b949350505050565b600a546001600160a01b03163314610aec5760405162461bcd60e51b815260206004820181905260248201527f4f776e61626c653a2063616c6c6572206973206e6f7420746865206f776e65726044820152606401610472565b6001600160a01b038116610b515760405162461bcd60e51b815260206004820152602660248201527f4f776e61626c653a206e6577206f776e657220697320746865207a65726f206160448201526564647265737360d01b6064820152608401610472565b600a546040516001600160a01b038084169216907f8be0079c531659141344cd1fd0a4f28419497f9722a3daafe3b4186f6b6457e090600090a3600a80546001600160a01b0319166001600160a01b0392909216919091179055565b6000828152600b60205260409020546001600160a01b031615610c125760405162461bcd60e51b815260206004820152601f60248201527f4e465420666f72207468652067616d6520616c726561647920657869737473006044820152606401610472565b600c80546001810182556000919091527fdf6966c971051c3d54ec59162606531493a51404a002842f56009d7e5cf4a8c70180546001600160a01b0319166001600160a01b038316179055610c673383611017565b506000908152600b6020526040902080546001600160a01b03191633179055565b60006001600160e01b031982166380ac58cd60e01b1480610cb957506001600160e01b03198216635b5e139f60e01b145b8061036557506301ffc9a760e01b6001600160e01b0319831614610365565b600081815260046020526040902080546001600160a01b0319166001600160a01b0384169081179091558190610d0d8261074b565b6001600160a01b03167f8c5be1e5ebec7d5bd14f71427d1e84f3dd0314c0f7b2291e5b200ac8c7c3b92560405160405180910390a45050565b6000818152600260205260408120546001600160a01b0316610dbf5760405162461bcd60e51b815260206004820152602c60248201527f4552433732313a206f70657261746f7220717565727920666f72206e6f6e657860448201526b34b9ba32b73a103a37b5b2b760a11b6064820152608401610472565b6000610dca8361074b565b9050806001600160a01b0316846001600160a01b03161480610e055750836001600160a01b0316610dfa846103fd565b6001600160a01b0316145b80610a8a57506001600160a01b0380821660009081526005602090815260408083209388168352929052205460ff16610a8a565b826001600160a01b0316610e4c8261074b565b6001600160a01b031614610eb45760405162461bcd60e51b815260206004820152602960248201527f4552433732313a207472616e73666572206f6620746f6b656e2074686174206960448201526839903737ba1037bbb760b91b6064820152608401610472565b6001600160a01b038216610f165760405162461bcd60e51b8152602060048201526024808201527f4552433732313a207472616e7366657220746f20746865207a65726f206164646044820152637265737360e01b6064820152608401610472565b610f21838383611165565b610f2c600082610cd8565b6001600160a01b0383166000908152600360205260408120805460019290610f559084906118de565b90915550506001600160a01b0382166000908152600360205260408120805460019290610f839084906118f1565b909155505060008181526002602052604080822080546001600160a01b0319166001600160a01b0386811691821790925591518493918716917fddf252ad1be2c89b69c2b068fc378daa952ba7f163c4a11628f55a4df523b3ef91a4505050565b610fef848484610e39565b610ffb8484848461121d565b6109f25760405162461bcd60e51b815260040161047290611904565b6001600160a01b03821661106d5760405162461bcd60e51b815260206004820181905260248201527f4552433732313a206d696e7420746f20746865207a65726f20616464726573736044820152606401610472565b6000818152600260205260409020546001600160a01b0316156110d25760405162461bcd60e51b815260206004820152601c60248201527f4552433732313a20746f6b656e20616c7265616479206d696e746564000000006044820152606401610472565b6110de60008383611165565b6001600160a01b03821660009081526003602052604081208054600192906111079084906118f1565b909155505060008181526002602052604080822080546001600160a01b0319166001600160a01b03861690811790915590518392907fddf252ad1be2c89b69c2b068fc378daa952ba7f163c4a11628f55a4df523b3ef908290a45050565b6001600160a01b0383166111c0576111bb81600880546000838152600960205260408120829055600182018355919091527ff3f7a9fe364faab93b216da50a3214154f22a0a2b415b23a84c8169e8b636ee30155565b6111e3565b816001600160a01b0316836001600160a01b0316146111e3576111e3838261131e565b6001600160a01b0382166111fa576105a7816113bb565b826001600160a01b0316826001600160a01b0316146105a7576105a7828261146a565b60006001600160a01b0384163b1561131357604051630a85bd0160e11b81526001600160a01b0385169063150b7a0290611261903390899088908890600401611956565b6020604051808303816000875af192505050801561129c575060408051601f3d908101601f1916820190925261129991810190611993565b60015b6112f9573d8080156112ca576040519150601f19603f3d011682016040523d82523d6000602084013e6112cf565b606091505b5080516000036112f15760405162461bcd60e51b815260040161047290611904565b805181602001fd5b6001600160e01b031916630a85bd0160e11b149050610a8a565b506001949350505050565b6000600161132b846107c2565b61133591906118de565b600083815260076020526040902054909150808214611388576001600160a01b03841660009081526006602090815260408083208584528252808320548484528184208190558352600790915290208190555b5060009182526007602090815260408084208490556001600160a01b039094168352600681528383209183525290812055565b6008546000906113cd906001906118de565b600083815260096020526040812054600880549394509092849081106113f5576113f561183b565b9060005260206000200154905080600883815481106114165761141661183b565b600091825260208083209091019290925582815260099091526040808220849055858252812055600880548061144e5761144e6119b0565b6001900381819060005260206000200160009055905550505050565b6000611475836107c2565b6001600160a01b039093166000908152600660209081526040808320868452825280832085905593825260079052919091209190915550565b6001600160e01b0319811681146114c457600080fd5b50565b6000602082840312156114d957600080fd5b81356114e4816114ae565b9392505050565b60005b838110156115065781810151838201526020016114ee565b50506000910152565b600081518084526115278160208601602086016114eb565b601f01601f19169290920160200192915050565b6020815260006114e4602083018461150f565b60006020828403121561156057600080fd5b5035919050565b80356001600160a01b038116811461157e57600080fd5b919050565b6000806040838503121561159657600080fd5b61159f83611567565b946020939093013593505050565b6000806000606084860312156115c257600080fd5b6115cb84611567565b92506115d960208501611567565b9150604084013590509250925092565b6000602082840312156115fb57600080fd5b6114e482611567565b6000806040838503121561161757600080fd5b61162083611567565b91506020830135801515811461163557600080fd5b809150509250929050565b634e487b7160e01b600052604160045260246000fd5b604051601f8201601f1916810167ffffffffffffffff8111828210171561167f5761167f611640565b604052919050565b600067ffffffffffffffff8211156116a1576116a1611640565b50601f01601f191660200190565b600080600080608085870312156116c557600080fd5b6116ce85611567565b93506116dc60208601611567565b925060408501359150606085013567ffffffffffffffff8111156116ff57600080fd5b8501601f8101871361171057600080fd5b803561172361171e82611687565b611656565b81815288602083850101111561173857600080fd5b8160208401602083013760006020838301015280935050505092959194509250565b6000806040838503121561176d57600080fd5b61177683611567565b915061178460208401611567565b90509250929050565b600080604083850312156117a057600080fd5b8235915061178460208401611567565b600181811c908216806117c457607f821691505b6020821081036117e457634e487b7160e01b600052602260045260246000fd5b50919050565b60208082526031908201527f4552433732313a207472616e736665722063616c6c6572206973206e6f74206f6040820152701ddb995c881b9bdc88185c1c1c9bdd9959607a1b606082015260800190565b634e487b7160e01b600052603260045260246000fd5b60006020828403121561186357600080fd5b815167ffffffffffffffff81111561187a57600080fd5b8201601f8101841361188b57600080fd5b805161189961171e82611687565b8181528560208385010111156118ae57600080fd5b6118bf8260208301602086016114eb565b95945050505050565b634e487b7160e01b600052601160045260246000fd5b81810381811115610365576103656118c8565b80820180821115610365576103656118c8565b60208082526032908201527f4552433732313a207472616e7366657220746f206e6f6e20455243373231526560408201527131b2b4bb32b91034b6b83632b6b2b73a32b960711b606082015260800190565b6001600160a01b03858116825284166020820152604081018390526080606082018190526000906119899083018461150f565b9695505050505050565b6000602082840312156119a557600080fd5b81516114e4816114ae565b634e487b7160e01b600052603160045260246000fdfea264697066735822122045c86899e0db1013036a3dee805c9364db09423b775010741f185978bc4192db64736f6c634300081300338be0079c531659141344cd1fd0a4f28419497f9722a3daafe3b4186f6b6457e0",
  "immutableReferences": {},
  "source": "// SPDX-License-Identifier: MIT\npragma solidity ^0.8.19;\nimport \"@openzeppelin/contracts/token/ERC721/extensions/ERC721Enumerable.sol\";\nimport \"@openzeppelin/contracts/access/Ownable.sol\";\n\nimport \"./ChessMediaLibrary.sol\";\n\ninterface IChessCore {\n    function printChessBoardLayoutSVG() external view returns (string memory);\n}\n    \ncontract ChessNFT is ERC721Enumerable, Ownable {\n    using ChessMediaLibrary for uint8[8][8];\n    mapping(uint256 => address) public gameNFTs;\n    address[] public gameAddresses;\n\n    constructor(address _initialOwner) ERC721(\"ChessNFT\", \"Chess\") Ownable() {\n        transferOwnership(_initialOwner);\n    }\n    \n    function tokenURI(uint256 _tokenId) public view virtual override returns (string memory) {\n        address gameAddress = gameAddresses[_tokenId];\n        IChessCore c = IChessCore(gameAddress);\n        return c.printChessBoardLayoutSVG();\n    }\n\n    function createGameNFT(uint256 gameId, address _chessCoreAddress) external {\n        require(gameNFTs[gameId] == address(0), \"NFT for the game already exists\");\n        gameAddresses.push(_chessCoreAddress);\n        _mint(msg.sender, gameId);\n        gameNFTs[gameId] = msg.sender;\n    }\n\n}",
  "sourcePath": "/Users/jacopo/Documents/solidity/ChessGame/contracts/Chess/ChessNFT.sol",
  "compiler": {
    "name": "solc",
    "version": "0.8.19+commit.7dd6d404.Emscripten.clang"
  },
  "schemaVersion": "3.4.16",
  "updatedAt": "2023-12-25T00:14:37.766Z",
  "networkType": "ethereum",
  "devdoc": {
    "events": {
      "Approval(address,address,uint256)": {
        "details": "Emitted when `owner` enables `approved` to manage the `tokenId` token."
      },
      "ApprovalForAll(address,address,bool)": {
        "details": "Emitted when `owner` enables or disables (`approved`) `operator` to manage all of its assets."
      },
      "Transfer(address,address,uint256)": {
        "details": "Emitted when `tokenId` token is transferred from `from` to `to`."
      }
    },
    "kind": "dev",
    "methods": {
      "approve(address,uint256)": {
        "details": "See {IERC721-approve}."
      },
      "balanceOf(address)": {
        "details": "See {IERC721-balanceOf}."
      },
      "getApproved(uint256)": {
        "details": "See {IERC721-getApproved}."
      },
      "isApprovedForAll(address,address)": {
        "details": "See {IERC721-isApprovedForAll}."
      },
      "name()": {
        "details": "See {IERC721Metadata-name}."
      },
      "owner()": {
        "details": "Returns the address of the current owner."
      },
      "ownerOf(uint256)": {
        "details": "See {IERC721-ownerOf}."
      },
      "renounceOwnership()": {
        "details": "Leaves the contract without owner. It will not be possible to call `onlyOwner` functions anymore. Can only be called by the current owner. NOTE: Renouncing ownership will leave the contract without an owner, thereby removing any functionality that is only available to the owner."
      },
      "safeTransferFrom(address,address,uint256)": {
        "details": "See {IERC721-safeTransferFrom}."
      },
      "safeTransferFrom(address,address,uint256,bytes)": {
        "details": "See {IERC721-safeTransferFrom}."
      },
      "setApprovalForAll(address,bool)": {
        "details": "See {IERC721-setApprovalForAll}."
      },
      "supportsInterface(bytes4)": {
        "details": "See {IERC165-supportsInterface}."
      },
      "symbol()": {
        "details": "See {IERC721Metadata-symbol}."
      },
      "tokenByIndex(uint256)": {
        "details": "See {IERC721Enumerable-tokenByIndex}."
      },
      "tokenOfOwnerByIndex(address,uint256)": {
        "details": "See {IERC721Enumerable-tokenOfOwnerByIndex}."
      },
      "totalSupply()": {
        "details": "See {IERC721Enumerable-totalSupply}."
      },
      "transferFrom(address,address,uint256)": {
        "details": "See {IERC721-transferFrom}."
      },
      "transferOwnership(address)": {
        "details": "Transfers ownership of the contract to a new account (`newOwner`). Can only be called by the current owner."
      }
    },
    "version": 1
  },
  "userdoc": {
    "kind": "user",
    "methods": {},
    "version": 1
  }
}