{
  "contractName": "ChessFactory",
  "abi": [
    {
      "inputs": [],
      "stateMutability": "nonpayable",
      "type": "constructor"
    },
    {
      "inputs": [],
      "name": "addressNFT",
      "outputs": [
        {
          "internalType": "address",
          "name": "",
          "type": "address"
        }
      ],
      "stateMutability": "view",
      "type": "function",
      "constant": true
    },
    {
      "inputs": [
        {
          "internalType": "uint256",
          "name": "",
          "type": "uint256"
        }
      ],
      "name": "deployedChessGames",
      "outputs": [
        {
          "internalType": "address",
          "name": "",
          "type": "address"
        }
      ],
      "stateMutability": "view",
      "type": "function",
      "constant": true
    },
    {
      "inputs": [],
      "name": "totalChessGames",
      "outputs": [
        {
          "internalType": "uint256",
          "name": "",
          "type": "uint256"
        }
      ],
      "stateMutability": "view",
      "type": "function",
      "constant": true
    },
    {
      "inputs": [],
      "name": "deployNFT",
      "outputs": [],
      "stateMutability": "nonpayable",
      "type": "function"
    },
    {
      "inputs": [],
      "name": "createChessGame",
      "outputs": [],
      "stateMutability": "payable",
      "type": "function",
      "payable": true
    },
    {
      "inputs": [],
      "name": "getDeployedChessGames",
      "outputs": [
        {
          "internalType": "address[]",
          "name": "",
          "type": "address[]"
        }
      ],
      "stateMutability": "view",
      "type": "function",
      "constant": true
    }
  ],
  "bytecode": "0x608060405234801561001057600080fd5b506153ab806100206000396000f3fe6080604052600436106100555760003560e01c80631be58e4b1461005a5780632e4ccf721461007157806331eda181146100ae57806364fffe69146100b6578063a4b7bbde146100d8578063c6b68eef146100f8575b600080fd5b34801561006657600080fd5b5061006f61011c565b005b34801561007d57600080fd5b50600154610091906001600160a01b031681565b6040516001600160a01b0390911681526020015b60405180910390f35b61006f61017b565b3480156100c257600080fd5b506100cb6102a3565b6040516100a5919061034b565b3480156100e457600080fd5b506100916100f3366004610398565b610305565b34801561010457600080fd5b5061010e60025481565b6040519081526020016100a5565b60003360405161012b9061032f565b6001600160a01b039091168152602001604051809103906000f080158015610157573d6000803e3d6000fd5b50600180546001600160a01b0319166001600160a01b039290921691909117905550565b600034333460405161018c9061033d565b6001600160a01b03909216825260208201526040016040518091039082f09050801580156101be573d6000803e3d6000fd5b50600080546001810182558180527f290decd9548b62a8d60345a988386fc84ba6bc95484008f6362f93160ef3e5630180546001600160a01b0319166001600160a01b0384161790556002805492935090610218836103c7565b9091555050600180546002546001600160a01b039091169163ff1f333a9161024091906103e0565b6040516001600160e01b031960e084901b16815260048101919091526001600160a01b0384166024820152604401600060405180830381600087803b15801561028857600080fd5b505af115801561029c573d6000803e3d6000fd5b5050505050565b606060008054806020026020016040519081016040528092919081815260200182805480156102fb57602002820191906000526020600020905b81546001600160a01b031681526001909101906020018083116102dd575b5050505050905090565b6000818154811061031557600080fd5b6000918252602090912001546001600160a01b0316905081565b611ddc80620003fa83390190565b6131a080620021d683390190565b6020808252825182820181905260009190848201906040850190845b8181101561038c5783516001600160a01b031683529284019291840191600101610367565b50909695505050505050565b6000602082840312156103aa57600080fd5b5035919050565b634e487b7160e01b600052601160045260246000fd5b6000600182016103d9576103d96103b1565b5060010190565b818103818111156103f3576103f36103b1565b9291505056fe60806040523480156200001157600080fd5b5060405162001ddc38038062001ddc83398101604081905262000034916200020d565b6040518060400160405280600881526020016710da195cdcd3919560c21b81525060405180604001604052806005815260200164436865737360d81b8152508160009081620000849190620002e4565b506001620000938282620002e4565b5050506000620000a8620000f760201b60201c565b600a80546001600160a01b0319166001600160a01b0383169081179091556040519192509060009060008051602062001dbc833981519152908290a350620000f081620000fb565b50620003b0565b3390565b600a546001600160a01b031633146200015b5760405162461bcd60e51b815260206004820181905260248201527f4f776e61626c653a2063616c6c6572206973206e6f7420746865206f776e657260448201526064015b60405180910390fd5b6001600160a01b038116620001c25760405162461bcd60e51b815260206004820152602660248201527f4f776e61626c653a206e6577206f776e657220697320746865207a65726f206160448201526564647265737360d01b606482015260840162000152565b600a546040516001600160a01b0380841692169060008051602062001dbc83398151915290600090a3600a80546001600160a01b0319166001600160a01b0392909216919091179055565b6000602082840312156200022057600080fd5b81516001600160a01b03811681146200023857600080fd5b9392505050565b634e487b7160e01b600052604160045260246000fd5b600181811c908216806200026a57607f821691505b6020821081036200028b57634e487b7160e01b600052602260045260246000fd5b50919050565b601f821115620002df57600081815260208120601f850160051c81016020861015620002ba5750805b601f850160051c820191505b81811015620002db57828155600101620002c6565b5050505b505050565b81516001600160401b038111156200030057620003006200023f565b620003188162000311845462000255565b8462000291565b602080601f831160018114620003505760008415620003375750858301515b600019600386901b1c1916600185901b178555620002db565b600085815260208120601f198616915b82811015620003815788860151825594840194600190910190840162000360565b5085821015620003a05787850151600019600388901b60f8161c191681555b5050505050600190811b01905550565b6119fc80620003c06000396000f3fe608060405234801561001057600080fd5b50600436106101425760003560e01c80636352211e116100b8578063a22cb4651161007c578063a22cb465146102a5578063b88d4fde146102b8578063c87b56dd146102cb578063e985e9c5146102de578063f2fde38b1461031a578063ff1f333a1461032d57600080fd5b80636352211e1461025e57806370a0823114610271578063715018a6146102845780638da5cb5b1461028c57806395d89b411461029d57600080fd5b806318160ddd1161010a57806318160ddd146101d757806323b872dd146101e95780632f745c59146101fc57806342842e0e1461020f5780634f6ccce714610222578063562d60b71461023557600080fd5b806301ffc9a71461014757806306fdde031461016f578063081812fc14610184578063095ea7b3146101af57806313ec0eb7146101c4575b600080fd5b61015a6101553660046114c7565b610340565b60405190151581526020015b60405180910390f35b61017761036b565b604051610166919061153b565b61019761019236600461154e565b6103fd565b6040516001600160a01b039091168152602001610166565b6101c26101bd366004611583565b610497565b005b6101976101d236600461154e565b6105ac565b6008545b604051908152602001610166565b6101c26101f73660046115ad565b6105d6565b6101db61020a366004611583565b610607565b6101c261021d3660046115ad565b61069d565b6101db61023036600461154e565b6106b8565b61019761024336600461154e565b600b602052600090815260409020546001600160a01b031681565b61019761026c36600461154e565b61074b565b6101db61027f3660046115e9565b6107c2565b6101c2610849565b600a546001600160a01b0316610197565b6101776108ed565b6101c26102b3366004611604565b6108fc565b6101c26102c63660046116af565b6109c0565b6101776102d936600461154e565b6109f8565b61015a6102ec36600461175a565b6001600160a01b03918216600090815260056020908152604080832093909416825291909152205460ff1690565b6101c26103283660046115e9565b610a92565b6101c261033b36600461178d565b610bad565b60006001600160e01b0319821663780e9d6360e01b1480610365575061036582610c88565b92915050565b60606000805461037a906117b0565b80601f01602080910402602001604051908101604052809291908181526020018280546103a6906117b0565b80156103f35780601f106103c8576101008083540402835291602001916103f3565b820191906000526020600020905b8154815290600101906020018083116103d657829003601f168201915b5050505050905090565b6000818152600260205260408120546001600160a01b031661047b5760405162461bcd60e51b815260206004820152602c60248201527f4552433732313a20617070726f76656420717565727920666f72206e6f6e657860448201526b34b9ba32b73a103a37b5b2b760a11b60648201526084015b60405180910390fd5b506000908152600460205260409020546001600160a01b031690565b60006104a28261074b565b9050806001600160a01b0316836001600160a01b03160361050f5760405162461bcd60e51b815260206004820152602160248201527f4552433732313a20617070726f76616c20746f2063757272656e74206f776e656044820152603960f91b6064820152608401610472565b336001600160a01b038216148061052b575061052b81336102ec565b61059d5760405162461bcd60e51b815260206004820152603860248201527f4552433732313a20617070726f76652063616c6c6572206973206e6f74206f7760448201527f6e6572206e6f7220617070726f76656420666f7220616c6c00000000000000006064820152608401610472565b6105a78383610cd8565b505050565b600c81815481106105bc57600080fd5b6000918252602090912001546001600160a01b0316905081565b6105e03382610d46565b6105fc5760405162461bcd60e51b8152600401610472906117ea565b6105a7838383610e39565b6000610612836107c2565b82106106745760405162461bcd60e51b815260206004820152602b60248201527f455243373231456e756d657261626c653a206f776e657220696e646578206f7560448201526a74206f6620626f756e647360a81b6064820152608401610472565b506001600160a01b03919091166000908152600660209081526040808320938352929052205490565b6105a7838383604051806020016040528060008152506109c0565b60006106c360085490565b82106107265760405162461bcd60e51b815260206004820152602c60248201527f455243373231456e756d657261626c653a20676c6f62616c20696e646578206f60448201526b7574206f6620626f756e647360a01b6064820152608401610472565b600882815481106107395761073961183b565b90600052602060002001549050919050565b6000818152600260205260408120546001600160a01b0316806103655760405162461bcd60e51b815260206004820152602960248201527f4552433732313a206f776e657220717565727920666f72206e6f6e657869737460448201526832b73a103a37b5b2b760b91b6064820152608401610472565b60006001600160a01b03821661082d5760405162461bcd60e51b815260206004820152602a60248201527f4552433732313a2062616c616e636520717565727920666f7220746865207a65604482015269726f206164647265737360b01b6064820152608401610472565b506001600160a01b031660009081526003602052604090205490565b600a546001600160a01b031633146108a35760405162461bcd60e51b815260206004820181905260248201527f4f776e61626c653a2063616c6c6572206973206e6f7420746865206f776e65726044820152606401610472565b600a546040516000916001600160a01b0316907f8be0079c531659141344cd1fd0a4f28419497f9722a3daafe3b4186f6b6457e0908390a3600a80546001600160a01b0319169055565b60606001805461037a906117b0565b336001600160a01b038316036109545760405162461bcd60e51b815260206004820152601960248201527f4552433732313a20617070726f766520746f2063616c6c6572000000000000006044820152606401610472565b3360008181526005602090815260408083206001600160a01b03871680855290835292819020805460ff191686151590811790915590519081529192917f17307eab39ab6107e8899845ad3d59bd9653f200f220920489ca2b5937696c31910160405180910390a35050565b6109ca3383610d46565b6109e65760405162461bcd60e51b8152600401610472906117ea565b6109f284848484610fe4565b50505050565b60606000600c8381548110610a0f57610a0f61183b565b60009182526020822001546040805163042bc8db60e11b815290516001600160a01b0390921693508392839263085791b69260048082019392918290030181865afa158015610a62573d6000803e3d6000fd5b505050506040513d6000823e601f3d908101601f19168201604052610a8a9190810190611851565b949350505050565b600a546001600160a01b03163314610aec5760405162461bcd60e51b815260206004820181905260248201527f4f776e61626c653a2063616c6c6572206973206e6f7420746865206f776e65726044820152606401610472565b6001600160a01b038116610b515760405162461bcd60e51b815260206004820152602660248201527f4f776e61626c653a206e6577206f776e657220697320746865207a65726f206160448201526564647265737360d01b6064820152608401610472565b600a546040516001600160a01b038084169216907f8be0079c531659141344cd1fd0a4f28419497f9722a3daafe3b4186f6b6457e090600090a3600a80546001600160a01b0319166001600160a01b0392909216919091179055565b6000828152600b60205260409020546001600160a01b031615610c125760405162461bcd60e51b815260206004820152601f60248201527f4e465420666f72207468652067616d6520616c726561647920657869737473006044820152606401610472565b600c80546001810182556000919091527fdf6966c971051c3d54ec59162606531493a51404a002842f56009d7e5cf4a8c70180546001600160a01b0319166001600160a01b038316179055610c673383611017565b506000908152600b6020526040902080546001600160a01b03191633179055565b60006001600160e01b031982166380ac58cd60e01b1480610cb957506001600160e01b03198216635b5e139f60e01b145b8061036557506301ffc9a760e01b6001600160e01b0319831614610365565b600081815260046020526040902080546001600160a01b0319166001600160a01b0384169081179091558190610d0d8261074b565b6001600160a01b03167f8c5be1e5ebec7d5bd14f71427d1e84f3dd0314c0f7b2291e5b200ac8c7c3b92560405160405180910390a45050565b6000818152600260205260408120546001600160a01b0316610dbf5760405162461bcd60e51b815260206004820152602c60248201527f4552433732313a206f70657261746f7220717565727920666f72206e6f6e657860448201526b34b9ba32b73a103a37b5b2b760a11b6064820152608401610472565b6000610dca8361074b565b9050806001600160a01b0316846001600160a01b03161480610e055750836001600160a01b0316610dfa846103fd565b6001600160a01b0316145b80610a8a57506001600160a01b0380821660009081526005602090815260408083209388168352929052205460ff16610a8a565b826001600160a01b0316610e4c8261074b565b6001600160a01b031614610eb45760405162461bcd60e51b815260206004820152602960248201527f4552433732313a207472616e73666572206f6620746f6b656e2074686174206960448201526839903737ba1037bbb760b91b6064820152608401610472565b6001600160a01b038216610f165760405162461bcd60e51b8152602060048201526024808201527f4552433732313a207472616e7366657220746f20746865207a65726f206164646044820152637265737360e01b6064820152608401610472565b610f21838383611165565b610f2c600082610cd8565b6001600160a01b0383166000908152600360205260408120805460019290610f559084906118de565b90915550506001600160a01b0382166000908152600360205260408120805460019290610f839084906118f1565b909155505060008181526002602052604080822080546001600160a01b0319166001600160a01b0386811691821790925591518493918716917fddf252ad1be2c89b69c2b068fc378daa952ba7f163c4a11628f55a4df523b3ef91a4505050565b610fef848484610e39565b610ffb8484848461121d565b6109f25760405162461bcd60e51b815260040161047290611904565b6001600160a01b03821661106d5760405162461bcd60e51b815260206004820181905260248201527f4552433732313a206d696e7420746f20746865207a65726f20616464726573736044820152606401610472565b6000818152600260205260409020546001600160a01b0316156110d25760405162461bcd60e51b815260206004820152601c60248201527f4552433732313a20746f6b656e20616c7265616479206d696e746564000000006044820152606401610472565b6110de60008383611165565b6001600160a01b03821660009081526003602052604081208054600192906111079084906118f1565b909155505060008181526002602052604080822080546001600160a01b0319166001600160a01b03861690811790915590518392907fddf252ad1be2c89b69c2b068fc378daa952ba7f163c4a11628f55a4df523b3ef908290a45050565b6001600160a01b0383166111c0576111bb81600880546000838152600960205260408120829055600182018355919091527ff3f7a9fe364faab93b216da50a3214154f22a0a2b415b23a84c8169e8b636ee30155565b6111e3565b816001600160a01b0316836001600160a01b0316146111e3576111e3838261131e565b6001600160a01b0382166111fa576105a7816113bb565b826001600160a01b0316826001600160a01b0316146105a7576105a7828261146a565b60006001600160a01b0384163b1561131357604051630a85bd0160e11b81526001600160a01b0385169063150b7a0290611261903390899088908890600401611956565b6020604051808303816000875af192505050801561129c575060408051601f3d908101601f1916820190925261129991810190611993565b60015b6112f9573d8080156112ca576040519150601f19603f3d011682016040523d82523d6000602084013e6112cf565b606091505b5080516000036112f15760405162461bcd60e51b815260040161047290611904565b805181602001fd5b6001600160e01b031916630a85bd0160e11b149050610a8a565b506001949350505050565b6000600161132b846107c2565b61133591906118de565b600083815260076020526040902054909150808214611388576001600160a01b03841660009081526006602090815260408083208584528252808320548484528184208190558352600790915290208190555b5060009182526007602090815260408084208490556001600160a01b039094168352600681528383209183525290812055565b6008546000906113cd906001906118de565b600083815260096020526040812054600880549394509092849081106113f5576113f561183b565b9060005260206000200154905080600883815481106114165761141661183b565b600091825260208083209091019290925582815260099091526040808220849055858252812055600880548061144e5761144e6119b0565b6001900381819060005260206000200160009055905550505050565b6000611475836107c2565b6001600160a01b039093166000908152600660209081526040808320868452825280832085905593825260079052919091209190915550565b6001600160e01b0319811681146114c457600080fd5b50565b6000602082840312156114d957600080fd5b81356114e4816114ae565b9392505050565b60005b838110156115065781810151838201526020016114ee565b50506000910152565b600081518084526115278160208601602086016114eb565b601f01601f19169290920160200192915050565b6020815260006114e4602083018461150f565b60006020828403121561156057600080fd5b5035919050565b80356001600160a01b038116811461157e57600080fd5b919050565b6000806040838503121561159657600080fd5b61159f83611567565b946020939093013593505050565b6000806000606084860312156115c257600080fd5b6115cb84611567565b92506115d960208501611567565b9150604084013590509250925092565b6000602082840312156115fb57600080fd5b6114e482611567565b6000806040838503121561161757600080fd5b61162083611567565b91506020830135801515811461163557600080fd5b809150509250929050565b634e487b7160e01b600052604160045260246000fd5b604051601f8201601f1916810167ffffffffffffffff8111828210171561167f5761167f611640565b604052919050565b600067ffffffffffffffff8211156116a1576116a1611640565b50601f01601f191660200190565b600080600080608085870312156116c557600080fd5b6116ce85611567565b93506116dc60208601611567565b925060408501359150606085013567ffffffffffffffff8111156116ff57600080fd5b8501601f8101871361171057600080fd5b803561172361171e82611687565b611656565b81815288602083850101111561173857600080fd5b8160208401602083013760006020838301015280935050505092959194509250565b6000806040838503121561176d57600080fd5b61177683611567565b915061178460208401611567565b90509250929050565b600080604083850312156117a057600080fd5b8235915061178460208401611567565b600181811c908216806117c457607f821691505b6020821081036117e457634e487b7160e01b600052602260045260246000fd5b50919050565b60208082526031908201527f4552433732313a207472616e736665722063616c6c6572206973206e6f74206f6040820152701ddb995c881b9bdc88185c1c1c9bdd9959607a1b606082015260800190565b634e487b7160e01b600052603260045260246000fd5b60006020828403121561186357600080fd5b815167ffffffffffffffff81111561187a57600080fd5b8201601f8101841361188b57600080fd5b805161189961171e82611687565b8181528560208385010111156118ae57600080fd5b6118bf8260208301602086016114eb565b95945050505050565b634e487b7160e01b600052601160045260246000fd5b81810381811115610365576103656118c8565b80820180821115610365576103656118c8565b60208082526032908201527f4552433732313a207472616e7366657220746f206e6f6e20455243373231526560408201527131b2b4bb32b91034b6b83632b6b2b73a32b960711b606082015260800190565b6001600160a01b03858116825284166020820152604081018390526080606082018190526000906119899083018461150f565b9695505050505050565b6000602082840312156119a557600080fd5b81516114e4816114ae565b634e487b7160e01b600052603160045260246000fdfea264697066735822122045c86899e0db1013036a3dee805c9364db09423b775010741f185978bc4192db64736f6c634300081300338be0079c531659141344cd1fd0a4f28419497f9722a3daafe3b4186f6b6457e061016060408190526000608052600160a052600260c052600360e052600461010052600561012052600661014052600a805460ff19169055620031a03881900390819083398101604081905262000056916200039f565b62000060620000a1565b600a8054610100600160a81b0319166101006001600160a01b0394909416938402179055600c80546001600160a01b0319169092179091556009556200044a565b61010051620000b090620003f1565b6000805460ff191660ff9290921691909117905560c051620000d290620003f1565b6000805460ff929092166101000261ff001990921691909117905560e051620000fb90620003f1565b6000805460ff92909216620100000262ff000019909216919091179055610120516200012790620003f1565b6000805460ff9290921663010000000263ff00000019909216919091179055610140516200015590620003f1565b6000805460ff929092166401000000000260ff60201b1990921691909117905560e0516200018390620003f1565b6000805460ff92909216650100000000000260ff60281b1990921691909117905560c051620001b290620003f1565b6000805460ff9290921666010000000000000260ff60301b1990921691909117905561010051620001e390620003f1565b6000805460ff929092166701000000000000000260ff60381b199092169190911781555b600860ff82161015620002745760a0516200022290620003f1565b600160ff8316600881106200023b576200023b62000412565b602091828204019190066101000a81548160ff021916908360000b60ff16021790555080806200026b9062000428565b91505062000207565b5061010080516007805460c05160e051610120516101405167010000000000000060ff97881690810265010000000000948916948502938916630100000002958916998a0261ffff19909716919091179590951763ffff00001916620100009390930263ff0000001916929092179290921761ffff60201b191694166401000000000260ff60281b1916939093179290921761ffff60301b191666010000000000009390930260ff60381b19169290921717905560005b600860ff821610156200038d5760a051600660ff83166008811062000354576200035462000412565b602091828204019190066101000a81548160ff021916908360000b60ff1602179055508080620003849062000428565b9150506200032b565b506008805465ffffffffffff19169055565b60008060408385031215620003b357600080fd5b82516001600160a01b0381168114620003cb57600080fd5b6020939093015192949293505050565b634e487b7160e01b600052601160045260246000fd5b600081810b60808101620004095762000409620003db565b60000392915050565b634e487b7160e01b600052603260045260246000fd5b600060ff821660ff8103620004415762000441620003db565b60010192915050565b60805160a05160c05160e051610100516101205161014051612c146200058c600039600081816106f201528181610df701528181611337015281816113d0015281816118f801528181611ae40152611ef20152600081816112f4015281816118ae0152611a91015260008181610e9901528181610f0c01528181610fb4015281816110200152818161119d015281816118640152611a3e01526000818161115a0152818161181a01526119eb015260008181611117015281816117d001526119980152600081816110cb015281816117860152818161194501528181611b7b01528181611c410152611ca4015260008181610637015281816108b201528181610965015281816110860152818161173c0152818161202a015281816121030152818161232b015281816125b80152818161267f01526127400152612c146000f3fe6080604052600436106100955760003560e01c80638086a92a116100595780638086a92a146101cf57806393c9e524146102025780639454986514610217578063ee545d4f1461022c578063f8a8fd6d1461023457600080fd5b806302cac05c1461010c578063085791b61461014957806339b4b0d61461016b578063538a93ed1461018f5780637bed3d1c146101af57600080fd5b36610107576000600a5460ff1660048111156100b3576100b36127a3565b146101055760405162461bcd60e51b815260206004820152601860248201527f47616d652068617320616c72656164792073746172746564000000000000000060448201526064015b60405180910390fd5b005b600080fd5b34801561011857600080fd5b50600a54600b54604080516101009093046001600160a01b0390811684529091166020830152015b60405180910390f35b34801561015557600080fd5b5061015e610249565b60405161014091906127dd565b34801561017757600080fd5b5061018160095481565b604051908152602001610140565b34801561019b57600080fd5b5061015e6101aa366004612821565b610347565b3480156101bb57600080fd5b506101056101ca36600461286e565b6103aa565b3480156101db57600080fd5b506101ef6101ea3660046128c2565b610a82565b60405160009190910b8152602001610140565b34801561020e57600080fd5b50610105610abe565b34801561022357600080fd5b5061015e610b20565b610105610c0b565b34801561024057600080fd5b50610105610d4b565b6040805161010081019091526060906000600881835b828210156102c357604080516101008101918290529085840190600890826000855b825461010083900a900460000b81526020600192830181810494850194909303909202910180841161028157905050505050508152602001906001019061025f565b5050604051639ef3eb8760e01b815273__ChessMediaLibrary_____________________93639ef3eb8793506102fd9250906004016128e4565b600060405180830381865af415801561031a573d6000803e3d6000fd5b505050506040513d6000823e601f3d908101601f19168201604052610342919081019061295e565b905090565b60608160008560ff166008811061036057610360612a0b565b018460ff166008811061037557610375612a0b565b602091828204019190066101000a81548160ff021916908360000b60ff1602179055506103a0610b20565b90505b9392505050565b600c546001600160a01b031633146103fa5760405162461bcd60e51b815260206004820152601360248201527249742773206e6f7420796f7572207475726e2160681b60448201526064016100fc565b600b54600c54859185916001916001600160a01b039081169116036104285761042560001982612a37565b90505b60008160008560ff166008811061044157610441612a0b565b018460ff166008811061045657610456612a0b565b60208104909101546104749291601f166101000a900460000b612a37565b60000b136104ce5760405162461bcd60e51b815260206004820152602160248201527f596f752063616e206f6e6c79206d6f766520796f7572206f776e2070696563656044820152607360f81b60648201526084016100fc565b6001600a5460ff1660048111156104e7576104e76127a3565b148061050957506000600a5460ff166004811115610507576105076127a3565b145b61055f5760405162461bcd60e51b815260206004820152602160248201527f47616d6520686173206e6f742073746172746564206f722068617320656e64656044820152601960fa1b60648201526084016100fc565b61056b87878787610d51565b6105a65760405162461bcd60e51b815260206004820152600c60248201526b496e76616c6964206d6f766560a01b60448201526064016100fc565b60008760ff16600881106105bc576105bc612a0b565b018660ff16600881106105d1576105d1612a0b565b602091828204019190069054906101000a900460000b60008660ff16600881106105fd576105fd612a0b565b018560ff166008811061061257610612612a0b565b602091828204019190066101000a81548160ff021916908360000b60ff1602179055507f000000000000000000000000000000000000000000000000000000000000000060008860ff166008811061066c5761066c612a0b565b018760ff166008811061068157610681612a0b565b602091828204019190066101000a81548160ff021916908360000b60ff1602179055506106ed60008860ff16600881106106bd576106bd612a0b565b018760ff16600881106106d2576106d2612a0b565b6020810490910154601f9091166101000a900460000b611387565b60ff167f000000000000000000000000000000000000000000000000000000000000000060ff16148015610735575061072e6107298786612a5e565b611387565b60ff166002145b156109ae57600a54600c546001600160a01b0361010090920482169116036107d05760085460ff16156107be5760405162461bcd60e51b815260206004820152602b60248201527f5768697465206b696e672068617320616c7265616479206d6f7665642e20636160448201526a6e6e6f7420636173746c6560a81b60648201526084016100fc565b6008805460ff19166001179055610852565b6008546301000000900460ff161561083e5760405162461bcd60e51b815260206004820152602b60248201527f426c61636b206b696e672068617320616c7265616479206d6f7665642e20636160448201526a6e6e6f7420636173746c6560a81b60648201526084016100fc565b6008805463ff000000191663010000001790555b8360ff1660060361090e5760008760ff166008811061087357610873612a0b565b0154600160381b9004600090810b9060ff89166008811061089657610896612a0b565b01805465ff00000000001916600160281b60ff938416021790557f0000000000000000000000000000000000000000000000000000000000000000906000908916600881106108e7576108e7612a0b565b01805460ff92909216600160381b0267ff00000000000000199092169190911790556109ae565b8360ff166002036109ae5760008760ff166008811061092f5761092f612a0b565b0154600090810b9060ff89166008811061094b5761094b612a0b565b01805463ff0000001916630100000060ff938416021790557f00000000000000000000000000000000000000000000000000000000000000009060009089166008811061099a5761099a612a0b565b01805460ff191660ff929092169190911790555b6109b96000196113aa565b156109ff576109cb6000198686611529565b6109d65760016109d9565b60035b600a805460ff191660018360048111156109f5576109f56127a3565b0217905550610a71565b610a0960016113aa565b15610a3957610a1a60018686611529565b610a255760016109d9565b600a80546004919060ff19166001836109f5565b610a4161157a565b610a4c576001610a4f565b60025b600a805460ff19166001836004811115610a6b57610a6b6127a3565b02179055505b610a79610abe565b50505050505050565b60008260088110610a9257600080fd5b018160088110610aa157600080fd5b6020810490910154601f9091166101000a900460000b9150829050565b600a54600c546001600160a01b039081166101009092041614610af157600a5461010090046001600160a01b0316610afe565b600b546001600160a01b03165b600c80546001600160a01b0319166001600160a01b0392909216919091179055565b60408051602081019091526000808252606091905b600860ff82161015610c055760005b600860ff82161015610bcf5782610b9a60008460ff1660088110610b6a57610b6a612a0b565b018360ff1660088110610b7f57610b7f612a0b565b6020810490910154601f9091166101000a900460000b611738565b604051602001610bab929190612a7f565b60405160208183030381529060405292508080610bc790612aba565b915050610b44565b5081604051602001610be19190612ad9565b60405160208183030381529060405291508080610bfd90612aba565b915050610b35565b50919050565b600a5461010090046001600160a01b03163303610c6a5760405162461bcd60e51b815260206004820181905260248201527f596f752061726520616c72656164792074686520776869746520706c6179657260448201526064016100fc565b6009543414610cd35760405162461bcd60e51b815260206004820152602f60248201527f506c656173652073656e64207468652073616d6520616d6f756e74206173207460448201526e3432903bb434ba3290383630bcb2b960891b60648201526084016100fc565b600b546001600160a01b031615610d375760405162461bcd60e51b815260206004820152602260248201527f426c61636b20706c6179657220736c6f7420697320616c72656164792074616b60448201526132b760f11b60648201526084016100fc565b600b80546001600160a01b03191633179055565b5b610d4c565b60008060008660ff1660088110610d6a57610d6a612a0b565b018560ff1660088110610d7f57610d7f612a0b565b602091828204019190069054906101000a900460000b90506000808560ff1660088110610dae57610dae612a0b565b018460ff1660088110610dc357610dc3612a0b565b6020810490910154601f9091166101000a900460000b90506002610dea6107298887612a5e565b60ff16148015610e2757507f000000000000000000000000000000000000000000000000000000000000000060ff16610e2283611387565b60ff16145b1561108457600a54600c546001600160a01b036101009092048216911603610f675760ff87166007148015610e5f575060ff86166004145b8015610e6e575060085460ff16155b15610f6257610e9460008860ff1660088110610e8c57610e8c612a0b565b0160076106d2565b60ff167f000000000000000000000000000000000000000000000000000000000000000060ff16148015610ecb575060ff84166003145b8015610ee0575060085462010000900460ff16155b80610f525750610f0760008860ff1660088110610eff57610eff612a0b565b0160006106d2565b60ff167f000000000000000000000000000000000000000000000000000000000000000060ff16148015610f3e575060ff84166002145b8015610f525750600854610100900460ff16155b15610f625760019250505061137f565b611079565b60ff8716158015610f7b575060ff86166004145b8015610f9157506008546301000000900460ff16155b1561107957610faf60008860ff1660088110610eff57610eff612a0b565b60ff167f000000000000000000000000000000000000000000000000000000000000000060ff16148015610fe6575060ff84166006145b8015610ffc5750600854600160281b900460ff16155b80611069575061101b60008860ff1660088110610e8c57610e8c612a0b565b60ff167f000000000000000000000000000000000000000000000000000000000000000060ff16148015611052575060ff84166002145b80156110695750600854640100000000900460ff16155b156110795760019250505061137f565b60009250505061137f565b7f000000000000000000000000000000000000000000000000000000000000000060000b8160000b14806110c4575060006110bf8284612a37565b60000b125b15611378577f000000000000000000000000000000000000000000000000000000000000000060ff166110f683611387565b60ff16036111155761110c878787878686611b57565b9250505061137f565b7f000000000000000000000000000000000000000000000000000000000000000060ff1661114283611387565b60ff16036111585761110c878787878686611d15565b7f000000000000000000000000000000000000000000000000000000000000000060ff1661118583611387565b60ff160361119b5761110c878787878686611d9d565b7f000000000000000000000000000000000000000000000000000000000000000060ff166111c883611387565b60ff16036112f25760ff871660071480156111e4575060ff8616155b80156111f85750600854610100900460ff16155b15611211576008805461ff0019166101001790556112e4565b60ff87166007148015611227575060ff86166007145b801561123c575060085462010000900460ff16155b15611257576008805462ff00001916620100001790556112e4565b60ff871615801561126b575060ff86166007145b80156112825750600854640100000000900460ff16155b156112a1576008805464ff0000000019166401000000001790556112e4565b60ff87161580156112b3575060ff8616155b80156112c95750600854600160281b900460ff16155b156112e4576008805465ff00000000001916600160281b1790555b61110c878787878686611dd9565b7f000000000000000000000000000000000000000000000000000000000000000060ff1661131f83611387565b60ff16036113355761110c878787878686611e26565b7f000000000000000000000000000000000000000000000000000000000000000060ff1661136283611387565b60ff16036113785761110c878787878686611e83565b6000925050505b949350505050565b6000808260000b12156113a25761139d82612afe565b6113a4565b815b92915050565b60008080805b600860ff8216101561146a5760005b600860ff82161015611457576113f57f000000000000000000000000000000000000000000000000000000000000000087612a37565b60000b60008360ff166008811061140e5761140e612a0b565b018260ff166008811061142357611423612a0b565b6020810490910154601f9091166101000a900460000b03611445578193508092505b8061144f81612aba565b9150506113bf565b508061146281612aba565b9150506113b0565b5060005b600860ff8216101561151e5760005b600860ff8216101561150b576000808360ff16600881106114a0576114a0612a0b565b018260ff16600881106114b5576114b5612a0b565b60208104909101546114d391601f166101000a900460000b88612a37565b60000b12156114f9576114e882828686610d51565b156114f95750600195945050505050565b8061150381612aba565b91505061147d565b508061151681612aba565b91505061146e565b506000949350505050565b600061153484611ecc565b15611541575060006103a3565b61154c8484846120e2565b15611559575060006103a3565b6115638383612223565b15611570575060006103a3565b5060019392505050565b600a54600c5460009182916001600160a01b0390811661010090920416146115a4576000196115a7565b60015b905060005b600860ff8216101561172f5760005b600860ff8216101561171c5760008360008460ff16600881106115e0576115e0612a0b565b018360ff16600881106115f5576115f5612a0b565b60208104909101546116139291601f166101000a900460000b612a37565b60000b131561170a5760005b600860ff821610156117085760005b600860ff821610156116f55760008460ff166008811061165057611650612a0b565b018360ff166008811061166557611665612a0b565b6020810490910154601f9091166101000a9004600090810b9060ff84166008811061169257611692612a0b565b018260ff16600881106116a7576116a7612a0b565b6020810490910154601f9091166101000a900460000b148015906116d257506116d284848484610d51565b156116e35760009550505050505090565b806116ed81612aba565b91505061162e565b508061170081612aba565b91505061161f565b505b8061171481612aba565b9150506115bb565b508061172781612aba565b9150506115ac565b50600191505090565b60607f000000000000000000000000000000000000000000000000000000000000000060000b8260000b036117845750506040805180820190915260018152600360fc1b602082015290565b7f000000000000000000000000000000000000000000000000000000000000000060000b8260000b036117ce5750506040805180820190915260018152603160f81b602082015290565b7f000000000000000000000000000000000000000000000000000000000000000060000b8260000b036118185750506040805180820190915260018152601960f91b602082015290565b7f000000000000000000000000000000000000000000000000000000000000000060000b8260000b036118625750506040805180820190915260018152603360f81b602082015290565b7f000000000000000000000000000000000000000000000000000000000000000060000b8260000b036118ac5750506040805180820190915260018152600d60fa1b602082015290565b7f000000000000000000000000000000000000000000000000000000000000000060000b8260000b036118f65750506040805180820190915260018152603560f81b602082015290565b7f000000000000000000000000000000000000000000000000000000000000000060000b8260000b036119405750506040805180820190915260018152601b60f91b602082015290565b6119697f0000000000000000000000000000000000000000000000000000000000000000612afe565b60000b8260000b036119935750506040805180820190915260028152612d3160f01b602082015290565b6119bc7f0000000000000000000000000000000000000000000000000000000000000000612afe565b60000b8260000b036119e6575050604080518082019091526002815261169960f11b602082015290565b611a0f7f0000000000000000000000000000000000000000000000000000000000000000612afe565b60000b8260000b03611a395750506040805180820190915260028152612d3360f01b602082015290565b611a627f0000000000000000000000000000000000000000000000000000000000000000612afe565b60000b8260000b03611a8c5750506040805180820190915260028152610b4d60f21b602082015290565b611ab57f0000000000000000000000000000000000000000000000000000000000000000612afe565b60000b8260000b03611adf5750506040805180820190915260028152612d3560f01b602082015290565b611b087f0000000000000000000000000000000000000000000000000000000000000000612afe565b60000b8260000b03611b32575050604080518082019091526002815261169b60f11b602082015290565b50506040805180820190915260048152630b0b0b0b60e31b602082015290565b919050565b60008360ff168660ff16148015611b7157508160000b6000145b15611c2857611b9f7f0000000000000000000000000000000000000000000000000000000000000000612afe565b60000b8360000b03611bec57611bb6876001612b1c565b60ff168560ff161480611bda575060ff87166001148015611bda575060ff85166003145b15611be757506001611d0b565b611c28565b611bf7600188612b35565b60ff168560ff161480611c1b575060ff87166006148015611c1b575060ff85166004145b15611c2857506001611d0b565b611c356107298786612a5e565b60ff16600103611d07577f000000000000000000000000000000000000000000000000000000000000000060000b8360000b148015611c835750611c7a876001612b1c565b60ff168560ff16145b8015611c92575060008260000b125b15611c9f57506001611d0b565b611cc87f0000000000000000000000000000000000000000000000000000000000000000612afe565b60000b8360000b148015611ceb5750611ce2600188612b35565b60ff168560ff16145b8015611cfa575060008260000b135b15611d0757506001611d0b565b5060005b9695505050505050565b600080611d256107298988612a5e565b90506000611d366107298988612a5e565b90508160ff166001148015611d4e57508060ff166002145b80611d6a57508160ff166002148015611d6a57508060ff166001145b15611d8e576000611d7b8686612a37565b60000b13611d8e57600192505050611d0b565b50600098975050505050505050565b600080611dad6107298988612a5e565b90506000611dbe6107298988612a5e565b90508060ff168260ff1603611d8e57611d6a898989896124a1565b60008460ff168760ff161480611df457508360ff168660ff16145b15611d0757611e05878787876124a1565b15611d07576000611e168484612a37565b60000b13611d0757506001611d0b565b600080611e366107298988612a5e565b90506000611e476107298988612a5e565b90508060ff168260ff161480611e6257508660ff168960ff16145b80611e7257508560ff168860ff16145b15611d8e57611d6a898989896124a1565b600080611e936107298988612a5e565b90506000611ea46107298988612a5e565b905060018260ff1611158015611d6a575060018160ff1611611d8e576000611d7b8686612a37565b60008080805b600860ff82161015611f905760005b600860ff82161015611f7d57611f177f000000000000000000000000000000000000000000000000000000000000000087612a37565b60000b60008360ff1660088110611f3057611f30612a0b565b018260ff1660088110611f4557611f45612a0b565b6020810490910154601f9091166101000a900460000b03611f6b57819350809250611f7d565b80611f7581612aba565b915050611ee1565b5080611f8881612aba565b915050611ed2565b506000195b60018160000b1361151e576000195b60018160000b136120cf576000611fbb8386612b4e565b90506000611fc98386612b4e565b905060008260000b12158015611fe357506008600083900b125b8015611ff3575060008160000b12155b801561200357506008600082900b125b801561202157508360000b600014158061202157508260000b600014155b156120ba5781837f0000000000000000000000000000000000000000000000000000000000000000600090810b9060ff84166008811061206357612063612a0b565b018260ff166008811061207857612078612a0b565b6020810490910154601f9091166101000a900460000b1480156120a257506120a288888484610d51565b156120b7575060019998505050505050505050565b50505b505080806120c790612b6f565b915050611fa4565b50806120da81612b6f565b915050611f95565b6000805b600860ff8216101561151e5760005b600860ff82161015612210577f000000000000000000000000000000000000000000000000000000000000000060000b60008360ff166008811061213b5761213b612a0b565b018260ff166008811061215057612150612a0b565b6020810490910154601f9091166101000a900460000b14806121be575060008660008460ff166008811061218657612186612a0b565b018360ff166008811061219b5761219b612a0b565b60208104909101546121b99291601f166101000a900460000b612a37565b60000b125b806121de57508460ff168260ff161480156121de57508360ff168160ff16145b6121fe576121ee82828787610d51565b156121fe576001925050506103a3565b8061220881612aba565b9150506120f5565b508061221b81612aba565b9150506120e6565b6000805b600860ff821610156124975760005b600860ff8216101561248457600061224e8387612b35565b60ff169050600061225f8387612b35565b60ff16905060008083810b156122885761227884611387565b6122859060ff1685612b85565b91505b8260000b6000146122ac5761229c83611387565b6122a99060ff1684612b85565b90505b60006122b88388612b4e565b905060006122c68388612b4e565b9050600860ff83161080156122de5750600860ff8216105b1561246b575b8a60ff168260ff161415806122ff57508960ff168160ff1614155b1561246b57600860ff8316108015612315575060015b80156123245750600860ff8216105b1561244e577f000000000000000000000000000000000000000000000000000000000000000060000b60008360ff166008811061236357612363612a0b565b018260ff166008811061237857612378612a0b565b6020810490910154601f9091166101000a900460000b1480159061242757506000808960ff16600881106123ae576123ae612a0b565b018860ff16600881106123c3576123c3612a0b565b602091828204019190069054906101000a900460000b60008460ff16600881106123ef576123ef612a0b565b018360ff166008811061240457612404612a0b565b60208104909101546124229291601f166101000a900460000b612a37565b60000b135b1561244e5761243882828a8a610d51565b1561244e576001985050505050505050506113a4565b6124588483612b4e565b91506124648382612b4e565b90506122e4565b505050505050808061247c90612aba565b915050612236565b508061248f81612aba565b915050612227565b5060009392505050565b6000808560ff168460ff16116124c0576124bb8487612b35565b6124ca565b6124ca8685612b35565b905060008560ff168460ff16116124ea576124e58487612b35565b6124f4565b6124f48685612b35565b905060008760ff168660ff161161250d57600019612510565b60015b905060008760ff168660ff16116125295760001961252c565b60015b90508260ff168460ff16036126055760015b8460ff168160ff1610156125ff5760006125588483612a37565b612562908c612b4e565b60000b6008811061257557612575612a0b565b016125808383612a37565b61258a908b612b4e565b60000b6008811061259d5761259d612a0b565b602091828204019190069054906101000a900460000b60000b7f000000000000000000000000000000000000000000000000000000000000000060000b146125ed5760009550505050505061137f565b806125f781612aba565b91505061253e565b50612794565b8660ff168960ff16036126c65760015b8360ff168160ff1610156125ff5760008a60ff166008811061263957612639612a0b565b016126448383612a37565b6126549060000b60ff8c16612bcb565b6008811061266457612664612a0b565b602091828204019190069054906101000a900460000b60000b7f000000000000000000000000000000000000000000000000000000000000000060000b146126b45760009550505050505061137f565b806126be81612aba565b915050612615565b8560ff168860ff16036127875760015b8460ff168160ff1610156125ff5760006126f08483612a37565b6127009060000b60ff8d16612bcb565b6008811061271057612710612a0b565b018960ff166008811061272557612725612a0b565b602091828204019190069054906101000a900460000b60000b7f000000000000000000000000000000000000000000000000000000000000000060000b146127755760009550505050505061137f565b8061277f81612aba565b9150506126d6565b600094505050505061137f565b50600198975050505050505050565b634e487b7160e01b600052602160045260246000fd5b60005b838110156127d45781810151838201526020016127bc565b50506000910152565b60208152600082518060208401526127fc8160408501602087016127b9565b601f01601f19169190910160400192915050565b803560ff81168114611b5257600080fd5b60008060006060848603121561283657600080fd5b61283f84612810565b925061284d60208501612810565b915060408401358060000b811461286357600080fd5b809150509250925092565b6000806000806080858703121561288457600080fd5b61288d85612810565b935061289b60208601612810565b92506128a960408601612810565b91506128b760608601612810565b905092959194509250565b600080604083850312156128d557600080fd5b50508035926020909101359150565b610800810181836000805b60088082106128fe575061293e565b835185845b83811015612923578251860b825260209283019290910190600101612903565b505050610100949094019350602092909201916001016128ef565b5050505092915050565b634e487b7160e01b600052604160045260246000fd5b60006020828403121561297057600080fd5b815167ffffffffffffffff8082111561298857600080fd5b818401915084601f83011261299c57600080fd5b8151818111156129ae576129ae612948565b604051601f8201601f19908116603f011681019083821181831017156129d6576129d6612948565b816040528281528760208487010111156129ef57600080fd5b612a008360208301602088016127b9565b979650505050505050565b634e487b7160e01b600052603260045260246000fd5b634e487b7160e01b600052601160045260246000fd5b60008260000b8260000b028060000b9150808214612a5757612a57612a21565b5092915050565b600082810b9082900b03607f198112607f821317156113a4576113a4612a21565b60008351612a918184602088016127b9565b835190830190612aa58183602088016127b9565b600160fd1b9101908152600101949350505050565b600060ff821660ff8103612ad057612ad0612a21565b60010192915050565b60008251612aeb8184602087016127b9565b600560f91b920191825250600101919050565b600081810b60808101612b1357612b13612a21565b60000392915050565b60ff81811683821601908111156113a4576113a4612a21565b60ff82811682821603908111156113a4576113a4612a21565b600081810b9083900b01607f8113607f19821217156113a4576113a4612a21565b60008160000b607f8103612ad057612ad0612a21565b60008160000b8360000b80612baa57634e487b7160e01b600052601260045260246000fd5b607f19821460001982141615612bc257612bc2612a21565b90059392505050565b808201808211156113a4576113a4612a2156fea26469706673582212204ce0d35ecea9797931cdd0995942709afe9ca9761cfb022cf0e699792a72404b64736f6c63430008130033a264697066735822122059ed02eb5d598cd7dfa1f68427defb83ef5bc31faf7f3ef557c54fc134b39b3764736f6c63430008130033",
  "immutableReferences": {},
  "source": "// SPDX-License-Identifier: MIT\npragma solidity ^0.8.19;\nimport \"./ChessNFT.sol\";\nimport \"./ChessCore.sol\";\n\ncontract ChessFactory {\n    address[] public deployedChessGames;\n    address public addressNFT;\n    uint256 public totalChessGames;\n\n    constructor(){\n        \n    }\n\n    function deployNFT() public {\n        ChessNFT newChessNFT = new ChessNFT(msg.sender);\n        addressNFT = address(newChessNFT);\n    }\n\n    function createChessGame() public payable {\n        //require(msg.value > 0, \"Send an amount greater than zero\");\n\n        ChessCore newChessGame = new ChessCore{value: msg.value}(msg.sender, msg.value);\n        deployedChessGames.push(address(newChessGame));\n        totalChessGames++;\n\n        ChessNFT(addressNFT).createGameNFT(totalChessGames - 1, address(newChessGame));\n    }\n\n    function getDeployedChessGames() public view returns (address[] memory) {\n        return deployedChessGames;\n    }\n\n}",
  "sourcePath": "/Users/jacopo/Documents/solidity/test2/contracts/Chess/ChessFactory.sol",
  "compiler": {
    "name": "solc",
    "version": "0.8.19+commit.7dd6d404.Emscripten.clang"
  },
  "schemaVersion": "3.4.16",
  "updatedAt": "2023-12-24T02:58:44.440Z",
  "networkType": "ethereum",
  "devdoc": {
    "kind": "dev",
    "methods": {},
    "version": 1
  },
  "userdoc": {
    "kind": "user",
    "methods": {},
    "version": 1
  }
}