{
  "contractName": "ChessCore",
  "abi": [
    {
      "inputs": [
        {
          "internalType": "address",
          "name": "_whitePlayer",
          "type": "address"
        },
        {
          "internalType": "uint256",
          "name": "_value",
          "type": "uint256"
        }
      ],
      "stateMutability": "payable",
      "type": "constructor"
    },
    {
      "anonymous": false,
      "inputs": [
        {
          "indexed": false,
          "internalType": "int8",
          "name": "player",
          "type": "int8"
        },
        {
          "indexed": false,
          "internalType": "uint8",
          "name": "startX",
          "type": "uint8"
        },
        {
          "indexed": false,
          "internalType": "uint8",
          "name": "startY",
          "type": "uint8"
        },
        {
          "indexed": false,
          "internalType": "uint8",
          "name": "endX",
          "type": "uint8"
        },
        {
          "indexed": false,
          "internalType": "uint8",
          "name": "endY",
          "type": "uint8"
        },
        {
          "indexed": false,
          "internalType": "string",
          "name": "comment",
          "type": "string"
        }
      ],
      "name": "Debug",
      "type": "event"
    },
    {
      "inputs": [],
      "name": "betting",
      "outputs": [
        {
          "internalType": "uint256",
          "name": "",
          "type": "uint256"
        }
      ],
      "stateMutability": "view",
      "type": "function"
    },
    {
      "inputs": [
        {
          "internalType": "uint256",
          "name": "",
          "type": "uint256"
        },
        {
          "internalType": "uint256",
          "name": "",
          "type": "uint256"
        }
      ],
      "name": "board",
      "outputs": [
        {
          "internalType": "int8",
          "name": "",
          "type": "int8"
        }
      ],
      "stateMutability": "view",
      "type": "function"
    },
    {
      "stateMutability": "payable",
      "type": "receive"
    },
    {
      "inputs": [],
      "name": "switchTurn",
      "outputs": [],
      "stateMutability": "nonpayable",
      "type": "function"
    },
    {
      "inputs": [],
      "name": "joinGameAsBlack",
      "outputs": [],
      "stateMutability": "payable",
      "type": "function"
    },
    {
      "inputs": [
        {
          "internalType": "uint8",
          "name": "startX",
          "type": "uint8"
        },
        {
          "internalType": "uint8",
          "name": "startY",
          "type": "uint8"
        },
        {
          "internalType": "uint8",
          "name": "endX",
          "type": "uint8"
        },
        {
          "internalType": "uint8",
          "name": "endY",
          "type": "uint8"
        }
      ],
      "name": "makeMove",
      "outputs": [],
      "stateMutability": "nonpayable",
      "type": "function"
    },
    {
      "inputs": [],
      "name": "printBoard",
      "outputs": [
        {
          "internalType": "string",
          "name": "",
          "type": "string"
        }
      ],
      "stateMutability": "view",
      "type": "function"
    },
    {
      "inputs": [],
      "name": "getCurrentPlayers",
      "outputs": [
        {
          "internalType": "address",
          "name": "",
          "type": "address"
        },
        {
          "internalType": "address",
          "name": "",
          "type": "address"
        }
      ],
      "stateMutability": "view",
      "type": "function"
    },
    {
      "inputs": [
        {
          "internalType": "uint8",
          "name": "x",
          "type": "uint8"
        },
        {
          "internalType": "uint8",
          "name": "y",
          "type": "uint8"
        },
        {
          "internalType": "int8",
          "name": "piece",
          "type": "int8"
        }
      ],
      "name": "debugCreative",
      "outputs": [
        {
          "internalType": "string",
          "name": "",
          "type": "string"
        }
      ],
      "stateMutability": "nonpayable",
      "type": "function"
    },
    {
      "inputs": [],
      "name": "printChessBoardLayoutSVG",
      "outputs": [
        {
          "internalType": "string",
          "name": "",
          "type": "string"
        }
      ],
      "stateMutability": "view",
      "type": "function"
    },
    {
      "inputs": [],
      "name": "test",
      "outputs": [],
      "stateMutability": "pure",
      "type": "function"
    }
  ],
  "bytecode": "0x61016060408190526000608052600160a052600260c052600360e052600461010052600561012052600661014052600a805460ff19169055620031a03881900390819083398101604081905262000056916200039f565b62000060620000a1565b600a8054610100600160a81b0319166101006001600160a01b0394909416938402179055600c80546001600160a01b0319169092179091556009556200044a565b61010051620000b090620003f1565b6000805460ff191660ff9290921691909117905560c051620000d290620003f1565b6000805460ff929092166101000261ff001990921691909117905560e051620000fb90620003f1565b6000805460ff92909216620100000262ff000019909216919091179055610120516200012790620003f1565b6000805460ff9290921663010000000263ff00000019909216919091179055610140516200015590620003f1565b6000805460ff929092166401000000000260ff60201b1990921691909117905560e0516200018390620003f1565b6000805460ff92909216650100000000000260ff60281b1990921691909117905560c051620001b290620003f1565b6000805460ff9290921666010000000000000260ff60301b1990921691909117905561010051620001e390620003f1565b6000805460ff929092166701000000000000000260ff60381b199092169190911781555b600860ff82161015620002745760a0516200022290620003f1565b600160ff8316600881106200023b576200023b62000412565b602091828204019190066101000a81548160ff021916908360000b60ff16021790555080806200026b9062000428565b91505062000207565b5061010080516007805460c05160e051610120516101405167010000000000000060ff97881690810265010000000000948916948502938916630100000002958916998a0261ffff19909716919091179590951763ffff00001916620100009390930263ff0000001916929092179290921761ffff60201b191694166401000000000260ff60281b1916939093179290921761ffff60301b191666010000000000009390930260ff60381b19169290921717905560005b600860ff821610156200038d5760a051600660ff83166008811062000354576200035462000412565b602091828204019190066101000a81548160ff021916908360000b60ff1602179055508080620003849062000428565b9150506200032b565b506008805465ffffffffffff19169055565b60008060408385031215620003b357600080fd5b82516001600160a01b0381168114620003cb57600080fd5b6020939093015192949293505050565b634e487b7160e01b600052601160045260246000fd5b600081810b60808101620004095762000409620003db565b60000392915050565b634e487b7160e01b600052603260045260246000fd5b600060ff821660ff8103620004415762000441620003db565b60010192915050565b60805160a05160c05160e051610100516101205161014051612c146200058c600039600081816106f201528181610df701528181611337015281816113d0015281816118f801528181611ae40152611ef20152600081816112f4015281816118ae0152611a91015260008181610e9901528181610f0c01528181610fb4015281816110200152818161119d015281816118640152611a3e01526000818161115a0152818161181a01526119eb015260008181611117015281816117d001526119980152600081816110cb015281816117860152818161194501528181611b7b01528181611c410152611ca4015260008181610637015281816108b201528181610965015281816110860152818161173c0152818161202a015281816121030152818161232b015281816125b80152818161267f01526127400152612c146000f3fe6080604052600436106100955760003560e01c80638086a92a116100595780638086a92a146101cf57806393c9e524146102025780639454986514610217578063ee545d4f1461022c578063f8a8fd6d1461023457600080fd5b806302cac05c1461010c578063085791b61461014957806339b4b0d61461016b578063538a93ed1461018f5780637bed3d1c146101af57600080fd5b36610107576000600a5460ff1660048111156100b3576100b36127a3565b146101055760405162461bcd60e51b815260206004820152601860248201527f47616d652068617320616c72656164792073746172746564000000000000000060448201526064015b60405180910390fd5b005b600080fd5b34801561011857600080fd5b50600a54600b54604080516101009093046001600160a01b0390811684529091166020830152015b60405180910390f35b34801561015557600080fd5b5061015e610249565b60405161014091906127dd565b34801561017757600080fd5b5061018160095481565b604051908152602001610140565b34801561019b57600080fd5b5061015e6101aa366004612821565b610347565b3480156101bb57600080fd5b506101056101ca36600461286e565b6103aa565b3480156101db57600080fd5b506101ef6101ea3660046128c2565b610a82565b60405160009190910b8152602001610140565b34801561020e57600080fd5b50610105610abe565b34801561022357600080fd5b5061015e610b20565b610105610c0b565b34801561024057600080fd5b50610105610d4b565b6040805161010081019091526060906000600881835b828210156102c357604080516101008101918290529085840190600890826000855b825461010083900a900460000b81526020600192830181810494850194909303909202910180841161028157905050505050508152602001906001019061025f565b5050604051639ef3eb8760e01b815273__ChessMediaLibrary_____________________93639ef3eb8793506102fd9250906004016128e4565b600060405180830381865af415801561031a573d6000803e3d6000fd5b505050506040513d6000823e601f3d908101601f19168201604052610342919081019061295e565b905090565b60608160008560ff166008811061036057610360612a0b565b018460ff166008811061037557610375612a0b565b602091828204019190066101000a81548160ff021916908360000b60ff1602179055506103a0610b20565b90505b9392505050565b600c546001600160a01b031633146103fa5760405162461bcd60e51b815260206004820152601360248201527249742773206e6f7420796f7572207475726e2160681b60448201526064016100fc565b600b54600c54859185916001916001600160a01b039081169116036104285761042560001982612a37565b90505b60008160008560ff166008811061044157610441612a0b565b018460ff166008811061045657610456612a0b565b60208104909101546104749291601f166101000a900460000b612a37565b60000b136104ce5760405162461bcd60e51b815260206004820152602160248201527f596f752063616e206f6e6c79206d6f766520796f7572206f776e2070696563656044820152607360f81b60648201526084016100fc565b6001600a5460ff1660048111156104e7576104e76127a3565b148061050957506000600a5460ff166004811115610507576105076127a3565b145b61055f5760405162461bcd60e51b815260206004820152602160248201527f47616d6520686173206e6f742073746172746564206f722068617320656e64656044820152601960fa1b60648201526084016100fc565b61056b87878787610d51565b6105a65760405162461bcd60e51b815260206004820152600c60248201526b496e76616c6964206d6f766560a01b60448201526064016100fc565b60008760ff16600881106105bc576105bc612a0b565b018660ff16600881106105d1576105d1612a0b565b602091828204019190069054906101000a900460000b60008660ff16600881106105fd576105fd612a0b565b018560ff166008811061061257610612612a0b565b602091828204019190066101000a81548160ff021916908360000b60ff1602179055507f000000000000000000000000000000000000000000000000000000000000000060008860ff166008811061066c5761066c612a0b565b018760ff166008811061068157610681612a0b565b602091828204019190066101000a81548160ff021916908360000b60ff1602179055506106ed60008860ff16600881106106bd576106bd612a0b565b018760ff16600881106106d2576106d2612a0b565b6020810490910154601f9091166101000a900460000b611387565b60ff167f000000000000000000000000000000000000000000000000000000000000000060ff16148015610735575061072e6107298786612a5e565b611387565b60ff166002145b156109ae57600a54600c546001600160a01b0361010090920482169116036107d05760085460ff16156107be5760405162461bcd60e51b815260206004820152602b60248201527f5768697465206b696e672068617320616c7265616479206d6f7665642e20636160448201526a6e6e6f7420636173746c6560a81b60648201526084016100fc565b6008805460ff19166001179055610852565b6008546301000000900460ff161561083e5760405162461bcd60e51b815260206004820152602b60248201527f426c61636b206b696e672068617320616c7265616479206d6f7665642e20636160448201526a6e6e6f7420636173746c6560a81b60648201526084016100fc565b6008805463ff000000191663010000001790555b8360ff1660060361090e5760008760ff166008811061087357610873612a0b565b0154600160381b9004600090810b9060ff89166008811061089657610896612a0b565b01805465ff00000000001916600160281b60ff938416021790557f0000000000000000000000000000000000000000000000000000000000000000906000908916600881106108e7576108e7612a0b565b01805460ff92909216600160381b0267ff00000000000000199092169190911790556109ae565b8360ff166002036109ae5760008760ff166008811061092f5761092f612a0b565b0154600090810b9060ff89166008811061094b5761094b612a0b565b01805463ff0000001916630100000060ff938416021790557f00000000000000000000000000000000000000000000000000000000000000009060009089166008811061099a5761099a612a0b565b01805460ff191660ff929092169190911790555b6109b96000196113aa565b156109ff576109cb6000198686611529565b6109d65760016109d9565b60035b600a805460ff191660018360048111156109f5576109f56127a3565b0217905550610a71565b610a0960016113aa565b15610a3957610a1a60018686611529565b610a255760016109d9565b600a80546004919060ff19166001836109f5565b610a4161157a565b610a4c576001610a4f565b60025b600a805460ff19166001836004811115610a6b57610a6b6127a3565b02179055505b610a79610abe565b50505050505050565b60008260088110610a9257600080fd5b018160088110610aa157600080fd5b6020810490910154601f9091166101000a900460000b9150829050565b600a54600c546001600160a01b039081166101009092041614610af157600a5461010090046001600160a01b0316610afe565b600b546001600160a01b03165b600c80546001600160a01b0319166001600160a01b0392909216919091179055565b60408051602081019091526000808252606091905b600860ff82161015610c055760005b600860ff82161015610bcf5782610b9a60008460ff1660088110610b6a57610b6a612a0b565b018360ff1660088110610b7f57610b7f612a0b565b6020810490910154601f9091166101000a900460000b611738565b604051602001610bab929190612a7f565b60405160208183030381529060405292508080610bc790612aba565b915050610b44565b5081604051602001610be19190612ad9565b60405160208183030381529060405291508080610bfd90612aba565b915050610b35565b50919050565b600a5461010090046001600160a01b03163303610c6a5760405162461bcd60e51b815260206004820181905260248201527f596f752061726520616c72656164792074686520776869746520706c6179657260448201526064016100fc565b6009543414610cd35760405162461bcd60e51b815260206004820152602f60248201527f506c656173652073656e64207468652073616d6520616d6f756e74206173207460448201526e3432903bb434ba3290383630bcb2b960891b60648201526084016100fc565b600b546001600160a01b031615610d375760405162461bcd60e51b815260206004820152602260248201527f426c61636b20706c6179657220736c6f7420697320616c72656164792074616b60448201526132b760f11b60648201526084016100fc565b600b80546001600160a01b03191633179055565b5b610d4c565b60008060008660ff1660088110610d6a57610d6a612a0b565b018560ff1660088110610d7f57610d7f612a0b565b602091828204019190069054906101000a900460000b90506000808560ff1660088110610dae57610dae612a0b565b018460ff1660088110610dc357610dc3612a0b565b6020810490910154601f9091166101000a900460000b90506002610dea6107298887612a5e565b60ff16148015610e2757507f000000000000000000000000000000000000000000000000000000000000000060ff16610e2283611387565b60ff16145b1561108457600a54600c546001600160a01b036101009092048216911603610f675760ff87166007148015610e5f575060ff86166004145b8015610e6e575060085460ff16155b15610f6257610e9460008860ff1660088110610e8c57610e8c612a0b565b0160076106d2565b60ff167f000000000000000000000000000000000000000000000000000000000000000060ff16148015610ecb575060ff84166003145b8015610ee0575060085462010000900460ff16155b80610f525750610f0760008860ff1660088110610eff57610eff612a0b565b0160006106d2565b60ff167f000000000000000000000000000000000000000000000000000000000000000060ff16148015610f3e575060ff84166002145b8015610f525750600854610100900460ff16155b15610f625760019250505061137f565b611079565b60ff8716158015610f7b575060ff86166004145b8015610f9157506008546301000000900460ff16155b1561107957610faf60008860ff1660088110610eff57610eff612a0b565b60ff167f000000000000000000000000000000000000000000000000000000000000000060ff16148015610fe6575060ff84166006145b8015610ffc5750600854600160281b900460ff16155b80611069575061101b60008860ff1660088110610e8c57610e8c612a0b565b60ff167f000000000000000000000000000000000000000000000000000000000000000060ff16148015611052575060ff84166002145b80156110695750600854640100000000900460ff16155b156110795760019250505061137f565b60009250505061137f565b7f000000000000000000000000000000000000000000000000000000000000000060000b8160000b14806110c4575060006110bf8284612a37565b60000b125b15611378577f000000000000000000000000000000000000000000000000000000000000000060ff166110f683611387565b60ff16036111155761110c878787878686611b57565b9250505061137f565b7f000000000000000000000000000000000000000000000000000000000000000060ff1661114283611387565b60ff16036111585761110c878787878686611d15565b7f000000000000000000000000000000000000000000000000000000000000000060ff1661118583611387565b60ff160361119b5761110c878787878686611d9d565b7f000000000000000000000000000000000000000000000000000000000000000060ff166111c883611387565b60ff16036112f25760ff871660071480156111e4575060ff8616155b80156111f85750600854610100900460ff16155b15611211576008805461ff0019166101001790556112e4565b60ff87166007148015611227575060ff86166007145b801561123c575060085462010000900460ff16155b15611257576008805462ff00001916620100001790556112e4565b60ff871615801561126b575060ff86166007145b80156112825750600854640100000000900460ff16155b156112a1576008805464ff0000000019166401000000001790556112e4565b60ff87161580156112b3575060ff8616155b80156112c95750600854600160281b900460ff16155b156112e4576008805465ff00000000001916600160281b1790555b61110c878787878686611dd9565b7f000000000000000000000000000000000000000000000000000000000000000060ff1661131f83611387565b60ff16036113355761110c878787878686611e26565b7f000000000000000000000000000000000000000000000000000000000000000060ff1661136283611387565b60ff16036113785761110c878787878686611e83565b6000925050505b949350505050565b6000808260000b12156113a25761139d82612afe565b6113a4565b815b92915050565b60008080805b600860ff8216101561146a5760005b600860ff82161015611457576113f57f000000000000000000000000000000000000000000000000000000000000000087612a37565b60000b60008360ff166008811061140e5761140e612a0b565b018260ff166008811061142357611423612a0b565b6020810490910154601f9091166101000a900460000b03611445578193508092505b8061144f81612aba565b9150506113bf565b508061146281612aba565b9150506113b0565b5060005b600860ff8216101561151e5760005b600860ff8216101561150b576000808360ff16600881106114a0576114a0612a0b565b018260ff16600881106114b5576114b5612a0b565b60208104909101546114d391601f166101000a900460000b88612a37565b60000b12156114f9576114e882828686610d51565b156114f95750600195945050505050565b8061150381612aba565b91505061147d565b508061151681612aba565b91505061146e565b506000949350505050565b600061153484611ecc565b15611541575060006103a3565b61154c8484846120e2565b15611559575060006103a3565b6115638383612223565b15611570575060006103a3565b5060019392505050565b600a54600c5460009182916001600160a01b0390811661010090920416146115a4576000196115a7565b60015b905060005b600860ff8216101561172f5760005b600860ff8216101561171c5760008360008460ff16600881106115e0576115e0612a0b565b018360ff16600881106115f5576115f5612a0b565b60208104909101546116139291601f166101000a900460000b612a37565b60000b131561170a5760005b600860ff821610156117085760005b600860ff821610156116f55760008460ff166008811061165057611650612a0b565b018360ff166008811061166557611665612a0b565b6020810490910154601f9091166101000a9004600090810b9060ff84166008811061169257611692612a0b565b018260ff16600881106116a7576116a7612a0b565b6020810490910154601f9091166101000a900460000b148015906116d257506116d284848484610d51565b156116e35760009550505050505090565b806116ed81612aba565b91505061162e565b508061170081612aba565b91505061161f565b505b8061171481612aba565b9150506115bb565b508061172781612aba565b9150506115ac565b50600191505090565b60607f000000000000000000000000000000000000000000000000000000000000000060000b8260000b036117845750506040805180820190915260018152600360fc1b602082015290565b7f000000000000000000000000000000000000000000000000000000000000000060000b8260000b036117ce5750506040805180820190915260018152603160f81b602082015290565b7f000000000000000000000000000000000000000000000000000000000000000060000b8260000b036118185750506040805180820190915260018152601960f91b602082015290565b7f000000000000000000000000000000000000000000000000000000000000000060000b8260000b036118625750506040805180820190915260018152603360f81b602082015290565b7f000000000000000000000000000000000000000000000000000000000000000060000b8260000b036118ac5750506040805180820190915260018152600d60fa1b602082015290565b7f000000000000000000000000000000000000000000000000000000000000000060000b8260000b036118f65750506040805180820190915260018152603560f81b602082015290565b7f000000000000000000000000000000000000000000000000000000000000000060000b8260000b036119405750506040805180820190915260018152601b60f91b602082015290565b6119697f0000000000000000000000000000000000000000000000000000000000000000612afe565b60000b8260000b036119935750506040805180820190915260028152612d3160f01b602082015290565b6119bc7f0000000000000000000000000000000000000000000000000000000000000000612afe565b60000b8260000b036119e6575050604080518082019091526002815261169960f11b602082015290565b611a0f7f0000000000000000000000000000000000000000000000000000000000000000612afe565b60000b8260000b03611a395750506040805180820190915260028152612d3360f01b602082015290565b611a627f0000000000000000000000000000000000000000000000000000000000000000612afe565b60000b8260000b03611a8c5750506040805180820190915260028152610b4d60f21b602082015290565b611ab57f0000000000000000000000000000000000000000000000000000000000000000612afe565b60000b8260000b03611adf5750506040805180820190915260028152612d3560f01b602082015290565b611b087f0000000000000000000000000000000000000000000000000000000000000000612afe565b60000b8260000b03611b32575050604080518082019091526002815261169b60f11b602082015290565b50506040805180820190915260048152630b0b0b0b60e31b602082015290565b919050565b60008360ff168660ff16148015611b7157508160000b6000145b15611c2857611b9f7f0000000000000000000000000000000000000000000000000000000000000000612afe565b60000b8360000b03611bec57611bb6876001612b1c565b60ff168560ff161480611bda575060ff87166001148015611bda575060ff85166003145b15611be757506001611d0b565b611c28565b611bf7600188612b35565b60ff168560ff161480611c1b575060ff87166006148015611c1b575060ff85166004145b15611c2857506001611d0b565b611c356107298786612a5e565b60ff16600103611d07577f000000000000000000000000000000000000000000000000000000000000000060000b8360000b148015611c835750611c7a876001612b1c565b60ff168560ff16145b8015611c92575060008260000b125b15611c9f57506001611d0b565b611cc87f0000000000000000000000000000000000000000000000000000000000000000612afe565b60000b8360000b148015611ceb5750611ce2600188612b35565b60ff168560ff16145b8015611cfa575060008260000b135b15611d0757506001611d0b565b5060005b9695505050505050565b600080611d256107298988612a5e565b90506000611d366107298988612a5e565b90508160ff166001148015611d4e57508060ff166002145b80611d6a57508160ff166002148015611d6a57508060ff166001145b15611d8e576000611d7b8686612a37565b60000b13611d8e57600192505050611d0b565b50600098975050505050505050565b600080611dad6107298988612a5e565b90506000611dbe6107298988612a5e565b90508060ff168260ff1603611d8e57611d6a898989896124a1565b60008460ff168760ff161480611df457508360ff168660ff16145b15611d0757611e05878787876124a1565b15611d07576000611e168484612a37565b60000b13611d0757506001611d0b565b600080611e366107298988612a5e565b90506000611e476107298988612a5e565b90508060ff168260ff161480611e6257508660ff168960ff16145b80611e7257508560ff168860ff16145b15611d8e57611d6a898989896124a1565b600080611e936107298988612a5e565b90506000611ea46107298988612a5e565b905060018260ff1611158015611d6a575060018160ff1611611d8e576000611d7b8686612a37565b60008080805b600860ff82161015611f905760005b600860ff82161015611f7d57611f177f000000000000000000000000000000000000000000000000000000000000000087612a37565b60000b60008360ff1660088110611f3057611f30612a0b565b018260ff1660088110611f4557611f45612a0b565b6020810490910154601f9091166101000a900460000b03611f6b57819350809250611f7d565b80611f7581612aba565b915050611ee1565b5080611f8881612aba565b915050611ed2565b506000195b60018160000b1361151e576000195b60018160000b136120cf576000611fbb8386612b4e565b90506000611fc98386612b4e565b905060008260000b12158015611fe357506008600083900b125b8015611ff3575060008160000b12155b801561200357506008600082900b125b801561202157508360000b600014158061202157508260000b600014155b156120ba5781837f0000000000000000000000000000000000000000000000000000000000000000600090810b9060ff84166008811061206357612063612a0b565b018260ff166008811061207857612078612a0b565b6020810490910154601f9091166101000a900460000b1480156120a257506120a288888484610d51565b156120b7575060019998505050505050505050565b50505b505080806120c790612b6f565b915050611fa4565b50806120da81612b6f565b915050611f95565b6000805b600860ff8216101561151e5760005b600860ff82161015612210577f000000000000000000000000000000000000000000000000000000000000000060000b60008360ff166008811061213b5761213b612a0b565b018260ff166008811061215057612150612a0b565b6020810490910154601f9091166101000a900460000b14806121be575060008660008460ff166008811061218657612186612a0b565b018360ff166008811061219b5761219b612a0b565b60208104909101546121b99291601f166101000a900460000b612a37565b60000b125b806121de57508460ff168260ff161480156121de57508360ff168160ff16145b6121fe576121ee82828787610d51565b156121fe576001925050506103a3565b8061220881612aba565b9150506120f5565b508061221b81612aba565b9150506120e6565b6000805b600860ff821610156124975760005b600860ff8216101561248457600061224e8387612b35565b60ff169050600061225f8387612b35565b60ff16905060008083810b156122885761227884611387565b6122859060ff1685612b85565b91505b8260000b6000146122ac5761229c83611387565b6122a99060ff1684612b85565b90505b60006122b88388612b4e565b905060006122c68388612b4e565b9050600860ff83161080156122de5750600860ff8216105b1561246b575b8a60ff168260ff161415806122ff57508960ff168160ff1614155b1561246b57600860ff8316108015612315575060015b80156123245750600860ff8216105b1561244e577f000000000000000000000000000000000000000000000000000000000000000060000b60008360ff166008811061236357612363612a0b565b018260ff166008811061237857612378612a0b565b6020810490910154601f9091166101000a900460000b1480159061242757506000808960ff16600881106123ae576123ae612a0b565b018860ff16600881106123c3576123c3612a0b565b602091828204019190069054906101000a900460000b60008460ff16600881106123ef576123ef612a0b565b018360ff166008811061240457612404612a0b565b60208104909101546124229291601f166101000a900460000b612a37565b60000b135b1561244e5761243882828a8a610d51565b1561244e576001985050505050505050506113a4565b6124588483612b4e565b91506124648382612b4e565b90506122e4565b505050505050808061247c90612aba565b915050612236565b508061248f81612aba565b915050612227565b5060009392505050565b6000808560ff168460ff16116124c0576124bb8487612b35565b6124ca565b6124ca8685612b35565b905060008560ff168460ff16116124ea576124e58487612b35565b6124f4565b6124f48685612b35565b905060008760ff168660ff161161250d57600019612510565b60015b905060008760ff168660ff16116125295760001961252c565b60015b90508260ff168460ff16036126055760015b8460ff168160ff1610156125ff5760006125588483612a37565b612562908c612b4e565b60000b6008811061257557612575612a0b565b016125808383612a37565b61258a908b612b4e565b60000b6008811061259d5761259d612a0b565b602091828204019190069054906101000a900460000b60000b7f000000000000000000000000000000000000000000000000000000000000000060000b146125ed5760009550505050505061137f565b806125f781612aba565b91505061253e565b50612794565b8660ff168960ff16036126c65760015b8360ff168160ff1610156125ff5760008a60ff166008811061263957612639612a0b565b016126448383612a37565b6126549060000b60ff8c16612bcb565b6008811061266457612664612a0b565b602091828204019190069054906101000a900460000b60000b7f000000000000000000000000000000000000000000000000000000000000000060000b146126b45760009550505050505061137f565b806126be81612aba565b915050612615565b8560ff168860ff16036127875760015b8460ff168160ff1610156125ff5760006126f08483612a37565b6127009060000b60ff8d16612bcb565b6008811061271057612710612a0b565b018960ff166008811061272557612725612a0b565b602091828204019190069054906101000a900460000b60000b7f000000000000000000000000000000000000000000000000000000000000000060000b146127755760009550505050505061137f565b8061277f81612aba565b9150506126d6565b600094505050505061137f565b50600198975050505050505050565b634e487b7160e01b600052602160045260246000fd5b60005b838110156127d45781810151838201526020016127bc565b50506000910152565b60208152600082518060208401526127fc8160408501602087016127b9565b601f01601f19169190910160400192915050565b803560ff81168114611b5257600080fd5b60008060006060848603121561283657600080fd5b61283f84612810565b925061284d60208501612810565b915060408401358060000b811461286357600080fd5b809150509250925092565b6000806000806080858703121561288457600080fd5b61288d85612810565b935061289b60208601612810565b92506128a960408601612810565b91506128b760608601612810565b905092959194509250565b600080604083850312156128d557600080fd5b50508035926020909101359150565b610800810181836000805b60088082106128fe575061293e565b835185845b83811015612923578251860b825260209283019290910190600101612903565b505050610100949094019350602092909201916001016128ef565b5050505092915050565b634e487b7160e01b600052604160045260246000fd5b60006020828403121561297057600080fd5b815167ffffffffffffffff8082111561298857600080fd5b818401915084601f83011261299c57600080fd5b8151818111156129ae576129ae612948565b604051601f8201601f19908116603f011681019083821181831017156129d6576129d6612948565b816040528281528760208487010111156129ef57600080fd5b612a008360208301602088016127b9565b979650505050505050565b634e487b7160e01b600052603260045260246000fd5b634e487b7160e01b600052601160045260246000fd5b60008260000b8260000b028060000b9150808214612a5757612a57612a21565b5092915050565b600082810b9082900b03607f198112607f821317156113a4576113a4612a21565b60008351612a918184602088016127b9565b835190830190612aa58183602088016127b9565b600160fd1b9101908152600101949350505050565b600060ff821660ff8103612ad057612ad0612a21565b60010192915050565b60008251612aeb8184602087016127b9565b600560f91b920191825250600101919050565b600081810b60808101612b1357612b13612a21565b60000392915050565b60ff81811683821601908111156113a4576113a4612a21565b60ff82811682821603908111156113a4576113a4612a21565b600081810b9083900b01607f8113607f19821217156113a4576113a4612a21565b60008160000b607f8103612ad057612ad0612a21565b60008160000b8360000b80612baa57634e487b7160e01b600052601260045260246000fd5b607f19821460001982141615612bc257612bc2612a21565b90059392505050565b808201808211156113a4576113a4612a2156fea26469706673582212204ce0d35ecea9797931cdd0995942709afe9ca9761cfb022cf0e699792a72404b64736f6c63430008130033",
  "immutableReferences": {
    "2039": [
      {
        "length": 32,
        "start": 1591
      },
      {
        "length": 32,
        "start": 2226
      },
      {
        "length": 32,
        "start": 2405
      },
      {
        "length": 32,
        "start": 4230
      },
      {
        "length": 32,
        "start": 5948
      },
      {
        "length": 32,
        "start": 8234
      },
      {
        "length": 32,
        "start": 8451
      },
      {
        "length": 32,
        "start": 9003
      },
      {
        "length": 32,
        "start": 9656
      },
      {
        "length": 32,
        "start": 9855
      },
      {
        "length": 32,
        "start": 10048
      }
    ],
    "2043": [
      {
        "length": 32,
        "start": 4299
      },
      {
        "length": 32,
        "start": 6022
      },
      {
        "length": 32,
        "start": 6469
      },
      {
        "length": 32,
        "start": 7035
      },
      {
        "length": 32,
        "start": 7233
      },
      {
        "length": 32,
        "start": 7332
      }
    ],
    "2047": [
      {
        "length": 32,
        "start": 4375
      },
      {
        "length": 32,
        "start": 6096
      },
      {
        "length": 32,
        "start": 6552
      }
    ],
    "2051": [
      {
        "length": 32,
        "start": 4442
      },
      {
        "length": 32,
        "start": 6170
      },
      {
        "length": 32,
        "start": 6635
      }
    ],
    "2055": [
      {
        "length": 32,
        "start": 3737
      },
      {
        "length": 32,
        "start": 3852
      },
      {
        "length": 32,
        "start": 4020
      },
      {
        "length": 32,
        "start": 4128
      },
      {
        "length": 32,
        "start": 4509
      },
      {
        "length": 32,
        "start": 6244
      },
      {
        "length": 32,
        "start": 6718
      }
    ],
    "2059": [
      {
        "length": 32,
        "start": 4852
      },
      {
        "length": 32,
        "start": 6318
      },
      {
        "length": 32,
        "start": 6801
      }
    ],
    "2063": [
      {
        "length": 32,
        "start": 1778
      },
      {
        "length": 32,
        "start": 3575
      },
      {
        "length": 32,
        "start": 4919
      },
      {
        "length": 32,
        "start": 5072
      },
      {
        "length": 32,
        "start": 6392
      },
      {
        "length": 32,
        "start": 6884
      },
      {
        "length": 32,
        "start": 7922
      }
    ]
  },
  "source": "// SPDX-License-Identifier: MIT\npragma solidity ^0.8.19;\nimport \"@openzeppelin/contracts/utils/Strings.sol\";\nimport \"./ChessMediaLibrary.sol\";\ncontract ChessCore {\n    uint8 constant BOARD_SIZE = 8;\n    using ChessMediaLibrary for int8[BOARD_SIZE][BOARD_SIZE];\n    int8[BOARD_SIZE][BOARD_SIZE] public board;\n    int8 immutable EMPTY = ChessMediaLibrary.EMPTY;\n    int8 immutable PAWN = ChessMediaLibrary.PAWN;\n    int8 immutable KNIGHT = ChessMediaLibrary.KNIGHT;\n    int8 immutable BISHOP = ChessMediaLibrary.BISHOP;\n    int8 immutable ROOK = ChessMediaLibrary.ROOK;\n    int8 immutable QUEEN = ChessMediaLibrary.QUEEN;\n    int8 immutable KING = ChessMediaLibrary.KING;\n    \n    uint8 constant ROW_BLACK_PIECES = 0;\n    uint8 constant ROW_BLACK_PAWNS = 1;\n    uint8 constant ROW_BLACK_PAWNS_LONG_OPENING = 3;\n    uint8 constant ROW_WHITE_PAWNS_LONG_OPENING = 4;\n    uint8 constant ROW_WHITE_PAWNS = 6;\n    uint8 constant ROW_WHITE_PIECES = 7;\n\n    uint8 constant COL_SHORTW_LONGB_ROOK = 0;\n    uint8 constant COL_UNNAMED_KNIGHT = 1;\n    uint8 constant COL_BISHOP = 2;\n    uint8 constant COL_QUEEN = 3;\n    uint8 constant COL_KING = 4;\n    uint8 constant COL_UNNAMED_BISHOP = 5;\n    uint8 constant COL_KNIGHT = 6;\n    uint8 constant COL_LONGW_SHORTB_ROOK = 7;\n    \n    int8 constant PLAYER_WHITE = 1;\n    int8 constant PLAYER_BLACK = -1;\n    \n\n    bool private whiteKingMoved;\n    bool private whiteShortRookMoved;\n    bool private whiteLongRookMoved;\n\n    bool private blackKingMoved;\n    bool private blackLongRookMoved;\n    bool private blackShortRookMoved;\n    uint public betting;\n\n    event Debug(int8 player, uint8 startX, uint8 startY, uint8 endX, uint8 endY, string comment);\n    // Define the GameState enum\n    enum GameState { NotStarted, InProgress, Draw, WhiteWins, BlackWins }\n    // Add a gameState variable to the contract\n    GameState private gameState = GameState.NotStarted;\n\n    address whitePlayer;\n    address blackPlayer;\n    address currentPlayer;\n\n    constructor(address _whitePlayer, uint _value) payable {\n        // Chiamare initializeBoard nel costruttore\n        initializeBoard();\n        whitePlayer = _whitePlayer;\n        currentPlayer = _whitePlayer;\n        betting = _value;\n    }\n    /*\n    //for debugging\n    constructor(){\n        initializeBoard();\n        whitePlayer = 0x5B38Da6a701c568545dCfcB03FcB875f56beddC4;\n        currentPlayer = 0x5B38Da6a701c568545dCfcB03FcB875f56beddC4;\n        blackPlayer = 0xAb8483F64d9C6d1EcF9b849Ae677dD3315835cb2;\n        betting = address(this).balance;\n    }\n    */\n   \n   receive() external payable {\n        require(gameState == GameState.NotStarted, \"Game has already started\");\n    }\n\n    function switchTurn() public  {\n        currentPlayer = (currentPlayer == whitePlayer) ? blackPlayer : whitePlayer;\n    }\n\n   function joinGameAsBlack() public payable {\n        require(msg.sender != whitePlayer, \"You are already the white player\");\n        require(msg.value == betting, \"Please send the same amount as the white player\");\n        require(blackPlayer == address(0), \"Black player slot is already taken\");\n        blackPlayer = msg.sender;\n    }\n\n    function initializeBoard() private {\n        // Set up white pieces\n        board[ROW_BLACK_PIECES][COL_SHORTW_LONGB_ROOK] = -ROOK;\n        board[ROW_BLACK_PIECES][COL_UNNAMED_KNIGHT] = -KNIGHT;\n        board[ROW_BLACK_PIECES][COL_BISHOP] = -BISHOP;\n        board[ROW_BLACK_PIECES][COL_QUEEN] = -QUEEN;\n        board[ROW_BLACK_PIECES][COL_KING] = -KING;\n        board[ROW_BLACK_PIECES][COL_UNNAMED_BISHOP] = -BISHOP;\n        board[ROW_BLACK_PIECES][COL_KNIGHT] = -KNIGHT;\n        board[ROW_BLACK_PIECES][COL_LONGW_SHORTB_ROOK] = -ROOK;\n        for (uint8 col = 0; col < BOARD_SIZE; col++) {\n            board[ROW_BLACK_PAWNS][col] = -PAWN;\n        }\n\n        // Set up black pieces\n        board[ROW_WHITE_PIECES][COL_SHORTW_LONGB_ROOK] = ROOK;\n        board[ROW_WHITE_PIECES][COL_UNNAMED_KNIGHT] = KNIGHT;\n        board[ROW_WHITE_PIECES][COL_BISHOP] = BISHOP;\n        board[ROW_WHITE_PIECES][COL_QUEEN] = QUEEN;\n        board[ROW_WHITE_PIECES][COL_KING] = KING;\n        board[ROW_WHITE_PIECES][COL_UNNAMED_BISHOP] = BISHOP;\n        board[ROW_WHITE_PIECES][COL_KNIGHT] = KNIGHT;\n        board[ROW_WHITE_PIECES][COL_LONGW_SHORTB_ROOK] = ROOK;\n        for (uint8 col = 0; col < BOARD_SIZE; col++) {\n            board[ROW_WHITE_PAWNS][col] = PAWN;\n        }\n\n        whiteKingMoved = false;\n        whiteShortRookMoved = false;\n        whiteLongRookMoved = false;\n        blackKingMoved = false;\n        blackLongRookMoved = false;\n        blackShortRookMoved = false;\n        \n    }\n\n    function abs(int8 x) private pure returns (uint8) {\n        return x >= 0 ? uint8(x) : uint8(-x);\n    }\n\n    function isPawnMoveValid(uint8 startX, uint8 startY, uint8 endX, uint8 endY, int8 piece, int8 target) private view returns (bool) {\n        // Check if pawn is moving forward\n        if (startY == endY && target == 0) {\n            if (piece == -PAWN) { // black pawn\n                if (endX == startX + 1 || (startX == ROW_BLACK_PAWNS && endX == ROW_BLACK_PAWNS_LONG_OPENING)) {\n                    return true;\n                }\n            } \n            else { // white pawn\n                if (endX == startX - 1 || (startX == ROW_WHITE_PAWNS && endX == COL_KING)) {\n                    return true;\n                }\n            }\n        }\n\n        // Check if pawn is capturing diagonally\n        if (abs(int8(endY) - int8(startY)) == 1) {\n            if (piece == PAWN && endX == startX + 1 && target < 0) { // White pawn captures black piece\n                return true;\n            } \n            else\n            if (piece == -PAWN && endX == startX - 1 && target > 0) { // Black pawn captures white piece\n                return true;\n            }\n        }\n\n\n        //TODO: to add the en-passant move\n        \n        return false;\n    }\n\n    function isKnightMoveValid(uint8 startX, uint8 startY, uint8 endX, uint8 endY, int8 piece, int8 target) private pure returns (bool) {\n        // Check if knight moves in L-shape\n        uint8 deltaX = abs(int8(endX) - int8(startX));\n        uint8 deltaY = abs(int8(endY) - int8(startY));\n        if ((deltaX == 1 && deltaY == 2) || (deltaX == 2 && deltaY == 1)) {\n            if (target * piece <= 0) { // Check if destination square is empty or occupied by opponent piece\n                return true;\n            }\n        }\n        return false;\n    }\n\n\n    function isBishopMoveValid(uint8 startX, uint8 startY, uint8 endX, uint8 endY, int8 piece, int8 target) private view returns (bool) {\n        // Check if bishop moves diagonally\n        uint8 deltaX = abs(int8(endX) - int8(startX));\n        uint8 deltaY = abs(int8(endY) - int8(startY));\n        if (deltaX == deltaY) {\n            if (isPathClear(startX, startY, endX, endY)) {\n                if (target * piece <= 0) { // Check if destination square is empty or occupied by opponent piece\n                    return true;\n                }\n            }\n        }\n\n        return false;\n    }\n\n\n    function isRookMoveValid(uint8 startX, uint8 startY, uint8 endX, uint8 endY, int8 piece, int8 target) private view returns (bool) {\n        // Check if rook moves horizontally or vertically\n        if (startX == endX || startY == endY) {\n            if (isPathClear(startX, startY, endX, endY)) {\n                if (target * piece <= 0) { // Check if destination square is empty or occupied by opponent piece\n                    return true;\n                }\n            }\n        }\n\n        return false;\n    }\n\n\n    function isQueenMoveValid(uint8 startX, uint8 startY, uint8 endX, uint8 endY, int8 piece, int8 target) private view  returns (bool) {\n        // Check if queen moves diagonally, horizontally, or vertically\n        uint8 deltaX = abs(int8(endX) - int8(startX));\n        uint8 deltaY = abs(int8(endY) - int8(startY));\n        if (deltaX == deltaY || startX == endX || startY == endY) {\n            if (isPathClear(startX, startY, endX, endY)) {\n                if (target * piece <= 0) { // Check if destination square is empty or occupied by opponent piece\n                    return true;\n                }\n            }\n        }\n\n        return false;\n    }\n\n\n    function isKingMoveValid(uint8 startX, uint8 startY, uint8 endX, uint8 endY, int8 piece, int8 target) private pure returns (bool) {\n        // Check if king moves one square in any direction\n        uint8 deltaX = abs(int8(endX) - int8(startX));\n        uint8 deltaY = abs(int8(endY) - int8(startY));\n        if (deltaX <= 1 && deltaY <= 1) {\n            if (target * piece <= 0) { // Check if destination square is empty or occupied by opponent piece\n                return true;\n            }\n        }\n\n        return false;\n    }\n\n\n    function isKingInCheck(int8 player) private returns (bool) {\n        // Find the position of the player's king\n        uint8 kingX;\n        uint8 kingY;\n        for (uint8 rowPiece = 0; rowPiece < BOARD_SIZE; rowPiece++) {\n            for (uint8 colPiece = 0; colPiece < BOARD_SIZE; colPiece++) {\n                if (board[rowPiece][colPiece] == player * KING) {\n                    kingX = rowPiece;\n                    kingY = colPiece;\n                }\n            }\n        }\n\n        // Check if any of the opponent's pieces can attack the king\n        for (uint8 rowPiece = 0; rowPiece < BOARD_SIZE; rowPiece++) {\n            for (uint8 colPiece = 0; colPiece < BOARD_SIZE; colPiece++) {\n                if (player * board[rowPiece][colPiece] < 0) { // Check if piece belongs to opponent\n                    if (isValidMove(rowPiece, colPiece, kingX, kingY)) {\n                        return true;\n                    }\n                }\n            }\n        }\n\n        return false;\n    }\n\n    function isSquareUnderAttack(int8 player, uint8 x, uint8 y) internal returns (bool) {\n        for (uint8 rowPiece = 0; rowPiece < BOARD_SIZE; rowPiece++) {\n            for (uint8 colPiece = 0; colPiece < BOARD_SIZE; colPiece++) {\n                //check if the opponent pieces can do a valid move to that square\n                if (currentPlayer == whitePlayer && board[rowPiece][colPiece] * player < 0 && isValidMove(rowPiece, colPiece, x, y)\n                || currentPlayer == blackPlayer && board[rowPiece][colPiece] * player > 0 && isValidMove(rowPiece,colPiece, x, y)) {\n                    return true;\n                }\n            }\n        }\n        return false;\n    }\n\n    function minY(uint8 a, uint8 b) internal pure returns (uint8) {\n        return a < b ? a : b;\n    }\n\n    function maxY(uint8 a, uint8 b) internal pure returns (uint8) {\n        return a > b ? a : b;\n    }\n\n    function isCastlingValid(uint8 startX, uint8 startY, uint8 endX, uint8 endY, int8 player) internal returns (bool) {\n        // Verifica se il re attraversa caselle minacciate\n        //TODO fai double check per capire se questo if  superfluo, visto che viene controllato dentro il for\n        if (isSquareUnderAttack(player, startX, startY) || isSquareUnderAttack(player, endX, endY)) {\n            return false;\n        }\n\n        // Verifica se le caselle attraversate sono libere\n        if (startY == COL_KING && (endY == COL_BISHOP || endY == COL_KNIGHT)) {\n            uint8 rookY = (endY == COL_KNIGHT) ? COL_SHORTW_LONGB_ROOK : COL_LONGW_SHORTB_ROOK;\n            for (uint8 col = minY(startY, endY); col <= maxY(startY, endY); col++) {\n                if (board[startX][col] != EMPTY || isSquareUnderAttack(player, startX, col) || isSquareUnderAttack(player, rookY, col)) {\n                    return false;\n                }\n            }\n        }\n\n        return true;\n    }\n\n    function isValidMove(uint8 startX, uint8 startY, uint8 endX, uint8 endY) private returns (bool) {\n        int8 piece = board[startX][startY];\n        int8 target = board[endX][endY];\n\n        // Check if the move is a king move and update kingMoved accordingly\n        if (abs(int8(endY) - int8(startY)) == COL_BISHOP && abs(piece) == uint8(KING)) {\n            if (currentPlayer == whitePlayer) {\n                if (startX == ROW_WHITE_PIECES && startY == COL_KING && !whiteKingMoved) {\n                    // Check if it's a valid long castling\n                    if ((uint8(ROOK) == abs(board[startX][COL_LONGW_SHORTB_ROOK]) && endY == COL_QUEEN && !whiteLongRookMoved)\n                    // Check if it's a valid short castling\n                    || (uint8(ROOK) == abs(board[startX][COL_SHORTW_LONGB_ROOK]) && endY == COL_BISHOP && !whiteShortRookMoved)){\n                        return true;\n                    }\n                }\n            } \n            else {\n                if (startX == ROW_BLACK_PIECES && startY == COL_KING && !blackKingMoved) {\n                    // Check if it's a valid short castling\n                    if ((uint8(ROOK) == abs(board[startX][COL_SHORTW_LONGB_ROOK]) && endY == COL_KNIGHT && !blackShortRookMoved)\n                    // Check if it's a valid long castling) {\n                    || (uint8(ROOK) == abs(board[startX][COL_LONGW_SHORTB_ROOK]) && endY == COL_BISHOP && !blackLongRookMoved)){\n                        return true;\n                    }\n                }\n            }\n            //it should never arrive here\n            return false;\n        }\n\n        // Check if target square is empty or contains an opponent's piece\n        if (target == EMPTY || piece * target < 0) {\n            if (abs(piece) == uint8(PAWN)) {\n                return isPawnMoveValid(startX, startY, endX, endY, piece, target);\n            } \n            else \n            if (abs(piece) == uint8(KNIGHT)) {\n                return isKnightMoveValid(startX, startY, endX, endY, piece, target);\n            } \n            else \n            if (abs(piece) == uint8(BISHOP)) {\n                return isBishopMoveValid(startX, startY, endX, endY, piece, target);\n            }\n            else \n            if (abs(piece) == uint8(ROOK)) {\n\n                // Check if the move is a rook move and update rookMoved\n                if (startX == ROW_WHITE_PIECES && startY == COL_SHORTW_LONGB_ROOK && !whiteShortRookMoved) {\n                    whiteShortRookMoved = true;\n                } \n                else \n                if (startX == ROW_WHITE_PIECES && startY == COL_LONGW_SHORTB_ROOK && !whiteLongRookMoved) {\n                    whiteLongRookMoved = true;\n                }\n                else \n                if (startX == ROW_BLACK_PIECES && startY == COL_LONGW_SHORTB_ROOK && !blackLongRookMoved) {\n                    blackLongRookMoved = true;\n                }\n                else \n                if (startX == ROW_BLACK_PIECES && startY == COL_SHORTW_LONGB_ROOK && !blackShortRookMoved) {\n                    blackShortRookMoved = true;\n                }\n                \n                return isRookMoveValid(startX, startY, endX, endY, piece, target);\n            } \n            else \n            if (abs(piece) == uint8(QUEEN)) {\n                return isQueenMoveValid(startX, startY, endX, endY, piece, target);\n            } \n            else \n            if (abs(piece) == uint8(KING)) {\n                return isKingMoveValid(startX, startY, endX, endY, piece, target);\n            }\n            \n            \n        }\n        else{\n        \n        }\n\n        return false;\n    }\n\n    function isPathClear(uint8 startX, uint8 startY, uint8 endX, uint8 endY) private view returns (bool) {\n        uint8 deltaX = endX > startX ? endX - startX : startX - endX;\n        uint8 deltaY = endY > startY ? endY - startY : startY - endY;\n        int8 stepX = (endX > startX) ? int8(1) : int8(-1);\n        int8 stepY = endY > startY ? int8(1) : int8(-1);\n\n        if (deltaX == deltaY) { \n            // Check if bishop or queen\n            uint8 i = 1;\n            while (i < deltaX) {\n                if (EMPTY != board[uint(int(int8(startX) + int8(i) * stepX))][uint(int(int8(startY) + int8(i) * stepY))]) {\n                    return false;\n                }\n                i++;\n            }\n        }\n        else \n        if (startX == endX) { \n            // Check if rook or queen moves vertically\n            uint8 i = 1;\n            while (i < deltaY) {\n                if (EMPTY != board[uint256(startX)][uint256(startY) + uint256(int256(int8(i) * int8(stepY)))]) {\n                    return false;\n                }\n                i++;\n            }\n        }\n        else \n        if (startY == endY) { \n            // Check if rook or queen moves horizontally\n            uint8 i = 1;\n            while (i < deltaX) {\n                if (EMPTY != board[uint256(startX) + uint256(int256(int8(i) * stepX))][uint256(startY)]) {\n                    return false;\n                }\n                i++;\n            }\n        }\n        else { \n            // Invalid move (not diagonal, horizontal, or vertical)\n            return false;\n        }\n\n        return true;\n    }\n\n    modifier onlyCurrentPlayer() {\n        require(msg.sender == currentPlayer, \"It's not your turn!\");\n        _;\n    }\n    \n    modifier onlyOwnPieces(uint8 startX, uint8 startY){\n         //matching the current color player with the color number to check if it is moving it's own pieces\n        int8 playerColor = 1;\n        if (currentPlayer == blackPlayer){\n            playerColor *= PLAYER_BLACK;\n        }\n        require(board[startX][startY] * playerColor > 0, \"You can only move your own pieces\");\n        _;\n    }\n\n    function makeMove(uint8 startX, uint8 startY, uint8 endX, uint8 endY) public onlyCurrentPlayer onlyOwnPieces(startX,startY){\n        // Check if the game is in progress\n        require(gameState == GameState.InProgress || gameState == GameState.NotStarted, \"Game has not started or has ended\");\n\n        // Check if the move is valid\n        require(isValidMove(startX, startY, endX, endY), \"Invalid move\");\n\n        // Make the move\n        board[endX][endY] = board[startX][startY];\n        board[startX][startY] = EMPTY;\n\n        // Check if the move is a king move and update kingMoved accordingly\n        if (uint8(KING) == abs(int8(board[startX][startY])) && abs(int8(endY) - int8(startY)) == 2 ) {\n            \n            if (currentPlayer == whitePlayer) {\n                if (whiteKingMoved){\n                    revert(\"White king has already moved. cannot castle\");\n                }\n                else{\n                    whiteKingMoved = true;\n                }\n            } \n            else {\n                if (blackKingMoved){\n                    revert(\"Black king has already moved. cannot castle\");\n                }\n                else{\n                    blackKingMoved = true;\n                }\n            }\n\n            // Move the rook during castling\n            if (endY == 6) {\n                // Right castling\n                board[startX][5] = board[startX][COL_LONGW_SHORTB_ROOK];\n                board[startX][COL_LONGW_SHORTB_ROOK] = EMPTY;\n            } \n            else \n            if (endY == 2) {\n                // Left castling\n                board[startX][COL_QUEEN] = board[startX][COL_SHORTW_LONGB_ROOK];\n                board[startX][COL_SHORTW_LONGB_ROOK] = EMPTY;\n            }\n        }\n\n       // Check if the move resulted in a check or checkmate\n        if (isKingInCheck(PLAYER_BLACK)) {\n            gameState = isCheckmate(PLAYER_BLACK, endX, endY) ? GameState.WhiteWins : GameState.InProgress;\n        } \n        else \n        if (isKingInCheck(PLAYER_WHITE)) {\n            gameState = isCheckmate(PLAYER_WHITE, endX, endY) ? GameState.BlackWins : GameState.InProgress;\n        }\n        else {\n            gameState = isStalemate() ? GameState.Draw : GameState.InProgress;\n        }\n\n        switchTurn();\n    }\n\n    // Check if the given player's king can move out of check\n    function canKingMove(int8 player) internal returns (bool) {\n        // find the king position of the current player\n        uint8 kingX;\n        uint8 kingY;\n\n        for (uint8 colPiece = 0; colPiece < BOARD_SIZE; colPiece++) {\n            for (uint8 rowPiece = 0; rowPiece < BOARD_SIZE; rowPiece++) {\n                if (board[colPiece][rowPiece] == player * KING) {\n                    kingX = colPiece;\n                    kingY = rowPiece;\n                    break;\n                }\n            }\n        }\n\n        // check if the king can move on a free square\n        for (int8 i = -1; i <= 1; i++) {\n            for (int8 j = -1; j <= 1; j++) {\n                int8 x = int8(kingX) + i;\n                int8 y = int8(kingY) + j;\n                if (x >= 0\n                    && x < int8(BOARD_SIZE)\n                    && y >= 0\n                    && y < int8(BOARD_SIZE)\n                    && (i != 0 \n                        || j != 0\n                    )\n                ){\n                    uint8 newX = uint8(x);\n                    uint8 newY = uint8(j);\n\n                    if (board[newX][newY] == EMPTY \n                        && isValidMove(kingX, kingY, newX, newY)) {\n                        return true;\n                    }\n                }\n            }\n        }\n\n        // Nessuna mossa valida per il re\n        return false;\n\n    }\n\n    // Check if the game is in stalemate\n    function isStalemate() internal returns (bool) {\n        int8 player = (currentPlayer == whitePlayer) ? int8(PLAYER_WHITE) : int8(PLAYER_BLACK);\n\n        //TODO I think this can be removed, since it is override by the for loops at the bottom\n       // if (canKingMove(player)) {\n       //     return false;\n       // }\n\n        // Check if there are other valid moves for current player pieces\n        for (uint8 rowPiece = 0; rowPiece < BOARD_SIZE; rowPiece++) {\n            for (uint8 colPiece = 0; colPiece < BOARD_SIZE; colPiece++) {\n                // If we find a piece belonging to the current player, then check if it can perform a move\n                if (board[rowPiece][colPiece] * player > 0 ) { \n                    for (uint8 row_target = 0; row_target < BOARD_SIZE; row_target++) {\n                        for (uint8 col_target = 0; col_target < BOARD_SIZE; col_target++) {\n                            if (board[row_target][col_target] != board[rowPiece][colPiece] \n                                && isValidMove(rowPiece, colPiece, row_target, col_target)) {\n                                return false;\n                            }\n                        }\n                    }\n                }\n            }\n    }\n\n    // No any valid move for the current player\n    return true;\n    }\n\n    // Check if the given player's king is in checkmate\n    function isCheckmate(int8 player, uint8 attackerI, uint8 attackerJ) internal returns (bool) {\n        // Check if the king can move out of check\n        if (canKingMove(player)) {\n            return false;\n        }\n\n        // Check if the attacking piece can be captured\n        if (canCaptureAttacker(player, attackerI, attackerJ)) {\n            return false;\n        }\n\n        // Check if any other piece can block the attack\n        if (canBlockAttack(attackerI, attackerJ)) {\n            return false;\n        }\n\n        // The king is in checkmate\n        return true;\n    }\n\n\n    // Check if the player pieces can capture the attacking piece\n    function canCaptureAttacker(int8 player, uint8 rowAttacker, uint8 colAttacker) internal returns (bool) {\n        // Iterate over all pieces on the board\n        for (uint8 rowPiece = 0; rowPiece < BOARD_SIZE; rowPiece++) {\n            for (uint8 colPiece = 0; colPiece < BOARD_SIZE; colPiece++) {\n                // Skip empty squares and pieces belonging to the attacker\n                if (board[rowPiece][colPiece] == EMPTY || board[rowPiece][colPiece] * player < 0 || (rowPiece == rowAttacker && colPiece == colAttacker)) {\n                    continue;\n                }\n\n                // Check if the piece can capture the attacking piece\n                if (isValidMove(rowPiece, colPiece, rowAttacker, colAttacker)) {\n                    // A piece can capture the attacking piece\n                    return true;\n                }\n            }\n        }\n\n        // No piece can capture the attacking piece\n        return false;\n    }\n\n    function canBlockAttack(uint8 rowAttacker, uint8 colAttacker) internal returns (bool) {\n        // Iterate over all pieces on the board\n        for (uint8 rowPiece = 0; rowPiece < BOARD_SIZE; rowPiece++) {\n            for (uint8 colPiece = 0; colPiece < BOARD_SIZE; colPiece++) {\n                // Determine the direction of the attack\n                int8 deltaRow = int8(int(uint256(rowAttacker - rowPiece)));\n                int8 dj = int8(int(uint256(colAttacker - colPiece)));\n                // Determine the step size for moving along the attack direction\n                int8 stepi = 0;\n                int8 stepj = 0;\n                if (deltaRow != 0) {\n                    stepi = deltaRow / int8(int(uint(abs(deltaRow))));\n                }\n                if (dj != 0) {\n                    stepj = dj / int8(int(uint(abs(dj))));\n                }\n\n                // Iterate over all squares along the attack direction\n                uint8 currentI = uint8(int8(rowPiece) + stepi);\n                uint8 colCurrent = uint8(int8(colPiece) + stepj);\n                if (currentI < BOARD_SIZE && colCurrent < BOARD_SIZE) {\n                    while (currentI != rowAttacker || colCurrent != colAttacker) {\n                        if (currentI >= 0 && currentI < BOARD_SIZE && colCurrent >= 0 && colCurrent < BOARD_SIZE) {\n                            // Check if the square can be blocked by a friendly piece\n                            if (board[currentI][colCurrent] != EMPTY && board[currentI][colCurrent] * board[rowPiece][colPiece] > 0) {\n                                // Check if the blocking piece can move to the blocking square\n                                if (isValidMove(currentI, colCurrent, rowPiece, colPiece)) {\n                                    // A piece can block the attack\n                                    return true;\n                                }\n                            }\n                        }\n\n                        // Move to the next square along the attack direction\n                        currentI = uint8(int8(currentI) + stepi);\n                        colCurrent = uint8(int8(colCurrent) + stepj);\n                    }\n                }\n            }\n        }\n\n        // No any piece can block the attack\n        return false;\n    }\n\n\n    function printBoard() public view returns (string memory) {\n    string memory boardString = \"\";\n\n    for (uint8 rowPiece = 0; rowPiece < BOARD_SIZE; rowPiece++) {\n        for (uint8 colPiece = 0; colPiece < BOARD_SIZE; colPiece++) {\n            // Aggiungi il valore del pezzo alla stringa\n            boardString = string(abi.encodePacked(boardString, pieceToString(board[rowPiece][colPiece]), \" \"));\n        }\n        // Aggiungi una nuova riga alla fine di ogni riga della scacchiera\n        boardString = string(abi.encodePacked(boardString, \"\\n\"));\n    }\n\n    return boardString;\n    }\n\n    function pieceToString(int8 piece) internal view returns (string memory) {\n        if (piece == EMPTY) {\n            return \"0\";\n        } \n        else \n        if (piece == PAWN) {\n            return \"1\";\n        } \n        else \n        if (piece == KNIGHT) {\n            return \"2\";\n        } \n        else \n        if (piece == BISHOP) {\n            return \"3\";\n        } \n        else \n        if (piece == ROOK) {\n            return \"4\";\n        } \n        else \n        if (piece == QUEEN) {\n            return \"5\";\n        } \n        else \n        if (piece == KING) {\n            return \"6\";\n        } \n        else \n        if (piece == -PAWN) {\n            return \"-1\";\n        } \n        else \n        if (piece == -KNIGHT) {\n            return \"-2\";\n        } \n        else \n        if (piece == -BISHOP) {\n            return \"-3\";\n        } \n        else \n        if (piece == -ROOK) {\n            return \"-4\";\n        } \n        else \n        if (piece == -QUEEN) {\n            return \"-5\";\n        } \n        else \n        if (piece == -KING) {\n            return \"-6\";\n        } \n        else {\n            return \"XXXX\";\n        }\n    }\n\n    // Add a function to get the curr   ent players\n    function getCurrentPlayers() public view returns (address, address) {\n        return (whitePlayer, blackPlayer);\n    }\n\n    function debugCreative(uint8 x, uint8 y, int8 piece) public returns (string memory) {\n        board[x][y] = piece;\n        return printBoard();\n    }\n\n    function printChessBoardLayoutSVG() external view returns (string memory) {\n        return board.getCurrentBoard();\n    }\n\n    function test() external pure {\n        while(true){}\n    }\n\n\n}\n\n\n\n\n\n",
  "sourcePath": "/Users/jacopo/Documents/solidity/ChessGame/contracts/Chess/ChessCore.sol",
  "compiler": {
    "name": "solc",
    "version": "0.8.19+commit.7dd6d404.Emscripten.clang"
  },
  "schemaVersion": "3.4.16",
  "updatedAt": "2023-12-25T00:14:37.778Z",
  "networkType": "ethereum",
  "devdoc": {
    "kind": "dev",
    "methods": {},
    "version": 1
  },
  "userdoc": {
    "kind": "user",
    "methods": {},
    "version": 1
  }
}