{
  "contractName": "ChessMediaLibrary",
  "abi": [
    {
      "inputs": [],
      "name": "BISHOP",
      "outputs": [
        {
          "internalType": "int8",
          "name": "",
          "type": "int8"
        }
      ],
      "stateMutability": "view",
      "type": "function"
    },
    {
      "inputs": [],
      "name": "EMPTY",
      "outputs": [
        {
          "internalType": "int8",
          "name": "",
          "type": "int8"
        }
      ],
      "stateMutability": "view",
      "type": "function"
    },
    {
      "inputs": [],
      "name": "KING",
      "outputs": [
        {
          "internalType": "int8",
          "name": "",
          "type": "int8"
        }
      ],
      "stateMutability": "view",
      "type": "function"
    },
    {
      "inputs": [],
      "name": "KNIGHT",
      "outputs": [
        {
          "internalType": "int8",
          "name": "",
          "type": "int8"
        }
      ],
      "stateMutability": "view",
      "type": "function"
    },
    {
      "inputs": [],
      "name": "PAWN",
      "outputs": [
        {
          "internalType": "int8",
          "name": "",
          "type": "int8"
        }
      ],
      "stateMutability": "view",
      "type": "function"
    },
    {
      "inputs": [],
      "name": "QUEEN",
      "outputs": [
        {
          "internalType": "int8",
          "name": "",
          "type": "int8"
        }
      ],
      "stateMutability": "view",
      "type": "function"
    },
    {
      "inputs": [],
      "name": "ROOK",
      "outputs": [
        {
          "internalType": "int8",
          "name": "",
          "type": "int8"
        }
      ],
      "stateMutability": "view",
      "type": "function"
    },
    {
      "inputs": [
        {
          "internalType": "int8[8][8]",
          "name": "board",
          "type": "int8[8][8]"
        }
      ],
      "name": "getCurrentBoard",
      "outputs": [
        {
          "internalType": "string",
          "name": "",
          "type": "string"
        }
      ],
      "stateMutability": "pure",
      "type": "function"
    }
  ],
  "bytecode": "0x611c36610053600b82828239805160001a607314610046577f4e487b7100000000000000000000000000000000000000000000000000000000600052600060045260246000fd5b30600052607381538281f3fe73000000000000000000000000000000000000000030146080604052600436106100925760003560e01c8063776986ea11610065578063776986ea1461010f578063941c5cfc1461012d5780639ef3eb871461014b578063f8e1dd401461017b57610092565b8063023991251461009757806328412d70146100b5578063417267d0146100d357806364ca7f50146100f1575b600080fd5b61009f610199565b6040516100ac9190610cf9565b60405180910390f35b6100bd61019e565b6040516100ca9190610cf9565b60405180910390f35b6100db6101a3565b6040516100e89190610cf9565b60405180910390f35b6100f96101a8565b6040516101069190610cf9565b60405180910390f35b6101176101ad565b6040516101249190610cf9565b60405180910390f35b6101356101b2565b6040516101429190610cf9565b60405180910390f35b61016560048036038101906101609190610f49565b6101b7565b6040516101729190610ff6565b60405180910390f35b610183610429565b6040516101909190610cf9565b60405180910390f35b600081565b600681565b600181565b600581565b600481565b600381565b60606000806040518060600160405280603e8152602001611b6b603e91399050806101e061042e565b6040516020016101f1929190611054565b60405160208183030381529060405290506000604051806080016040528060588152602001611ba96058913990506000604051806080016040528060588152602001611ad360589139905060005b60088161ffff16101561038e5760005b60088161ffff16101561037a576000610283601960328461027091906110b5565b61027a91906110f2565b61ffff166106a6565b905060006102ac601960328661029991906110b5565b6102a391906110f2565b61ffff166106a6565b905060008a8561ffff16600881106102c7576102c6611128565b5b60200201518461ffff16600881106102e2576102e1611128565b5b6020020151905060008160000b12156103285786610301828585610806565b604051602001610312929190611054565b6040516020818303038152906040529650610364565b60008160000b13156103635785610340828585610806565b604051602001610351929190611054565b60405160208183030381529060405295505b5b505050808061037290611157565b91505061024f565b50808061038690611157565b91505061023f565b508281836040516020016103a493929190611219565b604051602081830303815290604052925060006103fb6103c3866106a6565b6103cc86610abc565b6103d588610c53565b6040516020016103e7939291906113e7565b604051602081830303815290604052610abc565b90508060405160200161040e9190611490565b60405160208183030381529060405295505050505050919050565b600281565b6060600060329050600061054e6040518060400160405280600181526020017f30000000000000000000000000000000000000000000000000000000000000008152506040518060400160405280600181526020017f30000000000000000000000000000000000000000000000000000000000000008152506040518060400160405280600381526020017f34303000000000000000000000000000000000000000000000000000000000008152506040518060400160405280600381526020017f34303000000000000000000000000000000000000000000000000000000000008152506040518060400160405280600781526020017f2338303830383000000000000000000000000000000000000000000000000000815250610c76565b905060005b60028160ff16101561069d5760005b60048161ffff1610156106895760005b60048161ffff16101561067557836106406105b88560ff1685600261059791906110b5565b6105a191906110f2565b8860ff166105af91906110b5565b61ffff166106a6565b6105ed8660ff168560026105cc91906110b5565b6105d691906110f2565b8960ff166105e491906110b5565b61ffff166106a6565b6105f98960ff166106a6565b6106058a60ff166106a6565b6040518060400160405280600781526020017f2344384438443800000000000000000000000000000000000000000000000000815250610c76565b604051602001610651929190611054565b6040516020818303038152906040529350808061066d90611157565b915050610572565b50808061068190611157565b915050610562565b508080610695906114bf565b915050610553565b50809250505090565b6060600082036106ed576040518060400160405280600181526020017f30000000000000000000000000000000000000000000000000000000000000008152509050610801565b600082905060005b6000821461071f578080610708906114f2565b915050600a826107189190611569565b91506106f5565b60008167ffffffffffffffff81111561073b5761073a610d39565b5b6040519080825280601f01601f19166020018201604052801561076d5781602001600182028036833780820191505090505b5090505b600085146107fa57600182610786919061159a565b9150600a8561079591906115ce565b60306107a191906115ff565b60f81b8183815181106107b7576107b6611128565b5b60200101907effffffffffffffffffffffffffffffffffffffffffffffffffffffffffffff1916908160001a905350600a856107f39190611569565b9450610771565b8093505050505b919050565b6060806000808660000b1261081c57600161081f565b60005b905080610855577fffffffffffffffffffffffffffffffffffffffffffffffffffffffffffffffff866108529190611633565b95505b600660000b8660000b036108a0576040518060400160405280600781526020017f2623393831323b000000000000000000000000000000000000000000000000008152509150610a2f565b600560000b8660000b036108eb576040518060400160405280600781526020017f2623393831333b000000000000000000000000000000000000000000000000008152509150610a2e565b600460000b8660000b03610936576040518060400160405280600781526020017f2623393831343b000000000000000000000000000000000000000000000000008152509150610a2d565b600360000b8660000b03610981576040518060400160405280600781526020017f2623393831353b000000000000000000000000000000000000000000000000008152509150610a2c565b600260000b8660000b036109cc576040518060400160405280600781526020017f2623393831363b000000000000000000000000000000000000000000000000008152509150610a2b565b600160000b8660000b03610a17576040518060400160405280600781526020017f2623393831373b000000000000000000000000000000000000000000000000008152509150610a2a565b6040518060200160405280600081525091505b5b5b5b5b5b610ab182868684610a75576040518060400160405280600481526020017f2330303000000000000000000000000000000000000000000000000000000000815250610aac565b6040518060400160405280600481526020017f23666666000000000000000000000000000000000000000000000000000000008152505b610cab565b925050509392505050565b606060008251905060008103610ae45760405180602001604052806000815250915050610c4e565b60006003600283610af591906115ff565b610aff9190611569565b6004610b0b9190611670565b90506000602082610b1c91906115ff565b67ffffffffffffffff811115610b3557610b34610d39565b5b6040519080825280601f01601f191660200182016040528015610b675781602001600182028036833780820191505090505b5090506000604051806060016040528060408152602001611b2b604091399050600181016020830160005b86811015610c0b5760038101905062ffffff818a015116603f8160121c168401518060081b905060ff603f83600c1c1686015116810190508060081b905060ff603f8360061c1686015116810190508060081b905060ff603f831686015116810190508060e01b90508084526004840193505050610b92565b506003860660018114610c255760028114610c3557610c40565b613d3d60f01b6002830352610c40565b603d60f81b60018303525b508484525050819450505050505b919050565b606060019150600060405180602001604052806000815250905080915050919050565b60608585858585604051602001610c9195949392919061187a565b604051602081830303815290604052905095945050505050565b606083838387604051602001610cc49493929190611a5d565b6040516020818303038152906040529050949350505050565b60008160000b9050919050565b610cf381610cdd565b82525050565b6000602082019050610d0e6000830184610cea565b92915050565b6000604051905090565b600080fd5b600080fd5b6000601f19601f8301169050919050565b7f4e487b7100000000000000000000000000000000000000000000000000000000600052604160045260246000fd5b610d7182610d28565b810181811067ffffffffffffffff82111715610d9057610d8f610d39565b5b80604052505050565b6000610da3610d14565b9050610daf8282610d68565b919050565b600067ffffffffffffffff821115610dcf57610dce610d39565b5b602082029050919050565b600080fd5b600067ffffffffffffffff821115610dfa57610df9610d39565b5b602082029050919050565b610e0e81610cdd565b8114610e1957600080fd5b50565b600081359050610e2b81610e05565b92915050565b6000610e44610e3f84610ddf565b610d99565b90508060208402830185811115610e5e57610e5d610dda565b5b835b81811015610e875780610e738882610e1c565b845260208401935050602081019050610e60565b5050509392505050565b600082601f830112610ea657610ea5610d23565b5b6008610eb3848285610e31565b91505092915050565b6000610ecf610eca84610db4565b610d99565b9050806101008402830185811115610eea57610ee9610dda565b5b835b81811015610f145780610eff8882610e91565b84526020840193505061010081019050610eec565b5050509392505050565b600082601f830112610f3357610f32610d23565b5b6008610f40848285610ebc565b91505092915050565b60006108008284031215610f6057610f5f610d1e565b5b6000610f6e84828501610f1e565b91505092915050565b600081519050919050565b600082825260208201905092915050565b60005b83811015610fb1578082015181840152602081019050610f96565b60008484015250505050565b6000610fc882610f77565b610fd28185610f82565b9350610fe2818560208601610f93565b610feb81610d28565b840191505092915050565b600060208201905081810360008301526110108184610fbd565b905092915050565b600081905092915050565b600061102e82610f77565b6110388185611018565b9350611048818560208601610f93565b80840191505092915050565b60006110608285611023565b915061106c8284611023565b91508190509392505050565b600061ffff82169050919050565b7f4e487b7100000000000000000000000000000000000000000000000000000000600052601160045260246000fd5b60006110c082611078565b91506110cb83611078565b92508282026110d981611078565b91508082146110eb576110ea611086565b5b5092915050565b60006110fd82611078565b915061110883611078565b9250828201905061ffff81111561112257611121611086565b5b92915050565b7f4e487b7100000000000000000000000000000000000000000000000000000000600052603260045260246000fd5b600061116282611078565b915061ffff820361117657611175611086565b5b600182019050919050565b7f3c2f673e00000000000000000000000000000000000000000000000000000000600082015250565b60006111b7600483611018565b91506111c282611181565b600482019050919050565b7f3c2f7376673e0000000000000000000000000000000000000000000000000000600082015250565b6000611203600683611018565b915061120e826111cd565b600682019050919050565b60006112258286611023565b91506112318285611023565b915061123c826111aa565b91506112488284611023565b9150611253826111aa565b915061125e826111f6565b9150819050949350505050565b7f7b226e616d65223a20224d617463682023000000000000000000000000000000600082015250565b60006112a1601183611018565b91506112ac8261126b565b601182019050919050565b7f222c20226465736372697074696f6e223a2022546869732069732061206d617460008201527f6368222c2022696d616765223a2022646174613a696d6167652f7376672b786d60208201527f6c3b6261736536342c0000000000000000000000000000000000000000000000604082015250565b6000611339604983611018565b9150611344826112b7565b604982019050919050565b7f222c2261747472696275746573223a5b00000000000000000000000000000000600082015250565b6000611385601083611018565b91506113908261134f565b601082019050919050565b7f5d7d000000000000000000000000000000000000000000000000000000000000600082015250565b60006113d1600283611018565b91506113dc8261139b565b600282019050919050565b60006113f282611294565b91506113fe8286611023565b91506114098261132c565b91506114158285611023565b915061142082611378565b915061142c8284611023565b9150611437826113c4565b9150819050949350505050565b7f646174613a6170706c69636174696f6e2f6a736f6e3b6261736536342c000000600082015250565b600061147a601d83611018565b915061148582611444565b601d82019050919050565b600061149b8261146d565b91506114a78284611023565b915081905092915050565b600060ff82169050919050565b60006114ca826114b2565b915060ff82036114dd576114dc611086565b5b600182019050919050565b6000819050919050565b60006114fd826114e8565b91507fffffffffffffffffffffffffffffffffffffffffffffffffffffffffffffffff820361152f5761152e611086565b5b600182019050919050565b7f4e487b7100000000000000000000000000000000000000000000000000000000600052601260045260246000fd5b6000611574826114e8565b915061157f836114e8565b92508261158f5761158e61153a565b5b828204905092915050565b60006115a5826114e8565b91506115b0836114e8565b92508282039050818111156115c8576115c7611086565b5b92915050565b60006115d9826114e8565b91506115e4836114e8565b9250826115f4576115f361153a565b5b828206905092915050565b600061160a826114e8565b9150611615836114e8565b925082820190508082111561162d5761162c611086565b5b92915050565b600061163e82610cdd565b915061164983610cdd565b925082820261165781610cdd565b915080821461166957611668611086565b5b5092915050565b600061167b826114e8565b9150611686836114e8565b9250828202611694816114e8565b915082820484148315176116ab576116aa611086565b5b5092915050565b7f3c7265637420783d270000000000000000000000000000000000000000000000600082015250565b60006116e8600983611018565b91506116f3826116b2565b600982019050919050565b7f2720793d27000000000000000000000000000000000000000000000000000000600082015250565b6000611734600583611018565b915061173f826116fe565b600582019050919050565b7f272077696474683d270000000000000000000000000000000000000000000000600082015250565b6000611780600983611018565b915061178b8261174a565b600982019050919050565b7f27206865696768743d2700000000000000000000000000000000000000000000600082015250565b60006117cc600a83611018565b91506117d782611796565b600a82019050919050565b7f272066696c6c3d27000000000000000000000000000000000000000000000000600082015250565b6000611818600883611018565b9150611823826117e2565b600882019050919050565b7f27202f3e00000000000000000000000000000000000000000000000000000000600082015250565b6000611864600483611018565b915061186f8261182e565b600482019050919050565b6000611885826116db565b91506118918288611023565b915061189c82611727565b91506118a88287611023565b91506118b382611773565b91506118bf8286611023565b91506118ca826117bf565b91506118d68285611023565b91506118e18261180b565b91506118ed8284611023565b91506118f882611857565b91508190509695505050505050565b7f3c7465787420783d270000000000000000000000000000000000000000000000600082015250565b600061193d600983611018565b915061194882611907565b600982019050919050565b7f2720746578742d616e63686f723d276d6964646c65272064793d272e33656d2760008201527f207374726f6b653d270000000000000000000000000000000000000000000000602082015250565b60006119af602983611018565b91506119ba82611953565b602982019050919050565b7f27207374726f6b652d77696474683d2731273e00000000000000000000000000600082015250565b60006119fb601383611018565b9150611a06826119c5565b601382019050919050565b7f3c2f746578743e00000000000000000000000000000000000000000000000000600082015250565b6000611a47600783611018565b9150611a5282611a11565b600782019050919050565b6000611a6882611930565b9150611a748287611023565b9150611a7f82611727565b9150611a8b8286611023565b9150611a96826119a2565b9150611aa28285611023565b9150611aad826119ee565b9150611ab98284611023565b9150611ac482611a3a565b91508190509594505050505056fe3c672066696c6c3d27236666662720666f6e742d66616d696c793d27617269616c20756e69636f6465206d732c48656c7665746963612c417269616c2c73616e732d73657269662720666f6e742d73697a653d273430273e4142434445464748494a4b4c4d4e4f505152535455565758595a6162636465666768696a6b6c6d6e6f707172737475767778797a303132333435363738392b2f3c73766720786d6c6e733d27687474703a2f2f7777772e77332e6f72672f323030302f737667272076696577426f783d273020302034303020343030273e3c672066696c6c3d27233030302720666f6e742d66616d696c793d27617269616c20756e69636f6465206d732c48656c7665746963612c417269616c2c73616e732d73657269662720666f6e742d73697a653d273430273ea2646970667358221220b47fc3ce44acd7e4b3589c073f6092472cfb04acc3fcfda57d40b7901959731e64736f6c63430008130033",
  "immutableReferences": {},
  "source": "// SPDX-License-Identifier: MIT\npragma solidity ^0.8.19;\nimport \"../Utility/Base64Library.sol\";\n\nlibrary ChessMediaLibrary {\n    int8 public constant EMPTY = 0;\n    int8 public constant PAWN = 1;\n    int8 public constant KNIGHT = 2;\n    int8 public constant BISHOP = 3;\n    int8 public constant ROOK = 4;\n    int8 public constant QUEEN = 5;\n    int8 public constant KING = 6;\n\n    function toString(uint value) internal pure returns (string memory) {\n        if (value == 0) {\n            return \"0\";\n        }\n        \n        uint temp = value;\n        uint digits;\n        \n        while (temp != 0) {\n            digits++;\n            temp /= 10;\n        }\n\n        bytes memory buffer = new bytes(digits);\n\n        while (value != 0) {\n            digits -= 1;\n            buffer[digits] = bytes1(uint8(48 + value % 10));\n            value /= 10;\n        }\n\n        return string(buffer);\n    }\n\n    function getPieceCharacter(int8 piece, string memory x, string memory y) internal pure returns (string memory) {\n        string memory token;\n        bool isWhite = piece < 0 ? false : true;\n        if (!isWhite){\n            piece *= -1;\n        }\n\n        if (piece == KING) {\n            token = \"&#9812;\";\n        }\n        else\n        if (piece == QUEEN) {\n            token = \"&#9813;\";\n        }\n        else\n        if (piece == ROOK) {\n            token = \"&#9814;\";\n        }\n        else\n        if (piece == BISHOP) {\n            token = \"&#9815;\";\n        }\n        else\n        if (piece == KNIGHT) {\n            token = \"&#9816;\";\n        }\n        else\n        if (piece == PAWN) {\n            token = \"&#9817;\";\n        }\n        /*\n        else \n        if (piece == -KING) {\n            token = \"&#9818;\";\n        }\n        else\n        if (piece == -QUEEN) {\n            token = \"&#9819;\";\n        }\n        else\n        if (piece == -ROOK) {\n            token = \"&#9820;\";\n        }\n        else\n        if (piece == -BISHOP) {\n            token = \"&#9821;\";\n        }\n        else\n        if (piece == -KNIGHT) {\n            token = \"&#9822;\";\n        }\n        else\n        if (piece == -PAWN) {\n            token = \"&#9823;\";\n        }\n        */\n        else{\n            token = \"\";\n        }\n\n        return generatePiece(token, x, y, isWhite ? \"#fff\" : \"#000\");\n    }\n\n    function metadata(uint256 tokenId) internal pure returns (string memory){\n        //TODO\n        tokenId = 1;\n        string memory toRet = \"\";\n        return toRet;\n    }\n\n    function getCurrentBoard(int8[8][8] memory board) external pure returns (string memory) {\n        uint tokenId = 0;\n        string memory result = \"<svg xmlns='http://www.w3.org/2000/svg' viewBox='0 0 400 400'>\";\n        result = string(abi.encodePacked(result, getBoardSquares()));   \n        string memory black = \"<g fill='#000' font-family='arial unicode ms,Helvetica,Arial,sans-serif' font-size='40'>\";\n        string memory white = \"<g fill='#fff' font-family='arial unicode ms,Helvetica,Arial,sans-serif' font-size='40'>\";\n        for (uint16 i = 0; i < 8; i++) {\n            for (uint16 j = 0; j < 8; j++) {\n                string memory x = toString(j * 50 + 25);\n                string memory y = toString(i * 50 + 25);\n                int8 piece = board[i][j];\n                if (piece < 0){\n                    black = string(abi.encodePacked(black, getPieceCharacter(piece, x, y)));\n                }\n                else\n                if (piece > 0){\n                    white = string(abi.encodePacked(white, getPieceCharacter(piece, x, y)));\n                }\n            }\n        }\n\n        result = string(abi.encodePacked(result, white, \"</g>\", black, \"</g>\", \"</svg>\"));\n        \n        string memory json = Base64Library.encode(bytes(string(abi.encodePacked('{\"name\": \"Match #', toString(tokenId), '\", \"description\": \"This is a match\", \"image\": \"data:image/svg+xml;base64,', Base64Library.encode(bytes(result)), '\",\"attributes\":[',metadata(tokenId),']}'))));\n        return string(abi.encodePacked('data:application/json;base64,', json));\n        \n    }\n\n    function generatePiece(string memory s, string memory x, string memory y, string memory c) internal pure returns (string memory) {\n        return string(abi.encodePacked(\n            \"<text x='\", x, \"' y='\", y, \"' text-anchor='middle' dy='.3em' stroke='\", c, \"' stroke-width='1'>\", s, \"</text>\"\n        ));\n    }\n\n    function generateSquare(string memory x, string memory y, string memory w, string memory h, string memory c) internal pure returns (string memory){\n        return string(abi.encodePacked(\n            \"<rect x='\", x,\"' y='\", y,\"' width='\",w,\"' height='\", h,\"' fill='\", c,\"' />\"\n        ));\n\n    }\n\n    function getBoardSquares() internal pure returns (string memory){\n        uint8 size = 50;\n        \n        string memory toRet = generateSquare(\"0\",\"0\",\"400\",\"400\",\"#808080\");\n        for (uint8 k = 0; k < 2; k++){\n            for (uint16 i = 0 ; i < 4; i++){\n                for (uint16 j = 0; j < 4; j++){\n                    toRet = string(abi.encodePacked(toRet, generateSquare(toString(size * (2 * i + k)), toString(size * (2 * j + k)), toString(size), toString(size), \"#D8D8D8\")));\n                }\n            }\n        }\n        return toRet;\n    }\n\n}",
  "sourcePath": "/Users/jacopo/Documents/solidity/test2/contracts/Chess/ChessMediaLibrary.sol",
  "compiler": {
    "name": "solc",
    "version": "0.8.19+commit.7dd6d404.Emscripten.clang"
  },
  "schemaVersion": "3.4.16",
  "updatedAt": "2023-12-24T02:58:44.433Z",
  "networkType": "ethereum",
  "devdoc": {
    "kind": "dev",
    "methods": {},
    "version": 1
  },
  "userdoc": {
    "kind": "user",
    "methods": {},
    "version": 1
  }
}