{
  "contractName": "ChessNFT",
  "abi": [
    {
      "inputs": [
        {
          "internalType": "address",
          "name": "_initialOwner",
          "type": "address"
        }
      ],
      "stateMutability": "nonpayable",
      "type": "constructor"
    },
    {
      "anonymous": false,
      "inputs": [
        {
          "indexed": true,
          "internalType": "address",
          "name": "owner",
          "type": "address"
        },
        {
          "indexed": true,
          "internalType": "address",
          "name": "approved",
          "type": "address"
        },
        {
          "indexed": true,
          "internalType": "uint256",
          "name": "tokenId",
          "type": "uint256"
        }
      ],
      "name": "Approval",
      "type": "event"
    },
    {
      "anonymous": false,
      "inputs": [
        {
          "indexed": true,
          "internalType": "address",
          "name": "owner",
          "type": "address"
        },
        {
          "indexed": true,
          "internalType": "address",
          "name": "operator",
          "type": "address"
        },
        {
          "indexed": false,
          "internalType": "bool",
          "name": "approved",
          "type": "bool"
        }
      ],
      "name": "ApprovalForAll",
      "type": "event"
    },
    {
      "anonymous": false,
      "inputs": [
        {
          "indexed": true,
          "internalType": "address",
          "name": "previousOwner",
          "type": "address"
        },
        {
          "indexed": true,
          "internalType": "address",
          "name": "newOwner",
          "type": "address"
        }
      ],
      "name": "OwnershipTransferred",
      "type": "event"
    },
    {
      "anonymous": false,
      "inputs": [
        {
          "indexed": true,
          "internalType": "address",
          "name": "from",
          "type": "address"
        },
        {
          "indexed": true,
          "internalType": "address",
          "name": "to",
          "type": "address"
        },
        {
          "indexed": true,
          "internalType": "uint256",
          "name": "tokenId",
          "type": "uint256"
        }
      ],
      "name": "Transfer",
      "type": "event"
    },
    {
      "inputs": [
        {
          "internalType": "address",
          "name": "to",
          "type": "address"
        },
        {
          "internalType": "uint256",
          "name": "tokenId",
          "type": "uint256"
        }
      ],
      "name": "approve",
      "outputs": [],
      "stateMutability": "nonpayable",
      "type": "function"
    },
    {
      "inputs": [
        {
          "internalType": "address",
          "name": "owner",
          "type": "address"
        }
      ],
      "name": "balanceOf",
      "outputs": [
        {
          "internalType": "uint256",
          "name": "",
          "type": "uint256"
        }
      ],
      "stateMutability": "view",
      "type": "function"
    },
    {
      "inputs": [
        {
          "internalType": "uint256",
          "name": "",
          "type": "uint256"
        }
      ],
      "name": "gameAddresses",
      "outputs": [
        {
          "internalType": "address",
          "name": "",
          "type": "address"
        }
      ],
      "stateMutability": "view",
      "type": "function"
    },
    {
      "inputs": [
        {
          "internalType": "uint256",
          "name": "",
          "type": "uint256"
        }
      ],
      "name": "gameNFTs",
      "outputs": [
        {
          "internalType": "address",
          "name": "",
          "type": "address"
        }
      ],
      "stateMutability": "view",
      "type": "function"
    },
    {
      "inputs": [
        {
          "internalType": "uint256",
          "name": "tokenId",
          "type": "uint256"
        }
      ],
      "name": "getApproved",
      "outputs": [
        {
          "internalType": "address",
          "name": "",
          "type": "address"
        }
      ],
      "stateMutability": "view",
      "type": "function"
    },
    {
      "inputs": [
        {
          "internalType": "address",
          "name": "owner",
          "type": "address"
        },
        {
          "internalType": "address",
          "name": "operator",
          "type": "address"
        }
      ],
      "name": "isApprovedForAll",
      "outputs": [
        {
          "internalType": "bool",
          "name": "",
          "type": "bool"
        }
      ],
      "stateMutability": "view",
      "type": "function"
    },
    {
      "inputs": [],
      "name": "name",
      "outputs": [
        {
          "internalType": "string",
          "name": "",
          "type": "string"
        }
      ],
      "stateMutability": "view",
      "type": "function"
    },
    {
      "inputs": [],
      "name": "owner",
      "outputs": [
        {
          "internalType": "address",
          "name": "",
          "type": "address"
        }
      ],
      "stateMutability": "view",
      "type": "function"
    },
    {
      "inputs": [
        {
          "internalType": "uint256",
          "name": "tokenId",
          "type": "uint256"
        }
      ],
      "name": "ownerOf",
      "outputs": [
        {
          "internalType": "address",
          "name": "",
          "type": "address"
        }
      ],
      "stateMutability": "view",
      "type": "function"
    },
    {
      "inputs": [],
      "name": "renounceOwnership",
      "outputs": [],
      "stateMutability": "nonpayable",
      "type": "function"
    },
    {
      "inputs": [
        {
          "internalType": "address",
          "name": "from",
          "type": "address"
        },
        {
          "internalType": "address",
          "name": "to",
          "type": "address"
        },
        {
          "internalType": "uint256",
          "name": "tokenId",
          "type": "uint256"
        }
      ],
      "name": "safeTransferFrom",
      "outputs": [],
      "stateMutability": "nonpayable",
      "type": "function"
    },
    {
      "inputs": [
        {
          "internalType": "address",
          "name": "from",
          "type": "address"
        },
        {
          "internalType": "address",
          "name": "to",
          "type": "address"
        },
        {
          "internalType": "uint256",
          "name": "tokenId",
          "type": "uint256"
        },
        {
          "internalType": "bytes",
          "name": "_data",
          "type": "bytes"
        }
      ],
      "name": "safeTransferFrom",
      "outputs": [],
      "stateMutability": "nonpayable",
      "type": "function"
    },
    {
      "inputs": [
        {
          "internalType": "address",
          "name": "operator",
          "type": "address"
        },
        {
          "internalType": "bool",
          "name": "approved",
          "type": "bool"
        }
      ],
      "name": "setApprovalForAll",
      "outputs": [],
      "stateMutability": "nonpayable",
      "type": "function"
    },
    {
      "inputs": [
        {
          "internalType": "bytes4",
          "name": "interfaceId",
          "type": "bytes4"
        }
      ],
      "name": "supportsInterface",
      "outputs": [
        {
          "internalType": "bool",
          "name": "",
          "type": "bool"
        }
      ],
      "stateMutability": "view",
      "type": "function"
    },
    {
      "inputs": [],
      "name": "symbol",
      "outputs": [
        {
          "internalType": "string",
          "name": "",
          "type": "string"
        }
      ],
      "stateMutability": "view",
      "type": "function"
    },
    {
      "inputs": [
        {
          "internalType": "uint256",
          "name": "index",
          "type": "uint256"
        }
      ],
      "name": "tokenByIndex",
      "outputs": [
        {
          "internalType": "uint256",
          "name": "",
          "type": "uint256"
        }
      ],
      "stateMutability": "view",
      "type": "function"
    },
    {
      "inputs": [
        {
          "internalType": "address",
          "name": "owner",
          "type": "address"
        },
        {
          "internalType": "uint256",
          "name": "index",
          "type": "uint256"
        }
      ],
      "name": "tokenOfOwnerByIndex",
      "outputs": [
        {
          "internalType": "uint256",
          "name": "",
          "type": "uint256"
        }
      ],
      "stateMutability": "view",
      "type": "function"
    },
    {
      "inputs": [],
      "name": "totalSupply",
      "outputs": [
        {
          "internalType": "uint256",
          "name": "",
          "type": "uint256"
        }
      ],
      "stateMutability": "view",
      "type": "function"
    },
    {
      "inputs": [
        {
          "internalType": "address",
          "name": "from",
          "type": "address"
        },
        {
          "internalType": "address",
          "name": "to",
          "type": "address"
        },
        {
          "internalType": "uint256",
          "name": "tokenId",
          "type": "uint256"
        }
      ],
      "name": "transferFrom",
      "outputs": [],
      "stateMutability": "nonpayable",
      "type": "function"
    },
    {
      "inputs": [
        {
          "internalType": "address",
          "name": "newOwner",
          "type": "address"
        }
      ],
      "name": "transferOwnership",
      "outputs": [],
      "stateMutability": "nonpayable",
      "type": "function"
    },
    {
      "inputs": [
        {
          "internalType": "uint256",
          "name": "_tokenId",
          "type": "uint256"
        }
      ],
      "name": "tokenURI",
      "outputs": [
        {
          "internalType": "string",
          "name": "",
          "type": "string"
        }
      ],
      "stateMutability": "view",
      "type": "function"
    },
    {
      "inputs": [
        {
          "internalType": "uint256",
          "name": "gameId",
          "type": "uint256"
        },
        {
          "internalType": "address",
          "name": "_chessCoreAddress",
          "type": "address"
        }
      ],
      "name": "createGameNFT",
      "outputs": [],
      "stateMutability": "nonpayable",
      "type": "function"
    }
  ],
  "bytecode": "0x60806040523480156200001157600080fd5b5060405162003bef38038062003bef8339818101604052810190620000379190620003ef565b6040518060400160405280600881526020017f43686573734e46540000000000000000000000000000000000000000000000008152506040518060400160405280600581526020017f43686573730000000000000000000000000000000000000000000000000000008152508160009081620000b491906200069b565b508060019081620000c691906200069b565b5050506000620000db6200019260201b60201c565b905080600a60006101000a81548173ffffffffffffffffffffffffffffffffffffffff021916908373ffffffffffffffffffffffffffffffffffffffff1602179055508073ffffffffffffffffffffffffffffffffffffffff16600073ffffffffffffffffffffffffffffffffffffffff167f8be0079c531659141344cd1fd0a4f28419497f9722a3daafe3b4186f6b6457e060405160405180910390a3506200018b816200019a60201b60201c565b506200089d565b600033905090565b620001aa6200019260201b60201c565b73ffffffffffffffffffffffffffffffffffffffff16620001d06200035b60201b60201c565b73ffffffffffffffffffffffffffffffffffffffff161462000229576040517f08c379a00000000000000000000000000000000000000000000000000000000081526004016200022090620007e3565b60405180910390fd5b600073ffffffffffffffffffffffffffffffffffffffff168173ffffffffffffffffffffffffffffffffffffffff16036200029b576040517f08c379a000000000000000000000000000000000000000000000000000000000815260040162000292906200087b565b60405180910390fd5b8073ffffffffffffffffffffffffffffffffffffffff16600a60009054906101000a900473ffffffffffffffffffffffffffffffffffffffff1673ffffffffffffffffffffffffffffffffffffffff167f8be0079c531659141344cd1fd0a4f28419497f9722a3daafe3b4186f6b6457e060405160405180910390a380600a60006101000a81548173ffffffffffffffffffffffffffffffffffffffff021916908373ffffffffffffffffffffffffffffffffffffffff16021790555050565b6000600a60009054906101000a900473ffffffffffffffffffffffffffffffffffffffff16905090565b600080fd5b600073ffffffffffffffffffffffffffffffffffffffff82169050919050565b6000620003b7826200038a565b9050919050565b620003c981620003aa565b8114620003d557600080fd5b50565b600081519050620003e981620003be565b92915050565b60006020828403121562000408576200040762000385565b5b60006200041884828501620003d8565b91505092915050565b600081519050919050565b7f4e487b7100000000000000000000000000000000000000000000000000000000600052604160045260246000fd5b7f4e487b7100000000000000000000000000000000000000000000000000000000600052602260045260246000fd5b60006002820490506001821680620004a357607f821691505b602082108103620004b957620004b86200045b565b5b50919050565b60008190508160005260206000209050919050565b60006020601f8301049050919050565b600082821b905092915050565b600060088302620005237fffffffffffffffffffffffffffffffffffffffffffffffffffffffffffffffff82620004e4565b6200052f8683620004e4565b95508019841693508086168417925050509392505050565b6000819050919050565b6000819050919050565b60006200057c62000576620005708462000547565b62000551565b62000547565b9050919050565b6000819050919050565b62000598836200055b565b620005b0620005a78262000583565b848454620004f1565b825550505050565b600090565b620005c7620005b8565b620005d48184846200058d565b505050565b5b81811015620005fc57620005f0600082620005bd565b600181019050620005da565b5050565b601f8211156200064b576200061581620004bf565b6200062084620004d4565b8101602085101562000630578190505b620006486200063f85620004d4565b830182620005d9565b50505b505050565b600082821c905092915050565b6000620006706000198460080262000650565b1980831691505092915050565b60006200068b83836200065d565b9150826002028217905092915050565b620006a68262000421565b67ffffffffffffffff811115620006c257620006c16200042c565b5b620006ce82546200048a565b620006db82828562000600565b600060209050601f831160018114620007135760008415620006fe578287015190505b6200070a85826200067d565b8655506200077a565b601f1984166200072386620004bf565b60005b828110156200074d5784890151825560018201915060208501945060208101905062000726565b868310156200076d578489015162000769601f8916826200065d565b8355505b6001600288020188555050505b505050505050565b600082825260208201905092915050565b7f4f776e61626c653a2063616c6c6572206973206e6f7420746865206f776e6572600082015250565b6000620007cb60208362000782565b9150620007d88262000793565b602082019050919050565b60006020820190508181036000830152620007fe81620007bc565b9050919050565b7f4f776e61626c653a206e6577206f776e657220697320746865207a65726f206160008201527f6464726573730000000000000000000000000000000000000000000000000000602082015250565b60006200086360268362000782565b9150620008708262000805565b604082019050919050565b60006020820190508181036000830152620008968162000854565b9050919050565b61334280620008ad6000396000f3fe608060405234801561001057600080fd5b50600436106101425760003560e01c80636352211e116100b8578063a22cb4651161007c578063a22cb4651461039d578063b88d4fde146103b9578063c87b56dd146103d5578063e985e9c514610405578063f2fde38b14610435578063ff1f333a1461045157610142565b80636352211e146102f757806370a0823114610327578063715018a6146103575780638da5cb5b1461036157806395d89b411461037f57610142565b806318160ddd1161010a57806318160ddd1461021157806323b872dd1461022f5780632f745c591461024b57806342842e0e1461027b5780634f6ccce714610297578063562d60b7146102c757610142565b806301ffc9a71461014757806306fdde0314610177578063081812fc14610195578063095ea7b3146101c557806313ec0eb7146101e1575b600080fd5b610161600480360381019061015c91906120d6565b61046d565b60405161016e919061211e565b60405180910390f35b61017f6104e7565b60405161018c91906121c9565b60405180910390f35b6101af60048036038101906101aa9190612221565b610579565b6040516101bc919061228f565b60405180910390f35b6101df60048036038101906101da91906122d6565b6105fe565b005b6101fb60048036038101906101f69190612221565b610715565b604051610208919061228f565b60405180910390f35b610219610754565b6040516102269190612325565b60405180910390f35b61024960048036038101906102449190612340565b610761565b005b610265600480360381019061026091906122d6565b6107c1565b6040516102729190612325565b60405180910390f35b61029560048036038101906102909190612340565b610866565b005b6102b160048036038101906102ac9190612221565b610886565b6040516102be9190612325565b60405180910390f35b6102e160048036038101906102dc9190612221565b6108f7565b6040516102ee919061228f565b60405180910390f35b610311600480360381019061030c9190612221565b61092a565b60405161031e919061228f565b60405180910390f35b610341600480360381019061033c9190612393565b6109db565b60405161034e9190612325565b60405180910390f35b61035f610a92565b005b610369610bcf565b604051610376919061228f565b60405180910390f35b610387610bf9565b60405161039491906121c9565b60405180910390f35b6103b760048036038101906103b291906123ec565b610c8b565b005b6103d360048036038101906103ce9190612561565b610e0b565b005b6103ef60048036038101906103ea9190612221565b610e6d565b6040516103fc91906121c9565b60405180910390f35b61041f600480360381019061041a91906125e4565b610f34565b60405161042c919061211e565b60405180910390f35b61044f600480360381019061044a9190612393565b610fc8565b005b61046b60048036038101906104669190612624565b611173565b005b60007f780e9d63000000000000000000000000000000000000000000000000000000007bffffffffffffffffffffffffffffffffffffffffffffffffffffffff1916827bffffffffffffffffffffffffffffffffffffffffffffffffffffffff191614806104e057506104df826112d8565b5b9050919050565b6060600080546104f690612693565b80601f016020809104026020016040519081016040528092919081815260200182805461052290612693565b801561056f5780601f106105445761010080835404028352916020019161056f565b820191906000526020600020905b81548152906001019060200180831161055257829003601f168201915b5050505050905090565b6000610584826113ba565b6105c3576040517f08c379a00000000000000000000000000000000000000000000000000000000081526004016105ba90612736565b60405180910390fd5b6004600083815260200190815260200160002060009054906101000a900473ffffffffffffffffffffffffffffffffffffffff169050919050565b60006106098261092a565b90508073ffffffffffffffffffffffffffffffffffffffff168373ffffffffffffffffffffffffffffffffffffffff1603610679576040517f08c379a0000000000000000000000000000000000000000000000000000000008152600401610670906127c8565b60405180910390fd5b8073ffffffffffffffffffffffffffffffffffffffff16610698611426565b73ffffffffffffffffffffffffffffffffffffffff1614806106c757506106c6816106c1611426565b610f34565b5b610706576040517f08c379a00000000000000000000000000000000000000000000000000000000081526004016106fd9061285a565b60405180910390fd5b610710838361142e565b505050565b600c818154811061072557600080fd5b906000526020600020016000915054906101000a900473ffffffffffffffffffffffffffffffffffffffff1681565b6000600880549050905090565b61077261076c611426565b826114e7565b6107b1576040517f08c379a00000000000000000000000000000000000000000000000000000000081526004016107a8906128ec565b60405180910390fd5b6107bc8383836115c5565b505050565b60006107cc836109db565b821061080d576040517f08c379a00000000000000000000000000000000000000000000000000000000081526004016108049061297e565b60405180910390fd5b600660008473ffffffffffffffffffffffffffffffffffffffff1673ffffffffffffffffffffffffffffffffffffffff168152602001908152602001600020600083815260200190815260200160002054905092915050565b61088183838360405180602001604052806000815250610e0b565b505050565b6000610890610754565b82106108d1576040517f08c379a00000000000000000000000000000000000000000000000000000000081526004016108c890612a10565b60405180910390fd5b600882815481106108e5576108e4612a30565b5b90600052602060002001549050919050565b600b6020528060005260406000206000915054906101000a900473ffffffffffffffffffffffffffffffffffffffff1681565b6000806002600084815260200190815260200160002060009054906101000a900473ffffffffffffffffffffffffffffffffffffffff169050600073ffffffffffffffffffffffffffffffffffffffff168173ffffffffffffffffffffffffffffffffffffffff16036109d2576040517f08c379a00000000000000000000000000000000000000000000000000000000081526004016109c990612ad1565b60405180910390fd5b80915050919050565b60008073ffffffffffffffffffffffffffffffffffffffff168273ffffffffffffffffffffffffffffffffffffffff1603610a4b576040517f08c379a0000000000000000000000000000000000000000000000000000000008152600401610a4290612b63565b60405180910390fd5b600360008373ffffffffffffffffffffffffffffffffffffffff1673ffffffffffffffffffffffffffffffffffffffff168152602001908152602001600020549050919050565b610a9a611426565b73ffffffffffffffffffffffffffffffffffffffff16610ab8610bcf565b73ffffffffffffffffffffffffffffffffffffffff1614610b0e576040517f08c379a0000000000000000000000000000000000000000000000000000000008152600401610b0590612bcf565b60405180910390fd5b600073ffffffffffffffffffffffffffffffffffffffff16600a60009054906101000a900473ffffffffffffffffffffffffffffffffffffffff1673ffffffffffffffffffffffffffffffffffffffff167f8be0079c531659141344cd1fd0a4f28419497f9722a3daafe3b4186f6b6457e060405160405180910390a36000600a60006101000a81548173ffffffffffffffffffffffffffffffffffffffff021916908373ffffffffffffffffffffffffffffffffffffffff160217905550565b6000600a60009054906101000a900473ffffffffffffffffffffffffffffffffffffffff16905090565b606060018054610c0890612693565b80601f0160208091040260200160405190810160405280929190818152602001828054610c3490612693565b8015610c815780601f10610c5657610100808354040283529160200191610c81565b820191906000526020600020905b815481529060010190602001808311610c6457829003601f168201915b5050505050905090565b610c93611426565b73ffffffffffffffffffffffffffffffffffffffff168273ffffffffffffffffffffffffffffffffffffffff1603610d00576040517f08c379a0000000000000000000000000000000000000000000000000000000008152600401610cf790612c3b565b60405180910390fd5b8060056000610d0d611426565b73ffffffffffffffffffffffffffffffffffffffff1673ffffffffffffffffffffffffffffffffffffffff16815260200190815260200160002060008473ffffffffffffffffffffffffffffffffffffffff1673ffffffffffffffffffffffffffffffffffffffff16815260200190815260200160002060006101000a81548160ff0219169083151502179055508173ffffffffffffffffffffffffffffffffffffffff16610dba611426565b73ffffffffffffffffffffffffffffffffffffffff167f17307eab39ab6107e8899845ad3d59bd9653f200f220920489ca2b5937696c3183604051610dff919061211e565b60405180910390a35050565b610e1c610e16611426565b836114e7565b610e5b576040517f08c379a0000000000000000000000000000000000000000000000000000000008152600401610e52906128ec565b60405180910390fd5b610e6784848484611820565b50505050565b60606000600c8381548110610e8557610e84612a30565b5b9060005260206000200160009054906101000a900473ffffffffffffffffffffffffffffffffffffffff16905060008190508073ffffffffffffffffffffffffffffffffffffffff1663085791b66040518163ffffffff1660e01b8152600401600060405180830381865afa158015610f02573d6000803e3d6000fd5b505050506040513d6000823e3d601f19601f82011682018060405250810190610f2b9190612cfc565b92505050919050565b6000600560008473ffffffffffffffffffffffffffffffffffffffff1673ffffffffffffffffffffffffffffffffffffffff16815260200190815260200160002060008373ffffffffffffffffffffffffffffffffffffffff1673ffffffffffffffffffffffffffffffffffffffff16815260200190815260200160002060009054906101000a900460ff16905092915050565b610fd0611426565b73ffffffffffffffffffffffffffffffffffffffff16610fee610bcf565b73ffffffffffffffffffffffffffffffffffffffff1614611044576040517f08c379a000000000000000000000000000000000000000000000000000000000815260040161103b90612bcf565b60405180910390fd5b600073ffffffffffffffffffffffffffffffffffffffff168173ffffffffffffffffffffffffffffffffffffffff16036110b3576040517f08c379a00000000000000000000000000000000000000000000000000000000081526004016110aa90612db7565b60405180910390fd5b8073ffffffffffffffffffffffffffffffffffffffff16600a60009054906101000a900473ffffffffffffffffffffffffffffffffffffffff1673ffffffffffffffffffffffffffffffffffffffff167f8be0079c531659141344cd1fd0a4f28419497f9722a3daafe3b4186f6b6457e060405160405180910390a380600a60006101000a81548173ffffffffffffffffffffffffffffffffffffffff021916908373ffffffffffffffffffffffffffffffffffffffff16021790555050565b600073ffffffffffffffffffffffffffffffffffffffff16600b600084815260200190815260200160002060009054906101000a900473ffffffffffffffffffffffffffffffffffffffff1673ffffffffffffffffffffffffffffffffffffffff1614611215576040517f08c379a000000000000000000000000000000000000000000000000000000000815260040161120c90612e23565b60405180910390fd5b600c819080600181540180825580915050600190039060005260206000200160009091909190916101000a81548173ffffffffffffffffffffffffffffffffffffffff021916908373ffffffffffffffffffffffffffffffffffffffff160217905550611282338361187c565b33600b600084815260200190815260200160002060006101000a81548173ffffffffffffffffffffffffffffffffffffffff021916908373ffffffffffffffffffffffffffffffffffffffff1602179055505050565b60007f80ac58cd000000000000000000000000000000000000000000000000000000007bffffffffffffffffffffffffffffffffffffffffffffffffffffffff1916827bffffffffffffffffffffffffffffffffffffffffffffffffffffffff191614806113a357507f5b5e139f000000000000000000000000000000000000000000000000000000007bffffffffffffffffffffffffffffffffffffffffffffffffffffffff1916827bffffffffffffffffffffffffffffffffffffffffffffffffffffffff1916145b806113b357506113b282611a49565b5b9050919050565b60008073ffffffffffffffffffffffffffffffffffffffff166002600084815260200190815260200160002060009054906101000a900473ffffffffffffffffffffffffffffffffffffffff1673ffffffffffffffffffffffffffffffffffffffff1614159050919050565b600033905090565b816004600083815260200190815260200160002060006101000a81548173ffffffffffffffffffffffffffffffffffffffff021916908373ffffffffffffffffffffffffffffffffffffffff160217905550808273ffffffffffffffffffffffffffffffffffffffff166114a18361092a565b73ffffffffffffffffffffffffffffffffffffffff167f8c5be1e5ebec7d5bd14f71427d1e84f3dd0314c0f7b2291e5b200ac8c7c3b92560405160405180910390a45050565b60006114f2826113ba565b611531576040517f08c379a000000000000000000000000000000000000000000000000000000000815260040161152890612eb5565b60405180910390fd5b600061153c8361092a565b90508073ffffffffffffffffffffffffffffffffffffffff168473ffffffffffffffffffffffffffffffffffffffff1614806115ab57508373ffffffffffffffffffffffffffffffffffffffff1661159384610579565b73ffffffffffffffffffffffffffffffffffffffff16145b806115bc57506115bb8185610f34565b5b91505092915050565b8273ffffffffffffffffffffffffffffffffffffffff166115e58261092a565b73ffffffffffffffffffffffffffffffffffffffff161461163b576040517f08c379a000000000000000000000000000000000000000000000000000000000815260040161163290612f47565b60405180910390fd5b600073ffffffffffffffffffffffffffffffffffffffff168273ffffffffffffffffffffffffffffffffffffffff16036116aa576040517f08c379a00000000000000000000000000000000000000000000000000000000081526004016116a190612fd9565b60405180910390fd5b6116b5838383611ab3565b6116c060008261142e565b6001600360008573ffffffffffffffffffffffffffffffffffffffff1673ffffffffffffffffffffffffffffffffffffffff16815260200190815260200160002060008282546117109190613028565b925050819055506001600360008473ffffffffffffffffffffffffffffffffffffffff1673ffffffffffffffffffffffffffffffffffffffff1681526020019081526020016000206000828254611767919061305c565b92505081905550816002600083815260200190815260200160002060006101000a81548173ffffffffffffffffffffffffffffffffffffffff021916908373ffffffffffffffffffffffffffffffffffffffff160217905550808273ffffffffffffffffffffffffffffffffffffffff168473ffffffffffffffffffffffffffffffffffffffff167fddf252ad1be2c89b69c2b068fc378daa952ba7f163c4a11628f55a4df523b3ef60405160405180910390a4505050565b61182b8484846115c5565b61183784848484611bc5565b611876576040517f08c379a000000000000000000000000000000000000000000000000000000000815260040161186d90613102565b60405180910390fd5b50505050565b600073ffffffffffffffffffffffffffffffffffffffff168273ffffffffffffffffffffffffffffffffffffffff16036118eb576040517f08c379a00000000000000000000000000000000000000000000000000000000081526004016118e29061316e565b60405180910390fd5b6118f4816113ba565b15611934576040517f08c379a000000000000000000000000000000000000000000000000000000000815260040161192b906131da565b60405180910390fd5b61194060008383611ab3565b6001600360008473ffffffffffffffffffffffffffffffffffffffff1673ffffffffffffffffffffffffffffffffffffffff1681526020019081526020016000206000828254611990919061305c565b92505081905550816002600083815260200190815260200160002060006101000a81548173ffffffffffffffffffffffffffffffffffffffff021916908373ffffffffffffffffffffffffffffffffffffffff160217905550808273ffffffffffffffffffffffffffffffffffffffff16600073ffffffffffffffffffffffffffffffffffffffff167fddf252ad1be2c89b69c2b068fc378daa952ba7f163c4a11628f55a4df523b3ef60405160405180910390a45050565b60007f01ffc9a7000000000000000000000000000000000000000000000000000000007bffffffffffffffffffffffffffffffffffffffffffffffffffffffff1916827bffffffffffffffffffffffffffffffffffffffffffffffffffffffff1916149050919050565b611abe838383611d4c565b600073ffffffffffffffffffffffffffffffffffffffff168373ffffffffffffffffffffffffffffffffffffffff1603611b0057611afb81611d51565b611b3f565b8173ffffffffffffffffffffffffffffffffffffffff168373ffffffffffffffffffffffffffffffffffffffff1614611b3e57611b3d8382611d9a565b5b5b600073ffffffffffffffffffffffffffffffffffffffff168273ffffffffffffffffffffffffffffffffffffffff1603611b8157611b7c81611f07565b611bc0565b8273ffffffffffffffffffffffffffffffffffffffff168273ffffffffffffffffffffffffffffffffffffffff1614611bbf57611bbe8282611fd8565b5b5b505050565b6000611be68473ffffffffffffffffffffffffffffffffffffffff16612057565b15611d3f578373ffffffffffffffffffffffffffffffffffffffff1663150b7a02611c0f611426565b8786866040518563ffffffff1660e01b8152600401611c31949392919061324f565b6020604051808303816000875af1925050508015611c6d57506040513d601f19601f82011682018060405250810190611c6a91906132b0565b60015b611cef573d8060008114611c9d576040519150601f19603f3d011682016040523d82523d6000602084013e611ca2565b606091505b506000815103611ce7576040517f08c379a0000000000000000000000000000000000000000000000000000000008152600401611cde90613102565b60405180910390fd5b805181602001fd5b63150b7a0260e01b7bffffffffffffffffffffffffffffffffffffffffffffffffffffffff1916817bffffffffffffffffffffffffffffffffffffffffffffffffffffffff191614915050611d44565b600190505b949350505050565b505050565b6008805490506009600083815260200190815260200160002081905550600881908060018154018082558091505060019003906000526020600020016000909190919091505550565b60006001611da7846109db565b611db19190613028565b9050600060076000848152602001908152602001600020549050818114611e96576000600660008673ffffffffffffffffffffffffffffffffffffffff1673ffffffffffffffffffffffffffffffffffffffff168152602001908152602001600020600084815260200190815260200160002054905080600660008773ffffffffffffffffffffffffffffffffffffffff1673ffffffffffffffffffffffffffffffffffffffff168152602001908152602001600020600084815260200190815260200160002081905550816007600083815260200190815260200160002081905550505b6007600084815260200190815260200160002060009055600660008573ffffffffffffffffffffffffffffffffffffffff1673ffffffffffffffffffffffffffffffffffffffff16815260200190815260200160002060008381526020019081526020016000206000905550505050565b60006001600880549050611f1b9190613028565b9050600060096000848152602001908152602001600020549050600060088381548110611f4b57611f4a612a30565b5b906000526020600020015490508060088381548110611f6d57611f6c612a30565b5b906000526020600020018190555081600960008381526020019081526020016000208190555060096000858152602001908152602001600020600090556008805480611fbc57611fbb6132dd565b5b6001900381819060005260206000200160009055905550505050565b6000611fe3836109db565b905081600660008573ffffffffffffffffffffffffffffffffffffffff1673ffffffffffffffffffffffffffffffffffffffff168152602001908152602001600020600083815260200190815260200160002081905550806007600084815260200190815260200160002081905550505050565b600080823b905060008111915050919050565b6000604051905090565b600080fd5b600080fd5b60007fffffffff0000000000000000000000000000000000000000000000000000000082169050919050565b6120b38161207e565b81146120be57600080fd5b50565b6000813590506120d0816120aa565b92915050565b6000602082840312156120ec576120eb612074565b5b60006120fa848285016120c1565b91505092915050565b60008115159050919050565b61211881612103565b82525050565b6000602082019050612133600083018461210f565b92915050565b600081519050919050565b600082825260208201905092915050565b60005b83811015612173578082015181840152602081019050612158565b60008484015250505050565b6000601f19601f8301169050919050565b600061219b82612139565b6121a58185612144565b93506121b5818560208601612155565b6121be8161217f565b840191505092915050565b600060208201905081810360008301526121e38184612190565b905092915050565b6000819050919050565b6121fe816121eb565b811461220957600080fd5b50565b60008135905061221b816121f5565b92915050565b60006020828403121561223757612236612074565b5b60006122458482850161220c565b91505092915050565b600073ffffffffffffffffffffffffffffffffffffffff82169050919050565b60006122798261224e565b9050919050565b6122898161226e565b82525050565b60006020820190506122a46000830184612280565b92915050565b6122b38161226e565b81146122be57600080fd5b50565b6000813590506122d0816122aa565b92915050565b600080604083850312156122ed576122ec612074565b5b60006122fb858286016122c1565b925050602061230c8582860161220c565b9150509250929050565b61231f816121eb565b82525050565b600060208201905061233a6000830184612316565b92915050565b60008060006060848603121561235957612358612074565b5b6000612367868287016122c1565b9350506020612378868287016122c1565b92505060406123898682870161220c565b9150509250925092565b6000602082840312156123a9576123a8612074565b5b60006123b7848285016122c1565b91505092915050565b6123c981612103565b81146123d457600080fd5b50565b6000813590506123e6816123c0565b92915050565b6000806040838503121561240357612402612074565b5b6000612411858286016122c1565b9250506020612422858286016123d7565b9150509250929050565b600080fd5b600080fd5b7f4e487b7100000000000000000000000000000000000000000000000000000000600052604160045260246000fd5b61246e8261217f565b810181811067ffffffffffffffff8211171561248d5761248c612436565b5b80604052505050565b60006124a061206a565b90506124ac8282612465565b919050565b600067ffffffffffffffff8211156124cc576124cb612436565b5b6124d58261217f565b9050602081019050919050565b82818337600083830152505050565b60006125046124ff846124b1565b612496565b9050828152602081018484840111156125205761251f612431565b5b61252b8482856124e2565b509392505050565b600082601f8301126125485761254761242c565b5b81356125588482602086016124f1565b91505092915050565b6000806000806080858703121561257b5761257a612074565b5b6000612589878288016122c1565b945050602061259a878288016122c1565b93505060406125ab8782880161220c565b925050606085013567ffffffffffffffff8111156125cc576125cb612079565b5b6125d887828801612533565b91505092959194509250565b600080604083850312156125fb576125fa612074565b5b6000612609858286016122c1565b925050602061261a858286016122c1565b9150509250929050565b6000806040838503121561263b5761263a612074565b5b60006126498582860161220c565b925050602061265a858286016122c1565b9150509250929050565b7f4e487b7100000000000000000000000000000000000000000000000000000000600052602260045260246000fd5b600060028204905060018216806126ab57607f821691505b6020821081036126be576126bd612664565b5b50919050565b7f4552433732313a20617070726f76656420717565727920666f72206e6f6e657860008201527f697374656e7420746f6b656e0000000000000000000000000000000000000000602082015250565b6000612720602c83612144565b915061272b826126c4565b604082019050919050565b6000602082019050818103600083015261274f81612713565b9050919050565b7f4552433732313a20617070726f76616c20746f2063757272656e74206f776e6560008201527f7200000000000000000000000000000000000000000000000000000000000000602082015250565b60006127b2602183612144565b91506127bd82612756565b604082019050919050565b600060208201905081810360008301526127e1816127a5565b9050919050565b7f4552433732313a20617070726f76652063616c6c6572206973206e6f74206f7760008201527f6e6572206e6f7220617070726f76656420666f7220616c6c0000000000000000602082015250565b6000612844603883612144565b915061284f826127e8565b604082019050919050565b6000602082019050818103600083015261287381612837565b9050919050565b7f4552433732313a207472616e736665722063616c6c6572206973206e6f74206f60008201527f776e6572206e6f7220617070726f766564000000000000000000000000000000602082015250565b60006128d6603183612144565b91506128e18261287a565b604082019050919050565b60006020820190508181036000830152612905816128c9565b9050919050565b7f455243373231456e756d657261626c653a206f776e657220696e646578206f7560008201527f74206f6620626f756e6473000000000000000000000000000000000000000000602082015250565b6000612968602b83612144565b91506129738261290c565b604082019050919050565b600060208201905081810360008301526129978161295b565b9050919050565b7f455243373231456e756d657261626c653a20676c6f62616c20696e646578206f60008201527f7574206f6620626f756e64730000000000000000000000000000000000000000602082015250565b60006129fa602c83612144565b9150612a058261299e565b604082019050919050565b60006020820190508181036000830152612a29816129ed565b9050919050565b7f4e487b7100000000000000000000000000000000000000000000000000000000600052603260045260246000fd5b7f4552433732313a206f776e657220717565727920666f72206e6f6e657869737460008201527f656e7420746f6b656e0000000000000000000000000000000000000000000000602082015250565b6000612abb602983612144565b9150612ac682612a5f565b604082019050919050565b60006020820190508181036000830152612aea81612aae565b9050919050565b7f4552433732313a2062616c616e636520717565727920666f7220746865207a6560008201527f726f206164647265737300000000000000000000000000000000000000000000602082015250565b6000612b4d602a83612144565b9150612b5882612af1565b604082019050919050565b60006020820190508181036000830152612b7c81612b40565b9050919050565b7f4f776e61626c653a2063616c6c6572206973206e6f7420746865206f776e6572600082015250565b6000612bb9602083612144565b9150612bc482612b83565b602082019050919050565b60006020820190508181036000830152612be881612bac565b9050919050565b7f4552433732313a20617070726f766520746f2063616c6c657200000000000000600082015250565b6000612c25601983612144565b9150612c3082612bef565b602082019050919050565b60006020820190508181036000830152612c5481612c18565b9050919050565b600067ffffffffffffffff821115612c7657612c75612436565b5b612c7f8261217f565b9050602081019050919050565b6000612c9f612c9a84612c5b565b612496565b905082815260208101848484011115612cbb57612cba612431565b5b612cc6848285612155565b509392505050565b600082601f830112612ce357612ce261242c565b5b8151612cf3848260208601612c8c565b91505092915050565b600060208284031215612d1257612d11612074565b5b600082015167ffffffffffffffff811115612d3057612d2f612079565b5b612d3c84828501612cce565b91505092915050565b7f4f776e61626c653a206e6577206f776e657220697320746865207a65726f206160008201527f6464726573730000000000000000000000000000000000000000000000000000602082015250565b6000612da1602683612144565b9150612dac82612d45565b604082019050919050565b60006020820190508181036000830152612dd081612d94565b9050919050565b7f4e465420666f72207468652067616d6520616c72656164792065786973747300600082015250565b6000612e0d601f83612144565b9150612e1882612dd7565b602082019050919050565b60006020820190508181036000830152612e3c81612e00565b9050919050565b7f4552433732313a206f70657261746f7220717565727920666f72206e6f6e657860008201527f697374656e7420746f6b656e0000000000000000000000000000000000000000602082015250565b6000612e9f602c83612144565b9150612eaa82612e43565b604082019050919050565b60006020820190508181036000830152612ece81612e92565b9050919050565b7f4552433732313a207472616e73666572206f6620746f6b656e2074686174206960008201527f73206e6f74206f776e0000000000000000000000000000000000000000000000602082015250565b6000612f31602983612144565b9150612f3c82612ed5565b604082019050919050565b60006020820190508181036000830152612f6081612f24565b9050919050565b7f4552433732313a207472616e7366657220746f20746865207a65726f2061646460008201527f7265737300000000000000000000000000000000000000000000000000000000602082015250565b6000612fc3602483612144565b9150612fce82612f67565b604082019050919050565b60006020820190508181036000830152612ff281612fb6565b9050919050565b7f4e487b7100000000000000000000000000000000000000000000000000000000600052601160045260246000fd5b6000613033826121eb565b915061303e836121eb565b925082820390508181111561305657613055612ff9565b5b92915050565b6000613067826121eb565b9150613072836121eb565b925082820190508082111561308a57613089612ff9565b5b92915050565b7f4552433732313a207472616e7366657220746f206e6f6e20455243373231526560008201527f63656976657220696d706c656d656e7465720000000000000000000000000000602082015250565b60006130ec603283612144565b91506130f782613090565b604082019050919050565b6000602082019050818103600083015261311b816130df565b9050919050565b7f4552433732313a206d696e7420746f20746865207a65726f2061646472657373600082015250565b6000613158602083612144565b915061316382613122565b602082019050919050565b600060208201905081810360008301526131878161314b565b9050919050565b7f4552433732313a20746f6b656e20616c7265616479206d696e74656400000000600082015250565b60006131c4601c83612144565b91506131cf8261318e565b602082019050919050565b600060208201905081810360008301526131f3816131b7565b9050919050565b600081519050919050565b600082825260208201905092915050565b6000613221826131fa565b61322b8185613205565b935061323b818560208601612155565b6132448161217f565b840191505092915050565b60006080820190506132646000830187612280565b6132716020830186612280565b61327e6040830185612316565b81810360608301526132908184613216565b905095945050505050565b6000815190506132aa816120aa565b92915050565b6000602082840312156132c6576132c5612074565b5b60006132d48482850161329b565b91505092915050565b7f4e487b7100000000000000000000000000000000000000000000000000000000600052603160045260246000fdfea26469706673582212206b2b10e2f5fb3fa1ef8d3bdb9e26a47f528b27229c9b88c83d8669c61d9fa6b964736f6c63430008130033",
  "immutableReferences": {},
  "source": "// SPDX-License-Identifier: MIT\npragma solidity ^0.8.19;\nimport \"@openzeppelin/contracts/token/ERC721/extensions/ERC721Enumerable.sol\";\nimport \"@openzeppelin/contracts/access/Ownable.sol\";\n\nimport \"./ChessMediaLibrary.sol\";\n\ninterface IChessCore {\n    function printChessBoardLayoutSVG() external view returns (string memory);\n}\n    \ncontract ChessNFT is ERC721Enumerable, Ownable {\n    using ChessMediaLibrary for uint8[8][8];\n    mapping(uint256 => address) public gameNFTs;\n    address[] public gameAddresses;\n\n    constructor(address _initialOwner) ERC721(\"ChessNFT\", \"Chess\") Ownable() {\n        transferOwnership(_initialOwner);\n    }\n    \n    function tokenURI(uint256 _tokenId) public view virtual override returns (string memory) {\n        address gameAddress = gameAddresses[_tokenId];\n        IChessCore c = IChessCore(gameAddress);\n        return c.printChessBoardLayoutSVG();\n    }\n\n    function createGameNFT(uint256 gameId, address _chessCoreAddress) external {\n        require(gameNFTs[gameId] == address(0), \"NFT for the game already exists\");\n        gameAddresses.push(_chessCoreAddress);\n        _mint(msg.sender, gameId);\n        gameNFTs[gameId] = msg.sender;\n    }\n\n}",
  "sourcePath": "/Users/jacopo/Documents/solidity/test2/contracts/Chess/ChessNFT.sol",
  "compiler": {
    "name": "solc",
    "version": "0.8.19+commit.7dd6d404.Emscripten.clang"
  },
  "schemaVersion": "3.4.16",
  "updatedAt": "2023-12-24T02:58:44.446Z",
  "networkType": "ethereum",
  "devdoc": {
    "events": {
      "Approval(address,address,uint256)": {
        "details": "Emitted when `owner` enables `approved` to manage the `tokenId` token."
      },
      "ApprovalForAll(address,address,bool)": {
        "details": "Emitted when `owner` enables or disables (`approved`) `operator` to manage all of its assets."
      },
      "Transfer(address,address,uint256)": {
        "details": "Emitted when `tokenId` token is transferred from `from` to `to`."
      }
    },
    "kind": "dev",
    "methods": {
      "approve(address,uint256)": {
        "details": "See {IERC721-approve}."
      },
      "balanceOf(address)": {
        "details": "See {IERC721-balanceOf}."
      },
      "getApproved(uint256)": {
        "details": "See {IERC721-getApproved}."
      },
      "isApprovedForAll(address,address)": {
        "details": "See {IERC721-isApprovedForAll}."
      },
      "name()": {
        "details": "See {IERC721Metadata-name}."
      },
      "owner()": {
        "details": "Returns the address of the current owner."
      },
      "ownerOf(uint256)": {
        "details": "See {IERC721-ownerOf}."
      },
      "renounceOwnership()": {
        "details": "Leaves the contract without owner. It will not be possible to call `onlyOwner` functions anymore. Can only be called by the current owner. NOTE: Renouncing ownership will leave the contract without an owner, thereby removing any functionality that is only available to the owner."
      },
      "safeTransferFrom(address,address,uint256)": {
        "details": "See {IERC721-safeTransferFrom}."
      },
      "safeTransferFrom(address,address,uint256,bytes)": {
        "details": "See {IERC721-safeTransferFrom}."
      },
      "setApprovalForAll(address,bool)": {
        "details": "See {IERC721-setApprovalForAll}."
      },
      "supportsInterface(bytes4)": {
        "details": "See {IERC165-supportsInterface}."
      },
      "symbol()": {
        "details": "See {IERC721Metadata-symbol}."
      },
      "tokenByIndex(uint256)": {
        "details": "See {IERC721Enumerable-tokenByIndex}."
      },
      "tokenOfOwnerByIndex(address,uint256)": {
        "details": "See {IERC721Enumerable-tokenOfOwnerByIndex}."
      },
      "totalSupply()": {
        "details": "See {IERC721Enumerable-totalSupply}."
      },
      "transferFrom(address,address,uint256)": {
        "details": "See {IERC721-transferFrom}."
      },
      "transferOwnership(address)": {
        "details": "Transfers ownership of the contract to a new account (`newOwner`). Can only be called by the current owner."
      }
    },
    "version": 1
  },
  "userdoc": {
    "kind": "user",
    "methods": {},
    "version": 1
  }
}