{
  "contractName": "ChessCore",
  "abi": [
    {
      "inputs": [
        {
          "internalType": "address",
          "name": "_whitePlayer",
          "type": "address"
        },
        {
          "internalType": "uint256",
          "name": "_value",
          "type": "uint256"
        }
      ],
      "stateMutability": "payable",
      "type": "constructor"
    },
    {
      "anonymous": false,
      "inputs": [
        {
          "indexed": false,
          "internalType": "int8",
          "name": "player",
          "type": "int8"
        },
        {
          "indexed": false,
          "internalType": "uint8",
          "name": "startX",
          "type": "uint8"
        },
        {
          "indexed": false,
          "internalType": "uint8",
          "name": "startY",
          "type": "uint8"
        },
        {
          "indexed": false,
          "internalType": "uint8",
          "name": "endX",
          "type": "uint8"
        },
        {
          "indexed": false,
          "internalType": "uint8",
          "name": "endY",
          "type": "uint8"
        },
        {
          "indexed": false,
          "internalType": "string",
          "name": "comment",
          "type": "string"
        }
      ],
      "name": "Debug",
      "type": "event"
    },
    {
      "inputs": [],
      "name": "betting",
      "outputs": [
        {
          "internalType": "uint256",
          "name": "",
          "type": "uint256"
        }
      ],
      "stateMutability": "view",
      "type": "function"
    },
    {
      "inputs": [
        {
          "internalType": "uint256",
          "name": "",
          "type": "uint256"
        },
        {
          "internalType": "uint256",
          "name": "",
          "type": "uint256"
        }
      ],
      "name": "board",
      "outputs": [
        {
          "internalType": "int8",
          "name": "",
          "type": "int8"
        }
      ],
      "stateMutability": "view",
      "type": "function"
    },
    {
      "stateMutability": "payable",
      "type": "receive"
    },
    {
      "inputs": [],
      "name": "switchTurn",
      "outputs": [],
      "stateMutability": "nonpayable",
      "type": "function"
    },
    {
      "inputs": [],
      "name": "joinGameAsBlack",
      "outputs": [],
      "stateMutability": "payable",
      "type": "function"
    },
    {
      "inputs": [
        {
          "internalType": "uint8",
          "name": "startX",
          "type": "uint8"
        },
        {
          "internalType": "uint8",
          "name": "startY",
          "type": "uint8"
        },
        {
          "internalType": "uint8",
          "name": "endX",
          "type": "uint8"
        },
        {
          "internalType": "uint8",
          "name": "endY",
          "type": "uint8"
        }
      ],
      "name": "makeMove",
      "outputs": [],
      "stateMutability": "nonpayable",
      "type": "function"
    },
    {
      "inputs": [],
      "name": "printBoard",
      "outputs": [
        {
          "internalType": "string",
          "name": "",
          "type": "string"
        }
      ],
      "stateMutability": "view",
      "type": "function"
    },
    {
      "inputs": [],
      "name": "getCurrentPlayers",
      "outputs": [
        {
          "internalType": "address",
          "name": "",
          "type": "address"
        },
        {
          "internalType": "address",
          "name": "",
          "type": "address"
        }
      ],
      "stateMutability": "view",
      "type": "function"
    },
    {
      "inputs": [
        {
          "internalType": "uint8",
          "name": "x",
          "type": "uint8"
        },
        {
          "internalType": "uint8",
          "name": "y",
          "type": "uint8"
        },
        {
          "internalType": "int8",
          "name": "piece",
          "type": "int8"
        }
      ],
      "name": "debugCreative",
      "outputs": [
        {
          "internalType": "string",
          "name": "",
          "type": "string"
        }
      ],
      "stateMutability": "nonpayable",
      "type": "function"
    },
    {
      "inputs": [],
      "name": "printChessBoardLayoutSVG",
      "outputs": [
        {
          "internalType": "string",
          "name": "",
          "type": "string"
        }
      ],
      "stateMutability": "view",
      "type": "function"
    },
    {
      "inputs": [],
      "name": "test",
      "outputs": [],
      "stateMutability": "pure",
      "type": "function"
    }
  ],
  "bytecode": "0x6101606040526000800b60809060000b815250600160000b60a09060000b815250600260000b60c09060000b815250600360000b60e09060000b815250600460000b6101009060000b815250600560000b6101209060000b815250600660000b6101409060000b8152506000600a60006101000a81548160ff021916908360048111156200009257620000916200091c565b5b021790555060405162004ee338038062004ee38339818101604052810190620000bc9190620009f0565b620000cc6200015d60201b60201c565b81600a60016101000a81548173ffffffffffffffffffffffffffffffffffffffff021916908373ffffffffffffffffffffffffffffffffffffffff16021790555081600c60006101000a81548173ffffffffffffffffffffffffffffffffffffffff021916908373ffffffffffffffffffffffffffffffffffffffff16021790555080600981905550505062000b2a565b610100516200016c9062000a73565b60008060ff166008811062000186576200018562000ac0565b5b01600060ff1660088110620001a0576200019f62000ac0565b5b602091828204019190066101000a81548160ff021916908360000b60ff16021790555060c051620001d19062000a73565b60008060ff1660088110620001eb57620001ea62000ac0565b5b01600160ff166008811062000205576200020462000ac0565b5b602091828204019190066101000a81548160ff021916908360000b60ff16021790555060e051620002369062000a73565b60008060ff166008811062000250576200024f62000ac0565b5b01600260ff16600881106200026a576200026962000ac0565b5b602091828204019190066101000a81548160ff021916908360000b60ff160217905550610120516200029c9062000a73565b60008060ff1660088110620002b657620002b562000ac0565b5b01600360ff1660088110620002d057620002cf62000ac0565b5b602091828204019190066101000a81548160ff021916908360000b60ff16021790555061014051620003029062000a73565b60008060ff16600881106200031c576200031b62000ac0565b5b01600460ff166008811062000336576200033562000ac0565b5b602091828204019190066101000a81548160ff021916908360000b60ff16021790555060e051620003679062000a73565b60008060ff166008811062000381576200038062000ac0565b5b01600560ff16600881106200039b576200039a62000ac0565b5b602091828204019190066101000a81548160ff021916908360000b60ff16021790555060c051620003cc9062000a73565b60008060ff1660088110620003e657620003e562000ac0565b5b01600660ff16600881106200040057620003ff62000ac0565b5b602091828204019190066101000a81548160ff021916908360000b60ff16021790555061010051620004329062000a73565b60008060ff16600881106200044c576200044b62000ac0565b5b01600760ff166008811062000466576200046562000ac0565b5b602091828204019190066101000a81548160ff021916908360000b60ff16021790555060005b600860ff168160ff161015620005175760a051620004aa9062000a73565b6000600160ff1660088110620004c557620004c462000ac0565b5b018260ff1660088110620004de57620004dd62000ac0565b5b602091828204019190066101000a81548160ff021916908360000b60ff16021790555080806200050e9062000afc565b9150506200048c565b50610100516000600760ff166008811062000537576200053662000ac0565b5b01600060ff166008811062000551576200055062000ac0565b5b602091828204019190066101000a81548160ff021916908360000b60ff16021790555060c0516000600760ff166008811062000592576200059162000ac0565b5b01600160ff1660088110620005ac57620005ab62000ac0565b5b602091828204019190066101000a81548160ff021916908360000b60ff16021790555060e0516000600760ff1660088110620005ed57620005ec62000ac0565b5b01600260ff166008811062000607576200060662000ac0565b5b602091828204019190066101000a81548160ff021916908360000b60ff160217905550610120516000600760ff166008811062000649576200064862000ac0565b5b01600360ff166008811062000663576200066262000ac0565b5b602091828204019190066101000a81548160ff021916908360000b60ff160217905550610140516000600760ff1660088110620006a557620006a462000ac0565b5b01600460ff1660088110620006bf57620006be62000ac0565b5b602091828204019190066101000a81548160ff021916908360000b60ff16021790555060e0516000600760ff16600881106200070057620006ff62000ac0565b5b01600560ff16600881106200071a576200071962000ac0565b5b602091828204019190066101000a81548160ff021916908360000b60ff16021790555060c0516000600760ff16600881106200075b576200075a62000ac0565b5b01600660ff166008811062000775576200077462000ac0565b5b602091828204019190066101000a81548160ff021916908360000b60ff160217905550610100516000600760ff1660088110620007b757620007b662000ac0565b5b01600760ff1660088110620007d157620007d062000ac0565b5b602091828204019190066101000a81548160ff021916908360000b60ff16021790555060005b600860ff168160ff161015620008775760a0516000600660ff166008811062000825576200082462000ac0565b5b018260ff16600881106200083e576200083d62000ac0565b5b602091828204019190066101000a81548160ff021916908360000b60ff16021790555080806200086e9062000afc565b915050620007f7565b506000600860006101000a81548160ff0219169083151502179055506000600860016101000a81548160ff0219169083151502179055506000600860026101000a81548160ff0219169083151502179055506000600860036101000a81548160ff0219169083151502179055506000600860046101000a81548160ff0219169083151502179055506000600860056101000a81548160ff021916908315150217905550565b7f4e487b7100000000000000000000000000000000000000000000000000000000600052602160045260246000fd5b600080fd5b600073ffffffffffffffffffffffffffffffffffffffff82169050919050565b60006200097d8262000950565b9050919050565b6200098f8162000970565b81146200099b57600080fd5b50565b600081519050620009af8162000984565b92915050565b6000819050919050565b620009ca81620009b5565b8114620009d657600080fd5b50565b600081519050620009ea81620009bf565b92915050565b6000806040838503121562000a0a5762000a096200094b565b5b600062000a1a858286016200099e565b925050602062000a2d85828601620009d9565b9150509250929050565b60008160000b9050919050565b7f4e487b7100000000000000000000000000000000000000000000000000000000600052601160045260246000fd5b600062000a808262000a37565b91507fffffffffffffffffffffffffffffffffffffffffffffffffffffffffffffff80820362000ab55762000ab462000a44565b5b816000039050919050565b7f4e487b7100000000000000000000000000000000000000000000000000000000600052603260045260246000fd5b600060ff82169050919050565b600062000b098262000aef565b915060ff820362000b1f5762000b1e62000a44565b5b600182019050919050565b60805160a05160c05160e05161010051610120516101405161427762000c6c6000396000818161089c0152818161123f01528181611948015281816119fa0152818161209b0152818161234401526128ab0152600081816118fc0152818161203101526122d10152600081816113760152818161141b0152818161150b015281816115b00152818161174901528181611fc7015261225e0152600081816116fd01528181611f5d01526121eb0152600081816116b101528181611ef3015261217801526000818161166501528181611e890152818161210501528181612414015281816124fb015261255e0152600081816107dd01528181610ad801528181610bef0152818161161e01528181611e1f01528181612a4401528181612b3b01528181612db6015281816130aa0152818161317b015261324c01526142776000f3fe6080604052600436106100955760003560e01c80638086a92a116100595780638086a92a146101ff57806393c9e5241461023c5780639454986514610253578063ee545d4f1461027e578063f8a8fd6d1461028857610112565b806302cac05c14610117578063085791b61461014357806339b4b0d61461016e578063538a93ed146101995780637bed3d1c146101d657610112565b3661011257600060048111156100ae576100ad6132ba565b5b600a60009054906101000a900460ff1660048111156100d0576100cf6132ba565b5b14610110576040517f08c379a000000000000000000000000000000000000000000000000000000000815260040161010790613346565b60405180910390fd5b005b600080fd5b34801561012357600080fd5b5061012c61029f565b60405161013a9291906133a7565b60405180910390f35b34801561014f57600080fd5b506101586102f0565b604051610165919061344f565b60405180910390f35b34801561017a57600080fd5b5061018361040e565b604051610190919061348a565b60405180910390f35b3480156101a557600080fd5b506101c060048036038101906101bb919061352b565b610414565b6040516101cd919061344f565b60405180910390f35b3480156101e257600080fd5b506101fd60048036038101906101f8919061357e565b610478565b005b34801561020b57600080fd5b5061022660048036038101906102219190613611565b610da0565b6040516102339190613660565b60405180910390f35b34801561024857600080fd5b50610251610ddc565b005b34801561025f57600080fd5b50610268610ee1565b604051610275919061344f565b60405180910390f35b610286610fda565b005b34801561029457600080fd5b5061029d611182565b005b600080600a60019054906101000a900473ffffffffffffffffffffffffffffffffffffffff16600b60009054906101000a900473ffffffffffffffffffffffffffffffffffffffff16915091509091565b60606000600880602002604051908101604052809291906000905b8282101561038757838201600880602002604051908101604052809291908260088015610373576020028201916000905b82829054906101000a900460000b60000b8152602001906001019060208260000104928301926001038202915080841161033c5790505b50505050508152602001906001019061030b565b5050505073__ChessMediaLibrary_____________________639ef3eb8790916040518263ffffffff1660e01b81526004016103c391906137c3565b600060405180830381865af41580156103e0573d6000803e3d6000fd5b505050506040513d6000823e3d601f19601f820116820180604052508101906104099190613905565b905090565b60095481565b60608160008560ff166008811061042e5761042d61394e565b5b018460ff16600881106104445761044361394e565b5b602091828204019190066101000a81548160ff021916908360000b60ff16021790555061046f610ee1565b90509392505050565b600c60009054906101000a900473ffffffffffffffffffffffffffffffffffffffff1673ffffffffffffffffffffffffffffffffffffffff163373ffffffffffffffffffffffffffffffffffffffff1614610508576040517f08c379a00000000000000000000000000000000000000000000000000000000081526004016104ff906139c9565b60405180910390fd5b8383600060019050600b60009054906101000a900473ffffffffffffffffffffffffffffffffffffffff1673ffffffffffffffffffffffffffffffffffffffff16600c60009054906101000a900473ffffffffffffffffffffffffffffffffffffffff1673ffffffffffffffffffffffffffffffffffffffff16036105b6577fffffffffffffffffffffffffffffffffffffffffffffffffffffffffffffffff816105b39190613a18565b90505b60008160008560ff16600881106105d0576105cf61394e565b5b018460ff16600881106105e6576105e561394e565b5b602091828204019190069054906101000a900460000b6106069190613a18565b60000b13610649576040517f08c379a000000000000000000000000000000000000000000000000000000000815260040161064090613ac7565b60405180910390fd5b6001600481111561065d5761065c6132ba565b5b600a60009054906101000a900460ff16600481111561067f5761067e6132ba565b5b14806106be57506000600481111561069a576106996132ba565b5b600a60009054906101000a900460ff1660048111156106bc576106bb6132ba565b5b145b6106fd576040517f08c379a00000000000000000000000000000000000000000000000000000000081526004016106f490613b59565b60405180910390fd5b6107098787878761118b565b610748576040517f08c379a000000000000000000000000000000000000000000000000000000000815260040161073f90613bc5565b60405180910390fd5b60008760ff166008811061075f5761075e61394e565b5b018660ff16600881106107755761077461394e565b5b602091828204019190069054906101000a900460000b60008660ff16600881106107a2576107a161394e565b5b018560ff16600881106107b8576107b761394e565b5b602091828204019190066101000a81548160ff021916908360000b60ff1602179055507f000000000000000000000000000000000000000000000000000000000000000060008860ff16600881106108135761081261394e565b5b018760ff16600881106108295761082861394e565b5b602091828204019190066101000a81548160ff021916908360000b60ff16021790555061089760008860ff16600881106108665761086561394e565b5b018760ff166008811061087c5761087b61394e565b5b602091828204019190069054906101000a900460000b6119a7565b60ff167f000000000000000000000000000000000000000000000000000000000000000060ff161480156108e1575060026108dc87866108d79190613be5565b6119a7565b60ff16145b15610c6257600a60019054906101000a900473ffffffffffffffffffffffffffffffffffffffff1673ffffffffffffffffffffffffffffffffffffffff16600c60009054906101000a900473ffffffffffffffffffffffffffffffffffffffff1673ffffffffffffffffffffffffffffffffffffffff16036109cd57600860009054906101000a900460ff16156109ad576040517f08c379a00000000000000000000000000000000000000000000000000000000081526004016109a490613cb0565b60405180910390fd5b6001600860006101000a81548160ff021916908315150217905550610a39565b600860039054906101000a900460ff1615610a1d576040517f08c379a0000000000000000000000000000000000000000000000000000000008152600401610a1490613d42565b60405180910390fd5b6001600860036101000a81548160ff0219169083151502179055505b60068460ff1603610b4d5760008760ff1660088110610a5b57610a5a61394e565b5b01600760ff1660088110610a7257610a7161394e565b5b602091828204019190069054906101000a900460000b60008860ff1660088110610a9f57610a9e61394e565b5b01600560088110610ab357610ab261394e565b5b602091828204019190066101000a81548160ff021916908360000b60ff1602179055507f000000000000000000000000000000000000000000000000000000000000000060008860ff1660088110610b0e57610b0d61394e565b5b01600760ff1660088110610b2557610b2461394e565b5b602091828204019190066101000a81548160ff021916908360000b60ff160217905550610c61565b60028460ff1603610c605760008760ff1660088110610b6f57610b6e61394e565b5b01600060ff1660088110610b8657610b8561394e565b5b602091828204019190069054906101000a900460000b60008860ff1660088110610bb357610bb261394e565b5b01600360ff1660088110610bca57610bc961394e565b5b602091828204019190066101000a81548160ff021916908360000b60ff1602179055507f000000000000000000000000000000000000000000000000000000000000000060008860ff1660088110610c2557610c2461394e565b5b01600060ff1660088110610c3c57610c3b61394e565b5b602091828204019190066101000a81548160ff021916908360000b60ff1602179055505b5b5b610c8b7fffffffffffffffffffffffffffffffffffffffffffffffffffffffffffffffff6119cc565b15610cf757610cbb7fffffffffffffffffffffffffffffffffffffffffffffffffffffffffffffffff8686611b70565b610cc6576001610cc9565b60035b600a60006101000a81548160ff02191690836004811115610ced57610cec6132ba565b5b0217905550610d8f565b610d0160016119cc565b15610d4e57610d1260018686611b70565b610d1d576001610d20565b60045b600a60006101000a81548160ff02191690836004811115610d4457610d436132ba565b5b0217905550610d8e565b610d56611bc6565b610d61576001610d64565b60025b600a60006101000a81548160ff02191690836004811115610d8857610d876132ba565b5b02179055505b5b610d97610ddc565b50505050505050565b60008260088110610db057600080fd5b018160088110610dbf57600080fd5b60209182820401919006915091509054906101000a900460000b81565b600a60019054906101000a900473ffffffffffffffffffffffffffffffffffffffff1673ffffffffffffffffffffffffffffffffffffffff16600c60009054906101000a900473ffffffffffffffffffffffffffffffffffffffff1673ffffffffffffffffffffffffffffffffffffffff1614610e7b57600a60019054906101000a900473ffffffffffffffffffffffffffffffffffffffff16610e9f565b600b60009054906101000a900473ffffffffffffffffffffffffffffffffffffffff165b600c60006101000a81548173ffffffffffffffffffffffffffffffffffffffff021916908373ffffffffffffffffffffffffffffffffffffffff160217905550565b6060600060405180602001604052806000815250905060005b600860ff168160ff161015610fd25760005b600860ff168160ff161015610f9c5782610f6760008460ff1660088110610f3657610f3561394e565b5b018360ff1660088110610f4c57610f4b61394e565b5b602091828204019190069054906101000a900460000b611e1b565b604051602001610f78929190613dea565b60405160208183030381529060405292508080610f9490613e19565b915050610f0c565b5081604051602001610fae9190613e8e565b60405160208183030381529060405291508080610fca90613e19565b915050610efa565b508091505090565b600a60019054906101000a900473ffffffffffffffffffffffffffffffffffffffff1673ffffffffffffffffffffffffffffffffffffffff163373ffffffffffffffffffffffffffffffffffffffff160361106a576040517f08c379a000000000000000000000000000000000000000000000000000000000815260040161106190613efc565b60405180910390fd5b60095434146110ae576040517f08c379a00000000000000000000000000000000000000000000000000000000081526004016110a590613f8e565b60405180910390fd5b600073ffffffffffffffffffffffffffffffffffffffff16600b60009054906101000a900473ffffffffffffffffffffffffffffffffffffffff1673ffffffffffffffffffffffffffffffffffffffff161461113f576040517f08c379a000000000000000000000000000000000000000000000000000000000815260040161113690614020565b60405180910390fd5b33600b60006101000a81548173ffffffffffffffffffffffffffffffffffffffff021916908373ffffffffffffffffffffffffffffffffffffffff160217905550565b5b600161118357565b60008060008660ff16600881106111a5576111a461394e565b5b018560ff16600881106111bb576111ba61394e565b5b602091828204019190069054906101000a900460000b90506000808560ff16600881106111eb576111ea61394e565b5b018460ff16600881106112015761120061394e565b5b602091828204019190069054906101000a900460000b9050600260ff16611232878661122d9190613be5565b6119a7565b60ff1614801561126f57507f000000000000000000000000000000000000000000000000000000000000000060ff1661126a836119a7565b60ff16145b1561161c57600a60019054906101000a900473ffffffffffffffffffffffffffffffffffffffff1673ffffffffffffffffffffffffffffffffffffffff16600c60009054906101000a900473ffffffffffffffffffffffffffffffffffffffff1673ffffffffffffffffffffffffffffffffffffffff160361148057600760ff168760ff161480156113075750600460ff168660ff16145b80156113205750600860009054906101000a900460ff16155b1561147b5761137160008860ff166008811061133f5761133e61394e565b5b01600760ff16600881106113565761135561394e565b5b602091828204019190069054906101000a900460000b6119a7565b60ff167f000000000000000000000000000000000000000000000000000000000000000060ff161480156113ab5750600360ff168460ff16145b80156113c45750600860029054906101000a900460ff16155b8061146a575061141660008860ff16600881106113e4576113e361394e565b5b01600060ff16600881106113fb576113fa61394e565b5b602091828204019190069054906101000a900460000b6119a7565b60ff167f000000000000000000000000000000000000000000000000000000000000000060ff161480156114505750600260ff168460ff16145b80156114695750600860019054906101000a900460ff16155b5b1561147a5760019250505061199f565b5b611611565b600060ff168760ff1614801561149c5750600460ff168660ff16145b80156114b55750600860039054906101000a900460ff16155b156116105761150660008860ff16600881106114d4576114d361394e565b5b01600060ff16600881106114eb576114ea61394e565b5b602091828204019190069054906101000a900460000b6119a7565b60ff167f000000000000000000000000000000000000000000000000000000000000000060ff161480156115405750600660ff168460ff16145b80156115595750600860059054906101000a900460ff16155b806115ff57506115ab60008860ff16600881106115795761157861394e565b5b01600760ff16600881106115905761158f61394e565b5b602091828204019190069054906101000a900460000b6119a7565b60ff167f000000000000000000000000000000000000000000000000000000000000000060ff161480156115e55750600260ff168460ff16145b80156115fe5750600860049054906101000a900460ff16155b5b1561160f5760019250505061199f565b5b5b60009250505061199f565b7f000000000000000000000000000000000000000000000000000000000000000060000b8160000b148061165e5750600081836116599190613a18565b60000b125b15611997577f000000000000000000000000000000000000000000000000000000000000000060ff16611690836119a7565b60ff16036116af576116a68787878786866123f3565b9250505061199f565b7f000000000000000000000000000000000000000000000000000000000000000060ff166116dc836119a7565b60ff16036116fb576116f28787878786866125d8565b9250505061199f565b7f000000000000000000000000000000000000000000000000000000000000000060ff16611728836119a7565b60ff16036117475761173e878787878686612674565b9250505061199f565b7f000000000000000000000000000000000000000000000000000000000000000060ff16611774836119a7565b60ff16036118fa57600760ff168760ff161480156117985750600060ff168660ff16145b80156117b15750600860019054906101000a900460ff16155b156117d6576001600860016101000a81548160ff0219169083151502179055506118e3565b600760ff168760ff161480156117f25750600760ff168660ff16145b801561180b5750600860029054906101000a900460ff16155b15611830576001600860026101000a81548160ff0219169083151502179055506118e2565b600060ff168760ff1614801561184c5750600760ff168660ff16145b80156118655750600860049054906101000a900460ff16155b1561188a576001600860046101000a81548160ff0219169083151502179055506118e1565b600060ff168760ff161480156118a65750600060ff168660ff16145b80156118bf5750600860059054906101000a900460ff16155b156118e0576001600860056101000a81548160ff0219169083151502179055505b5b5b5b6118f18787878786866126f7565b9250505061199f565b7f000000000000000000000000000000000000000000000000000000000000000060ff16611927836119a7565b60ff16036119465761193d878787878686612758565b9250505061199f565b7f000000000000000000000000000000000000000000000000000000000000000060ff16611973836119a7565b60ff1603611992576119898787878786866127fc565b9250505061199f565b611998565b5b6000925050505b949350505050565b6000808260000b12156119c357816119be90614040565b6119c5565b815b9050919050565b600080600080600090505b600860ff168160ff161015611aa05760005b600860ff168160ff161015611a8c577f000000000000000000000000000000000000000000000000000000000000000086611a249190613a18565b60000b60008360ff1660088110611a3e57611a3d61394e565b5b018260ff1660088110611a5457611a5361394e565b5b602091828204019190069054906101000a900460000b60000b03611a79578193508092505b8080611a8490613e19565b9150506119e9565b508080611a9890613e19565b9150506119d7565b5060005b600860ff168160ff161015611b635760005b600860ff168160ff161015611b4f576000808360ff1660088110611add57611adc61394e565b5b018260ff1660088110611af357611af261394e565b5b602091828204019190069054906101000a900460000b87611b149190613a18565b60000b1215611b3c57611b298282868661118b565b15611b3b576001945050505050611b6b565b5b8080611b4790613e19565b915050611ab6565b508080611b5b90613e19565b915050611aa4565b506000925050505b919050565b6000611b7b8461287d565b15611b895760009050611bbf565b611b94848484612b10565b15611ba25760009050611bbf565b611bac8383612c75565b15611bba5760009050611bbf565b600190505b9392505050565b600080600a60019054906101000a900473ffffffffffffffffffffffffffffffffffffffff1673ffffffffffffffffffffffffffffffffffffffff16600c60009054906101000a900473ffffffffffffffffffffffffffffffffffffffff1673ffffffffffffffffffffffffffffffffffffffff1614611c66577fffffffffffffffffffffffffffffffffffffffffffffffffffffffffffffffff611c69565b60015b905060005b600860ff168160ff161015611e115760005b600860ff168160ff161015611dfd5760008360008460ff1660088110611ca957611ca861394e565b5b018360ff1660088110611cbf57611cbe61394e565b5b602091828204019190069054906101000a900460000b611cdf9190613a18565b60000b1315611dea5760005b600860ff168160ff161015611de85760005b600860ff168160ff161015611dd45760008460ff1660088110611d2357611d2261394e565b5b018360ff1660088110611d3957611d3861394e565b5b602091828204019190069054906101000a900460000b60000b60008360ff1660088110611d6957611d6861394e565b5b018260ff1660088110611d7f57611d7e61394e565b5b602091828204019190069054906101000a900460000b60000b14158015611dae5750611dad8484848461118b565b5b15611dc157600095505050505050611e18565b8080611dcc90613e19565b915050611cfd565b508080611de090613e19565b915050611ceb565b505b8080611df590613e19565b915050611c80565b508080611e0990613e19565b915050611c6e565b5060019150505b90565b60607f000000000000000000000000000000000000000000000000000000000000000060000b8260000b03611e87576040518060400160405280600181526020017f300000000000000000000000000000000000000000000000000000000000000081525090506123ee565b7f000000000000000000000000000000000000000000000000000000000000000060000b8260000b03611ef1576040518060400160405280600181526020017f310000000000000000000000000000000000000000000000000000000000000081525090506123ee565b7f000000000000000000000000000000000000000000000000000000000000000060000b8260000b03611f5b576040518060400160405280600181526020017f320000000000000000000000000000000000000000000000000000000000000081525090506123ee565b7f000000000000000000000000000000000000000000000000000000000000000060000b8260000b03611fc5576040518060400160405280600181526020017f330000000000000000000000000000000000000000000000000000000000000081525090506123ee565b7f000000000000000000000000000000000000000000000000000000000000000060000b8260000b0361202f576040518060400160405280600181526020017f340000000000000000000000000000000000000000000000000000000000000081525090506123ee565b7f000000000000000000000000000000000000000000000000000000000000000060000b8260000b03612099576040518060400160405280600181526020017f350000000000000000000000000000000000000000000000000000000000000081525090506123ee565b7f000000000000000000000000000000000000000000000000000000000000000060000b8260000b03612103576040518060400160405280600181526020017f360000000000000000000000000000000000000000000000000000000000000081525090506123ee565b7f000000000000000000000000000000000000000000000000000000000000000061212d90614040565b60000b8260000b03612176576040518060400160405280600281526020017f2d3100000000000000000000000000000000000000000000000000000000000081525090506123ee565b7f00000000000000000000000000000000000000000000000000000000000000006121a090614040565b60000b8260000b036121e9576040518060400160405280600281526020017f2d3200000000000000000000000000000000000000000000000000000000000081525090506123ee565b7f000000000000000000000000000000000000000000000000000000000000000061221390614040565b60000b8260000b0361225c576040518060400160405280600281526020017f2d3300000000000000000000000000000000000000000000000000000000000081525090506123ee565b7f000000000000000000000000000000000000000000000000000000000000000061228690614040565b60000b8260000b036122cf576040518060400160405280600281526020017f2d3400000000000000000000000000000000000000000000000000000000000081525090506123ee565b7f00000000000000000000000000000000000000000000000000000000000000006122f990614040565b60000b8260000b03612342576040518060400160405280600281526020017f2d3500000000000000000000000000000000000000000000000000000000000081525090506123ee565b7f000000000000000000000000000000000000000000000000000000000000000061236c90614040565b60000b8260000b036123b5576040518060400160405280600281526020017f2d3600000000000000000000000000000000000000000000000000000000000081525090506123ee565b6040518060400160405280600481526020017f585858580000000000000000000000000000000000000000000000000000000081525090505b919050565b60008360ff168660ff1614801561240d575060008260000b145b156124db577f000000000000000000000000000000000000000000000000000000000000000061243c90614040565b60000b8360000b03612493576001876124559190614088565b60ff168560ff1614806124805750600160ff168760ff1614801561247f5750600360ff168560ff16145b5b1561248e57600190506125ce565b6124da565b6001876124a091906140bd565b60ff168560ff1614806124cb5750600660ff168760ff161480156124ca5750600460ff168560ff16145b5b156124d957600190506125ce565b5b5b60016124f187866124ec9190613be5565b6119a7565b60ff16036125c9577f000000000000000000000000000000000000000000000000000000000000000060000b8360000b14801561253f57506001876125369190614088565b60ff168560ff16145b801561254e575060008260000b125b1561255c57600190506125ce565b7f000000000000000000000000000000000000000000000000000000000000000061258690614040565b60000b8360000b1480156125ab57506001876125a291906140bd565b60ff168560ff16145b80156125ba575060008260000b135b156125c857600190506125ce565b5b600090505b9695505050505050565b6000806125ef88876125ea9190613be5565b6119a7565b9050600061260788876126029190613be5565b6119a7565b905060018260ff1614801561261f575060028160ff16145b8061263c575060028260ff1614801561263b575060018160ff16145b5b15612663576000858561264f9190613a18565b60000b136126625760019250505061266a565b5b6000925050505b9695505050505050565b60008061268b88876126869190613be5565b6119a7565b905060006126a3888761269e9190613be5565b6119a7565b90508060ff168260ff16036126e6576126be89898989612f41565b156126e557600085856126d19190613a18565b60000b136126e4576001925050506126ed565b5b5b6000925050505b9695505050505050565b60008460ff168760ff16148061271257508360ff168660ff16145b156127495761272387878787612f41565b1561274857600083836127369190613a18565b60000b13612747576001905061274e565b5b5b600090505b9695505050505050565b60008061276f888761276a9190613be5565b6119a7565b9050600061278788876127829190613be5565b6119a7565b90508060ff168260ff1614806127a257508660ff168960ff16145b806127b257508560ff168860ff16145b156127eb576127c389898989612f41565b156127ea57600085856127d69190613a18565b60000b136127e9576001925050506127f2565b5b5b6000925050505b9695505050505050565b600080612813888761280e9190613be5565b6119a7565b9050600061282b88876128269190613be5565b6119a7565b905060018260ff1611158015612845575060018160ff1611155b1561286c57600085856128589190613a18565b60000b1361286b57600192505050612873565b5b6000925050505b9695505050505050565b600080600080600090505b600860ff168160ff1610156129555760005b600860ff168160ff161015612941577f0000000000000000000000000000000000000000000000000000000000000000866128d59190613a18565b60000b60008360ff16600881106128ef576128ee61394e565b5b018260ff16600881106129055761290461394e565b5b602091828204019190069054906101000a900460000b60000b0361292e57819350809250612941565b808061293990613e19565b91505061289a565b50808061294d90613e19565b915050612888565b5060007fffffffffffffffffffffffffffffffffffffffffffffffffffffffffffffffff90505b60018160000b13612b035760007fffffffffffffffffffffffffffffffffffffffffffffffffffffffffffffffff90505b60018160000b13612aef57600082856129c691906140f2565b9050600082856129d691906140f2565b905060008260000b121580156129f25750600860000b8260000b125b8015612a02575060008160000b12155b8015612a145750600860000b8160000b125b8015612a33575060008460000b141580612a32575060008360000b14155b5b15612ada57600082905060008490507f000000000000000000000000000000000000000000000000000000000000000060000b60008360ff1660088110612a7d57612a7c61394e565b5b018260ff1660088110612a9357612a9261394e565b5b602091828204019190069054906101000a900460000b60000b148015612ac15750612ac08888848461118b565b5b15612ad757600198505050505050505050612b0b565b50505b50508080612ae79061414b565b9150506129ad565b508080612afb9061414b565b91505061297c565b506000925050505b919050565b600080600090505b600860ff168160ff161015612c685760005b600860ff168160ff161015612c54577f000000000000000000000000000000000000000000000000000000000000000060000b60008360ff1660088110612b7457612b7361394e565b5b018260ff1660088110612b8a57612b8961394e565b5b602091828204019190069054906101000a900460000b60000b1480612bff575060008660008460ff1660088110612bc457612bc361394e565b5b018360ff1660088110612bda57612bd961394e565b5b602091828204019190069054906101000a900460000b612bfa9190613a18565b60000b125b80612c2057508460ff168260ff16148015612c1f57508360ff168160ff16145b5b612c4157612c308282878761118b565b15612c4057600192505050612c6e565b5b8080612c4c90613e19565b915050612b2a565b508080612c6090613e19565b915050612b18565b50600090505b9392505050565b600080600090505b600860ff168160ff161015612f355760005b600860ff168160ff161015612f215760008286612cac91906140bd565b60ff16905060008286612cbf91906140bd565b60ff16905060008060008460000b14612cec57612cdb846119a7565b60ff1684612ce991906141a3565b91505b60008360000b14612d1157612d00836119a7565b60ff1683612d0e91906141a3565b90505b60008287612d1f91906140f2565b905060008287612d2f91906140f2565b9050600860ff168260ff16108015612d4d5750600860ff168160ff16105b15612f08575b8a60ff168260ff16141580612d6e57508960ff168160ff1614155b15612f075760008260ff1610158015612d8d5750600860ff168260ff16105b8015612d9d575060008160ff1610155b8015612daf5750600860ff168160ff16105b15612ee6577f000000000000000000000000000000000000000000000000000000000000000060000b60008360ff1660088110612def57612dee61394e565b5b018260ff1660088110612e0557612e0461394e565b5b602091828204019190069054906101000a900460000b60000b14158015612ebd57506000808960ff1660088110612e3f57612e3e61394e565b5b018860ff1660088110612e5557612e5461394e565b5b602091828204019190069054906101000a900460000b60008460ff1660088110612e8257612e8161394e565b5b018360ff1660088110612e9857612e9761394e565b5b602091828204019190069054906101000a900460000b612eb89190613a18565b60000b135b15612ee557612ece82828a8a61118b565b15612ee457600198505050505050505050612f3b565b5b5b8382612ef291906140f2565b91508281612f0091906140f2565b9050612d53565b5b5050505050508080612f1990613e19565b915050612c8f565b508080612f2d90613e19565b915050612c7d565b50600090505b92915050565b6000808560ff168460ff1611612f62578386612f5d91906140bd565b612f6f565b8584612f6e91906140bd565b5b905060008560ff168460ff1611612f91578386612f8c91906140bd565b612f9e565b8584612f9d91906140bd565b5b905060008760ff168660ff1611612fd5577fffffffffffffffffffffffffffffffffffffffffffffffffffffffffffffffff612fd8565b60015b905060008760ff168660ff161161300f577fffffffffffffffffffffffffffffffffffffffffffffffffffffffffffffffff613012565b60015b90508260ff168460ff16036130f8576000600190505b8460ff168160ff1610156130f257600083826130449190613a18565b8b61304f91906140f2565b60000b600881106130635761306261394e565b5b0182826130709190613a18565b8a61307b91906140f2565b60000b6008811061308f5761308e61394e565b5b602091828204019190069054906101000a900460000b60000b7f000000000000000000000000000000000000000000000000000000000000000060000b146130df576000955050505050506132b2565b80806130ea90613e19565b915050613028565b506132a9565b8660ff168960ff16036131c9576000600190505b8360ff168160ff1610156131c35760008a60ff16600881106131315761313061394e565b5b01828261313e9190613a18565b60000b8a60ff1661314f919061420d565b600881106131605761315f61394e565b5b602091828204019190069054906101000a900460000b60000b7f000000000000000000000000000000000000000000000000000000000000000060000b146131b0576000955050505050506132b2565b80806131bb90613e19565b91505061310c565b506132a8565b8560ff168860ff160361329a576000600190505b8460ff168160ff16101561329457600083826131f99190613a18565b60000b8b60ff1661320a919061420d565b6008811061321b5761321a61394e565b5b018960ff16600881106132315761323061394e565b5b602091828204019190069054906101000a900460000b60000b7f000000000000000000000000000000000000000000000000000000000000000060000b14613281576000955050505050506132b2565b808061328c90613e19565b9150506131dd565b506132a7565b60009450505050506132b2565b5b5b60019450505050505b949350505050565b7f4e487b7100000000000000000000000000000000000000000000000000000000600052602160045260246000fd5b600082825260208201905092915050565b7f47616d652068617320616c726561647920737461727465640000000000000000600082015250565b60006133306018836132e9565b915061333b826132fa565b602082019050919050565b6000602082019050818103600083015261335f81613323565b9050919050565b600073ffffffffffffffffffffffffffffffffffffffff82169050919050565b600061339182613366565b9050919050565b6133a181613386565b82525050565b60006040820190506133bc6000830185613398565b6133c96020830184613398565b9392505050565b600081519050919050565b60005b838110156133f95780820151818401526020810190506133de565b60008484015250505050565b6000601f19601f8301169050919050565b6000613421826133d0565b61342b81856132e9565b935061343b8185602086016133db565b61344481613405565b840191505092915050565b600060208201905081810360008301526134698184613416565b905092915050565b6000819050919050565b61348481613471565b82525050565b600060208201905061349f600083018461347b565b92915050565b6000604051905090565b600080fd5b600080fd5b600060ff82169050919050565b6134cf816134b9565b81146134da57600080fd5b50565b6000813590506134ec816134c6565b92915050565b60008160000b9050919050565b613508816134f2565b811461351357600080fd5b50565b600081359050613525816134ff565b92915050565b600080600060608486031215613544576135436134af565b5b6000613552868287016134dd565b9350506020613563868287016134dd565b925050604061357486828701613516565b9150509250925092565b60008060008060808587031215613598576135976134af565b5b60006135a6878288016134dd565b94505060206135b7878288016134dd565b93505060406135c8878288016134dd565b92505060606135d9878288016134dd565b91505092959194509250565b6135ee81613471565b81146135f957600080fd5b50565b60008135905061360b816135e5565b92915050565b60008060408385031215613628576136276134af565b5b6000613636858286016135fc565b9250506020613647858286016135fc565b9150509250929050565b61365a816134f2565b82525050565b60006020820190506136756000830184613651565b92915050565b600060089050919050565b600081905092915050565b6000819050919050565b600060089050919050565b600081905092915050565b6000819050919050565b6136c4816134f2565b82525050565b60006136d683836136bb565b60208301905092915050565b6000602082019050919050565b6136f88161369b565b61370281846136a6565b925061370d826136b1565b8060005b8381101561373e57815161372587826136ca565b9650613730836136e2565b925050600181019050613711565b505050505050565b600061375283836136ef565b6101008301905092915050565b6000602082019050919050565b6137758161367b565b61377f8184613686565b925061378a82613691565b8060005b838110156137bb5781516137a28782613746565b96506137ad8361375f565b92505060018101905061378e565b505050505050565b6000610800820190506137d9600083018461376c565b92915050565b600080fd5b600080fd5b7f4e487b7100000000000000000000000000000000000000000000000000000000600052604160045260246000fd5b61382182613405565b810181811067ffffffffffffffff821117156138405761383f6137e9565b5b80604052505050565b60006138536134a5565b905061385f8282613818565b919050565b600067ffffffffffffffff82111561387f5761387e6137e9565b5b61388882613405565b9050602081019050919050565b60006138a86138a384613864565b613849565b9050828152602081018484840111156138c4576138c36137e4565b5b6138cf8482856133db565b509392505050565b600082601f8301126138ec576138eb6137df565b5b81516138fc848260208601613895565b91505092915050565b60006020828403121561391b5761391a6134af565b5b600082015167ffffffffffffffff811115613939576139386134b4565b5b613945848285016138d7565b91505092915050565b7f4e487b7100000000000000000000000000000000000000000000000000000000600052603260045260246000fd5b7f49742773206e6f7420796f7572207475726e2100000000000000000000000000600082015250565b60006139b36013836132e9565b91506139be8261397d565b602082019050919050565b600060208201905081810360008301526139e2816139a6565b9050919050565b7f4e487b7100000000000000000000000000000000000000000000000000000000600052601160045260246000fd5b6000613a23826134f2565b9150613a2e836134f2565b9250828202613a3c816134f2565b9150808214613a4e57613a4d6139e9565b5b5092915050565b7f596f752063616e206f6e6c79206d6f766520796f7572206f776e20706965636560008201527f7300000000000000000000000000000000000000000000000000000000000000602082015250565b6000613ab16021836132e9565b9150613abc82613a55565b604082019050919050565b60006020820190508181036000830152613ae081613aa4565b9050919050565b7f47616d6520686173206e6f742073746172746564206f722068617320656e646560008201527f6400000000000000000000000000000000000000000000000000000000000000602082015250565b6000613b436021836132e9565b9150613b4e82613ae7565b604082019050919050565b60006020820190508181036000830152613b7281613b36565b9050919050565b7f496e76616c6964206d6f76650000000000000000000000000000000000000000600082015250565b6000613baf600c836132e9565b9150613bba82613b79565b602082019050919050565b60006020820190508181036000830152613bde81613ba2565b9050919050565b6000613bf0826134f2565b9150613bfb836134f2565b92508282039050607f81137fffffffffffffffffffffffffffffffffffffffffffffffffffffffffffffff8082121715613c3857613c376139e9565b5b92915050565b7f5768697465206b696e672068617320616c7265616479206d6f7665642e20636160008201527f6e6e6f7420636173746c65000000000000000000000000000000000000000000602082015250565b6000613c9a602b836132e9565b9150613ca582613c3e565b604082019050919050565b60006020820190508181036000830152613cc981613c8d565b9050919050565b7f426c61636b206b696e672068617320616c7265616479206d6f7665642e20636160008201527f6e6e6f7420636173746c65000000000000000000000000000000000000000000602082015250565b6000613d2c602b836132e9565b9150613d3782613cd0565b604082019050919050565b60006020820190508181036000830152613d5b81613d1f565b9050919050565b600081905092915050565b6000613d78826133d0565b613d828185613d62565b9350613d928185602086016133db565b80840191505092915050565b7f2000000000000000000000000000000000000000000000000000000000000000600082015250565b6000613dd4600183613d62565b9150613ddf82613d9e565b600182019050919050565b6000613df68285613d6d565b9150613e028284613d6d565b9150613e0d82613dc7565b91508190509392505050565b6000613e24826134b9565b915060ff8203613e3757613e366139e9565b5b600182019050919050565b7f0a00000000000000000000000000000000000000000000000000000000000000600082015250565b6000613e78600183613d62565b9150613e8382613e42565b600182019050919050565b6000613e9a8284613d6d565b9150613ea582613e6b565b915081905092915050565b7f596f752061726520616c72656164792074686520776869746520706c61796572600082015250565b6000613ee66020836132e9565b9150613ef182613eb0565b602082019050919050565b60006020820190508181036000830152613f1581613ed9565b9050919050565b7f506c656173652073656e64207468652073616d6520616d6f756e74206173207460008201527f686520776869746520706c617965720000000000000000000000000000000000602082015250565b6000613f78602f836132e9565b9150613f8382613f1c565b604082019050919050565b60006020820190508181036000830152613fa781613f6b565b9050919050565b7f426c61636b20706c6179657220736c6f7420697320616c72656164792074616b60008201527f656e000000000000000000000000000000000000000000000000000000000000602082015250565b600061400a6022836132e9565b915061401582613fae565b604082019050919050565b6000602082019050818103600083015261403981613ffd565b9050919050565b600061404b826134f2565b91507fffffffffffffffffffffffffffffffffffffffffffffffffffffffffffffff80820361407d5761407c6139e9565b5b816000039050919050565b6000614093826134b9565b915061409e836134b9565b9250828201905060ff8111156140b7576140b66139e9565b5b92915050565b60006140c8826134b9565b91506140d3836134b9565b9250828203905060ff8111156140ec576140eb6139e9565b5b92915050565b60006140fd826134f2565b9150614108836134f2565b925082820190507fffffffffffffffffffffffffffffffffffffffffffffffffffffffffffffff808112607f82131715614145576141446139e9565b5b92915050565b6000614156826134f2565b9150607f8203614169576141686139e9565b5b600182019050919050565b7f4e487b7100000000000000000000000000000000000000000000000000000000600052601260045260246000fd5b60006141ae826134f2565b91506141b9836134f2565b9250826141c9576141c8614174565b5b600160000383147fffffffffffffffffffffffffffffffffffffffffffffffffffffffffffffff8083141615614202576142016139e9565b5b828205905092915050565b600061421882613471565b915061422383613471565b925082820190508082111561423b5761423a6139e9565b5b9291505056fea26469706673582212200dc8f1c879b8bc209d091c2b66fd8b64f2bc31ec8d1b8882419b346c38ad303b64736f6c63430008130033",
  "immutableReferences": {
    "2039": [
      {
        "length": 32,
        "start": 2013
      },
      {
        "length": 32,
        "start": 2776
      },
      {
        "length": 32,
        "start": 3055
      },
      {
        "length": 32,
        "start": 5662
      },
      {
        "length": 32,
        "start": 7711
      },
      {
        "length": 32,
        "start": 10820
      },
      {
        "length": 32,
        "start": 11067
      },
      {
        "length": 32,
        "start": 11702
      },
      {
        "length": 32,
        "start": 12458
      },
      {
        "length": 32,
        "start": 12667
      },
      {
        "length": 32,
        "start": 12876
      }
    ],
    "2043": [
      {
        "length": 32,
        "start": 5733
      },
      {
        "length": 32,
        "start": 7817
      },
      {
        "length": 32,
        "start": 8453
      },
      {
        "length": 32,
        "start": 9236
      },
      {
        "length": 32,
        "start": 9467
      },
      {
        "length": 32,
        "start": 9566
      }
    ],
    "2047": [
      {
        "length": 32,
        "start": 5809
      },
      {
        "length": 32,
        "start": 7923
      },
      {
        "length": 32,
        "start": 8568
      }
    ],
    "2051": [
      {
        "length": 32,
        "start": 5885
      },
      {
        "length": 32,
        "start": 8029
      },
      {
        "length": 32,
        "start": 8683
      }
    ],
    "2055": [
      {
        "length": 32,
        "start": 4982
      },
      {
        "length": 32,
        "start": 5147
      },
      {
        "length": 32,
        "start": 5387
      },
      {
        "length": 32,
        "start": 5552
      },
      {
        "length": 32,
        "start": 5961
      },
      {
        "length": 32,
        "start": 8135
      },
      {
        "length": 32,
        "start": 8798
      }
    ],
    "2059": [
      {
        "length": 32,
        "start": 6396
      },
      {
        "length": 32,
        "start": 8241
      },
      {
        "length": 32,
        "start": 8913
      }
    ],
    "2063": [
      {
        "length": 32,
        "start": 2204
      },
      {
        "length": 32,
        "start": 4671
      },
      {
        "length": 32,
        "start": 6472
      },
      {
        "length": 32,
        "start": 6650
      },
      {
        "length": 32,
        "start": 8347
      },
      {
        "length": 32,
        "start": 9028
      },
      {
        "length": 32,
        "start": 10411
      }
    ]
  },
  "source": "// SPDX-License-Identifier: MIT\npragma solidity ^0.8.19;\nimport \"@openzeppelin/contracts/utils/Strings.sol\";\nimport \"./ChessMediaLibrary.sol\";\ncontract ChessCore {\n    uint8 constant BOARD_SIZE = 8;\n    using ChessMediaLibrary for int8[BOARD_SIZE][BOARD_SIZE];\n    int8[BOARD_SIZE][BOARD_SIZE] public board;\n    int8 immutable EMPTY = ChessMediaLibrary.EMPTY;\n    int8 immutable PAWN = ChessMediaLibrary.PAWN;\n    int8 immutable KNIGHT = ChessMediaLibrary.KNIGHT;\n    int8 immutable BISHOP = ChessMediaLibrary.BISHOP;\n    int8 immutable ROOK = ChessMediaLibrary.ROOK;\n    int8 immutable QUEEN = ChessMediaLibrary.QUEEN;\n    int8 immutable KING = ChessMediaLibrary.KING;\n    \n    uint8 constant ROW_BLACK_PIECES = 0;\n    uint8 constant ROW_BLACK_PAWNS = 1;\n    uint8 constant ROW_BLACK_PAWNS_LONG_OPENING = 3;\n    uint8 constant ROW_WHITE_PAWNS_LONG_OPENING = 4;\n    uint8 constant ROW_WHITE_PAWNS = 6;\n    uint8 constant ROW_WHITE_PIECES = 7;\n\n    uint8 constant COL_SHORTW_LONGB_ROOK = 0;\n    uint8 constant COL_UNNAMED_KNIGHT = 1;\n    uint8 constant COL_BISHOP = 2;\n    uint8 constant COL_QUEEN = 3;\n    uint8 constant COL_KING = 4;\n    uint8 constant COL_UNNAMED_BISHOP = 5;\n    uint8 constant COL_KNIGHT = 6;\n    uint8 constant COL_LONGW_SHORTB_ROOK = 7;\n    \n    int8 constant PLAYER_WHITE = 1;\n    int8 constant PLAYER_BLACK = -1;\n    \n\n    bool private whiteKingMoved;\n    bool private whiteShortRookMoved;\n    bool private whiteLongRookMoved;\n\n    bool private blackKingMoved;\n    bool private blackLongRookMoved;\n    bool private blackShortRookMoved;\n    uint public betting;\n\n    event Debug(int8 player, uint8 startX, uint8 startY, uint8 endX, uint8 endY, string comment);\n    // Define the GameState enum\n    enum GameState { NotStarted, InProgress, Draw, WhiteWins, BlackWins }\n    // Add a gameState variable to the contract\n    GameState private gameState = GameState.NotStarted;\n\n    address whitePlayer;\n    address blackPlayer;\n    address currentPlayer;\n\n    constructor(address _whitePlayer, uint _value) payable {\n        // Chiamare initializeBoard nel costruttore\n        initializeBoard();\n        whitePlayer = _whitePlayer;\n        currentPlayer = _whitePlayer;\n        betting = _value;\n    }\n    /*\n    //for debugging\n    constructor(){\n        initializeBoard();\n        whitePlayer = 0x5B38Da6a701c568545dCfcB03FcB875f56beddC4;\n        currentPlayer = 0x5B38Da6a701c568545dCfcB03FcB875f56beddC4;\n        blackPlayer = 0xAb8483F64d9C6d1EcF9b849Ae677dD3315835cb2;\n        betting = address(this).balance;\n    }\n    */\n   \n   receive() external payable {\n        require(gameState == GameState.NotStarted, \"Game has already started\");\n    }\n\n    function switchTurn() public  {\n        currentPlayer = (currentPlayer == whitePlayer) ? blackPlayer : whitePlayer;\n    }\n\n   function joinGameAsBlack() public payable {\n        require(msg.sender != whitePlayer, \"You are already the white player\");\n        require(msg.value == betting, \"Please send the same amount as the white player\");\n        require(blackPlayer == address(0), \"Black player slot is already taken\");\n        blackPlayer = msg.sender;\n    }\n\n    function initializeBoard() private {\n        // Set up white pieces\n        board[ROW_BLACK_PIECES][COL_SHORTW_LONGB_ROOK] = -ROOK;\n        board[ROW_BLACK_PIECES][COL_UNNAMED_KNIGHT] = -KNIGHT;\n        board[ROW_BLACK_PIECES][COL_BISHOP] = -BISHOP;\n        board[ROW_BLACK_PIECES][COL_QUEEN] = -QUEEN;\n        board[ROW_BLACK_PIECES][COL_KING] = -KING;\n        board[ROW_BLACK_PIECES][COL_UNNAMED_BISHOP] = -BISHOP;\n        board[ROW_BLACK_PIECES][COL_KNIGHT] = -KNIGHT;\n        board[ROW_BLACK_PIECES][COL_LONGW_SHORTB_ROOK] = -ROOK;\n        for (uint8 col = 0; col < BOARD_SIZE; col++) {\n            board[ROW_BLACK_PAWNS][col] = -PAWN;\n        }\n\n        // Set up black pieces\n        board[ROW_WHITE_PIECES][COL_SHORTW_LONGB_ROOK] = ROOK;\n        board[ROW_WHITE_PIECES][COL_UNNAMED_KNIGHT] = KNIGHT;\n        board[ROW_WHITE_PIECES][COL_BISHOP] = BISHOP;\n        board[ROW_WHITE_PIECES][COL_QUEEN] = QUEEN;\n        board[ROW_WHITE_PIECES][COL_KING] = KING;\n        board[ROW_WHITE_PIECES][COL_UNNAMED_BISHOP] = BISHOP;\n        board[ROW_WHITE_PIECES][COL_KNIGHT] = KNIGHT;\n        board[ROW_WHITE_PIECES][COL_LONGW_SHORTB_ROOK] = ROOK;\n        for (uint8 col = 0; col < BOARD_SIZE; col++) {\n            board[ROW_WHITE_PAWNS][col] = PAWN;\n        }\n\n        whiteKingMoved = false;\n        whiteShortRookMoved = false;\n        whiteLongRookMoved = false;\n        blackKingMoved = false;\n        blackLongRookMoved = false;\n        blackShortRookMoved = false;\n        \n    }\n\n    function abs(int8 x) private pure returns (uint8) {\n        return x >= 0 ? uint8(x) : uint8(-x);\n    }\n\n    function isPawnMoveValid(uint8 startX, uint8 startY, uint8 endX, uint8 endY, int8 piece, int8 target) private view returns (bool) {\n        // Check if pawn is moving forward\n        if (startY == endY && target == 0) {\n            if (piece == -PAWN) { // black pawn\n                if (endX == startX + 1 || (startX == ROW_BLACK_PAWNS && endX == ROW_BLACK_PAWNS_LONG_OPENING)) {\n                    return true;\n                }\n            } \n            else { // white pawn\n                if (endX == startX - 1 || (startX == ROW_WHITE_PAWNS && endX == COL_KING)) {\n                    return true;\n                }\n            }\n        }\n\n        // Check if pawn is capturing diagonally\n        if (abs(int8(endY) - int8(startY)) == 1) {\n            if (piece == PAWN && endX == startX + 1 && target < 0) { // White pawn captures black piece\n                return true;\n            } \n            else\n            if (piece == -PAWN && endX == startX - 1 && target > 0) { // Black pawn captures white piece\n                return true;\n            }\n        }\n\n\n        //TODO: to add the en-passant move\n        \n        return false;\n    }\n\n    function isKnightMoveValid(uint8 startX, uint8 startY, uint8 endX, uint8 endY, int8 piece, int8 target) private pure returns (bool) {\n        // Check if knight moves in L-shape\n        uint8 deltaX = abs(int8(endX) - int8(startX));\n        uint8 deltaY = abs(int8(endY) - int8(startY));\n        if ((deltaX == 1 && deltaY == 2) || (deltaX == 2 && deltaY == 1)) {\n            if (target * piece <= 0) { // Check if destination square is empty or occupied by opponent piece\n                return true;\n            }\n        }\n        return false;\n    }\n\n\n    function isBishopMoveValid(uint8 startX, uint8 startY, uint8 endX, uint8 endY, int8 piece, int8 target) private view returns (bool) {\n        // Check if bishop moves diagonally\n        uint8 deltaX = abs(int8(endX) - int8(startX));\n        uint8 deltaY = abs(int8(endY) - int8(startY));\n        if (deltaX == deltaY) {\n            if (isPathClear(startX, startY, endX, endY)) {\n                if (target * piece <= 0) { // Check if destination square is empty or occupied by opponent piece\n                    return true;\n                }\n            }\n        }\n\n        return false;\n    }\n\n\n    function isRookMoveValid(uint8 startX, uint8 startY, uint8 endX, uint8 endY, int8 piece, int8 target) private view returns (bool) {\n        // Check if rook moves horizontally or vertically\n        if (startX == endX || startY == endY) {\n            if (isPathClear(startX, startY, endX, endY)) {\n                if (target * piece <= 0) { // Check if destination square is empty or occupied by opponent piece\n                    return true;\n                }\n            }\n        }\n\n        return false;\n    }\n\n\n    function isQueenMoveValid(uint8 startX, uint8 startY, uint8 endX, uint8 endY, int8 piece, int8 target) private view  returns (bool) {\n        // Check if queen moves diagonally, horizontally, or vertically\n        uint8 deltaX = abs(int8(endX) - int8(startX));\n        uint8 deltaY = abs(int8(endY) - int8(startY));\n        if (deltaX == deltaY || startX == endX || startY == endY) {\n            if (isPathClear(startX, startY, endX, endY)) {\n                if (target * piece <= 0) { // Check if destination square is empty or occupied by opponent piece\n                    return true;\n                }\n            }\n        }\n\n        return false;\n    }\n\n\n    function isKingMoveValid(uint8 startX, uint8 startY, uint8 endX, uint8 endY, int8 piece, int8 target) private pure returns (bool) {\n        // Check if king moves one square in any direction\n        uint8 deltaX = abs(int8(endX) - int8(startX));\n        uint8 deltaY = abs(int8(endY) - int8(startY));\n        if (deltaX <= 1 && deltaY <= 1) {\n            if (target * piece <= 0) { // Check if destination square is empty or occupied by opponent piece\n                return true;\n            }\n        }\n\n        return false;\n    }\n\n\n    function isKingInCheck(int8 player) private returns (bool) {\n        // Find the position of the player's king\n        uint8 kingX;\n        uint8 kingY;\n        for (uint8 rowPiece = 0; rowPiece < BOARD_SIZE; rowPiece++) {\n            for (uint8 colPiece = 0; colPiece < BOARD_SIZE; colPiece++) {\n                if (board[rowPiece][colPiece] == player * KING) {\n                    kingX = rowPiece;\n                    kingY = colPiece;\n                }\n            }\n        }\n\n        // Check if any of the opponent's pieces can attack the king\n        for (uint8 rowPiece = 0; rowPiece < BOARD_SIZE; rowPiece++) {\n            for (uint8 colPiece = 0; colPiece < BOARD_SIZE; colPiece++) {\n                if (player * board[rowPiece][colPiece] < 0) { // Check if piece belongs to opponent\n                    if (isValidMove(rowPiece, colPiece, kingX, kingY)) {\n                        return true;\n                    }\n                }\n            }\n        }\n\n        return false;\n    }\n\n    function isSquareUnderAttack(int8 player, uint8 x, uint8 y) internal returns (bool) {\n        for (uint8 rowPiece = 0; rowPiece < BOARD_SIZE; rowPiece++) {\n            for (uint8 colPiece = 0; colPiece < BOARD_SIZE; colPiece++) {\n                //check if the opponent pieces can do a valid move to that square\n                if (currentPlayer == whitePlayer && board[rowPiece][colPiece] * player < 0 && isValidMove(rowPiece, colPiece, x, y)\n                || currentPlayer == blackPlayer && board[rowPiece][colPiece] * player > 0 && isValidMove(rowPiece,colPiece, x, y)) {\n                    return true;\n                }\n            }\n        }\n        return false;\n    }\n\n    function minY(uint8 a, uint8 b) internal pure returns (uint8) {\n        return a < b ? a : b;\n    }\n\n    function maxY(uint8 a, uint8 b) internal pure returns (uint8) {\n        return a > b ? a : b;\n    }\n\n    function isCastlingValid(uint8 startX, uint8 startY, uint8 endX, uint8 endY, int8 player) internal returns (bool) {\n        // Verifica se il re attraversa caselle minacciate\n        //TODO fai double check per capire se questo if  superfluo, visto che viene controllato dentro il for\n        if (isSquareUnderAttack(player, startX, startY) || isSquareUnderAttack(player, endX, endY)) {\n            return false;\n        }\n\n        // Verifica se le caselle attraversate sono libere\n        if (startY == COL_KING && (endY == COL_BISHOP || endY == COL_KNIGHT)) {\n            uint8 rookY = (endY == COL_KNIGHT) ? COL_SHORTW_LONGB_ROOK : COL_LONGW_SHORTB_ROOK;\n            for (uint8 col = minY(startY, endY); col <= maxY(startY, endY); col++) {\n                if (board[startX][col] != EMPTY || isSquareUnderAttack(player, startX, col) || isSquareUnderAttack(player, rookY, col)) {\n                    return false;\n                }\n            }\n        }\n\n        return true;\n    }\n\n    function isValidMove(uint8 startX, uint8 startY, uint8 endX, uint8 endY) private returns (bool) {\n        int8 piece = board[startX][startY];\n        int8 target = board[endX][endY];\n\n        // Check if the move is a king move and update kingMoved accordingly\n        if (abs(int8(endY) - int8(startY)) == COL_BISHOP && abs(piece) == uint8(KING)) {\n            if (currentPlayer == whitePlayer) {\n                if (startX == ROW_WHITE_PIECES && startY == COL_KING && !whiteKingMoved) {\n                    // Check if it's a valid long castling\n                    if ((uint8(ROOK) == abs(board[startX][COL_LONGW_SHORTB_ROOK]) && endY == COL_QUEEN && !whiteLongRookMoved)\n                    // Check if it's a valid short castling\n                    || (uint8(ROOK) == abs(board[startX][COL_SHORTW_LONGB_ROOK]) && endY == COL_BISHOP && !whiteShortRookMoved)){\n                        return true;\n                    }\n                }\n            } \n            else {\n                if (startX == ROW_BLACK_PIECES && startY == COL_KING && !blackKingMoved) {\n                    // Check if it's a valid short castling\n                    if ((uint8(ROOK) == abs(board[startX][COL_SHORTW_LONGB_ROOK]) && endY == COL_KNIGHT && !blackShortRookMoved)\n                    // Check if it's a valid long castling) {\n                    || (uint8(ROOK) == abs(board[startX][COL_LONGW_SHORTB_ROOK]) && endY == COL_BISHOP && !blackLongRookMoved)){\n                        return true;\n                    }\n                }\n            }\n            //it should never arrive here\n            return false;\n        }\n\n        // Check if target square is empty or contains an opponent's piece\n        if (target == EMPTY || piece * target < 0) {\n            if (abs(piece) == uint8(PAWN)) {\n                return isPawnMoveValid(startX, startY, endX, endY, piece, target);\n            } \n            else \n            if (abs(piece) == uint8(KNIGHT)) {\n                return isKnightMoveValid(startX, startY, endX, endY, piece, target);\n            } \n            else \n            if (abs(piece) == uint8(BISHOP)) {\n                return isBishopMoveValid(startX, startY, endX, endY, piece, target);\n            }\n            else \n            if (abs(piece) == uint8(ROOK)) {\n\n                // Check if the move is a rook move and update rookMoved\n                if (startX == ROW_WHITE_PIECES && startY == COL_SHORTW_LONGB_ROOK && !whiteShortRookMoved) {\n                    whiteShortRookMoved = true;\n                } \n                else \n                if (startX == ROW_WHITE_PIECES && startY == COL_LONGW_SHORTB_ROOK && !whiteLongRookMoved) {\n                    whiteLongRookMoved = true;\n                }\n                else \n                if (startX == ROW_BLACK_PIECES && startY == COL_LONGW_SHORTB_ROOK && !blackLongRookMoved) {\n                    blackLongRookMoved = true;\n                }\n                else \n                if (startX == ROW_BLACK_PIECES && startY == COL_SHORTW_LONGB_ROOK && !blackShortRookMoved) {\n                    blackShortRookMoved = true;\n                }\n                \n                return isRookMoveValid(startX, startY, endX, endY, piece, target);\n            } \n            else \n            if (abs(piece) == uint8(QUEEN)) {\n                return isQueenMoveValid(startX, startY, endX, endY, piece, target);\n            } \n            else \n            if (abs(piece) == uint8(KING)) {\n                return isKingMoveValid(startX, startY, endX, endY, piece, target);\n            }\n            \n            \n        }\n        else{\n        \n        }\n\n        return false;\n    }\n\n    function isPathClear(uint8 startX, uint8 startY, uint8 endX, uint8 endY) private view returns (bool) {\n        uint8 deltaX = endX > startX ? endX - startX : startX - endX;\n        uint8 deltaY = endY > startY ? endY - startY : startY - endY;\n        int8 stepX = (endX > startX) ? int8(1) : int8(-1);\n        int8 stepY = endY > startY ? int8(1) : int8(-1);\n\n        if (deltaX == deltaY) { \n            // Check if bishop or queen\n            uint8 i = 1;\n            while (i < deltaX) {\n                if (EMPTY != board[uint(int(int8(startX) + int8(i) * stepX))][uint(int(int8(startY) + int8(i) * stepY))]) {\n                    return false;\n                }\n                i++;\n            }\n        }\n        else \n        if (startX == endX) { \n            // Check if rook or queen moves vertically\n            uint8 i = 1;\n            while (i < deltaY) {\n                if (EMPTY != board[uint256(startX)][uint256(startY) + uint256(int256(int8(i) * int8(stepY)))]) {\n                    return false;\n                }\n                i++;\n            }\n        }\n        else \n        if (startY == endY) { \n            // Check if rook or queen moves horizontally\n            uint8 i = 1;\n            while (i < deltaX) {\n                if (EMPTY != board[uint256(startX) + uint256(int256(int8(i) * stepX))][uint256(startY)]) {\n                    return false;\n                }\n                i++;\n            }\n        }\n        else { \n            // Invalid move (not diagonal, horizontal, or vertical)\n            return false;\n        }\n\n        return true;\n    }\n\n    modifier onlyCurrentPlayer() {\n        require(msg.sender == currentPlayer, \"It's not your turn!\");\n        _;\n    }\n    \n    modifier onlyOwnPieces(uint8 startX, uint8 startY){\n         //matching the current color player with the color number to check if it is moving it's own pieces\n        int8 playerColor = 1;\n        if (currentPlayer == blackPlayer){\n            playerColor *= PLAYER_BLACK;\n        }\n        require(board[startX][startY] * playerColor > 0, \"You can only move your own pieces\");\n        _;\n    }\n\n    function makeMove(uint8 startX, uint8 startY, uint8 endX, uint8 endY) public onlyCurrentPlayer onlyOwnPieces(startX,startY){\n        // Check if the game is in progress\n        require(gameState == GameState.InProgress || gameState == GameState.NotStarted, \"Game has not started or has ended\");\n\n        // Check if the move is valid\n        require(isValidMove(startX, startY, endX, endY), \"Invalid move\");\n\n        // Make the move\n        board[endX][endY] = board[startX][startY];\n        board[startX][startY] = EMPTY;\n\n        // Check if the move is a king move and update kingMoved accordingly\n        if (uint8(KING) == abs(int8(board[startX][startY])) && abs(int8(endY) - int8(startY)) == 2 ) {\n            \n            if (currentPlayer == whitePlayer) {\n                if (whiteKingMoved){\n                    revert(\"White king has already moved. cannot castle\");\n                }\n                else{\n                    whiteKingMoved = true;\n                }\n            } \n            else {\n                if (blackKingMoved){\n                    revert(\"Black king has already moved. cannot castle\");\n                }\n                else{\n                    blackKingMoved = true;\n                }\n            }\n\n            // Move the rook during castling\n            if (endY == 6) {\n                // Right castling\n                board[startX][5] = board[startX][COL_LONGW_SHORTB_ROOK];\n                board[startX][COL_LONGW_SHORTB_ROOK] = EMPTY;\n            } \n            else \n            if (endY == 2) {\n                // Left castling\n                board[startX][COL_QUEEN] = board[startX][COL_SHORTW_LONGB_ROOK];\n                board[startX][COL_SHORTW_LONGB_ROOK] = EMPTY;\n            }\n        }\n\n       // Check if the move resulted in a check or checkmate\n        if (isKingInCheck(PLAYER_BLACK)) {\n            gameState = isCheckmate(PLAYER_BLACK, endX, endY) ? GameState.WhiteWins : GameState.InProgress;\n        } \n        else \n        if (isKingInCheck(PLAYER_WHITE)) {\n            gameState = isCheckmate(PLAYER_WHITE, endX, endY) ? GameState.BlackWins : GameState.InProgress;\n        }\n        else {\n            gameState = isStalemate() ? GameState.Draw : GameState.InProgress;\n        }\n\n        switchTurn();\n    }\n\n    // Check if the given player's king can move out of check\n    function canKingMove(int8 player) internal returns (bool) {\n        // find the king position of the current player\n        uint8 kingX;\n        uint8 kingY;\n\n        for (uint8 colPiece = 0; colPiece < BOARD_SIZE; colPiece++) {\n            for (uint8 rowPiece = 0; rowPiece < BOARD_SIZE; rowPiece++) {\n                if (board[colPiece][rowPiece] == player * KING) {\n                    kingX = colPiece;\n                    kingY = rowPiece;\n                    break;\n                }\n            }\n        }\n\n        // check if the king can move on a free square\n        for (int8 i = -1; i <= 1; i++) {\n            for (int8 j = -1; j <= 1; j++) {\n                int8 x = int8(kingX) + i;\n                int8 y = int8(kingY) + j;\n                if (x >= 0\n                    && x < int8(BOARD_SIZE)\n                    && y >= 0\n                    && y < int8(BOARD_SIZE)\n                    && (i != 0 \n                        || j != 0\n                    )\n                ){\n                    uint8 newX = uint8(x);\n                    uint8 newY = uint8(j);\n\n                    if (board[newX][newY] == EMPTY \n                        && isValidMove(kingX, kingY, newX, newY)) {\n                        return true;\n                    }\n                }\n            }\n        }\n\n        // Nessuna mossa valida per il re\n        return false;\n\n    }\n\n    // Check if the game is in stalemate\n    function isStalemate() internal returns (bool) {\n        int8 player = (currentPlayer == whitePlayer) ? int8(PLAYER_WHITE) : int8(PLAYER_BLACK);\n\n        //TODO I think this can be removed, since it is override by the for loops at the bottom\n       // if (canKingMove(player)) {\n       //     return false;\n       // }\n\n        // Check if there are other valid moves for current player pieces\n        for (uint8 rowPiece = 0; rowPiece < BOARD_SIZE; rowPiece++) {\n            for (uint8 colPiece = 0; colPiece < BOARD_SIZE; colPiece++) {\n                // If we find a piece belonging to the current player, then check if it can perform a move\n                if (board[rowPiece][colPiece] * player > 0 ) { \n                    for (uint8 row_target = 0; row_target < BOARD_SIZE; row_target++) {\n                        for (uint8 col_target = 0; col_target < BOARD_SIZE; col_target++) {\n                            if (board[row_target][col_target] != board[rowPiece][colPiece] \n                                && isValidMove(rowPiece, colPiece, row_target, col_target)) {\n                                return false;\n                            }\n                        }\n                    }\n                }\n            }\n    }\n\n    // No any valid move for the current player\n    return true;\n    }\n\n    // Check if the given player's king is in checkmate\n    function isCheckmate(int8 player, uint8 attackerI, uint8 attackerJ) internal returns (bool) {\n        // Check if the king can move out of check\n        if (canKingMove(player)) {\n            return false;\n        }\n\n        // Check if the attacking piece can be captured\n        if (canCaptureAttacker(player, attackerI, attackerJ)) {\n            return false;\n        }\n\n        // Check if any other piece can block the attack\n        if (canBlockAttack(attackerI, attackerJ)) {\n            return false;\n        }\n\n        // The king is in checkmate\n        return true;\n    }\n\n\n    // Check if the player pieces can capture the attacking piece\n    function canCaptureAttacker(int8 player, uint8 rowAttacker, uint8 colAttacker) internal returns (bool) {\n        // Iterate over all pieces on the board\n        for (uint8 rowPiece = 0; rowPiece < BOARD_SIZE; rowPiece++) {\n            for (uint8 colPiece = 0; colPiece < BOARD_SIZE; colPiece++) {\n                // Skip empty squares and pieces belonging to the attacker\n                if (board[rowPiece][colPiece] == EMPTY || board[rowPiece][colPiece] * player < 0 || (rowPiece == rowAttacker && colPiece == colAttacker)) {\n                    continue;\n                }\n\n                // Check if the piece can capture the attacking piece\n                if (isValidMove(rowPiece, colPiece, rowAttacker, colAttacker)) {\n                    // A piece can capture the attacking piece\n                    return true;\n                }\n            }\n        }\n\n        // No piece can capture the attacking piece\n        return false;\n    }\n\n    function canBlockAttack(uint8 rowAttacker, uint8 colAttacker) internal returns (bool) {\n        // Iterate over all pieces on the board\n        for (uint8 rowPiece = 0; rowPiece < BOARD_SIZE; rowPiece++) {\n            for (uint8 colPiece = 0; colPiece < BOARD_SIZE; colPiece++) {\n                // Determine the direction of the attack\n                int8 deltaRow = int8(int(uint256(rowAttacker - rowPiece)));\n                int8 dj = int8(int(uint256(colAttacker - colPiece)));\n                // Determine the step size for moving along the attack direction\n                int8 stepi = 0;\n                int8 stepj = 0;\n                if (deltaRow != 0) {\n                    stepi = deltaRow / int8(int(uint(abs(deltaRow))));\n                }\n                if (dj != 0) {\n                    stepj = dj / int8(int(uint(abs(dj))));\n                }\n\n                // Iterate over all squares along the attack direction\n                uint8 currentI = uint8(int8(rowPiece) + stepi);\n                uint8 colCurrent = uint8(int8(colPiece) + stepj);\n                if (currentI < BOARD_SIZE && colCurrent < BOARD_SIZE) {\n                    while (currentI != rowAttacker || colCurrent != colAttacker) {\n                        if (currentI >= 0 && currentI < BOARD_SIZE && colCurrent >= 0 && colCurrent < BOARD_SIZE) {\n                            // Check if the square can be blocked by a friendly piece\n                            if (board[currentI][colCurrent] != EMPTY && board[currentI][colCurrent] * board[rowPiece][colPiece] > 0) {\n                                // Check if the blocking piece can move to the blocking square\n                                if (isValidMove(currentI, colCurrent, rowPiece, colPiece)) {\n                                    // A piece can block the attack\n                                    return true;\n                                }\n                            }\n                        }\n\n                        // Move to the next square along the attack direction\n                        currentI = uint8(int8(currentI) + stepi);\n                        colCurrent = uint8(int8(colCurrent) + stepj);\n                    }\n                }\n            }\n        }\n\n        // No any piece can block the attack\n        return false;\n    }\n\n\n    function printBoard() public view returns (string memory) {\n    string memory boardString = \"\";\n\n    for (uint8 rowPiece = 0; rowPiece < BOARD_SIZE; rowPiece++) {\n        for (uint8 colPiece = 0; colPiece < BOARD_SIZE; colPiece++) {\n            // Aggiungi il valore del pezzo alla stringa\n            boardString = string(abi.encodePacked(boardString, pieceToString(board[rowPiece][colPiece]), \" \"));\n        }\n        // Aggiungi una nuova riga alla fine di ogni riga della scacchiera\n        boardString = string(abi.encodePacked(boardString, \"\\n\"));\n    }\n\n    return boardString;\n    }\n\n    function pieceToString(int8 piece) internal view returns (string memory) {\n        if (piece == EMPTY) {\n            return \"0\";\n        } \n        else \n        if (piece == PAWN) {\n            return \"1\";\n        } \n        else \n        if (piece == KNIGHT) {\n            return \"2\";\n        } \n        else \n        if (piece == BISHOP) {\n            return \"3\";\n        } \n        else \n        if (piece == ROOK) {\n            return \"4\";\n        } \n        else \n        if (piece == QUEEN) {\n            return \"5\";\n        } \n        else \n        if (piece == KING) {\n            return \"6\";\n        } \n        else \n        if (piece == -PAWN) {\n            return \"-1\";\n        } \n        else \n        if (piece == -KNIGHT) {\n            return \"-2\";\n        } \n        else \n        if (piece == -BISHOP) {\n            return \"-3\";\n        } \n        else \n        if (piece == -ROOK) {\n            return \"-4\";\n        } \n        else \n        if (piece == -QUEEN) {\n            return \"-5\";\n        } \n        else \n        if (piece == -KING) {\n            return \"-6\";\n        } \n        else {\n            return \"XXXX\";\n        }\n    }\n\n    // Add a function to get the curr   ent players\n    function getCurrentPlayers() public view returns (address, address) {\n        return (whitePlayer, blackPlayer);\n    }\n\n    function debugCreative(uint8 x, uint8 y, int8 piece) public returns (string memory) {\n        board[x][y] = piece;\n        return printBoard();\n    }\n\n    function printChessBoardLayoutSVG() external view returns (string memory) {\n        return board.getCurrentBoard();\n    }\n\n    function test() external pure {\n        while(true){}\n    }\n\n\n}\n\n\n\n\n\n",
  "sourcePath": "/Users/jacopo/Documents/solidity/test2/contracts/Chess/ChessCore.sol",
  "compiler": {
    "name": "solc",
    "version": "0.8.19+commit.7dd6d404.Emscripten.clang"
  },
  "schemaVersion": "3.4.16",
  "updatedAt": "2023-12-24T02:58:44.463Z",
  "networkType": "ethereum",
  "devdoc": {
    "kind": "dev",
    "methods": {},
    "version": 1
  },
  "userdoc": {
    "kind": "user",
    "methods": {},
    "version": 1
  }
}