{
  "contractName": "ChessMediaLibrary",
  "abi": [
    {
      "inputs": [],
      "name": "BISHOP",
      "outputs": [
        {
          "internalType": "int8",
          "name": "",
          "type": "int8"
        }
      ],
      "stateMutability": "view",
      "type": "function",
      "constant": true
    },
    {
      "inputs": [],
      "name": "EMPTY",
      "outputs": [
        {
          "internalType": "int8",
          "name": "",
          "type": "int8"
        }
      ],
      "stateMutability": "view",
      "type": "function",
      "constant": true
    },
    {
      "inputs": [],
      "name": "KING",
      "outputs": [
        {
          "internalType": "int8",
          "name": "",
          "type": "int8"
        }
      ],
      "stateMutability": "view",
      "type": "function",
      "constant": true
    },
    {
      "inputs": [],
      "name": "KNIGHT",
      "outputs": [
        {
          "internalType": "int8",
          "name": "",
          "type": "int8"
        }
      ],
      "stateMutability": "view",
      "type": "function",
      "constant": true
    },
    {
      "inputs": [],
      "name": "PAWN",
      "outputs": [
        {
          "internalType": "int8",
          "name": "",
          "type": "int8"
        }
      ],
      "stateMutability": "view",
      "type": "function",
      "constant": true
    },
    {
      "inputs": [],
      "name": "QUEEN",
      "outputs": [
        {
          "internalType": "int8",
          "name": "",
          "type": "int8"
        }
      ],
      "stateMutability": "view",
      "type": "function",
      "constant": true
    },
    {
      "inputs": [],
      "name": "ROOK",
      "outputs": [
        {
          "internalType": "int8",
          "name": "",
          "type": "int8"
        }
      ],
      "stateMutability": "view",
      "type": "function",
      "constant": true
    },
    {
      "inputs": [
        {
          "internalType": "int8[8][8]",
          "name": "board",
          "type": "int8[8][8]"
        }
      ],
      "name": "getCurrentBoard",
      "outputs": [
        {
          "internalType": "string",
          "name": "",
          "type": "string"
        }
      ],
      "stateMutability": "pure",
      "type": "function",
      "constant": true
    }
  ],
  "bytecode": "0x6111a161003a600b82828239805160001a60731461002d57634e487b7160e01b600052600060045260246000fd5b30600052607381538281f3fe73000000000000000000000000000000000000000030146080604052600436106100925760003560e01c8063776986ea11610065578063776986ea146100cf578063941c5cfc146100d75780639ef3eb87146100df578063f8e1dd40146100ff57600080fd5b8063023991251461009757806328412d70146100b7578063417267d0146100bf57806364ca7f50146100c7575b600080fd5b61009f600081565b60405160009190910b81526020015b60405180910390f35b61009f600681565b61009f600181565b61009f600581565b61009f600481565b61009f600381565b6100f26100ed366004610a18565b610107565b6040516100ae9190610af8565b61009f600281565b60606000806040518060600160405280603e81526020016110d6603e9139905080610130610359565b604051602001610141929190610b2b565b60408051601f198184030181526080830190915260588083529092506000919061111460208301399050600060405180608001604052806058815260200161103e60589139905060005b60088161ffff1610156102bc5760005b60088161ffff1610156102a95760006101cc6101b8836032610b70565b6101c3906019610b96565b61ffff1661051d565b905060006101de6101b8856032610b70565b905060008a8561ffff16600881106101f8576101f8610bb1565b60200201518461ffff166008811061021257610212610bb1565b6020020151905060008160000b12156102585786610231828585610626565b604051602001610242929190610b2b565b6040516020818303038152906040529650610293565b60008160000b13156102935785610270828585610626565b604051602001610281929190610b2b565b60405160208183030381529060405295505b50505080806102a190610bc7565b91505061019b565b50806102b481610bc7565b91505061018b565b508281836040516020016102d293929190610be8565b6040516020818303038152906040529250600061032b6102f18661051d565b6102fa866107f9565b604080516020808201835260008252915161031794939201610c54565b6040516020818303038152906040526107f9565b90508060405160200161033e9190610d43565b60405160208183030381529060405295505050505050919050565b606060006032905060006103f7604051806040016040528060018152602001600360fc1b815250604051806040016040528060018152602001600360fc1b8152506040518060400160405280600381526020016203430360ec1b8152506040518060400160405280600381526020016203430360ec1b815250604051806040016040528060078152602001660233830383038360cc1b815250610963565b905060005b60028160ff1610156105165760005b60048161ffff1610156105035760005b60048161ffff1610156104f057836104bb61045560ff861661043e866002610b70565b6104489190610b96565b6101c39060ff8a16610b70565b61047e60ff8716610467866002610b70565b6104719190610b96565b6101c39060ff8b16610b70565b61048a8960ff1661051d565b6104968a60ff1661051d565b604051806040016040528060078152602001660468870887088760cb1b815250610963565b6040516020016104cc929190610b2b565b604051602081830303815290604052935080806104e890610bc7565b91505061041b565b50806104fb81610bc7565b91505061040b565b508061050e81610d88565b9150506103fc565b5092915050565b6060816000036105445750506040805180820190915260018152600360fc1b602082015290565b8160005b811561056e578061055881610da7565b91506105679050600a83610dd6565b9150610548565b60008167ffffffffffffffff811115610589576105896109ca565b6040519080825280601f01601f1916602001820160405280156105b3576020820181803683370190505b5090505b841561061e576105c8600183610dea565b91506105d5600a86610e03565b6105e0906030610e17565b60f81b8183815181106105f5576105f5610bb1565b60200101906001600160f81b031916908160001a905350610617600a86610dd6565b94506105b7565b949350505050565b6060806000808660000b1261063c57600161063f565b60005b9050806106555761065260001987610e2a565b95505b600519600087900b0161068957604051806040016040528060078152602001662623393831323b60c81b81525091506107a0565b600419600087900b016106bd57604051806040016040528060078152602001662623393831333b60c81b81525091506107a0565b600319600087900b016106f157604051806040016040528060078152602001662623393831343b60c81b81525091506107a0565b600219600087900b0161072557604051806040016040528060078152602001662623393831353b60c81b81525091506107a0565b600119600087900b0161075957604051806040016040528060078152602001662623393831363b60c81b81525091506107a0565b600019600087900b0161078d57604051806040016040528060078152602001662623393831373b60c81b81525091506107a0565b6040518060200160405280600081525091505b6107ef828686846107cd57604051806040016040528060048152602001630233030360e41b815250610998565b6040518060400160405280600481526020016311b3333360e11b815250610998565b9695505050505050565b8051606090600081900361081d575050604080516020810190915260008152919050565b6000600361082c836002610e17565b6108369190610dd6565b610841906004610e4a565b90506000610850826020610e17565b67ffffffffffffffff811115610868576108686109ca565b6040519080825280601f01601f191660200182016040528015610892576020820181803683370190505b5090506000604051806060016040528060408152602001611096604091399050600181016020830160005b8681101561091e576003818a01810151603f601282901c8116860151600c83901c8216870151600684901c831688015192909316870151600891821b60ff94851601821b92841692909201901b91160160e01b8352600490920191016108bd565b506003860660018114610938576002811461094957610955565b613d3d60f01b600119830152610955565b603d60f81b6000198301525b505050918152949350505050565b6060858585858560405160200161097e959493929190610e61565b604051602081830303815290604052905095945050505050565b6060838383876040516020016109b19493929190610f4e565b6040516020818303038152906040529050949350505050565b634e487b7160e01b600052604160045260246000fd5b604051610100810167ffffffffffffffff81118282101715610a1257634e487b7160e01b600052604160045260246000fd5b60405290565b6000610800808385031215610a2c57600080fd5b601f8481850112610a3c57600080fd5b610a446109e0565b918401918086841115610a5657600080fd5b855b84811015610ac9578784820112610a6f5760008081fd5b610a776109e0565b8061010083018a811115610a8b5760008081fd5b835b81811015610ab5578035600081810b8214610aa6578081fd5b50845260209384019301610a8d565b505084525060209092019161010001610a58565b509695505050505050565b60005b83811015610aef578181015183820152602001610ad7565b50506000910152565b6020815260008251806020840152610b17816040850160208701610ad4565b601f01601f19169190910160400192915050565b60008351610b3d818460208801610ad4565b835190830190610b51818360208801610ad4565b01949350505050565b634e487b7160e01b600052601160045260246000fd5b61ffff818116838216028082169190828114610b8e57610b8e610b5a565b505092915050565b61ffff81811683821601908082111561051657610516610b5a565b634e487b7160e01b600052603260045260246000fd5b600061ffff808316818103610bde57610bde610b5a565b6001019392505050565b60008451610bfa818460208901610ad4565b845190830190610c0e818360208901610ad4565b631e17b39f60e11b91018181528451909190610c31816004850160208901610ad4565b6004920191820152651e17b9bb339f60d11b6008820152600e0195945050505050565b707b226e616d65223a20224d61746368202360781b81528351600090610c81816011850160208901610ad4565b7f222c20226465736372697074696f6e223a2022546869732069732061206d61746011918401918201527f6368222c2022696d616765223a2022646174613a696d6167652f7376672b786d6031820152681b0ed8985cd94d8d0b60ba1b60518201528451610cf681605a840160208901610ad4565b6f222c2261747472696275746573223a5b60801b605a92909101918201528351610d2781606a840160208801610ad4565b615d7d60f01b606a9290910191820152606c0195945050505050565b7f646174613a6170706c69636174696f6e2f6a736f6e3b6261736536342c000000815260008251610d7b81601d850160208701610ad4565b91909101601d0192915050565b600060ff821660ff8103610d9e57610d9e610b5a565b60010192915050565b600060018201610db957610db9610b5a565b5060010190565b634e487b7160e01b600052601260045260246000fd5b600082610de557610de5610dc0565b500490565b81810381811115610dfd57610dfd610b5a565b92915050565b600082610e1257610e12610dc0565b500690565b80820180821115610dfd57610dfd610b5a565b60008260000b8260000b028060000b915080821461051657610516610b5a565b8082028115828204841417610dfd57610dfd610b5a565b683c7265637420783d2760b81b815260008651610e85816009850160208b01610ad4565b642720793d2760d81b6009918401918201528651610eaa81600e840160208b01610ad4565b68272077696474683d2760b81b600e92909101918201528551610ed4816017840160208a01610ad4565b6927206865696768743d2760b01b601792909101918201528451610eff816021840160208901610ad4565b67272066696c6c3d2760c01b602192909101918201528351610f28816029840160208801610ad4565b610f41602982840101631390179f60e11b815260040190565b9998505050505050505050565b683c7465787420783d2760b81b815260008551610f72816009850160208a01610ad4565b642720793d2760d81b6009918401918201528551610f9781600e840160208a01610ad4565b7f2720746578742d616e63686f723d276d6964646c65272064793d272e33656d27600e929091019182015268207374726f6b653d2760b81b602e8201528451610fe7816037840160208901610ad4565b72139039ba3937b5b296bbb4b23a341e9398939f60691b60379290910191820152835161101b81604a840160208801610ad4565b661e17ba32bc3a1f60c91b604a9290910191820152605101969550505050505056fe3c672066696c6c3d27236666662720666f6e742d66616d696c793d27617269616c20756e69636f6465206d732c48656c7665746963612c417269616c2c73616e732d73657269662720666f6e742d73697a653d273430273e4142434445464748494a4b4c4d4e4f505152535455565758595a6162636465666768696a6b6c6d6e6f707172737475767778797a303132333435363738392b2f3c73766720786d6c6e733d27687474703a2f2f7777772e77332e6f72672f323030302f737667272076696577426f783d273020302034303020343030273e3c672066696c6c3d27233030302720666f6e742d66616d696c793d27617269616c20756e69636f6465206d732c48656c7665746963612c417269616c2c73616e732d73657269662720666f6e742d73697a653d273430273ea26469706673582212207275aad832ea87e266caee92789da3dc07ee6ce9a834ca381242e9a239b9b39b64736f6c63430008130033",
  "immutableReferences": {},
  "source": "// SPDX-License-Identifier: MIT\npragma solidity ^0.8.19;\nimport \"../Utility/Base64Library.sol\";\n\nlibrary ChessMediaLibrary {\n    int8 public constant EMPTY = 0;\n    int8 public constant PAWN = 1;\n    int8 public constant KNIGHT = 2;\n    int8 public constant BISHOP = 3;\n    int8 public constant ROOK = 4;\n    int8 public constant QUEEN = 5;\n    int8 public constant KING = 6;\n\n    function toString(uint value) internal pure returns (string memory) {\n        if (value == 0) {\n            return \"0\";\n        }\n        \n        uint temp = value;\n        uint digits;\n        \n        while (temp != 0) {\n            digits++;\n            temp /= 10;\n        }\n\n        bytes memory buffer = new bytes(digits);\n\n        while (value != 0) {\n            digits -= 1;\n            buffer[digits] = bytes1(uint8(48 + value % 10));\n            value /= 10;\n        }\n\n        return string(buffer);\n    }\n\n    function getPieceCharacter(int8 piece, string memory x, string memory y) internal pure returns (string memory) {\n        string memory token;\n        bool isWhite = piece < 0 ? false : true;\n        if (!isWhite){\n            piece *= -1;\n        }\n\n        if (piece == KING) {\n            token = \"&#9812;\";\n        }\n        else\n        if (piece == QUEEN) {\n            token = \"&#9813;\";\n        }\n        else\n        if (piece == ROOK) {\n            token = \"&#9814;\";\n        }\n        else\n        if (piece == BISHOP) {\n            token = \"&#9815;\";\n        }\n        else\n        if (piece == KNIGHT) {\n            token = \"&#9816;\";\n        }\n        else\n        if (piece == PAWN) {\n            token = \"&#9817;\";\n        }\n        /*\n        else \n        if (piece == -KING) {\n            token = \"&#9818;\";\n        }\n        else\n        if (piece == -QUEEN) {\n            token = \"&#9819;\";\n        }\n        else\n        if (piece == -ROOK) {\n            token = \"&#9820;\";\n        }\n        else\n        if (piece == -BISHOP) {\n            token = \"&#9821;\";\n        }\n        else\n        if (piece == -KNIGHT) {\n            token = \"&#9822;\";\n        }\n        else\n        if (piece == -PAWN) {\n            token = \"&#9823;\";\n        }\n        */\n        else{\n            token = \"\";\n        }\n\n        return generatePiece(token, x, y, isWhite ? \"#fff\" : \"#000\");\n    }\n\n    function metadata(uint256 tokenId) internal pure returns (string memory){\n        //TODO\n        tokenId = 1;\n        string memory toRet = \"\";\n        return toRet;\n    }\n\n    function getCurrentBoard(int8[8][8] memory board) external pure returns (string memory) {\n        uint tokenId = 0;\n        string memory result = \"<svg xmlns='http://www.w3.org/2000/svg' viewBox='0 0 400 400'>\";\n        result = string(abi.encodePacked(result, getBoardSquares()));   \n        string memory black = \"<g fill='#000' font-family='arial unicode ms,Helvetica,Arial,sans-serif' font-size='40'>\";\n        string memory white = \"<g fill='#fff' font-family='arial unicode ms,Helvetica,Arial,sans-serif' font-size='40'>\";\n        for (uint16 i = 0; i < 8; i++) {\n            for (uint16 j = 0; j < 8; j++) {\n                string memory x = toString(j * 50 + 25);\n                string memory y = toString(i * 50 + 25);\n                int8 piece = board[i][j];\n                if (piece < 0){\n                    black = string(abi.encodePacked(black, getPieceCharacter(piece, x, y)));\n                }\n                else\n                if (piece > 0){\n                    white = string(abi.encodePacked(white, getPieceCharacter(piece, x, y)));\n                }\n            }\n        }\n\n        result = string(abi.encodePacked(result, white, \"</g>\", black, \"</g>\", \"</svg>\"));\n        \n        string memory json = Base64Library.encode(bytes(string(abi.encodePacked('{\"name\": \"Match #', toString(tokenId), '\", \"description\": \"This is a match\", \"image\": \"data:image/svg+xml;base64,', Base64Library.encode(bytes(result)), '\",\"attributes\":[',metadata(tokenId),']}'))));\n        return string(abi.encodePacked('data:application/json;base64,', json));\n        \n    }\n\n    function generatePiece(string memory s, string memory x, string memory y, string memory c) internal pure returns (string memory) {\n        return string(abi.encodePacked(\n            \"<text x='\", x, \"' y='\", y, \"' text-anchor='middle' dy='.3em' stroke='\", c, \"' stroke-width='1'>\", s, \"</text>\"\n        ));\n    }\n\n    function generateSquare(string memory x, string memory y, string memory w, string memory h, string memory c) internal pure returns (string memory){\n        return string(abi.encodePacked(\n            \"<rect x='\", x,\"' y='\", y,\"' width='\",w,\"' height='\", h,\"' fill='\", c,\"' />\"\n        ));\n\n    }\n\n    function getBoardSquares() internal pure returns (string memory){\n        uint8 size = 50;\n        \n        string memory toRet = generateSquare(\"0\",\"0\",\"400\",\"400\",\"#808080\");\n        for (uint8 k = 0; k < 2; k++){\n            for (uint16 i = 0 ; i < 4; i++){\n                for (uint16 j = 0; j < 4; j++){\n                    toRet = string(abi.encodePacked(toRet, generateSquare(toString(size * (2 * i + k)), toString(size * (2 * j + k)), toString(size), toString(size), \"#D8D8D8\")));\n                }\n            }\n        }\n        return toRet;\n    }\n\n}",
  "sourcePath": "/Users/jacopo/Documents/solidity/ChessGame/contracts/Chess/ChessMediaLibrary.sol",
  "compiler": {
    "name": "solc",
    "version": "0.8.19+commit.7dd6d404.Emscripten.clang"
  },
  "schemaVersion": "3.4.16",
  "updatedAt": "2023-12-25T00:14:37.740Z",
  "networkType": "ethereum",
  "devdoc": {
    "kind": "dev",
    "methods": {},
    "version": 1
  },
  "userdoc": {
    "kind": "user",
    "methods": {},
    "version": 1
  }
}