{
  "contractName": "ArbitratorRegistry",
  "abi": [
    {
      "inputs": [
        {
          "internalType": "address",
          "name": "_chessToken",
          "type": "address"
        }
      ],
      "stateMutability": "nonpayable",
      "type": "constructor"
    },
    {
      "inputs": [],
      "name": "AccessControlBadConfirmation",
      "type": "error"
    },
    {
      "inputs": [
        {
          "internalType": "address",
          "name": "account",
          "type": "address"
        },
        {
          "internalType": "bytes32",
          "name": "neededRole",
          "type": "bytes32"
        }
      ],
      "name": "AccessControlUnauthorizedAccount",
      "type": "error"
    },
    {
      "inputs": [],
      "name": "ReentrancyGuardReentrantCall",
      "type": "error"
    },
    {
      "anonymous": false,
      "inputs": [
        {
          "indexed": true,
          "internalType": "address",
          "name": "arbitrator",
          "type": "address"
        },
        {
          "indexed": false,
          "internalType": "uint256",
          "name": "amount",
          "type": "uint256"
        },
        {
          "indexed": false,
          "internalType": "uint8",
          "name": "tier",
          "type": "uint8"
        }
      ],
      "name": "ArbitratorRegistered",
      "type": "event"
    },
    {
      "anonymous": false,
      "inputs": [
        {
          "indexed": true,
          "internalType": "address",
          "name": "arbitrator",
          "type": "address"
        },
        {
          "indexed": false,
          "internalType": "string",
          "name": "reason",
          "type": "string"
        }
      ],
      "name": "ArbitratorRemoved",
      "type": "event"
    },
    {
      "anonymous": false,
      "inputs": [
        {
          "indexed": true,
          "internalType": "uint256",
          "name": "disputeId",
          "type": "uint256"
        },
        {
          "indexed": true,
          "internalType": "address",
          "name": "arbitrator",
          "type": "address"
        }
      ],
      "name": "ArbitratorSelected",
      "type": "event"
    },
    {
      "anonymous": false,
      "inputs": [
        {
          "indexed": true,
          "internalType": "address",
          "name": "arbitrator",
          "type": "address"
        },
        {
          "indexed": false,
          "internalType": "uint256",
          "name": "newAmount",
          "type": "uint256"
        },
        {
          "indexed": false,
          "internalType": "uint8",
          "name": "newTier",
          "type": "uint8"
        }
      ],
      "name": "ArbitratorStakeIncreased",
      "type": "event"
    },
    {
      "anonymous": false,
      "inputs": [
        {
          "indexed": true,
          "internalType": "address",
          "name": "arbitrator",
          "type": "address"
        },
        {
          "indexed": false,
          "internalType": "uint256",
          "name": "amount",
          "type": "uint256"
        }
      ],
      "name": "ArbitratorUnstaked",
      "type": "event"
    },
    {
      "anonymous": false,
      "inputs": [
        {
          "indexed": true,
          "internalType": "address",
          "name": "arbitrator",
          "type": "address"
        },
        {
          "indexed": false,
          "internalType": "uint256",
          "name": "oldRep",
          "type": "uint256"
        },
        {
          "indexed": false,
          "internalType": "uint256",
          "name": "newRep",
          "type": "uint256"
        }
      ],
      "name": "ReputationUpdated",
      "type": "event"
    },
    {
      "anonymous": false,
      "inputs": [
        {
          "indexed": true,
          "internalType": "bytes32",
          "name": "role",
          "type": "bytes32"
        },
        {
          "indexed": true,
          "internalType": "bytes32",
          "name": "previousAdminRole",
          "type": "bytes32"
        },
        {
          "indexed": true,
          "internalType": "bytes32",
          "name": "newAdminRole",
          "type": "bytes32"
        }
      ],
      "name": "RoleAdminChanged",
      "type": "event"
    },
    {
      "anonymous": false,
      "inputs": [
        {
          "indexed": true,
          "internalType": "bytes32",
          "name": "role",
          "type": "bytes32"
        },
        {
          "indexed": true,
          "internalType": "address",
          "name": "account",
          "type": "address"
        },
        {
          "indexed": true,
          "internalType": "address",
          "name": "sender",
          "type": "address"
        }
      ],
      "name": "RoleGranted",
      "type": "event"
    },
    {
      "anonymous": false,
      "inputs": [
        {
          "indexed": true,
          "internalType": "bytes32",
          "name": "role",
          "type": "bytes32"
        },
        {
          "indexed": true,
          "internalType": "address",
          "name": "account",
          "type": "address"
        },
        {
          "indexed": true,
          "internalType": "address",
          "name": "sender",
          "type": "address"
        }
      ],
      "name": "RoleRevoked",
      "type": "event"
    },
    {
      "inputs": [],
      "name": "DEFAULT_ADMIN_ROLE",
      "outputs": [
        {
          "internalType": "bytes32",
          "name": "",
          "type": "bytes32"
        }
      ],
      "stateMutability": "view",
      "type": "function"
    },
    {
      "inputs": [],
      "name": "DISPUTE_MANAGER_ROLE",
      "outputs": [
        {
          "internalType": "bytes32",
          "name": "",
          "type": "bytes32"
        }
      ],
      "stateMutability": "view",
      "type": "function"
    },
    {
      "inputs": [],
      "name": "INITIAL_REPUTATION",
      "outputs": [
        {
          "internalType": "uint256",
          "name": "",
          "type": "uint256"
        }
      ],
      "stateMutability": "view",
      "type": "function"
    },
    {
      "inputs": [],
      "name": "MAX_DISPUTES_PER_WEEK",
      "outputs": [
        {
          "internalType": "uint256",
          "name": "",
          "type": "uint256"
        }
      ],
      "stateMutability": "view",
      "type": "function"
    },
    {
      "inputs": [],
      "name": "MIN_REPUTATION",
      "outputs": [
        {
          "internalType": "uint256",
          "name": "",
          "type": "uint256"
        }
      ],
      "stateMutability": "view",
      "type": "function"
    },
    {
      "inputs": [],
      "name": "TIER1_MAX",
      "outputs": [
        {
          "internalType": "uint256",
          "name": "",
          "type": "uint256"
        }
      ],
      "stateMutability": "view",
      "type": "function"
    },
    {
      "inputs": [],
      "name": "TIER1_MIN",
      "outputs": [
        {
          "internalType": "uint256",
          "name": "",
          "type": "uint256"
        }
      ],
      "stateMutability": "view",
      "type": "function"
    },
    {
      "inputs": [],
      "name": "TIER2_MAX",
      "outputs": [
        {
          "internalType": "uint256",
          "name": "",
          "type": "uint256"
        }
      ],
      "stateMutability": "view",
      "type": "function"
    },
    {
      "inputs": [],
      "name": "TIER2_MIN",
      "outputs": [
        {
          "internalType": "uint256",
          "name": "",
          "type": "uint256"
        }
      ],
      "stateMutability": "view",
      "type": "function"
    },
    {
      "inputs": [],
      "name": "TIER3_MIN",
      "outputs": [
        {
          "internalType": "uint256",
          "name": "",
          "type": "uint256"
        }
      ],
      "stateMutability": "view",
      "type": "function"
    },
    {
      "inputs": [],
      "name": "VOTE_COOLDOWN",
      "outputs": [
        {
          "internalType": "uint256",
          "name": "",
          "type": "uint256"
        }
      ],
      "stateMutability": "view",
      "type": "function"
    },
    {
      "inputs": [],
      "name": "VOTING_POWER_DELAY",
      "outputs": [
        {
          "internalType": "uint256",
          "name": "",
          "type": "uint256"
        }
      ],
      "stateMutability": "view",
      "type": "function"
    },
    {
      "inputs": [
        {
          "internalType": "address",
          "name": "",
          "type": "address"
        }
      ],
      "name": "arbitrators",
      "outputs": [
        {
          "internalType": "uint256",
          "name": "stakedAmount",
          "type": "uint256"
        },
        {
          "internalType": "uint256",
          "name": "stakedAt",
          "type": "uint256"
        },
        {
          "internalType": "uint256",
          "name": "votingPowerActiveAt",
          "type": "uint256"
        },
        {
          "internalType": "uint256",
          "name": "reputation",
          "type": "uint256"
        },
        {
          "internalType": "uint256",
          "name": "lastVoteTime",
          "type": "uint256"
        },
        {
          "internalType": "uint256",
          "name": "disputesThisWeek",
          "type": "uint256"
        },
        {
          "internalType": "uint256",
          "name": "weekStartTime",
          "type": "uint256"
        },
        {
          "internalType": "bool",
          "name": "isActive",
          "type": "bool"
        }
      ],
      "stateMutability": "view",
      "type": "function"
    },
    {
      "inputs": [],
      "name": "chessToken",
      "outputs": [
        {
          "internalType": "contract ChessToken",
          "name": "",
          "type": "address"
        }
      ],
      "stateMutability": "view",
      "type": "function"
    },
    {
      "inputs": [
        {
          "internalType": "bytes32",
          "name": "role",
          "type": "bytes32"
        }
      ],
      "name": "getRoleAdmin",
      "outputs": [
        {
          "internalType": "bytes32",
          "name": "",
          "type": "bytes32"
        }
      ],
      "stateMutability": "view",
      "type": "function"
    },
    {
      "inputs": [
        {
          "internalType": "bytes32",
          "name": "role",
          "type": "bytes32"
        },
        {
          "internalType": "address",
          "name": "account",
          "type": "address"
        }
      ],
      "name": "grantRole",
      "outputs": [],
      "stateMutability": "nonpayable",
      "type": "function"
    },
    {
      "inputs": [
        {
          "internalType": "bytes32",
          "name": "role",
          "type": "bytes32"
        },
        {
          "internalType": "address",
          "name": "account",
          "type": "address"
        }
      ],
      "name": "hasRole",
      "outputs": [
        {
          "internalType": "bool",
          "name": "",
          "type": "bool"
        }
      ],
      "stateMutability": "view",
      "type": "function"
    },
    {
      "inputs": [
        {
          "internalType": "address",
          "name": "",
          "type": "address"
        },
        {
          "internalType": "address",
          "name": "",
          "type": "address"
        }
      ],
      "name": "lastGameWith",
      "outputs": [
        {
          "internalType": "uint256",
          "name": "",
          "type": "uint256"
        }
      ],
      "stateMutability": "view",
      "type": "function"
    },
    {
      "inputs": [
        {
          "internalType": "bytes32",
          "name": "role",
          "type": "bytes32"
        },
        {
          "internalType": "address",
          "name": "callerConfirmation",
          "type": "address"
        }
      ],
      "name": "renounceRole",
      "outputs": [],
      "stateMutability": "nonpayable",
      "type": "function"
    },
    {
      "inputs": [
        {
          "internalType": "bytes32",
          "name": "role",
          "type": "bytes32"
        },
        {
          "internalType": "address",
          "name": "account",
          "type": "address"
        }
      ],
      "name": "revokeRole",
      "outputs": [],
      "stateMutability": "nonpayable",
      "type": "function"
    },
    {
      "inputs": [
        {
          "internalType": "bytes4",
          "name": "interfaceId",
          "type": "bytes4"
        }
      ],
      "name": "supportsInterface",
      "outputs": [
        {
          "internalType": "bool",
          "name": "",
          "type": "bool"
        }
      ],
      "stateMutability": "view",
      "type": "function"
    },
    {
      "inputs": [
        {
          "internalType": "uint256",
          "name": "",
          "type": "uint256"
        }
      ],
      "name": "tier1Arbitrators",
      "outputs": [
        {
          "internalType": "address",
          "name": "",
          "type": "address"
        }
      ],
      "stateMutability": "view",
      "type": "function"
    },
    {
      "inputs": [
        {
          "internalType": "address",
          "name": "",
          "type": "address"
        }
      ],
      "name": "tier1Index",
      "outputs": [
        {
          "internalType": "uint256",
          "name": "",
          "type": "uint256"
        }
      ],
      "stateMutability": "view",
      "type": "function"
    },
    {
      "inputs": [
        {
          "internalType": "uint256",
          "name": "",
          "type": "uint256"
        }
      ],
      "name": "tier2Arbitrators",
      "outputs": [
        {
          "internalType": "address",
          "name": "",
          "type": "address"
        }
      ],
      "stateMutability": "view",
      "type": "function"
    },
    {
      "inputs": [
        {
          "internalType": "address",
          "name": "",
          "type": "address"
        }
      ],
      "name": "tier2Index",
      "outputs": [
        {
          "internalType": "uint256",
          "name": "",
          "type": "uint256"
        }
      ],
      "stateMutability": "view",
      "type": "function"
    },
    {
      "inputs": [
        {
          "internalType": "uint256",
          "name": "",
          "type": "uint256"
        }
      ],
      "name": "tier3Arbitrators",
      "outputs": [
        {
          "internalType": "address",
          "name": "",
          "type": "address"
        }
      ],
      "stateMutability": "view",
      "type": "function"
    },
    {
      "inputs": [
        {
          "internalType": "address",
          "name": "",
          "type": "address"
        }
      ],
      "name": "tier3Index",
      "outputs": [
        {
          "internalType": "uint256",
          "name": "",
          "type": "uint256"
        }
      ],
      "stateMutability": "view",
      "type": "function"
    },
    {
      "inputs": [],
      "name": "totalArbitrators",
      "outputs": [
        {
          "internalType": "uint256",
          "name": "",
          "type": "uint256"
        }
      ],
      "stateMutability": "view",
      "type": "function"
    },
    {
      "inputs": [],
      "name": "totalStaked",
      "outputs": [
        {
          "internalType": "uint256",
          "name": "",
          "type": "uint256"
        }
      ],
      "stateMutability": "view",
      "type": "function"
    },
    {
      "inputs": [
        {
          "internalType": "uint256",
          "name": "amount",
          "type": "uint256"
        }
      ],
      "name": "stake",
      "outputs": [],
      "stateMutability": "nonpayable",
      "type": "function"
    },
    {
      "inputs": [
        {
          "internalType": "uint256",
          "name": "amount",
          "type": "uint256"
        }
      ],
      "name": "unstake",
      "outputs": [],
      "stateMutability": "nonpayable",
      "type": "function"
    },
    {
      "inputs": [
        {
          "internalType": "address",
          "name": "arbitrator",
          "type": "address"
        }
      ],
      "name": "getVotingPower",
      "outputs": [
        {
          "internalType": "uint256",
          "name": "",
          "type": "uint256"
        }
      ],
      "stateMutability": "view",
      "type": "function"
    },
    {
      "inputs": [
        {
          "internalType": "uint256",
          "name": "disputeId",
          "type": "uint256"
        },
        {
          "internalType": "address",
          "name": "player1",
          "type": "address"
        },
        {
          "internalType": "address",
          "name": "player2",
          "type": "address"
        },
        {
          "internalType": "uint256",
          "name": "count",
          "type": "uint256"
        }
      ],
      "name": "selectArbitrators",
      "outputs": [
        {
          "internalType": "address[]",
          "name": "selected",
          "type": "address[]"
        }
      ],
      "stateMutability": "nonpayable",
      "type": "function"
    },
    {
      "inputs": [
        {
          "internalType": "address",
          "name": "arbitrator",
          "type": "address"
        },
        {
          "internalType": "bool",
          "name": "votedWithMajority",
          "type": "bool"
        }
      ],
      "name": "updateReputation",
      "outputs": [],
      "stateMutability": "nonpayable",
      "type": "function"
    },
    {
      "inputs": [
        {
          "internalType": "address",
          "name": "arbitrator",
          "type": "address"
        }
      ],
      "name": "recordVote",
      "outputs": [],
      "stateMutability": "nonpayable",
      "type": "function"
    },
    {
      "inputs": [
        {
          "internalType": "address",
          "name": "arbitrator",
          "type": "address"
        }
      ],
      "name": "canVote",
      "outputs": [
        {
          "internalType": "bool",
          "name": "",
          "type": "bool"
        }
      ],
      "stateMutability": "view",
      "type": "function"
    },
    {
      "inputs": [
        {
          "internalType": "address",
          "name": "player1",
          "type": "address"
        },
        {
          "internalType": "address",
          "name": "player2",
          "type": "address"
        }
      ],
      "name": "recordGame",
      "outputs": [],
      "stateMutability": "nonpayable",
      "type": "function"
    },
    {
      "inputs": [
        {
          "internalType": "address",
          "name": "arbitrator",
          "type": "address"
        },
        {
          "internalType": "address",
          "name": "player1",
          "type": "address"
        },
        {
          "internalType": "address",
          "name": "player2",
          "type": "address"
        }
      ],
      "name": "shouldExclude",
      "outputs": [
        {
          "internalType": "bool",
          "name": "",
          "type": "bool"
        }
      ],
      "stateMutability": "view",
      "type": "function"
    },
    {
      "inputs": [
        {
          "internalType": "address",
          "name": "arbitrator",
          "type": "address"
        }
      ],
      "name": "getArbitratorInfo",
      "outputs": [
        {
          "internalType": "uint256",
          "name": "stakedAmount",
          "type": "uint256"
        },
        {
          "internalType": "uint256",
          "name": "votingPower",
          "type": "uint256"
        },
        {
          "internalType": "uint256",
          "name": "reputation",
          "type": "uint256"
        },
        {
          "internalType": "uint8",
          "name": "tier",
          "type": "uint8"
        },
        {
          "internalType": "bool",
          "name": "isActive",
          "type": "bool"
        },
        {
          "internalType": "bool",
          "name": "canVoteNow",
          "type": "bool"
        }
      ],
      "stateMutability": "view",
      "type": "function"
    },
    {
      "inputs": [],
      "name": "getTierCounts",
      "outputs": [
        {
          "internalType": "uint256",
          "name": "t1",
          "type": "uint256"
        },
        {
          "internalType": "uint256",
          "name": "t2",
          "type": "uint256"
        },
        {
          "internalType": "uint256",
          "name": "t3",
          "type": "uint256"
        }
      ],
      "stateMutability": "view",
      "type": "function"
    }
  ],
  "bytecode": "0x60a0346200009757601f62001eac38819003918201601f19168301916001600160401b038311848410176200009b578084926020946040528339810103126200009757516001600160a01b03811690819003620000975760018055801562000097576080526200006f33620000af565b50604051611d5a90816200013282396080518181816101eb015281816105110152610cbe0152f35b5f80fd5b634e487b7160e01b5f52604160045260245ffd5b6001600160a01b03165f8181525f8051602062001e8c833981519152602052604090205460ff166200012c575f8181525f8051602062001e8c83398151915260205260408120805460ff191660011790553391907f2f8788117e7eff1d82e926ec794901d17c78024a50270940304540a733656f0d8180a4600190565b505f9056fe6080604090808252600480361015610015575f80fd5b5f3560e01c91826301ffc9a714610e85575081631193849814610e4e57816311ee134a14610e2457816320874a8f14610e09578163248a9ca314610de057816324ebae691461021e5781632e17de7814610bee5781632f2ff15d14610bc65781632f8d14f914610b9857816336568abe14610b54578163403644f314610b3757816348c534e014610ad557816351d0ea3714610a4d5781635ecd37e2146103f05781635f119ccf14610a0f578163668a2fcd146109d9578163697c6045146109be5781636a03c5a1146109755781636c0dd5191461093e5781637661082d146109215781637961954c146108fe5781637b057258146108e35781637bc303ab146108a35781637d3b24c11461081c578163817b1cd2146107fe57816391d14854146107bb57816392c1ff441461073057816399056c3c146106a8578163a217fddf1461068e578163a694fc3a146104ad578163adfaa72e1461047f578163b77d003514610458578163bb4d44361461042c578163bd825f35146103f5578163c5f7dd3c146103f0578163ccc3b19c146103d2578163d547741f14610397578163e2c13e321461022357508063e4bd07c41461021e5763fd36b435146101d8575f80fd5b3461021a575f36600319011261021a57517f00000000000000000000000000000000000000000000000000000000000000006001600160a01b03168152602090f35b5f80fd5b610f75565b823461021a578060031936011261021a5761023c610ed7565b90602435801515810361021a576102516116c9565b60018060a01b03831692835f526002602052825f20600781019060ff8254161561021a5760038101928354945f1461034e578354976001890180991161033b575060c8885f80516020611cc58339815191529899865511610332575b60328454106102c8575b5050505482519182526020820152a2005b6102d56102db9254611332565b90611376565b60ff1981541690556102ee600b54610feb565b600b55845f80516020611d058339815191526060855160208152601260208201527152657075746174696f6e20746f6f206c6f7760701b87820152a28580806102b7565b60c884556102ad565b601190634e487b7160e01b5f525260245ffd5b6001851161036d575b5f80516020611cc58339815191529697506102ad565b5f1985018581116103845784559596508695610357565b601189634e487b7160e01b5f525260245ffd5b823461021a578060031936011261021a576103d091356103cb60016103ba610eed565b93835f525f6020525f20015461172f565b6117cc565b005b823461021a575f36600319011261021a57602090600b549051908152f35b610f99565b823461021a57602036600319011261021a576020906001600160a01b0361041a610ed7565b165f5260078252805f20549051908152f35b823461021a57602036600319011261021a5760209061045161044c610ed7565b611274565b9051908152f35b823461021a575f36600319011261021a57602090515f80516020611ce58339815191528152f35b823461021a57602036600319011261021a576020906104a461049f610ed7565b6111e6565b90519015158152f35b823461021a576020908160031936011261021a5782356104cb61130f565b683635c9adc5dea00000811061021a57335f5260028352815f2082516323b872dd60e01b8152338682015230602482015282604482015284816064815f60018060a01b037f0000000000000000000000000000000000000000000000000000000000000000165af1908115610684575f91610657575b501561021a576007810180549560ff871615610600575b50505f80516020611ca583398151915293945061058e8154926105848161057e86611332565b95610fbd565b8355600a54610fbd565b600a5561059b8154611332565b60ff818116939081168085146105d35750906105ba6105c09233611376565b336115f2565b549382519485528401523392a260018055005b905015806105f7575b6105e7575b506105c0565b6105f190336115f2565b856105e1565b508215156105dc565b42600184015562093a8042019081421161033b57505f80516020611ca5833981519152959660019160028501556064600385015542600685015560ff191617905561064c600b546111d8565b600b55849386610558565b6106779150853d871161067d575b61066f8183611027565b81019061104a565b86610541565b503d610665565b84513d5f823e3d90fd5b823461021a575f36600319011261021a57602090515f8152f35b823461021a57602036600319011261021a5760c0906106c5610ed7565b6001600160a01b0381165f9081526002602052829020805492919060ff906106ec83611274565b9360038201549061070c8460076107028a611332565b95015416956111e6565b958151978852602088015286015216606084015215156080830152151560a0820152f35b823461021a57602036600319011261021a5761074a610ed7565b6107526116c9565b6001600160a01b03165f90815260026020522060068101805462093a80810193919084106107a85760059342101561079a575b5042908201550161079681546111d8565b9055005b5f8484015542905583610785565b601182634e487b7160e01b5f525260245ffd5b823461021a578060031936011261021a576020916107d7610eed565b90355f525f8352815f209060018060a01b03165f52825260ff815f20541690519015158152f35b823461021a575f36600319011261021a57602090600a549051908152f35b90503461021a57608036600319011261021a576108569061083b610eed565b610843610f03565b9061084c6116c9565b6064359235611142565b908051918291602090602080850191818652845180935285019301915f5b82811061088357505050500390f35b83516001600160a01b031685528695509381019392810192600101610874565b90503461021a57602036600319011261021a57359060035482101561021a576108cd602092610f5d565b60018060a01b0391549060031b1c169051908152f35b823461021a575f36600319011261021a576020905160648152f35b823461021a575f36600319011261021a5760209051683635c9adc5dea000008152f35b823461021a575f36600319011261021a576020905162093a808152f35b823461021a57602036600319011261021a576020906001600160a01b03610963610ed7565b165f5260088252805f20549051908152f35b823461021a578060031936011261021a57602090610991610ed7565b610999610eed565b9060018060a01b038091165f5260098452825f2091165f528252805f20549051908152f35b823461021a575f36600319011261021a576020905160328152f35b823461021a57606036600319011261021a576020906104a46109f9610ed7565b610a01610eed565b610a09610f03565b91611062565b823461021a57602036600319011261021a578135915482101561021a57610a37602092610f45565b905491519160018060a01b039160031b1c168152f35b823461021a57602036600319011261021a57610100916001600160a01b03610a73610ed7565b165f526002602052815f208054926001820154926002830154906003840154908401549160058501549360ff600760068801549701541696815198895260208901528701526060860152608085015260a084015260c0830152151560e0820152f35b823461021a578060031936011261021a57610aee610ed7565b610af6610eed565b610afe6116c9565b60018060a01b0380921691825f526009602052835f2091165f5260205242825f20556009602052815f20905f5260205242905f20555f80f35b823461021a575f36600319011261021a57602090516202a3008152f35b823461021a578060031936011261021a57610b6d610eed565b90336001600160a01b03831603610b8957506103d091356117cc565b5163334bd91960e11b81529050fd5b90503461021a575f36600319011261021a576060916003549154906005549181519384526020840152820152f35b823461021a578060031936011261021a576103d09135610be960016103ba610eed565b611750565b823461021a5760208060031936011261021a57823592610c0c61130f565b335f5260028252825f20600781019060ff8254161561021a5780549081871161021a57838101546202a3008101809111610dcd57421061021a5781610c6488610c5e683635c9adc5dea0000095611332565b92610fde565b8255610c7288600a54610fde565b600a55610c7f8254611332565b9060ff8216908160ff821603610da7575b5050505410610d52575b50825163a9059cbb60e01b815233918101919091526024810184905281816044815f7f00000000000000000000000000000000000000000000000000000000000000006001600160a01b03165af1908115610d48575f91610d2b575b501561021a577f4b4803db5a516ab7afb1cf06da5811f83efd88abd80e1ad1167c69980337287191519283523392a260018055005b610d429150823d841161067d5761066f8183611027565b84610cf6565b83513d5f823e3d90fd5b60ff198154169055610d65600b54610feb565b600b558251828152601383820152725374616b652062656c6f77206d696e696d756d60681b848201525f80516020611d0583398151915260603392a284610c9a565b610db19033611376565b610dbd575b8080610c90565b610dc790336115f2565b87610db6565b601185634e487b7160e01b5f525260245ffd5b823461021a57602036600319011261021a57602091355f525f82526001815f2001549051908152f35b823461021a575f36600319011261021a576020905160058152f35b90503461021a57602036600319011261021a57359060055482101561021a57610a37602092610f19565b823461021a57602036600319011261021a576020906001600160a01b03610e73610ed7565b165f5260068252805f20549051908152f35b903461021a57602036600319011261021a57359063ffffffff60e01b821680920361021a57602091637965db0b60e01b8114908115610ec6575b5015158152f35b6301ffc9a760e01b14905083610ebf565b600435906001600160a01b038216820361021a57565b602435906001600160a01b038216820361021a57565b604435906001600160a01b038216820361021a57565b600554811015610f315760055f5260205f2001905f90565b634e487b7160e01b5f52603260045260245ffd5b600454811015610f315760045f5260205f2001905f90565b600354811015610f315760035f5260205f2001905f90565b3461021a575f36600319011261021a57602060405169010f0cf064dd592000008152f35b3461021a575f36600319011261021a57602060405169043c33c19375648000008152f35b91908201809211610fca57565b634e487b7160e01b5f52601160045260245ffd5b91908203918211610fca57565b8015610fca575f190190565b61010081019081106001600160401b0382111761101357604052565b634e487b7160e01b5f52604160045260245ffd5b601f909101601f19168101906001600160401b0382119082101761101357604052565b9081602091031261021a5751801515810361021a5790565b6001600160a01b03918216929190811680841480156110da575b6110d15762278cff19420193428511610fca57815f52600960205260405f20905f526020528360405f2054116110d1575f52600960205260405f2091165f5260205260405f2054116110cc575f90565b600190565b50505050600190565b50818316811461107c565b6001600160401b0381116110135760051b60200190565b90611106826110e5565b6111136040519182611027565b8281528092611124601f19916110e5565b0190602036910137565b8051821015610f315760209160051b010190565b9392909193811561021a576003820292828404600303610fca5761118c92611169856110fc565b968261118661117c8a858582988a61185c565b858585858a6119a8565b94611afa565b9081106111965750565b61119f816110fc565b905f5b8181106111b0575090925050565b6001906001600160a01b036111c5828861112e565b51166111d1828661112e565b52016111a2565b5f198114610fca5760010190565b6001600160a01b03165f908152600260205260409020600781015460ff161561126f576002810154421061126f57603260038201541061126f5760048101546202a3008101809111610fca57421061126f576006600582015491015462093a808101809111610fca57421015611268575b6005111561126457600190565b5f90565b505f611257565b505f90565b6001600160a01b03165f908152600260205260409020600781015460ff161561126f576002810154421061126f57603260038201541061126f576112bc600182015442610fde565b6301e1338090818111156112f55750506064905b54906064019081606411610fca57818102918183041490151715610fca576064900490565b606481029080820460641490151715610fca5704906112d0565b600260015414611320576002600155565b604051633ee5aeb560e01b8152600490fd5b69043c33c19375648000008110156113705769010f0cf064dd5920000081101561136a57683635c9adc5dea0000011156110cc575f90565b50600290565b50600390565b9060ff166001810361147d57506001600160a01b039081165f81815260066020526040902054600354919282821080611463575b6113b6575b505050505b565b5f1992808401908111610fca576113cc90610f5d565b90549060031b1c166113ff816113e184610f5d565b90919060018060a01b038084549260031b9316831b921b1916179055565b5f52600660205260405f2055600354801561144f570161143661142182610f5d565b81549060018060a01b039060031b1b19169055565b6003555f5260066020525f60408120555f8080806113af565b634e487b7160e01b5f52603160045260245ffd5b50838161146f84610f5d565b90549060031b1c16146113aa565b6002810361153757506001600160a01b039081165f8181526007602052604090205460045491928282108061151d575b6114b75750505050565b5f1992808401908111610fca576114cd90610f45565b90549060031b1c166114e2816113e184610f45565b5f52600760205260405f2055600454801561144f570161150461142182610f45565b6004555f5260076020525f60408120555f8080806113af565b50838161152984610f45565b90549060031b1c16146114ad565b6003146115415750565b6001600160a01b039081165f818152600860205260409020546005549192828210806115d8575b6115725750505050565b5f1992808401908111610fca5761158890610f19565b90549060031b1c1661159d816113e184610f19565b5f52600860205260405f2055600554801561144f57016115bf61142182610f19565b6005555f5260086020525f60408120555f8080806113af565b5083816115e484610f19565b90549060031b1c1614611568565b9060ff166001810361163c57506003546001600160a01b0382165f90815260066020526040902081905590600160401b821015611013576113e18260016113b49401600355610f5d565b6002810361168257506004546001600160a01b0382165f90815260076020526040902081905590600160401b821015611013576113e18260016113b49401600455610f45565b60031461168c5750565b6005546001600160a01b0382165f90815260086020526040902081905590600160401b821015611013576113e18260016113b49401600555610f19565b335f9081527f93b1800fa0f6c2eb72e3db8295c7ddf077348aa1d360b606cbc9d0ec6b23732960205260409020545f80516020611ce58339815191529060ff16156117115750565b6044906040519063e2517d3f60e01b82523360048301526024820152fd5b805f525f60205260405f20335f5260205260ff60405f205416156117115750565b90815f525f60205260405f209060018060a01b031690815f5260205260ff60405f205416155f146117c657815f525f60205260405f20815f5260205260405f20600160ff1982541617905533917f2f8788117e7eff1d82e926ec794901d17c78024a50270940304540a733656f0d5f80a4600190565b50505f90565b90815f525f60205260405f209060018060a01b031690815f5260205260ff60405f2054165f146117c657815f525f60205260405f20815f5260205260405f2060ff19815416905533917ff6391f5c32d9c69d2a47ea670b442974b53935d1edc7fd64eb21e047a839171b5f80a4600190565b8115611848570690565b634e487b7160e01b5f52601260045260245ffd5b9193909360039460035495861561199d575f96600a54966118d182600b5460405160208101918b835260018060601b0319808a60601b1660408401528a60601b16605483015260019c6001606884015244608884015260a883015260c882015260c881526118c981610ff7565b51902061183e565b90885f995b6118e8575b5050505050505050505090565b818b1080611994575b1561198f576119329a611938888861191b6119168f6119118b918b610fbd565b61183e565b610f5d565b9054908a1b1c6001600160a01b03169e8f9e6111d8565b9d611062565b611988576119458c6111e6565b15611988576119558c828b611c4b565b61198857808c61196861196e938c61112e565b526111d8565b9a895f80516020611c858339815191525f80a35b806118d6565b9a50611982565b6118db565b50838a106118f1565b505050505050505f90565b949391909592956004548015611aef575f9794611a1282600a54600b546040519060208201928d845260018060601b0319808a60601b1660408501528a60601b1660548401526002606884015244608884015260a883015260c882015260c881526118c981610ff7565b905f965b808b1080611ae6575b15611acf57611a55611a3d611a38866119118c88610fbd565b610f45565b905460039190911b1c6001600160a01b0316986111d8565b9a611a6187878b611062565b611ac857611a6e896111e6565b15611ac85789611a888a611a828484610fbd565b8b611c4b565b611ac0579089611968611a9e83611aa495610fbd565b8b61112e565b978a5f80516020611c858339815191525f80a35b999699611a16565b509750611ab8565b9750611ab8565b50989695505050505050611ae39250610fbd565b90565b50838810611a1f565b505050509250905090565b94939190959295600554938415611c40575f9794600a5491611b6882600b5460405160208101918d835260018060601b0319808a60601b1660408401528a60601b1660548301526003976003606884015244608884015260a883015260c882015260c881526118c981610ff7565b905f975b808c1080611c37575b15611c2257611ba8611b93611b8e866119118d88610fbd565b610f19565b905490871b1c6001600160a01b0316996111d8565b9b611bb488888c611062565b611c1b57611bc18a6111e6565b15611c1b578a611bdb8b611bd58484610fbd565b8c611c4b565b611c1357908a611968611bf183611bf795610fbd565b8c61112e565b988b5f80516020611c858339815191525f80a35b9a979a611b6c565b509850611c0b565b9850611c0b565b5099979650505050505050611ae39250610fbd565b50838910611b75565b965050505050905090565b9190915f5b838110611c5f57505050505f90565b6001600160a01b0380611c72838561112e565b5116908416146110d157600101611c5056fede39ce2e5364cdcf40844126fac74960e5adf16d2dd8f6b51c6c21fac575446ec5f4acddea86b156e4451c360afcf528d1e4b8b3f53595253a70b17bbee871245b88a2e3fc1a53234357ab78c104df11c33ccfa79886793654565ad70b8afb6eba78754574ac9ac55ea6aadf83645aac6b6ffa16b8e81d516867ac0126c33d0bf1da3442773e2d5709de4b464d7fc9f1f16caec8c07dd84f5fb4caa72c8cdef6a2646970667358221220616b757d4e5d1a4a3e19a201e4099e0e5ee398b1d398a8ae990f7e9a7fb3201f64736f6c63430008180033ad3228b676f7d3cd4284a5443f17f1962b36e491b30a40b2405849e597ba5fb5",
  "immutableReferences": {
    "22300": [
      {
        "length": 32,
        "start": 491
      },
      {
        "length": 32,
        "start": 1297
      },
      {
        "length": 32,
        "start": 3262
      }
    ]
  },
  "source": "// SPDX-License-Identifier: MIT\npragma solidity ^0.8.24;\n\nimport \"@openzeppelin/contracts/access/AccessControl.sol\";\nimport \"@openzeppelin/contracts/utils/ReentrancyGuard.sol\";\nimport \"../Token/ChessToken.sol\";\n\n/**\n * @title ArbitratorRegistry\n * @notice Registry for arbitrators who vote on chess game disputes\n * @dev Implements multi-level pools, timelock, and reputation system\n *\n * Key Features:\n * - 7-day timelock before voting power activates (flash loan protection)\n * - Three-tier stake pools for decentralization\n * - Reputation system (vote with majority = +1, against = -1)\n * - Cooldown after voting to prevent collusion\n * - Random selection weighted by stake\n */\ncontract ArbitratorRegistry is AccessControl, ReentrancyGuard {\n    bytes32 public constant DISPUTE_MANAGER_ROLE = keccak256(\"DISPUTE_MANAGER_ROLE\");\n\n    ChessToken public immutable chessToken;\n\n    // Timelock for voting power\n    uint256 public constant VOTING_POWER_DELAY = 7 days;\n\n    // Stake tiers for multi-level pools\n    uint256 public constant TIER1_MIN = 1000 * 10**18;   // 1,000 - 5,000 CHESS\n    uint256 public constant TIER1_MAX = 5000 * 10**18;\n    uint256 public constant TIER2_MIN = 5000 * 10**18;   // 5,000 - 20,000 CHESS\n    uint256 public constant TIER2_MAX = 20000 * 10**18;\n    uint256 public constant TIER3_MIN = 20000 * 10**18;  // 20,000+ CHESS\n\n    // Reputation thresholds\n    uint256 public constant INITIAL_REPUTATION = 100;\n    uint256 public constant MIN_REPUTATION = 50;  // Below this = removed\n\n    // Cooldown after voting\n    uint256 public constant VOTE_COOLDOWN = 48 hours;\n    uint256 public constant MAX_DISPUTES_PER_WEEK = 5;\n\n    struct Arbitrator {\n        uint256 stakedAmount;\n        uint256 stakedAt;\n        uint256 votingPowerActiveAt;\n        uint256 reputation;\n        uint256 lastVoteTime;\n        uint256 disputesThisWeek;\n        uint256 weekStartTime;\n        bool isActive;\n    }\n\n    mapping(address => Arbitrator) public arbitrators;\n\n    // Tier pools for random selection\n    address[] public tier1Arbitrators;\n    address[] public tier2Arbitrators;\n    address[] public tier3Arbitrators;\n\n    mapping(address => uint256) public tier1Index;\n    mapping(address => uint256) public tier2Index;\n    mapping(address => uint256) public tier3Index;\n\n    // Recent opponents tracking (for exclusion)\n    mapping(address => mapping(address => uint256)) public lastGameWith; // player => opponent => timestamp\n\n    // Stats\n    uint256 public totalStaked;\n    uint256 public totalArbitrators;\n\n    // Events\n    event ArbitratorRegistered(address indexed arbitrator, uint256 amount, uint8 tier);\n    event ArbitratorStakeIncreased(address indexed arbitrator, uint256 newAmount, uint8 newTier);\n    event ArbitratorUnstaked(address indexed arbitrator, uint256 amount);\n    event ReputationUpdated(address indexed arbitrator, uint256 oldRep, uint256 newRep);\n    event ArbitratorRemoved(address indexed arbitrator, string reason);\n    event ArbitratorSelected(uint256 indexed disputeId, address indexed arbitrator);\n\n    constructor(address _chessToken) {\n        require(_chessToken != address(0), \"Invalid token\");\n        chessToken = ChessToken(_chessToken);\n        _grantRole(DEFAULT_ADMIN_ROLE, msg.sender);\n    }\n\n    /**\n     * @notice Stake CHESS to become an arbitrator\n     * @param amount Amount of CHESS to stake\n     */\n    function stake(uint256 amount) external nonReentrant {\n        require(amount >= TIER1_MIN, \"Minimum stake not met\");\n\n        Arbitrator storage arb = arbitrators[msg.sender];\n\n        // Transfer tokens\n        require(chessToken.transferFrom(msg.sender, address(this), amount), \"Transfer failed\");\n\n        if (!arb.isActive) {\n            // New arbitrator\n            arb.stakedAt = block.timestamp;\n            arb.votingPowerActiveAt = block.timestamp + VOTING_POWER_DELAY;\n            arb.reputation = INITIAL_REPUTATION;\n            arb.weekStartTime = block.timestamp;\n            arb.isActive = true;\n            totalArbitrators++;\n        }\n\n        uint8 oldTier = _getTier(arb.stakedAmount);\n        arb.stakedAmount += amount;\n        totalStaked += amount;\n        uint8 newTier = _getTier(arb.stakedAmount);\n\n        // Update tier pools\n        if (oldTier != newTier) {\n            _removeFromTierPool(msg.sender, oldTier);\n            _addToTierPool(msg.sender, newTier);\n        } else if (oldTier == 0 && newTier > 0) {\n            _addToTierPool(msg.sender, newTier);\n        }\n\n        emit ArbitratorRegistered(msg.sender, arb.stakedAmount, newTier);\n    }\n\n    /**\n     * @notice Unstake CHESS (partial or full)\n     * @param amount Amount to unstake\n     */\n    function unstake(uint256 amount) external nonReentrant {\n        Arbitrator storage arb = arbitrators[msg.sender];\n        require(arb.isActive, \"Not an arbitrator\");\n        require(amount <= arb.stakedAmount, \"Insufficient stake\");\n\n        // Check if in cooldown (can't unstake during active disputes)\n        require(block.timestamp >= arb.lastVoteTime + VOTE_COOLDOWN, \"In cooldown\");\n\n        uint8 oldTier = _getTier(arb.stakedAmount);\n        arb.stakedAmount -= amount;\n        totalStaked -= amount;\n        uint8 newTier = _getTier(arb.stakedAmount);\n\n        // Update tier pools\n        if (oldTier != newTier) {\n            _removeFromTierPool(msg.sender, oldTier);\n            if (newTier > 0) {\n                _addToTierPool(msg.sender, newTier);\n            }\n        }\n\n        // If stake falls below minimum, deactivate\n        if (arb.stakedAmount < TIER1_MIN) {\n            arb.isActive = false;\n            totalArbitrators--;\n            emit ArbitratorRemoved(msg.sender, \"Stake below minimum\");\n        }\n\n        require(chessToken.transfer(msg.sender, amount), \"Transfer failed\");\n\n        emit ArbitratorUnstaked(msg.sender, amount);\n    }\n\n    /**\n     * @notice Get voting power for an arbitrator\n     * @dev Returns 0 if timelock not passed\n     */\n    function getVotingPower(address arbitrator) public view returns (uint256) {\n        Arbitrator storage arb = arbitrators[arbitrator];\n\n        if (!arb.isActive) return 0;\n        if (block.timestamp < arb.votingPowerActiveAt) return 0;\n        if (arb.reputation < MIN_REPUTATION) return 0;\n\n        // Base voting power = stake\n        // Time bonus: up to 2x after 1 year\n        uint256 timeStaked = block.timestamp - arb.stakedAt;\n        uint256 timeBonus = timeStaked > 365 days ? 100 : (timeStaked * 100) / 365 days;\n\n        return arb.stakedAmount * (100 + timeBonus) / 100;\n    }\n\n    /**\n     * @notice Select arbitrators for a dispute\n     * @param disputeId Dispute identifier\n     * @param player1 First player (to exclude)\n     * @param player2 Second player (to exclude)\n     * @param count Number of arbitrators per tier\n     * @return selected Array of selected arbitrator addresses\n     */\n    function selectArbitrators(\n        uint256 disputeId,\n        address player1,\n        address player2,\n        uint256 count\n    ) external onlyRole(DISPUTE_MANAGER_ROLE) returns (address[] memory selected) {\n        require(count > 0, \"Count must be > 0\");\n\n        uint256 totalSelected = count * 3; // From all 3 tiers\n        selected = new address[](totalSelected);\n        uint256 selectedCount = 0;\n\n        // Select from each tier\n        selectedCount = _selectFromTier(\n            tier1Arbitrators, disputeId, player1, player2, count, selected, selectedCount, 1\n        );\n        selectedCount = _selectFromTier(\n            tier2Arbitrators, disputeId, player1, player2, count, selected, selectedCount, 2\n        );\n        selectedCount = _selectFromTier(\n            tier3Arbitrators, disputeId, player1, player2, count, selected, selectedCount, 3\n        );\n\n        // Resize array if we couldn't fill all slots\n        if (selectedCount < totalSelected) {\n            address[] memory resized = new address[](selectedCount);\n            for (uint256 i = 0; i < selectedCount; i++) {\n                resized[i] = selected[i];\n            }\n            return resized;\n        }\n\n        return selected;\n    }\n\n    /**\n     * @notice Update reputation after dispute resolution\n     * @param arbitrator Arbitrator address\n     * @param votedWithMajority Whether they voted with majority\n     */\n    function updateReputation(address arbitrator, bool votedWithMajority)\n        external\n        onlyRole(DISPUTE_MANAGER_ROLE)\n    {\n        Arbitrator storage arb = arbitrators[arbitrator];\n        require(arb.isActive, \"Not active\");\n\n        uint256 oldRep = arb.reputation;\n\n        if (votedWithMajority) {\n            arb.reputation += 1;\n            if (arb.reputation > 200) arb.reputation = 200; // Cap\n        } else {\n            if (arb.reputation > 1) {\n                arb.reputation -= 1;\n            }\n        }\n\n        // Remove if reputation too low\n        if (arb.reputation < MIN_REPUTATION) {\n            uint8 tier = _getTier(arb.stakedAmount);\n            _removeFromTierPool(arbitrator, tier);\n            arb.isActive = false;\n            totalArbitrators--;\n            emit ArbitratorRemoved(arbitrator, \"Reputation too low\");\n        }\n\n        emit ReputationUpdated(arbitrator, oldRep, arb.reputation);\n    }\n\n    /**\n     * @notice Record that arbitrator voted (for cooldown)\n     */\n    function recordVote(address arbitrator) external onlyRole(DISPUTE_MANAGER_ROLE) {\n        Arbitrator storage arb = arbitrators[arbitrator];\n\n        // Reset weekly counter if new week\n        if (block.timestamp >= arb.weekStartTime + 7 days) {\n            arb.disputesThisWeek = 0;\n            arb.weekStartTime = block.timestamp;\n        }\n\n        arb.lastVoteTime = block.timestamp;\n        arb.disputesThisWeek++;\n    }\n\n    /**\n     * @notice Check if arbitrator is eligible to vote\n     */\n    function canVote(address arbitrator) public view returns (bool) {\n        Arbitrator storage arb = arbitrators[arbitrator];\n\n        if (!arb.isActive) return false;\n        if (block.timestamp < arb.votingPowerActiveAt) return false;\n        if (arb.reputation < MIN_REPUTATION) return false;\n        if (block.timestamp < arb.lastVoteTime + VOTE_COOLDOWN) return false;\n\n        // Check weekly limit\n        uint256 disputesThisWeek = arb.disputesThisWeek;\n        if (block.timestamp >= arb.weekStartTime + 7 days) {\n            disputesThisWeek = 0;\n        }\n        if (disputesThisWeek >= MAX_DISPUTES_PER_WEEK) return false;\n\n        return true;\n    }\n\n    /**\n     * @notice Record game between players (for future exclusion)\n     */\n    function recordGame(address player1, address player2) external onlyRole(DISPUTE_MANAGER_ROLE) {\n        lastGameWith[player1][player2] = block.timestamp;\n        lastGameWith[player2][player1] = block.timestamp;\n    }\n\n    /**\n     * @notice Check if arbitrator should be excluded from a dispute\n     */\n    function shouldExclude(address arbitrator, address player1, address player2) public view returns (bool) {\n        // Exclude if arbitrator is one of the players\n        if (arbitrator == player1 || arbitrator == player2) return true;\n\n        // Exclude if played against either player in last 30 days\n        uint256 thirtyDaysAgo = block.timestamp - 30 days;\n        if (lastGameWith[arbitrator][player1] > thirtyDaysAgo) return true;\n        if (lastGameWith[arbitrator][player2] > thirtyDaysAgo) return true;\n\n        return false;\n    }\n\n    // Internal functions\n\n    function _getTier(uint256 amount) internal pure returns (uint8) {\n        if (amount >= TIER3_MIN) return 3;\n        if (amount >= TIER2_MIN) return 2;\n        if (amount >= TIER1_MIN) return 1;\n        return 0;\n    }\n\n    function _addToTierPool(address arbitrator, uint8 tier) internal {\n        if (tier == 1) {\n            tier1Index[arbitrator] = tier1Arbitrators.length;\n            tier1Arbitrators.push(arbitrator);\n        } else if (tier == 2) {\n            tier2Index[arbitrator] = tier2Arbitrators.length;\n            tier2Arbitrators.push(arbitrator);\n        } else if (tier == 3) {\n            tier3Index[arbitrator] = tier3Arbitrators.length;\n            tier3Arbitrators.push(arbitrator);\n        }\n    }\n\n    function _removeFromTierPool(address arbitrator, uint8 tier) internal {\n        if (tier == 1) {\n            _removeFromTier1(arbitrator);\n        } else if (tier == 2) {\n            _removeFromTier2(arbitrator);\n        } else if (tier == 3) {\n            _removeFromTier3(arbitrator);\n        }\n    }\n\n    function _removeFromTier1(address arbitrator) internal {\n        uint256 index = tier1Index[arbitrator];\n        if (index < tier1Arbitrators.length && tier1Arbitrators[index] == arbitrator) {\n            address lastArb = tier1Arbitrators[tier1Arbitrators.length - 1];\n            tier1Arbitrators[index] = lastArb;\n            tier1Index[lastArb] = index;\n            tier1Arbitrators.pop();\n            delete tier1Index[arbitrator];\n        }\n    }\n\n    function _removeFromTier2(address arbitrator) internal {\n        uint256 index = tier2Index[arbitrator];\n        if (index < tier2Arbitrators.length && tier2Arbitrators[index] == arbitrator) {\n            address lastArb = tier2Arbitrators[tier2Arbitrators.length - 1];\n            tier2Arbitrators[index] = lastArb;\n            tier2Index[lastArb] = index;\n            tier2Arbitrators.pop();\n            delete tier2Index[arbitrator];\n        }\n    }\n\n    function _removeFromTier3(address arbitrator) internal {\n        uint256 index = tier3Index[arbitrator];\n        if (index < tier3Arbitrators.length && tier3Arbitrators[index] == arbitrator) {\n            address lastArb = tier3Arbitrators[tier3Arbitrators.length - 1];\n            tier3Arbitrators[index] = lastArb;\n            tier3Index[lastArb] = index;\n            tier3Arbitrators.pop();\n            delete tier3Index[arbitrator];\n        }\n    }\n\n    function _selectFromTier(\n        address[] storage pool,\n        uint256 disputeId,\n        address player1,\n        address player2,\n        uint256 count,\n        address[] memory selected,\n        uint256 startIndex,\n        uint256 salt\n    ) internal returns (uint256) {\n        if (pool.length == 0) return startIndex;\n\n        uint256 selectedFromTier = 0;\n        uint256 scanStart = _selectionSeed(disputeId, player1, player2, salt) % pool.length;\n        uint256 scanned = 0;\n\n        while (selectedFromTier < count && scanned < pool.length) {\n            address candidate = pool[(scanStart + scanned) % pool.length];\n            scanned++;\n\n            if (shouldExclude(candidate, player1, player2)) continue;\n            if (!canVote(candidate)) continue;\n            if (_isAlreadySelected(selected, startIndex + selectedFromTier, candidate)) continue;\n\n            selected[startIndex + selectedFromTier] = candidate;\n            selectedFromTier++;\n            emit ArbitratorSelected(disputeId, candidate);\n        }\n\n        return startIndex + selectedFromTier;\n    }\n\n    function _isAlreadySelected(\n        address[] memory selected,\n        uint256 selectedCount,\n        address candidate\n    ) internal pure returns (bool) {\n        for (uint256 i = 0; i < selectedCount; i++) {\n            if (selected[i] == candidate) {\n                return true;\n            }\n        }\n        return false;\n    }\n\n    function _selectionSeed(\n        uint256 disputeId,\n        address player1,\n        address player2,\n        uint256 salt\n    ) internal view returns (uint256) {\n        return uint256(\n            keccak256(\n                abi.encodePacked(\n                    disputeId,\n                    player1,\n                    player2,\n                    salt,\n                    block.prevrandao,\n                    totalStaked,\n                    totalArbitrators\n                )\n            )\n        );\n    }\n\n    // View functions\n\n    function getArbitratorInfo(address arbitrator) external view returns (\n        uint256 stakedAmount,\n        uint256 votingPower,\n        uint256 reputation,\n        uint8 tier,\n        bool isActive,\n        bool canVoteNow\n    ) {\n        Arbitrator storage arb = arbitrators[arbitrator];\n        stakedAmount = arb.stakedAmount;\n        votingPower = getVotingPower(arbitrator);\n        reputation = arb.reputation;\n        tier = _getTier(arb.stakedAmount);\n        isActive = arb.isActive;\n        canVoteNow = canVote(arbitrator);\n    }\n\n    function getTierCounts() external view returns (uint256 t1, uint256 t2, uint256 t3) {\n        t1 = tier1Arbitrators.length;\n        t2 = tier2Arbitrators.length;\n        t3 = tier3Arbitrators.length;\n    }\n}\n",
  "sourcePath": "/Users/jacopo/Documents/development/chessgame/ethereum/contracts/DAO/ArbitratorRegistry.sol",
  "compiler": {
    "name": "solc",
    "version": "0.8.24+commit.e11b9ed9.Emscripten.clang"
  },
  "schemaVersion": "3.4.16",
  "updatedAt": "2026-03-15T18:53:54.369Z",
  "devdoc": {
    "details": "Implements multi-level pools, timelock, and reputation system Key Features: - 7-day timelock before voting power activates (flash loan protection) - Three-tier stake pools for decentralization - Reputation system (vote with majority = +1, against = -1) - Cooldown after voting to prevent collusion - Random selection weighted by stake",
    "errors": {
      "AccessControlBadConfirmation()": [
        {
          "details": "The caller of a function is not the expected one. NOTE: Don't confuse with {AccessControlUnauthorizedAccount}."
        }
      ],
      "AccessControlUnauthorizedAccount(address,bytes32)": [
        {
          "details": "The `account` is missing a role."
        }
      ],
      "ReentrancyGuardReentrantCall()": [
        {
          "details": "Unauthorized reentrant call."
        }
      ]
    },
    "events": {
      "RoleAdminChanged(bytes32,bytes32,bytes32)": {
        "details": "Emitted when `newAdminRole` is set as ``role``'s admin role, replacing `previousAdminRole` `DEFAULT_ADMIN_ROLE` is the starting admin for all roles, despite {RoleAdminChanged} not being emitted to signal this."
      },
      "RoleGranted(bytes32,address,address)": {
        "details": "Emitted when `account` is granted `role`. `sender` is the account that originated the contract call. This account bears the admin role (for the granted role). Expected in cases where the role was granted using the internal {AccessControl-_grantRole}."
      },
      "RoleRevoked(bytes32,address,address)": {
        "details": "Emitted when `account` is revoked `role`. `sender` is the account that originated the contract call:   - if using `revokeRole`, it is the admin role bearer   - if using `renounceRole`, it is the role bearer (i.e. `account`)"
      }
    },
    "kind": "dev",
    "methods": {
      "getRoleAdmin(bytes32)": {
        "details": "Returns the admin role that controls `role`. See {grantRole} and {revokeRole}. To change a role's admin, use {_setRoleAdmin}."
      },
      "getVotingPower(address)": {
        "details": "Returns 0 if timelock not passed"
      },
      "grantRole(bytes32,address)": {
        "details": "Grants `role` to `account`. If `account` had not been already granted `role`, emits a {RoleGranted} event. Requirements: - the caller must have ``role``'s admin role. May emit a {RoleGranted} event."
      },
      "hasRole(bytes32,address)": {
        "details": "Returns `true` if `account` has been granted `role`."
      },
      "renounceRole(bytes32,address)": {
        "details": "Revokes `role` from the calling account. Roles are often managed via {grantRole} and {revokeRole}: this function's purpose is to provide a mechanism for accounts to lose their privileges if they are compromised (such as when a trusted device is misplaced). If the calling account had been revoked `role`, emits a {RoleRevoked} event. Requirements: - the caller must be `callerConfirmation`. May emit a {RoleRevoked} event."
      },
      "revokeRole(bytes32,address)": {
        "details": "Revokes `role` from `account`. If `account` had been granted `role`, emits a {RoleRevoked} event. Requirements: - the caller must have ``role``'s admin role. May emit a {RoleRevoked} event."
      },
      "selectArbitrators(uint256,address,address,uint256)": {
        "params": {
          "count": "Number of arbitrators per tier",
          "disputeId": "Dispute identifier",
          "player1": "First player (to exclude)",
          "player2": "Second player (to exclude)"
        },
        "returns": {
          "selected": "Array of selected arbitrator addresses"
        }
      },
      "stake(uint256)": {
        "params": {
          "amount": "Amount of CHESS to stake"
        }
      },
      "supportsInterface(bytes4)": {
        "details": "Returns true if this contract implements the interface defined by `interfaceId`. See the corresponding https://eips.ethereum.org/EIPS/eip-165#how-interfaces-are-identified[ERC section] to learn more about how these ids are created. This function call must use less than 30 000 gas."
      },
      "unstake(uint256)": {
        "params": {
          "amount": "Amount to unstake"
        }
      },
      "updateReputation(address,bool)": {
        "params": {
          "arbitrator": "Arbitrator address",
          "votedWithMajority": "Whether they voted with majority"
        }
      }
    },
    "title": "ArbitratorRegistry",
    "version": 1
  },
  "userdoc": {
    "kind": "user",
    "methods": {
      "canVote(address)": {
        "notice": "Check if arbitrator is eligible to vote"
      },
      "getVotingPower(address)": {
        "notice": "Get voting power for an arbitrator"
      },
      "recordGame(address,address)": {
        "notice": "Record game between players (for future exclusion)"
      },
      "recordVote(address)": {
        "notice": "Record that arbitrator voted (for cooldown)"
      },
      "selectArbitrators(uint256,address,address,uint256)": {
        "notice": "Select arbitrators for a dispute"
      },
      "shouldExclude(address,address,address)": {
        "notice": "Check if arbitrator should be excluded from a dispute"
      },
      "stake(uint256)": {
        "notice": "Stake CHESS to become an arbitrator"
      },
      "unstake(uint256)": {
        "notice": "Unstake CHESS (partial or full)"
      },
      "updateReputation(address,bool)": {
        "notice": "Update reputation after dispute resolution"
      }
    },
    "notice": "Registry for arbitrators who vote on chess game disputes",
    "version": 1
  }
}