{
  "contractName": "ArbitratorRegistry",
  "abi": [
    {
      "inputs": [
        {
          "internalType": "address",
          "name": "_chessToken",
          "type": "address"
        }
      ],
      "stateMutability": "nonpayable",
      "type": "constructor"
    },
    {
      "inputs": [],
      "name": "AccessControlBadConfirmation",
      "type": "error"
    },
    {
      "inputs": [
        {
          "internalType": "address",
          "name": "account",
          "type": "address"
        },
        {
          "internalType": "bytes32",
          "name": "neededRole",
          "type": "bytes32"
        }
      ],
      "name": "AccessControlUnauthorizedAccount",
      "type": "error"
    },
    {
      "inputs": [],
      "name": "ReentrancyGuardReentrantCall",
      "type": "error"
    },
    {
      "anonymous": false,
      "inputs": [
        {
          "indexed": true,
          "internalType": "address",
          "name": "arbitrator",
          "type": "address"
        },
        {
          "indexed": false,
          "internalType": "uint256",
          "name": "amount",
          "type": "uint256"
        },
        {
          "indexed": false,
          "internalType": "uint8",
          "name": "tier",
          "type": "uint8"
        }
      ],
      "name": "ArbitratorRegistered",
      "type": "event"
    },
    {
      "anonymous": false,
      "inputs": [
        {
          "indexed": true,
          "internalType": "address",
          "name": "arbitrator",
          "type": "address"
        },
        {
          "indexed": false,
          "internalType": "string",
          "name": "reason",
          "type": "string"
        }
      ],
      "name": "ArbitratorRemoved",
      "type": "event"
    },
    {
      "anonymous": false,
      "inputs": [
        {
          "indexed": true,
          "internalType": "uint256",
          "name": "disputeId",
          "type": "uint256"
        },
        {
          "indexed": true,
          "internalType": "address",
          "name": "arbitrator",
          "type": "address"
        }
      ],
      "name": "ArbitratorSelected",
      "type": "event"
    },
    {
      "anonymous": false,
      "inputs": [
        {
          "indexed": true,
          "internalType": "address",
          "name": "arbitrator",
          "type": "address"
        },
        {
          "indexed": false,
          "internalType": "uint256",
          "name": "newAmount",
          "type": "uint256"
        },
        {
          "indexed": false,
          "internalType": "uint8",
          "name": "newTier",
          "type": "uint8"
        }
      ],
      "name": "ArbitratorStakeIncreased",
      "type": "event"
    },
    {
      "anonymous": false,
      "inputs": [
        {
          "indexed": true,
          "internalType": "address",
          "name": "arbitrator",
          "type": "address"
        },
        {
          "indexed": false,
          "internalType": "uint256",
          "name": "amount",
          "type": "uint256"
        }
      ],
      "name": "ArbitratorUnstaked",
      "type": "event"
    },
    {
      "anonymous": false,
      "inputs": [
        {
          "indexed": true,
          "internalType": "address",
          "name": "arbitrator",
          "type": "address"
        },
        {
          "indexed": false,
          "internalType": "uint256",
          "name": "oldRep",
          "type": "uint256"
        },
        {
          "indexed": false,
          "internalType": "uint256",
          "name": "newRep",
          "type": "uint256"
        }
      ],
      "name": "ReputationUpdated",
      "type": "event"
    },
    {
      "anonymous": false,
      "inputs": [
        {
          "indexed": true,
          "internalType": "bytes32",
          "name": "role",
          "type": "bytes32"
        },
        {
          "indexed": true,
          "internalType": "bytes32",
          "name": "previousAdminRole",
          "type": "bytes32"
        },
        {
          "indexed": true,
          "internalType": "bytes32",
          "name": "newAdminRole",
          "type": "bytes32"
        }
      ],
      "name": "RoleAdminChanged",
      "type": "event"
    },
    {
      "anonymous": false,
      "inputs": [
        {
          "indexed": true,
          "internalType": "bytes32",
          "name": "role",
          "type": "bytes32"
        },
        {
          "indexed": true,
          "internalType": "address",
          "name": "account",
          "type": "address"
        },
        {
          "indexed": true,
          "internalType": "address",
          "name": "sender",
          "type": "address"
        }
      ],
      "name": "RoleGranted",
      "type": "event"
    },
    {
      "anonymous": false,
      "inputs": [
        {
          "indexed": true,
          "internalType": "bytes32",
          "name": "role",
          "type": "bytes32"
        },
        {
          "indexed": true,
          "internalType": "address",
          "name": "account",
          "type": "address"
        },
        {
          "indexed": true,
          "internalType": "address",
          "name": "sender",
          "type": "address"
        }
      ],
      "name": "RoleRevoked",
      "type": "event"
    },
    {
      "inputs": [],
      "name": "DEFAULT_ADMIN_ROLE",
      "outputs": [
        {
          "internalType": "bytes32",
          "name": "",
          "type": "bytes32"
        }
      ],
      "stateMutability": "view",
      "type": "function",
      "constant": true
    },
    {
      "inputs": [],
      "name": "DISPUTE_MANAGER_ROLE",
      "outputs": [
        {
          "internalType": "bytes32",
          "name": "",
          "type": "bytes32"
        }
      ],
      "stateMutability": "view",
      "type": "function",
      "constant": true
    },
    {
      "inputs": [],
      "name": "INITIAL_REPUTATION",
      "outputs": [
        {
          "internalType": "uint256",
          "name": "",
          "type": "uint256"
        }
      ],
      "stateMutability": "view",
      "type": "function",
      "constant": true
    },
    {
      "inputs": [],
      "name": "MAX_DISPUTES_PER_WEEK",
      "outputs": [
        {
          "internalType": "uint256",
          "name": "",
          "type": "uint256"
        }
      ],
      "stateMutability": "view",
      "type": "function",
      "constant": true
    },
    {
      "inputs": [],
      "name": "MIN_REPUTATION",
      "outputs": [
        {
          "internalType": "uint256",
          "name": "",
          "type": "uint256"
        }
      ],
      "stateMutability": "view",
      "type": "function",
      "constant": true
    },
    {
      "inputs": [],
      "name": "TIER1_MAX",
      "outputs": [
        {
          "internalType": "uint256",
          "name": "",
          "type": "uint256"
        }
      ],
      "stateMutability": "view",
      "type": "function",
      "constant": true
    },
    {
      "inputs": [],
      "name": "TIER1_MIN",
      "outputs": [
        {
          "internalType": "uint256",
          "name": "",
          "type": "uint256"
        }
      ],
      "stateMutability": "view",
      "type": "function",
      "constant": true
    },
    {
      "inputs": [],
      "name": "TIER2_MAX",
      "outputs": [
        {
          "internalType": "uint256",
          "name": "",
          "type": "uint256"
        }
      ],
      "stateMutability": "view",
      "type": "function",
      "constant": true
    },
    {
      "inputs": [],
      "name": "TIER2_MIN",
      "outputs": [
        {
          "internalType": "uint256",
          "name": "",
          "type": "uint256"
        }
      ],
      "stateMutability": "view",
      "type": "function",
      "constant": true
    },
    {
      "inputs": [],
      "name": "TIER3_MIN",
      "outputs": [
        {
          "internalType": "uint256",
          "name": "",
          "type": "uint256"
        }
      ],
      "stateMutability": "view",
      "type": "function",
      "constant": true
    },
    {
      "inputs": [],
      "name": "VOTE_COOLDOWN",
      "outputs": [
        {
          "internalType": "uint256",
          "name": "",
          "type": "uint256"
        }
      ],
      "stateMutability": "view",
      "type": "function",
      "constant": true
    },
    {
      "inputs": [],
      "name": "VOTING_POWER_DELAY",
      "outputs": [
        {
          "internalType": "uint256",
          "name": "",
          "type": "uint256"
        }
      ],
      "stateMutability": "view",
      "type": "function",
      "constant": true
    },
    {
      "inputs": [
        {
          "internalType": "address",
          "name": "",
          "type": "address"
        }
      ],
      "name": "arbitrators",
      "outputs": [
        {
          "internalType": "uint256",
          "name": "stakedAmount",
          "type": "uint256"
        },
        {
          "internalType": "uint256",
          "name": "stakedAt",
          "type": "uint256"
        },
        {
          "internalType": "uint256",
          "name": "votingPowerActiveAt",
          "type": "uint256"
        },
        {
          "internalType": "uint256",
          "name": "reputation",
          "type": "uint256"
        },
        {
          "internalType": "uint256",
          "name": "lastVoteTime",
          "type": "uint256"
        },
        {
          "internalType": "uint256",
          "name": "disputesThisWeek",
          "type": "uint256"
        },
        {
          "internalType": "uint256",
          "name": "weekStartTime",
          "type": "uint256"
        },
        {
          "internalType": "bool",
          "name": "isActive",
          "type": "bool"
        }
      ],
      "stateMutability": "view",
      "type": "function",
      "constant": true
    },
    {
      "inputs": [],
      "name": "chessToken",
      "outputs": [
        {
          "internalType": "contract ChessToken",
          "name": "",
          "type": "address"
        }
      ],
      "stateMutability": "view",
      "type": "function",
      "constant": true
    },
    {
      "inputs": [
        {
          "internalType": "bytes32",
          "name": "role",
          "type": "bytes32"
        }
      ],
      "name": "getRoleAdmin",
      "outputs": [
        {
          "internalType": "bytes32",
          "name": "",
          "type": "bytes32"
        }
      ],
      "stateMutability": "view",
      "type": "function",
      "constant": true
    },
    {
      "inputs": [
        {
          "internalType": "bytes32",
          "name": "role",
          "type": "bytes32"
        },
        {
          "internalType": "address",
          "name": "account",
          "type": "address"
        }
      ],
      "name": "grantRole",
      "outputs": [],
      "stateMutability": "nonpayable",
      "type": "function"
    },
    {
      "inputs": [
        {
          "internalType": "bytes32",
          "name": "role",
          "type": "bytes32"
        },
        {
          "internalType": "address",
          "name": "account",
          "type": "address"
        }
      ],
      "name": "hasRole",
      "outputs": [
        {
          "internalType": "bool",
          "name": "",
          "type": "bool"
        }
      ],
      "stateMutability": "view",
      "type": "function",
      "constant": true
    },
    {
      "inputs": [
        {
          "internalType": "address",
          "name": "",
          "type": "address"
        },
        {
          "internalType": "address",
          "name": "",
          "type": "address"
        }
      ],
      "name": "lastGameWith",
      "outputs": [
        {
          "internalType": "uint256",
          "name": "",
          "type": "uint256"
        }
      ],
      "stateMutability": "view",
      "type": "function",
      "constant": true
    },
    {
      "inputs": [
        {
          "internalType": "bytes32",
          "name": "role",
          "type": "bytes32"
        },
        {
          "internalType": "address",
          "name": "callerConfirmation",
          "type": "address"
        }
      ],
      "name": "renounceRole",
      "outputs": [],
      "stateMutability": "nonpayable",
      "type": "function"
    },
    {
      "inputs": [
        {
          "internalType": "bytes32",
          "name": "role",
          "type": "bytes32"
        },
        {
          "internalType": "address",
          "name": "account",
          "type": "address"
        }
      ],
      "name": "revokeRole",
      "outputs": [],
      "stateMutability": "nonpayable",
      "type": "function"
    },
    {
      "inputs": [
        {
          "internalType": "bytes4",
          "name": "interfaceId",
          "type": "bytes4"
        }
      ],
      "name": "supportsInterface",
      "outputs": [
        {
          "internalType": "bool",
          "name": "",
          "type": "bool"
        }
      ],
      "stateMutability": "view",
      "type": "function",
      "constant": true
    },
    {
      "inputs": [
        {
          "internalType": "uint256",
          "name": "",
          "type": "uint256"
        }
      ],
      "name": "tier1Arbitrators",
      "outputs": [
        {
          "internalType": "address",
          "name": "",
          "type": "address"
        }
      ],
      "stateMutability": "view",
      "type": "function",
      "constant": true
    },
    {
      "inputs": [
        {
          "internalType": "address",
          "name": "",
          "type": "address"
        }
      ],
      "name": "tier1Index",
      "outputs": [
        {
          "internalType": "uint256",
          "name": "",
          "type": "uint256"
        }
      ],
      "stateMutability": "view",
      "type": "function",
      "constant": true
    },
    {
      "inputs": [
        {
          "internalType": "uint256",
          "name": "",
          "type": "uint256"
        }
      ],
      "name": "tier2Arbitrators",
      "outputs": [
        {
          "internalType": "address",
          "name": "",
          "type": "address"
        }
      ],
      "stateMutability": "view",
      "type": "function",
      "constant": true
    },
    {
      "inputs": [
        {
          "internalType": "address",
          "name": "",
          "type": "address"
        }
      ],
      "name": "tier2Index",
      "outputs": [
        {
          "internalType": "uint256",
          "name": "",
          "type": "uint256"
        }
      ],
      "stateMutability": "view",
      "type": "function",
      "constant": true
    },
    {
      "inputs": [
        {
          "internalType": "uint256",
          "name": "",
          "type": "uint256"
        }
      ],
      "name": "tier3Arbitrators",
      "outputs": [
        {
          "internalType": "address",
          "name": "",
          "type": "address"
        }
      ],
      "stateMutability": "view",
      "type": "function",
      "constant": true
    },
    {
      "inputs": [
        {
          "internalType": "address",
          "name": "",
          "type": "address"
        }
      ],
      "name": "tier3Index",
      "outputs": [
        {
          "internalType": "uint256",
          "name": "",
          "type": "uint256"
        }
      ],
      "stateMutability": "view",
      "type": "function",
      "constant": true
    },
    {
      "inputs": [],
      "name": "totalArbitrators",
      "outputs": [
        {
          "internalType": "uint256",
          "name": "",
          "type": "uint256"
        }
      ],
      "stateMutability": "view",
      "type": "function",
      "constant": true
    },
    {
      "inputs": [],
      "name": "totalStaked",
      "outputs": [
        {
          "internalType": "uint256",
          "name": "",
          "type": "uint256"
        }
      ],
      "stateMutability": "view",
      "type": "function",
      "constant": true
    },
    {
      "inputs": [
        {
          "internalType": "uint256",
          "name": "amount",
          "type": "uint256"
        }
      ],
      "name": "stake",
      "outputs": [],
      "stateMutability": "nonpayable",
      "type": "function"
    },
    {
      "inputs": [
        {
          "internalType": "uint256",
          "name": "amount",
          "type": "uint256"
        }
      ],
      "name": "unstake",
      "outputs": [],
      "stateMutability": "nonpayable",
      "type": "function"
    },
    {
      "inputs": [
        {
          "internalType": "address",
          "name": "arbitrator",
          "type": "address"
        }
      ],
      "name": "getVotingPower",
      "outputs": [
        {
          "internalType": "uint256",
          "name": "",
          "type": "uint256"
        }
      ],
      "stateMutability": "view",
      "type": "function",
      "constant": true
    },
    {
      "inputs": [
        {
          "internalType": "uint256",
          "name": "disputeId",
          "type": "uint256"
        },
        {
          "internalType": "address",
          "name": "player1",
          "type": "address"
        },
        {
          "internalType": "address",
          "name": "player2",
          "type": "address"
        },
        {
          "internalType": "uint256",
          "name": "count",
          "type": "uint256"
        }
      ],
      "name": "selectArbitrators",
      "outputs": [
        {
          "internalType": "address[]",
          "name": "selected",
          "type": "address[]"
        }
      ],
      "stateMutability": "nonpayable",
      "type": "function"
    },
    {
      "inputs": [
        {
          "internalType": "address",
          "name": "arbitrator",
          "type": "address"
        },
        {
          "internalType": "bool",
          "name": "votedWithMajority",
          "type": "bool"
        }
      ],
      "name": "updateReputation",
      "outputs": [],
      "stateMutability": "nonpayable",
      "type": "function"
    },
    {
      "inputs": [
        {
          "internalType": "address",
          "name": "arbitrator",
          "type": "address"
        }
      ],
      "name": "recordVote",
      "outputs": [],
      "stateMutability": "nonpayable",
      "type": "function"
    },
    {
      "inputs": [
        {
          "internalType": "address",
          "name": "arbitrator",
          "type": "address"
        }
      ],
      "name": "canVote",
      "outputs": [
        {
          "internalType": "bool",
          "name": "",
          "type": "bool"
        }
      ],
      "stateMutability": "view",
      "type": "function",
      "constant": true
    },
    {
      "inputs": [
        {
          "internalType": "address",
          "name": "player1",
          "type": "address"
        },
        {
          "internalType": "address",
          "name": "player2",
          "type": "address"
        }
      ],
      "name": "recordGame",
      "outputs": [],
      "stateMutability": "nonpayable",
      "type": "function"
    },
    {
      "inputs": [
        {
          "internalType": "address",
          "name": "arbitrator",
          "type": "address"
        },
        {
          "internalType": "address",
          "name": "player1",
          "type": "address"
        },
        {
          "internalType": "address",
          "name": "player2",
          "type": "address"
        }
      ],
      "name": "shouldExclude",
      "outputs": [
        {
          "internalType": "bool",
          "name": "",
          "type": "bool"
        }
      ],
      "stateMutability": "view",
      "type": "function",
      "constant": true
    },
    {
      "inputs": [
        {
          "internalType": "address",
          "name": "arbitrator",
          "type": "address"
        }
      ],
      "name": "getArbitratorInfo",
      "outputs": [
        {
          "internalType": "uint256",
          "name": "stakedAmount",
          "type": "uint256"
        },
        {
          "internalType": "uint256",
          "name": "votingPower",
          "type": "uint256"
        },
        {
          "internalType": "uint256",
          "name": "reputation",
          "type": "uint256"
        },
        {
          "internalType": "uint8",
          "name": "tier",
          "type": "uint8"
        },
        {
          "internalType": "bool",
          "name": "isActive",
          "type": "bool"
        },
        {
          "internalType": "bool",
          "name": "canVoteNow",
          "type": "bool"
        }
      ],
      "stateMutability": "view",
      "type": "function",
      "constant": true
    },
    {
      "inputs": [],
      "name": "getTierCounts",
      "outputs": [
        {
          "internalType": "uint256",
          "name": "t1",
          "type": "uint256"
        },
        {
          "internalType": "uint256",
          "name": "t2",
          "type": "uint256"
        },
        {
          "internalType": "uint256",
          "name": "t3",
          "type": "uint256"
        }
      ],
      "stateMutability": "view",
      "type": "function",
      "constant": true
    }
  ],
  "bytecode": "0x60a0346200009757601f62001fe138819003918201601f19168301916001600160401b038311848410176200009b578084926020946040528339810103126200009757516001600160a01b03811690819003620000975760018055801562000097576080526200006f33620000af565b50604051611ea190816200014082396080518181816101ed015281816105180152610cff0152f35b5f80fd5b634e487b7160e01b5f52604160045260245ffd5b6001600160a01b03165f8181527fad3228b676f7d3cd4284a5443f17f1962b36e491b30a40b2405849e597ba5fb5602052604081205490919060ff166200013b57818052816020526040822081835260205260408220600160ff1982541617905533917f2f8788117e7eff1d82e926ec794901d17c78024a50270940304540a733656f0d8180a4600190565b509056fe6080604081815260049182361015610015575f80fd5b5f92833560e01c91826301ffc9a714610ecf575081631193849814610e9757816311ee134a14610e6c57816320874a8f14610e50578163248a9ca314610e2657816324ebae69146102205781632e17de7814610c2d5781632f2ff15d14610c035781632f8d14f914610bd357816336568abe14610b8d578163403644f314610b6f57816348c534e014610b0d57816351d0ea3714610a845781635ecd37e2146103f45781635f119ccf14610a44578163668a2fcd14610a0d578163697c6045146109f15781636a03c5a1146109a85781636c0dd519146109705781637661082d146109525781637961954c1461092e5781637b057258146109125781637bc303ab146108ce5781637d3b24c11461084b578163817b1cd21461082c57816391d14854146107e657816392c1ff441461075957816399056c3c146106d2578163a217fddf146106b7578163a694fc3a146104b5578163adfaa72e14610486578163b77d00351461045e578163bb4d443614610431578163bd825f35146103f9578163c5f7dd3c146103f4578163ccc3b19c146103d5578163d547741f14610392578163e2c13e321461022557508063e4bd07c4146102205763fd36b435146101da575f80fd5b3461021c578160031936011261021c57517f00000000000000000000000000000000000000000000000000000000000000006001600160a01b03168152602090f35b5080fd5b610fc4565b83833461021c578060031936011261021c5761023f610f22565b90602435801515810361038e5761025461100c565b60018060a01b038316928385526002602052828520600781019060ff8254161561038a5760038101928354945f1461035357835460018101809111610340575f80516020611e0c833981519152979899508060c891865511610337575b60328454106102cd575b5050505482519182526020820152a280f35b6102da6102e0925461154b565b9061168c565b60ff1981541690556102f3600b5461124b565b600b55845f80516020611e4c8339815191526060855160208152601260208201527152657075746174696f6e20746f6f206c6f7760701b87820152a28680806102bb565b60c884556102b1565b634e487b7160e01b895260118a52602489fd5b60018511610373575b5f80516020611e0c833981519152969798506102b1565b5f198501858111610340578455969750879661035c565b8680fd5b8380fd5b919050346103d157806003193601126103d1576103cd91356103c860016103b7610f3c565b938387528660205286200154611072565b61110f565b5080f35b8280fd5b50503461021c578160031936011261021c57602090600b549051908152f35b610fe8565b50503461021c57602036600319011261021c5760209181906001600160a01b03610421610f22565b1681526007845220549051908152f35b50503461021c57602036600319011261021c57602090610457610452610f22565b611257565b9051908152f35b50503461021c578160031936011261021c57602090515f80516020611e2c8339815191528152f35b50503461021c57602036600319011261021c576020906104ac6104a7610f22565b61142f565b90519015158152f35b83833461021c57602090816003193601126103d15783356104d461121b565b683635c9adc5dea00000811061038e57338085526002845282852083516323b872dd60e01b81528781019290925230602483015260448201839052908481606481897f00000000000000000000000000000000000000000000000000000000000000006001600160a01b03165af19081156106ad578691610680575b501561067c5760078101805460ff811615610610575b50505f80516020611dec8339815191529394955061059d8154926105938161058d8661154b565b956111ec565b8355600a546111ec565b600a556105aa815461154b565b60ff818116939081168085146105e35750906105c96105cf923361168c565b33611594565b549382519485528401523392a26001805580f35b90501580610607575b6105f7575b506105cf565b6106019033611594565b866105f1565b508215156105ec565b42600184015562093a804201804211610669575f80516020611dec833981519152969798509060019160028501556064600385015542600685015560ff191617905561065d600b5461120d565b600b5585949387610566565b634e487b7160e01b885260118952602488fd5b8480fd5b6106a09150853d87116106a6575b61069881836111b1565b8101906111d4565b87610550565b503d61068e565b84513d88823e3d90fd5b50503461021c578160031936011261021c5751908152602090f35b50503461021c57602036600319011261021c57908160c0926106f2610f22565b6001600160a01b0381168452600260205292208054929060ff9061071583611257565b9360038201549061073584600761072b8a61154b565b950154169561142f565b958151978852602088015286015216606084015215156080830152151560a0820152f35b83833461021c57602036600319011261021c57610774610f22565b61077c61100c565b6001600160a01b031682526002602052812060068101805462093a80810194919085106107d357600593944210156107c5575b504290820155016107c0815461120d565b905580f35b8484840155429055846107af565b634e487b7160e01b845260118252602484fd5b9050346103d157816003193601126103d1578160209360ff92610807610f3c565b903582528186528282206001600160a01b039091168252855220549151911615158152f35b50503461021c578160031936011261021c57602090600a549051908152f35b9050346103d15760803660031901126103d1576108859061086a610f3c565b610872610f52565b9061087b61100c565b6064359235611394565b815192839260208080860192818752855180945286019401925b8281106108ae57505050500390f35b83516001600160a01b03168552869550938101939281019260010161089f565b9050346103d15760203660031901126103d157359160035483101561090f57506108f9602092610fac565b60018060a01b0391549060031b1c169051908152f35b80fd5b50503461021c578160031936011261021c576020905160648152f35b50503461021c578160031936011261021c5760209051683635c9adc5dea000008152f35b50503461021c578160031936011261021c576020905162093a808152f35b50503461021c57602036600319011261021c5760209181906001600160a01b03610998610f22565b1681526008845220549051908152f35b50503461021c578060031936011261021c57806020926109c6610f22565b6109ce610f3c565b6001600160a01b0391821683526009865283832091168252845220549051908152f35b50503461021c578160031936011261021c576020905160328152f35b50503461021c57606036600319011261021c576020906104ac610a2e610f22565b610a36610f3c565b610a3e610f52565b916114bc565b82843461090f57602036600319011261090f578235925483101561090f5750610a6e602092610f94565b905491519160018060a01b039160031b1c168152f35b9050346103d15760203660031901126103d1576101009282906001600160a01b03610aad610f22565b1681526002602052208054926001820154926002830154906003840154908401549160058501549360ff600760068801549701541696815198895260208901528701526060860152608085015260a084015260c0830152151560e0820152f35b50503461021c578060031936011261021c57610b27610f22565b610b2f610f3c565b610b3761100c565b60018060a01b038092169182855260096020528385209116845260205242828420556009602052818320908352602052429082205580f35b50503461021c578160031936011261021c57602090516202a3008152f35b83833461021c578060031936011261021c57610ba7610f3c565b90336001600160a01b03831603610bc457506103cd91923561110f565b5163334bd91960e11b81528390fd5b919050346103d157826003193601126103d157606092506003549154906005549181519384526020840152820152f35b919050346103d157806003193601126103d1576103cd9135610c2860016103b7610f3c565b611093565b919050346103d15760208060031936011261038e57823592610c4d61121b565b33855260028252828520600781019060ff8254161561038a57805490818711610e0f57838101546202a3008101809111610e13574210610e0f5781610ca588610c9f683635c9adc5dea000009561154b565b9261123e565b8255610cb388600a5461123e565b600a55610cc0825461154b565b9060ff8216908160ff821603610de9575b5050505410610d94575b50825163a9059cbb60e01b81523391810191909152602481018490528181604481887f00000000000000000000000000000000000000000000000000000000000000006001600160a01b03165af1908115610d8a578591610d6d575b501561038e577f4b4803db5a516ab7afb1cf06da5811f83efd88abd80e1ad1167c69980337287191519283523392a26001805580f35b610d849150823d84116106a65761069881836111b1565b5f610d37565b83513d87823e3d90fd5b60ff198154169055610da7600b5461124b565b600b558251828152601383820152725374616b652062656c6f77206d696e696d756d60681b848201525f80516020611e4c83398151915260603392a25f610cdb565b610df3903361168c565b610dff575b8080610cd1565b610e099033611594565b5f610df8565b8780fd5b634e487b7160e01b895260118552602489fd5b9050346103d15760203660031901126103d157816020936001923581528085522001549051908152f35b50503461021c578160031936011261021c576020905160058152f35b9050346103d15760203660031901126103d157359160055483101561090f5750610a6e602092610f68565b50503461021c57602036600319011261021c5760209181906001600160a01b03610ebf610f22565b1681526006845220549051908152f35b8491346103d15760203660031901126103d1573563ffffffff60e01b81168091036103d15760209250637965db0b60e01b8114908115610f11575b5015158152f35b6301ffc9a760e01b14905083610f0a565b600435906001600160a01b0382168203610f3857565b5f80fd5b602435906001600160a01b0382168203610f3857565b604435906001600160a01b0382168203610f3857565b600554811015610f805760055f5260205f2001905f90565b634e487b7160e01b5f52603260045260245ffd5b600454811015610f805760045f5260205f2001905f90565b600354811015610f805760035f5260205f2001905f90565b34610f38575f366003190112610f3857602060405169010f0cf064dd592000008152f35b34610f38575f366003190112610f3857602060405169043c33c19375648000008152f35b335f9081527f93b1800fa0f6c2eb72e3db8295c7ddf077348aa1d360b606cbc9d0ec6b23732960205260409020545f80516020611e2c8339815191529060ff16156110545750565b6044906040519063e2517d3f60e01b82523360048301526024820152fd5b805f525f60205260405f20335f5260205260ff60405f205416156110545750565b905f9180835282602052604083209160018060a01b03169182845260205260ff604084205416155f1461110a57808352826020526040832082845260205260408320600160ff198254161790557f2f8788117e7eff1d82e926ec794901d17c78024a50270940304540a733656f0d339380a4600190565b505090565b905f9180835282602052604083209160018060a01b03169182845260205260ff6040842054165f1461110a5780835282602052604083208284526020526040832060ff1981541690557ff6391f5c32d9c69d2a47ea670b442974b53935d1edc7fd64eb21e047a839171b339380a4600190565b60a081019081106001600160401b0382111761119d57604052565b634e487b7160e01b5f52604160045260245ffd5b601f909101601f19168101906001600160401b0382119082101761119d57604052565b90816020910312610f3857518015158103610f385790565b919082018092116111f957565b634e487b7160e01b5f52601160045260245ffd5b5f1981146111f95760010190565b60026001541461122c576002600155565b604051633ee5aeb560e01b8152600490fd5b919082039182116111f957565b80156111f9575f190190565b6001600160a01b03165f908152600260205260408120600781015490919060ff16156113325760028201544210611332576032600383015410611332576112a260018301544261123e565b6301e1338090818111156113045750506064915b549160640191826064116112f0578281029281840414901517156112dc57506064900490565b634e487b7160e01b81526011600452602490fd5b634e487b7160e01b82526011600452602482fd5b60648102908082046064149015171561131e5704916112b6565b634e487b7160e01b83526011600452602483fd5b905090565b6001600160401b03811161119d5760051b60200190565b9061135882611337565b61136560405191826111b1565b8281528092611376601f1991611337565b0190602036910137565b8051821015610f805760209160051b010190565b93929091938115610f385760038202928284046003036111f9576113de926113bb8561134e565b96826113d86113ce8a858582988a611900565b858585858a611aa6565b94611c4e565b9081106113e85750565b6113f18161134e565b905f5b818110611402575090925050565b61142a906001600160a01b036114188288611380565b51166114248286611380565b5261120d565b6113f4565b6001600160a01b03165f908152600260205260408120600781015460ff16156114b857600281015442106114b85760326003820154106114b85760048101546202a300810180911161131e5742106114b8576006600582015491015462093a80810180911161131e574210156114b1575b600511156114ae5750600190565b90565b50806114a0565b5090565b6001600160a01b0391821692908216918284148015611540575b6115375762278cff194201924284116111f9575f948186526009602052604086209086526020528360408620541161152d578452600960205260408420911683526020526040822054116115275790565b50600190565b5050505050600190565b50505050600190565b5080821683146114d6565b69043c33c193756480000081101561158e5769010f0cf064dd5920000081101561158857683635c9adc5dea000001115611583575f90565b600190565b50600290565b50600390565b9060ff16600181036115ff57506003546001600160a01b0382165f90815260066020526040902081905590600160401b82101561119d576115de8260016115fd9401600355610fac565b90919082549060031b9160018060a01b03809116831b921b1916179055565b565b6002810361164557506004546001600160a01b0382165f90815260076020526040902081905590600160401b82101561119d576115de8260016115fd9401600455610f94565b60031461164f5750565b6005546001600160a01b0382165f90815260086020526040902081905590600160401b82101561119d576115de8260016115fd9401600555610f68565b9060ff166001810361178957506001600160a01b039081165f8181526006602052604081205460035491938282108061176f575b6116cc575b5050505050565b5f199280840190811161175b576116e290610fac565b90549060031b1c166116f7816115de84610fac565b8452600660205260408420556003548015611747570161172e61171982610fac565b81549060018060a01b039060031b1b19169055565b6003558152600660205260408120555f808080806116c5565b634e487b7160e01b84526031600452602484fd5b634e487b7160e01b86526011600452602486fd5b50838161177b84610fac565b90549060031b1c16146116c0565b6002810361184457506001600160a01b039081165f8181526007602052604081205460045491938282108061182a575b6117c4575050505050565b5f199280840190811161175b576117da90610f94565b90549060031b1c166117ef816115de84610f94565b8452600760205260408420556004548015611747570161181161171982610f94565b6004558152600760205260408120555f808080806116c5565b50838161183684610f94565b90549060031b1c16146117b9565b60031461184e5750565b6001600160a01b039081165f818152600860205260408120546005549193828210806118e6575b611880575050505050565b5f199280840190811161175b5761189690610f68565b90549060031b1c166118ab816115de84610f68565b845260086020526040842055600554801561174757016118cd61171982610f68565b6005558152600860205260408120555f808080806116c5565b5083816118f284610f68565b90549060031b1c1614611875565b9192939093600380549485159081611a9a575f97889760019581871b90828204600203611a8657879695949a939998975b611944575b505050505050505050505090565b909192939495969798999a81811080611a7d575b15611a775790859392916040805160208101918d8352429082015287606082015260808681830152815261198b81611182565b51902094611a63578c95848d96066119a290610fac565b90546001600160a01b03918b1b1c81169e90918f91906119c19061120d565b9e6119cb926114bc565b611a5a576119d88e61142f565b15611a5a575f90818f5b8d858310611a2c575b50505050611a2457611a03818e6114248c948e611380565b9c8b5f80516020611dcc8339815191525f80a35b9695949a93999897611931565b9b5087611a17565b611a37838592611380565b511614611a4d57611a479061120d565b8f6119e2565b505050885f808f8d6119eb565b509b5087611a17565b634e487b7160e01b5f52601260045260245ffd5b9a611936565b50828510611958565b634e487b7160e01b8c52601160045260248cfd5b50505050505050505f90565b93949295916004549182159283611c42575f948599828060011b04600203611c2e5793919992909894995b84871080611c22575b15611c0f57908a92916040805160208101918c83524290820152866060820152608083818301528152611b0c81611182565b5190209b611a6357611b488383611b28611b429f859006610f94565b905460039190911b1c6001600160a01b03169e8f9861120d565b976114bc565b611c0157611b558c61142f565b15611c01575f9a8b5b611b688a8c6111ec565b811015611bef578d6001600160a01b03611b82838c611380565b511614611b9757611b929061120d565b611b5e565b50929591949b97909396809b508960015b611be6576114248392611bbf611bc5958d946111ec565b90611380565b96895f80516020611dcc8339815191525f80a35b9391999290989499611ad1565b50509650611bd9565b50929591949b9790939689819c611ba8565b929599919490939a50611bd9565b50505050505091506114ae9293506111ec565b508060011b8410611ada565b634e487b7160e01b87526011600452602487fd5b50505050935091505090565b9394929591600554918215611dc0575f938498848060011b0460020361175b5792979390975b83861080611db4575b15611da2576040805160208101918a835242908201528b6060820152608084818301528152611cab81611182565b5190208215611a6357611cc283611cda9206610f68565b905460039190911b1c6001600160a01b03169a61120d565b92611ce682828d6114bc565b611d9557611cf38b61142f565b15611d95575f998a5b611d06898b6111ec565b811015611d84578c6001600160a01b03611d20838b611380565b511614611d3557611d309061120d565b611cfc565b509295995092999560019491945b611d7d578087611424611d59611d5f948c6111ec565b8d611380565b95885f80516020611dcc8339815191525f80a35b9297939097611c74565b9550611d73565b509295999a9690939a949194611d43565b9299509297909397611d73565b505050505091506114ae9293506111ec565b508160011b8a10611c7d565b50505093509150509056fede39ce2e5364cdcf40844126fac74960e5adf16d2dd8f6b51c6c21fac575446ec5f4acddea86b156e4451c360afcf528d1e4b8b3f53595253a70b17bbee871245b88a2e3fc1a53234357ab78c104df11c33ccfa79886793654565ad70b8afb6eba78754574ac9ac55ea6aadf83645aac6b6ffa16b8e81d516867ac0126c33d0bf1da3442773e2d5709de4b464d7fc9f1f16caec8c07dd84f5fb4caa72c8cdef6a26469706673582212203080e8917aee472af1042d9ffc8d9359772c679d0c88c2a99d3e66e728c6a2b564736f6c63430008140033",
  "immutableReferences": {
    "1442": [
      {
        "length": 32,
        "start": 493
      },
      {
        "length": 32,
        "start": 1304
      },
      {
        "length": 32,
        "start": 3327
      }
    ]
  },
  "source": "// SPDX-License-Identifier: MIT\npragma solidity ^0.8.19;\n\nimport \"@openzeppelin/contracts/access/AccessControl.sol\";\nimport \"@openzeppelin/contracts/utils/ReentrancyGuard.sol\";\nimport \"../Token/ChessToken.sol\";\n\n/**\n * @title ArbitratorRegistry\n * @notice Registry for arbitrators who vote on chess game disputes\n * @dev Implements multi-level pools, timelock, and reputation system\n *\n * Key Features:\n * - 7-day timelock before voting power activates (flash loan protection)\n * - Three-tier stake pools for decentralization\n * - Reputation system (vote with majority = +1, against = -1)\n * - Cooldown after voting to prevent collusion\n * - Random selection weighted by stake\n */\ncontract ArbitratorRegistry is AccessControl, ReentrancyGuard {\n    bytes32 public constant DISPUTE_MANAGER_ROLE = keccak256(\"DISPUTE_MANAGER_ROLE\");\n\n    ChessToken public immutable chessToken;\n\n    // Timelock for voting power\n    uint256 public constant VOTING_POWER_DELAY = 7 days;\n\n    // Stake tiers for multi-level pools\n    uint256 public constant TIER1_MIN = 1000 * 10**18;   // 1,000 - 5,000 CHESS\n    uint256 public constant TIER1_MAX = 5000 * 10**18;\n    uint256 public constant TIER2_MIN = 5000 * 10**18;   // 5,000 - 20,000 CHESS\n    uint256 public constant TIER2_MAX = 20000 * 10**18;\n    uint256 public constant TIER3_MIN = 20000 * 10**18;  // 20,000+ CHESS\n\n    // Reputation thresholds\n    uint256 public constant INITIAL_REPUTATION = 100;\n    uint256 public constant MIN_REPUTATION = 50;  // Below this = removed\n\n    // Cooldown after voting\n    uint256 public constant VOTE_COOLDOWN = 48 hours;\n    uint256 public constant MAX_DISPUTES_PER_WEEK = 5;\n\n    struct Arbitrator {\n        uint256 stakedAmount;\n        uint256 stakedAt;\n        uint256 votingPowerActiveAt;\n        uint256 reputation;\n        uint256 lastVoteTime;\n        uint256 disputesThisWeek;\n        uint256 weekStartTime;\n        bool isActive;\n    }\n\n    mapping(address => Arbitrator) public arbitrators;\n\n    // Tier pools for random selection\n    address[] public tier1Arbitrators;\n    address[] public tier2Arbitrators;\n    address[] public tier3Arbitrators;\n\n    mapping(address => uint256) public tier1Index;\n    mapping(address => uint256) public tier2Index;\n    mapping(address => uint256) public tier3Index;\n\n    // Recent opponents tracking (for exclusion)\n    mapping(address => mapping(address => uint256)) public lastGameWith; // player => opponent => timestamp\n\n    // Stats\n    uint256 public totalStaked;\n    uint256 public totalArbitrators;\n\n    // Events\n    event ArbitratorRegistered(address indexed arbitrator, uint256 amount, uint8 tier);\n    event ArbitratorStakeIncreased(address indexed arbitrator, uint256 newAmount, uint8 newTier);\n    event ArbitratorUnstaked(address indexed arbitrator, uint256 amount);\n    event ReputationUpdated(address indexed arbitrator, uint256 oldRep, uint256 newRep);\n    event ArbitratorRemoved(address indexed arbitrator, string reason);\n    event ArbitratorSelected(uint256 indexed disputeId, address indexed arbitrator);\n\n    constructor(address _chessToken) {\n        require(_chessToken != address(0), \"Invalid token\");\n        chessToken = ChessToken(_chessToken);\n        _grantRole(DEFAULT_ADMIN_ROLE, msg.sender);\n    }\n\n    /**\n     * @notice Stake CHESS to become an arbitrator\n     * @param amount Amount of CHESS to stake\n     */\n    function stake(uint256 amount) external nonReentrant {\n        require(amount >= TIER1_MIN, \"Minimum stake not met\");\n\n        Arbitrator storage arb = arbitrators[msg.sender];\n\n        // Transfer tokens\n        require(chessToken.transferFrom(msg.sender, address(this), amount), \"Transfer failed\");\n\n        if (!arb.isActive) {\n            // New arbitrator\n            arb.stakedAt = block.timestamp;\n            arb.votingPowerActiveAt = block.timestamp + VOTING_POWER_DELAY;\n            arb.reputation = INITIAL_REPUTATION;\n            arb.weekStartTime = block.timestamp;\n            arb.isActive = true;\n            totalArbitrators++;\n        }\n\n        uint8 oldTier = _getTier(arb.stakedAmount);\n        arb.stakedAmount += amount;\n        totalStaked += amount;\n        uint8 newTier = _getTier(arb.stakedAmount);\n\n        // Update tier pools\n        if (oldTier != newTier) {\n            _removeFromTierPool(msg.sender, oldTier);\n            _addToTierPool(msg.sender, newTier);\n        } else if (oldTier == 0 && newTier > 0) {\n            _addToTierPool(msg.sender, newTier);\n        }\n\n        emit ArbitratorRegistered(msg.sender, arb.stakedAmount, newTier);\n    }\n\n    /**\n     * @notice Unstake CHESS (partial or full)\n     * @param amount Amount to unstake\n     */\n    function unstake(uint256 amount) external nonReentrant {\n        Arbitrator storage arb = arbitrators[msg.sender];\n        require(arb.isActive, \"Not an arbitrator\");\n        require(amount <= arb.stakedAmount, \"Insufficient stake\");\n\n        // Check if in cooldown (can't unstake during active disputes)\n        require(block.timestamp >= arb.lastVoteTime + VOTE_COOLDOWN, \"In cooldown\");\n\n        uint8 oldTier = _getTier(arb.stakedAmount);\n        arb.stakedAmount -= amount;\n        totalStaked -= amount;\n        uint8 newTier = _getTier(arb.stakedAmount);\n\n        // Update tier pools\n        if (oldTier != newTier) {\n            _removeFromTierPool(msg.sender, oldTier);\n            if (newTier > 0) {\n                _addToTierPool(msg.sender, newTier);\n            }\n        }\n\n        // If stake falls below minimum, deactivate\n        if (arb.stakedAmount < TIER1_MIN) {\n            arb.isActive = false;\n            totalArbitrators--;\n            emit ArbitratorRemoved(msg.sender, \"Stake below minimum\");\n        }\n\n        require(chessToken.transfer(msg.sender, amount), \"Transfer failed\");\n\n        emit ArbitratorUnstaked(msg.sender, amount);\n    }\n\n    /**\n     * @notice Get voting power for an arbitrator\n     * @dev Returns 0 if timelock not passed\n     */\n    function getVotingPower(address arbitrator) public view returns (uint256) {\n        Arbitrator storage arb = arbitrators[arbitrator];\n\n        if (!arb.isActive) return 0;\n        if (block.timestamp < arb.votingPowerActiveAt) return 0;\n        if (arb.reputation < MIN_REPUTATION) return 0;\n\n        // Base voting power = stake\n        // Time bonus: up to 2x after 1 year\n        uint256 timeStaked = block.timestamp - arb.stakedAt;\n        uint256 timeBonus = timeStaked > 365 days ? 100 : (timeStaked * 100) / 365 days;\n\n        return arb.stakedAmount * (100 + timeBonus) / 100;\n    }\n\n    /**\n     * @notice Select arbitrators for a dispute\n     * @param disputeId Dispute identifier\n     * @param player1 First player (to exclude)\n     * @param player2 Second player (to exclude)\n     * @param count Number of arbitrators per tier\n     * @return selected Array of selected arbitrator addresses\n     */\n    function selectArbitrators(\n        uint256 disputeId,\n        address player1,\n        address player2,\n        uint256 count\n    ) external onlyRole(DISPUTE_MANAGER_ROLE) returns (address[] memory selected) {\n        require(count > 0, \"Count must be > 0\");\n\n        uint256 totalSelected = count * 3; // From all 3 tiers\n        selected = new address[](totalSelected);\n        uint256 selectedCount = 0;\n\n        // Select from each tier\n        selectedCount = _selectFromTier(\n            tier1Arbitrators, disputeId, player1, player2, count, selected, selectedCount\n        );\n        selectedCount = _selectFromTier(\n            tier2Arbitrators, disputeId, player1, player2, count, selected, selectedCount\n        );\n        selectedCount = _selectFromTier(\n            tier3Arbitrators, disputeId, player1, player2, count, selected, selectedCount\n        );\n\n        // Resize array if we couldn't fill all slots\n        if (selectedCount < totalSelected) {\n            address[] memory resized = new address[](selectedCount);\n            for (uint256 i = 0; i < selectedCount; i++) {\n                resized[i] = selected[i];\n            }\n            return resized;\n        }\n\n        return selected;\n    }\n\n    /**\n     * @notice Update reputation after dispute resolution\n     * @param arbitrator Arbitrator address\n     * @param votedWithMajority Whether they voted with majority\n     */\n    function updateReputation(address arbitrator, bool votedWithMajority)\n        external\n        onlyRole(DISPUTE_MANAGER_ROLE)\n    {\n        Arbitrator storage arb = arbitrators[arbitrator];\n        require(arb.isActive, \"Not active\");\n\n        uint256 oldRep = arb.reputation;\n\n        if (votedWithMajority) {\n            arb.reputation += 1;\n            if (arb.reputation > 200) arb.reputation = 200; // Cap\n        } else {\n            if (arb.reputation > 1) {\n                arb.reputation -= 1;\n            }\n        }\n\n        // Remove if reputation too low\n        if (arb.reputation < MIN_REPUTATION) {\n            uint8 tier = _getTier(arb.stakedAmount);\n            _removeFromTierPool(arbitrator, tier);\n            arb.isActive = false;\n            totalArbitrators--;\n            emit ArbitratorRemoved(arbitrator, \"Reputation too low\");\n        }\n\n        emit ReputationUpdated(arbitrator, oldRep, arb.reputation);\n    }\n\n    /**\n     * @notice Record that arbitrator voted (for cooldown)\n     */\n    function recordVote(address arbitrator) external onlyRole(DISPUTE_MANAGER_ROLE) {\n        Arbitrator storage arb = arbitrators[arbitrator];\n\n        // Reset weekly counter if new week\n        if (block.timestamp >= arb.weekStartTime + 7 days) {\n            arb.disputesThisWeek = 0;\n            arb.weekStartTime = block.timestamp;\n        }\n\n        arb.lastVoteTime = block.timestamp;\n        arb.disputesThisWeek++;\n    }\n\n    /**\n     * @notice Check if arbitrator is eligible to vote\n     */\n    function canVote(address arbitrator) public view returns (bool) {\n        Arbitrator storage arb = arbitrators[arbitrator];\n\n        if (!arb.isActive) return false;\n        if (block.timestamp < arb.votingPowerActiveAt) return false;\n        if (arb.reputation < MIN_REPUTATION) return false;\n        if (block.timestamp < arb.lastVoteTime + VOTE_COOLDOWN) return false;\n\n        // Check weekly limit\n        uint256 disputesThisWeek = arb.disputesThisWeek;\n        if (block.timestamp >= arb.weekStartTime + 7 days) {\n            disputesThisWeek = 0;\n        }\n        if (disputesThisWeek >= MAX_DISPUTES_PER_WEEK) return false;\n\n        return true;\n    }\n\n    /**\n     * @notice Record game between players (for future exclusion)\n     */\n    function recordGame(address player1, address player2) external onlyRole(DISPUTE_MANAGER_ROLE) {\n        lastGameWith[player1][player2] = block.timestamp;\n        lastGameWith[player2][player1] = block.timestamp;\n    }\n\n    /**\n     * @notice Check if arbitrator should be excluded from a dispute\n     */\n    function shouldExclude(address arbitrator, address player1, address player2) public view returns (bool) {\n        // Exclude if arbitrator is one of the players\n        if (arbitrator == player1 || arbitrator == player2) return true;\n\n        // Exclude if played against either player in last 30 days\n        uint256 thirtyDaysAgo = block.timestamp - 30 days;\n        if (lastGameWith[arbitrator][player1] > thirtyDaysAgo) return true;\n        if (lastGameWith[arbitrator][player2] > thirtyDaysAgo) return true;\n\n        return false;\n    }\n\n    // Internal functions\n\n    function _getTier(uint256 amount) internal pure returns (uint8) {\n        if (amount >= TIER3_MIN) return 3;\n        if (amount >= TIER2_MIN) return 2;\n        if (amount >= TIER1_MIN) return 1;\n        return 0;\n    }\n\n    function _addToTierPool(address arbitrator, uint8 tier) internal {\n        if (tier == 1) {\n            tier1Index[arbitrator] = tier1Arbitrators.length;\n            tier1Arbitrators.push(arbitrator);\n        } else if (tier == 2) {\n            tier2Index[arbitrator] = tier2Arbitrators.length;\n            tier2Arbitrators.push(arbitrator);\n        } else if (tier == 3) {\n            tier3Index[arbitrator] = tier3Arbitrators.length;\n            tier3Arbitrators.push(arbitrator);\n        }\n    }\n\n    function _removeFromTierPool(address arbitrator, uint8 tier) internal {\n        if (tier == 1) {\n            _removeFromTier1(arbitrator);\n        } else if (tier == 2) {\n            _removeFromTier2(arbitrator);\n        } else if (tier == 3) {\n            _removeFromTier3(arbitrator);\n        }\n    }\n\n    function _removeFromTier1(address arbitrator) internal {\n        uint256 index = tier1Index[arbitrator];\n        if (index < tier1Arbitrators.length && tier1Arbitrators[index] == arbitrator) {\n            address lastArb = tier1Arbitrators[tier1Arbitrators.length - 1];\n            tier1Arbitrators[index] = lastArb;\n            tier1Index[lastArb] = index;\n            tier1Arbitrators.pop();\n            delete tier1Index[arbitrator];\n        }\n    }\n\n    function _removeFromTier2(address arbitrator) internal {\n        uint256 index = tier2Index[arbitrator];\n        if (index < tier2Arbitrators.length && tier2Arbitrators[index] == arbitrator) {\n            address lastArb = tier2Arbitrators[tier2Arbitrators.length - 1];\n            tier2Arbitrators[index] = lastArb;\n            tier2Index[lastArb] = index;\n            tier2Arbitrators.pop();\n            delete tier2Index[arbitrator];\n        }\n    }\n\n    function _removeFromTier3(address arbitrator) internal {\n        uint256 index = tier3Index[arbitrator];\n        if (index < tier3Arbitrators.length && tier3Arbitrators[index] == arbitrator) {\n            address lastArb = tier3Arbitrators[tier3Arbitrators.length - 1];\n            tier3Arbitrators[index] = lastArb;\n            tier3Index[lastArb] = index;\n            tier3Arbitrators.pop();\n            delete tier3Index[arbitrator];\n        }\n    }\n\n    function _selectFromTier(\n        address[] storage pool,\n        uint256 disputeId,\n        address player1,\n        address player2,\n        uint256 count,\n        address[] memory selected,\n        uint256 startIndex\n    ) internal returns (uint256) {\n        if (pool.length == 0) return startIndex;\n\n        uint256 selectedFromTier = 0;\n        uint256 attempts = 0;\n        uint256 maxAttempts = pool.length * 2;\n\n        while (selectedFromTier < count && attempts < maxAttempts) {\n            // Pseudo-random selection (in production use VRF)\n            uint256 randomIndex = uint256(keccak256(abi.encodePacked(\n                disputeId, block.timestamp, attempts, pool.length\n            ))) % pool.length;\n\n            address candidate = pool[randomIndex];\n            attempts++;\n\n            // Check exclusions\n            if (shouldExclude(candidate, player1, player2)) continue;\n            if (!canVote(candidate)) continue;\n\n            // Check not already selected\n            bool alreadySelected = false;\n            for (uint256 i = 0; i < startIndex + selectedFromTier; i++) {\n                if (selected[i] == candidate) {\n                    alreadySelected = true;\n                    break;\n                }\n            }\n            if (alreadySelected) continue;\n\n            selected[startIndex + selectedFromTier] = candidate;\n            selectedFromTier++;\n\n            emit ArbitratorSelected(disputeId, candidate);\n        }\n\n        return startIndex + selectedFromTier;\n    }\n\n    // View functions\n\n    function getArbitratorInfo(address arbitrator) external view returns (\n        uint256 stakedAmount,\n        uint256 votingPower,\n        uint256 reputation,\n        uint8 tier,\n        bool isActive,\n        bool canVoteNow\n    ) {\n        Arbitrator storage arb = arbitrators[arbitrator];\n        stakedAmount = arb.stakedAmount;\n        votingPower = getVotingPower(arbitrator);\n        reputation = arb.reputation;\n        tier = _getTier(arb.stakedAmount);\n        isActive = arb.isActive;\n        canVoteNow = canVote(arbitrator);\n    }\n\n    function getTierCounts() external view returns (uint256 t1, uint256 t2, uint256 t3) {\n        t1 = tier1Arbitrators.length;\n        t2 = tier2Arbitrators.length;\n        t3 = tier3Arbitrators.length;\n    }\n}\n",
  "sourcePath": "/Users/jacopo/Documents/solidity/chessgame/ethereum/contracts/DAO/ArbitratorRegistry.sol",
  "compiler": {
    "name": "solc",
    "version": "0.8.20+commit.a1b79de6.Emscripten.clang"
  },
  "schemaVersion": "3.4.16",
  "updatedAt": "2026-01-07T00:14:29.445Z",
  "networkType": "ethereum",
  "devdoc": {
    "details": "Implements multi-level pools, timelock, and reputation system Key Features: - 7-day timelock before voting power activates (flash loan protection) - Three-tier stake pools for decentralization - Reputation system (vote with majority = +1, against = -1) - Cooldown after voting to prevent collusion - Random selection weighted by stake",
    "errors": {
      "AccessControlBadConfirmation()": [
        {
          "details": "The caller of a function is not the expected one. NOTE: Don't confuse with {AccessControlUnauthorizedAccount}."
        }
      ],
      "AccessControlUnauthorizedAccount(address,bytes32)": [
        {
          "details": "The `account` is missing a role."
        }
      ],
      "ReentrancyGuardReentrantCall()": [
        {
          "details": "Unauthorized reentrant call."
        }
      ]
    },
    "events": {
      "RoleAdminChanged(bytes32,bytes32,bytes32)": {
        "details": "Emitted when `newAdminRole` is set as ``role``'s admin role, replacing `previousAdminRole` `DEFAULT_ADMIN_ROLE` is the starting admin for all roles, despite {RoleAdminChanged} not being emitted to signal this."
      },
      "RoleGranted(bytes32,address,address)": {
        "details": "Emitted when `account` is granted `role`. `sender` is the account that originated the contract call. This account bears the admin role (for the granted role). Expected in cases where the role was granted using the internal {AccessControl-_grantRole}."
      },
      "RoleRevoked(bytes32,address,address)": {
        "details": "Emitted when `account` is revoked `role`. `sender` is the account that originated the contract call:   - if using `revokeRole`, it is the admin role bearer   - if using `renounceRole`, it is the role bearer (i.e. `account`)"
      }
    },
    "kind": "dev",
    "methods": {
      "getRoleAdmin(bytes32)": {
        "details": "Returns the admin role that controls `role`. See {grantRole} and {revokeRole}. To change a role's admin, use {_setRoleAdmin}."
      },
      "getVotingPower(address)": {
        "details": "Returns 0 if timelock not passed"
      },
      "grantRole(bytes32,address)": {
        "details": "Grants `role` to `account`. If `account` had not been already granted `role`, emits a {RoleGranted} event. Requirements: - the caller must have ``role``'s admin role. May emit a {RoleGranted} event."
      },
      "hasRole(bytes32,address)": {
        "details": "Returns `true` if `account` has been granted `role`."
      },
      "renounceRole(bytes32,address)": {
        "details": "Revokes `role` from the calling account. Roles are often managed via {grantRole} and {revokeRole}: this function's purpose is to provide a mechanism for accounts to lose their privileges if they are compromised (such as when a trusted device is misplaced). If the calling account had been revoked `role`, emits a {RoleRevoked} event. Requirements: - the caller must be `callerConfirmation`. May emit a {RoleRevoked} event."
      },
      "revokeRole(bytes32,address)": {
        "details": "Revokes `role` from `account`. If `account` had been granted `role`, emits a {RoleRevoked} event. Requirements: - the caller must have ``role``'s admin role. May emit a {RoleRevoked} event."
      },
      "selectArbitrators(uint256,address,address,uint256)": {
        "params": {
          "count": "Number of arbitrators per tier",
          "disputeId": "Dispute identifier",
          "player1": "First player (to exclude)",
          "player2": "Second player (to exclude)"
        },
        "returns": {
          "selected": "Array of selected arbitrator addresses"
        }
      },
      "stake(uint256)": {
        "params": {
          "amount": "Amount of CHESS to stake"
        }
      },
      "supportsInterface(bytes4)": {
        "details": "Returns true if this contract implements the interface defined by `interfaceId`. See the corresponding https://eips.ethereum.org/EIPS/eip-165#how-interfaces-are-identified[ERC section] to learn more about how these ids are created. This function call must use less than 30 000 gas."
      },
      "unstake(uint256)": {
        "params": {
          "amount": "Amount to unstake"
        }
      },
      "updateReputation(address,bool)": {
        "params": {
          "arbitrator": "Arbitrator address",
          "votedWithMajority": "Whether they voted with majority"
        }
      }
    },
    "title": "ArbitratorRegistry",
    "version": 1
  },
  "userdoc": {
    "kind": "user",
    "methods": {
      "canVote(address)": {
        "notice": "Check if arbitrator is eligible to vote"
      },
      "getVotingPower(address)": {
        "notice": "Get voting power for an arbitrator"
      },
      "recordGame(address,address)": {
        "notice": "Record game between players (for future exclusion)"
      },
      "recordVote(address)": {
        "notice": "Record that arbitrator voted (for cooldown)"
      },
      "selectArbitrators(uint256,address,address,uint256)": {
        "notice": "Select arbitrators for a dispute"
      },
      "shouldExclude(address,address,address)": {
        "notice": "Check if arbitrator should be excluded from a dispute"
      },
      "stake(uint256)": {
        "notice": "Stake CHESS to become an arbitrator"
      },
      "unstake(uint256)": {
        "notice": "Unstake CHESS (partial or full)"
      },
      "updateReputation(address,bool)": {
        "notice": "Update reputation after dispute resolution"
      }
    },
    "notice": "Registry for arbitrators who vote on chess game disputes",
    "version": 1
  }
}