{
  "contractName": "BondingManager",
  "abi": [
    {
      "inputs": [
        {
          "internalType": "address",
          "name": "_chessToken",
          "type": "address"
        },
        {
          "internalType": "uint256",
          "name": "_initialPrice",
          "type": "uint256"
        }
      ],
      "stateMutability": "nonpayable",
      "type": "constructor"
    },
    {
      "inputs": [],
      "name": "AccessControlBadConfirmation",
      "type": "error"
    },
    {
      "inputs": [
        {
          "internalType": "address",
          "name": "account",
          "type": "address"
        },
        {
          "internalType": "bytes32",
          "name": "neededRole",
          "type": "bytes32"
        }
      ],
      "name": "AccessControlUnauthorizedAccount",
      "type": "error"
    },
    {
      "inputs": [],
      "name": "EnforcedPause",
      "type": "error"
    },
    {
      "inputs": [],
      "name": "ExpectedPause",
      "type": "error"
    },
    {
      "inputs": [],
      "name": "ReentrancyGuardReentrantCall",
      "type": "error"
    },
    {
      "anonymous": false,
      "inputs": [
        {
          "indexed": true,
          "internalType": "address",
          "name": "user",
          "type": "address"
        },
        {
          "indexed": false,
          "internalType": "uint256",
          "name": "chessAmount",
          "type": "uint256"
        },
        {
          "indexed": false,
          "internalType": "uint256",
          "name": "ethAmount",
          "type": "uint256"
        }
      ],
      "name": "BondDeposited",
      "type": "event"
    },
    {
      "anonymous": false,
      "inputs": [
        {
          "indexed": true,
          "internalType": "uint256",
          "name": "gameId",
          "type": "uint256"
        },
        {
          "indexed": true,
          "internalType": "address",
          "name": "player",
          "type": "address"
        },
        {
          "indexed": false,
          "internalType": "uint256",
          "name": "chessAmount",
          "type": "uint256"
        },
        {
          "indexed": false,
          "internalType": "uint256",
          "name": "ethAmount",
          "type": "uint256"
        }
      ],
      "name": "BondLocked",
      "type": "event"
    },
    {
      "anonymous": false,
      "inputs": [
        {
          "indexed": true,
          "internalType": "uint256",
          "name": "gameId",
          "type": "uint256"
        },
        {
          "indexed": true,
          "internalType": "address",
          "name": "player",
          "type": "address"
        }
      ],
      "name": "BondReleased",
      "type": "event"
    },
    {
      "anonymous": false,
      "inputs": [
        {
          "indexed": true,
          "internalType": "uint256",
          "name": "gameId",
          "type": "uint256"
        },
        {
          "indexed": true,
          "internalType": "address",
          "name": "player",
          "type": "address"
        },
        {
          "indexed": false,
          "internalType": "uint256",
          "name": "chessAmount",
          "type": "uint256"
        },
        {
          "indexed": false,
          "internalType": "uint256",
          "name": "ethAmount",
          "type": "uint256"
        }
      ],
      "name": "BondSlashed",
      "type": "event"
    },
    {
      "anonymous": false,
      "inputs": [
        {
          "indexed": true,
          "internalType": "address",
          "name": "user",
          "type": "address"
        },
        {
          "indexed": false,
          "internalType": "uint256",
          "name": "chessAmount",
          "type": "uint256"
        },
        {
          "indexed": false,
          "internalType": "uint256",
          "name": "ethAmount",
          "type": "uint256"
        }
      ],
      "name": "BondWithdrawn",
      "type": "event"
    },
    {
      "anonymous": false,
      "inputs": [
        {
          "indexed": false,
          "internalType": "uint256",
          "name": "oldPrice",
          "type": "uint256"
        },
        {
          "indexed": false,
          "internalType": "uint256",
          "name": "newPrice",
          "type": "uint256"
        }
      ],
      "name": "CircuitBreakerTriggered",
      "type": "event"
    },
    {
      "anonymous": false,
      "inputs": [
        {
          "indexed": false,
          "internalType": "address",
          "name": "account",
          "type": "address"
        }
      ],
      "name": "Paused",
      "type": "event"
    },
    {
      "anonymous": false,
      "inputs": [
        {
          "indexed": false,
          "internalType": "uint256",
          "name": "oldPrice",
          "type": "uint256"
        },
        {
          "indexed": false,
          "internalType": "uint256",
          "name": "newPrice",
          "type": "uint256"
        }
      ],
      "name": "PriceUpdated",
      "type": "event"
    },
    {
      "anonymous": false,
      "inputs": [
        {
          "indexed": true,
          "internalType": "bytes32",
          "name": "role",
          "type": "bytes32"
        },
        {
          "indexed": true,
          "internalType": "bytes32",
          "name": "previousAdminRole",
          "type": "bytes32"
        },
        {
          "indexed": true,
          "internalType": "bytes32",
          "name": "newAdminRole",
          "type": "bytes32"
        }
      ],
      "name": "RoleAdminChanged",
      "type": "event"
    },
    {
      "anonymous": false,
      "inputs": [
        {
          "indexed": true,
          "internalType": "bytes32",
          "name": "role",
          "type": "bytes32"
        },
        {
          "indexed": true,
          "internalType": "address",
          "name": "account",
          "type": "address"
        },
        {
          "indexed": true,
          "internalType": "address",
          "name": "sender",
          "type": "address"
        }
      ],
      "name": "RoleGranted",
      "type": "event"
    },
    {
      "anonymous": false,
      "inputs": [
        {
          "indexed": true,
          "internalType": "bytes32",
          "name": "role",
          "type": "bytes32"
        },
        {
          "indexed": true,
          "internalType": "address",
          "name": "account",
          "type": "address"
        },
        {
          "indexed": true,
          "internalType": "address",
          "name": "sender",
          "type": "address"
        }
      ],
      "name": "RoleRevoked",
      "type": "event"
    },
    {
      "anonymous": false,
      "inputs": [
        {
          "indexed": false,
          "internalType": "address",
          "name": "account",
          "type": "address"
        }
      ],
      "name": "Unpaused",
      "type": "event"
    },
    {
      "inputs": [],
      "name": "DEFAULT_ADMIN_ROLE",
      "outputs": [
        {
          "internalType": "bytes32",
          "name": "",
          "type": "bytes32"
        }
      ],
      "stateMutability": "view",
      "type": "function",
      "constant": true
    },
    {
      "inputs": [],
      "name": "DISPUTE_MANAGER_ROLE",
      "outputs": [
        {
          "internalType": "bytes32",
          "name": "",
          "type": "bytes32"
        }
      ],
      "stateMutability": "view",
      "type": "function",
      "constant": true
    },
    {
      "inputs": [],
      "name": "GAME_MANAGER_ROLE",
      "outputs": [
        {
          "internalType": "bytes32",
          "name": "",
          "type": "bytes32"
        }
      ],
      "stateMutability": "view",
      "type": "function",
      "constant": true
    },
    {
      "inputs": [],
      "name": "MAX_PRICE_CHANGE_PERCENT",
      "outputs": [
        {
          "internalType": "uint256",
          "name": "",
          "type": "uint256"
        }
      ],
      "stateMutability": "view",
      "type": "function",
      "constant": true
    },
    {
      "inputs": [],
      "name": "TWAP_PERIOD",
      "outputs": [
        {
          "internalType": "uint256",
          "name": "",
          "type": "uint256"
        }
      ],
      "stateMutability": "view",
      "type": "function",
      "constant": true
    },
    {
      "inputs": [
        {
          "internalType": "address",
          "name": "",
          "type": "address"
        }
      ],
      "name": "bonds",
      "outputs": [
        {
          "internalType": "uint256",
          "name": "chessAmount",
          "type": "uint256"
        },
        {
          "internalType": "uint256",
          "name": "ethAmount",
          "type": "uint256"
        },
        {
          "internalType": "uint256",
          "name": "lockedChess",
          "type": "uint256"
        },
        {
          "internalType": "uint256",
          "name": "lockedEth",
          "type": "uint256"
        }
      ],
      "stateMutability": "view",
      "type": "function",
      "constant": true
    },
    {
      "inputs": [],
      "name": "chessEthPrice",
      "outputs": [
        {
          "internalType": "uint256",
          "name": "",
          "type": "uint256"
        }
      ],
      "stateMutability": "view",
      "type": "function",
      "constant": true
    },
    {
      "inputs": [],
      "name": "chessMultiplier",
      "outputs": [
        {
          "internalType": "uint256",
          "name": "",
          "type": "uint256"
        }
      ],
      "stateMutability": "view",
      "type": "function",
      "constant": true
    },
    {
      "inputs": [],
      "name": "chessToken",
      "outputs": [
        {
          "internalType": "contract ChessToken",
          "name": "",
          "type": "address"
        }
      ],
      "stateMutability": "view",
      "type": "function",
      "constant": true
    },
    {
      "inputs": [],
      "name": "ethMultiplier",
      "outputs": [
        {
          "internalType": "uint256",
          "name": "",
          "type": "uint256"
        }
      ],
      "stateMutability": "view",
      "type": "function",
      "constant": true
    },
    {
      "inputs": [
        {
          "internalType": "uint256",
          "name": "",
          "type": "uint256"
        },
        {
          "internalType": "address",
          "name": "",
          "type": "address"
        }
      ],
      "name": "gameBonds",
      "outputs": [
        {
          "internalType": "address",
          "name": "player",
          "type": "address"
        },
        {
          "internalType": "uint256",
          "name": "chessAmount",
          "type": "uint256"
        },
        {
          "internalType": "uint256",
          "name": "ethAmount",
          "type": "uint256"
        },
        {
          "internalType": "bool",
          "name": "released",
          "type": "bool"
        },
        {
          "internalType": "bool",
          "name": "slashed",
          "type": "bool"
        }
      ],
      "stateMutability": "view",
      "type": "function",
      "constant": true
    },
    {
      "inputs": [
        {
          "internalType": "bytes32",
          "name": "role",
          "type": "bytes32"
        }
      ],
      "name": "getRoleAdmin",
      "outputs": [
        {
          "internalType": "bytes32",
          "name": "",
          "type": "bytes32"
        }
      ],
      "stateMutability": "view",
      "type": "function",
      "constant": true
    },
    {
      "inputs": [
        {
          "internalType": "bytes32",
          "name": "role",
          "type": "bytes32"
        },
        {
          "internalType": "address",
          "name": "account",
          "type": "address"
        }
      ],
      "name": "grantRole",
      "outputs": [],
      "stateMutability": "nonpayable",
      "type": "function"
    },
    {
      "inputs": [
        {
          "internalType": "bytes32",
          "name": "role",
          "type": "bytes32"
        },
        {
          "internalType": "address",
          "name": "account",
          "type": "address"
        }
      ],
      "name": "hasRole",
      "outputs": [
        {
          "internalType": "bool",
          "name": "",
          "type": "bool"
        }
      ],
      "stateMutability": "view",
      "type": "function",
      "constant": true
    },
    {
      "inputs": [],
      "name": "lastKnownPrice",
      "outputs": [
        {
          "internalType": "uint256",
          "name": "",
          "type": "uint256"
        }
      ],
      "stateMutability": "view",
      "type": "function",
      "constant": true
    },
    {
      "inputs": [],
      "name": "minBondEthValue",
      "outputs": [
        {
          "internalType": "uint256",
          "name": "",
          "type": "uint256"
        }
      ],
      "stateMutability": "view",
      "type": "function",
      "constant": true
    },
    {
      "inputs": [],
      "name": "paused",
      "outputs": [
        {
          "internalType": "bool",
          "name": "",
          "type": "bool"
        }
      ],
      "stateMutability": "view",
      "type": "function",
      "constant": true
    },
    {
      "inputs": [],
      "name": "priceLastUpdated",
      "outputs": [
        {
          "internalType": "uint256",
          "name": "",
          "type": "uint256"
        }
      ],
      "stateMutability": "view",
      "type": "function",
      "constant": true
    },
    {
      "inputs": [
        {
          "internalType": "bytes32",
          "name": "role",
          "type": "bytes32"
        },
        {
          "internalType": "address",
          "name": "callerConfirmation",
          "type": "address"
        }
      ],
      "name": "renounceRole",
      "outputs": [],
      "stateMutability": "nonpayable",
      "type": "function"
    },
    {
      "inputs": [
        {
          "internalType": "bytes32",
          "name": "role",
          "type": "bytes32"
        },
        {
          "internalType": "address",
          "name": "account",
          "type": "address"
        }
      ],
      "name": "revokeRole",
      "outputs": [],
      "stateMutability": "nonpayable",
      "type": "function"
    },
    {
      "inputs": [
        {
          "internalType": "bytes4",
          "name": "interfaceId",
          "type": "bytes4"
        }
      ],
      "name": "supportsInterface",
      "outputs": [
        {
          "internalType": "bool",
          "name": "",
          "type": "bool"
        }
      ],
      "stateMutability": "view",
      "type": "function",
      "constant": true
    },
    {
      "inputs": [],
      "name": "totalChessBonded",
      "outputs": [
        {
          "internalType": "uint256",
          "name": "",
          "type": "uint256"
        }
      ],
      "stateMutability": "view",
      "type": "function",
      "constant": true
    },
    {
      "inputs": [],
      "name": "totalChessSlashed",
      "outputs": [
        {
          "internalType": "uint256",
          "name": "",
          "type": "uint256"
        }
      ],
      "stateMutability": "view",
      "type": "function",
      "constant": true
    },
    {
      "inputs": [],
      "name": "totalEthBonded",
      "outputs": [
        {
          "internalType": "uint256",
          "name": "",
          "type": "uint256"
        }
      ],
      "stateMutability": "view",
      "type": "function",
      "constant": true
    },
    {
      "inputs": [],
      "name": "totalEthSlashed",
      "outputs": [
        {
          "internalType": "uint256",
          "name": "",
          "type": "uint256"
        }
      ],
      "stateMutability": "view",
      "type": "function",
      "constant": true
    },
    {
      "stateMutability": "payable",
      "type": "receive",
      "payable": true
    },
    {
      "inputs": [
        {
          "internalType": "uint256",
          "name": "chessAmount",
          "type": "uint256"
        }
      ],
      "name": "depositBond",
      "outputs": [],
      "stateMutability": "payable",
      "type": "function",
      "payable": true
    },
    {
      "inputs": [
        {
          "internalType": "uint256",
          "name": "chessAmount",
          "type": "uint256"
        },
        {
          "internalType": "uint256",
          "name": "ethAmount",
          "type": "uint256"
        }
      ],
      "name": "withdrawBond",
      "outputs": [],
      "stateMutability": "nonpayable",
      "type": "function"
    },
    {
      "inputs": [
        {
          "internalType": "uint256",
          "name": "stake",
          "type": "uint256"
        }
      ],
      "name": "calculateRequiredBond",
      "outputs": [
        {
          "internalType": "uint256",
          "name": "chessRequired",
          "type": "uint256"
        },
        {
          "internalType": "uint256",
          "name": "ethRequired",
          "type": "uint256"
        }
      ],
      "stateMutability": "view",
      "type": "function",
      "constant": true
    },
    {
      "inputs": [
        {
          "internalType": "uint256",
          "name": "gameId",
          "type": "uint256"
        },
        {
          "internalType": "address",
          "name": "player",
          "type": "address"
        },
        {
          "internalType": "uint256",
          "name": "stake",
          "type": "uint256"
        }
      ],
      "name": "lockBondForGame",
      "outputs": [],
      "stateMutability": "nonpayable",
      "type": "function"
    },
    {
      "inputs": [
        {
          "internalType": "uint256",
          "name": "gameId",
          "type": "uint256"
        },
        {
          "internalType": "address",
          "name": "player",
          "type": "address"
        }
      ],
      "name": "releaseBond",
      "outputs": [],
      "stateMutability": "nonpayable",
      "type": "function"
    },
    {
      "inputs": [
        {
          "internalType": "uint256",
          "name": "gameId",
          "type": "uint256"
        },
        {
          "internalType": "address",
          "name": "cheater",
          "type": "address"
        }
      ],
      "name": "slashBond",
      "outputs": [],
      "stateMutability": "nonpayable",
      "type": "function"
    },
    {
      "inputs": [
        {
          "internalType": "uint256",
          "name": "newPrice",
          "type": "uint256"
        }
      ],
      "name": "updatePrice",
      "outputs": [],
      "stateMutability": "nonpayable",
      "type": "function"
    },
    {
      "inputs": [
        {
          "internalType": "address",
          "name": "user",
          "type": "address"
        }
      ],
      "name": "getAvailableBond",
      "outputs": [
        {
          "internalType": "uint256",
          "name": "chess",
          "type": "uint256"
        },
        {
          "internalType": "uint256",
          "name": "eth",
          "type": "uint256"
        }
      ],
      "stateMutability": "view",
      "type": "function",
      "constant": true
    },
    {
      "inputs": [
        {
          "internalType": "address",
          "name": "user",
          "type": "address"
        },
        {
          "internalType": "uint256",
          "name": "stake",
          "type": "uint256"
        }
      ],
      "name": "hasSufficientBond",
      "outputs": [
        {
          "internalType": "bool",
          "name": "",
          "type": "bool"
        }
      ],
      "stateMutability": "view",
      "type": "function",
      "constant": true
    },
    {
      "inputs": [
        {
          "internalType": "uint256",
          "name": "_chessMultiplier",
          "type": "uint256"
        },
        {
          "internalType": "uint256",
          "name": "_ethMultiplier",
          "type": "uint256"
        }
      ],
      "name": "setMultipliers",
      "outputs": [],
      "stateMutability": "nonpayable",
      "type": "function"
    },
    {
      "inputs": [
        {
          "internalType": "uint256",
          "name": "_minBondEthValue",
          "type": "uint256"
        }
      ],
      "name": "setMinBondEthValue",
      "outputs": [],
      "stateMutability": "nonpayable",
      "type": "function"
    },
    {
      "inputs": [],
      "name": "unpause",
      "outputs": [],
      "stateMutability": "nonpayable",
      "type": "function"
    },
    {
      "inputs": [],
      "name": "pause",
      "outputs": [],
      "stateMutability": "nonpayable",
      "type": "function"
    },
    {
      "inputs": [
        {
          "internalType": "address",
          "name": "treasury",
          "type": "address"
        }
      ],
      "name": "withdrawSlashedEth",
      "outputs": [],
      "stateMutability": "nonpayable",
      "type": "function"
    }
  ],
  "bytecode": "0x60a0346100c057601f6116ec38819003918201601f19168301916001600160401b038311848410176100c45780849260409485528339810103126100c05780516001600160a01b03811691908290036100c057602001519060018055600380556002600455662386f26fc1000060085580156100c05781156100c0576080528060055560075542600655610092336100d8565b50604051611584908161016882396080518181816102890152818161088601528181610b920152610e8d0152f35b5f80fd5b634e487b7160e01b5f52604160045260245ffd5b6001600160a01b03165f8181527fad3228b676f7d3cd4284a5443f17f1962b36e491b30a40b2405849e597ba5fb5602052604081205490919060ff1661016357818052816020526040822081835260205260408220600160ff1982541617905533917f2f8788117e7eff1d82e926ec794901d17c78024a50270940304540a733656f0d8180a4600190565b509056fe6040608081526004908136101561001f575b5050361561001d575f80fd5b005b5f91823560e01c90816301e3661014610ff757816301ffc9a714610fa15781631bc50b9714610f825781631d43ba0c14610d7d578163248a9ca314610d535781632f2ff15d14610d2957816336568abe14610ce35781633f4ba83a14610c795781634cab786f14610c5a5781634ce2ee0b14610c3b5781634dcb05f914610ad957816352aaead814610aba57816357d39b8e14610a435781635c975abb14610a1f5781635dd54e08146109495781636f50f507146109115781636ffcdfc01461076857816375beb7b11461074c57816377c09a271461072e5781637ca251841461071057816383f0feb9146106e55781638456cb591461069d5781638c0732c41461051d5781638d6cc56d146104f557816391d14854146104b25781639af4fd8f14610493578163a116e48614610412578163a217fddf146103f7578163a37b5588146103d8578163b77d0035146103b0578163ba219c881461035a578163cf655a6314610338578163d066657914610319578163d547741f146102d657508063f638d2f4146102b8578063fd36b43514610275578063fe10d7741461021c578063ff6fcdbd146101f55763ff9f49d80361001157346101f157816003193601126101f157602090600d549051908152f35b5080fd5b50346101f157816003193601126101f157602090515f805160206114ef8339815191528152f35b50346101f15760203660031901126101f15760809181906001600160a01b0361024361104a565b168152600960205220908154916001810154916003600283015492015492815194855260208501528301526060820152f35b50346101f157816003193601126101f157517f00000000000000000000000000000000000000000000000000000000000000006001600160a01b03168152602090f35b50346101f157816003193601126101f157602090600c549051908152f35b91905034610315578060031936011261031557610311913561030c60016102fb611064565b93838752866020528620015461112f565b6111cc565b5080f35b8280fd5b5050346101f157816003193601126101f157602090600e549051908152f35b8390346101f15760203660031901126101f157610353611090565b3560085580f35b83346103a95760203660031901126103a9578061037561104a565b61037d611090565b61038a47600c54906112f0565b80156103ac578280929181925af16103a06112fd565b50156103a95780f35b80fd5b5050fd5b5050346101f157816003193601126101f157602090515f8051602061150f8339815191528152f35b5050346101f157816003193601126101f157602090600b549051908152f35b5050346101f157816003193601126101f15751908152602090f35b5050346101f157806003193601126101f1579060209161043061104a565b918161043d60243561136c565b92909460018060a01b0316815260098652209261047461046385546002870154906112f0565b9460036001820154910154906112f0565b9310159283610488575b5050519015158152f35b101591505f8061047e565b5050346101f157816003193601126101f1576020906003549051908152f35b905034610315578160031936011261031557816020936104d0611064565b92358152808552209060018060a01b03165f52825260ff815f20541690519015158152f35b8390346101f15760203660031901126101f15761051a90610514611090565b356113da565b80f35b8383346101f15760603660031901126101f157823561053a611064565b916105436110e7565b61054b6112af565b61055660443561136c565b60018060a01b038095169485875260096020528387208054906002810161057f815480946112f0565b926003600184015493019387610597865480966112f0565b9110610699578611610695579185916105b3886105ba9561128e565b905561128e565b905583519760a08901906001600160401b0382118a831017610682575096600381997f62e905af36611dd4f9e5218ee0607c50ccf430c12e1c042ff5f1e24f3736d4029798998752898152602081018681528782019086825260608301958587528960808501968088528d8152600a602052208d5f52602052895f2093511660018060a01b031984541617835551600183015551600282015501915115159060ff61ff0084549251151560081b1692169061ffff19161717905582519182526020820152a380f35b604190634e487b7160e01b5f525260245ffd5b8a80fd5b8b80fd5b5050346101f157816003193601126101f15760205f8051602061152f833981519152916106c8611090565b6106d06112af565b600160ff19600254161760025551338152a180f35b905082346103a95760203660031901126103a95750610704903561136c565b82519182526020820152f35b5050346101f157816003193601126101f1576020905162093a808152f35b90503461031557826003193601126103155760209250549051908152f35b5050346101f157816003193601126101f1576020905160328152f35b91905034610315576107793661107a565b9190926107846112cd565b3385526009602052818520908154916107a16002820154846112f0565b9260018201936107b785546003850154906112f0565b90881161090d578611610909578680610848575b505050508261080c575b507ff0566a10f495c405474bbbfa43e7d77dffab0bdbf3240d1880b2b0624968540991815193845260208401523392a26001805580f35b6108178382546112f0565b905561082582600c546112f0565b600c558380808085335af16108386112fd565b5015610844575f6107d5565b8380fd5b610851916112f0565b905561085f85600b546112f0565b600b55825163a9059cbb60e01b8152339181019190915260248101859052602081604481897f00000000000000000000000000000000000000000000000000000000000000006001600160a01b03165af19081156108ff5786916108d1575b50156108cd575f8080866107cb565b8480fd5b6108f2915060203d81116108f8575b6108ea818361123f565b810190611276565b5f6108be565b503d6108e0565b83513d88823e3d90fd5b8780fd5b8880fd5b8390346101f1576109213661107a565b919061092b611090565b80151580610940575b15610844576003555580f35b50821515610934565b90503461031557816003193601126103155735610964611064565b9161096d6110e7565b818452600a6020528084209260018060a01b031692835f52602052805f206003810191825460ff8116159081610a10575b5015610a0c57600360026109d892878952600960205288209360018101546109ca8387019182546112f0565b9055015492019182546112f0565b9055805460ff191660011790557f6d8cfcedf3141a9f6884c5651d10031f924f53c6b11ae98155a932d6e563b6428380a380f35b8580fd5b60ff915060081c16155f61099e565b5050346101f157816003193601126101f15760209060ff6002541690519015158152f35b919050346103155780600319360112610315578060ff9160a094610a65611064565b94358152600a60205220600180861b038094165f52602052805f2092835416926001810154916003600283015492015492815195865260208601528401528181161515606084015260081c1615156080820152f35b5050346101f157816003193601126101f1576020906006549051908152f35b91602091503660031901821361084457823592610af46112cd565b610afc6112af565b831580158091610c32575b15610a0c57610b69575b505f805160206114cf8339815191529134610b3b575b815193845234908401523392a26001805580f35b33855260098152600182862001610b5334825461128e565b9055610b6134600c5461128e565b600c55610b27565b81516323b872dd60e01b81523391810191909152306024820152604481018490528281606481887f00000000000000000000000000000000000000000000000000000000000000006001600160a01b03165af1908115610c28578591610c0b575b5015610844575f805160206114cf8339815191529133855260098152818520610bf485825461128e565b9055610c0284600b5461128e565b600b5591610b11565b610c229150833d85116108f8576108ea818361123f565b5f610bca565b82513d87823e3d90fd5b50341515610b07565b5050346101f157816003193601126101f1576020906008549051908152f35b5050346101f157816003193601126101f1576020906007549051908152f35b905034610315578260031936011261031557610c93611090565b6002549060ff821615610cd5575060ff1916600255513381527f5db9ee0a495bf2e6ff9c91a7834c1ba4fdd244a5e8aa4e537bd38aeae4b073aa90602090a180f35b8251638dfc202b60e01b8152fd5b8383346101f157806003193601126101f157610cfd611064565b90336001600160a01b03831603610d1a57506103119192356111cc565b5163334bd91960e11b81528390fd5b919050346103155780600319360112610315576103119135610d4e60016102fb611064565b611150565b90503461031557602036600319011261031557816020936001923581528085522001549051908152f35b8383346101f157806003193601126101f1578235610d99611064565b915f8051602061150f833981519152808552602090858252828620338752825260ff838720541615610f645750828552600a81528185209360018060a01b038091169485875282528286209160038301805460ff8116159081610f55575b501561090957600982528488209260036002600187015496015494610e1d8782546112f0565b815560018101610e2e8782546112f0565b905560028101610e3f8882546112f0565b905501610e4d8582546112f0565b9055610e5b85600b546112f0565b600b55610e6a84600c546112f0565b600c55610e7985600d5461128e565b600d55610e8884600e5461128e565b600e557f000000000000000000000000000000000000000000000000000000000000000016803b1561090d57888560248c838a519586948593630852cd8d60e31b85528401525af18015610f4b57610f1b575b507fe79b3fe5cfdff6096992e17688f65c38baaa0d05789f75f399948281865c0681959697985061010061ff00198254161790558351928352820152a380f35b9097906001600160401b038111610f385785529697508789610edb565b634e487b7160e01b825260418a52602482fd5b86513d8b823e3d90fd5b60ff915060081c16158a610df7565b825163e2517d3f60e01b815233818901526024810191909152604490fd5b5050346101f157816003193601126101f1576020906005549051908152f35b90503461031557602036600319011261031557359063ffffffff60e01b82168092036103155760209250637965db0b60e01b8214918215610fe6575b50519015158152f35b6301ffc9a760e01b1491505f610fdd565b5050346101f15760203660031901126101f1579081906001600160a01b0361101d61104a565b16815260096020522061070461103982546002840154906112f0565b9160036001820154910154906112f0565b600435906001600160a01b038216820361106057565b5f80fd5b602435906001600160a01b038216820361106057565b6040906003190112611060576004359060243590565b335f9081527fad3228b676f7d3cd4284a5443f17f1962b36e491b30a40b2405849e597ba5fb5602052604081205460ff16156110c95750565b6044906040519063e2517d3f60e01b82523360048301526024820152fd5b335f9081527ff11d5cd6172e4d486247e8873a157a5cbd86d37171bf6cd250fc0a75f26713f960205260409020545f805160206114ef8339815191529060ff16156110c95750565b805f525f60205260405f20335f5260205260ff60405f205416156110c95750565b905f9180835282602052604083209160018060a01b03169182845260205260ff604084205416155f146111c757808352826020526040832082845260205260408320600160ff198254161790557f2f8788117e7eff1d82e926ec794901d17c78024a50270940304540a733656f0d339380a4600190565b505090565b905f9180835282602052604083209160018060a01b03169182845260205260ff6040842054165f146111c75780835282602052604083208284526020526040832060ff1981541690557ff6391f5c32d9c69d2a47ea670b442974b53935d1edc7fd64eb21e047a839171b339380a4600190565b601f909101601f19168101906001600160401b0382119082101761126257604052565b634e487b7160e01b5f52604160045260245ffd5b90816020910312611060575180151581036110605790565b9190820180921161129b57565b634e487b7160e01b5f52601160045260245ffd5b60ff600254166112bb57565b60405163d93c066560e01b8152600490fd5b6002600154146112de576002600155565b604051633ee5aeb560e01b8152600490fd5b9190820391821161129b57565b3d15611336573d906001600160401b038211611262576040519161132b601f8201601f19166020018461123f565b82523d5f602084013e565b606090565b8181029291811591840414171561129b57565b8115611358570490565b634e487b7160e01b5f52601260045260245ffd5b61138561137b6004548361133b565b916003549061133b565b670de0b6b3a76400008082029180830482149015171561129b576113ac600554809361134e565b9160085482810292818404149015171561129b576113c99161134e565b808211156113d5575091565b905091565b8015611060576007548061142b575b5060407f945c1c4e99aa89f648fbfe3df471b916f719e16d960fcec0737d4d56bd696838916005549080600555806007554260065582519182526020820152a1565b808211156114bf5761143d81836112f0565b60648102908082046064149015171561129b5761145c8260329261134e565b11156113e9576040907fc1b68f84e2906898e13e04dfea4f2ca4c44015fceb114b71916f54a7072712a69261148f6112af565b600160ff1960025416176002555f8051602061152f83398151915260208451338152a182519182526020820152a1565b6114c982826112f0565b61143d56fe53709ba3cdfc6888ee4e1f05692566dfc3446e917fd4402db50e328307e6b393ef17b1f3c5a412f9c8e887e3abd186802afec7dc657fd3b7002bf87b128dd0b1ba78754574ac9ac55ea6aadf83645aac6b6ffa16b8e81d516867ac0126c33d0b62e78cea01bee320cd4e420270b5ea74000d11b0c9f74754ebdbfc544b05a258a2646970667358221220e514f3ba551368af9d05dfcc92eb0f9a56406ac5a9dad97ac5ee64b3664878e864736f6c63430008140033",
  "immutableReferences": {
    "4412": [
      {
        "length": 32,
        "start": 649
      },
      {
        "length": 32,
        "start": 2182
      },
      {
        "length": 32,
        "start": 2962
      },
      {
        "length": 32,
        "start": 3725
      }
    ]
  },
  "source": "// SPDX-License-Identifier: MIT\npragma solidity ^0.8.19;\n\nimport \"@openzeppelin/contracts/access/AccessControl.sol\";\nimport \"@openzeppelin/contracts/utils/ReentrancyGuard.sol\";\nimport \"@openzeppelin/contracts/utils/Pausable.sol\";\nimport \"./ChessToken.sol\";\n\n/**\n * @title BondingManager\n * @notice Manages hybrid bonds (CHESS + ETH) for chess games\n * @dev Implements TWAP oracle, circuit breaker, and slashing mechanism\n *\n * Key Features:\n * - Hybrid bond: Both CHESS tokens and ETH required\n * - TWAP pricing to prevent flash manipulation\n * - Circuit breaker for extreme price movements\n * - Slashing for cheaters (burned, not redistributed)\n */\ncontract BondingManager is AccessControl, ReentrancyGuard, Pausable {\n    bytes32 public constant GAME_MANAGER_ROLE = keccak256(\"GAME_MANAGER_ROLE\");\n    bytes32 public constant DISPUTE_MANAGER_ROLE = keccak256(\"DISPUTE_MANAGER_ROLE\");\n\n    ChessToken public immutable chessToken;\n\n    // Bond configuration\n    uint256 public chessMultiplier = 3;  // 3x stake in CHESS\n    uint256 public ethMultiplier = 2;    // 2x stake in ETH\n\n    // TWAP Oracle (simplified - in production use Uniswap/Chainlink)\n    uint256 public chessEthPrice;        // CHESS price in wei (per 1 CHESS)\n    uint256 public priceLastUpdated;\n    uint256 public constant TWAP_PERIOD = 7 days;\n\n    // Circuit breaker\n    uint256 public constant MAX_PRICE_CHANGE_PERCENT = 50;\n    uint256 public lastKnownPrice;\n\n    // Minimum bond floor in ETH terms\n    uint256 public minBondEthValue = 0.01 ether;\n\n    // Bond tracking per user\n    struct UserBond {\n        uint256 chessAmount;\n        uint256 ethAmount;\n        uint256 lockedChess;   // Currently locked in games\n        uint256 lockedEth;     // Currently locked in games\n    }\n\n    mapping(address => UserBond) public bonds;\n\n    // Game bond tracking\n    struct GameBond {\n        address player;\n        uint256 chessAmount;\n        uint256 ethAmount;\n        bool released;\n        bool slashed;\n    }\n\n    mapping(uint256 => mapping(address => GameBond)) public gameBonds; // gameId => player => bond\n\n    // Stats\n    uint256 public totalChessBonded;\n    uint256 public totalEthBonded;\n    uint256 public totalChessSlashed;\n    uint256 public totalEthSlashed;\n\n    // Events\n    event BondDeposited(address indexed user, uint256 chessAmount, uint256 ethAmount);\n    event BondWithdrawn(address indexed user, uint256 chessAmount, uint256 ethAmount);\n    event BondLocked(uint256 indexed gameId, address indexed player, uint256 chessAmount, uint256 ethAmount);\n    event BondReleased(uint256 indexed gameId, address indexed player);\n    event BondSlashed(uint256 indexed gameId, address indexed player, uint256 chessAmount, uint256 ethAmount);\n    event PriceUpdated(uint256 oldPrice, uint256 newPrice);\n    event CircuitBreakerTriggered(uint256 oldPrice, uint256 newPrice);\n\n    constructor(address _chessToken, uint256 _initialPrice) {\n        require(_chessToken != address(0), \"Invalid token address\");\n        require(_initialPrice > 0, \"Invalid price\");\n\n        chessToken = ChessToken(_chessToken);\n        chessEthPrice = _initialPrice;\n        lastKnownPrice = _initialPrice;\n        priceLastUpdated = block.timestamp;\n\n        _grantRole(DEFAULT_ADMIN_ROLE, msg.sender);\n    }\n\n    /**\n     * @notice Deposit bond (CHESS + ETH)\n     * @param chessAmount Amount of CHESS to deposit\n     */\n    function depositBond(uint256 chessAmount) external payable nonReentrant whenNotPaused {\n        require(chessAmount > 0 || msg.value > 0, \"Must deposit something\");\n\n        if (chessAmount > 0) {\n            require(chessToken.transferFrom(msg.sender, address(this), chessAmount), \"CHESS transfer failed\");\n            bonds[msg.sender].chessAmount += chessAmount;\n            totalChessBonded += chessAmount;\n        }\n\n        if (msg.value > 0) {\n            bonds[msg.sender].ethAmount += msg.value;\n            totalEthBonded += msg.value;\n        }\n\n        emit BondDeposited(msg.sender, chessAmount, msg.value);\n    }\n\n    /**\n     * @notice Withdraw unlocked bond\n     * @param chessAmount Amount of CHESS to withdraw\n     * @param ethAmount Amount of ETH to withdraw\n     */\n    function withdrawBond(uint256 chessAmount, uint256 ethAmount) external nonReentrant {\n        UserBond storage bond = bonds[msg.sender];\n\n        uint256 availableChess = bond.chessAmount - bond.lockedChess;\n        uint256 availableEth = bond.ethAmount - bond.lockedEth;\n\n        require(chessAmount <= availableChess, \"Insufficient unlocked CHESS\");\n        require(ethAmount <= availableEth, \"Insufficient unlocked ETH\");\n\n        if (chessAmount > 0) {\n            bond.chessAmount -= chessAmount;\n            totalChessBonded -= chessAmount;\n            require(chessToken.transfer(msg.sender, chessAmount), \"CHESS transfer failed\");\n        }\n\n        if (ethAmount > 0) {\n            bond.ethAmount -= ethAmount;\n            totalEthBonded -= ethAmount;\n            (bool success, ) = msg.sender.call{value: ethAmount}(\"\");\n            require(success, \"ETH transfer failed\");\n        }\n\n        emit BondWithdrawn(msg.sender, chessAmount, ethAmount);\n    }\n\n    /**\n     * @notice Calculate required bond for a game stake\n     * @param stake Game stake amount in wei\n     * @return chessRequired Amount of CHESS required\n     * @return ethRequired Amount of ETH required\n     */\n    function calculateRequiredBond(uint256 stake) public view returns (uint256 chessRequired, uint256 ethRequired) {\n        ethRequired = stake * ethMultiplier;\n\n        // Calculate CHESS required based on TWAP price\n        // chessRequired = (stake * chessMultiplier) / chessEthPrice\n        // Ensure minimum floor\n        uint256 chessValue = (stake * chessMultiplier * 1e18) / chessEthPrice;\n        uint256 minChess = (minBondEthValue * 1e18) / chessEthPrice;\n\n        chessRequired = chessValue > minChess ? chessValue : minChess;\n    }\n\n    /**\n     * @notice Lock bond for a game\n     * @param gameId Game identifier\n     * @param player Player address\n     * @param stake Game stake\n     */\n    function lockBondForGame(uint256 gameId, address player, uint256 stake)\n        external\n        onlyRole(GAME_MANAGER_ROLE)\n        whenNotPaused\n    {\n        (uint256 chessRequired, uint256 ethRequired) = calculateRequiredBond(stake);\n\n        UserBond storage bond = bonds[player];\n        uint256 availableChess = bond.chessAmount - bond.lockedChess;\n        uint256 availableEth = bond.ethAmount - bond.lockedEth;\n\n        require(availableChess >= chessRequired, \"Insufficient CHESS bond\");\n        require(availableEth >= ethRequired, \"Insufficient ETH bond\");\n\n        bond.lockedChess += chessRequired;\n        bond.lockedEth += ethRequired;\n\n        gameBonds[gameId][player] = GameBond({\n            player: player,\n            chessAmount: chessRequired,\n            ethAmount: ethRequired,\n            released: false,\n            slashed: false\n        });\n\n        emit BondLocked(gameId, player, chessRequired, ethRequired);\n    }\n\n    /**\n     * @notice Release bond after game ends normally\n     * @param gameId Game identifier\n     * @param player Player address\n     */\n    function releaseBond(uint256 gameId, address player)\n        external\n        onlyRole(GAME_MANAGER_ROLE)\n    {\n        GameBond storage gameBond = gameBonds[gameId][player];\n        require(!gameBond.released && !gameBond.slashed, \"Bond already processed\");\n\n        UserBond storage bond = bonds[player];\n        bond.lockedChess -= gameBond.chessAmount;\n        bond.lockedEth -= gameBond.ethAmount;\n\n        gameBond.released = true;\n\n        emit BondReleased(gameId, player);\n    }\n\n    /**\n     * @notice Slash bond for cheating (burn tokens, send ETH to treasury)\n     * @param gameId Game identifier\n     * @param cheater Cheater's address\n     */\n    function slashBond(uint256 gameId, address cheater)\n        external\n        onlyRole(DISPUTE_MANAGER_ROLE)\n    {\n        GameBond storage gameBond = gameBonds[gameId][cheater];\n        require(!gameBond.released && !gameBond.slashed, \"Bond already processed\");\n\n        UserBond storage bond = bonds[cheater];\n\n        uint256 chessToSlash = gameBond.chessAmount;\n        uint256 ethToSlash = gameBond.ethAmount;\n\n        // Remove from user's bond\n        bond.chessAmount -= chessToSlash;\n        bond.ethAmount -= ethToSlash;\n        bond.lockedChess -= chessToSlash;\n        bond.lockedEth -= ethToSlash;\n\n        // Update totals\n        totalChessBonded -= chessToSlash;\n        totalEthBonded -= ethToSlash;\n        totalChessSlashed += chessToSlash;\n        totalEthSlashed += ethToSlash;\n\n        // Burn CHESS tokens (deflationary)\n        chessToken.burn(chessToSlash);\n\n        // ETH goes to contract (can be claimed by admin for treasury)\n        // In production, send to DAO treasury\n\n        gameBond.slashed = true;\n\n        emit BondSlashed(gameId, cheater, chessToSlash, ethToSlash);\n    }\n\n    /**\n     * @notice Update TWAP price (simplified - in production use oracle)\n     * @param newPrice New CHESS/ETH price\n     */\n    function updatePrice(uint256 newPrice) external onlyRole(DEFAULT_ADMIN_ROLE) {\n        require(newPrice > 0, \"Invalid price\");\n\n        // Circuit breaker check\n        if (lastKnownPrice > 0) {\n            uint256 priceDiff;\n            if (newPrice > lastKnownPrice) {\n                priceDiff = newPrice - lastKnownPrice;\n            } else {\n                priceDiff = lastKnownPrice - newPrice;\n            }\n\n            uint256 changePercent = (priceDiff * 100) / lastKnownPrice;\n\n            if (changePercent > MAX_PRICE_CHANGE_PERCENT) {\n                _pause();\n                emit CircuitBreakerTriggered(lastKnownPrice, newPrice);\n                return;\n            }\n        }\n\n        uint256 oldPrice = chessEthPrice;\n        chessEthPrice = newPrice;\n        lastKnownPrice = newPrice;\n        priceLastUpdated = block.timestamp;\n\n        emit PriceUpdated(oldPrice, newPrice);\n    }\n\n    /**\n     * @notice Get user's available (unlocked) bond\n     */\n    function getAvailableBond(address user) external view returns (uint256 chess, uint256 eth) {\n        UserBond storage bond = bonds[user];\n        chess = bond.chessAmount - bond.lockedChess;\n        eth = bond.ethAmount - bond.lockedEth;\n    }\n\n    /**\n     * @notice Check if user has sufficient bond for a stake\n     */\n    function hasSufficientBond(address user, uint256 stake) external view returns (bool) {\n        (uint256 chessRequired, uint256 ethRequired) = calculateRequiredBond(stake);\n        UserBond storage bond = bonds[user];\n\n        uint256 availableChess = bond.chessAmount - bond.lockedChess;\n        uint256 availableEth = bond.ethAmount - bond.lockedEth;\n\n        return availableChess >= chessRequired && availableEth >= ethRequired;\n    }\n\n    // Admin functions\n\n    function setMultipliers(uint256 _chessMultiplier, uint256 _ethMultiplier)\n        external\n        onlyRole(DEFAULT_ADMIN_ROLE)\n    {\n        require(_chessMultiplier > 0 && _ethMultiplier > 0, \"Invalid multipliers\");\n        chessMultiplier = _chessMultiplier;\n        ethMultiplier = _ethMultiplier;\n    }\n\n    function setMinBondEthValue(uint256 _minBondEthValue) external onlyRole(DEFAULT_ADMIN_ROLE) {\n        minBondEthValue = _minBondEthValue;\n    }\n\n    function unpause() external onlyRole(DEFAULT_ADMIN_ROLE) {\n        _unpause();\n    }\n\n    function pause() external onlyRole(DEFAULT_ADMIN_ROLE) {\n        _pause();\n    }\n\n    /**\n     * @notice Withdraw accumulated slashed ETH to treasury\n     * @param treasury Treasury address\n     */\n    function withdrawSlashedEth(address treasury) external onlyRole(DEFAULT_ADMIN_ROLE) {\n        uint256 slashedEth = address(this).balance - totalEthBonded;\n        require(slashedEth > 0, \"No slashed ETH\");\n\n        (bool success, ) = treasury.call{value: slashedEth}(\"\");\n        require(success, \"Transfer failed\");\n    }\n\n    // Receive ETH\n    receive() external payable {}\n}\n",
  "sourcePath": "/Users/jacopo/Documents/solidity/chessgame/ethereum/contracts/Token/BondingManager.sol",
  "compiler": {
    "name": "solc",
    "version": "0.8.20+commit.a1b79de6.Emscripten.clang"
  },
  "schemaVersion": "3.4.16",
  "updatedAt": "2026-01-07T00:14:29.426Z",
  "networkType": "ethereum",
  "devdoc": {
    "details": "Implements TWAP oracle, circuit breaker, and slashing mechanism Key Features: - Hybrid bond: Both CHESS tokens and ETH required - TWAP pricing to prevent flash manipulation - Circuit breaker for extreme price movements - Slashing for cheaters (burned, not redistributed)",
    "errors": {
      "AccessControlBadConfirmation()": [
        {
          "details": "The caller of a function is not the expected one. NOTE: Don't confuse with {AccessControlUnauthorizedAccount}."
        }
      ],
      "AccessControlUnauthorizedAccount(address,bytes32)": [
        {
          "details": "The `account` is missing a role."
        }
      ],
      "EnforcedPause()": [
        {
          "details": "The operation failed because the contract is paused."
        }
      ],
      "ExpectedPause()": [
        {
          "details": "The operation failed because the contract is not paused."
        }
      ],
      "ReentrancyGuardReentrantCall()": [
        {
          "details": "Unauthorized reentrant call."
        }
      ]
    },
    "events": {
      "Paused(address)": {
        "details": "Emitted when the pause is triggered by `account`."
      },
      "RoleAdminChanged(bytes32,bytes32,bytes32)": {
        "details": "Emitted when `newAdminRole` is set as ``role``'s admin role, replacing `previousAdminRole` `DEFAULT_ADMIN_ROLE` is the starting admin for all roles, despite {RoleAdminChanged} not being emitted to signal this."
      },
      "RoleGranted(bytes32,address,address)": {
        "details": "Emitted when `account` is granted `role`. `sender` is the account that originated the contract call. This account bears the admin role (for the granted role). Expected in cases where the role was granted using the internal {AccessControl-_grantRole}."
      },
      "RoleRevoked(bytes32,address,address)": {
        "details": "Emitted when `account` is revoked `role`. `sender` is the account that originated the contract call:   - if using `revokeRole`, it is the admin role bearer   - if using `renounceRole`, it is the role bearer (i.e. `account`)"
      },
      "Unpaused(address)": {
        "details": "Emitted when the pause is lifted by `account`."
      }
    },
    "kind": "dev",
    "methods": {
      "calculateRequiredBond(uint256)": {
        "params": {
          "stake": "Game stake amount in wei"
        },
        "returns": {
          "chessRequired": "Amount of CHESS required",
          "ethRequired": "Amount of ETH required"
        }
      },
      "depositBond(uint256)": {
        "params": {
          "chessAmount": "Amount of CHESS to deposit"
        }
      },
      "getRoleAdmin(bytes32)": {
        "details": "Returns the admin role that controls `role`. See {grantRole} and {revokeRole}. To change a role's admin, use {_setRoleAdmin}."
      },
      "grantRole(bytes32,address)": {
        "details": "Grants `role` to `account`. If `account` had not been already granted `role`, emits a {RoleGranted} event. Requirements: - the caller must have ``role``'s admin role. May emit a {RoleGranted} event."
      },
      "hasRole(bytes32,address)": {
        "details": "Returns `true` if `account` has been granted `role`."
      },
      "lockBondForGame(uint256,address,uint256)": {
        "params": {
          "gameId": "Game identifier",
          "player": "Player address",
          "stake": "Game stake"
        }
      },
      "paused()": {
        "details": "Returns true if the contract is paused, and false otherwise."
      },
      "releaseBond(uint256,address)": {
        "params": {
          "gameId": "Game identifier",
          "player": "Player address"
        }
      },
      "renounceRole(bytes32,address)": {
        "details": "Revokes `role` from the calling account. Roles are often managed via {grantRole} and {revokeRole}: this function's purpose is to provide a mechanism for accounts to lose their privileges if they are compromised (such as when a trusted device is misplaced). If the calling account had been revoked `role`, emits a {RoleRevoked} event. Requirements: - the caller must be `callerConfirmation`. May emit a {RoleRevoked} event."
      },
      "revokeRole(bytes32,address)": {
        "details": "Revokes `role` from `account`. If `account` had been granted `role`, emits a {RoleRevoked} event. Requirements: - the caller must have ``role``'s admin role. May emit a {RoleRevoked} event."
      },
      "slashBond(uint256,address)": {
        "params": {
          "cheater": "Cheater's address",
          "gameId": "Game identifier"
        }
      },
      "supportsInterface(bytes4)": {
        "details": "Returns true if this contract implements the interface defined by `interfaceId`. See the corresponding https://eips.ethereum.org/EIPS/eip-165#how-interfaces-are-identified[ERC section] to learn more about how these ids are created. This function call must use less than 30 000 gas."
      },
      "updatePrice(uint256)": {
        "params": {
          "newPrice": "New CHESS/ETH price"
        }
      },
      "withdrawBond(uint256,uint256)": {
        "params": {
          "chessAmount": "Amount of CHESS to withdraw",
          "ethAmount": "Amount of ETH to withdraw"
        }
      },
      "withdrawSlashedEth(address)": {
        "params": {
          "treasury": "Treasury address"
        }
      }
    },
    "title": "BondingManager",
    "version": 1
  },
  "userdoc": {
    "kind": "user",
    "methods": {
      "calculateRequiredBond(uint256)": {
        "notice": "Calculate required bond for a game stake"
      },
      "depositBond(uint256)": {
        "notice": "Deposit bond (CHESS + ETH)"
      },
      "getAvailableBond(address)": {
        "notice": "Get user's available (unlocked) bond"
      },
      "hasSufficientBond(address,uint256)": {
        "notice": "Check if user has sufficient bond for a stake"
      },
      "lockBondForGame(uint256,address,uint256)": {
        "notice": "Lock bond for a game"
      },
      "releaseBond(uint256,address)": {
        "notice": "Release bond after game ends normally"
      },
      "slashBond(uint256,address)": {
        "notice": "Slash bond for cheating (burn tokens, send ETH to treasury)"
      },
      "updatePrice(uint256)": {
        "notice": "Update TWAP price (simplified - in production use oracle)"
      },
      "withdrawBond(uint256,uint256)": {
        "notice": "Withdraw unlocked bond"
      },
      "withdrawSlashedEth(address)": {
        "notice": "Withdraw accumulated slashed ETH to treasury"
      }
    },
    "notice": "Manages hybrid bonds (CHESS + ETH) for chess games",
    "version": 1
  }
}