{
  "contractName": "ChessCore",
  "abi": [
    {
      "inputs": [
        {
          "internalType": "address",
          "name": "_whitePlayer",
          "type": "address"
        },
        {
          "internalType": "uint256",
          "name": "_value",
          "type": "uint256"
        }
      ],
      "stateMutability": "payable",
      "type": "constructor"
    },
    {
      "inputs": [],
      "name": "ReentrancyGuardReentrantCall",
      "type": "error"
    },
    {
      "anonymous": false,
      "inputs": [
        {
          "indexed": false,
          "internalType": "int8",
          "name": "player",
          "type": "int8"
        },
        {
          "indexed": false,
          "internalType": "uint8",
          "name": "startX",
          "type": "uint8"
        },
        {
          "indexed": false,
          "internalType": "uint8",
          "name": "startY",
          "type": "uint8"
        },
        {
          "indexed": false,
          "internalType": "uint8",
          "name": "endX",
          "type": "uint8"
        },
        {
          "indexed": false,
          "internalType": "uint8",
          "name": "endY",
          "type": "uint8"
        },
        {
          "indexed": false,
          "internalType": "string",
          "name": "comment",
          "type": "string"
        }
      ],
      "name": "Debug",
      "type": "event"
    },
    {
      "anonymous": false,
      "inputs": [
        {
          "indexed": false,
          "internalType": "address",
          "name": "player",
          "type": "address"
        },
        {
          "indexed": false,
          "internalType": "address",
          "name": "winner",
          "type": "address"
        }
      ],
      "name": "PlayerResigned",
      "type": "event"
    },
    {
      "anonymous": false,
      "inputs": [
        {
          "indexed": false,
          "internalType": "address",
          "name": "winner",
          "type": "address"
        },
        {
          "indexed": false,
          "internalType": "uint256",
          "name": "amount",
          "type": "uint256"
        }
      ],
      "name": "PrizeClaimed",
      "type": "event"
    },
    {
      "inputs": [],
      "name": "betting",
      "outputs": [
        {
          "internalType": "uint256",
          "name": "",
          "type": "uint256"
        }
      ],
      "stateMutability": "view",
      "type": "function"
    },
    {
      "inputs": [
        {
          "internalType": "uint256",
          "name": "",
          "type": "uint256"
        },
        {
          "internalType": "uint256",
          "name": "",
          "type": "uint256"
        }
      ],
      "name": "board",
      "outputs": [
        {
          "internalType": "int8",
          "name": "",
          "type": "int8"
        }
      ],
      "stateMutability": "view",
      "type": "function"
    },
    {
      "inputs": [],
      "name": "currentPlayer",
      "outputs": [
        {
          "internalType": "address",
          "name": "",
          "type": "address"
        }
      ],
      "stateMutability": "view",
      "type": "function"
    },
    {
      "inputs": [],
      "name": "printBoard",
      "outputs": [
        {
          "internalType": "string",
          "name": "",
          "type": "string"
        }
      ],
      "stateMutability": "view",
      "type": "function"
    },
    {
      "inputs": [],
      "name": "printChessBoardLayoutSVG",
      "outputs": [
        {
          "internalType": "string",
          "name": "",
          "type": "string"
        }
      ],
      "stateMutability": "view",
      "type": "function"
    },
    {
      "stateMutability": "payable",
      "type": "receive"
    },
    {
      "inputs": [],
      "name": "joinGameAsBlack",
      "outputs": [],
      "stateMutability": "payable",
      "type": "function"
    },
    {
      "inputs": [],
      "name": "claimPrize",
      "outputs": [],
      "stateMutability": "nonpayable",
      "type": "function"
    },
    {
      "inputs": [],
      "name": "resign",
      "outputs": [],
      "stateMutability": "nonpayable",
      "type": "function"
    },
    {
      "inputs": [
        {
          "internalType": "uint8",
          "name": "startX",
          "type": "uint8"
        },
        {
          "internalType": "uint8",
          "name": "startY",
          "type": "uint8"
        },
        {
          "internalType": "uint8",
          "name": "endX",
          "type": "uint8"
        },
        {
          "internalType": "uint8",
          "name": "endY",
          "type": "uint8"
        }
      ],
      "name": "makeMove",
      "outputs": [],
      "stateMutability": "nonpayable",
      "type": "function"
    },
    {
      "inputs": [
        {
          "internalType": "uint8",
          "name": "startX",
          "type": "uint8"
        },
        {
          "internalType": "uint8",
          "name": "startY",
          "type": "uint8"
        },
        {
          "internalType": "uint8",
          "name": "endX",
          "type": "uint8"
        },
        {
          "internalType": "uint8",
          "name": "endY",
          "type": "uint8"
        },
        {
          "internalType": "int8",
          "name": "promotionPiece",
          "type": "int8"
        }
      ],
      "name": "makeMoveWithPromotion",
      "outputs": [],
      "stateMutability": "nonpayable",
      "type": "function"
    },
    {
      "inputs": [],
      "name": "getPlayers",
      "outputs": [
        {
          "internalType": "address",
          "name": "",
          "type": "address"
        },
        {
          "internalType": "address",
          "name": "",
          "type": "address"
        }
      ],
      "stateMutability": "view",
      "type": "function"
    },
    {
      "inputs": [
        {
          "internalType": "uint8",
          "name": "x",
          "type": "uint8"
        },
        {
          "internalType": "uint8",
          "name": "y",
          "type": "uint8"
        },
        {
          "internalType": "int8",
          "name": "piece",
          "type": "int8"
        }
      ],
      "name": "debugCreative",
      "outputs": [
        {
          "internalType": "string",
          "name": "",
          "type": "string"
        }
      ],
      "stateMutability": "nonpayable",
      "type": "function"
    },
    {
      "inputs": [],
      "name": "getGameState",
      "outputs": [
        {
          "internalType": "uint8",
          "name": "",
          "type": "uint8"
        }
      ],
      "stateMutability": "view",
      "type": "function"
    }
  ],
  "bytecode": "0x610160601f6200491838819003918201601f19168301916001600160401b038311848410176200048a57808492604094855283398101031262000486578051906001600160a01b03821682036200048657602001515f6080819052600160a0819052600260c052600360e0526004610100526005610120526006610140526008805460ff60301b191666ff000000000000179055600955600b805461ff001916905580546001600160401b03191667fcfefdfafbfdfefc1781559091905b600860ff821610620004245750610100516007549060c05166ff00000000000060e05165ff00000000006101205164ff00000000610140519163ff00000060ff998a8a60381b67ff00000000000000169a169060018060401b0319161761ff008960081b161762ff00008760101b16179160181b16179160201b16179160281b16179160301b1617176007555f5b600882821610620003c4575050600880546bffffffff0000ffffffffffff19166b040004070000000000000000179055600b805462010000600160b01b031916601083901b62010000600160b01b0316179055600d80546001600160a01b0319166001600160a01b03909216919091179055600a556040516144679081620004b182396080518181816103ce015281816105da0152818161067401528181610ad80152818161125f01528181611daf0152818161245701528181612a4a01528181612ec70152818161318c01528181613255015281816132ee015281816137120152818161380e01528181613dfe01528181613f330152818161403301526142a4015260a05181818161044a015281816106f40152818161076301528181610955015281816109f701528181610a4701528181610ec901528181610f4801528181610fb7015281816110c701528181611168015281816111d001528181611dd80152818161249d0152818161293901528181612a9601528181612b470152613a9d015260c0518181816108a501528181611e02015281816124de01528181613ac7015261418f015260e0518181816108d401528181611e2c0152818161251c0152613cd701526101005181818161090301528181611e560152818161255a015281816126990152818161278c01528181612fd80152613d070152610120518181816107a20152818161101d0152818161107201528181611e81015281816125980152613d370152610140518181816104120152818161048901528181610b0201528181610e890152818161181001528181611eac015281816125d6015281816126390152818161284101528181613af001526143210152f35b60a0515f0b6008821015620004105781620004026200040892601f600895168360051c600601919060ff83549160031b928116831b921b1916179055565b6200049e565b90506200014b565b634e487b7160e01b5f52603260045260245ffd5b60a0515f0b90607f198214620004725760088110156200041057620004026200046c925f03601f83168360051c600101919060ff83549160031b928116831b921b1916179055565b620000bd565b634e487b7160e01b5f52601160045260245ffd5b5f80fd5b634e487b7160e01b5f52604160045260245ffd5b60ff1660ff811462000472576001019056fe608080604052600436101561008b575b50361561001a575f80fd5b60ff600b5460081c1660058110156100775761003257005b60405162461bcd60e51b815260206004820152601860248201527f47616d652068617320616c7265616479207374617274656400000000000000006044820152606490fd5b634e487b7160e01b5f52602160045260245ffd5b5f9060e0908235821c918263085791b614611915575050806339b4b0d6146118f75780634404a438146118ce578063538a93ed146117c457806369652fcf1461164057806370740ac9146112f75780637bed3d1c14610d7a5780638086a92a14610d2e5780638b5b9ccc14610cf55780639454986514610cc95780639c2a094f14610296578063b7d0628b146102705763ee545d4f0361000f578060031936011261026d57600b546001600160a01b039033601082901c83161461022957600a5434036101cc57600c5491821661017c576001600160a01b03199091163317600c5561ff00191661010017600b5580f35b60405162461bcd60e51b815260206004820152602260248201527f426c61636b20706c6179657220736c6f7420697320616c72656164792074616b60448201526132b760f11b6064820152608490fd5b60405162461bcd60e51b815260206004820152602f60248201527f506c656173652073656e64207468652073616d6520616d6f756e74206173207460448201526e3432903bb434ba3290383630bcb2b960891b6064820152608490fd5b606460405162461bcd60e51b815260206004820152602060248201527f596f752061726520616c72656164792074686520776869746520706c617965726044820152fd5b80fd5b503461026d578060031936011261026d57602061028b6143df565b60ff60405191168152f35b503461026d5760a036600319011261026d576102b0611b69565b6102b8611b7d565b6102c0611b8d565b916102c9611b9d565b91608435850b60843503610cc557600d546001600160a01b031633819003610c8a57600c546001916001600160a01b0390911614610c82575b6008831015610b7f57610328869161031a8486611bad565b90549060031b1c830b612254565b810b1315610c335760ff600b5460081c166005811015610c1f5760018114908115610c16575b5015610bc75761036083858385612f98565b15610b935761036f8183611bad565b90549060031b1c850b906008851015610b7f5761038c8486611bad565b90549060031b1c860b916103bd816103a48789611bad565b90919060ff83549160031b928116831b921b1916179055565b86926104046103cc8487611bad565b7f00000000000000000000000000000000000000000000000000000000000000009060ff83549160031b928116831b921b1916179055565b61040d82612280565b60ff807f000000000000000000000000000000000000000000000000000000000000000016911614610b00575b879061044583612280565b60ff807f0000000000000000000000000000000000000000000000000000000000000000169116146106ca575b5060ff9161048491156106b657612280565b1660ff7f0000000000000000000000000000000000000000000000000000000000000000161461057b575b5050506104ba61229e565b1561052e576104c8916134f8565b15610524576104d76003612115565b600d54600b5460101c6001600160a01b03908116908216810361051f5750600c546001600160a01b03165b6001600160a01b03166001600160a01b03199190911617600d5580f35b610502565b6104d76001612115565b61053661234f565b1561056257610544916134cb565b15610558576105536004612115565b6104d7565b6105536001612115565b505061056c6133a0565b15610558576105536002612115565b600d54600b5460101c6001600160a01b0390811691160361069e57600160ff1960085416176008555b600260ff6105c36105be8280891695168a0b858b0b612268565b612280565b16036104af576006810361064557506106315780547f0000000000000000000000000000000000000000000000000000000000000000603890811b60ff60381b1667ff00ff000000000019831665ff00000000009390921c870b60281b92909216171790555b5f80806104af565b634e487b7160e01b84526032600452602484fd5b600214610654575b5050610629565b61063157805480850b60181b63ff0000001663ff0000ff199091161760ff7f0000000000000000000000000000000000000000000000000000000000000000161790555f8061064d565b630100000063ff0000001960085416176008556105a4565b60ff60301b80196008541617600855612280565b600160ff6106e36105be8783168d0b8b84168e0b612268565b16149081610ad4575b506109f4575b7f0000000000000000000000000000000000000000000000000000000000000000880b82149081806109e7575b806109da575b1561094f575060019060085460ff60381b8960381b169060ff60301b8960301b169067ffff000000000000191617176008555b80610944575b6107877f0000000000000000000000000000000000000000000000000000000000000000611d98565b890b831480610937575b8190821561092f575b5015610472577f0000000000000000000000000000000000000000000000000000000000000000890b6084358a0b148015610900575b80156108d1575b80156108a2575b1561085d57889015610838576108245760ff916104849161081c610802898b611bad565b6084359060ff83549160031b928116831b921b1916179055565b915091610472565b634e487b7160e01b88526032600452602488fd5b5060ff916104849161085861084e608435611d98565b6103a48a8c611bad565b61081c565b60405162461bcd60e51b815260206004820152601760248201527f496e76616c69642070726f6d6f74696f6e2070696563650000000000000000006044820152606490fd5b507f0000000000000000000000000000000000000000000000000000000000000000890b6084358a0b146107de565b507f0000000000000000000000000000000000000000000000000000000000000000890b6084358a0b146107d7565b507f0000000000000000000000000000000000000000000000000000000000000000890b6084358a0b146107d0565b90505f61079a565b50600760ff891614610791565b5060ff87161561075e565b906109797f0000000000000000000000000000000000000000000000000000000000000000611d98565b890b8314806109cd575b806109c0575b15610758576008805467ffff0000000000001916603089901b60ff60301b161760388a901b60ff60381b1617905560019150610758565b50600360ff891614610989565b50600160ff871614610983565b50600460ff891614610725565b50600660ff87161461071f565b837f0000000000000000000000000000000000000000000000000000000000000000890b831480610abf575b80610ab2575b15610a415761082457610a3c6103cc8787611bad565b6106f2565b50610a6b7f0000000000000000000000000000000000000000000000000000000000000000611d98565b880b821480610a9d575b80610a90575b156106f257879350610a3c6103cc8787611bad565b50600460ff861614610a7b565b5060ff8616880b60085460301c890b14610a75565b50600360ff871614610a26565b5060ff8716890b60085460301c8a0b14610a20565b90507f0000000000000000000000000000000000000000000000000000000000000000890b145f6106ec565b7f0000000000000000000000000000000000000000000000000000000000000000880b8203610b545760085460ff60481b8760481b169060ff60401b8960401b169061ffff60401b1916171760085561043a565b6008805461ffff60501b1916605089901b60ff60501b1617605888901b60ff60581b1617905561043a565b634e487b7160e01b86526032600452602486fd5b60405162461bcd60e51b815260206004820152600c60248201526b496e76616c6964206d6f766560a01b6044820152606490fd5b60405162461bcd60e51b815260206004820152602160248201527f47616d6520686173206e6f742073746172746564206f722068617320656e64656044820152601960fa1b6064820152608490fd5b9050155f61034e565b634e487b7160e01b86526021600452602486fd5b60405162461bcd60e51b815260206004820152602160248201527f596f752063616e206f6e6c79206d6f766520796f7572206f776e2070696563656044820152607360f81b6064820152608490fd5b505f19610302565b60405162461bcd60e51b815260206004820152601360248201527249742773206e6f7420796f7572207475726e2160681b6044820152606490fd5b8480fd5b503461026d578060031936011261026d57610cf1610ce5611c6d565b60405191829182611b3d565b0390f35b503461026d578060031936011261026d57600b54600c54604080516001600160a01b0360109490941c8416815292909116602083015290f35b503461026d57604036600319011261026d576024356004356008811015610d76576008821015610d765760209291610d6591611bad565b9190546040519260031b1c900b8152f35b8280fd5b503461026d57608036600319011261026d57610d94611b69565b610d9c611b7d565b610da4611b8d565b91610dad611b9d565b600d549092906001600160a01b031633819003610c8a57600c546001916001600160a01b03909116146112ef575b6008831015610b7f57610df3869161031a8486611bad565b810b1315610c335760ff600b5460081c166005811015610c1f57600181149081156112e6575b5015610bc757610e2b83858385612f98565b15610b9357610e3a8183611bad565b90549060031b1c850b906008851015610b7f57610e578486611bad565b90549060031b1c860b610e6e836103a48789611bad565b8692610e7d6103cc8487611bad565b610e8681612280565b917f00000000000000000000000000000000000000000000000000000000000000009260ff808516911614611287575b8489809289610ec486612280565b60ff807f000000000000000000000000000000000000000000000000000000000000000016911614610f1a575b50505050610f0760ff928392156106b657612280565b1691161461057b575050506104ba61229e565b60ff610f356105be8260019416860b95838c16900b86612268565b1614908161125b575b50611166575b50507f0000000000000000000000000000000000000000000000000000000000000000890b8214908180611159575b8061114c575b156110c1575060019060085460ff60381b8a60381b169060ff60301b8a60301b169067ffff000000000000191617176008555b806110b6575b610fdb7f0000000000000000000000000000000000000000000000000000000000000000611d98565b8a0b8314806110a9575b819082156110a1575b50610ffd575b89869189610ef1565b9098901561105c57610f0760ff9283929a61105361101b8b8d611bad565b7f00000000000000000000000000000000000000000000000000000000000000009060ff83549160031b928116831b921b1916179055565b92509250610ff4565b97610f0760ff92839261109c8b6103a48c6110967f0000000000000000000000000000000000000000000000000000000000000000611d98565b92611bad565b611053565b90505f610fee565b50600760ff8a1614610fe5565b5060ff881615610fb2565b906110eb7f0000000000000000000000000000000000000000000000000000000000000000611d98565b8a0b83148061113f575b80611132575b15610fac576008805467ffff000000000000191660308a901b60ff60301b161760388b901b60ff60381b1617905560019150610fac565b50600360ff8a16146110fb565b50600160ff8816146110f5565b50600460ff8a1614610f79565b50600660ff881614610f73565b7f00000000000000000000000000000000000000000000000000000000000000008b0b84148061124b575b8061123e575b156111c957506111b5576111ae6103cc8888611bad565b845f610f44565b634e487b7160e01b89526032600452602489fd5b90506111f47f0000000000000000000000000000000000000000000000000000000000000000611d98565b8a0b8314908161122d575b5080611220575b156111ae5788945061121b6103cc8888611bad565b6111ae565b50600460ff871614611206565b905060085460301c8a0b145f6111ff565b50600360ff891614611197565b508060085460301c8c0b14611191565b90507f00000000000000000000000000000000000000000000000000000000000000008c0b145f610f3e565b82890b82036112bb5760085460ff60481b8860481b169060ff60401b8a60401b169061ffff60401b19161717600855610eb6565b6008805461ffff60501b191660508a901b60ff60501b1617605889901b60ff60581b16179055610eb6565b9050155f610e19565b505f19610ddb565b503461026d578060031936011261026d5760026009541461162e576002600955600b5460ff81166115e95760ff8160081c166005811015908161155e57600381149182156115dc575b82156115b7575b5050156115725760019060ff19161780600b554760ff8260081c16600581101561155e576003810361140057507f95681e512bc0fe659e195e06c283eada494316f3d801213e48e7101af92bf770915060018060a01b036113c9848080808686600b5460101c166113b98133146121fc565b5af16113c3612135565b50612164565b600b5460101c166113f46040519283928360209093929193604081019460018060a01b031681520152565b0390a15b600160095580f35b6004810361147f57507f95681e512bc0fe659e195e06c283eada494316f3d801213e48e7101af92bf770915060018060a01b0361145b848080808686600c541661144b8133146121fc565b5af1611455612135565b506121b0565b600c5460408051929091166001600160a01b031682526020820192909252a16113f8565b60021461148e575b50506113f8565b8060011c9182820391821161154a576114bc848080808760018060a01b03809760101c165af16113c3612135565b80600b5460101c166040518061150a7f95681e512bc0fe659e195e06c283eada494316f3d801213e48e7101af92bf7709687948360209093929193604081019460018060a01b031681520152565b0390a1611524848080808686600c54165af1611455612135565b600c5460408051929091166001600160a01b031682526020820192909252a15f80611487565b634e487b7160e01b84526011600452602484fd5b634e487b7160e01b84526021600452602484fd5b60405162461bcd60e51b815260206004820152601860248201527f47616d65206973206e6f742066696e69736865642079657400000000000000006044820152606490fd5b9091506115c8576002145f80611347565b634e487b7160e01b83526021600452602483fd5b5060048114915083611340565b60405162461bcd60e51b815260206004820152601e60248201527f5072697a652068617320616c7265616479206265656e20636c61696d656400006044820152606490fd5b604051633ee5aeb560e01b8152600490fd5b503461026d578060031936011261026d57600b5460018060a01b03808260101c163314908180156117b7575b156117725760ff8360081c16600581101561175e5760018114908115611755575b5015611710577fc42bb29411173bbda4c2ff27b35fb6dc57e2cbdb1bac3fcb7c51b87dc0beb78a926116f392156116f9575061040061ff0019600b541617600b55600c54165b604080513381526001600160a01b03909216602083015290918291820190565b0390a180f35b61ff00191661030017600b81905560101c166116d3565b60405162461bcd60e51b815260206004820152601860248201527f47616d6520697320616c72656164792066696e697368656400000000000000006044820152606490fd5b9050155f61168d565b634e487b7160e01b85526021600452602485fd5b60405162461bcd60e51b815260206004820152601760248201527f4f6e6c7920706c61796572732063616e2072657369676e0000000000000000006044820152606490fd5b5080600c5416331461166c565b503461026d57606036600319011261026d576117de611b69565b906117e7611b7d565b906044359081810b918281036118ca5760088510156118b65761180e906103a48587611bad565b7f000000000000000000000000000000000000000000000000000000000000000080820b830361186c5750505060ff60401b60ff60481b6008549260481b169260401b169061ffff60401b191617176008555b610cf1610ce5611c6d565b61187590611d98565b900b14611884575b5050611861565b6008805461ffff60501b191660509390931b60ff60501b169290921760589190911b60ff60581b161790555f8061187d565b634e487b7160e01b82526032600452602482fd5b5080fd5b503461026d578060031936011261026d57600d546040516001600160a01b039091168152602090f35b503461026d578060031936011261026d576020600a54604051908152f35b833461026d578060031936011261026d576101009167ffffffffffffffff9084840182811186821017611b0857604052829182865b600890818710156119e157604051865480850b8252806020941c850b848301528060101c850b60408301528060181c850b606083015280841c850b60808301528060281c850b60a08301528060301c850b60c083015260381c840b86820152888101818110868211176119cd57604052815260019687019695909501940161194a565b634e487b7160e01b85526041600452602485fd5b604051639ef3eb8760e01b8152839085828b8d600485015b600880851015611a45578390835183908a915b838310611a295750505050602090600192019201930192906119f9565b81518c0b81528794506001929092019160209182019101611a0c565b87868882816108048173__ChessMediaLibrary_____________________5af4918215611afd578392611a81575b60405180610cf18582611b3d565b9091503d8084843e611a938184611c0a565b820191602081840312611af9578051918211611af9570181601f82011215610d7657805192611ac184611c2c565b92611acf6040519485611c0a565b8484526020858401011161026d5750610cf192611af29160208085019101611b1c565b8280611a73565b8380fd5b6040513d85823e3d90fd5b634e487b7160e01b84526041600452602484fd5b5f5b838110611b2d5750505f910152565b8181015183820152602001611b1e565b60409160208252611b5d8151809281602086015260208686019101611b1c565b601f01601f1916010190565b6004359060ff82168203611b7957565b5f80fd5b6024359060ff82168203611b7957565b6044359060ff82168203611b7957565b6064359060ff82168203611b7957565b9190916008831015611bc657601f908360051c01921690565b634e487b7160e01b5f52603260045260245ffd5b6040810190811067ffffffffffffffff821117611bf657604052565b634e487b7160e01b5f52604160045260245ffd5b90601f8019910116810190811067ffffffffffffffff821117611bf657604052565b67ffffffffffffffff8111611bf657601f01601f191660200190565b60ff1660ff8114611c595760010190565b634e487b7160e01b5f52601160045260245ffd5b604090815160209081810181811067ffffffffffffffff821117611bf65784525f8082529081905b600860ff818186161015611d8e57919083925b8181851610611cf8575050611cf29150611cec6021885183611cd382955180928b8086019101611b1c565b8101600560f91b89820152036001810184520182611c0a565b92611c48565b91611c95565b909182861015611d7a57611d7290611d6c6021611d26611d18888b611bad565b90549060031b1c890b611da8565b928c519381611d3f8d8794519281849287019101611b1c565b8201611d548d83519381859285019101611b1c565b01600160fd1b8c820152036001810184520182611c0a565b93611c48565b929190611ca8565b634e487b7160e01b85526032600452602485fd5b5090955050505050565b5f0b607f198114611c59575f0390565b5f90810b907f0000000000000000000000000000000000000000000000000000000000000000810b82146120f6577f000000000000000000000000000000000000000000000000000000000000000080820b83146120d6577f000000000000000000000000000000000000000000000000000000000000000080830b84146120b5577f000000000000000000000000000000000000000000000000000000000000000080840b8514612093577f00000000000000000000000000000000000000000000000000000000000000009081850b8614612070577f00000000000000000000000000000000000000000000000000000000000000009283860b871461204c577f00000000000000000000000000000000000000000000000000000000000000009485870b881461202757611ede90611d98565b860b871461200257611eef90611d98565b850b8614611fde57611f0090611d98565b840b8514611fbb57611f1190611d98565b830b8414611f9957611f2290611d98565b820b8314611f7857611f3390611d98565b900b14611f5a57604051611f4681611bda565b60048152630b0b0b0b60e31b602082015290565b604051611f6681611bda565b6002815261169b60f11b602082015290565b505050604051611f8781611bda565b60028152612d3560f01b602082015290565b50505050604051611fa981611bda565b60028152610b4d60f21b602082015290565b5050505050604051611fcc81611bda565b60028152612d3360f01b602082015290565b505050505050604051611ff081611bda565b6002815261169960f11b602082015290565b5050505050505060405161201581611bda565b60028152612d3160f01b602082015290565b505050505050505060405161203b81611bda565b60018152601b60f91b602082015290565b5050505050505060405161205f81611bda565b60018152603560f81b602082015290565b50505050505060405161208281611bda565b60018152600d60fa1b602082015290565b50505050506040516120a481611bda565b60018152603360f81b602082015290565b505050506040516120c581611bda565b60018152601960f91b602082015290565b5050506040516120e581611bda565b60018152603160f81b602082015290565b505060405161210481611bda565b60018152600360fc1b602082015290565b60058110156100775761ff00600b549160081b169061ff00191617600b55565b3d1561215f573d9061214682611c2c565b916121546040519384611c0a565b82523d5f602084013e565b606090565b1561216b57565b60405162461bcd60e51b815260206004820152601f60248201527f5472616e7366657220746f20776869746520706c61796572206661696c6564006044820152606490fd5b156121b757565b60405162461bcd60e51b815260206004820152601f60248201527f5472616e7366657220746f20626c61636b20706c61796572206661696c6564006044820152606490fd5b1561220357565b60405162461bcd60e51b815260206004820152602360248201527f4f6e6c79207468652077696e6e65722063616e20636c61696d20746865207072604482015262697a6560e81b6064820152608490fd5b905f0b905f0b0290815f0b918203611c5957565b5f91820b910b0390607f198212607f831317611c5957565b5f81810b1261228f5760ff1690565b61229890611d98565b60ff1690565b6008805460ff9081808260501c169160581c16905f5b84848216106122c65750505050505f90565b5f5b85858216106122e057506122db90611c48565b6122b4565b8582979596921015611bc6576122f68188611bad565b90549060031b1c5f0b5f0390815f0b918203611c59575f83921261232a575b61231e90611c48565b905095909493956122c8565b90506123388484838a6123e7565b612343578190612315565b50505050915050600190565b6008805460ff9081808260401c169160481c16905f5b84848216106123775750505050505f90565b5f5b8585821610612391575061238c90611c48565b612365565b8582979596921015611bc657805f6123aa84938a611bad565b90549060031b1c810b126123ce575b6123c290611c48565b90509590949395612379565b90506123dc8484838a6123e7565b6123435781906123b9565b909260089283831015611bc6576123fe8584611bad565b9590545f9660031b1c860b93858310156128685761241c8484611bad565b90549060031b1c870b9560ff9081861690896002846124466105be828a16948786820b910b612268565b161480612833575b61262d575050507f0000000000000000000000000000000000000000000000000000000000000000880b87148015612619575b612490575b5050505050505090565b61249986612280565b81167f00000000000000000000000000000000000000000000000000000000000000008216036124d157506124ce96506128c8565b90565b6124da86612280565b81167f000000000000000000000000000000000000000000000000000000000000000082160361250f57506124ce9650612c15565b61251886612280565b81167f000000000000000000000000000000000000000000000000000000000000000082160361254d57506124ce9650612ccf565b61255686612280565b81167f000000000000000000000000000000000000000000000000000000000000000082160361258b57506124ce9650612d4a565b61259486612280565b81167f00000000000000000000000000000000000000000000000000000000000000008216036125c957506124ce9650612db4565b6125d286612280565b90807f00000000000000000000000000000000000000000000000000000000000000001691161461260f575050505050505f808080808080612486565b6124ce9650612e2c565b50876126258888612254565b810b12612481565b929497919550929597507f0000000000000000000000000000000000000000000000000000000000000000890b145f1461275757600783861614908161274c575b5080612741575b612683575b50505050505090565b8354826126948260381c8a0b612280565b1690837f00000000000000000000000000000000000000000000000000000000000000001691821480612737575b80612729575b61271a576126d884918a0b612280565b1614928361270f575b5082612700575b50506126f65780808061267a565b6124ce9350612e9a565b8054901c161590505f806126e8565b60021492505f6126e1565b50505050506124ce9350612e9a565b5083835460101c16156126c8565b50600685146126c2565b508181541615612675565b60049150145f61266e565b828516159081612828575b508061281a575b6127765750505050505090565b8354826127878260381c8a0b612280565b1690837f00000000000000000000000000000000000000000000000000000000000000001691821480612810575b80612802575b61271a576127cb84918a0b612280565b161492836127f7575b50826127e85750506126f65780808061267a565b5460281c161590505f806126e8565b60021492505f6127d4565b5083835460201c16156127bb565b50600685146127b5565b5081815460181c1615612769565b60049150145f612762565b5061283d89612280565b84167f000000000000000000000000000000000000000000000000000000000000000085161461244e565b634e487b7160e01b87526032600452602487fd5b60ff5f199116019060ff8211611c5957565b9060ff8091169116039060ff8211611c5957565b60ff60019116019060ff8211611c5957565b9060ff8091169116019060ff8211611c5957565b60ff9384169592939182169283871480612c0b575b612b42575b5f96870b93870b9360019687856128fc6105be8986612268565b1614612a91575b600854958660301c8a0b9389878c8712159384612a74575b50505081612a46575b50612935575b505050505050505090565b880b7f0000000000000000000000000000000000000000000000000000000000000000808a0b821480612a31575b80612a25575b80612a1c575b80612a0c575b15612987575050505050505050905090565b61299090611d98565b890b1495866129f3575b50856129e6575b856129dc575b5050836129c9575b5050506129c457505f8080808080808061292a565b905090565b81929350169160381c16145f80806129af565b1493505f806129a7565b82841660041495506129a1565b9095508380612a01856128a2565b16911614945f61299a565b50858516868860381c1614612975565b5083831461296f565b50600386861614612969565b5085612a3c8661287c565b1686891614612963565b8a0b7f00000000000000000000000000000000000000000000000000000000000000008b0b1490505f612924565b612a8691929394506105be9087612268565b16149089875f61291b565b80890b7f0000000000000000000000000000000000000000000000000000000000000000808b0b821480612b2d575b80612b22575b15612ad957505050505050505050905090565b612ae290611d98565b8a0b1480612b0d575b80612b02575b156129035750505050505050905090565b508883810b13612af1565b5084612b18856128a2565b1685881614612aeb565b508a85810b12612ac6565b5086612b388761287c565b16878a1614612ac0565b612b6b7f0000000000000000000000000000000000000000000000000000000000000000611d98565b5f0b865f0b145f14612bc25782612b81836128a2565b16838616908114908115612ba2575b50156128e25750505050505050600190565b838516600114915081612bb7575b505f612b90565b60039150145f612bb0565b82612bcc8361287c565b16838616908114908115612bec5750156128e25750505050505050600190565b838516600614915081612c0057505f612b90565b60049150145f612bb0565b50805f0b156128dd565b93919094929460ff809681808095815f9b8c9b168b0b91168a0b90612c3991612268565b612c4290612280565b9416880b9116870b90612c5491612268565b612c5d90612280565b911691600183149283612cc2575b8315612c9f575b505050612c80575b50505090565b612c8991612254565b810b1315612c9957805f80612c7a565b50600190565b60021492509082612cb5575b50505f8080612c72565b6001925016145f80612cab565b8282166002149350612c6b565b90949293919360ff945f9686612cf16105be8a9987168a0b8386168b0b612268565b9080612d086105be8286168c0b8389168d0b612268565b16911614612d1a575050505050505090565b612d2393613131565b612d31575b80808080612486565b612d3a91612254565b810b1315612c9957805f80612d28565b92919094939460ff821660ff8516148015612da5575b612d6f575b5050505050505f90565b612d7893613131565b612d86575b80808080612d65565b5f91612d9191612254565b810b1315612da0575f80612d7d565b600190565b5060ff831660ff821614612d60565b909391949260ff95868116958784165f98898099612dd96105be85840b83850b612268565b8388169380612df36105be828a16968888820b910b612268565b16911614938415612e22575b50508215612e18575b5050612d1a575050505050505090565b1490505f80612e08565b1492505f80612dff565b939194929460ff809681808094815f9b8c9b168b0b91168a0b90612e4f91612268565b612e5890612280565b9516880b9116870b90612e6a91612268565b612e7390612280565b9216600110159182612e8c575b5050612c805750505090565b600192501611155f80612e80565b909160ff80821690808516948286105f14612f90578281965b1115612f8457612ec49091956128a2565b947f00000000000000000000000000000000000000000000000000000000000000005f0b955b81831682821610612f4657505050600214612f29575b6008821015611bc657612f1291611bad565b90549060031b1c5f0b03612f2557600190565b5f90565b6008821015611bc657815460081c5f0b8314612f00575050505f90565b6008861015611bc65786612f5a8288611bad565b90549060031b1c5f0b03612f7957612f728291611c48565b9050612eea565b505050505050505f90565b50612ec48391956128a2565b828496612eb3565b92612fa5919283856123e7565b1561312b5760089182811015611bc657612fd0612fc28383611bad565b90549060031b1c5f0b612280565b60ff919082167f0000000000000000000000000000000000000000000000000000000000000000831614613008575b50505050600190565b8116600781148080613121575b80613114575b1561303b575050505061010061ff00198254161790555b5f808080612fff565b80613108575b806130fa575b15613063575050506201000062ff000019825416179055613032565b159182806130ee575b806130e0575b156130925750505064010000000064ff0000000019825416179055613032565b826130d5575b50816130c6575b506130ab575b50613032565b805465ff00000000001916650100000000001790555f6130a5565b9050815460281c16155f61309f565b81161591505f613098565b5081845460201c1615613072565b5060078282161461306c565b5081845460101c1615613047565b50600782841614613041565b50828554861c161561301b565b5082841615613015565b50505f90565b929060ff92838516948482168681119282845f14613390576131529161288e565b905b86851687871691888083851199898b5f14613381576131729161288e565b16941699848b145f1461323e5750505050506001959495947f00000000000000000000000000000000000000000000000000000000000000005f0b955b81888216106131c5575050505050505050600190565b831561322f576131d581846128b4565b8615613220576131e582876128b4565b6008821015611bc6576131f791611bad565b90549060031b1c5f0b87036132145761320f90611c48565b6131af565b50505050505050505f90565b61322a828761288e565b6131e5565b613239818461288e565b6131d5565b939994979593036132dc57505050506001949394937f00000000000000000000000000000000000000000000000000000000000000005f0b945b818782161061328d5750505050505050600190565b82156132cd5761329d81856128b4565b6008861015611bc6576132b09086611bad565b90549060031b1c5f0b8603612f79576132c890611c48565b613278565b6132d7818561288e565b61329d565b929750939493909250036133785792937f00000000000000000000000000000000000000000000000000000000000000005f0b939060015b81878216106133295750505050505050600190565b82156133695761333981856128b4565b6008811015611bc6578561334c91611bad565b90549060031b1c5f0b8603612f795761336490611c48565b613314565b613373818561288e565b613339565b50505050505f90565b9061338b9161288e565b613172565b9061339a9161288e565b90613154565b600d54600b5460101c6001600160a01b039081169116036134c45760015b5f905b600860ff818185161015612fff575f5b82828216106133ed57505050906133e790611c48565b906133c1565b8285101580611bc65784905f613416613406858a611bad565b949054600395861b1c830b612254565b810b1361342e575b505061342990611c48565b6133d1565b5f5b858582161061343f575061341e565b5f5b8686821610613459575061345490611c48565b613430565b86821015611bc6578261346c8284611bad565b905490861b1c5f0b90611bc657613483868b611bad565b905490861b1c5f0b1415806134b2575b6134a5576134a090611c48565b613441565b5050505050505050505f90565b506134bf8183878c6123e7565b613493565b5f196133be565b906134d461351f565b61312b576134e28183613f2e565b61312b576134ef9161412d565b612f2557600190565b906135016135ce565b61312b576134e2818361402e565b5f0b607f8114611c595760010190565b60085460ff808260401c169160481c16905f195b5f81810b90600190818313612d65575f19921590825b613560575b5050505061355b9061350f565b613533565b8381979497969395960b8581136135c1578290816135b8575b506135ad5761358a8787868661368b565b6135a35761359985969761350f565b9396949295613549565b5050505091505090565b61359985969761350f565b9050155f613579565b508396508295945061354e565b60085460ff808260501c169160581c16905f195b5f81810b90600190818313612d65575f19921590825b61360f575b5050505061360a9061350f565b6135e2565b8381979497969395960b8581136136665782908161365d575b506136525761363987878686613793565b6135a35761364885969761350f565b93969492956135f8565b61364885969761350f565b9050155f613628565b50839650829594506135fd565b905f0b905f0b0190607f198212607f831317611c5957565b9091926136ad6136a15f9560ff8516870b613673565b9160ff8516860b613673565b9080850b858112908115613787575b50801561377c575b801561376f575b6137525760ff169060ff16906008811015611d7a576136ea8282611bad565b90549060031b1c850b6008841015610b7f57856137078686611bad565b90549060031b1c810b7f0000000000000000000000000000000000000000000000000000000000000000820b8314159283613759575b5050506137525761374e9450613884565b1590565b5050505090565b613764929350612254565b810b13855f8061373d565b50600882860b12156136cb565b508482810b126136c4565b6008915012155f6136bc565b9091926137a96136a15f9560ff8516870b613673565b9080850b858112908115613878575b50801561386d575b8015613860575b6137525760ff169060ff16906008811015611d7a576137e68282611bad565b90549060031b1c850b6008841015610b7f57856138038686611bad565b90549060031b1c810b7f0000000000000000000000000000000000000000000000000000000000000000820b831415928361384a575b5050506137525761374e945061397c565b613855929350612254565b810b13855f80613839565b50600882860b12156137c7565b508482810b126137c0565b6008915012155f6137b8565b929093915f945b60ff9460088787168181101561396f575f5b88811683811015613959578987168314908161394d575b811561392d575b5061392457828a1015611bc6578990878787875f6138d98688611bad565b90549060031b1c810b126138fb575b505050506138f69150611c48565b61389d565b846139069596613a65565b613915578990878787876138e8565b50505050505050915050600190565b6138f690611c48565b858b168414915081613941575b505f6138bb565b9050898616145f61393a565b888b16811491506138b4565b5050505094509461396990611c48565b9461388b565b5050505050509150505f90565b929093915f945b60ff9460088787168181101561396f575f5b88811683811015613a4f5789871683149081613a43575b8115613a23575b50613a1a57828a1015611bc6576139ca818b611bad565b90549060031b1c5f0b5f0390815f0b918203611c5957878787875f8f9612613a00575b505050506139fb9150611c48565b613995565b84613a0b9596613a65565b613915578990878787876139ed565b6139fb90611c48565b858b168414915081613a37575b505f6139b3565b9050898616145f613a30565b888b16811491506139ac565b50505050945094613a5f90611c48565b94613983565b9391949290946008851015611bc657613a7e8686611bad565b9590545f9660031b1c860b613a9281612280565b9660ff9182891690837f0000000000000000000000000000000000000000000000000000000000000000168214613bf85750827f0000000000000000000000000000000000000000000000000000000000000000168114613b7857827f00000000000000000000000000000000000000000000000000000000000000001614613b21575050956124ce96613c62565b9450955060019294506105be86928380613b419416870b9116860b612268565b1611159384613b51575050505090565b60019450916105be918480613b6c9516820b9216900b612268565b1611155f808080613752565b509181989750819650613bae9550613ba16105be6105be96958480809516870b9116860b612268565b9716820b9216900b612268565b911691600283149283613beb575b8315613bc85750505090565b60011492509082613bde575b50505f8080612c7a565b6002925016145f80613bd4565b8282166001149350613bbc565b9050829850613c1f9392949597508180975050135f14613c5957825f19915b16850b613673565b830b9116820b149384613c33575050505090565b60019450916105be918480613c4e9516820b9216900b612268565b16145f808080613752565b82600191613c17565b939594909160ff80919894981694165f0b95613c8087865f0b612268565b95613c9560ff85165f0b60ff8b165f0b612268565b96613c9f81612280565b9060ff613cab8a612280565b168060ff8416149182613f21575b5f0b9384159182948315613f15575b83613ef1575b505060ff1660ff7f000000000000000000000000000000000000000000000000000000000000000016811480613ee9575b613ed05760ff7f000000000000000000000000000000000000000000000000000000000000000016811480613ee1575b613ed05760ff7f000000000000000000000000000000000000000000000000000000000000000016149182613ec7575b5081613ebe575b50613eb05715613e915750613d9a5f9788975b5f0b80613e6e575060ff613d8f5f9a8b93613673565b811695165f0b613673565b60ff16925b60ff811690868214801590613e5e575b15613e4f5787899160ff8516841480613e40575b15613de4575b50613d8f60ff91613ddb945f0b613673565b60ff1692613d9f565b9150506008811015611bc65784613dfa91611bad565b90547f00000000000000000000000000000000000000000000000000000000000000005f0b9160031b1c5f0b03613e335787875f613dc9565b5050505093505050505f90565b5060ff861660ff881614613dc3565b50505050509350505050600190565b5060ff8a1660ff86161415613daf565b5f1215613e855760ff613d8f60015b9a8b93613673565b60ff613d8f5f19613e7d565b5f1215613ea657613d9a60015b978897613d79565b613d9a5f19613e9e565b505050505093505050505f90565b9050155f613d66565b1591505f613d5f565b505050505050505093505050505f90565b508115613d2f565b508215613cff565b60ff92935082161590811591613f0b575b5091905f613cce565b905015155f613f02565b92508b5f0b1592613cc8565b60ff841615159250613cb9565b905f917f0000000000000000000000000000000000000000000000000000000000000000830b925b60ff9384821694600880871015612f79575f5b8281168281101561401a5782861015611bc6578490613f888388611bad565b929054600393841b1c5f0b14918215613ffd575b508115613fdd575b50613fd457613fb5878783886123e7565b613fc757613fc290611c48565b613f69565b5050505050505050600190565b613fc290611c48565b8785168a14915081613ff1575b505f613fa4565b9050838816145f613fea565b5f91925061400b8489611bad565b9054911b1c810b12905f613f9c565b50505050935061402990611c48565b613f56565b905f917f0000000000000000000000000000000000000000000000000000000000000000830b925b60ff9384821694600880871015612f79575f5b828116828110156141195782861015611bc65784906140888388611bad565b929054600393841b1c5f0b149182156140f0575b5081156140d0575b506140c7576140b5878783886123e7565b613fc7576140c290611c48565b614069565b6140c290611c48565b8785168a149150816140e4575b505f6140a4565b9050838816145f6140dd565b9091506140fd8388611bad565b9054911b1c5f0b5f03805f0b908103611c59575f13905f61409c565b50505050935061412890611c48565b614056565b9190916008811015611bc6576141438382611bad565b90549060031b1c5f0b905f82135f146143d7575f19925b6001845f0b1491825f146143c85760ff60085460401c16925b156143b65761418a60ff60085460481c1694612280565b60ff807f0000000000000000000000000000000000000000000000000000000000000000169116146143ac5760ff165f0b9360ff806141cd878287165f0b612268565b951696165f0b906141e082885f0b612268565b945f0b8061438d575061420e5f9687965b5f0b8061436e57506142055f988992613673565b60ff1693613673565b60ff16915b60ff81169060ff86168214801590614361575b15613e33578688915f5b600860ff82161061426257505061424e60ff91614259945f0b613673565b811694165f0b613673565b60ff1691614213565b915091505f5b600860ff821610614286575061427d90611c48565b88918891614230565b6008821015611bc6576142998183611bad565b90549060031b1c5f0b7f00000000000000000000000000000000000000000000000000000000000000005f0b811490811561434a575b8115614312575b50614309576142e7868483856123e7565b6142f9576142f490611c48565b614268565b5050505050509350505050600190565b6142f490611c48565b61431c9150612280565b60ff807f0000000000000000000000000000000000000000000000000000000000000000169116145f6142d6565b90505f6143578783612254565b810b1315906142cf565b508860ff85161415614226565b5f12156143835761420560015b988992613673565b6142055f1961437b565b5f12156143a25761420e60015b9687966141f1565b61420e5f1961439a565b5093505050505f90565b61418a60ff60085460581c1694612280565b60ff60085460501c1692614173565b60019261415a565b60ff600b5460081c166005811015610077578015612c99576001811461442b5760028114614425576003811461441f5760041461441a575f90565b600590565b50600490565b50600390565b5060029056fea2646970667358221220405aa8cdabdd9e8e5134456e16eb9ecc151ea08d3db939d0afc9ed1f59a1699a64736f6c63430008140033",
  "immutableReferences": {
    "7137": [
      {
        "length": 32,
        "start": 974
      },
      {
        "length": 32,
        "start": 1498
      },
      {
        "length": 32,
        "start": 1652
      },
      {
        "length": 32,
        "start": 2776
      },
      {
        "length": 32,
        "start": 4703
      },
      {
        "length": 32,
        "start": 7599
      },
      {
        "length": 32,
        "start": 9303
      },
      {
        "length": 32,
        "start": 10826
      },
      {
        "length": 32,
        "start": 11975
      },
      {
        "length": 32,
        "start": 12684
      },
      {
        "length": 32,
        "start": 12885
      },
      {
        "length": 32,
        "start": 13038
      },
      {
        "length": 32,
        "start": 14098
      },
      {
        "length": 32,
        "start": 14350
      },
      {
        "length": 32,
        "start": 15870
      },
      {
        "length": 32,
        "start": 16179
      },
      {
        "length": 32,
        "start": 16435
      },
      {
        "length": 32,
        "start": 17060
      }
    ],
    "7141": [
      {
        "length": 32,
        "start": 1098
      },
      {
        "length": 32,
        "start": 1780
      },
      {
        "length": 32,
        "start": 1891
      },
      {
        "length": 32,
        "start": 2389
      },
      {
        "length": 32,
        "start": 2551
      },
      {
        "length": 32,
        "start": 2631
      },
      {
        "length": 32,
        "start": 3785
      },
      {
        "length": 32,
        "start": 3912
      },
      {
        "length": 32,
        "start": 4023
      },
      {
        "length": 32,
        "start": 4295
      },
      {
        "length": 32,
        "start": 4456
      },
      {
        "length": 32,
        "start": 4560
      },
      {
        "length": 32,
        "start": 7640
      },
      {
        "length": 32,
        "start": 9373
      },
      {
        "length": 32,
        "start": 10553
      },
      {
        "length": 32,
        "start": 10902
      },
      {
        "length": 32,
        "start": 11079
      },
      {
        "length": 32,
        "start": 15005
      }
    ],
    "7145": [
      {
        "length": 32,
        "start": 2213
      },
      {
        "length": 32,
        "start": 7682
      },
      {
        "length": 32,
        "start": 9438
      },
      {
        "length": 32,
        "start": 15047
      },
      {
        "length": 32,
        "start": 16783
      }
    ],
    "7149": [
      {
        "length": 32,
        "start": 2260
      },
      {
        "length": 32,
        "start": 7724
      },
      {
        "length": 32,
        "start": 9500
      },
      {
        "length": 32,
        "start": 15575
      }
    ],
    "7153": [
      {
        "length": 32,
        "start": 2307
      },
      {
        "length": 32,
        "start": 7766
      },
      {
        "length": 32,
        "start": 9562
      },
      {
        "length": 32,
        "start": 9881
      },
      {
        "length": 32,
        "start": 10124
      },
      {
        "length": 32,
        "start": 12248
      },
      {
        "length": 32,
        "start": 15623
      }
    ],
    "7157": [
      {
        "length": 32,
        "start": 1954
      },
      {
        "length": 32,
        "start": 4125
      },
      {
        "length": 32,
        "start": 4210
      },
      {
        "length": 32,
        "start": 7809
      },
      {
        "length": 32,
        "start": 9624
      },
      {
        "length": 32,
        "start": 15671
      }
    ],
    "7161": [
      {
        "length": 32,
        "start": 1042
      },
      {
        "length": 32,
        "start": 1161
      },
      {
        "length": 32,
        "start": 2818
      },
      {
        "length": 32,
        "start": 3721
      },
      {
        "length": 32,
        "start": 6160
      },
      {
        "length": 32,
        "start": 7852
      },
      {
        "length": 32,
        "start": 9686
      },
      {
        "length": 32,
        "start": 9785
      },
      {
        "length": 32,
        "start": 10305
      },
      {
        "length": 32,
        "start": 15088
      },
      {
        "length": 32,
        "start": 17185
      }
    ]
  },
  "source": "// SPDX-License-Identifier: MIT\npragma solidity ^0.8.20;\nimport \"@openzeppelin/contracts/utils/Strings.sol\";\nimport \"@openzeppelin/contracts/utils/ReentrancyGuard.sol\";\nimport \"./ChessBoard.sol\";\n\n/// @title ChessCore - Main chess game logic\n/// @notice Inherits from ChessBoard and implements move validation and game state\ncontract ChessCore is ChessBoard, ReentrancyGuard {\n    uint public betting;\n    bool private prizeClaimed;\n\n    event Debug(int8 player, uint8 startX, uint8 startY, uint8 endX, uint8 endY, string comment);\n    event PrizeClaimed(address winner, uint256 amount);\n    event PlayerResigned(address player, address winner);\n    // Define the GameState enum\n    enum GameState { NotStarted, InProgress, Draw, WhiteWins, BlackWins }\n    // Add a gameState variable to the contract\n    GameState private gameState = GameState.NotStarted;\n\n    address whitePlayer;\n    address blackPlayer;\n    address public currentPlayer;\n\n    constructor(address _whitePlayer, uint _value) payable {\n        // Chiamare initializeBoard nel costruttore\n        initializeBoard();\n        whitePlayer = _whitePlayer;\n        currentPlayer = _whitePlayer;\n        betting = _value;\n    }\n    /*\n    //for debugging\n    constructor(){\n        initializeBoard();\n        whitePlayer = 0x5B38Da6a701c568545dCfcB03FcB875f56beddC4;\n        currentPlayer = 0x5B38Da6a701c568545dCfcB03FcB875f56beddC4;\n        blackPlayer = 0xAb8483F64d9C6d1EcF9b849Ae677dD3315835cb2;\n        betting = address(this).balance;\n    }\n    */\n   \n   receive() external payable {\n        require(gameState == GameState.NotStarted, \"Game has already started\");\n    }\n\n    function switchTurn() internal {\n        currentPlayer = (currentPlayer == whitePlayer) ? blackPlayer : whitePlayer;\n    }\n\n   function joinGameAsBlack() public payable {\n        require(msg.sender != whitePlayer, \"You are already the white player\");\n        require(msg.value == betting, \"Please send the same amount as the white player\");\n        require(blackPlayer == address(0), \"Black player slot is already taken\");\n        blackPlayer = msg.sender;\n        gameState = GameState.InProgress;\n    }\n\n    function claimPrize() external nonReentrant {\n        require(!prizeClaimed, \"Prize has already been claimed\");\n        require(\n            gameState == GameState.WhiteWins ||\n            gameState == GameState.BlackWins ||\n            gameState == GameState.Draw,\n            \"Game is not finished yet\"\n        );\n\n        prizeClaimed = true;\n        uint256 totalPrize = address(this).balance;\n\n        if (gameState == GameState.WhiteWins) {\n            require(msg.sender == whitePlayer, \"Only the winner can claim the prize\");\n            (bool success, ) = payable(whitePlayer).call{value: totalPrize}(\"\");\n            require(success, \"Transfer to white player failed\");\n            emit PrizeClaimed(whitePlayer, totalPrize);\n        }\n        else if (gameState == GameState.BlackWins) {\n            require(msg.sender == blackPlayer, \"Only the winner can claim the prize\");\n            (bool success, ) = payable(blackPlayer).call{value: totalPrize}(\"\");\n            require(success, \"Transfer to black player failed\");\n            emit PrizeClaimed(blackPlayer, totalPrize);\n        }\n        else if (gameState == GameState.Draw) {\n            // In case of draw, split the prize equally\n            uint256 halfPrize = totalPrize / 2;\n            uint256 remainingPrize = totalPrize - halfPrize; // Handles odd wei amounts\n\n            (bool successWhite, ) = payable(whitePlayer).call{value: halfPrize}(\"\");\n            require(successWhite, \"Transfer to white player failed\");\n            emit PrizeClaimed(whitePlayer, halfPrize);\n\n            (bool successBlack, ) = payable(blackPlayer).call{value: remainingPrize}(\"\");\n            require(successBlack, \"Transfer to black player failed\");\n            emit PrizeClaimed(blackPlayer, remainingPrize);\n        }\n    }\n\n    function resign() external {\n        require(\n            msg.sender == whitePlayer || msg.sender == blackPlayer,\n            \"Only players can resign\"\n        );\n        require(\n            gameState == GameState.InProgress || gameState == GameState.NotStarted,\n            \"Game is already finished\"\n        );\n\n        address winner;\n        if (msg.sender == whitePlayer) {\n            gameState = GameState.BlackWins;\n            winner = blackPlayer;\n        } else {\n            gameState = GameState.WhiteWins;\n            winner = whitePlayer;\n        }\n\n        emit PlayerResigned(msg.sender, winner);\n    }\n\n    function isPawnMoveValid(uint8 startX, uint8 startY, uint8 endX, uint8 endY, int8 piece, int8 target) private view returns (bool) {\n        // Check if pawn is moving forward\n        if (startY == endY && target == 0) {\n            if (piece == -PAWN) { // black pawn\n                if (endX == startX + 1 || (startX == ROW_BLACK_PAWNS && endX == ROW_BLACK_PAWNS_LONG_OPENING)) {\n                    return true;\n                }\n            } \n            else { // white pawn\n                if (endX == startX - 1 || (startX == ROW_WHITE_PAWNS && endX == COL_KING)) {\n                    return true;\n                }\n            }\n        }\n\n        // Check if pawn is capturing diagonally\n        if (abs(int8(endY) - int8(startY)) == 1) {\n            if (piece == PAWN && endX == startX - 1 && target < 0) { // White pawn captures black piece (moving up)\n                return true;\n            }\n            else\n            if (piece == -PAWN && endX == startX + 1 && target > 0) { // Black pawn captures white piece (moving down)\n                return true;\n            }\n        }\n\n        // En passant capture\n        if (enPassantCol >= 0 && abs(int8(endY) - int8(startY)) == 1 && target == EMPTY) {\n            // White pawn captures en passant\n            if (piece == PAWN &&\n                endX == startX - 1 &&\n                startX == ROW_BLACK_PAWNS_LONG_OPENING && // White pawn must be on row 3 (adjacent to black's double move)\n                int8(endY) == enPassantCol &&\n                enPassantRow == startX) {\n                return true;\n            }\n            // Black pawn captures en passant\n            else if (piece == -PAWN &&\n                     endX == startX + 1 &&\n                     startX == ROW_WHITE_PAWNS_LONG_OPENING && // Black pawn must be on row 4 (adjacent to white's double move)\n                     int8(endY) == enPassantCol &&\n                     enPassantRow == startX) {\n                return true;\n            }\n        }\n\n        return false;\n    }\n\n    function isKnightMoveValid(uint8 startX, uint8 startY, uint8 endX, uint8 endY, int8 piece, int8 target) private pure returns (bool) {\n        // Check if knight moves in L-shape\n        uint8 deltaX = abs(int8(endX) - int8(startX));\n        uint8 deltaY = abs(int8(endY) - int8(startY));\n        if ((deltaX == 1 && deltaY == 2) || (deltaX == 2 && deltaY == 1)) {\n            if (target * piece <= 0) { // Check if destination square is empty or occupied by opponent piece\n                return true;\n            }\n        }\n        return false;\n    }\n\n\n    function isBishopMoveValid(uint8 startX, uint8 startY, uint8 endX, uint8 endY, int8 piece, int8 target) private view returns (bool) {\n        // Check if bishop moves diagonally\n        uint8 deltaX = abs(int8(endX) - int8(startX));\n        uint8 deltaY = abs(int8(endY) - int8(startY));\n        if (deltaX == deltaY) {\n            if (isPathClear(startX, startY, endX, endY)) {\n                if (target * piece <= 0) { // Check if destination square is empty or occupied by opponent piece\n                    return true;\n                }\n            }\n        }\n\n        return false;\n    }\n\n\n    function isRookMoveValid(uint8 startX, uint8 startY, uint8 endX, uint8 endY, int8 piece, int8 target) private view returns (bool) {\n        // Check if rook moves horizontally or vertically\n        if (startX == endX || startY == endY) {\n            if (isPathClear(startX, startY, endX, endY)) {\n                if (target * piece <= 0) { // Check if destination square is empty or occupied by opponent piece\n                    return true;\n                }\n            }\n        }\n\n        return false;\n    }\n\n\n    function isQueenMoveValid(uint8 startX, uint8 startY, uint8 endX, uint8 endY, int8 piece, int8 target) private view  returns (bool) {\n        // Check if queen moves diagonally, horizontally, or vertically\n        uint8 deltaX = abs(int8(endX) - int8(startX));\n        uint8 deltaY = abs(int8(endY) - int8(startY));\n        if (deltaX == deltaY || startX == endX || startY == endY) {\n            if (isPathClear(startX, startY, endX, endY)) {\n                if (target * piece <= 0) { // Check if destination square is empty or occupied by opponent piece\n                    return true;\n                }\n            }\n        }\n\n        return false;\n    }\n\n\n    function isKingMoveValid(uint8 startX, uint8 startY, uint8 endX, uint8 endY, int8 piece, int8 target) private pure returns (bool) {\n        // Check if king moves one square in any direction\n        uint8 deltaX = abs(int8(endX) - int8(startX));\n        uint8 deltaY = abs(int8(endY) - int8(startY));\n        if (deltaX <= 1 && deltaY <= 1) {\n            if (target * piece <= 0) { // Check if destination square is empty or occupied by opponent piece\n                return true;\n            }\n        }\n\n        return false;\n    }\n\n\n    function isKingInCheck(int8 player) private view returns (bool) {\n        // Use cached king position instead of O(n) search\n        uint8 kingX = (player == PLAYER_WHITE) ? whiteKingRow : blackKingRow;\n        uint8 kingY = (player == PLAYER_WHITE) ? whiteKingCol : blackKingCol;\n\n        // Check if any of the opponent's pieces can attack the king\n        for (uint8 rowPiece = 0; rowPiece < BOARD_SIZE; rowPiece++) {\n            for (uint8 colPiece = 0; colPiece < BOARD_SIZE; colPiece++) {\n                if (player * board[rowPiece][colPiece] < 0) { // Check if piece belongs to opponent\n                    if (isValidMoveView(rowPiece, colPiece, kingX, kingY)) {\n                        return true;\n                    }\n                }\n            }\n        }\n\n        return false;\n    }\n\n    function isSquareUnderAttack(int8 player, uint8 x, uint8 y) internal view returns (bool) {\n        for (uint8 rowPiece = 0; rowPiece < BOARD_SIZE; rowPiece++) {\n            for (uint8 colPiece = 0; colPiece < BOARD_SIZE; colPiece++) {\n                //check if the opponent pieces can do a valid move to that square\n                if (currentPlayer == whitePlayer && board[rowPiece][colPiece] * player < 0 && isValidMoveView(rowPiece, colPiece, x, y)\n                || currentPlayer == blackPlayer && board[rowPiece][colPiece] * player > 0 && isValidMoveView(rowPiece,colPiece, x, y)) {\n                    return true;\n                }\n            }\n        }\n        return false;\n    }\n\n    function minY(uint8 a, uint8 b) internal pure returns (uint8) {\n        return a < b ? a : b;\n    }\n\n    function maxY(uint8 a, uint8 b) internal pure returns (uint8) {\n        return a > b ? a : b;\n    }\n\n    function isCastlingValid(uint8 startX, uint8 startY, uint8 endX, uint8 endY, int8 player) internal view returns (bool) {\n        // Verifica se il re attraversa caselle minacciate\n        //TODO fai double check per capire se questo if  superfluo, visto che viene controllato dentro il for\n        if (isSquareUnderAttack(player, startX, startY) || isSquareUnderAttack(player, endX, endY)) {\n            return false;\n        }\n\n        // Verifica se le caselle attraversate sono libere\n        if (startY == COL_KING && (endY == COL_BISHOP || endY == COL_KNIGHT)) {\n            uint8 rookY = (endY == COL_KNIGHT) ? COL_SHORTW_LONGB_ROOK : COL_LONGW_SHORTB_ROOK;\n            for (uint8 col = minY(startY, endY); col <= maxY(startY, endY); col++) {\n                if (board[startX][col] != EMPTY || isSquareUnderAttack(player, startX, col) || isSquareUnderAttack(player, rookY, col)) {\n                    return false;\n                }\n            }\n        }\n\n        return true;\n    }\n\n    /// @notice Check if the path is clear for castling (squares between king and destination must be empty)\n    function isCastlingPathClear(uint8 row, uint8 kingCol, uint8 destCol) private view returns (bool) {\n        // Determine direction\n        uint8 minCol = kingCol < destCol ? kingCol : destCol;\n        uint8 maxCol = kingCol > destCol ? kingCol : destCol;\n\n        // Check all squares between king and destination (exclusive of king's start)\n        for (uint8 col = minCol + 1; col < maxCol; col++) {\n            if (board[row][col] != EMPTY) {\n                return false;\n            }\n        }\n\n        // For queenside castling, also check the b-file square (col 1) which rook passes through\n        if (destCol == COL_BISHOP) { // Queenside\n            if (board[row][COL_UNNAMED_KNIGHT] != EMPTY) { // b-file\n                return false;\n            }\n        }\n\n        // Check destination square is empty\n        if (board[row][destCol] != EMPTY) {\n            return false;\n        }\n\n        return true;\n    }\n\n    /// @notice Pure view validation - does NOT modify any state (used for check detection)\n    function isValidMoveView(uint8 startX, uint8 startY, uint8 endX, uint8 endY) private view returns (bool) {\n        int8 piece = board[startX][startY];\n        int8 target = board[endX][endY];\n\n        // Check if the move is a castling attempt (king moves 2 squares)\n        if (abs(int8(endY) - int8(startY)) == COL_BISHOP && abs(piece) == uint8(KING)) {\n            if (piece == KING) { // White king\n                if (startX == ROW_WHITE_PIECES && startY == COL_KING && !whiteKingMoved) {\n                    // Kingside castling: king e1->g1 (col 4->6), rook h1 (col 7)\n                    if (uint8(ROOK) == abs(board[startX][COL_LONGW_SHORTB_ROOK]) && endY == COL_KNIGHT && !whiteLongRookMoved) {\n                        return isCastlingPathClear(startX, startY, endY);\n                    }\n                    // Queenside castling: king e1->c1 (col 4->2), rook a1 (col 0)\n                    if (uint8(ROOK) == abs(board[startX][COL_SHORTW_LONGB_ROOK]) && endY == COL_BISHOP && !whiteShortRookMoved) {\n                        return isCastlingPathClear(startX, startY, endY);\n                    }\n                }\n            } else { // Black king\n                if (startX == ROW_BLACK_PIECES && startY == COL_KING && !blackKingMoved) {\n                    // Kingside castling: king e8->g8 (col 4->6), rook h8 (col 7)\n                    if (uint8(ROOK) == abs(board[startX][COL_LONGW_SHORTB_ROOK]) && endY == COL_KNIGHT && !blackLongRookMoved) {\n                        return isCastlingPathClear(startX, startY, endY);\n                    }\n                    // Queenside castling: king e8->c8 (col 4->2), rook a8 (col 0)\n                    if (uint8(ROOK) == abs(board[startX][COL_SHORTW_LONGB_ROOK]) && endY == COL_BISHOP && !blackShortRookMoved) {\n                        return isCastlingPathClear(startX, startY, endY);\n                    }\n                }\n            }\n            return false;\n        }\n\n        // Check if target square is empty or contains an opponent's piece\n        if (target == EMPTY || piece * target < 0) {\n            if (abs(piece) == uint8(PAWN)) {\n                return isPawnMoveValid(startX, startY, endX, endY, piece, target);\n            }\n            else if (abs(piece) == uint8(KNIGHT)) {\n                return isKnightMoveValid(startX, startY, endX, endY, piece, target);\n            }\n            else if (abs(piece) == uint8(BISHOP)) {\n                return isBishopMoveValid(startX, startY, endX, endY, piece, target);\n            }\n            else if (abs(piece) == uint8(ROOK)) {\n                return isRookMoveValid(startX, startY, endX, endY, piece, target);\n            }\n            else if (abs(piece) == uint8(QUEEN)) {\n                return isQueenMoveValid(startX, startY, endX, endY, piece, target);\n            }\n            else if (abs(piece) == uint8(KING)) {\n                return isKingMoveValid(startX, startY, endX, endY, piece, target);\n            }\n        }\n\n        return false;\n    }\n\n    /// @notice Validates move and updates rook moved flags when rook moves\n    function isValidMove(uint8 startX, uint8 startY, uint8 endX, uint8 endY) private returns (bool) {\n        // First check if the move is valid using view function\n        if (!isValidMoveView(startX, startY, endX, endY)) {\n            return false;\n        }\n\n        int8 piece = board[startX][startY];\n\n        // Update rook moved flags only when a rook actually moves\n        if (abs(piece) == uint8(ROOK)) {\n            if (startX == ROW_WHITE_PIECES && startY == COL_SHORTW_LONGB_ROOK && !whiteShortRookMoved) {\n                whiteShortRookMoved = true;\n            }\n            else if (startX == ROW_WHITE_PIECES && startY == COL_LONGW_SHORTB_ROOK && !whiteLongRookMoved) {\n                whiteLongRookMoved = true;\n            }\n            else if (startX == ROW_BLACK_PIECES && startY == COL_LONGW_SHORTB_ROOK && !blackLongRookMoved) {\n                blackLongRookMoved = true;\n            }\n            else if (startX == ROW_BLACK_PIECES && startY == COL_SHORTW_LONGB_ROOK && !blackShortRookMoved) {\n                blackShortRookMoved = true;\n            }\n        }\n\n        return true;\n    }\n\n    function isPathClear(uint8 startX, uint8 startY, uint8 endX, uint8 endY) private view returns (bool) {\n        uint8 deltaX = endX > startX ? endX - startX : startX - endX;\n        uint8 deltaY = endY > startY ? endY - startY : startY - endY;\n        bool stepXPositive = endX > startX;\n        bool stepYPositive = endY > startY;\n\n        if (deltaX == deltaY) {\n            // Diagonal move (bishop or queen)\n            for (uint8 i = 1; i < deltaX; i++) {\n                uint8 checkX = stepXPositive ? startX + i : startX - i;\n                uint8 checkY = stepYPositive ? startY + i : startY - i;\n                if (EMPTY != board[checkX][checkY]) {\n                    return false;\n                }\n            }\n        }\n        else if (startX == endX) {\n            // Horizontal move (same row, different column)\n            for (uint8 i = 1; i < deltaY; i++) {\n                uint8 checkY = stepYPositive ? startY + i : startY - i;\n                if (EMPTY != board[startX][checkY]) {\n                    return false;\n                }\n            }\n        }\n        else if (startY == endY) {\n            // Vertical move (same column, different row)\n            for (uint8 i = 1; i < deltaX; i++) {\n                uint8 checkX = stepXPositive ? startX + i : startX - i;\n                if (EMPTY != board[checkX][startY]) {\n                    return false;\n                }\n            }\n        }\n        else {\n            // Invalid move (not diagonal, horizontal, or vertical)\n            return false;\n        }\n\n        return true;\n    }\n\n    modifier onlyCurrentPlayer() {\n        require(msg.sender == currentPlayer, \"It's not your turn!\");\n        _;\n    }\n    \n    modifier onlyOwnPieces(uint8 startX, uint8 startY){\n         //matching the current color player with the color number to check if it is moving it's own pieces\n        int8 playerColor = 1;\n        if (currentPlayer == blackPlayer){\n            playerColor *= PLAYER_BLACK;\n        }\n        require(board[startX][startY] * playerColor > 0, \"You can only move your own pieces\");\n        _;\n    }\n\n    // Wrapper for backward compatibility - promotes to Queen by default\n    function makeMove(uint8 startX, uint8 startY, uint8 endX, uint8 endY) public {\n        makeMoveWithPromotion(startX, startY, endX, endY, QUEEN);\n    }\n\n    // Main move function with promotion support\n    function makeMoveWithPromotion(\n        uint8 startX,\n        uint8 startY,\n        uint8 endX,\n        uint8 endY,\n        int8 promotionPiece\n    ) public onlyCurrentPlayer onlyOwnPieces(startX, startY) {\n        // Check if the game is in progress\n        require(gameState == GameState.InProgress || gameState == GameState.NotStarted, \"Game has not started or has ended\");\n\n        // Check if the move is valid\n        require(isValidMove(startX, startY, endX, endY), \"Invalid move\");\n\n        // Store the piece being moved before clearing the start position\n        int8 movingPiece = board[startX][startY];\n        int8 targetPiece = board[endX][endY];\n\n        // Make the move\n        board[endX][endY] = movingPiece;\n        board[startX][startY] = EMPTY;\n\n        // Update cached king position if king was moved\n        if (abs(movingPiece) == uint8(KING)) {\n            if (movingPiece == KING) {\n                whiteKingRow = endX;\n                whiteKingCol = endY;\n            } else {\n                blackKingRow = endX;\n                blackKingCol = endY;\n            }\n        }\n\n        // Track if this move sets up en passant for the opponent\n        bool isDoublePawnMove = false;\n\n        // Handle pawn-specific logic\n        if (abs(movingPiece) == uint8(PAWN)) {\n            // Check for en passant capture (diagonal move to empty square)\n            if (abs(int8(endY) - int8(startY)) == 1 && targetPiece == EMPTY) {\n                // This is an en passant capture - remove the captured pawn\n                if (movingPiece == PAWN && enPassantCol == int8(endY) && startX == ROW_BLACK_PAWNS_LONG_OPENING) {\n                    // White captures black pawn en passant (white is on row 3)\n                    board[startX][endY] = EMPTY; // Remove the black pawn\n                } else if (movingPiece == -PAWN && enPassantCol == int8(endY) && startX == ROW_WHITE_PAWNS_LONG_OPENING) {\n                    // Black captures white pawn en passant (black is on row 4)\n                    board[startX][endY] = EMPTY; // Remove the white pawn\n                }\n            }\n\n            // Check for double pawn move (sets up en passant for opponent)\n            if (movingPiece == PAWN && startX == ROW_WHITE_PAWNS && endX == ROW_WHITE_PAWNS_LONG_OPENING) {\n                // White pawn double move\n                isDoublePawnMove = true;\n                enPassantCol = int8(endY);\n                enPassantRow = endX; // Row 4\n            } else if (movingPiece == -PAWN && startX == ROW_BLACK_PAWNS && endX == ROW_BLACK_PAWNS_LONG_OPENING) {\n                // Black pawn double move\n                isDoublePawnMove = true;\n                enPassantCol = int8(endY);\n                enPassantRow = endX; // Row 3\n            }\n\n            // Handle pawn promotion\n            bool isWhitePawnPromoting = (movingPiece == PAWN && endX == ROW_BLACK_PIECES);\n            bool isBlackPawnPromoting = (movingPiece == -PAWN && endX == ROW_WHITE_PIECES);\n\n            if (isWhitePawnPromoting || isBlackPawnPromoting) {\n                // Validate promotion piece (must be Queen, Rook, Bishop, or Knight)\n                require(\n                    promotionPiece == QUEEN ||\n                    promotionPiece == ROOK ||\n                    promotionPiece == BISHOP ||\n                    promotionPiece == KNIGHT,\n                    \"Invalid promotion piece\"\n                );\n\n                // Apply the correct sign based on player color\n                if (isWhitePawnPromoting) {\n                    board[endX][endY] = promotionPiece; // White piece (positive)\n                } else {\n                    board[endX][endY] = -promotionPiece; // Black piece (negative)\n                }\n            }\n        }\n\n        // Reset en passant if this was not a double pawn move\n        if (!isDoublePawnMove) {\n            enPassantCol = -1;\n        }\n\n        // Track king moves (any king move prevents future castling)\n        if (uint8(KING) == abs(movingPiece)) {\n            if (currentPlayer == whitePlayer) {\n                whiteKingMoved = true;\n            } else {\n                blackKingMoved = true;\n            }\n\n            // Handle castling (king moves 2 squares horizontally)\n            if (abs(int8(endY) - int8(startY)) == 2) {\n                // Move the rook during castling\n                if (endY == COL_KNIGHT) {\n                    // Kingside castling - rook h1/h8 moves to f1/f8\n                    board[startX][COL_UNNAMED_BISHOP] = board[startX][COL_LONGW_SHORTB_ROOK];\n                    board[startX][COL_LONGW_SHORTB_ROOK] = EMPTY;\n                } else if (endY == COL_BISHOP) {\n                    // Queenside castling - rook a1/a8 moves to d1/d8\n                    board[startX][COL_QUEEN] = board[startX][COL_SHORTW_LONGB_ROOK];\n                    board[startX][COL_SHORTW_LONGB_ROOK] = EMPTY;\n                }\n            }\n        }\n\n        // Check if the move resulted in a check or checkmate\n        if (isKingInCheck(PLAYER_BLACK)) {\n            gameState = isCheckmate(PLAYER_BLACK, endX, endY) ? GameState.WhiteWins : GameState.InProgress;\n        } else if (isKingInCheck(PLAYER_WHITE)) {\n            gameState = isCheckmate(PLAYER_WHITE, endX, endY) ? GameState.BlackWins : GameState.InProgress;\n        } else {\n            gameState = isStalemate() ? GameState.Draw : GameState.InProgress;\n        }\n\n        switchTurn();\n    }\n\n    // Check if the given player's king can move out of check\n    function canKingMove(int8 player) internal view returns (bool) {\n        uint8 kingX = (player == PLAYER_WHITE) ? whiteKingRow : blackKingRow;\n        uint8 kingY = (player == PLAYER_WHITE) ? whiteKingCol : blackKingCol;\n\n        // Check all 8 adjacent squares\n        for (int8 i = -1; i <= 1; i++) {\n            for (int8 j = -1; j <= 1; j++) {\n                if (i == 0 && j == 0) continue;\n                if (isKingMoveEscape(player, kingX, kingY, i, j)) {\n                    return true;\n                }\n            }\n        }\n        return false;\n    }\n\n    // Helper: Check if moving king by (di, dj) is a valid escape\n    function isKingMoveEscape(int8 player, uint8 kingX, uint8 kingY, int8 di, int8 dj) internal view returns (bool) {\n        int8 x = int8(kingX) + di;\n        int8 y = int8(kingY) + dj;\n\n        // Check bounds\n        if (x < 0 || x >= int8(BOARD_SIZE) || y < 0 || y >= int8(BOARD_SIZE)) {\n            return false;\n        }\n\n        uint8 newX = uint8(x);\n        uint8 newY = uint8(y);\n        int8 targetPiece = board[newX][newY];\n        int8 kingPiece = board[kingX][kingY];\n\n        // Can't capture own piece\n        if (targetPiece != EMPTY && targetPiece * kingPiece > 0) {\n            return false;\n        }\n\n        // Check if the destination square is safe (not under attack)\n        return !isSquareUnderAttackAfterKingMove(player, newX, newY, kingX, kingY);\n    }\n\n    // Check if a square would be under attack after king moves there\n    function isSquareUnderAttackAfterKingMove(int8 player, uint8 targetX, uint8 targetY, uint8 fromX, uint8 fromY) internal view returns (bool) {\n        for (uint8 row = 0; row < BOARD_SIZE; row++) {\n            for (uint8 col = 0; col < BOARD_SIZE; col++) {\n                // Skip the square king is moving from and the target square\n                if ((row == fromX && col == fromY) || (row == targetX && col == targetY)) continue;\n\n                int8 piece = board[row][col];\n                if (piece * player < 0) { // Opponent piece\n                    if (canPieceAttackSquare(row, col, targetX, targetY, fromX, fromY)) {\n                        return true;\n                    }\n                }\n            }\n        }\n        return false;\n    }\n\n    // Helper function to check if a piece can attack a square, considering that the king moved\n    function canPieceAttackSquare(uint8 pieceRow, uint8 pieceCol, uint8 targetRow, uint8 targetCol, uint8 ignoreRow, uint8 ignoreCol) internal view returns (bool) {\n        int8 piece = board[pieceRow][pieceCol];\n        uint8 absPiece = abs(piece);\n\n        if (absPiece == uint8(PAWN)) {\n            int8 direction = (piece > 0) ? int8(-1) : int8(1);\n            return (int8(targetRow) == int8(pieceRow) + direction && abs(int8(targetCol) - int8(pieceCol)) == 1);\n        }\n        if (absPiece == uint8(KNIGHT)) {\n            uint8 dX = abs(int8(targetRow) - int8(pieceRow));\n            uint8 dY = abs(int8(targetCol) - int8(pieceCol));\n            return (dX == 2 && dY == 1) || (dX == 1 && dY == 2);\n        }\n        if (absPiece == uint8(KING)) {\n            return abs(int8(targetRow) - int8(pieceRow)) <= 1 && abs(int8(targetCol) - int8(pieceCol)) <= 1;\n        }\n\n        // Sliding pieces (Bishop, Rook, Queen)\n        return canSlidingPieceAttack(pieceRow, pieceCol, targetRow, targetCol, ignoreRow, ignoreCol, absPiece);\n    }\n\n    // Helper for sliding pieces attack check\n    function canSlidingPieceAttack(uint8 pieceRow, uint8 pieceCol, uint8 targetRow, uint8 targetCol, uint8 ignoreRow, uint8 ignoreCol, uint8 absPiece) internal view returns (bool) {\n        int8 deltaRow = int8(targetRow) - int8(pieceRow);\n        int8 deltaCol = int8(targetCol) - int8(pieceCol);\n        uint8 absDeltaRow = abs(deltaRow);\n        uint8 absDeltaCol = abs(deltaCol);\n\n        bool isDiagonal = (absDeltaRow == absDeltaCol && absDeltaRow > 0);\n        bool isStraight = (deltaRow == 0 || deltaCol == 0) && (absDeltaRow > 0 || absDeltaCol > 0);\n\n        if (absPiece == uint8(BISHOP) && !isDiagonal) return false;\n        if (absPiece == uint8(ROOK) && !isStraight) return false;\n        if (absPiece == uint8(QUEEN) && !isDiagonal && !isStraight) return false;\n\n        // Check path is clear\n        int8 stepRow = (deltaRow == 0) ? int8(0) : (deltaRow > 0 ? int8(1) : int8(-1));\n        int8 stepCol = (deltaCol == 0) ? int8(0) : (deltaCol > 0 ? int8(1) : int8(-1));\n\n        uint8 checkRow = uint8(int8(pieceRow) + stepRow);\n        uint8 checkCol = uint8(int8(pieceCol) + stepCol);\n\n        while (checkRow != targetRow || checkCol != targetCol) {\n            if (!(checkRow == ignoreRow && checkCol == ignoreCol)) {\n                if (board[checkRow][checkCol] != EMPTY) {\n                    return false;\n                }\n            }\n            checkRow = uint8(int8(checkRow) + stepRow);\n            checkCol = uint8(int8(checkCol) + stepCol);\n        }\n        return true;\n    }\n\n    // Check if the game is in stalemate\n    function isStalemate() internal view returns (bool) {\n        int8 player = (currentPlayer == whitePlayer) ? int8(PLAYER_WHITE) : int8(PLAYER_BLACK);\n\n        // Check if there are any valid moves for current player pieces\n        for (uint8 rowPiece = 0; rowPiece < BOARD_SIZE; rowPiece++) {\n            for (uint8 colPiece = 0; colPiece < BOARD_SIZE; colPiece++) {\n                // If we find a piece belonging to the current player, then check if it can perform a move\n                if (board[rowPiece][colPiece] * player > 0 ) {\n                    for (uint8 row_target = 0; row_target < BOARD_SIZE; row_target++) {\n                        for (uint8 col_target = 0; col_target < BOARD_SIZE; col_target++) {\n                            if (board[row_target][col_target] != board[rowPiece][colPiece]\n                                && isValidMoveView(rowPiece, colPiece, row_target, col_target)) {\n                                return false;\n                            }\n                        }\n                    }\n                }\n            }\n        }\n\n        // No any valid move for the current player\n        return true;\n    }\n\n    // Check if the given player's king is in checkmate\n    function isCheckmate(int8 player, uint8 attackerI, uint8 attackerJ) internal view returns (bool) {\n        // Check if the king can move out of check\n        if (canKingMove(player)) {\n            return false;\n        }\n\n        // Check if the attacking piece can be captured\n        if (canCaptureAttacker(player, attackerI, attackerJ)) {\n            return false;\n        }\n\n        // Check if any other piece can block the attack\n        if (canBlockAttack(attackerI, attackerJ)) {\n            return false;\n        }\n\n        // The king is in checkmate\n        return true;\n    }\n\n    // Check if the player pieces can capture the attacking piece\n    function canCaptureAttacker(int8 player, uint8 rowAttacker, uint8 colAttacker) internal view returns (bool) {\n        // Iterate over all pieces on the board\n        for (uint8 rowPiece = 0; rowPiece < BOARD_SIZE; rowPiece++) {\n            for (uint8 colPiece = 0; colPiece < BOARD_SIZE; colPiece++) {\n                // Skip empty squares and pieces belonging to the attacker\n                if (board[rowPiece][colPiece] == EMPTY || board[rowPiece][colPiece] * player < 0 || (rowPiece == rowAttacker && colPiece == colAttacker)) {\n                    continue;\n                }\n\n                // Check if the piece can capture the attacking piece\n                if (isValidMoveView(rowPiece, colPiece, rowAttacker, colAttacker)) {\n                    // A piece can capture the attacking piece\n                    return true;\n                }\n            }\n        }\n\n        // No piece can capture the attacking piece\n        return false;\n    }\n\n    function canBlockAttack(uint8 rowAttacker, uint8 colAttacker) internal view returns (bool) {\n        // Get the king position for the player in check\n        // The player in check is the one whose turn it will be next (after the attacking move)\n        int8 attackerPiece = board[rowAttacker][colAttacker];\n        int8 defendingPlayer = (attackerPiece > 0) ? PLAYER_BLACK : PLAYER_WHITE;\n\n        uint8 kingRow = (defendingPlayer == PLAYER_WHITE) ? whiteKingRow : blackKingRow;\n        uint8 kingCol = (defendingPlayer == PLAYER_WHITE) ? whiteKingCol : blackKingCol;\n\n        // Knights can't be blocked (they jump)\n        if (abs(attackerPiece) == uint8(KNIGHT)) {\n            return false;\n        }\n\n        // Find the squares between attacker and king that could be blocked\n        int8 deltaRow = int8(kingRow) - int8(rowAttacker);\n        int8 deltaCol = int8(kingCol) - int8(colAttacker);\n\n        // Get step direction\n        int8 stepRow = (deltaRow == 0) ? int8(0) : (deltaRow > 0 ? int8(1) : int8(-1));\n        int8 stepCol = (deltaCol == 0) ? int8(0) : (deltaCol > 0 ? int8(1) : int8(-1));\n\n        // Check each square between attacker and king\n        uint8 blockRow = uint8(int8(rowAttacker) + stepRow);\n        uint8 blockCol = uint8(int8(colAttacker) + stepCol);\n\n        while (blockRow != kingRow || blockCol != kingCol) {\n            // Check if any defending piece can move to this blocking square\n            for (uint8 pieceRow = 0; pieceRow < BOARD_SIZE; pieceRow++) {\n                for (uint8 pieceCol = 0; pieceCol < BOARD_SIZE; pieceCol++) {\n                    int8 piece = board[pieceRow][pieceCol];\n\n                    // Skip empty squares, opponent pieces, and the king (can't block with king)\n                    if (piece == EMPTY || piece * defendingPlayer <= 0 || abs(piece) == uint8(KING)) {\n                        continue;\n                    }\n\n                    // Check if this piece can move to the blocking square\n                    if (isValidMoveView(pieceRow, pieceCol, blockRow, blockCol)) {\n                        return true;\n                    }\n                }\n            }\n\n            blockRow = uint8(int8(blockRow) + stepRow);\n            blockCol = uint8(int8(blockCol) + stepCol);\n        }\n\n        // No piece can block the attack\n        return false;\n    }\n\n    function getPlayers() external view returns (address, address) {\n        return (whitePlayer, blackPlayer);\n    }\n\n    /// @notice DEBUG ONLY - Place a piece on the board (remove before mainnet deployment)\n    /// @dev This function is for testing purposes only\n    function debugCreative(uint8 x, uint8 y, int8 piece) external returns (string memory) {\n        board[x][y] = piece;\n        // Update king position cache if placing a king\n        if (piece == KING) {\n            whiteKingRow = x;\n            whiteKingCol = y;\n        } else if (piece == -KING) {\n            blackKingRow = x;\n            blackKingCol = y;\n        }\n        return printBoard();\n    }\n\n    function getGameState () external view returns (uint8) {\n        if (gameState == GameState.NotStarted) return 1;\n        if (gameState == GameState.InProgress) return 2;\n        if (gameState == GameState.Draw) return 3;\n        if (gameState == GameState.WhiteWins) return 4;\n        if (gameState == GameState.BlackWins) return 5;\n\n        return 0;\n    } \n}\n\n\n\n\n\n",
  "sourcePath": "/Users/jacopo/Documents/solidity/chessgame/ethereum/contracts/Chess/ChessCore.sol",
  "compiler": {
    "name": "solc",
    "version": "0.8.20+commit.a1b79de6.Emscripten.clang"
  },
  "schemaVersion": "3.4.16",
  "updatedAt": "2025-12-29T02:56:09.361Z",
  "networkType": "ethereum",
  "devdoc": {
    "errors": {
      "ReentrancyGuardReentrantCall()": [
        {
          "details": "Unauthorized reentrant call."
        }
      ]
    },
    "kind": "dev",
    "methods": {
      "debugCreative(uint8,uint8,int8)": {
        "details": "This function is for testing purposes only"
      }
    },
    "title": "ChessCore - Main chess game logic",
    "version": 1
  },
  "userdoc": {
    "kind": "user",
    "methods": {
      "debugCreative(uint8,uint8,int8)": {
        "notice": "DEBUG ONLY - Place a piece on the board (remove before mainnet deployment)"
      },
      "printBoard()": {
        "notice": "Print board as string (for debugging)"
      },
      "printChessBoardLayoutSVG()": {
        "notice": "Get SVG representation of the board"
      }
    },
    "notice": "Inherits from ChessBoard and implements move validation and game state",
    "version": 1
  }
}