{
  "contractName": "ChessToken",
  "abi": [
    {
      "inputs": [
        {
          "internalType": "address",
          "name": "_teamWallet",
          "type": "address"
        },
        {
          "internalType": "address",
          "name": "_treasury",
          "type": "address"
        }
      ],
      "stateMutability": "nonpayable",
      "type": "constructor"
    },
    {
      "inputs": [],
      "name": "AccessControlBadConfirmation",
      "type": "error"
    },
    {
      "inputs": [
        {
          "internalType": "address",
          "name": "account",
          "type": "address"
        },
        {
          "internalType": "bytes32",
          "name": "neededRole",
          "type": "bytes32"
        }
      ],
      "name": "AccessControlUnauthorizedAccount",
      "type": "error"
    },
    {
      "inputs": [
        {
          "internalType": "address",
          "name": "spender",
          "type": "address"
        },
        {
          "internalType": "uint256",
          "name": "allowance",
          "type": "uint256"
        },
        {
          "internalType": "uint256",
          "name": "needed",
          "type": "uint256"
        }
      ],
      "name": "ERC20InsufficientAllowance",
      "type": "error"
    },
    {
      "inputs": [
        {
          "internalType": "address",
          "name": "sender",
          "type": "address"
        },
        {
          "internalType": "uint256",
          "name": "balance",
          "type": "uint256"
        },
        {
          "internalType": "uint256",
          "name": "needed",
          "type": "uint256"
        }
      ],
      "name": "ERC20InsufficientBalance",
      "type": "error"
    },
    {
      "inputs": [
        {
          "internalType": "address",
          "name": "approver",
          "type": "address"
        }
      ],
      "name": "ERC20InvalidApprover",
      "type": "error"
    },
    {
      "inputs": [
        {
          "internalType": "address",
          "name": "receiver",
          "type": "address"
        }
      ],
      "name": "ERC20InvalidReceiver",
      "type": "error"
    },
    {
      "inputs": [
        {
          "internalType": "address",
          "name": "sender",
          "type": "address"
        }
      ],
      "name": "ERC20InvalidSender",
      "type": "error"
    },
    {
      "inputs": [
        {
          "internalType": "address",
          "name": "spender",
          "type": "address"
        }
      ],
      "name": "ERC20InvalidSpender",
      "type": "error"
    },
    {
      "anonymous": false,
      "inputs": [
        {
          "indexed": true,
          "internalType": "address",
          "name": "owner",
          "type": "address"
        },
        {
          "indexed": true,
          "internalType": "address",
          "name": "spender",
          "type": "address"
        },
        {
          "indexed": false,
          "internalType": "uint256",
          "name": "value",
          "type": "uint256"
        }
      ],
      "name": "Approval",
      "type": "event"
    },
    {
      "anonymous": false,
      "inputs": [
        {
          "indexed": true,
          "internalType": "address",
          "name": "to",
          "type": "address"
        },
        {
          "indexed": false,
          "internalType": "uint256",
          "name": "amount",
          "type": "uint256"
        }
      ],
      "name": "CommunityMinted",
      "type": "event"
    },
    {
      "anonymous": false,
      "inputs": [
        {
          "indexed": true,
          "internalType": "address",
          "name": "to",
          "type": "address"
        },
        {
          "indexed": false,
          "internalType": "uint256",
          "name": "amount",
          "type": "uint256"
        }
      ],
      "name": "LiquidityMinted",
      "type": "event"
    },
    {
      "anonymous": false,
      "inputs": [
        {
          "indexed": true,
          "internalType": "address",
          "name": "to",
          "type": "address"
        },
        {
          "indexed": false,
          "internalType": "uint256",
          "name": "amount",
          "type": "uint256"
        }
      ],
      "name": "PlayToEarnMinted",
      "type": "event"
    },
    {
      "anonymous": false,
      "inputs": [
        {
          "indexed": true,
          "internalType": "bytes32",
          "name": "role",
          "type": "bytes32"
        },
        {
          "indexed": true,
          "internalType": "bytes32",
          "name": "previousAdminRole",
          "type": "bytes32"
        },
        {
          "indexed": true,
          "internalType": "bytes32",
          "name": "newAdminRole",
          "type": "bytes32"
        }
      ],
      "name": "RoleAdminChanged",
      "type": "event"
    },
    {
      "anonymous": false,
      "inputs": [
        {
          "indexed": true,
          "internalType": "bytes32",
          "name": "role",
          "type": "bytes32"
        },
        {
          "indexed": true,
          "internalType": "address",
          "name": "account",
          "type": "address"
        },
        {
          "indexed": true,
          "internalType": "address",
          "name": "sender",
          "type": "address"
        }
      ],
      "name": "RoleGranted",
      "type": "event"
    },
    {
      "anonymous": false,
      "inputs": [
        {
          "indexed": true,
          "internalType": "bytes32",
          "name": "role",
          "type": "bytes32"
        },
        {
          "indexed": true,
          "internalType": "address",
          "name": "account",
          "type": "address"
        },
        {
          "indexed": true,
          "internalType": "address",
          "name": "sender",
          "type": "address"
        }
      ],
      "name": "RoleRevoked",
      "type": "event"
    },
    {
      "anonymous": false,
      "inputs": [
        {
          "indexed": true,
          "internalType": "address",
          "name": "to",
          "type": "address"
        },
        {
          "indexed": false,
          "internalType": "uint256",
          "name": "amount",
          "type": "uint256"
        }
      ],
      "name": "TeamVestingClaimed",
      "type": "event"
    },
    {
      "anonymous": false,
      "inputs": [
        {
          "indexed": true,
          "internalType": "address",
          "name": "from",
          "type": "address"
        },
        {
          "indexed": true,
          "internalType": "address",
          "name": "to",
          "type": "address"
        },
        {
          "indexed": false,
          "internalType": "uint256",
          "name": "value",
          "type": "uint256"
        }
      ],
      "name": "Transfer",
      "type": "event"
    },
    {
      "anonymous": false,
      "inputs": [
        {
          "indexed": true,
          "internalType": "address",
          "name": "to",
          "type": "address"
        },
        {
          "indexed": false,
          "internalType": "uint256",
          "name": "amount",
          "type": "uint256"
        }
      ],
      "name": "TreasuryMinted",
      "type": "event"
    },
    {
      "inputs": [],
      "name": "COMMUNITY_CAP",
      "outputs": [
        {
          "internalType": "uint256",
          "name": "",
          "type": "uint256"
        }
      ],
      "stateMutability": "view",
      "type": "function",
      "constant": true
    },
    {
      "inputs": [],
      "name": "DEFAULT_ADMIN_ROLE",
      "outputs": [
        {
          "internalType": "bytes32",
          "name": "",
          "type": "bytes32"
        }
      ],
      "stateMutability": "view",
      "type": "function",
      "constant": true
    },
    {
      "inputs": [],
      "name": "LIQUIDITY_CAP",
      "outputs": [
        {
          "internalType": "uint256",
          "name": "",
          "type": "uint256"
        }
      ],
      "stateMutability": "view",
      "type": "function",
      "constant": true
    },
    {
      "inputs": [],
      "name": "MAX_SUPPLY",
      "outputs": [
        {
          "internalType": "uint256",
          "name": "",
          "type": "uint256"
        }
      ],
      "stateMutability": "view",
      "type": "function",
      "constant": true
    },
    {
      "inputs": [],
      "name": "MINTER_ROLE",
      "outputs": [
        {
          "internalType": "bytes32",
          "name": "",
          "type": "bytes32"
        }
      ],
      "stateMutability": "view",
      "type": "function",
      "constant": true
    },
    {
      "inputs": [],
      "name": "PLAY_TO_EARN_CAP",
      "outputs": [
        {
          "internalType": "uint256",
          "name": "",
          "type": "uint256"
        }
      ],
      "stateMutability": "view",
      "type": "function",
      "constant": true
    },
    {
      "inputs": [],
      "name": "TEAM_CAP",
      "outputs": [
        {
          "internalType": "uint256",
          "name": "",
          "type": "uint256"
        }
      ],
      "stateMutability": "view",
      "type": "function",
      "constant": true
    },
    {
      "inputs": [],
      "name": "TEAM_VESTING_DURATION",
      "outputs": [
        {
          "internalType": "uint256",
          "name": "",
          "type": "uint256"
        }
      ],
      "stateMutability": "view",
      "type": "function",
      "constant": true
    },
    {
      "inputs": [],
      "name": "TREASURY_CAP",
      "outputs": [
        {
          "internalType": "uint256",
          "name": "",
          "type": "uint256"
        }
      ],
      "stateMutability": "view",
      "type": "function",
      "constant": true
    },
    {
      "inputs": [
        {
          "internalType": "address",
          "name": "owner",
          "type": "address"
        },
        {
          "internalType": "address",
          "name": "spender",
          "type": "address"
        }
      ],
      "name": "allowance",
      "outputs": [
        {
          "internalType": "uint256",
          "name": "",
          "type": "uint256"
        }
      ],
      "stateMutability": "view",
      "type": "function",
      "constant": true
    },
    {
      "inputs": [
        {
          "internalType": "address",
          "name": "spender",
          "type": "address"
        },
        {
          "internalType": "uint256",
          "name": "value",
          "type": "uint256"
        }
      ],
      "name": "approve",
      "outputs": [
        {
          "internalType": "bool",
          "name": "",
          "type": "bool"
        }
      ],
      "stateMutability": "nonpayable",
      "type": "function"
    },
    {
      "inputs": [
        {
          "internalType": "address",
          "name": "account",
          "type": "address"
        }
      ],
      "name": "balanceOf",
      "outputs": [
        {
          "internalType": "uint256",
          "name": "",
          "type": "uint256"
        }
      ],
      "stateMutability": "view",
      "type": "function",
      "constant": true
    },
    {
      "inputs": [
        {
          "internalType": "uint256",
          "name": "value",
          "type": "uint256"
        }
      ],
      "name": "burn",
      "outputs": [],
      "stateMutability": "nonpayable",
      "type": "function"
    },
    {
      "inputs": [
        {
          "internalType": "address",
          "name": "account",
          "type": "address"
        },
        {
          "internalType": "uint256",
          "name": "value",
          "type": "uint256"
        }
      ],
      "name": "burnFrom",
      "outputs": [],
      "stateMutability": "nonpayable",
      "type": "function"
    },
    {
      "inputs": [],
      "name": "communityMinted",
      "outputs": [
        {
          "internalType": "uint256",
          "name": "",
          "type": "uint256"
        }
      ],
      "stateMutability": "view",
      "type": "function",
      "constant": true
    },
    {
      "inputs": [],
      "name": "decimals",
      "outputs": [
        {
          "internalType": "uint8",
          "name": "",
          "type": "uint8"
        }
      ],
      "stateMutability": "view",
      "type": "function",
      "constant": true
    },
    {
      "inputs": [
        {
          "internalType": "bytes32",
          "name": "role",
          "type": "bytes32"
        }
      ],
      "name": "getRoleAdmin",
      "outputs": [
        {
          "internalType": "bytes32",
          "name": "",
          "type": "bytes32"
        }
      ],
      "stateMutability": "view",
      "type": "function",
      "constant": true
    },
    {
      "inputs": [
        {
          "internalType": "bytes32",
          "name": "role",
          "type": "bytes32"
        },
        {
          "internalType": "address",
          "name": "account",
          "type": "address"
        }
      ],
      "name": "grantRole",
      "outputs": [],
      "stateMutability": "nonpayable",
      "type": "function"
    },
    {
      "inputs": [
        {
          "internalType": "bytes32",
          "name": "role",
          "type": "bytes32"
        },
        {
          "internalType": "address",
          "name": "account",
          "type": "address"
        }
      ],
      "name": "hasRole",
      "outputs": [
        {
          "internalType": "bool",
          "name": "",
          "type": "bool"
        }
      ],
      "stateMutability": "view",
      "type": "function",
      "constant": true
    },
    {
      "inputs": [],
      "name": "liquidityMinted",
      "outputs": [
        {
          "internalType": "uint256",
          "name": "",
          "type": "uint256"
        }
      ],
      "stateMutability": "view",
      "type": "function",
      "constant": true
    },
    {
      "inputs": [],
      "name": "name",
      "outputs": [
        {
          "internalType": "string",
          "name": "",
          "type": "string"
        }
      ],
      "stateMutability": "view",
      "type": "function",
      "constant": true
    },
    {
      "inputs": [],
      "name": "playToEarnMinted",
      "outputs": [
        {
          "internalType": "uint256",
          "name": "",
          "type": "uint256"
        }
      ],
      "stateMutability": "view",
      "type": "function",
      "constant": true
    },
    {
      "inputs": [
        {
          "internalType": "bytes32",
          "name": "role",
          "type": "bytes32"
        },
        {
          "internalType": "address",
          "name": "callerConfirmation",
          "type": "address"
        }
      ],
      "name": "renounceRole",
      "outputs": [],
      "stateMutability": "nonpayable",
      "type": "function"
    },
    {
      "inputs": [
        {
          "internalType": "bytes32",
          "name": "role",
          "type": "bytes32"
        },
        {
          "internalType": "address",
          "name": "account",
          "type": "address"
        }
      ],
      "name": "revokeRole",
      "outputs": [],
      "stateMutability": "nonpayable",
      "type": "function"
    },
    {
      "inputs": [
        {
          "internalType": "bytes4",
          "name": "interfaceId",
          "type": "bytes4"
        }
      ],
      "name": "supportsInterface",
      "outputs": [
        {
          "internalType": "bool",
          "name": "",
          "type": "bool"
        }
      ],
      "stateMutability": "view",
      "type": "function",
      "constant": true
    },
    {
      "inputs": [],
      "name": "symbol",
      "outputs": [
        {
          "internalType": "string",
          "name": "",
          "type": "string"
        }
      ],
      "stateMutability": "view",
      "type": "function",
      "constant": true
    },
    {
      "inputs": [],
      "name": "teamMinted",
      "outputs": [
        {
          "internalType": "uint256",
          "name": "",
          "type": "uint256"
        }
      ],
      "stateMutability": "view",
      "type": "function",
      "constant": true
    },
    {
      "inputs": [],
      "name": "teamVestingClaimed",
      "outputs": [
        {
          "internalType": "uint256",
          "name": "",
          "type": "uint256"
        }
      ],
      "stateMutability": "view",
      "type": "function",
      "constant": true
    },
    {
      "inputs": [],
      "name": "teamVestingStart",
      "outputs": [
        {
          "internalType": "uint256",
          "name": "",
          "type": "uint256"
        }
      ],
      "stateMutability": "view",
      "type": "function",
      "constant": true
    },
    {
      "inputs": [],
      "name": "teamWallet",
      "outputs": [
        {
          "internalType": "address",
          "name": "",
          "type": "address"
        }
      ],
      "stateMutability": "view",
      "type": "function",
      "constant": true
    },
    {
      "inputs": [],
      "name": "totalSupply",
      "outputs": [
        {
          "internalType": "uint256",
          "name": "",
          "type": "uint256"
        }
      ],
      "stateMutability": "view",
      "type": "function",
      "constant": true
    },
    {
      "inputs": [
        {
          "internalType": "address",
          "name": "to",
          "type": "address"
        },
        {
          "internalType": "uint256",
          "name": "value",
          "type": "uint256"
        }
      ],
      "name": "transfer",
      "outputs": [
        {
          "internalType": "bool",
          "name": "",
          "type": "bool"
        }
      ],
      "stateMutability": "nonpayable",
      "type": "function"
    },
    {
      "inputs": [
        {
          "internalType": "address",
          "name": "from",
          "type": "address"
        },
        {
          "internalType": "address",
          "name": "to",
          "type": "address"
        },
        {
          "internalType": "uint256",
          "name": "value",
          "type": "uint256"
        }
      ],
      "name": "transferFrom",
      "outputs": [
        {
          "internalType": "bool",
          "name": "",
          "type": "bool"
        }
      ],
      "stateMutability": "nonpayable",
      "type": "function"
    },
    {
      "inputs": [],
      "name": "treasuryMinted",
      "outputs": [
        {
          "internalType": "uint256",
          "name": "",
          "type": "uint256"
        }
      ],
      "stateMutability": "view",
      "type": "function",
      "constant": true
    },
    {
      "inputs": [
        {
          "internalType": "address",
          "name": "to",
          "type": "address"
        },
        {
          "internalType": "uint256",
          "name": "amount",
          "type": "uint256"
        }
      ],
      "name": "mintPlayToEarn",
      "outputs": [],
      "stateMutability": "nonpayable",
      "type": "function"
    },
    {
      "inputs": [
        {
          "internalType": "address",
          "name": "to",
          "type": "address"
        },
        {
          "internalType": "uint256",
          "name": "amount",
          "type": "uint256"
        }
      ],
      "name": "mintTreasury",
      "outputs": [],
      "stateMutability": "nonpayable",
      "type": "function"
    },
    {
      "inputs": [],
      "name": "claimTeamVesting",
      "outputs": [],
      "stateMutability": "nonpayable",
      "type": "function"
    },
    {
      "inputs": [],
      "name": "getClaimableTeamVesting",
      "outputs": [
        {
          "internalType": "uint256",
          "name": "",
          "type": "uint256"
        }
      ],
      "stateMutability": "view",
      "type": "function",
      "constant": true
    },
    {
      "inputs": [
        {
          "internalType": "address",
          "name": "newTeamWallet",
          "type": "address"
        }
      ],
      "name": "setTeamWallet",
      "outputs": [],
      "stateMutability": "nonpayable",
      "type": "function"
    },
    {
      "inputs": [
        {
          "internalType": "address",
          "name": "minter",
          "type": "address"
        }
      ],
      "name": "addMinter",
      "outputs": [],
      "stateMutability": "nonpayable",
      "type": "function"
    },
    {
      "inputs": [
        {
          "internalType": "address",
          "name": "minter",
          "type": "address"
        }
      ],
      "name": "removeMinter",
      "outputs": [],
      "stateMutability": "nonpayable",
      "type": "function"
    },
    {
      "inputs": [],
      "name": "totalMinted",
      "outputs": [
        {
          "internalType": "uint256",
          "name": "",
          "type": "uint256"
        }
      ],
      "stateMutability": "view",
      "type": "function",
      "constant": true
    },
    {
      "inputs": [],
      "name": "remainingMintable",
      "outputs": [
        {
          "internalType": "uint256",
          "name": "playToEarn",
          "type": "uint256"
        },
        {
          "internalType": "uint256",
          "name": "treasury",
          "type": "uint256"
        },
        {
          "internalType": "uint256",
          "name": "team",
          "type": "uint256"
        },
        {
          "internalType": "uint256",
          "name": "liquidity",
          "type": "uint256"
        },
        {
          "internalType": "uint256",
          "name": "community",
          "type": "uint256"
        }
      ],
      "stateMutability": "view",
      "type": "function",
      "constant": true
    }
  ],
  "bytecode": "0x60803462000245576001600160401b0390601f1990601f62001a4a3881900382810185168401919086831185841017620003205780859260409485528339810103126200024557620000518262000431565b9262000061602080940162000431565b946200006c62000411565b92600b84526a21b432b9b9902a37b5b2b760a91b858501526200008e62000411565b936005855264434845535360d81b86860152805191838311620003205760039283546001938482811c9216801562000406575b8a831014620003f25781848493116200039f575b50899084831160011462000340575f9262000334575b50505f1982861b1c191690831b1783555b8551938411620003205760049586548381811c9116801562000315575b898210146200030257828111620002ba575b50879185116001146200025557849550908492915f9562000249575b50501b925f19911b1c19161790555b6001600160a01b039182169182156200024557831692831562000245577f4197a343e4d8cc64e890b31aac50132920608de8ff4d4d2f3dcdf58e18d8551092620001a03362000446565b50620001ac33620004c5565b5060018060a01b0319600d541617600d5542600b55620001ce60095462000566565b600955620001dc8162000593565b6200022e60405191857f85719716ac5bd2744ae7ed3d16702129383049b97123b506320e7a5826ebbbba856a084595161401484a00000095868152a262000225600a5462000566565b600a5562000593565b604051908152a26040516114129081620006188239f35b5f80fd5b015193505f8062000147565b929194841692865f5284885f20945f5b8a89838310620002a2575050501062000288575b50505050811b01905562000156565b01519060f8845f19921b161c191690555f80808062000279565b86860151895590970196948501948893500162000265565b875f52885f208380880160051c8201928b8910620002f8575b0160051c019084905b828110620002ec5750506200012b565b5f8155018490620002dc565b92508192620002d3565b602288634e487b7160e01b5f525260245ffd5b90607f169062000119565b634e487b7160e01b5f52604160045260245ffd5b015190505f80620000eb565b908886941691875f528b5f20925f5b8d82821062000388575050841162000370575b505050811b018355620000fc565b01515f1983881b60f8161c191690555f808062000362565b83850151865589979095019493840193016200034f565b909150855f52895f208480850160051c8201928c8610620003e8575b918791869594930160051c01915b828110620003d9575050620000d5565b5f8155859450879101620003c9565b92508192620003bb565b634e487b7160e01b5f52602260045260245ffd5b91607f1691620000c1565b60408051919082016001600160401b038111838210176200032057604052565b51906001600160a01b03821682036200024557565b6001600160a01b03165f8181527f05b8ccbb9d4d8fb16ea74ce3c29a41f1b461fbdaff4714a0d9a8eb05499746bc602052604081205490919060ff16620004c15781805260056020526040822081835260205260408220600160ff1982541617905533915f8051602062001a2a8339815191528180a4600190565b5090565b6001600160a01b03165f8181527f15a28d26fa1bf736cf7edc9922607171ccb09c3c73b808e7772a3013e068a52260205260408120549091907f9f2df0fed2c77648de5860a4cc508cd0818c85b8b8a1ab4ceeef8d981c8956a69060ff16620005615780835260056020526040832082845260205260408320600160ff198254161790555f8051602062001a2a833981519152339380a4600190565b505090565b906a084595161401484a00000082018092116200057f57565b634e487b7160e01b5f52601160045260245ffd5b6001600160a01b03168015620005ff576002546a084595161401484a0000008082018092116200057f5760207fddf252ad1be2c89b69c2b068fc378daa952ba7f163c4a11628f55a4df523b3ef915f9360025584845283825260408420818154019055604051908152a3565b60405163ec442f0560e01b81525f6004820152602490fdfe6080604081815260049182361015610015575f80fd5b5f92833560e01c91826301ffc9a714610d9f575081630672405814610d8057816306fdde0314610cc4578163095ea7b314610c1a5781631525ff7d14610bcd57816318160ddd14610bae5781631a1210b614610b3b57816323b872dd14610afe578163248a9ca314610ad35781632f2ff15d14610aa95781633092afd514610a7f578163313ce56714610a63578163329b2b4b146109f257816332cb6b0c14610a3d57816336568abe146109f757816336570b1c146109f2578163425baf1e146109cc57816342966c68146109ae57816355a5985614610988578163599270441461095f57816370a082311461092857816371aeef521461083f5781637929b27b146107be57816379cc67901461078b5781638a108312146106b25781638eab07511461069357816391d148541461064c57816395d89b411461054b578163983b2d561461051e5781639bce97ba146104ff578163a217fddf146104e4578163a2309ff814610495578163a9059cbb14610464578163add3549a1461043e578163d539139314610416578163d547741f146103d2578163d9c5b0d3146103b3578163dd62ed3e1461036a578163de7c2ed21461034b578163e8b5498d1461032c578163ea7f98881461030d578163f76e95e51461021c575063fdd0f3ca146101fb575f80fd5b346102185781600319360112610218576020906007549051908152f35b5080fd5b838334610218578160031936011261021857600654916a21165458500521280000009283039283116102fa57600754916a14adf4b7320334b90000009283039283116102e757600854906a0c685fa11e01ec6f0000009182039182116102d457600954936a084595161401484a000000948503938585116102c157600a5486039586116102c1575060a096508151958652602086015284015260608301526080820152f35b634e487b7160e01b815260118852602490fd5b634e487b7160e01b835260118652602483fd5b634e487b7160e01b825260118552602482fd5b634e487b7160e01b815260118452602490fd5b505034610218578160031936011261021857602090600b549051908152f35b5050346102185781600319360112610218576020906008549051908152f35b505034610218578160031936011261021857602090516303c267008152f35b50503461021857806003193601126102185780602092610388610e39565b610390610e53565b6001600160a01b0391821683526001865283832091168252845220549051908152f35b505034610218578160031936011261021857602090600a549051908152f35b9190503461041257806003193601126104125761040e913561040960016103f7610e53565b93838752600560205286200154610ee5565b611058565b5080f35b8280fd5b505034610218578160031936011261021857602090515f8051602061137d8339815191528152f35b505034610218578160031936011261021857602090516a0c685fa11e01ec6f0000008152f35b50503461021857806003193601126102185760209061048e610484610e39565b60243590336110ba565b5160018152f35b5050346102185781600319360112610218576020906104dd6104d46104cb6104c26006546007549061118f565b6008549061118f565b6009549061118f565b600a549061118f565b9051908152f35b50503461021857816003193601126102185751908152602090f35b5050346102185781600319360112610218576020906006549051908152f35b83346105485760203660031901126105485761040e61053b610e39565b610543610e8e565b610f07565b80fd5b838334610218578160031936011261021857805190828454600181811c90808316928315610642575b602093848410811461062f5783885290811561061357506001146105db575b505050829003601f01601f19168201926001600160401b038411838510176105c857508291826105c4925282610df2565b0390f35b634e487b7160e01b815260418552602490fd5b919250868652828620918387935b8385106105ff5750505050830101858080610593565b8054888601830152930192849082016105e9565b60ff1916878501525050151560051b8401019050858080610593565b634e487b7160e01b895260228a52602489fd5b91607f1691610574565b9050346104125781600319360112610412578160209360ff9261066d610e53565b90358252600586528282206001600160a01b039091168252855220549151911615158152f35b5050346102185781600319360112610218576020906009549051908152f35b919050346104125780600319360112610412576106cd610e39565b602435925f8051602061137d833981519152808652600560205283862033875260205260ff84872054161561076e575050600654906a2116545850052128000000610718858461118f565b1161076a577f6613a203704ffe60e6f5b4de3748e1d0b6e1caf5dc53f8e0362143c0ad7df1ed9261074b8560209461118f565b60065561075885836112e5565b519384526001600160a01b031692a280f35b8480fd5b6044925083519163e2517d3f60e01b835233908301526024820152fd5b50503461021857366003190112610548576107bb6107a7610e39565b602435906107b68233836111b0565b61126f565b80f35b5050346102185780600319360112610218576107d8610e39565b90602435916107e5610e8e565b600754906a14adf4b7320334b90000006107ff858461118f565b1161076a577fa08092a5337478c7d4e7848dd82fc788cba94d3fe7a4a24534735a739a25a2f3926108328560209461118f565b60075561075885836112e5565b905034610412578260031936011261041257600d546001600160a01b0390811691903383900361076a57610875600b544261132f565b6303c2670092838211610920575b6a0c685fa11e01ec6f000000918083029283040361090d57506108ac90600c549384910461132f565b908115610909576108fc827f7777192a87ba8ac9752991fc9e0057a5e5aad9d2037648249545e6147752ee98956108e58260209761118f565b600c556108f48260085461118f565b6008556112e5565b600d54169351908152a280f35b8580fd5b634e487b7160e01b875260119052602486fd5b839150610883565b5050346102185760203660031901126102185760209181906001600160a01b03610950610e39565b16815280845220549051908152f35b505034610218578160031936011261021857600d5490516001600160a01b039091168152602090f35b505034610218578160031936011261021857602090516a21165458500521280000008152f35b839034610218576020366003190112610218576107bb90353361126f565b505034610218578160031936011261021857602090516a14adf4b7320334b90000008152f35b610e69565b838334610218578060031936011261021857610a11610e53565b90336001600160a01b03831603610a2e575061040e919235611058565b5163334bd91960e11b81528390fd5b505034610218578160031936011261021857602090516a52b7d2dcc80cd2e40000008152f35b5050346102185781600319360112610218576020905160128152f35b83346105485760203660031901126105485761040e610a9c610e39565b610aa4610e8e565b610fe6565b9190503461041257806003193601126104125761040e9135610ace60016103f7610e53565b610f80565b9050346104125760203660031901126104125781602093600192358152600585522001549051908152f35b5050346102185760603660031901126102185760209061048e610b1f610e39565b610b27610e53565b60443591610b368333836111b0565b6110ba565b828434610548578060031936011261054857610b59600b544261132f565b906303c2670090818311610ba5575b6a0c685fa11e01ec6f0000009280840293840403610b92576020846104dd8585600c54910461132f565b634e487b7160e01b815260118552602490fd5b91508091610b68565b5050346102185781600319360112610218576020906002549051908152f35b833461054857602036600319011261054857610be7610e39565b600d54906001600160a01b03908183163303610c165716908115610412576001600160a01b03191617600d5580f35b8380fd5b905034610412578160031936011261041257610c34610e39565b602435903315610cad576001600160a01b0316918215610c9657508083602095338152600187528181208582528752205582519081527f8c5be1e5ebec7d5bd14f71427d1e84f3dd0314c0f7b2291e5b200ac8c7c3b925843392a35160018152f35b8351634a1406b160e11b8152908101859052602490fd5b835163e602df0560e01b8152808401869052602490fd5b83833461021857816003193601126102185780519082600354600181811c90808316928315610d76575b602093848410811461062f578388529081156106135750600114610d3d57505050829003601f01601f19168201926001600160401b038411838510176105c857508291826105c4925282610df2565b91925060038652828620918387935b838510610d625750505050830101858080610593565b805488860183015293019284908201610d4c565b91607f1691610cee565b505034610218578160031936011261021857602090600c549051908152f35b849134610412576020366003190112610412573563ffffffff60e01b81168091036104125760209250637965db0b60e01b8114908115610de1575b5015158152f35b6301ffc9a760e01b14905083610dda565b602080825282518183018190529093925f5b828110610e2557505060409293505f838284010152601f8019910116010190565b818101860151848201604001528501610e04565b600435906001600160a01b0382168203610e4f57565b5f80fd5b602435906001600160a01b0382168203610e4f57565b34610e4f575f366003190112610e4f5760206040516a084595161401484a0000008152f35b335f9081527f05b8ccbb9d4d8fb16ea74ce3c29a41f1b461fbdaff4714a0d9a8eb05499746bc602052604081205460ff1615610ec75750565b6044906040519063e2517d3f60e01b82523360048301526024820152fd5b805f52600560205260405f20335f5260205260ff60405f20541615610ec75750565b6001600160a01b03165f8181525f8051602061135d83398151915260205260408120549091905f8051602061137d8339815191529060ff16610f7b5780835260056020526040832082845260205260408320600160ff198254161790555f8051602061133d833981519152339380a4600190565b505090565b905f918083526005602052604083209160018060a01b03169182845260205260ff604084205416155f14610f7b5780835260056020526040832082845260205260408320600160ff198254161790555f8051602061133d833981519152339380a4600190565b6001600160a01b03165f8181525f8051602061135d83398151915260205260408120549091905f8051602061137d8339815191529060ff1615610f7b578083526005602052604083208284526020526040832060ff1981541690555f805160206113bd833981519152339380a4600190565b905f918083526005602052604083209160018060a01b03169182845260205260ff6040842054165f14610f7b578083526005602052604083208284526020526040832060ff1981541690555f805160206113bd833981519152339380a4600190565b916001600160a01b038084169283156111595716928315611141575f9083825281602052604082205490838210611120575091604082825f8051602061139d833981519152958760209652828652038282205586815220818154019055604051908152a3565b61113d8460405193849363391434e360e21b855260048501611171565b0390fd5b60405163ec442f0560e01b81525f6004820152602490fd5b604051634b637e8f60e11b81525f6004820152602490fd5b604091949392606082019560018060a01b0316825260208201520152565b9190820180921161119c57565b634e487b7160e01b5f52601160045260245ffd5b9160018060a01b03809316915f9383855260016020526040938486209183169182875260205284862054925f1984106111ed575b50505050505050565b848410611251575080156112395781156112215785526001602052838520908552602052039120555f8080808080806111e4565b8451634a1406b160e11b815260048101879052602490fd5b845163e602df0560e01b815260048101879052602490fd5b839061113d868851938493637dc7a0d960e11b855260048501611171565b906001600160a01b038216908115611159575f92828452836020526040842054908282106112c85750815f8051602061139d833981519152926020928587528684520360408620558060025403600255604051908152a3565b61113d8360405193849363391434e360e21b855260048501611171565b6001600160a01b0316908115611141575f8051602061139d8339815191526020826113135f9460025461118f565b60025584845283825260408420818154019055604051908152a3565b9190820391821161119c5756fe2f8788117e7eff1d82e926ec794901d17c78024a50270940304540a733656f0d15a28d26fa1bf736cf7edc9922607171ccb09c3c73b808e7772a3013e068a5229f2df0fed2c77648de5860a4cc508cd0818c85b8b8a1ab4ceeef8d981c8956a6ddf252ad1be2c89b69c2b068fc378daa952ba7f163c4a11628f55a4df523b3eff6391f5c32d9c69d2a47ea670b442974b53935d1edc7fd64eb21e047a839171ba264697066735822122071122302cb60540ee12456d8a11ad771e5d520eee4d1a759a063b777fb23fbda64736f6c634300081400332f8788117e7eff1d82e926ec794901d17c78024a50270940304540a733656f0d",
  "immutableReferences": {},
  "source": "// SPDX-License-Identifier: MIT\npragma solidity ^0.8.19;\n\nimport \"@openzeppelin/contracts/token/ERC20/ERC20.sol\";\nimport \"@openzeppelin/contracts/token/ERC20/extensions/ERC20Burnable.sol\";\nimport \"@openzeppelin/contracts/access/AccessControl.sol\";\n\n/**\n * @title ChessToken\n * @notice ERC20 token for the Chess platform with controlled minting\n * @dev Uses AccessControl for role-based minting permissions\n *\n * Token Utility:\n * - BONDING: Deposit to play games (skin in the game)\n * - STAKING: Stake to become an arbitrator\n * - CHALLENGE: Deposit to open disputes\n * - GOVERNANCE: Vote on protocol parameters\n */\ncontract ChessToken is ERC20, ERC20Burnable, AccessControl {\n    bytes32 public constant MINTER_ROLE = keccak256(\"MINTER_ROLE\");\n\n    uint256 public constant MAX_SUPPLY = 100_000_000 * 10**18; // 100M tokens\n\n    // Distribution tracking\n    uint256 public playToEarnMinted;     // 40% = 40M\n    uint256 public treasuryMinted;        // 25% = 25M\n    uint256 public teamMinted;            // 15% = 15M\n    uint256 public liquidityMinted;       // 10% = 10M\n    uint256 public communityMinted;       // 10% = 10M\n\n    uint256 public constant PLAY_TO_EARN_CAP = 40_000_000 * 10**18;\n    uint256 public constant TREASURY_CAP = 25_000_000 * 10**18;\n    uint256 public constant TEAM_CAP = 15_000_000 * 10**18;\n    uint256 public constant LIQUIDITY_CAP = 10_000_000 * 10**18;\n    uint256 public constant COMMUNITY_CAP = 10_000_000 * 10**18;\n\n    // Team vesting\n    uint256 public teamVestingStart;\n    uint256 public constant TEAM_VESTING_DURATION = 730 days; // 2 years\n    uint256 public teamVestingClaimed;\n    address public teamWallet;\n\n    event PlayToEarnMinted(address indexed to, uint256 amount);\n    event TreasuryMinted(address indexed to, uint256 amount);\n    event TeamVestingClaimed(address indexed to, uint256 amount);\n    event LiquidityMinted(address indexed to, uint256 amount);\n    event CommunityMinted(address indexed to, uint256 amount);\n\n    constructor(address _teamWallet, address _treasury) ERC20(\"Chess Token\", \"CHESS\") {\n        require(_teamWallet != address(0), \"Invalid team wallet\");\n        require(_treasury != address(0), \"Invalid treasury\");\n\n        _grantRole(DEFAULT_ADMIN_ROLE, msg.sender);\n        _grantRole(MINTER_ROLE, msg.sender);\n\n        teamWallet = _teamWallet;\n        teamVestingStart = block.timestamp;\n\n        // Initial mints for liquidity and community\n        _mintLiquidity(_treasury, LIQUIDITY_CAP);\n        _mintCommunity(_treasury, COMMUNITY_CAP);\n    }\n\n    /**\n     * @notice Mint tokens for play-to-earn rewards\n     * @param to Recipient address\n     * @param amount Amount to mint\n     */\n    function mintPlayToEarn(address to, uint256 amount) external onlyRole(MINTER_ROLE) {\n        require(playToEarnMinted + amount <= PLAY_TO_EARN_CAP, \"Play-to-earn cap exceeded\");\n        playToEarnMinted += amount;\n        _mint(to, amount);\n        emit PlayToEarnMinted(to, amount);\n    }\n\n    /**\n     * @notice Mint tokens to treasury\n     * @param to Recipient address\n     * @param amount Amount to mint\n     */\n    function mintTreasury(address to, uint256 amount) external onlyRole(DEFAULT_ADMIN_ROLE) {\n        require(treasuryMinted + amount <= TREASURY_CAP, \"Treasury cap exceeded\");\n        treasuryMinted += amount;\n        _mint(to, amount);\n        emit TreasuryMinted(to, amount);\n    }\n\n    /**\n     * @notice Claim vested team tokens\n     * @dev Linear vesting over 2 years\n     */\n    function claimTeamVesting() external {\n        require(msg.sender == teamWallet, \"Only team wallet\");\n\n        uint256 elapsed = block.timestamp - teamVestingStart;\n        if (elapsed > TEAM_VESTING_DURATION) {\n            elapsed = TEAM_VESTING_DURATION;\n        }\n\n        uint256 totalVested = (TEAM_CAP * elapsed) / TEAM_VESTING_DURATION;\n        uint256 claimable = totalVested - teamVestingClaimed;\n\n        require(claimable > 0, \"Nothing to claim\");\n\n        teamVestingClaimed += claimable;\n        teamMinted += claimable;\n        _mint(teamWallet, claimable);\n\n        emit TeamVestingClaimed(teamWallet, claimable);\n    }\n\n    /**\n     * @notice Get claimable team vesting amount\n     */\n    function getClaimableTeamVesting() external view returns (uint256) {\n        uint256 elapsed = block.timestamp - teamVestingStart;\n        if (elapsed > TEAM_VESTING_DURATION) {\n            elapsed = TEAM_VESTING_DURATION;\n        }\n\n        uint256 totalVested = (TEAM_CAP * elapsed) / TEAM_VESTING_DURATION;\n        return totalVested - teamVestingClaimed;\n    }\n\n    /**\n     * @notice Update team wallet address\n     * @param newTeamWallet New team wallet address\n     */\n    function setTeamWallet(address newTeamWallet) external {\n        require(msg.sender == teamWallet, \"Only team wallet\");\n        require(newTeamWallet != address(0), \"Invalid address\");\n        teamWallet = newTeamWallet;\n    }\n\n    /**\n     * @notice Add minter role to an address (e.g., BondingManager)\n     * @param minter Address to grant minter role\n     */\n    function addMinter(address minter) external onlyRole(DEFAULT_ADMIN_ROLE) {\n        _grantRole(MINTER_ROLE, minter);\n    }\n\n    /**\n     * @notice Remove minter role from an address\n     * @param minter Address to revoke minter role\n     */\n    function removeMinter(address minter) external onlyRole(DEFAULT_ADMIN_ROLE) {\n        _revokeRole(MINTER_ROLE, minter);\n    }\n\n    // Internal mint functions for initial distribution\n    function _mintLiquidity(address to, uint256 amount) internal {\n        liquidityMinted += amount;\n        _mint(to, amount);\n        emit LiquidityMinted(to, amount);\n    }\n\n    function _mintCommunity(address to, uint256 amount) internal {\n        communityMinted += amount;\n        _mint(to, amount);\n        emit CommunityMinted(to, amount);\n    }\n\n    /**\n     * @notice Get total minted across all categories\n     */\n    function totalMinted() external view returns (uint256) {\n        return playToEarnMinted + treasuryMinted + teamMinted + liquidityMinted + communityMinted;\n    }\n\n    /**\n     * @notice Check remaining mintable for each category\n     */\n    function remainingMintable() external view returns (\n        uint256 playToEarn,\n        uint256 treasury,\n        uint256 team,\n        uint256 liquidity,\n        uint256 community\n    ) {\n        playToEarn = PLAY_TO_EARN_CAP - playToEarnMinted;\n        treasury = TREASURY_CAP - treasuryMinted;\n        team = TEAM_CAP - teamMinted;\n        liquidity = LIQUIDITY_CAP - liquidityMinted;\n        community = COMMUNITY_CAP - communityMinted;\n    }\n}\n",
  "sourcePath": "/Users/jacopo/Documents/solidity/chessgame/ethereum/contracts/Token/ChessToken.sol",
  "compiler": {
    "name": "solc",
    "version": "0.8.20+commit.a1b79de6.Emscripten.clang"
  },
  "schemaVersion": "3.4.16",
  "updatedAt": "2026-01-07T00:14:29.401Z",
  "networkType": "ethereum",
  "devdoc": {
    "details": "Uses AccessControl for role-based minting permissions Token Utility: - BONDING: Deposit to play games (skin in the game) - STAKING: Stake to become an arbitrator - CHALLENGE: Deposit to open disputes - GOVERNANCE: Vote on protocol parameters",
    "errors": {
      "AccessControlBadConfirmation()": [
        {
          "details": "The caller of a function is not the expected one. NOTE: Don't confuse with {AccessControlUnauthorizedAccount}."
        }
      ],
      "AccessControlUnauthorizedAccount(address,bytes32)": [
        {
          "details": "The `account` is missing a role."
        }
      ],
      "ERC20InsufficientAllowance(address,uint256,uint256)": [
        {
          "details": "Indicates a failure with the `spender`s `allowance`. Used in transfers.",
          "params": {
            "allowance": "Amount of tokens a `spender` is allowed to operate with.",
            "needed": "Minimum amount required to perform a transfer.",
            "spender": "Address that may be allowed to operate on tokens without being their owner."
          }
        }
      ],
      "ERC20InsufficientBalance(address,uint256,uint256)": [
        {
          "details": "Indicates an error related to the current `balance` of a `sender`. Used in transfers.",
          "params": {
            "balance": "Current balance for the interacting account.",
            "needed": "Minimum amount required to perform a transfer.",
            "sender": "Address whose tokens are being transferred."
          }
        }
      ],
      "ERC20InvalidApprover(address)": [
        {
          "details": "Indicates a failure with the `approver` of a token to be approved. Used in approvals.",
          "params": {
            "approver": "Address initiating an approval operation."
          }
        }
      ],
      "ERC20InvalidReceiver(address)": [
        {
          "details": "Indicates a failure with the token `receiver`. Used in transfers.",
          "params": {
            "receiver": "Address to which tokens are being transferred."
          }
        }
      ],
      "ERC20InvalidSender(address)": [
        {
          "details": "Indicates a failure with the token `sender`. Used in transfers.",
          "params": {
            "sender": "Address whose tokens are being transferred."
          }
        }
      ],
      "ERC20InvalidSpender(address)": [
        {
          "details": "Indicates a failure with the `spender` to be approved. Used in approvals.",
          "params": {
            "spender": "Address that may be allowed to operate on tokens without being their owner."
          }
        }
      ]
    },
    "events": {
      "Approval(address,address,uint256)": {
        "details": "Emitted when the allowance of a `spender` for an `owner` is set by a call to {approve}. `value` is the new allowance."
      },
      "RoleAdminChanged(bytes32,bytes32,bytes32)": {
        "details": "Emitted when `newAdminRole` is set as ``role``'s admin role, replacing `previousAdminRole` `DEFAULT_ADMIN_ROLE` is the starting admin for all roles, despite {RoleAdminChanged} not being emitted to signal this."
      },
      "RoleGranted(bytes32,address,address)": {
        "details": "Emitted when `account` is granted `role`. `sender` is the account that originated the contract call. This account bears the admin role (for the granted role). Expected in cases where the role was granted using the internal {AccessControl-_grantRole}."
      },
      "RoleRevoked(bytes32,address,address)": {
        "details": "Emitted when `account` is revoked `role`. `sender` is the account that originated the contract call:   - if using `revokeRole`, it is the admin role bearer   - if using `renounceRole`, it is the role bearer (i.e. `account`)"
      },
      "Transfer(address,address,uint256)": {
        "details": "Emitted when `value` tokens are moved from one account (`from`) to another (`to`). Note that `value` may be zero."
      }
    },
    "kind": "dev",
    "methods": {
      "addMinter(address)": {
        "params": {
          "minter": "Address to grant minter role"
        }
      },
      "allowance(address,address)": {
        "details": "Returns the remaining number of tokens that `spender` will be allowed to spend on behalf of `owner` through {transferFrom}. This is zero by default. This value changes when {approve} or {transferFrom} are called."
      },
      "approve(address,uint256)": {
        "details": "See {IERC20-approve}. NOTE: If `value` is the maximum `uint256`, the allowance is not updated on `transferFrom`. This is semantically equivalent to an infinite approval. Requirements: - `spender` cannot be the zero address."
      },
      "balanceOf(address)": {
        "details": "Returns the value of tokens owned by `account`."
      },
      "burn(uint256)": {
        "details": "Destroys a `value` amount of tokens from the caller. See {ERC20-_burn}."
      },
      "burnFrom(address,uint256)": {
        "details": "Destroys a `value` amount of tokens from `account`, deducting from the caller's allowance. See {ERC20-_burn} and {ERC20-allowance}. Requirements: - the caller must have allowance for ``accounts``'s tokens of at least `value`."
      },
      "claimTeamVesting()": {
        "details": "Linear vesting over 2 years"
      },
      "decimals()": {
        "details": "Returns the number of decimals used to get its user representation. For example, if `decimals` equals `2`, a balance of `505` tokens should be displayed to a user as `5.05` (`505 / 10 ** 2`). Tokens usually opt for a value of 18, imitating the relationship between Ether and Wei. This is the default value returned by this function, unless it's overridden. NOTE: This information is only used for _display_ purposes: it in no way affects any of the arithmetic of the contract, including {IERC20-balanceOf} and {IERC20-transfer}."
      },
      "getRoleAdmin(bytes32)": {
        "details": "Returns the admin role that controls `role`. See {grantRole} and {revokeRole}. To change a role's admin, use {_setRoleAdmin}."
      },
      "grantRole(bytes32,address)": {
        "details": "Grants `role` to `account`. If `account` had not been already granted `role`, emits a {RoleGranted} event. Requirements: - the caller must have ``role``'s admin role. May emit a {RoleGranted} event."
      },
      "hasRole(bytes32,address)": {
        "details": "Returns `true` if `account` has been granted `role`."
      },
      "mintPlayToEarn(address,uint256)": {
        "params": {
          "amount": "Amount to mint",
          "to": "Recipient address"
        }
      },
      "mintTreasury(address,uint256)": {
        "params": {
          "amount": "Amount to mint",
          "to": "Recipient address"
        }
      },
      "name()": {
        "details": "Returns the name of the token."
      },
      "removeMinter(address)": {
        "params": {
          "minter": "Address to revoke minter role"
        }
      },
      "renounceRole(bytes32,address)": {
        "details": "Revokes `role` from the calling account. Roles are often managed via {grantRole} and {revokeRole}: this function's purpose is to provide a mechanism for accounts to lose their privileges if they are compromised (such as when a trusted device is misplaced). If the calling account had been revoked `role`, emits a {RoleRevoked} event. Requirements: - the caller must be `callerConfirmation`. May emit a {RoleRevoked} event."
      },
      "revokeRole(bytes32,address)": {
        "details": "Revokes `role` from `account`. If `account` had been granted `role`, emits a {RoleRevoked} event. Requirements: - the caller must have ``role``'s admin role. May emit a {RoleRevoked} event."
      },
      "setTeamWallet(address)": {
        "params": {
          "newTeamWallet": "New team wallet address"
        }
      },
      "supportsInterface(bytes4)": {
        "details": "Returns true if this contract implements the interface defined by `interfaceId`. See the corresponding https://eips.ethereum.org/EIPS/eip-165#how-interfaces-are-identified[ERC section] to learn more about how these ids are created. This function call must use less than 30 000 gas."
      },
      "symbol()": {
        "details": "Returns the symbol of the token, usually a shorter version of the name."
      },
      "totalSupply()": {
        "details": "Returns the value of tokens in existence."
      },
      "transfer(address,uint256)": {
        "details": "See {IERC20-transfer}. Requirements: - `to` cannot be the zero address. - the caller must have a balance of at least `value`."
      },
      "transferFrom(address,address,uint256)": {
        "details": "See {IERC20-transferFrom}. Skips emitting an {Approval} event indicating an allowance update. This is not required by the ERC. See {xref-ERC20-_approve-address-address-uint256-bool-}[_approve]. NOTE: Does not update the allowance if the current allowance is the maximum `uint256`. Requirements: - `from` and `to` cannot be the zero address. - `from` must have a balance of at least `value`. - the caller must have allowance for ``from``'s tokens of at least `value`."
      }
    },
    "title": "ChessToken",
    "version": 1
  },
  "userdoc": {
    "kind": "user",
    "methods": {
      "addMinter(address)": {
        "notice": "Add minter role to an address (e.g., BondingManager)"
      },
      "claimTeamVesting()": {
        "notice": "Claim vested team tokens"
      },
      "getClaimableTeamVesting()": {
        "notice": "Get claimable team vesting amount"
      },
      "mintPlayToEarn(address,uint256)": {
        "notice": "Mint tokens for play-to-earn rewards"
      },
      "mintTreasury(address,uint256)": {
        "notice": "Mint tokens to treasury"
      },
      "remainingMintable()": {
        "notice": "Check remaining mintable for each category"
      },
      "removeMinter(address)": {
        "notice": "Remove minter role from an address"
      },
      "setTeamWallet(address)": {
        "notice": "Update team wallet address"
      },
      "totalMinted()": {
        "notice": "Get total minted across all categories"
      }
    },
    "notice": "ERC20 token for the Chess platform with controlled minting",
    "version": 1
  }
}