{
  "contractName": "ChessNFT",
  "abi": [
    {
      "inputs": [
        {
          "internalType": "address",
          "name": "_initialOwner",
          "type": "address"
        }
      ],
      "stateMutability": "nonpayable",
      "type": "constructor"
    },
    {
      "inputs": [],
      "name": "ERC721EnumerableForbiddenBatchMint",
      "type": "error"
    },
    {
      "inputs": [
        {
          "internalType": "address",
          "name": "sender",
          "type": "address"
        },
        {
          "internalType": "uint256",
          "name": "tokenId",
          "type": "uint256"
        },
        {
          "internalType": "address",
          "name": "owner",
          "type": "address"
        }
      ],
      "name": "ERC721IncorrectOwner",
      "type": "error"
    },
    {
      "inputs": [
        {
          "internalType": "address",
          "name": "operator",
          "type": "address"
        },
        {
          "internalType": "uint256",
          "name": "tokenId",
          "type": "uint256"
        }
      ],
      "name": "ERC721InsufficientApproval",
      "type": "error"
    },
    {
      "inputs": [
        {
          "internalType": "address",
          "name": "approver",
          "type": "address"
        }
      ],
      "name": "ERC721InvalidApprover",
      "type": "error"
    },
    {
      "inputs": [
        {
          "internalType": "address",
          "name": "operator",
          "type": "address"
        }
      ],
      "name": "ERC721InvalidOperator",
      "type": "error"
    },
    {
      "inputs": [
        {
          "internalType": "address",
          "name": "owner",
          "type": "address"
        }
      ],
      "name": "ERC721InvalidOwner",
      "type": "error"
    },
    {
      "inputs": [
        {
          "internalType": "address",
          "name": "receiver",
          "type": "address"
        }
      ],
      "name": "ERC721InvalidReceiver",
      "type": "error"
    },
    {
      "inputs": [
        {
          "internalType": "address",
          "name": "sender",
          "type": "address"
        }
      ],
      "name": "ERC721InvalidSender",
      "type": "error"
    },
    {
      "inputs": [
        {
          "internalType": "uint256",
          "name": "tokenId",
          "type": "uint256"
        }
      ],
      "name": "ERC721NonexistentToken",
      "type": "error"
    },
    {
      "inputs": [
        {
          "internalType": "address",
          "name": "owner",
          "type": "address"
        },
        {
          "internalType": "uint256",
          "name": "index",
          "type": "uint256"
        }
      ],
      "name": "ERC721OutOfBoundsIndex",
      "type": "error"
    },
    {
      "inputs": [
        {
          "internalType": "address",
          "name": "owner",
          "type": "address"
        }
      ],
      "name": "OwnableInvalidOwner",
      "type": "error"
    },
    {
      "inputs": [
        {
          "internalType": "address",
          "name": "account",
          "type": "address"
        }
      ],
      "name": "OwnableUnauthorizedAccount",
      "type": "error"
    },
    {
      "anonymous": false,
      "inputs": [
        {
          "indexed": true,
          "internalType": "address",
          "name": "owner",
          "type": "address"
        },
        {
          "indexed": true,
          "internalType": "address",
          "name": "approved",
          "type": "address"
        },
        {
          "indexed": true,
          "internalType": "uint256",
          "name": "tokenId",
          "type": "uint256"
        }
      ],
      "name": "Approval",
      "type": "event"
    },
    {
      "anonymous": false,
      "inputs": [
        {
          "indexed": true,
          "internalType": "address",
          "name": "owner",
          "type": "address"
        },
        {
          "indexed": true,
          "internalType": "address",
          "name": "operator",
          "type": "address"
        },
        {
          "indexed": false,
          "internalType": "bool",
          "name": "approved",
          "type": "bool"
        }
      ],
      "name": "ApprovalForAll",
      "type": "event"
    },
    {
      "anonymous": false,
      "inputs": [
        {
          "indexed": true,
          "internalType": "address",
          "name": "previousOwner",
          "type": "address"
        },
        {
          "indexed": true,
          "internalType": "address",
          "name": "newOwner",
          "type": "address"
        }
      ],
      "name": "OwnershipTransferred",
      "type": "event"
    },
    {
      "anonymous": false,
      "inputs": [
        {
          "indexed": true,
          "internalType": "address",
          "name": "from",
          "type": "address"
        },
        {
          "indexed": true,
          "internalType": "address",
          "name": "to",
          "type": "address"
        },
        {
          "indexed": true,
          "internalType": "uint256",
          "name": "tokenId",
          "type": "uint256"
        }
      ],
      "name": "Transfer",
      "type": "event"
    },
    {
      "inputs": [
        {
          "internalType": "address",
          "name": "to",
          "type": "address"
        },
        {
          "internalType": "uint256",
          "name": "tokenId",
          "type": "uint256"
        }
      ],
      "name": "approve",
      "outputs": [],
      "stateMutability": "nonpayable",
      "type": "function"
    },
    {
      "inputs": [
        {
          "internalType": "address",
          "name": "owner",
          "type": "address"
        }
      ],
      "name": "balanceOf",
      "outputs": [
        {
          "internalType": "uint256",
          "name": "",
          "type": "uint256"
        }
      ],
      "stateMutability": "view",
      "type": "function"
    },
    {
      "inputs": [],
      "name": "factory",
      "outputs": [
        {
          "internalType": "address",
          "name": "",
          "type": "address"
        }
      ],
      "stateMutability": "view",
      "type": "function"
    },
    {
      "inputs": [
        {
          "internalType": "uint256",
          "name": "",
          "type": "uint256"
        }
      ],
      "name": "gameAddresses",
      "outputs": [
        {
          "internalType": "address",
          "name": "",
          "type": "address"
        }
      ],
      "stateMutability": "view",
      "type": "function"
    },
    {
      "inputs": [
        {
          "internalType": "uint256",
          "name": "",
          "type": "uint256"
        }
      ],
      "name": "gameNFTs",
      "outputs": [
        {
          "internalType": "address",
          "name": "",
          "type": "address"
        }
      ],
      "stateMutability": "view",
      "type": "function"
    },
    {
      "inputs": [
        {
          "internalType": "uint256",
          "name": "tokenId",
          "type": "uint256"
        }
      ],
      "name": "getApproved",
      "outputs": [
        {
          "internalType": "address",
          "name": "",
          "type": "address"
        }
      ],
      "stateMutability": "view",
      "type": "function"
    },
    {
      "inputs": [
        {
          "internalType": "address",
          "name": "owner",
          "type": "address"
        },
        {
          "internalType": "address",
          "name": "operator",
          "type": "address"
        }
      ],
      "name": "isApprovedForAll",
      "outputs": [
        {
          "internalType": "bool",
          "name": "",
          "type": "bool"
        }
      ],
      "stateMutability": "view",
      "type": "function"
    },
    {
      "inputs": [],
      "name": "name",
      "outputs": [
        {
          "internalType": "string",
          "name": "",
          "type": "string"
        }
      ],
      "stateMutability": "view",
      "type": "function"
    },
    {
      "inputs": [],
      "name": "owner",
      "outputs": [
        {
          "internalType": "address",
          "name": "",
          "type": "address"
        }
      ],
      "stateMutability": "view",
      "type": "function"
    },
    {
      "inputs": [
        {
          "internalType": "uint256",
          "name": "tokenId",
          "type": "uint256"
        }
      ],
      "name": "ownerOf",
      "outputs": [
        {
          "internalType": "address",
          "name": "",
          "type": "address"
        }
      ],
      "stateMutability": "view",
      "type": "function"
    },
    {
      "inputs": [],
      "name": "renounceOwnership",
      "outputs": [],
      "stateMutability": "nonpayable",
      "type": "function"
    },
    {
      "inputs": [
        {
          "internalType": "address",
          "name": "from",
          "type": "address"
        },
        {
          "internalType": "address",
          "name": "to",
          "type": "address"
        },
        {
          "internalType": "uint256",
          "name": "tokenId",
          "type": "uint256"
        }
      ],
      "name": "safeTransferFrom",
      "outputs": [],
      "stateMutability": "nonpayable",
      "type": "function"
    },
    {
      "inputs": [
        {
          "internalType": "address",
          "name": "from",
          "type": "address"
        },
        {
          "internalType": "address",
          "name": "to",
          "type": "address"
        },
        {
          "internalType": "uint256",
          "name": "tokenId",
          "type": "uint256"
        },
        {
          "internalType": "bytes",
          "name": "data",
          "type": "bytes"
        }
      ],
      "name": "safeTransferFrom",
      "outputs": [],
      "stateMutability": "nonpayable",
      "type": "function"
    },
    {
      "inputs": [
        {
          "internalType": "address",
          "name": "operator",
          "type": "address"
        },
        {
          "internalType": "bool",
          "name": "approved",
          "type": "bool"
        }
      ],
      "name": "setApprovalForAll",
      "outputs": [],
      "stateMutability": "nonpayable",
      "type": "function"
    },
    {
      "inputs": [
        {
          "internalType": "bytes4",
          "name": "interfaceId",
          "type": "bytes4"
        }
      ],
      "name": "supportsInterface",
      "outputs": [
        {
          "internalType": "bool",
          "name": "",
          "type": "bool"
        }
      ],
      "stateMutability": "view",
      "type": "function"
    },
    {
      "inputs": [],
      "name": "symbol",
      "outputs": [
        {
          "internalType": "string",
          "name": "",
          "type": "string"
        }
      ],
      "stateMutability": "view",
      "type": "function"
    },
    {
      "inputs": [
        {
          "internalType": "uint256",
          "name": "index",
          "type": "uint256"
        }
      ],
      "name": "tokenByIndex",
      "outputs": [
        {
          "internalType": "uint256",
          "name": "",
          "type": "uint256"
        }
      ],
      "stateMutability": "view",
      "type": "function"
    },
    {
      "inputs": [
        {
          "internalType": "address",
          "name": "owner",
          "type": "address"
        },
        {
          "internalType": "uint256",
          "name": "index",
          "type": "uint256"
        }
      ],
      "name": "tokenOfOwnerByIndex",
      "outputs": [
        {
          "internalType": "uint256",
          "name": "",
          "type": "uint256"
        }
      ],
      "stateMutability": "view",
      "type": "function"
    },
    {
      "inputs": [],
      "name": "totalSupply",
      "outputs": [
        {
          "internalType": "uint256",
          "name": "",
          "type": "uint256"
        }
      ],
      "stateMutability": "view",
      "type": "function"
    },
    {
      "inputs": [
        {
          "internalType": "address",
          "name": "from",
          "type": "address"
        },
        {
          "internalType": "address",
          "name": "to",
          "type": "address"
        },
        {
          "internalType": "uint256",
          "name": "tokenId",
          "type": "uint256"
        }
      ],
      "name": "transferFrom",
      "outputs": [],
      "stateMutability": "nonpayable",
      "type": "function"
    },
    {
      "inputs": [
        {
          "internalType": "address",
          "name": "newOwner",
          "type": "address"
        }
      ],
      "name": "transferOwnership",
      "outputs": [],
      "stateMutability": "nonpayable",
      "type": "function"
    },
    {
      "inputs": [
        {
          "internalType": "uint256",
          "name": "_tokenId",
          "type": "uint256"
        }
      ],
      "name": "tokenURI",
      "outputs": [
        {
          "internalType": "string",
          "name": "",
          "type": "string"
        }
      ],
      "stateMutability": "view",
      "type": "function"
    },
    {
      "inputs": [
        {
          "internalType": "uint256",
          "name": "gameId",
          "type": "uint256"
        },
        {
          "internalType": "address",
          "name": "_chessCoreAddress",
          "type": "address"
        },
        {
          "internalType": "address",
          "name": "_whitePlayer",
          "type": "address"
        }
      ],
      "name": "createGameNFT",
      "outputs": [],
      "stateMutability": "nonpayable",
      "type": "function"
    }
  ],
  "bytecode": "0x60a034620003c257601f906001600160401b0390601f1990620016d9388190038581018416830185811184821017620003ae57839282916040528339602092839181010312620003c257516001600160a01b03948582169491859003620003c2576200006a620003c6565b92600884526710da195cdcd3919560c21b8185015262000089620003c6565b906005825264436865737360d81b81830152845195848711620003ae575f968754966001978881811c91168015620003a3575b858210146200038f579081878493116200033c575b508490878311600114620002dc578a92620002d0575b50505f19600383901b1c191690871b1787555b8251948511620002bc5785548681811c91168015620002b1575b838210146200029d5790818587969594931162000244575b5081938511600114620001e05750508592620001d4575b50505f19600383901b1c191690821b1790555b8115620001bc57600a80546001600160a01b0319811684179091556040519316907f8be0079c531659141344cd1fd0a4f28419497f9722a3daafe3b4186f6b6457e09080a3336080526112f29081620003e782396080518181816102e901526105820152f35b60249060405190631e4fbdf760e01b82526004820152fd5b015190505f8062000143565b869593929193168588528388209388905b8282106200022a575050841162000211575b505050811b01905562000156565b01515f1960f88460031b161c191690555f808062000203565b8484015186558897909501949384019390810190620001f1565b9091929394508688528288208580880160051c82019285891062000293575b9188978a9297969594930160051c01915b828110620002845750506200012c565b8a815588975089910162000274565b9250819262000263565b634e487b7160e01b88526022600452602488fd5b90607f169062000114565b634e487b7160e01b87526041600452602487fd5b015190505f80620000e7565b90848a9416918b8052868c20928c5b888282106200032557505084116200030c575b505050811b018755620000fa565b01515f1960f88460031b161c191690555f8080620002fe565b8385015186558d97909501949384019301620002eb565b909150898052848a208780850160051c82019287861062000385575b918b91869594930160051c01915b82811062000376575050620000d1565b8c81558594508b910162000366565b9250819262000358565b634e487b7160e01b8a52602260045260248afd5b90607f1690620000bc565b634e487b7160e01b5f52604160045260245ffd5b5f80fd5b60408051919082016001600160401b03811183821017620003ae5760405256fe6080806040526004361015610012575f80fd5b5f3560e01c90816301ffc9a714610c225750806306fdde0314610b84578063081812fc14610b48578063095ea7b314610a6757806313ec0eb714610a2557806318160ddd14610a0857806323b872dd146109f15780632f745c591461097c57806342842e0e146109425780634f6ccce7146108ed578063562d60b7146108bb5780636352211e1461088b57806370a0823114610860578063715018a6146108185780638cced9a6146105525780638da5cb5b1461052a57806395d89b4114610442578063a22cb465146103a1578063b88d4fde14610318578063c45a0155146102d4578063c87b56dd146101e2578063e985e9c5146101905763f2fde38b14610119575f80fd5b3461018c57602036600319011261018c57610132610ced565b61013a610dd0565b6001600160a01b0390811690811561017457600a80546001600160a01b031981168417909155165f8051602061127d8339815191525f80a3005b604051631e4fbdf760e01b81525f6004820152602490fd5b5f80fd5b3461018c57604036600319011261018c576101a9610ced565b6101b1610d03565b9060018060a01b038091165f52600560205260405f2091165f52602052602060ff60405f2054166040519015158152f35b3461018c5760208060031936011261018c575f90610201600435610d19565b905460405163042bc8db60e11b815293918491600491839160039190911b1c6001600160a01b03165afa9182156102c9575f92610252575b5061024e604051928284938452830190610cc8565b0390f35b9091503d805f833e6102648183610d92565b810190828183031261018c578051906001600160401b03821161018c570181601f8201121561018c57805161029881610db5565b926102a66040519485610d92565b81845284828401011161018c576102c291848085019101610ca7565b9082610239565b6040513d5f823e3d90fd5b3461018c575f36600319011261018c576040517f00000000000000000000000000000000000000000000000000000000000000006001600160a01b03168152602090f35b3461018c57608036600319011261018c57610331610ced565b610339610d03565b606435916001600160401b03831161018c573660238401121561018c5782600401359161036583610db5565b926103736040519485610d92565b808452366024828701011161018c576020815f92602461039f98018388013785010152604435916110a0565b005b3461018c57604036600319011261018c576103ba610ced565b6024359081151580920361018c576001600160a01b031690811561042957335f52600560205260405f20825f5260205260405f2060ff1981541660ff83161790556040519081527f17307eab39ab6107e8899845ad3d59bd9653f200f220920489ca2b5937696c3160203392a3005b604051630b61174360e31b815260048101839052602490fd5b3461018c575f36600319011261018c576040515f60019081549182811c91818416918215610520575b602094858510841461050c5785879486865291825f146104ec5750506001146104b0575b5061049c92500383610d92565b61024e604051928284938452830190610cc8565b849150805f52815f20905f915b8583106104d457505061049c93508201018561048f565b805483890185015287945086939092019181016104bd565b60ff19168582015261049c95151560051b850101925087915061048f9050565b634e487b7160e01b5f52602260045260245ffd5b92607f169261046b565b3461018c575f36600319011261018c57600a546040516001600160a01b039091168152602090f35b3461018c57606036600319011261018c5761056b610d03565b6001600160a01b03604435808216900361018c57807f000000000000000000000000000000000000000000000000000000000000000016330361018c576004355f52600b6020528060405f20541661018c57600c54600160401b811015610748578060016105dc9201600c55610d19565b81549060031b9083808616831b921b1916179055806044351615610800576004355f5260026020528060405f205416806107dd575b60443582165f818152600360209081526040808320805460010190556004358084526002909252822080546001600160a01b03191684179055919083905f8051602061129d8339815191529080a48061075c576008546004355f5260096020528060405f2055600160401b8110156107485761069681600161069f9301600855610d45565b60043591611265565b816044351681036106ec575b6106d4576004355f908152600b6020526040902080546001600160a01b03191691909216179055005b6040516339e3563760e11b81525f6004820152602490fd5b6106f7604435610dfc565b5f1981019081116107345782604435165f52600660205260405f20815f5260205260043560405f20556004355f52600760205260405f20556106ab565b634e487b7160e01b5f52601160045260245ffd5b634e487b7160e01b5f52604160045260245ffd5b6044358216811461069f5761077081610dfc565b6004355f52600760205260405f205490825f52600660205260405f20918181036107b6575b506004355f5260076020525f60408120555f526020525f604081205561069f565b815f528260205260405f2054815f528060405f20555f52600760205260405f205585610795565b6107e86004356111f3565b805f52600360205260405f205f198154019055610611565b604051633250574960e11b81525f6004820152602490fd5b3461018c575f36600319011261018c57610830610dd0565b600a80546001600160a01b031981169091555f906001600160a01b03165f8051602061127d8339815191528280a3005b3461018c57602036600319011261018c57602061088361087e610ced565b610dfc565b604051908152f35b3461018c57602036600319011261018c5760206108a9600435611210565b6040516001600160a01b039091168152f35b3461018c57602036600319011261018c576004355f52600b602052602060018060a01b0360405f205416604051908152f35b3461018c57602036600319011261018c5760043560085481101561092457610916602091610d45565b90546040519160031b1c8152f35b6044906040519063295f44f760e21b82525f60048301526024820152fd5b3461018c5761095036610d5d565b60405160208101939092906001600160401b038511848610176107485761039f946040525f84526110a0565b3461018c57604036600319011261018c57610995610ced565b602435906109a281610dfc565b8210156109d15760018060a01b03165f52600660205260405f20905f52602052602060405f2054604051908152f35b6109ed60405192839263295f44f760e21b84526004840161124a565b0390fd5b3461018c5761039f610a0236610d5d565b91610e32565b3461018c575f36600319011261018c576020600854604051908152f35b3461018c57602036600319011261018c57600435600c5481101561018c57610a4e602091610d19565b905460405160039290921b1c6001600160a01b03168152f35b3461018c57604036600319011261018c57610a80610ced565b602435610a8c81611210565b33151580610b35575b80610b0c575b610af4576001600160a01b039283169282918491167f8c5be1e5ebec7d5bd14f71427d1e84f3dd0314c0f7b2291e5b200ac8c7c3b9255f80a45f90815260046020526040902080546001600160a01b0319169091179055005b60405163a9fbf51f60e01b8152336004820152602490fd5b5060018060a01b0381165f52600560205260405f20335f5260205260ff60405f20541615610a9b565b506001600160a01b038116331415610a95565b3461018c57602036600319011261018c57600435610b6581611210565b505f526004602052602060018060a01b0360405f205416604051908152f35b3461018c575f36600319011261018c576040515f805490600182811c91818416918215610c18575b602094858510841461050c5785879486865291825f146104ec575050600114610bdc575061049c92500383610d92565b8491505f8052815f20905f915b858310610c0057505061049c93508201018561048f565b80548389018501528794508693909201918101610be9565b92607f1692610bac565b3461018c57602036600319011261018c576004359063ffffffff60e01b821680920361018c5760209163780e9d6360e01b8114908115610c64575b5015158152f35b6380ac58cd60e01b811491508115610c96575b8115610c85575b5083610c5d565b6301ffc9a760e01b14905083610c7e565b635b5e139f60e01b81149150610c77565b5f5b838110610cb85750505f910152565b8181015183820152602001610ca9565b90602091610ce181518092818552858086019101610ca7565b601f01601f1916010190565b600435906001600160a01b038216820361018c57565b602435906001600160a01b038216820361018c57565b600c54811015610d3157600c5f5260205f2001905f90565b634e487b7160e01b5f52603260045260245ffd5b600854811015610d315760085f5260205f2001905f90565b606090600319011261018c576001600160a01b0390600435828116810361018c5791602435908116810361018c579060443590565b601f909101601f19168101906001600160401b0382119082101761074857604052565b6001600160401b03811161074857601f01601f191660200190565b600a546001600160a01b03163303610de457565b60405163118cdaa760e01b8152336004820152602490fd5b6001600160a01b03168015610e1a575f52600360205260405f205490565b6040516322718ad960e21b81525f6004820152602490fd5b6001600160a01b0382811693918415610800575f94838652602095600287526040968488832054169633151580611014575b5087158015610ff5575b84845260038352898420805460010190558784526002835289842080546001600160a01b0319168617905587858a5f8051602061129d8339815191528780a415610f895760085487845260098352898420819055600160401b811015610f755787610ee2826001610ee89401600855610d45565b90611265565b838803610f24575b505050501692838303610f035750505050565b6064945051926364283d7b60e01b8452600484015260248301526044820152fd5b610f2d90610dfc565b5f19810193908411610f615782916007918a945260068152838320858452815287848420558783525220555f808080610ef0565b634e487b7160e01b83526011600452602483fd5b634e487b7160e01b84526041600452602484fd5b878414610ee857610f9988610dfc565b878452600783528984205490898552600684528a852091818103610fd3575b5088855260078452848b812055845282528289812055610ee8565b8186528285528b862054818752808d8820558652600785528b8620555f610fb8565b610ffe886111f3565b8884526003835289842080545f19019055610e6e565b8061105f575b15611025575f610e64565b888789611042576024915190637e27328960e01b82526004820152fd5b905163177e802f60e01b81529081906109ed90336004840161124a565b503388148015611084575b8061101a57508683526004825233868a852054161461101a565b5087835260058252888320338452825260ff898420541661106a565b9290926110ae838583610e32565b833b6110bb575b50505050565b604051630a85bd0160e11b8082523360048301526001600160a01b0392831660248301526044820194909452608060648201529493169260209290918590611107906084830190610cc8565b039483815f978189895af18691816111af575b5061117a575050503d5f14611171573d61113381610db5565b906111416040519283610d92565b81528093823d92013e5b8251928361116c57604051633250574960e11b815260048101849052602490fd5b019050fd5b6060925061114b565b919450915063ffffffff60e01b160361119757505f8080806110b5565b60249060405190633250574960e11b82526004820152fd5b9091508481813d83116111ec575b6111c78183610d92565b810103126111e857516001600160e01b0319811681036111e857905f61111a565b8680fd5b503d6111bd565b5f90815260046020526040902080546001600160a01b0319169055565b5f818152600260205260409020546001600160a01b0316908115611232575090565b60249060405190637e27328960e01b82526004820152fd5b6001600160a01b039091168152602081019190915260400190565b919082549060031b91821b915f19901b191617905556fe8be0079c531659141344cd1fd0a4f28419497f9722a3daafe3b4186f6b6457e0ddf252ad1be2c89b69c2b068fc378daa952ba7f163c4a11628f55a4df523b3efa2646970667358221220ffaeca3db1819dc75ddc7aa644955702d8c1dbdb262b29d16e0e0e4f8f81129b64736f6c63430008140033",
  "immutableReferences": {
    "13614": [
      {
        "length": 32,
        "start": 745
      },
      {
        "length": 32,
        "start": 1410
      }
    ]
  },
  "source": "// SPDX-License-Identifier: MIT\npragma solidity ^0.8.20;\nimport \"@openzeppelin/contracts/token/ERC721/extensions/ERC721Enumerable.sol\";\nimport \"@openzeppelin/contracts/access/Ownable.sol\";\n\nimport \"./ChessMediaLibrary.sol\";\n\ninterface IChessCore {\n    function printChessBoardLayoutSVG() external view returns (string memory);\n}\n    \ncontract ChessNFT is ERC721Enumerable, Ownable {\n    using ChessMediaLibrary for uint8[8][8];\n    mapping(uint256 => address) public gameNFTs;\n    address[] public gameAddresses;\n    address public immutable factory;\n\n    modifier onlyFactory() {\n        require(msg.sender == factory, \"Only factory can mint NFTs\");\n        _;\n    }\n\n    constructor(address _initialOwner) ERC721(\"ChessNFT\", \"Chess\") Ownable(_initialOwner) {\n        factory = msg.sender; // ChessFactory is the deployer\n    }\n    \n    function tokenURI(uint256 _tokenId) public view virtual override returns (string memory) {\n        address gameAddress = gameAddresses[_tokenId];\n        IChessCore c = IChessCore(gameAddress);\n        return c.printChessBoardLayoutSVG();\n    }\n\n    function createGameNFT(uint256 gameId, address _chessCoreAddress, address _whitePlayer) external onlyFactory {\n        require(gameNFTs[gameId] == address(0), \"NFT for the game already exists\");\n        gameAddresses.push(_chessCoreAddress);\n        _mint(_whitePlayer, gameId);\n        gameNFTs[gameId] = _chessCoreAddress;\n    }\n\n}",
  "sourcePath": "/Users/jacopo/Documents/solidity/chessgame/ethereum/contracts/Chess/ChessNFT.sol",
  "compiler": {
    "name": "solc",
    "version": "0.8.20+commit.a1b79de6.Emscripten.clang"
  },
  "schemaVersion": "3.4.16",
  "updatedAt": "2025-12-31T02:14:15.720Z",
  "networkType": "ethereum",
  "devdoc": {
    "errors": {
      "ERC721EnumerableForbiddenBatchMint()": [
        {
          "details": "Batch mint is not allowed."
        }
      ],
      "ERC721IncorrectOwner(address,uint256,address)": [
        {
          "details": "Indicates an error related to the ownership over a particular token. Used in transfers.",
          "params": {
            "owner": "Address of the current owner of a token.",
            "sender": "Address whose tokens are being transferred.",
            "tokenId": "Identifier number of a token."
          }
        }
      ],
      "ERC721InsufficientApproval(address,uint256)": [
        {
          "details": "Indicates a failure with the `operator`s approval. Used in transfers.",
          "params": {
            "operator": "Address that may be allowed to operate on tokens without being their owner.",
            "tokenId": "Identifier number of a token."
          }
        }
      ],
      "ERC721InvalidApprover(address)": [
        {
          "details": "Indicates a failure with the `approver` of a token to be approved. Used in approvals.",
          "params": {
            "approver": "Address initiating an approval operation."
          }
        }
      ],
      "ERC721InvalidOperator(address)": [
        {
          "details": "Indicates a failure with the `operator` to be approved. Used in approvals.",
          "params": {
            "operator": "Address that may be allowed to operate on tokens without being their owner."
          }
        }
      ],
      "ERC721InvalidOwner(address)": [
        {
          "details": "Indicates that an address can't be an owner. For example, `address(0)` is a forbidden owner in ERC-20. Used in balance queries.",
          "params": {
            "owner": "Address of the current owner of a token."
          }
        }
      ],
      "ERC721InvalidReceiver(address)": [
        {
          "details": "Indicates a failure with the token `receiver`. Used in transfers.",
          "params": {
            "receiver": "Address to which tokens are being transferred."
          }
        }
      ],
      "ERC721InvalidSender(address)": [
        {
          "details": "Indicates a failure with the token `sender`. Used in transfers.",
          "params": {
            "sender": "Address whose tokens are being transferred."
          }
        }
      ],
      "ERC721NonexistentToken(uint256)": [
        {
          "details": "Indicates a `tokenId` whose `owner` is the zero address.",
          "params": {
            "tokenId": "Identifier number of a token."
          }
        }
      ],
      "ERC721OutOfBoundsIndex(address,uint256)": [
        {
          "details": "An `owner`'s token query was out of bounds for `index`. NOTE: The owner being `address(0)` indicates a global out of bounds index."
        }
      ],
      "OwnableInvalidOwner(address)": [
        {
          "details": "The owner is not a valid owner account. (eg. `address(0)`)"
        }
      ],
      "OwnableUnauthorizedAccount(address)": [
        {
          "details": "The caller account is not authorized to perform an operation."
        }
      ]
    },
    "events": {
      "Approval(address,address,uint256)": {
        "details": "Emitted when `owner` enables `approved` to manage the `tokenId` token."
      },
      "ApprovalForAll(address,address,bool)": {
        "details": "Emitted when `owner` enables or disables (`approved`) `operator` to manage all of its assets."
      },
      "Transfer(address,address,uint256)": {
        "details": "Emitted when `tokenId` token is transferred from `from` to `to`."
      }
    },
    "kind": "dev",
    "methods": {
      "approve(address,uint256)": {
        "details": "Gives permission to `to` to transfer `tokenId` token to another account. The approval is cleared when the token is transferred. Only a single account can be approved at a time, so approving the zero address clears previous approvals. Requirements: - The caller must own the token or be an approved operator. - `tokenId` must exist. Emits an {Approval} event."
      },
      "balanceOf(address)": {
        "details": "Returns the number of tokens in ``owner``'s account."
      },
      "getApproved(uint256)": {
        "details": "Returns the account approved for `tokenId` token. Requirements: - `tokenId` must exist."
      },
      "isApprovedForAll(address,address)": {
        "details": "Returns if the `operator` is allowed to manage all of the assets of `owner`. See {setApprovalForAll}"
      },
      "name()": {
        "details": "Returns the token collection name."
      },
      "owner()": {
        "details": "Returns the address of the current owner."
      },
      "ownerOf(uint256)": {
        "details": "Returns the owner of the `tokenId` token. Requirements: - `tokenId` must exist."
      },
      "renounceOwnership()": {
        "details": "Leaves the contract without owner. It will not be possible to call `onlyOwner` functions. Can only be called by the current owner. NOTE: Renouncing ownership will leave the contract without an owner, thereby disabling any functionality that is only available to the owner."
      },
      "safeTransferFrom(address,address,uint256)": {
        "details": "Safely transfers `tokenId` token from `from` to `to`, checking first that contract recipients are aware of the ERC-721 protocol to prevent tokens from being forever locked. Requirements: - `from` cannot be the zero address. - `to` cannot be the zero address. - `tokenId` token must exist and be owned by `from`. - If the caller is not `from`, it must have been allowed to move this token by either {approve} or   {setApprovalForAll}. - If `to` refers to a smart contract, it must implement {IERC721Receiver-onERC721Received}, which is called upon   a safe transfer. Emits a {Transfer} event."
      },
      "safeTransferFrom(address,address,uint256,bytes)": {
        "details": "Safely transfers `tokenId` token from `from` to `to`. Requirements: - `from` cannot be the zero address. - `to` cannot be the zero address. - `tokenId` token must exist and be owned by `from`. - If the caller is not `from`, it must be approved to move this token by either {approve} or {setApprovalForAll}. - If `to` refers to a smart contract, it must implement {IERC721Receiver-onERC721Received}, which is called upon   a safe transfer. Emits a {Transfer} event."
      },
      "setApprovalForAll(address,bool)": {
        "details": "Approve or remove `operator` as an operator for the caller. Operators can call {transferFrom} or {safeTransferFrom} for any token owned by the caller. Requirements: - The `operator` cannot be the address zero. Emits an {ApprovalForAll} event."
      },
      "supportsInterface(bytes4)": {
        "details": "Returns true if this contract implements the interface defined by `interfaceId`. See the corresponding https://eips.ethereum.org/EIPS/eip-165#how-interfaces-are-identified[ERC section] to learn more about how these ids are created. This function call must use less than 30 000 gas."
      },
      "symbol()": {
        "details": "Returns the token collection symbol."
      },
      "tokenByIndex(uint256)": {
        "details": "Returns a token ID at a given `index` of all the tokens stored by the contract. Use along with {totalSupply} to enumerate all tokens."
      },
      "tokenOfOwnerByIndex(address,uint256)": {
        "details": "Returns a token ID owned by `owner` at a given `index` of its token list. Use along with {balanceOf} to enumerate all of ``owner``'s tokens."
      },
      "totalSupply()": {
        "details": "Returns the total amount of tokens stored by the contract."
      },
      "transferFrom(address,address,uint256)": {
        "details": "Transfers `tokenId` token from `from` to `to`. WARNING: Note that the caller is responsible to confirm that the recipient is capable of receiving ERC-721 or else they may be permanently lost. Usage of {safeTransferFrom} prevents loss, though the caller must understand this adds an external call which potentially creates a reentrancy vulnerability. Requirements: - `from` cannot be the zero address. - `to` cannot be the zero address. - `tokenId` token must be owned by `from`. - If the caller is not `from`, it must be approved to move this token by either {approve} or {setApprovalForAll}. Emits a {Transfer} event."
      },
      "transferOwnership(address)": {
        "details": "Transfers ownership of the contract to a new account (`newOwner`). Can only be called by the current owner."
      }
    },
    "version": 1
  },
  "userdoc": {
    "kind": "user",
    "methods": {},
    "version": 1
  }
}