{
  "contractName": "ChessFactory",
  "abi": [
    {
      "inputs": [],
      "stateMutability": "nonpayable",
      "type": "constructor"
    },
    {
      "anonymous": false,
      "inputs": [
        {
          "indexed": true,
          "internalType": "uint256",
          "name": "gameId",
          "type": "uint256"
        },
        {
          "indexed": true,
          "internalType": "address",
          "name": "gameAddress",
          "type": "address"
        },
        {
          "indexed": true,
          "internalType": "address",
          "name": "whitePlayer",
          "type": "address"
        },
        {
          "indexed": false,
          "internalType": "uint256",
          "name": "betAmount",
          "type": "uint256"
        },
        {
          "indexed": false,
          "internalType": "enum ChessCore.TimeoutPreset",
          "name": "timeoutPreset",
          "type": "uint8"
        }
      ],
      "name": "GameCreated",
      "type": "event"
    },
    {
      "inputs": [],
      "name": "MAX_BET",
      "outputs": [
        {
          "internalType": "uint256",
          "name": "",
          "type": "uint256"
        }
      ],
      "stateMutability": "view",
      "type": "function"
    },
    {
      "inputs": [],
      "name": "MIN_BET",
      "outputs": [
        {
          "internalType": "uint256",
          "name": "",
          "type": "uint256"
        }
      ],
      "stateMutability": "view",
      "type": "function"
    },
    {
      "inputs": [],
      "name": "addressNFT",
      "outputs": [
        {
          "internalType": "address",
          "name": "",
          "type": "address"
        }
      ],
      "stateMutability": "view",
      "type": "function"
    },
    {
      "inputs": [
        {
          "internalType": "uint256",
          "name": "",
          "type": "uint256"
        }
      ],
      "name": "deployedChessGames",
      "outputs": [
        {
          "internalType": "address",
          "name": "",
          "type": "address"
        }
      ],
      "stateMutability": "view",
      "type": "function"
    },
    {
      "inputs": [],
      "name": "totalChessGames",
      "outputs": [
        {
          "internalType": "uint256",
          "name": "",
          "type": "uint256"
        }
      ],
      "stateMutability": "view",
      "type": "function"
    },
    {
      "inputs": [
        {
          "internalType": "enum ChessCore.TimeoutPreset",
          "name": "_timeoutPreset",
          "type": "uint8"
        }
      ],
      "name": "createChessGame",
      "outputs": [
        {
          "internalType": "address",
          "name": "",
          "type": "address"
        }
      ],
      "stateMutability": "payable",
      "type": "function"
    },
    {
      "inputs": [],
      "name": "getDeployedChessGames",
      "outputs": [
        {
          "internalType": "address[]",
          "name": "",
          "type": "address[]"
        }
      ],
      "stateMutability": "view",
      "type": "function"
    }
  ],
  "bytecode": "0x6080806040523461008957611760818101906001600160401b03821183831017610075576020918391615fd983393381520301905ff0801561006a57600180546001600160a01b0319166001600160a01b0392909216919091179055604051615f4b908161008e8239f35b6040513d5f823e3d90fd5b634e487b7160e01b5f52604160045260245ffd5b5f80fdfe608060408181526004918236101562000016575f80fd5b5f92833560e01c9182632bf0e88b1462000231575081632e4ccf72146200020657816364fffe6914620001305781636540742f146200010c5781637e95b52314620000e6578163a4b7bbde146200009a575063c6b68eef1462000077575f80fd5b3462000096578160031936011262000096576020906002549051908152f35b5080fd5b905034620000e2576020366003190112620000e25735918054831015620000df5750620000c960209262000492565b905491519160018060a01b039160031b1c168152f35b80fd5b8280fd5b50503462000096578160031936011262000096576020905168056bc75e2d631000008152f35b50503462000096578160031936011262000096576020905166038d7ea4c680008152f35b828434620000df5780600319360112620000df57815180918054938483526020809301809583805284842090845b86828210620001e85750505050849003601f01601f19168401956001600160401b03871185881017620001d5575085815282865292518583018190528594938501939290915b828110620001b457505050500390f35b83516001600160a01b031685528695509381019392810192600101620001a4565b634e487b7160e01b835260419052602482fd5b83546001600160a01b0316855290930192600192830192016200015e565b505034620000965781600319360112620000965760015490516001600160a01b039091168152602090f35b83859160209384600319360112620003d85780359160038310156200048e5766038d7ea4c6800034106200045a575068056bc75e2d631000003411620004215782516001600160401b039490615a3480820190878211838310176200040e576060918391620004e28339338152348a820152620002b188820188620004bf565b03019034f0918215620004025781546001600160a01b039384169690600160401b811015620003ef57806001620002eb9201855562000492565b81549060031b90868a831b921b1916179055600254935f198514620003dc576001850160025560015416803b15620003d857908380939260648951809781936346676cd360e11b83528a888401528d60248401523360448401525af18015620003ce57908895949392916200039e575b505050506200037384519334855287850190620004bf565b7f4e165c43606cca32e8560a11258aaeef0821dcdc5c6d547cb8a7cfaf9e051a92843394a451908152f35b9091928094955011620003bb57505083528390868080806200035b565b634e487b7160e01b825260419052602490fd5b87513d85823e3d90fd5b8380fd5b634e487b7160e01b845260118352602484fd5b634e487b7160e01b845260418352602484fd5b508351903d90823e3d90fd5b634e487b7160e01b845260418552602484fd5b825162461bcd60e51b81529081018590526013602482015272084cae840c2dadeeadce840e8dede40d0d2ced606b1b6044820152606490fd5b8560649262461bcd60e51b8352820152601260248201527142657420616d6f756e7420746f6f206c6f7760701b6044820152fd5b8480fd5b905f918254811015620004ab5782805260208320019190565b634e487b7160e01b83526032600452602483fd5b906003821015620004cd5752565b634e487b7160e01b5f52602160045260245ffdfe610160601f62005a3438819003918201601f19168301916001600160401b038311848410176200050d5780849260609460405283398101031262000509578051906001600160a01b038216820362000509576040602082015191015191600383101562000509575f6080819052600160a0819052600260c052600360e0526004610100526005610120526006610140526008805460ff60301b191666ff000000000000179055600955600f805460ff1916905580546001600160401b03191667fcfefdfafbfdfefc1781555b600860ff821610620004b957506101005160075466ff00000000000060c0519165ff000000000060e0519164ff000000006101205163ff000000610140519360ff8a60381b67ff00000000000000169a169060018060401b0319161761ff008960081b161762ff00008760101b16179160181b16179160201b16179160281b16179160301b1617176007555f5b600860ff8216106200046f5750600880546bffffffff0000ffffffffffff19166b040004070000000000000000178155600f8054610100600160a81b0319169183901b610100600160a81b0316919091179055601180546001600160a01b0319166001600160a01b03909216919091179055600a55806200044f575061012c600e555b6040516154e890816200054c823960805181818161048b015281816108840152818161096f015281816109f301528181610e3801528181611720015281816118060152818161187601528181611bc80152818161286c01528181612fa60152818161358501528181613a0201528181613cc201528181613d8b01528181613e2401528181613f370152818161466e0152818161477e01528181614d6e01528181614ea301528181614fa30152615214015260a0518181816104f801528181610560015281816105ad0152818161085701528181610a7c01528181610ae801528181610cb901528181610d5801528181610da80152818161140f01528181611477015281816114c4015281816116f3015281816118ff0152818161196b01528181611a4901528181611ae801528181611b380152818161289501528181612fec01528181613474015281816135d10152818161368201528181613eeb0152614a0d015260c051818181610c09015281816128bf0152818161302d015281816140bd01528181614a3701526150ff015260e051818181610c38015281816128e90152818161306b0152818161410f0152614c47015261010051818181610c6701528181612913015281816130a9015281816131e8015281816132db01528181613b13015281816141610152614c77015261012051818181610b2d015281816115d3015281816119c6015281816119fa0152818161293e015281816130e7015281816141b10152614ca70152610140518181816104bc015281816113d301528181612092015281816129690152818161312501528181613188015281816133900152818161420201528181614a6001526152910152f35b6001036200046357610834600e55620001db565b61c4e0600e55620001db565b60a0515f0b906008811015620004a557620004996200049f92601f83168360051c60060162000521565b62000539565b62000158565b634e487b7160e01b5f52603260045260245ffd5b60a0515f0b90607f198214620004f5576008811015620004a55762000499620004ef925f03601f83168360051c60010162000521565b620000cb565b634e487b7160e01b5f52601160045260245ffd5b5f80fd5b634e487b7160e01b5f52604160045260245ffd5b919060ff83549160031b928116831b921b1916179055565b60ff1660ff8114620004f5576001019056fe60c0806040526004361015610049575b50361561001a575f80fd5b60ff600f54166005811015610035576100339015612bd2565b005b634e487b7160e01b5f52602160045260245ffd5b5f90813560e01c908163085791b6146123f7575080632420f7f0146122cb5780632ebe14b0146122ad57806339b4b0d61461228f5780634404a4381461226657806346c1d9b414612236578063538a93ed1461200f57806369652fcf14611f115780636ea1b3e514611ef457806370740ac914611c875780637bed3d1c146112a95780638086a92a1461125d5780638b5b9ccc1461122857806394549865146111f45780639bf55dab146110255780639c2a094f1461034c578063b31542b51461032e578063b7d0628b14610308578063d7a8e60e146102ea578063ee545d4f1461017f578063f2e1bc5d146101625763f4f3756d0361000f573461015f578060031936011261015f57602060405161c4e08152f35b80fd5b503461015f578060031936011261015f5760206040516108348152f35b508060031936011261015f57600f5460ff811660058110156102d6576101a59015612bd2565b6001600160a01b039033600882901c8316146102a157600a5490813403610270576010549083821661023d5760016020917fee0dca10a9957dad74da3fe318a3ccc561c46d96be0ab0b66e7aff32aab94cf3933390838060a01b0319161760105560ff1916179384600f5543600c55604051938452339460081c1692a35f80516020615433833981519152602060405160018152a180f35b60405162461bcd60e51b815260206004820152600b60248201526a213630b1b5903a30b5b2b760a91b6044820152606490fd5b60405162461bcd60e51b815260206004820152600960248201526815dc9bdb99c818995d60ba1b6044820152606490fd5b60405162461bcd60e51b815260206004820152600d60248201526c416c726561647920776869746560981b6044820152606490fd5b634e487b7160e01b83526021600452602483fd5b503461015f578060031936011261015f576020600d54604051908152f35b503461015f578060031936011261015f57602061032361534f565b60ff60405191168152f35b503461015f578060031936011261015f576020600c54604051908152f35b503461015f5760a036600319011261015f57610366612604565b9061036f612618565b610377612628565b90610380612638565b93608435840b60843503611021576011546001600160a01b031633819003610fec576010546001916001600160a01b0390911614610fe4575b6008821015610ebf576103df85916103d18585612648565b90549060031b1c830b612d42565b810b1315610fae57600860ff82161080610fa1575b80610f94575b80610f87575b15610f555760ff600f54166005811015610f415760018114908115610f38575b5015610f075761043285848484613ad3565b15610ed3576104418282612648565b90549060031b1c840b6008841015610ebf5761045d8685612648565b90549060031b1c850b9561047b826104758388612648565b90612d9f565b856104b06104898686612648565b7f000000000000000000000000000000000000000000000000000000000000000091612d9f565b6104b983612dcf565b907f00000000000000000000000000000000000000000000000000000000000000009160ff808416911614610e60575b876104f385612dcf565b60ff807f000000000000000000000000000000000000000000000000000000000000000016911614610a54575b15610a3c575b60ff61053185612dcf565b1660ff8316146108f9575b50918697849260ff8899951660ff61055385612dcf565b161491826108d6575b60ff7f00000000000000000000000000000000000000000000000000000000000000001660ff61058b86612dcf565b161493846108ae575b84610882575b841561087b5786811315610855576105d17f0000000000000000000000000000000000000000000000000000000000000000612855565b905b87848b8a809e60ff600f54169f6105e8612ded565b156107e257508361061d9495506105fe91614454565b97881597899389935090836107d8576106176003612c0d565b87613ed6565b90600160a01b60019003601154169d8e9c8d600f548060a052600160a01b600190039060081c16145f149c6101609c6106b35f805160206154938339815191529f60ff805f805160206154738339815191529681936107cf57816001975b6040519889980b885216602087015216968760408601521696876060850152169687608084015260c060a084015260c08301906125df565b0390a160ff6040519a168a5260208a01526040890152606088015260808701528b0b60a08601526084358b0b60c0860152151560e0850152151561010084015215156101208301521515610140820152a260ff60a051169060058110156107bb5760058210156107bb578103610794575b5060a05160081c6001600160a01b03160361078b5743600d555b601154600f5460081c6001600160a01b03908116908216810361078657506010546001600160a01b03165b6001600160a01b03166001600160a01b0319919091161760115580f35b610769565b43600c5561073e565b6107b25f805160206154338339815191529160405191829182612c26565b0390a15f610724565b634e487b7160e01b84526021600452602484fd5b815f199761067b565b6106176001612c0d565b91935091936107ef612e9e565b1561082e5750509161061d91610806888095614427565b97881597899389935090836108245761081f6004612c0d565b610617565b61081f6001612c0d565b9681989488929350859161061d956108446142fb565b1590506108245761081f6002612c0d565b7f00000000000000000000000000000000000000000000000000000000000000006105d1565b81906105d3565b7f0000000000000000000000000000000000000000000000000000000000000000870b8214945061059a565b9350600160ff6108ce6108c9828c168a0b8387168b0b612db7565b612dcf565b161493610594565b9150600260ff6108f16108c9828b16890b8386168a0b612db7565b16149161055c565b601154600f5460081c6001600160a01b03908116911603610a2457600160ff1960085416176008555b600260ff61093b6108c9828a168c0b8388168d0b612db7565b160361053c5760ff83166006036109b5576109a157918697849260ff88999561096a865460381c880b87612d6b565b6109947f000000000000000000000000000000000000000000000000000000000000000087612d85565b939550509250979661053c565b634e487b7160e01b87526032600452602487fd5b600260ff8416146109d1575b50918697849260ff889995610994565b6109a157918697849260ff8899956109ec8654880b87612d56565b81198654167f0000000000000000000000000000000000000000000000000000000000000000831617865593955050925097966109c1565b630100000063ff000000196008541617600855610922565b6008805460ff60301b191660ff60301b179055610526565b600160ff610a6d6108c98a83168d0b8884168e0b612db7565b161480610e35575b610d55575b7f0000000000000000000000000000000000000000000000000000000000000000890b8514908180610d48575b80610d3b575b15610cb357506008805461ffff60301b1916603086901b60ff60301b161760388a901b60ff60381b161790556001905b80610ca8575b610b0c7f0000000000000000000000000000000000000000000000000000000000000000612855565b8a0b861480610c9b575b81908215610c93575b50610b2b575b50610520565b7f00000000000000000000000000000000000000000000000000000000000000008a0b6084358b0b148015610c64575b8015610c35575b8015610c06575b15610bc757899015610ba957610b9557610b8f610b86858a612648565b60843591612d9f565b5f610b25565b634e487b7160e01b89526032600452602489fd5b50610bc2610bb8608435612855565b610475868b612648565b610b8f565b60405162461bcd60e51b8152602060048201526017602482015276496e76616c69642070726f6d6f74696f6e20706965636560481b6044820152606490fd5b507f00000000000000000000000000000000000000000000000000000000000000008a0b6084358b0b14610b69565b507f00000000000000000000000000000000000000000000000000000000000000008a0b6084358b0b14610b62565b507f00000000000000000000000000000000000000000000000000000000000000008a0b6084358b0b14610b5b565b90505f610b1f565b50600760ff8a1614610b16565b5060ff881615610ae3565b90610cdd7f0000000000000000000000000000000000000000000000000000000000000000612855565b8a0b861480610d2e575b80610d21575b15610add576008805461ffff60301b1916603087901b60ff60301b161760388b901b60ff60381b1617905560019150610add565b50600360ff8a1614610ced565b50600160ff881614610ce7565b50600460ff8a1614610aad565b50600660ff881614610aa7565b817f00000000000000000000000000000000000000000000000000000000000000008a0b861480610e20575b80610e13575b15610da257610b9557610d9d6104898588612648565b610a7a565b50610dcc7f0000000000000000000000000000000000000000000000000000000000000000612855565b890b851480610dfe575b80610df1575b15610a7a57889150610d9d6104898588612648565b50600460ff871614610ddc565b5060ff8416890b60085460301c8a0b14610dd6565b50600360ff881614610d87565b5060ff85168a0b60085460301c8b0b14610d81565b507f0000000000000000000000000000000000000000000000000000000000000000890b8a14610a75565b81880b8403610e94576008805461ffff60401b1916604089901b60ff60401b1617604885901b60ff60481b161790556104e9565b6008805461ffff60501b1916605089901b60ff60501b1617605885901b60ff60581b161790556104e9565b634e487b7160e01b85526032600452602485fd5b60405162461bcd60e51b815260206004820152600c60248201526b496e76616c6964206d6f766560a01b6044820152606490fd5b60405162461bcd60e51b815260206004820152600960248201526842616420737461746560b81b6044820152606490fd5b9050155f610420565b634e487b7160e01b85526021600452602485fd5b60405162461bcd60e51b815260206004820152600a60248201526942616420636f6f72647360b01b6044820152606490fd5b50600860ff861610610400565b50600860ff8416106103fa565b50600860ff8316106103f4565b60405162461bcd60e51b815260206004820152600e60248201526d4e6f7420796f757220706965636560901b6044820152606490fd5b505f196103b9565b60405162461bcd60e51b815260206004820152600d60248201526c2737ba103cb7bab9103a3ab93760991b6044820152606490fd5b8380fd5b503461015f578060031936011261015f57600f8054906001600160a01b03600883901c81163381149290918380156111e7575b61106190612d07565b60ff851660058110156111d35760010361119c57601154169182331461116b57820361116357600c545b600e54810180911161114f57431061111a577f5d90ddefa858c7e60b58274a3fca3108b94bb3cc1f596e26d0c69db70abef4b06110f660ff935f8051602061543383398151915296611107965f1461110d5750600385198554161784555b6040519182913383612675565b0390a1541660405191829182612c26565b0390a180f35b85191660041784556110e9565b60405162461bcd60e51b815260206004820152600d60248201526c139bdd081d1a5b5959081bdd5d609a1b6044820152606490fd5b634e487b7160e01b86526011600452602486fd5b600d5461108b565b60405162461bcd60e51b81526020600482015260096024820152682cb7bab9103a3ab93760b91b6044820152606490fd5b60405162461bcd60e51b815260206004820152602481018390526e4e6f7420696e2070726f677265737360881b6044820152606490fd5b634e487b7160e01b87526021600452602487fd5b5060105481163314611058565b503461015f578060031936011261015f5761122461121061273d565b6040519182916020835260208301906125df565b0390f35b503461015f578060031936011261015f5760018060a01b0380600f5460081c1690601054169061122460405192839283612675565b503461015f57604036600319011261015f5760243560043560088110156112a55760088210156112a5576020929161129491612648565b9190546040519260031b1c900b8152f35b8280fd5b503461015f57608036600319011261015f576112c3612604565b906112cc612618565b6112d4612628565b906112dd612638565b6011549094906001600160a01b031633819003610fec576010546001916001600160a01b0390911614611c7f575b6008821015610ebf5761132385916103d18585612648565b810b1315610fae57600860ff82161080611c72575b80611c65575b80611c58575b15610f555760ff600f54166005811015610f415760018114908115611c4f575b5015610f075761137685848484613ad3565b15610ed3576113858282612648565b90549060031b1c840b6008841015610ebf576113a18685612648565b90549060031b1c850b956113b9826104758388612648565b856113c76104898686612648565b6113d083612dcf565b907f00000000000000000000000000000000000000000000000000000000000000009160ff808416911614611bf0575b8761140a85612dcf565b60ff807f0000000000000000000000000000000000000000000000000000000000000000169116146118d7575b156118bf575b60ff61144885612dcf565b1660ff831614611790575b50918697849260ff8899951660ff61146a85612dcf565b1614918261176d575b60ff7f00000000000000000000000000000000000000000000000000000000000000001660ff6114a286612dcf565b1614938461174a575b8461171e575b841561171757868113156116f1576114e87f0000000000000000000000000000000000000000000000000000000000000000612855565b905b87848b8a809e60ff600f54169f6114ff612ded565b156116b75750836115159495506105fe91614454565b90600160a01b60019003601154169d8e9c8d600f5480608052600160a01b600190039060081c16145f149c6101609c6115aa5f805160206154938339815191529f60ff805f805160206154738339815191529681936107cf57816001976040519889980b885216602087015216968760408601521696876060850152169687608084015260c060a084015260c08301906125df565b0390a160ff6040519a168a5260208a01526040890152606088015260808701528b0b60a08601527f00000000000000000000000000000000000000000000000000000000000000008b0b60c0860152151560e0850152151561010084015215156101208301521515610140820152a260ff608051169060058110156107bb5760058210156107bb578103611690575b5060805160081c6001600160a01b03160361078b5743600d55601154600f5460081c6001600160a01b03908116908216810361078657506010546001600160a01b03166001600160a01b0319919091161760115580f35b6116ae5f805160206154338339815191529160405191829182612c26565b0390a15f611639565b91935091936116c4612e9e565b156116db5750509161151591610806888095614427565b96819894889293508591611515956108446142fb565b7f00000000000000000000000000000000000000000000000000000000000000006114e8565b81906114ea565b7f0000000000000000000000000000000000000000000000000000000000000000870b821494506114b1565b9350600160ff6117656108c9828c168a0b8387168b0b612db7565b1614936114ab565b9150600260ff6117886108c9828b16890b8386168a0b612db7565b161491611473565b601154600f5460081c6001600160a01b039081169116036118a757600160ff1960085416176008555b600260ff6117d26108c9828a168c0b8388168d0b612db7565b16036114535760ff8316600603611838576109a157918697849260ff889995611801865460381c880b87612d6b565b61182b7f000000000000000000000000000000000000000000000000000000000000000087612d85565b9395505092509796611453565b600260ff841614611854575b50918697849260ff88999561182b565b6109a157918697849260ff88999561186f8654880b87612d56565b81198654167f000000000000000000000000000000000000000000000000000000000000000083161786559395505092509796611844565b630100000063ff0000001960085416176008556117b9565b6008805460ff60301b191660ff60301b17905561143d565b600160ff6118f06108c98a83168d0b8884168e0b612db7565b161480611bc5575b611ae5575b7f0000000000000000000000000000000000000000000000000000000000000000890b8514908180611ad8575b80611acb575b15611a4357506008805461ffff60301b1916603086901b60ff60301b161760388a901b60ff60381b161790556001905b80611a38575b61198f7f0000000000000000000000000000000000000000000000000000000000000000612855565b8a0b861480611a2b575b81908215611a23575b506119ae575b50611437565b909890156119f157976119eb6119c4858a612648565b7f000000000000000000000000000000000000000000000000000000000000000091612d9f565b5f6119a8565b97611a1e610bb87f0000000000000000000000000000000000000000000000000000000000000000612855565b6119eb565b90505f6119a2565b50600760ff8a1614611999565b5060ff881615611966565b90611a6d7f0000000000000000000000000000000000000000000000000000000000000000612855565b8a0b861480611abe575b80611ab1575b15611960576008805461ffff60301b1916603087901b60ff60301b161760388b901b60ff60381b1617905560019150611960565b50600360ff8a1614611a7d565b50600160ff881614611a77565b50600460ff8a1614611930565b50600660ff88161461192a565b817f00000000000000000000000000000000000000000000000000000000000000008a0b861480611bb0575b80611ba3575b15611b3257610b9557611b2d6104898588612648565b6118fd565b50611b5c7f0000000000000000000000000000000000000000000000000000000000000000612855565b890b851480611b8e575b80611b81575b156118fd57889150611b2d6104898588612648565b50600460ff871614611b6c565b5060ff8416890b60085460301c8a0b14611b66565b50600360ff881614611b17565b5060ff85168a0b60085460301c8b0b14611b11565b507f0000000000000000000000000000000000000000000000000000000000000000890b8a146118f8565b81880b8403611c24576008805461ffff60401b1916604089901b60ff60401b1617604885901b60ff60481b16179055611400565b6008805461ffff60501b1916605089901b60ff60501b1617605885901b60ff60581b16179055611400565b9050155f611364565b50600860ff861610611344565b50600860ff84161061133e565b50600860ff831610611338565b505f1961130b565b503461015f578060031936011261015f57600260095414611ee2576002600955600b5460ff8116611eab57600f5460ff811660058110159283610f41576003821490818015611e9e575b858115611e7a575b5015611e465760ff1916600117600b554793610f415715611d595750505f805160206154538339815191529060018060a01b03611d37848080808686600f5460081c16611d27813314612cce565b5af1611d31612c46565b50612c75565b600f5460081c16611d4d60405192839283612cb3565b0390a15b600160095580f35b60048103611dac5750505f805160206154538339815191529060018060a01b03611d9184808080868660105416611d27813314612cce565b60105416611da460405192839283612cb3565b0390a1611d51565b600214611dbb575b5050611d51565b611dc98260011c8093612c39565b90611de9848080808760018060a01b03809760081c165af1611d31612c46565b80600f5460081c1660405180611e0f5f8051602061545383398151915296879483612cb3565b0390a1611e29848080808686601054165af1611d31612c46565b60105416611e3c60405192839283612cb3565b0390a15f80611db4565b60405162461bcd60e51b815260206004820152600c60248201526b139bdd08199a5b9a5cda195960a21b6044820152606490fd5b9050611e8a576002831485611cd9565b634e487b7160e01b86526021600452602486fd5b5085945060048314611cd1565b60405162461bcd60e51b815260206004820152600f60248201526e105b1c9958591e4818db185a5b5959608a1b6044820152606490fd5b604051633ee5aeb560e01b8152600490fd5b503461015f578060031936011261015f57602060405161012c8152f35b503461015f578060031936011261015f57600f5460018060a01b03808260081c16331490818015612002575b611f4690612d07565b60ff83166005811015610f415760018114908115611ff9575b5015611fc4577fc42bb29411173bbda4c2ff27b35fb6dc57e2cbdb1bac3fcb7c51b87dc0beb78a926111079215611faf5750600460ff19600f541617600f55601054166040519182913383612675565b60ff1916600317600f81905560081c166110e9565b60405162461bcd60e51b815260206004820152600d60248201526c11d85b5948199a5b9a5cda1959609a1b6044820152606490fd5b9050155f611f5f565b5060105481163314611f3d565b503461015f57606036600319011261015f57612029612604565b612031612618565b6044359283810b9081850361015f57600f546008959080871c6001600160a01b031633036121e75760ff1660058110156102d657612198578560ff8616108061218c575b15612151578585101561213d57612090906104758587612648565b7f000000000000000000000000000000000000000000000000000000000000000080820b83036120f3575050835461ffff60401b191660409390931b60ff60401b169290921760489190911b60ff60481b1617909155505b61122461121061273d565b6120fc90612855565b900b1461210c575b5050506120e8565b825461ffff60501b191660509290921b60ff60501b169190911760589190911b60ff60581b161790555f8080612104565b634e487b7160e01b82526032600452602482fd5b60405162461bcd60e51b8152602060048201526013602482015272496e76616c696420636f6f7264696e6174657360681b6044820152606490fd5b508560ff851610612075565b60405162461bcd60e51b815260206004820152602160248201527f43616e206f6e6c79207365747570206265666f72652067616d652073746172746044820152607360f81b6064820152608490fd5b60405162461bcd60e51b815260206004820152602160248201527f4f6e6c7920776869746520706c617965722063616e20736574757020626f61726044820152601960fa1b6064820152608490fd5b503461015f578060031936011261015f57606061225161539e565b90604051928352602083015215156040820152f35b503461015f578060031936011261015f576011546040516001600160a01b039091168152602090f35b503461015f578060031936011261015f576020600a54604051908152f35b503461015f578060031936011261015f576020600e54604051908152f35b503461015f578060031936011261015f57604051906122e98261268f565b805b6101008082101561231357604051602092916123068261268f565b36823781850152016122eb565b604051836123208261268f565b818182935b600890818610156123a1576001918291604051855480890b8252806020941c890b848301528060101c890b60408301528060181c890b606083015280841c890b60808301528060281c890b60a08301528060301c890b60c083015260381c880b60e08201526123938161268f565b815201920194019390612325565b604051858086835b6008808410156123f15782518590835b8383106123d857505050506020610100600192019201920191906123a9565b6001908251890b815260208091019201920191906123b9565b61080086f35b823461015f578060031936011261015f576124118261268f565b818182935b60089081861015612492576001918291604051855480890b8252806020941c890b848301528060101c890b60408301528060181c890b606083015280841c890b60808301528060281c890b60a08301528060301c890b60c083015260381c880b60e08201526124848161268f565b815201920194019390612416565b5050604051639ef3eb8760e01b815291839150600483015b6008808410156124f25782518690835b8383106124d957505050506020610100600192019201920191906124aa565b60019082518a0b815260208091019201920191906124ba565b858581816108048173__ChessMediaLibrary_____________________5af49081156125b3578291612535575b60405160208082528190611224908201856125df565b90503d8083833e61254681836126da565b8101906020818303126112a5578051906001600160401b038211611021570181601f820112156112a55780519261257c846126fd565b9261258a60405194856126da565b8484526020858401011161015f5750611224926125ad91602080850191016125be565b8261251f565b6040513d84823e3d90fd5b5f5b8381106125cf5750505f910152565b81810151838201526020016125c0565b906020916125f8815180928185528580860191016125be565b601f01601f1916010190565b6004359060ff8216820361261457565b5f80fd5b6024359060ff8216820361261457565b6044359060ff8216820361261457565b6064359060ff8216820361261457565b919091600883101561266157601f908360051c01921690565b634e487b7160e01b5f52603260045260245ffd5b6001600160a01b0391821681529116602082015260400190565b61010081019081106001600160401b038211176126ab57604052565b634e487b7160e01b5f52604160045260245ffd5b604081019081106001600160401b038211176126ab57604052565b601f909101601f19168101906001600160401b038211908210176126ab57604052565b6001600160401b0381116126ab57601f01601f191660200190565b60ff1660ff81146127295760010190565b634e487b7160e01b5f52601160045260245ffd5b604080519091906020908181016001600160401b038111828210176126ab5784525f8082529081905b600860ff81818616101561284b57919083925b81818516106127c95750506127c391506127bd60218851836127a482955180928b80860191016125be565b8101600560f91b898201520360018101845201826126da565b92612718565b91612766565b909182861015610ebf576128439061283d60216127f76127e9888b612648565b90549060031b1c890b612865565b928c5193816128108d87945192818492870191016125be565b82016128258d835193818592850191016125be565b01600160fd1b8c8201520360018101845201826126da565b93612718565b929190612779565b5090955050505050565b5f0b607f198114612729575f0390565b5f90810b907f0000000000000000000000000000000000000000000000000000000000000000810b8214612bb3577f000000000000000000000000000000000000000000000000000000000000000080820b8314612b93577f000000000000000000000000000000000000000000000000000000000000000080830b8414612b72577f000000000000000000000000000000000000000000000000000000000000000080840b8514612b50577f00000000000000000000000000000000000000000000000000000000000000009081850b8614612b2d577f00000000000000000000000000000000000000000000000000000000000000009283860b8714612b09577f00000000000000000000000000000000000000000000000000000000000000009485870b8814612ae45761299b90612855565b860b8714612abf576129ac90612855565b850b8614612a9b576129bd90612855565b840b8514612a78576129ce90612855565b830b8414612a56576129df90612855565b820b8314612a35576129f090612855565b900b14612a1757604051612a03816126bf565b60048152630b0b0b0b60e31b602082015290565b604051612a23816126bf565b6002815261169b60f11b602082015290565b505050604051612a44816126bf565b60028152612d3560f01b602082015290565b50505050604051612a66816126bf565b60028152610b4d60f21b602082015290565b5050505050604051612a89816126bf565b60028152612d3360f01b602082015290565b505050505050604051612aad816126bf565b6002815261169960f11b602082015290565b50505050505050604051612ad2816126bf565b60028152612d3160f01b602082015290565b5050505050505050604051612af8816126bf565b60018152601b60f91b602082015290565b50505050505050604051612b1c816126bf565b60018152603560f81b602082015290565b505050505050604051612b3f816126bf565b60018152600d60fa1b602082015290565b5050505050604051612b61816126bf565b60018152603360f81b602082015290565b50505050604051612b82816126bf565b60018152601960f91b602082015290565b505050604051612ba2816126bf565b60018152603160f81b602082015290565b5050604051612bc1816126bf565b60018152600360fc1b602082015290565b15612bd957565b60405162461bcd60e51b815260206004820152600c60248201526b11d85b59481cdd185c9d195960a21b6044820152606490fd5b60058110156100355760ff8019600f5416911617600f55565b9190602083019260058210156100355752565b9190820391821161272957565b3d15612c70573d90612c57826126fd565b91612c6560405193846126da565b82523d5f602084013e565b606090565b15612c7c57565b60405162461bcd60e51b815260206004820152600f60248201526e151c985b9cd9995c8819985a5b1959608a1b6044820152606490fd5b6001600160a01b039091168152602081019190915260400190565b15612cd557565b60405162461bcd60e51b815260206004820152600a6024820152692737ba103bb4b73732b960b11b6044820152606490fd5b15612d0e57565b60405162461bcd60e51b815260206004820152600c60248201526b2737ba103090383630bcb2b960a11b6044820152606490fd5b905f0b905f0b0290815f0b91820361272957565b9063ff00000080198354169160181b16179055565b9060ff60281b198254169060ff60281b9060281b16179055565b9060ff60381b198254169060ff60381b9060381b16179055565b919060ff83549160031b928116831b921b1916179055565b5f91820b910b0390607f198212607f83131761272957565b5f81810b12612dde5760ff1690565b612de790612855565b60ff1690565b6008805460ff9081808260501c169160581c16905f5b8484821610612e155750505050505f90565b5f5b8585821610612e2f5750612e2a90612718565b612e03565b858297959692101561266157612e458188612648565b90549060031b1c5f0b5f0390815f0b918203612729575f839212612e79575b612e6d90612718565b90509590949395612e17565b9050612e878484838a612f36565b612e92578190612e64565b50505050915050600190565b6008805460ff9081808260401c169160481c16905f5b8484821610612ec65750505050505f90565b5f5b8585821610612ee05750612edb90612718565b612eb4565b858297959692101561266157805f612ef984938a612648565b90549060031b1c810b12612f1d575b612f1190612718565b90509590949395612ec8565b9050612f2b8484838a612f36565b612e92578190612f08565b90926008928383101561266157612f4d8584612648565b9590545f9660031b1c860b93858310156109a157612f6b8484612648565b90549060031b1c870b9560ff908186169089600284612f956108c9828a16948786820b910b612db7565b161480613382575b61317c575050507f0000000000000000000000000000000000000000000000000000000000000000880b87148015613168575b612fdf575b5050505050505090565b612fe886612dcf565b81167f0000000000000000000000000000000000000000000000000000000000000000821603613020575061301d9650613403565b90565b61302986612dcf565b81167f000000000000000000000000000000000000000000000000000000000000000082160361305e575061301d9650613750565b61306786612dcf565b81167f000000000000000000000000000000000000000000000000000000000000000082160361309c575061301d965061380a565b6130a586612dcf565b81167f00000000000000000000000000000000000000000000000000000000000000008216036130da575061301d9650613885565b6130e386612dcf565b81167f0000000000000000000000000000000000000000000000000000000000000000821603613118575061301d96506138ef565b61312186612dcf565b90807f00000000000000000000000000000000000000000000000000000000000000001691161461315e575050505050505f808080808080612fd5565b61301d9650613967565b50876131748888612d42565b810b12612fd0565b929497919550929597507f0000000000000000000000000000000000000000000000000000000000000000890b145f146132a657600783861614908161329b575b5080613290575b6131d2575b50505050505090565b8354826131e38260381c8a0b612dcf565b1690837f00000000000000000000000000000000000000000000000000000000000000001691821480613286575b80613278575b6132695761322784918a0b612dcf565b1614928361325e575b508261324f575b5050613245578080806131c9565b61301d93506139d5565b8054901c161590505f80613237565b60021492505f613230565b505050505061301d93506139d5565b5083835460101c1615613217565b5060068514613211565b5081815416156131c4565b60049150145f6131bd565b828516159081613377575b5080613369575b6132c55750505050505090565b8354826132d68260381c8a0b612dcf565b1690837f0000000000000000000000000000000000000000000000000000000000000000169182148061335f575b80613351575b6132695761331a84918a0b612dcf565b16149283613346575b5082613337575050613245578080806131c9565b5460281c161590505f80613237565b60021492505f613323565b5083835460201c161561330a565b5060068514613304565b5081815460181c16156132b8565b60049150145f6132b1565b5061338c89612dcf565b84167f0000000000000000000000000000000000000000000000000000000000000000851614612f9d565b60ff5f199116019060ff821161272957565b9060ff8091169116039060ff821161272957565b60ff60019116019060ff821161272957565b9060ff8091169116019060ff821161272957565b60ff9384169592939182169283871480613746575b61367d575b5f96870b93870b9360019687856134376108c98986612db7565b16146135cc575b600854958660301c8a0b9389878c87121593846135af575b50505081613581575b50613470575b505050505050505090565b880b7f0000000000000000000000000000000000000000000000000000000000000000808a0b82148061356c575b80613560575b80613557575b80613547575b156134c2575050505050505050905090565b6134cb90612855565b890b14958661352e575b5085613521575b85613517575b505083613504575b5050506134ff57505f80808080808080613465565b905090565b81929350169160381c16145f80806134ea565b1493505f806134e2565b82841660041495506134dc565b909550838061353c856133dd565b16911614945f6134d5565b50858516868860381c16146134b0565b508383146134aa565b506003868616146134a4565b5085613577866133b7565b168689161461349e565b8a0b7f00000000000000000000000000000000000000000000000000000000000000008b0b1490505f61345f565b6135c191929394506108c99087612db7565b16149089875f613456565b80890b7f0000000000000000000000000000000000000000000000000000000000000000808b0b821480613668575b8061365d575b1561361457505050505050505050905090565b61361d90612855565b8a0b1480613648575b8061363d575b1561343e5750505050505050905090565b508883810b1361362c565b5084613653856133dd565b1685881614613626565b508a85810b12613601565b5086613673876133b7565b16878a16146135fb565b6136a67f0000000000000000000000000000000000000000000000000000000000000000612855565b5f0b865f0b145f146136fd57826136bc836133dd565b168386169081149081156136dd575b501561341d5750505050505050600190565b8385166001149150816136f2575b505f6136cb565b60039150145f6136eb565b82613707836133b7565b1683861690811490811561372757501561341d5750505050505050600190565b83851660061491508161373b57505f6136cb565b60049150145f6136eb565b50805f0b15613418565b93919094929460ff809681808095815f9b8c9b168b0b91168a0b9061377491612db7565b61377d90612dcf565b9416880b9116870b9061378f91612db7565b61379890612dcf565b9116916001831492836137fd575b83156137da575b5050506137bb575b50505090565b6137c491612d42565b810b13156137d457805f806137b5565b50600190565b600214925090826137f0575b50505f80806137ad565b6001925016145f806137e6565b82821660021493506137a6565b90949293919360ff945f968661382c6108c98a9987168a0b8386168b0b612db7565b90806138436108c98286168c0b8389168d0b612db7565b16911614613855575050505050505090565b61385e93613c67565b61386c575b80808080612fd5565b61387591612d42565b810b13156137d457805f80613863565b92919094939460ff821660ff85161480156138e0575b6138aa575b5050505050505f90565b6138b393613c67565b6138c1575b808080806138a0565b5f916138cc91612d42565b810b13156138db575f806138b8565b600190565b5060ff831660ff82161461389b565b909391949260ff95868116958784165f988980996139146108c985840b83850b612db7565b838816938061392e6108c9828a16968888820b910b612db7565b1691161493841561395d575b50508215613953575b5050613855575050505050505090565b1490505f80613943565b1492505f8061393a565b939194929460ff809681808094815f9b8c9b168b0b91168a0b9061398a91612db7565b61399390612dcf565b9516880b9116870b906139a591612db7565b6139ae90612dcf565b92166001101591826139c7575b50506137bb5750505090565b600192501611155f806139bb565b909160ff80821690808516948286105f14613acb578281965b1115613abf576139ff9091956133dd565b947f00000000000000000000000000000000000000000000000000000000000000005f0b955b81831682821610613a8157505050600214613a64575b600882101561266157613a4d91612648565b90549060031b1c5f0b03613a6057600190565b5f90565b600882101561266157815460081c5f0b8314613a3b575050505f90565b60088610156126615786613a958288612648565b90549060031b1c5f0b03613ab457613aad8291612718565b9050613a25565b505050505050505f90565b506139ff8391956133dd565b8284966139ee565b92613ae091928385612f36565b15613c61576008918281101561266157613b0b613afd8383612648565b90549060031b1c5f0b612dcf565b60ff919082167f0000000000000000000000000000000000000000000000000000000000000000831614613b43575b50505050600190565b8116600781148080613c57575b80613c4a575b15613b76575050505061010061ff00198254161790555b5f808080613b3a565b80613c3e575b80613c30575b15613b9e575050506201000062ff000019825416179055613b6d565b15918280613c24575b80613c16575b15613bcc575050815460ff60201b1916600160201b1790915550613b6d565b82613c0b575b5081613bfc575b50613be5575b50613b6d565b805460ff60281b1916600160281b1790555f613bdf565b9050815460281c16155f613bd9565b81161591505f613bd2565b5081845460201c1615613bad565b50600782821614613ba7565b5081845460101c1615613b82565b50600782841614613b7c565b50828554861c1615613b56565b5082841615613b50565b50505f90565b929060ff92838516948482168681119282845f14613ec657613c88916133c9565b905b86851687871691888083851199898b5f14613eb757613ca8916133c9565b16941699848b145f14613d745750505050506001959495947f00000000000000000000000000000000000000000000000000000000000000005f0b955b8188821610613cfb575050505050505050600190565b8315613d6557613d0b81846133ef565b8615613d5657613d1b82876133ef565b600882101561266157613d2d91612648565b90549060031b1c5f0b8703613d4a57613d4590612718565b613ce5565b50505050505050505f90565b613d6082876133c9565b613d1b565b613d6f81846133c9565b613d0b565b93999497959303613e1257505050506001949394937f00000000000000000000000000000000000000000000000000000000000000005f0b945b8187821610613dc35750505050505050600190565b8215613e0357613dd381856133ef565b600886101561266157613de69086612648565b90549060031b1c5f0b8603613ab457613dfe90612718565b613dae565b613e0d81856133c9565b613dd3565b92975093949390925003613eae5792937f00000000000000000000000000000000000000000000000000000000000000005f0b939060015b8187821610613e5f5750505050505050600190565b8215613e9f57613e6f81856133ef565b60088110156126615785613e8291612648565b90549060031b1c5f0b8603613ab457613e9a90612718565b613e4a565b613ea981856133c9565b613e6f565b50505050505f90565b90613ec1916133c9565b613ca8565b90613ed0916133c9565b90613c8a565b613ee8909593919560ff918291612dcf565b167f0000000000000000000000000000000000000000000000000000000000000000821681036140bb5750505050604051613f22816126bf565b60048152633830bbb760e11b6020820152925b7f00000000000000000000000000000000000000000000000000000000000000005f0b905f0b03613fe857613fa757613f6b5790565b61301d602660405183613f888295518092602080860191016125be565b81016520636865636b60d01b60208201520360068101845201826126da565b5061301d602a60405183613fc58295518092602080860191016125be565b81016920636865636b6d61746560b01b602082015203600a8101845201826126da565b6140725761402e5761301d60286040518361400d8295518092602080860191016125be565b810167206361707475726560c01b60208201520360088101845201826126da565b61301d602e6040518361404b8295518092602080860191016125be565b81016d206361707475726520636865636b60901b602082015203600e8101845201826126da565b5061301d6032604051836140908295518092602080860191016125be565b810171206361707475726520636865636b6d61746560701b60208201520360128101845201826126da565b7f00000000000000000000000000000000000000000000000000000000000000008216810361410d57505050506040516140f4816126bf565b60068152651adb9a59da1d60d21b602082015292613f35565b7f00000000000000000000000000000000000000000000000000000000000000008216810361415f5750505050604051614146816126bf565b60068152650626973686f760d41b602082015292613f35565b7f0000000000000000000000000000000000000000000000000000000000000000821681036141af5750505050604051614198816126bf565b6004815263726f6f6b60e01b602082015292613f35565b7f00000000000000000000000000000000000000000000000000000000000000008216810361420057505050506040516141e8816126bf565b600581526438bab2b2b760d91b602082015292613f35565b7f00000000000000000000000000000000000000000000000000000000000000008216036142d2576142406108c982806002951695165f0b855f0b612db7565b161461426a5750604051614253816126bf565b60048152636b696e6760e01b602082015292613f35565b6006141592506142a491505057604051614283816126bf565b6011815270636173746c696e67206b696e677369646560781b602082015290565b6040516142b0816126bf565b6012815271636173746c696e6720717565656e7369646560701b602082015290565b5050506040516142e1816126bf565b60078152663ab735b737bbb760c91b602082015292613f35565b601154600f546008916001600160a01b0391831c82169116036144205760015b5f5b60ff838183161015613b3a575f5b848282161061434457505061433f90612718565b61431d565b848395931015806126615784905f61436f61435f858a612648565b949054600395861b1c830b612d42565b810b1361438a575b505061438290612718565b93919361432b565b5f5b858582161061439b5750614377565b5f5b86868216106143b557506143b090612718565b61438c565b8682101561266157826143c88284612648565b905490861b1c5f0b90612661576143df868b612648565b905490861b1c5f0b14158061440e575b614401576143fc90612718565b61439d565b5050505050505050505f90565b5061441b8183878c612f36565b6143ef565b5f1961431b565b9061443061447b565b613c615761443e8183614e9e565b613c615761444b9161509d565b613a6057600190565b9061445d61452a565b613c615761443e8183614f9e565b5f0b607f81146127295760010190565b60085460ff808260401c169160481c16905f195b5f81810b906001908183136138a0575f19921590825b6144bc575b505050506144b79061446b565b61448f565b8381979497969395960b85811361451d57829081614514575b50614509576144e6878786866145e7565b6144ff576144f585969761446b565b93969492956144a5565b5050505091505090565b6144f585969761446b565b9050155f6144d5565b50839650829594506144aa565b60085460ff808260501c169160581c16905f195b5f81810b906001908183136138a0575f19921590825b61456b575b505050506145669061446b565b61453e565b8381979497969395960b8581136145c2578290816145b9575b506145ae5761459587878686614703565b6144ff576145a485969761446b565b9396949295614554565b6145a485969761446b565b9050155f614584565b5083965082959450614559565b905f0b905f0b0190607f198212607f83131761272957565b9091926146096145fd5f9560ff8516870b6145cf565b9160ff8516860b6145cf565b9080850b8581129081156146f7575b5080156146ec575b80156146df575b6146ae5760ff169060ff16906008811015610ebf576146468282612648565b90549060031b1c850b60088410156146cb57856146638686612648565b90549060031b1c810b7f0000000000000000000000000000000000000000000000000000000000000000820b83141592836146b5575b5050506146ae576146aa94506147f4565b1590565b5050505090565b6146c0929350612d42565b810b13855f80614699565b634e487b7160e01b86526032600452602486fd5b50600882860b1215614627565b508482810b12614620565b6008915012155f614618565b9091926147196145fd5f9560ff8516870b6145cf565b9080850b8581129081156147e8575b5080156147dd575b80156147d0575b6146ae5760ff169060ff16906008811015610ebf576147568282612648565b90549060031b1c850b60088410156146cb57856147738686612648565b90549060031b1c810b7f0000000000000000000000000000000000000000000000000000000000000000820b83141592836147ba575b5050506146ae576146aa94506148ec565b6147c5929350612d42565b810b13855f806147a9565b50600882860b1215614737565b508482810b12614730565b6008915012155f614728565b929093915f945b60ff946008878716818110156148df575f5b888116838110156148c957898716831490816148bd575b811561489d575b5061489457828a1015612661578990878787875f6148498688612648565b90549060031b1c810b1261486b575b505050506148669150612718565b61480d565b8461487695966149d5565b61488557899087878787614858565b50505050505050915050600190565b61486690612718565b858b1684149150816148b1575b505f61482b565b9050898616145f6148aa565b888b1681149150614824565b505050509450946148d990612718565b946147fb565b5050505050509150505f90565b929093915f945b60ff946008878716818110156148df575f5b888116838110156149bf57898716831490816149b3575b8115614993575b5061498a57828a10156126615761493a818b612648565b90549060031b1c5f0b5f0390815f0b91820361272957878787875f8f9612614970575b5050505061496b9150612718565b614905565b8461497b95966149d5565b6148855789908787878761495d565b61496b90612718565b858b1684149150816149a7575b505f614923565b9050898616145f6149a0565b888b168114915061491c565b505050509450946149cf90612718565b946148f3565b9391949290946008851015612661576149ee8686612648565b9590545f9660031b1c860b614a0281612dcf565b9660ff9182891690837f0000000000000000000000000000000000000000000000000000000000000000168214614b685750827f0000000000000000000000000000000000000000000000000000000000000000168114614ae857827f00000000000000000000000000000000000000000000000000000000000000001614614a915750509561301d96614bd2565b9450955060019294506108c986928380614ab19416870b9116860b612db7565b1611159384614ac1575050505090565b60019450916108c9918480614adc9516820b9216900b612db7565b1611155f8080806146ae565b509181989750819650614b1e9550614b116108c96108c996958480809516870b9116860b612db7565b9716820b9216900b612db7565b911691600283149283614b5b575b8315614b385750505090565b60011492509082614b4e575b50505f80806137b5565b6002925016145f80614b44565b8282166001149350614b2c565b9050829850614b8f9392949597508180975050135f14614bc957825f19915b16850b6145cf565b830b9116820b149384614ba3575050505090565b60019450916108c9918480614bbe9516820b9216900b612db7565b16145f8080806146ae565b82600191614b87565b939594909160ff80919894981694165f0b95614bf087865f0b612db7565b95614c0560ff85165f0b60ff8b165f0b612db7565b96614c0f81612dcf565b9060ff614c1b8a612dcf565b168060ff8416149182614e91575b5f0b9384159182948315614e85575b83614e61575b505060ff1660ff7f000000000000000000000000000000000000000000000000000000000000000016811480614e59575b614e405760ff7f000000000000000000000000000000000000000000000000000000000000000016811480614e51575b614e405760ff7f000000000000000000000000000000000000000000000000000000000000000016149182614e37575b5081614e2e575b50614e205715614e015750614d0a5f9788975b5f0b80614dde575060ff614cff5f9a8b936145cf565b811695165f0b6145cf565b60ff16925b60ff811690868214801590614dce575b15614dbf5787899160ff8516841480614db0575b15614d54575b50614cff60ff91614d4b945f0b6145cf565b60ff1692614d0f565b91505060088110156126615784614d6a91612648565b90547f00000000000000000000000000000000000000000000000000000000000000005f0b9160031b1c5f0b03614da35787875f614d39565b5050505093505050505f90565b5060ff861660ff881614614d33565b50505050509350505050600190565b5060ff8a1660ff86161415614d1f565b5f1215614df55760ff614cff60015b9a8b936145cf565b60ff614cff5f19614ded565b5f1215614e1657614d0a60015b978897614ce9565b614d0a5f19614e0e565b505050505093505050505f90565b9050155f614cd6565b1591505f614ccf565b505050505050505093505050505f90565b508115614c9f565b508215614c6f565b60ff92935082161590811591614e7b575b5091905f614c3e565b905015155f614e72565b92508b5f0b1592614c38565b60ff841615159250614c29565b905f917f0000000000000000000000000000000000000000000000000000000000000000830b925b60ff9384821694600880871015613ab4575f5b82811682811015614f8a5782861015612661578490614ef88388612648565b929054600393841b1c5f0b14918215614f6d575b508115614f4d575b50614f4457614f2587878388612f36565b614f3757614f3290612718565b614ed9565b5050505050505050600190565b614f3290612718565b8785168a14915081614f61575b505f614f14565b9050838816145f614f5a565b5f919250614f7b8489612648565b9054911b1c810b12905f614f0c565b505050509350614f9990612718565b614ec6565b905f917f0000000000000000000000000000000000000000000000000000000000000000830b925b60ff9384821694600880871015613ab4575f5b828116828110156150895782861015612661578490614ff88388612648565b929054600393841b1c5f0b14918215615060575b508115615040575b506150375761502587878388612f36565b614f375761503290612718565b614fd9565b61503290612718565b8785168a14915081615054575b505f615014565b9050838816145f61504d565b90915061506d8388612648565b9054911b1c5f0b5f03805f0b908103612729575f13905f61500c565b50505050935061509890612718565b614fc6565b9190916008811015612661576150b38382612648565b90549060031b1c5f0b905f82135f14615347575f19925b6001845f0b1491825f146153385760ff60085460401c16925b15615326576150fa60ff60085460481c1694612dcf565b60ff807f00000000000000000000000000000000000000000000000000000000000000001691161461531c5760ff165f0b9360ff8061513d878287165f0b612db7565b951696165f0b9061515082885f0b612db7565b945f0b806152fd575061517e5f9687965b5f0b806152de57506151755f9889926145cf565b60ff16936145cf565b60ff16915b60ff81169060ff861682148015906152d1575b15614da3578688915f5b600860ff8216106151d25750506151be60ff916151c9945f0b6145cf565b811694165f0b6145cf565b60ff1691615183565b915091505f5b600860ff8216106151f657506151ed90612718565b889188916151a0565b6008821015612661576152098183612648565b90549060031b1c5f0b7f00000000000000000000000000000000000000000000000000000000000000005f0b81149081156152ba575b8115615282575b506152795761525786848385612f36565b6152695761526490612718565b6151d8565b5050505050509350505050600190565b61526490612718565b61528c9150612dcf565b60ff807f0000000000000000000000000000000000000000000000000000000000000000169116145f615246565b90505f6152c78783612d42565b810b13159061523f565b508860ff85161415615196565b5f12156152f35761517560015b9889926145cf565b6151755f196152eb565b5f12156153125761517e60015b968796615161565b61517e5f1961530a565b5093505050505f90565b6150fa60ff60085460581c1694612dcf565b60ff60085460501c16926150e3565b6001926150ca565b60ff600f541660058110156100355780156137d457600181146153985760028114615392576003811461538c57600414615387575f90565b600590565b50600490565b50600390565b50600290565b60018060a01b039060ff8260115416600f54938460081c1614921660058110156100355760010361542c5781156153fd576153db600c5443612c39565b600e54908181106153ef5750505f5b915f91565b6153f891612c39565b6153ea565b9061540a600d5443612c39565b600e549081811061541e5750505f5b905f92565b61542791612c39565b615419565b5f91829156fe00a8b06dd72552dea96e97c9a96acf39a1908ada44765cefe367620485b2c7e195681e512bc0fe659e195e06c283eada494316f3d801213e48e7101af92bf7707de434f9168186fcb0e74da7dead1bc82322202f75330ba72b80d27dd4926218335c82276d0b79a1d1920709e66ffd09ec3f814451cbf8001d5d6965416233b8a2646970667358221220cdb2248455a4c2b3b77f95afd6816bc6f41fa56efcb81227f0e4438ef43fe58464736f6c63430008140033a26469706673582212206710dc2972a945d1a2e017b218454b078874e454ba0283864220979ed298182e64736f6c6343000814003360a034620003c257601f906001600160401b0390601f199062001760388190038581018416830185811184821017620003ae57839282916040528339602092839181010312620003c257516001600160a01b03948582169491859003620003c2576200006a620003c6565b92600884526710da195cdcd3919560c21b8185015262000089620003c6565b906005825264436865737360d81b81830152845195848711620003ae575f968754966001978881811c91168015620003a3575b858210146200038f579081878493116200033c575b508490878311600114620002dc578a92620002d0575b50505f19600383901b1c191690871b1787555b8251948511620002bc5785548681811c91168015620002b1575b838210146200029d5790818587969594931162000244575b5081938511600114620001e05750508592620001d4575b50505f19600383901b1c191690821b1790555b8115620001bc57600a80546001600160a01b0319811684179091556040519316907f8be0079c531659141344cd1fd0a4f28419497f9722a3daafe3b4186f6b6457e09080a3336080526113799081620003e782396080518181816102e901526105820152f35b60249060405190631e4fbdf760e01b82526004820152fd5b015190505f8062000143565b869593929193168588528388209388905b8282106200022a575050841162000211575b505050811b01905562000156565b01515f1960f88460031b161c191690555f808062000203565b8484015186558897909501949384019390810190620001f1565b9091929394508688528288208580880160051c82019285891062000293575b9188978a9297969594930160051c01915b828110620002845750506200012c565b8a815588975089910162000274565b9250819262000263565b634e487b7160e01b88526022600452602488fd5b90607f169062000114565b634e487b7160e01b87526041600452602487fd5b015190505f80620000e7565b90848a9416918b8052868c20928c5b888282106200032557505084116200030c575b505050811b018755620000fa565b01515f1960f88460031b161c191690555f8080620002fe565b8385015186558d97909501949384019301620002eb565b909150898052848a208780850160051c82019287861062000385575b918b91869594930160051c01915b82811062000376575050620000d1565b8c81558594508b910162000366565b9250819262000358565b634e487b7160e01b8a52602260045260248afd5b90607f1690620000bc565b634e487b7160e01b5f52604160045260245ffd5b5f80fd5b60408051919082016001600160401b03811183821017620003ae5760405256fe6080806040526004361015610012575f80fd5b5f3560e01c90816301ffc9a714610ca95750806306fdde0314610c0b578063081812fc14610bcf578063095ea7b314610aee57806313ec0eb714610aac57806318160ddd14610a8f57806323b872dd14610a785780632f745c5914610a0357806342842e0e146109c95780634f6ccce714610974578063562d60b7146109425780636352211e1461091257806370a08231146108e7578063715018a61461089f5780638cced9a6146105525780638da5cb5b1461052a57806395d89b4114610442578063a22cb465146103a1578063b88d4fde14610318578063c45a0155146102d4578063c87b56dd146101e2578063e985e9c5146101905763f2fde38b14610119575f80fd5b3461018c57602036600319011261018c57610132610d74565b61013a610e57565b6001600160a01b0390811690811561017457600a80546001600160a01b031981168417909155165f805160206113048339815191525f80a3005b604051631e4fbdf760e01b81525f6004820152602490fd5b5f80fd5b3461018c57604036600319011261018c576101a9610d74565b6101b1610d8a565b9060018060a01b038091165f52600560205260405f2091165f52602052602060ff60405f2054166040519015158152f35b3461018c5760208060031936011261018c575f90610201600435610da0565b905460405163042bc8db60e11b815293918491600491839160039190911b1c6001600160a01b03165afa9182156102c9575f92610252575b5061024e604051928284938452830190610d4f565b0390f35b9091503d805f833e6102648183610e19565b810190828183031261018c578051906001600160401b03821161018c570181601f8201121561018c57805161029881610e3c565b926102a66040519485610e19565b81845284828401011161018c576102c291848085019101610d2e565b9082610239565b6040513d5f823e3d90fd5b3461018c575f36600319011261018c576040517f00000000000000000000000000000000000000000000000000000000000000006001600160a01b03168152602090f35b3461018c57608036600319011261018c57610331610d74565b610339610d8a565b606435916001600160401b03831161018c573660238401121561018c5782600401359161036583610e3c565b926103736040519485610e19565b808452366024828701011161018c576020815f92602461039f9801838801378501015260443591611127565b005b3461018c57604036600319011261018c576103ba610d74565b6024359081151580920361018c576001600160a01b031690811561042957335f52600560205260405f20825f5260205260405f2060ff1981541660ff83161790556040519081527f17307eab39ab6107e8899845ad3d59bd9653f200f220920489ca2b5937696c3160203392a3005b604051630b61174360e31b815260048101839052602490fd5b3461018c575f36600319011261018c576040515f60019081549182811c91818416918215610520575b602094858510841461050c5785879486865291825f146104ec5750506001146104b0575b5061049c92500383610e19565b61024e604051928284938452830190610d4f565b849150805f52815f20905f915b8583106104d457505061049c93508201018561048f565b805483890185015287945086939092019181016104bd565b60ff19168582015261049c95151560051b850101925087915061048f9050565b634e487b7160e01b5f52602260045260245ffd5b92607f169261046b565b3461018c575f36600319011261018c57600a546040516001600160a01b039091168152602090f35b3461018c57606036600319011261018c5761056b610d8a565b6001600160a01b03604435808216900361018c57807f000000000000000000000000000000000000000000000000000000000000000016330361085d576004355f52600b6020528060405f20541661081857600c54600160401b811015610748578060016105dc9201600c55610da0565b81549060031b9083808616831b921b1916179055806044351615610800576004355f5260026020528060405f205416806107dd575b60443582165f818152600360209081526040808320805460010190556004358084526002909252822080546001600160a01b03191684179055919083905f805160206113248339815191529080a48061075c576008546004355f5260096020528060405f2055600160401b8110156107485761069681600161069f9301600855610dcc565b600435916112ec565b816044351681036106ec575b6106d4576004355f908152600b6020526040902080546001600160a01b03191691909216179055005b6040516339e3563760e11b81525f6004820152602490fd5b6106f7604435610e83565b5f1981019081116107345782604435165f52600660205260405f20815f5260205260043560405f20556004355f52600760205260405f20556106ab565b634e487b7160e01b5f52601160045260245ffd5b634e487b7160e01b5f52604160045260245ffd5b6044358216811461069f5761077081610e83565b6004355f52600760205260405f205490825f52600660205260405f20918181036107b6575b506004355f5260076020525f60408120555f526020525f604081205561069f565b815f528260205260405f2054815f528060405f20555f52600760205260405f205585610795565b6107e860043561127a565b805f52600360205260405f205f198154019055610611565b604051633250574960e11b81525f6004820152602490fd5b60405162461bcd60e51b815260206004820152601f60248201527f4e465420666f72207468652067616d6520616c726561647920657869737473006044820152606490fd5b60405162461bcd60e51b815260206004820152601a6024820152794f6e6c7920666163746f72792063616e206d696e74204e46547360301b6044820152606490fd5b3461018c575f36600319011261018c576108b7610e57565b600a80546001600160a01b031981169091555f906001600160a01b03165f805160206113048339815191528280a3005b3461018c57602036600319011261018c57602061090a610905610d74565b610e83565b604051908152f35b3461018c57602036600319011261018c576020610930600435611297565b6040516001600160a01b039091168152f35b3461018c57602036600319011261018c576004355f52600b602052602060018060a01b0360405f205416604051908152f35b3461018c57602036600319011261018c576004356008548110156109ab5761099d602091610dcc565b90546040519160031b1c8152f35b6044906040519063295f44f760e21b82525f60048301526024820152fd5b3461018c576109d736610de4565b60405160208101939092906001600160401b038511848610176107485761039f946040525f8452611127565b3461018c57604036600319011261018c57610a1c610d74565b60243590610a2981610e83565b821015610a585760018060a01b03165f52600660205260405f20905f52602052602060405f2054604051908152f35b610a7460405192839263295f44f760e21b8452600484016112d1565b0390fd5b3461018c5761039f610a8936610de4565b91610eb9565b3461018c575f36600319011261018c576020600854604051908152f35b3461018c57602036600319011261018c57600435600c5481101561018c57610ad5602091610da0565b905460405160039290921b1c6001600160a01b03168152f35b3461018c57604036600319011261018c57610b07610d74565b602435610b1381611297565b33151580610bbc575b80610b93575b610b7b576001600160a01b039283169282918491167f8c5be1e5ebec7d5bd14f71427d1e84f3dd0314c0f7b2291e5b200ac8c7c3b9255f80a45f90815260046020526040902080546001600160a01b0319169091179055005b60405163a9fbf51f60e01b8152336004820152602490fd5b5060018060a01b0381165f52600560205260405f20335f5260205260ff60405f20541615610b22565b506001600160a01b038116331415610b1c565b3461018c57602036600319011261018c57600435610bec81611297565b505f526004602052602060018060a01b0360405f205416604051908152f35b3461018c575f36600319011261018c576040515f805490600182811c91818416918215610c9f575b602094858510841461050c5785879486865291825f146104ec575050600114610c63575061049c92500383610e19565b8491505f8052815f20905f915b858310610c8757505061049c93508201018561048f565b80548389018501528794508693909201918101610c70565b92607f1692610c33565b3461018c57602036600319011261018c576004359063ffffffff60e01b821680920361018c5760209163780e9d6360e01b8114908115610ceb575b5015158152f35b6380ac58cd60e01b811491508115610d1d575b8115610d0c575b5083610ce4565b6301ffc9a760e01b14905083610d05565b635b5e139f60e01b81149150610cfe565b5f5b838110610d3f5750505f910152565b8181015183820152602001610d30565b90602091610d6881518092818552858086019101610d2e565b601f01601f1916010190565b600435906001600160a01b038216820361018c57565b602435906001600160a01b038216820361018c57565b600c54811015610db857600c5f5260205f2001905f90565b634e487b7160e01b5f52603260045260245ffd5b600854811015610db85760085f5260205f2001905f90565b606090600319011261018c576001600160a01b0390600435828116810361018c5791602435908116810361018c579060443590565b601f909101601f19168101906001600160401b0382119082101761074857604052565b6001600160401b03811161074857601f01601f191660200190565b600a546001600160a01b03163303610e6b57565b60405163118cdaa760e01b8152336004820152602490fd5b6001600160a01b03168015610ea1575f52600360205260405f205490565b6040516322718ad960e21b81525f6004820152602490fd5b6001600160a01b0382811693918415610800575f9483865260209560028752604096848883205416963315158061109b575b508715801561107c575b84845260038352898420805460010190558784526002835289842080546001600160a01b0319168617905587858a5f805160206113248339815191528780a4156110105760085487845260098352898420819055600160401b811015610ffc5787610f69826001610f6f9401600855610dcc565b906112ec565b838803610fab575b505050501692838303610f8a5750505050565b6064945051926364283d7b60e01b8452600484015260248301526044820152fd5b610fb490610e83565b5f19810193908411610fe85782916007918a945260068152838320858452815287848420558783525220555f808080610f77565b634e487b7160e01b83526011600452602483fd5b634e487b7160e01b84526041600452602484fd5b878414610f6f5761102088610e83565b878452600783528984205490898552600684528a85209181810361105a575b5088855260078452848b812055845282528289812055610f6f565b8186528285528b862054818752808d8820558652600785528b8620555f61103f565b6110858861127a565b8884526003835289842080545f19019055610ef5565b806110e6575b156110ac575f610eeb565b8887896110c9576024915190637e27328960e01b82526004820152fd5b905163177e802f60e01b8152908190610a749033600484016112d1565b50338814801561110b575b806110a157508683526004825233868a85205416146110a1565b5087835260058252888320338452825260ff89842054166110f1565b929092611135838583610eb9565b833b611142575b50505050565b604051630a85bd0160e11b8082523360048301526001600160a01b039283166024830152604482019490945260806064820152949316926020929091859061118e906084830190610d4f565b039483815f978189895af1869181611236575b50611201575050503d5f146111f8573d6111ba81610e3c565b906111c86040519283610e19565b81528093823d92013e5b825192836111f357604051633250574960e11b815260048101849052602490fd5b019050fd5b606092506111d2565b919450915063ffffffff60e01b160361121e57505f80808061113c565b60249060405190633250574960e11b82526004820152fd5b9091508481813d8311611273575b61124e8183610e19565b8101031261126f57516001600160e01b03198116810361126f57905f6111a1565b8680fd5b503d611244565b5f90815260046020526040902080546001600160a01b0319169055565b5f818152600260205260409020546001600160a01b03169081156112b9575090565b60249060405190637e27328960e01b82526004820152fd5b6001600160a01b039091168152602081019190915260400190565b919082549060031b91821b915f19901b191617905556fe8be0079c531659141344cd1fd0a4f28419497f9722a3daafe3b4186f6b6457e0ddf252ad1be2c89b69c2b068fc378daa952ba7f163c4a11628f55a4df523b3efa2646970667358221220e2ec66585e6fb9f3952d13cf54a959d106ff1dba0d6dc10db05139c74dd0259564736f6c63430008140033",
  "immutableReferences": {},
  "source": "// SPDX-License-Identifier: MIT\npragma solidity ^0.8.20;\n\nimport \"./ChessCore.sol\";\nimport \"./ChessNFT.sol\";\n\ncontract ChessFactory {\n    address[] public deployedChessGames;\n    address public addressNFT;\n    uint256 public totalChessGames;\n\n    // Bet limits (can be adjusted for different networks)\n    uint256 public constant MIN_BET = 0.001 ether;\n    uint256 public constant MAX_BET = 100 ether;\n\n    event GameCreated(\n        uint256 indexed gameId,\n        address indexed gameAddress,\n        address indexed whitePlayer,\n        uint256 betAmount,\n        ChessCore.TimeoutPreset timeoutPreset\n    );\n\n    constructor(){\n        ChessNFT newChessNFT = new ChessNFT(msg.sender);\n        addressNFT = address(newChessNFT);\n    }\n\n    function createChessGame(ChessCore.TimeoutPreset _timeoutPreset) public payable returns (address) {\n        require(msg.value >= MIN_BET, \"Bet amount too low\");\n        require(msg.value <= MAX_BET, \"Bet amount too high\");\n\n        ChessCore newChessGame = new ChessCore{value: msg.value}(msg.sender, msg.value, _timeoutPreset);\n        address toRet = address(newChessGame);\n        deployedChessGames.push(toRet);\n\n        uint256 gameId = totalChessGames;\n        totalChessGames++;\n\n        ChessNFT(addressNFT).createGameNFT(gameId, toRet, msg.sender);\n\n        emit GameCreated(gameId, toRet, msg.sender, msg.value, _timeoutPreset);\n        return toRet;\n    }\n \n    function getDeployedChessGames() public view returns (address[] memory) {\n        return deployedChessGames;\n    }\n\n}",
  "sourcePath": "/Users/jacopo/Documents/solidity/chessgame/ethereum/contracts/Chess/ChessFactory.sol",
  "compiler": {
    "name": "solc",
    "version": "0.8.20+commit.a1b79de6.Emscripten.clang"
  },
  "schemaVersion": "3.4.16",
  "updatedAt": "2025-12-29T15:14:39.652Z",
  "devdoc": {
    "kind": "dev",
    "methods": {},
    "version": 1
  },
  "userdoc": {
    "kind": "user",
    "methods": {},
    "version": 1
  }
}