{
  "contractName": "ChessGovernor",
  "abi": [
    {
      "inputs": [
        {
          "internalType": "contract IVotes",
          "name": "_token",
          "type": "address"
        },
        {
          "internalType": "contract TimelockController",
          "name": "_timelock",
          "type": "address"
        }
      ],
      "stateMutability": "nonpayable",
      "type": "constructor"
    },
    {
      "inputs": [],
      "name": "CheckpointUnorderedInsertion",
      "type": "error"
    },
    {
      "inputs": [],
      "name": "FailedCall",
      "type": "error"
    },
    {
      "inputs": [
        {
          "internalType": "address",
          "name": "voter",
          "type": "address"
        }
      ],
      "name": "GovernorAlreadyCastVote",
      "type": "error"
    },
    {
      "inputs": [
        {
          "internalType": "uint256",
          "name": "proposalId",
          "type": "uint256"
        }
      ],
      "name": "GovernorAlreadyQueuedProposal",
      "type": "error"
    },
    {
      "inputs": [],
      "name": "GovernorDisabledDeposit",
      "type": "error"
    },
    {
      "inputs": [
        {
          "internalType": "address",
          "name": "proposer",
          "type": "address"
        },
        {
          "internalType": "uint256",
          "name": "votes",
          "type": "uint256"
        },
        {
          "internalType": "uint256",
          "name": "threshold",
          "type": "uint256"
        }
      ],
      "name": "GovernorInsufficientProposerVotes",
      "type": "error"
    },
    {
      "inputs": [
        {
          "internalType": "uint256",
          "name": "targets",
          "type": "uint256"
        },
        {
          "internalType": "uint256",
          "name": "calldatas",
          "type": "uint256"
        },
        {
          "internalType": "uint256",
          "name": "values",
          "type": "uint256"
        }
      ],
      "name": "GovernorInvalidProposalLength",
      "type": "error"
    },
    {
      "inputs": [
        {
          "internalType": "uint256",
          "name": "quorumNumerator",
          "type": "uint256"
        },
        {
          "internalType": "uint256",
          "name": "quorumDenominator",
          "type": "uint256"
        }
      ],
      "name": "GovernorInvalidQuorumFraction",
      "type": "error"
    },
    {
      "inputs": [
        {
          "internalType": "address",
          "name": "voter",
          "type": "address"
        }
      ],
      "name": "GovernorInvalidSignature",
      "type": "error"
    },
    {
      "inputs": [],
      "name": "GovernorInvalidVoteParams",
      "type": "error"
    },
    {
      "inputs": [],
      "name": "GovernorInvalidVoteType",
      "type": "error"
    },
    {
      "inputs": [
        {
          "internalType": "uint256",
          "name": "votingPeriod",
          "type": "uint256"
        }
      ],
      "name": "GovernorInvalidVotingPeriod",
      "type": "error"
    },
    {
      "inputs": [
        {
          "internalType": "uint256",
          "name": "proposalId",
          "type": "uint256"
        }
      ],
      "name": "GovernorNonexistentProposal",
      "type": "error"
    },
    {
      "inputs": [
        {
          "internalType": "uint256",
          "name": "proposalId",
          "type": "uint256"
        }
      ],
      "name": "GovernorNotQueuedProposal",
      "type": "error"
    },
    {
      "inputs": [
        {
          "internalType": "address",
          "name": "account",
          "type": "address"
        }
      ],
      "name": "GovernorOnlyExecutor",
      "type": "error"
    },
    {
      "inputs": [],
      "name": "GovernorQueueNotImplemented",
      "type": "error"
    },
    {
      "inputs": [
        {
          "internalType": "address",
          "name": "proposer",
          "type": "address"
        }
      ],
      "name": "GovernorRestrictedProposer",
      "type": "error"
    },
    {
      "inputs": [
        {
          "internalType": "uint256",
          "name": "proposalId",
          "type": "uint256"
        },
        {
          "internalType": "address",
          "name": "account",
          "type": "address"
        }
      ],
      "name": "GovernorUnableToCancel",
      "type": "error"
    },
    {
      "inputs": [
        {
          "internalType": "uint256",
          "name": "proposalId",
          "type": "uint256"
        },
        {
          "internalType": "enum IGovernor.ProposalState",
          "name": "current",
          "type": "uint8"
        },
        {
          "internalType": "bytes32",
          "name": "expectedStates",
          "type": "bytes32"
        }
      ],
      "name": "GovernorUnexpectedProposalState",
      "type": "error"
    },
    {
      "inputs": [
        {
          "internalType": "address",
          "name": "account",
          "type": "address"
        },
        {
          "internalType": "uint256",
          "name": "currentNonce",
          "type": "uint256"
        }
      ],
      "name": "InvalidAccountNonce",
      "type": "error"
    },
    {
      "inputs": [],
      "name": "InvalidShortString",
      "type": "error"
    },
    {
      "inputs": [
        {
          "internalType": "uint8",
          "name": "bits",
          "type": "uint8"
        },
        {
          "internalType": "uint256",
          "name": "value",
          "type": "uint256"
        }
      ],
      "name": "SafeCastOverflowedUintDowncast",
      "type": "error"
    },
    {
      "inputs": [
        {
          "internalType": "string",
          "name": "str",
          "type": "string"
        }
      ],
      "name": "StringTooLong",
      "type": "error"
    },
    {
      "anonymous": false,
      "inputs": [],
      "name": "EIP712DomainChanged",
      "type": "event"
    },
    {
      "anonymous": false,
      "inputs": [
        {
          "indexed": false,
          "internalType": "uint256",
          "name": "proposalId",
          "type": "uint256"
        }
      ],
      "name": "ProposalCanceled",
      "type": "event"
    },
    {
      "anonymous": false,
      "inputs": [
        {
          "indexed": false,
          "internalType": "uint256",
          "name": "proposalId",
          "type": "uint256"
        },
        {
          "indexed": false,
          "internalType": "address",
          "name": "proposer",
          "type": "address"
        },
        {
          "indexed": false,
          "internalType": "address[]",
          "name": "targets",
          "type": "address[]"
        },
        {
          "indexed": false,
          "internalType": "uint256[]",
          "name": "values",
          "type": "uint256[]"
        },
        {
          "indexed": false,
          "internalType": "string[]",
          "name": "signatures",
          "type": "string[]"
        },
        {
          "indexed": false,
          "internalType": "bytes[]",
          "name": "calldatas",
          "type": "bytes[]"
        },
        {
          "indexed": false,
          "internalType": "uint256",
          "name": "voteStart",
          "type": "uint256"
        },
        {
          "indexed": false,
          "internalType": "uint256",
          "name": "voteEnd",
          "type": "uint256"
        },
        {
          "indexed": false,
          "internalType": "string",
          "name": "description",
          "type": "string"
        }
      ],
      "name": "ProposalCreated",
      "type": "event"
    },
    {
      "anonymous": false,
      "inputs": [
        {
          "indexed": false,
          "internalType": "uint256",
          "name": "proposalId",
          "type": "uint256"
        }
      ],
      "name": "ProposalExecuted",
      "type": "event"
    },
    {
      "anonymous": false,
      "inputs": [
        {
          "indexed": false,
          "internalType": "uint256",
          "name": "proposalId",
          "type": "uint256"
        },
        {
          "indexed": false,
          "internalType": "uint256",
          "name": "etaSeconds",
          "type": "uint256"
        }
      ],
      "name": "ProposalQueued",
      "type": "event"
    },
    {
      "anonymous": false,
      "inputs": [
        {
          "indexed": false,
          "internalType": "uint256",
          "name": "oldProposalThreshold",
          "type": "uint256"
        },
        {
          "indexed": false,
          "internalType": "uint256",
          "name": "newProposalThreshold",
          "type": "uint256"
        }
      ],
      "name": "ProposalThresholdSet",
      "type": "event"
    },
    {
      "anonymous": false,
      "inputs": [
        {
          "indexed": false,
          "internalType": "uint256",
          "name": "oldQuorumNumerator",
          "type": "uint256"
        },
        {
          "indexed": false,
          "internalType": "uint256",
          "name": "newQuorumNumerator",
          "type": "uint256"
        }
      ],
      "name": "QuorumNumeratorUpdated",
      "type": "event"
    },
    {
      "anonymous": false,
      "inputs": [
        {
          "indexed": false,
          "internalType": "address",
          "name": "oldTimelock",
          "type": "address"
        },
        {
          "indexed": false,
          "internalType": "address",
          "name": "newTimelock",
          "type": "address"
        }
      ],
      "name": "TimelockChange",
      "type": "event"
    },
    {
      "anonymous": false,
      "inputs": [
        {
          "indexed": true,
          "internalType": "address",
          "name": "voter",
          "type": "address"
        },
        {
          "indexed": false,
          "internalType": "uint256",
          "name": "proposalId",
          "type": "uint256"
        },
        {
          "indexed": false,
          "internalType": "uint8",
          "name": "support",
          "type": "uint8"
        },
        {
          "indexed": false,
          "internalType": "uint256",
          "name": "weight",
          "type": "uint256"
        },
        {
          "indexed": false,
          "internalType": "string",
          "name": "reason",
          "type": "string"
        }
      ],
      "name": "VoteCast",
      "type": "event"
    },
    {
      "anonymous": false,
      "inputs": [
        {
          "indexed": true,
          "internalType": "address",
          "name": "voter",
          "type": "address"
        },
        {
          "indexed": false,
          "internalType": "uint256",
          "name": "proposalId",
          "type": "uint256"
        },
        {
          "indexed": false,
          "internalType": "uint8",
          "name": "support",
          "type": "uint8"
        },
        {
          "indexed": false,
          "internalType": "uint256",
          "name": "weight",
          "type": "uint256"
        },
        {
          "indexed": false,
          "internalType": "string",
          "name": "reason",
          "type": "string"
        },
        {
          "indexed": false,
          "internalType": "bytes",
          "name": "params",
          "type": "bytes"
        }
      ],
      "name": "VoteCastWithParams",
      "type": "event"
    },
    {
      "anonymous": false,
      "inputs": [
        {
          "indexed": false,
          "internalType": "uint256",
          "name": "oldVotingDelay",
          "type": "uint256"
        },
        {
          "indexed": false,
          "internalType": "uint256",
          "name": "newVotingDelay",
          "type": "uint256"
        }
      ],
      "name": "VotingDelaySet",
      "type": "event"
    },
    {
      "anonymous": false,
      "inputs": [
        {
          "indexed": false,
          "internalType": "uint256",
          "name": "oldVotingPeriod",
          "type": "uint256"
        },
        {
          "indexed": false,
          "internalType": "uint256",
          "name": "newVotingPeriod",
          "type": "uint256"
        }
      ],
      "name": "VotingPeriodSet",
      "type": "event"
    },
    {
      "inputs": [],
      "name": "BALLOT_TYPEHASH",
      "outputs": [
        {
          "internalType": "bytes32",
          "name": "",
          "type": "bytes32"
        }
      ],
      "stateMutability": "view",
      "type": "function"
    },
    {
      "inputs": [],
      "name": "CLOCK_MODE",
      "outputs": [
        {
          "internalType": "string",
          "name": "",
          "type": "string"
        }
      ],
      "stateMutability": "view",
      "type": "function"
    },
    {
      "inputs": [],
      "name": "COUNTING_MODE",
      "outputs": [
        {
          "internalType": "string",
          "name": "",
          "type": "string"
        }
      ],
      "stateMutability": "pure",
      "type": "function"
    },
    {
      "inputs": [],
      "name": "EXTENDED_BALLOT_TYPEHASH",
      "outputs": [
        {
          "internalType": "bytes32",
          "name": "",
          "type": "bytes32"
        }
      ],
      "stateMutability": "view",
      "type": "function"
    },
    {
      "inputs": [
        {
          "internalType": "address[]",
          "name": "targets",
          "type": "address[]"
        },
        {
          "internalType": "uint256[]",
          "name": "values",
          "type": "uint256[]"
        },
        {
          "internalType": "bytes[]",
          "name": "calldatas",
          "type": "bytes[]"
        },
        {
          "internalType": "bytes32",
          "name": "descriptionHash",
          "type": "bytes32"
        }
      ],
      "name": "cancel",
      "outputs": [
        {
          "internalType": "uint256",
          "name": "",
          "type": "uint256"
        }
      ],
      "stateMutability": "nonpayable",
      "type": "function"
    },
    {
      "inputs": [
        {
          "internalType": "uint256",
          "name": "proposalId",
          "type": "uint256"
        },
        {
          "internalType": "uint8",
          "name": "support",
          "type": "uint8"
        }
      ],
      "name": "castVote",
      "outputs": [
        {
          "internalType": "uint256",
          "name": "",
          "type": "uint256"
        }
      ],
      "stateMutability": "nonpayable",
      "type": "function"
    },
    {
      "inputs": [
        {
          "internalType": "uint256",
          "name": "proposalId",
          "type": "uint256"
        },
        {
          "internalType": "uint8",
          "name": "support",
          "type": "uint8"
        },
        {
          "internalType": "address",
          "name": "voter",
          "type": "address"
        },
        {
          "internalType": "bytes",
          "name": "signature",
          "type": "bytes"
        }
      ],
      "name": "castVoteBySig",
      "outputs": [
        {
          "internalType": "uint256",
          "name": "",
          "type": "uint256"
        }
      ],
      "stateMutability": "nonpayable",
      "type": "function"
    },
    {
      "inputs": [
        {
          "internalType": "uint256",
          "name": "proposalId",
          "type": "uint256"
        },
        {
          "internalType": "uint8",
          "name": "support",
          "type": "uint8"
        },
        {
          "internalType": "string",
          "name": "reason",
          "type": "string"
        }
      ],
      "name": "castVoteWithReason",
      "outputs": [
        {
          "internalType": "uint256",
          "name": "",
          "type": "uint256"
        }
      ],
      "stateMutability": "nonpayable",
      "type": "function"
    },
    {
      "inputs": [
        {
          "internalType": "uint256",
          "name": "proposalId",
          "type": "uint256"
        },
        {
          "internalType": "uint8",
          "name": "support",
          "type": "uint8"
        },
        {
          "internalType": "string",
          "name": "reason",
          "type": "string"
        },
        {
          "internalType": "bytes",
          "name": "params",
          "type": "bytes"
        }
      ],
      "name": "castVoteWithReasonAndParams",
      "outputs": [
        {
          "internalType": "uint256",
          "name": "",
          "type": "uint256"
        }
      ],
      "stateMutability": "nonpayable",
      "type": "function"
    },
    {
      "inputs": [
        {
          "internalType": "uint256",
          "name": "proposalId",
          "type": "uint256"
        },
        {
          "internalType": "uint8",
          "name": "support",
          "type": "uint8"
        },
        {
          "internalType": "address",
          "name": "voter",
          "type": "address"
        },
        {
          "internalType": "string",
          "name": "reason",
          "type": "string"
        },
        {
          "internalType": "bytes",
          "name": "params",
          "type": "bytes"
        },
        {
          "internalType": "bytes",
          "name": "signature",
          "type": "bytes"
        }
      ],
      "name": "castVoteWithReasonAndParamsBySig",
      "outputs": [
        {
          "internalType": "uint256",
          "name": "",
          "type": "uint256"
        }
      ],
      "stateMutability": "nonpayable",
      "type": "function"
    },
    {
      "inputs": [],
      "name": "clock",
      "outputs": [
        {
          "internalType": "uint48",
          "name": "",
          "type": "uint48"
        }
      ],
      "stateMutability": "view",
      "type": "function"
    },
    {
      "inputs": [],
      "name": "eip712Domain",
      "outputs": [
        {
          "internalType": "bytes1",
          "name": "fields",
          "type": "bytes1"
        },
        {
          "internalType": "string",
          "name": "name",
          "type": "string"
        },
        {
          "internalType": "string",
          "name": "version",
          "type": "string"
        },
        {
          "internalType": "uint256",
          "name": "chainId",
          "type": "uint256"
        },
        {
          "internalType": "address",
          "name": "verifyingContract",
          "type": "address"
        },
        {
          "internalType": "bytes32",
          "name": "salt",
          "type": "bytes32"
        },
        {
          "internalType": "uint256[]",
          "name": "extensions",
          "type": "uint256[]"
        }
      ],
      "stateMutability": "view",
      "type": "function"
    },
    {
      "inputs": [
        {
          "internalType": "address[]",
          "name": "targets",
          "type": "address[]"
        },
        {
          "internalType": "uint256[]",
          "name": "values",
          "type": "uint256[]"
        },
        {
          "internalType": "bytes[]",
          "name": "calldatas",
          "type": "bytes[]"
        },
        {
          "internalType": "bytes32",
          "name": "descriptionHash",
          "type": "bytes32"
        }
      ],
      "name": "execute",
      "outputs": [
        {
          "internalType": "uint256",
          "name": "",
          "type": "uint256"
        }
      ],
      "stateMutability": "payable",
      "type": "function"
    },
    {
      "inputs": [
        {
          "internalType": "address[]",
          "name": "targets",
          "type": "address[]"
        },
        {
          "internalType": "uint256[]",
          "name": "values",
          "type": "uint256[]"
        },
        {
          "internalType": "bytes[]",
          "name": "calldatas",
          "type": "bytes[]"
        },
        {
          "internalType": "bytes32",
          "name": "descriptionHash",
          "type": "bytes32"
        }
      ],
      "name": "getProposalId",
      "outputs": [
        {
          "internalType": "uint256",
          "name": "",
          "type": "uint256"
        }
      ],
      "stateMutability": "view",
      "type": "function"
    },
    {
      "inputs": [
        {
          "internalType": "address",
          "name": "account",
          "type": "address"
        },
        {
          "internalType": "uint256",
          "name": "timepoint",
          "type": "uint256"
        }
      ],
      "name": "getVotes",
      "outputs": [
        {
          "internalType": "uint256",
          "name": "",
          "type": "uint256"
        }
      ],
      "stateMutability": "view",
      "type": "function"
    },
    {
      "inputs": [
        {
          "internalType": "address",
          "name": "account",
          "type": "address"
        },
        {
          "internalType": "uint256",
          "name": "timepoint",
          "type": "uint256"
        },
        {
          "internalType": "bytes",
          "name": "params",
          "type": "bytes"
        }
      ],
      "name": "getVotesWithParams",
      "outputs": [
        {
          "internalType": "uint256",
          "name": "",
          "type": "uint256"
        }
      ],
      "stateMutability": "view",
      "type": "function"
    },
    {
      "inputs": [
        {
          "internalType": "uint256",
          "name": "proposalId",
          "type": "uint256"
        },
        {
          "internalType": "address",
          "name": "account",
          "type": "address"
        }
      ],
      "name": "hasVoted",
      "outputs": [
        {
          "internalType": "bool",
          "name": "",
          "type": "bool"
        }
      ],
      "stateMutability": "view",
      "type": "function"
    },
    {
      "inputs": [
        {
          "internalType": "address[]",
          "name": "targets",
          "type": "address[]"
        },
        {
          "internalType": "uint256[]",
          "name": "values",
          "type": "uint256[]"
        },
        {
          "internalType": "bytes[]",
          "name": "calldatas",
          "type": "bytes[]"
        },
        {
          "internalType": "bytes32",
          "name": "descriptionHash",
          "type": "bytes32"
        }
      ],
      "name": "hashProposal",
      "outputs": [
        {
          "internalType": "uint256",
          "name": "",
          "type": "uint256"
        }
      ],
      "stateMutability": "pure",
      "type": "function"
    },
    {
      "inputs": [],
      "name": "name",
      "outputs": [
        {
          "internalType": "string",
          "name": "",
          "type": "string"
        }
      ],
      "stateMutability": "view",
      "type": "function"
    },
    {
      "inputs": [
        {
          "internalType": "address",
          "name": "owner",
          "type": "address"
        }
      ],
      "name": "nonces",
      "outputs": [
        {
          "internalType": "uint256",
          "name": "",
          "type": "uint256"
        }
      ],
      "stateMutability": "view",
      "type": "function"
    },
    {
      "inputs": [
        {
          "internalType": "address",
          "name": "",
          "type": "address"
        },
        {
          "internalType": "address",
          "name": "",
          "type": "address"
        },
        {
          "internalType": "uint256[]",
          "name": "",
          "type": "uint256[]"
        },
        {
          "internalType": "uint256[]",
          "name": "",
          "type": "uint256[]"
        },
        {
          "internalType": "bytes",
          "name": "",
          "type": "bytes"
        }
      ],
      "name": "onERC1155BatchReceived",
      "outputs": [
        {
          "internalType": "bytes4",
          "name": "",
          "type": "bytes4"
        }
      ],
      "stateMutability": "nonpayable",
      "type": "function"
    },
    {
      "inputs": [
        {
          "internalType": "address",
          "name": "",
          "type": "address"
        },
        {
          "internalType": "address",
          "name": "",
          "type": "address"
        },
        {
          "internalType": "uint256",
          "name": "",
          "type": "uint256"
        },
        {
          "internalType": "uint256",
          "name": "",
          "type": "uint256"
        },
        {
          "internalType": "bytes",
          "name": "",
          "type": "bytes"
        }
      ],
      "name": "onERC1155Received",
      "outputs": [
        {
          "internalType": "bytes4",
          "name": "",
          "type": "bytes4"
        }
      ],
      "stateMutability": "nonpayable",
      "type": "function"
    },
    {
      "inputs": [
        {
          "internalType": "address",
          "name": "",
          "type": "address"
        },
        {
          "internalType": "address",
          "name": "",
          "type": "address"
        },
        {
          "internalType": "uint256",
          "name": "",
          "type": "uint256"
        },
        {
          "internalType": "bytes",
          "name": "",
          "type": "bytes"
        }
      ],
      "name": "onERC721Received",
      "outputs": [
        {
          "internalType": "bytes4",
          "name": "",
          "type": "bytes4"
        }
      ],
      "stateMutability": "nonpayable",
      "type": "function"
    },
    {
      "inputs": [
        {
          "internalType": "uint256",
          "name": "proposalId",
          "type": "uint256"
        }
      ],
      "name": "proposalDeadline",
      "outputs": [
        {
          "internalType": "uint256",
          "name": "",
          "type": "uint256"
        }
      ],
      "stateMutability": "view",
      "type": "function"
    },
    {
      "inputs": [
        {
          "internalType": "uint256",
          "name": "proposalId",
          "type": "uint256"
        }
      ],
      "name": "proposalEta",
      "outputs": [
        {
          "internalType": "uint256",
          "name": "",
          "type": "uint256"
        }
      ],
      "stateMutability": "view",
      "type": "function"
    },
    {
      "inputs": [
        {
          "internalType": "uint256",
          "name": "proposalId",
          "type": "uint256"
        }
      ],
      "name": "proposalProposer",
      "outputs": [
        {
          "internalType": "address",
          "name": "",
          "type": "address"
        }
      ],
      "stateMutability": "view",
      "type": "function"
    },
    {
      "inputs": [
        {
          "internalType": "uint256",
          "name": "proposalId",
          "type": "uint256"
        }
      ],
      "name": "proposalSnapshot",
      "outputs": [
        {
          "internalType": "uint256",
          "name": "",
          "type": "uint256"
        }
      ],
      "stateMutability": "view",
      "type": "function"
    },
    {
      "inputs": [
        {
          "internalType": "uint256",
          "name": "proposalId",
          "type": "uint256"
        }
      ],
      "name": "proposalVotes",
      "outputs": [
        {
          "internalType": "uint256",
          "name": "againstVotes",
          "type": "uint256"
        },
        {
          "internalType": "uint256",
          "name": "forVotes",
          "type": "uint256"
        },
        {
          "internalType": "uint256",
          "name": "abstainVotes",
          "type": "uint256"
        }
      ],
      "stateMutability": "view",
      "type": "function"
    },
    {
      "inputs": [
        {
          "internalType": "address[]",
          "name": "targets",
          "type": "address[]"
        },
        {
          "internalType": "uint256[]",
          "name": "values",
          "type": "uint256[]"
        },
        {
          "internalType": "bytes[]",
          "name": "calldatas",
          "type": "bytes[]"
        },
        {
          "internalType": "string",
          "name": "description",
          "type": "string"
        }
      ],
      "name": "propose",
      "outputs": [
        {
          "internalType": "uint256",
          "name": "",
          "type": "uint256"
        }
      ],
      "stateMutability": "nonpayable",
      "type": "function"
    },
    {
      "inputs": [
        {
          "internalType": "address[]",
          "name": "targets",
          "type": "address[]"
        },
        {
          "internalType": "uint256[]",
          "name": "values",
          "type": "uint256[]"
        },
        {
          "internalType": "bytes[]",
          "name": "calldatas",
          "type": "bytes[]"
        },
        {
          "internalType": "bytes32",
          "name": "descriptionHash",
          "type": "bytes32"
        }
      ],
      "name": "queue",
      "outputs": [
        {
          "internalType": "uint256",
          "name": "",
          "type": "uint256"
        }
      ],
      "stateMutability": "nonpayable",
      "type": "function"
    },
    {
      "inputs": [],
      "name": "quorumDenominator",
      "outputs": [
        {
          "internalType": "uint256",
          "name": "",
          "type": "uint256"
        }
      ],
      "stateMutability": "view",
      "type": "function"
    },
    {
      "inputs": [
        {
          "internalType": "uint256",
          "name": "timepoint",
          "type": "uint256"
        }
      ],
      "name": "quorumNumerator",
      "outputs": [
        {
          "internalType": "uint256",
          "name": "",
          "type": "uint256"
        }
      ],
      "stateMutability": "view",
      "type": "function"
    },
    {
      "inputs": [],
      "name": "quorumNumerator",
      "outputs": [
        {
          "internalType": "uint256",
          "name": "",
          "type": "uint256"
        }
      ],
      "stateMutability": "view",
      "type": "function"
    },
    {
      "inputs": [
        {
          "internalType": "address",
          "name": "target",
          "type": "address"
        },
        {
          "internalType": "uint256",
          "name": "value",
          "type": "uint256"
        },
        {
          "internalType": "bytes",
          "name": "data",
          "type": "bytes"
        }
      ],
      "name": "relay",
      "outputs": [],
      "stateMutability": "payable",
      "type": "function"
    },
    {
      "inputs": [
        {
          "internalType": "uint256",
          "name": "newProposalThreshold",
          "type": "uint256"
        }
      ],
      "name": "setProposalThreshold",
      "outputs": [],
      "stateMutability": "nonpayable",
      "type": "function"
    },
    {
      "inputs": [
        {
          "internalType": "uint48",
          "name": "newVotingDelay",
          "type": "uint48"
        }
      ],
      "name": "setVotingDelay",
      "outputs": [],
      "stateMutability": "nonpayable",
      "type": "function"
    },
    {
      "inputs": [
        {
          "internalType": "uint32",
          "name": "newVotingPeriod",
          "type": "uint32"
        }
      ],
      "name": "setVotingPeriod",
      "outputs": [],
      "stateMutability": "nonpayable",
      "type": "function"
    },
    {
      "inputs": [
        {
          "internalType": "bytes4",
          "name": "interfaceId",
          "type": "bytes4"
        }
      ],
      "name": "supportsInterface",
      "outputs": [
        {
          "internalType": "bool",
          "name": "",
          "type": "bool"
        }
      ],
      "stateMutability": "view",
      "type": "function"
    },
    {
      "inputs": [],
      "name": "timelock",
      "outputs": [
        {
          "internalType": "address",
          "name": "",
          "type": "address"
        }
      ],
      "stateMutability": "view",
      "type": "function"
    },
    {
      "inputs": [],
      "name": "token",
      "outputs": [
        {
          "internalType": "contract IERC5805",
          "name": "",
          "type": "address"
        }
      ],
      "stateMutability": "view",
      "type": "function"
    },
    {
      "inputs": [
        {
          "internalType": "uint256",
          "name": "newQuorumNumerator",
          "type": "uint256"
        }
      ],
      "name": "updateQuorumNumerator",
      "outputs": [],
      "stateMutability": "nonpayable",
      "type": "function"
    },
    {
      "inputs": [
        {
          "internalType": "contract TimelockController",
          "name": "newTimelock",
          "type": "address"
        }
      ],
      "name": "updateTimelock",
      "outputs": [],
      "stateMutability": "nonpayable",
      "type": "function"
    },
    {
      "inputs": [],
      "name": "version",
      "outputs": [
        {
          "internalType": "string",
          "name": "",
          "type": "string"
        }
      ],
      "stateMutability": "view",
      "type": "function"
    },
    {
      "stateMutability": "payable",
      "type": "receive"
    },
    {
      "inputs": [],
      "name": "votingDelay",
      "outputs": [
        {
          "internalType": "uint256",
          "name": "",
          "type": "uint256"
        }
      ],
      "stateMutability": "view",
      "type": "function"
    },
    {
      "inputs": [],
      "name": "votingPeriod",
      "outputs": [
        {
          "internalType": "uint256",
          "name": "",
          "type": "uint256"
        }
      ],
      "stateMutability": "view",
      "type": "function"
    },
    {
      "inputs": [
        {
          "internalType": "uint256",
          "name": "blockNumber",
          "type": "uint256"
        }
      ],
      "name": "quorum",
      "outputs": [
        {
          "internalType": "uint256",
          "name": "",
          "type": "uint256"
        }
      ],
      "stateMutability": "view",
      "type": "function"
    },
    {
      "inputs": [
        {
          "internalType": "uint256",
          "name": "proposalId",
          "type": "uint256"
        }
      ],
      "name": "state",
      "outputs": [
        {
          "internalType": "enum IGovernor.ProposalState",
          "name": "",
          "type": "uint8"
        }
      ],
      "stateMutability": "view",
      "type": "function"
    },
    {
      "inputs": [
        {
          "internalType": "uint256",
          "name": "proposalId",
          "type": "uint256"
        }
      ],
      "name": "proposalNeedsQueuing",
      "outputs": [
        {
          "internalType": "bool",
          "name": "",
          "type": "bool"
        }
      ],
      "stateMutability": "view",
      "type": "function"
    },
    {
      "inputs": [],
      "name": "proposalThreshold",
      "outputs": [
        {
          "internalType": "uint256",
          "name": "",
          "type": "uint256"
        }
      ],
      "stateMutability": "view",
      "type": "function"
    }
  ],
  "bytecode": "0x61018060405234620000b457620000206200001962000151565b90620001c5565b604051613a3d908162000b7e82396080518161356e015260a05181613623015260c05181613538015260e051816135bd015261010051816135e30152610120518161130a01526101405181611336015261016051818181611552015281816119b101528181611ae501528181611b6e01528181611cb601528181611ebd01528181611f7b01528181612a1e01526134df0152f35b5f80fd5b634e487b7160e01b5f52604160045260245ffd5b604081019081106001600160401b03821117620000e857604052565b620000b8565b60c081019081106001600160401b03821117620000e857604052565b601f909101601f19168101906001600160401b03821190821017620000e857604052565b604051906200013d82620000cc565b565b6001600160a01b03811603620000b457565b620045fb906040823803928382519485926200016e82856200010a565b833981010312620000b457602082519262000189846200013f565b01519162000197836200013f565b9190565b60405190620001aa82620000cc565b600e8252565b60405190620001bf82620000cc565b60018252565b906200013d916200029c620001d96200019b565b602081016d21b432b9b99023b7bb32b93737b960911b8152620001fb620001b0565b906020820190603160f81b82526200021384620006e7565b610120526200022283620007e1565b6101405283519020918260e05251902080610100524660a0526040519060208201927f8b73c3c69bb8fe3d512ecc4cf759cc79239f7b179b0ffacaa9a75d522b39400f8452604083015260608201524660808201523060a082015260a081526200028c81620000ee565b5190206080523060c05262000426565b620002a6620005fe565b620002b06200064d565b620002ba620006a3565b6001600160a01b031661016052620002d16200055f565b62000510565b90600182811c9216801562000307575b6020831014620002f357565b634e487b7160e01b5f52602260045260245ffd5b91607f1691620002e7565b601f81116200031f575050565b60035f5260205f20906020601f840160051c830193106200035c575b601f0160051c01905b81811062000350575050565b5f815560010162000344565b90915081906200033b565b601f811162000374575050565b5f805260205f20906020601f840160051c83019310620003b0575b601f0160051c01905b818110620003a4575050565b5f815560010162000398565b90915081906200038f565b90601f8211620003c9575050565b60019160015f5260205f20906020601f840160051c8301931062000409575b601f0160051c01905b818110620003fe57505050565b5f81558201620003f1565b9091508190620003e8565b8160011b915f199060031b1c19161790565b80519091906001600160401b038111620000e85762000452816200044c600354620002d7565b62000312565b602080601f83116001146200048b575081906200047a93945f926200047f575b505062000414565b600355565b015190505f8062000472565b60035f52601f198316949091907fc2575a0e9e593c00f959f8c92f12db2869c3395a3b0502d05e2516446f71f85b925f905b878210620004f7575050836001959610620004de575b505050811b01600355565b01515f1960f88460031b161c191690555f8080620004d3565b80600185968294968601518155019501930190620004bd565b600b547f08f74ea46ef7894f65eabfb5e6e695de773a000b47c529ab559178069b226401604060018060a01b038094169381519084168152846020820152a16001600160a01b03191617600b55565b600a5480620005ab57505f80516020620045db83398151915260405f5b620005906200058a620008dd565b62000a7a565b505081516001600160d01b03909116815260046020820152a1565b5f19908082810111620005ea57600a5f52015f80516020620045bb83398151915201545f80516020620045db8339815191529060409060301c6200057c565b634e487b7160e01b5f52601160045260245ffd5b6008546040519065ffffffffffff811682527fc565b045403dc03c2eea82b81a0465edad9e2e7fc4d97e11421c209da93d7a936040611c2093846020820152a165ffffffffffff191617600855565b678ca00000000000006008547f7e3f7f0708a84de9203036abaa450dccc85ad5ff52f78c170f3edb55cf5e88286040805163ffffffff8460301c168152618ca06020820152a163ffffffff60301b191617600855565b6007546040519081527fccb45da8d5717e6c4544694297c4ba5cf151d455c9bb0ed4fc7a38411bc05461604069152d02c7e14af680000092836020820152a1600755565b90815160208082105f14620007075750509062000704906200098c565b90565b6001600160401b038211620000e8576200072d82620007275f54620002d7565b62000367565b602090601f83116001146200075b575081906200075493945f926200047f57505062000414565b5f5560ff90565b5f8052601f198316949091907f290decd9548b62a8d60345a988386fc84ba6bc95484008f6362f93160ef3e563925f905b878210620007c8575050836001959610620007af575b505050811b015f5560ff90565b01515f1960f88460031b161c191690555f8080620007a2565b806001859682949686015181550195019301906200078c565b908151602090602081105f14620008005750509062000704906200098c565b6001600160401b038111620000e8576001916200082982620008238554620002d7565b620003bb565b602090601f83116001146200085857508190620008519394955f926200047f57505062000414565b905560ff90565b60015f52601f198316959091907fb10e2d527612073b26eecdfd717e6a320cf44b4afac2b0732d9fcbe2b7fa0cf6925f905b888210620008c55750508385969710620008ac575b505050811b01905560ff90565b01515f1960f88460031b161c191690555f80806200089f565b8087859682949686015181550195019301906200088a565b610160516040516324776b7d60e21b815290602090829060049082906001600160a01b03165afa5f91816200091f575b50620007045750620007044362000b4a565b9091506020813d60201162000960575b816200093e602093836200010a565b81010312620000b4575165ffffffffffff81168103620000b457905f6200090d565b3d91506200092f565b6020815191015190602081106200097e575090565b5f199060200360031b1b1690565b601f815111620009a757620009a18162000969565b90511790565b6040519063305a27a960e01b82528160208060048301528251908160248401525f935b828510620009ed575050604492505f838284010152601f80199101168101030190fd5b8481018201518686016044015293810193859350620009ca565b5f19810191908211620005ea57565b600a5468010000000000000000811015620000e8576001810180600a5581101562000a6657600a5f5260205f20019065ffffffffffff81511690602065ffffffffffff1991015160301b16179055565b634e487b7160e01b5f52603260045260245ffd5b600a54801562000b2f5762000a9362000aaa9162000a07565b600a5f525f80516020620045bb8339815191520190565b80549165ffffffffffff80821690841681811162000b1d570362000ae85750805465ffffffffffff1666040000000000001790555b60301c90600490565b62000b17915062000b0a62000afc6200012e565b65ffffffffffff9092168252565b6004602082015262000a16565b62000adf565b604051632520601d60e01b8152600490fd5b5062000b439062000b0a62000afc6200012e565b5f90600490565b65ffffffffffff9081811162000b5e571690565b604490604051906306dfcc6560e41b8252603060048301526024820152fdfe60806040526004361015610022575b3615610018575f80fd5b610020612171565b005b5f3560e01c806301ffc9a71461032c57806302a251a31461032757806306f3f9e61461032257806306fdde031461031d578063143489d014610318578063150b7a0214610313578063160cbed71461030e5780632656227d146103095780632d63f693146103045780632fe3e261146102ff5780633932abb1146102fa5780633e4f49e6146102f557806343859632146102f0578063452115d6146102eb5780634bf5d7e9146102e6578063544ffc9c146102e157806354fd4d50146102dc57806356781388146102d75780635b8d0e0d146102d25780635f398a14146102cd57806360c4247f146102c857806379051887146102c35780637b3c71d3146102be5780637d5e81e2146102b95780637ecebe00146102b457806384b0196e146102af5780638ff262e3146102aa57806391ddadf4146102a557806397c3d334146102a05780639a802a6d1461029b578063a7713a7014610296578063a890c91014610291578063a8f8a6681461026e578063a9a952941461028c578063ab58fb8e14610287578063b58131b014610282578063bc197c811461027d578063c01f9e3714610278578063c28bc2fa14610273578063c59057e41461026e578063d33219b414610269578063dd4e2ba514610264578063deaaa7cc1461025f578063e540d01d1461025a578063eb9019d414610255578063ece40cc114610250578063f23a6e611461024b578063f8ce560a146102465763fc0c546a0361000e57611b59565b611ab4565b611a49565b6119f4565b611956565b6118b3565b61188c565b61182f565b611807565b611654565b61179c565b61177e565b6116de565b6116c1565b61168c565b611670565b6115e0565b6115b5565b6114e4565b6114c9565b61149f565b6113b9565b6112f2565b611284565b6111eb565b611196565b611124565b6110f6565b611087565b610fff565b610f84565b610f33565b610ef9565b610eb4565b610e18565b610dd3565b610da6565b610d51565b610d2a565b610cf5565b610ba5565b61099a565b61075b565b6105e1565b610508565b6103e6565b6103c0565b346103b25760203660031901126103b25760043563ffffffff60e01b81168091036103b2576020906366defe7760e11b81149081156103a1575b8115610390575b811561037f575b506040519015158152f35b6301ffc9a760e01b1490505f610374565b630271189760e51b8114915061036d565b6332a2ad4360e11b81149150610366565b5f80fd5b5f9103126103b257565b346103b2575f3660031901126103b257602063ffffffff60085460301c16604051908152f35b346103b25760203660031901126103b257600435610402612185565b6064811161048f576001600160d01b03908161041c612a78565b16610425611f66565b9280831161046f577f0553476bf02ef2726e8ce5ced78d63e26e602e4a2257b1f559418e24b46339979361045b918416906133e1565b5050604080519182526020820192909252a1005b6040516306dfcc6560e41b815260d0600482015260248101849052604490fd5b6044906040519063243e544560e01b8252600482015260646024820152fd5b5f5b8381106104bf5750505f910152565b81810151838201526020016104b0565b906020916104e8815180928185528580860191016104ae565b601f01601f1916010190565b9060206105059281815201906104cf565b90565b346103b2575f3660031901126103b2576040515f9060035461052981611b9d565b8083526020916001908181169081156105a25750600114610565575b61056184610555818803826106bd565b604051918291826104f4565b0390f35b91935060035f52835f20915f925b82841061058f5750505081610561936105559282010193610545565b8054858501870152928501928101610573565b60ff1916858501525050151560051b820101915061055581610561610545565b6001600160a01b031690565b6001600160a01b03909116815260200190565b346103b25760203660031901126103b2576004355f526004602052602060018060a01b0360405f205416604051908152f35b6001600160a01b038116036103b257565b634e487b7160e01b5f52604160045260245ffd5b6001600160401b03811161064b57604052565b610624565b604081019081106001600160401b0382111761064b57604052565b602081019081106001600160401b0382111761064b57604052565b60c081019081106001600160401b0382111761064b57604052565b61010081019081106001600160401b0382111761064b57604052565b601f909101601f19168101906001600160401b0382119082101761064b57604052565b604051906106ed82610650565b565b6001600160401b03811161064b57601f01601f191660200190565b929192610716826106ef565b9161072460405193846106bd565b8294818452818301116103b2578281602093845f960137010152565b9080601f830112156103b2578160206105059335910161070a565b346103b25760803660031901126103b257610777600435610613565b610782602435610613565b6064356001600160401b0381116103b2576107a1903690600401610740565b50600b546001600160a01b031630036107c657604051630a85bd0160e11b8152602090f35b604051637485328f60e11b8152600490fd5b6001600160401b03811161064b5760051b60200190565b9080601f830112156103b2576020908235610809816107d8565b9361081760405195866106bd565b81855260208086019260051b8201019283116103b257602001905b828210610840575050505090565b838091833561084e81610613565b815201910190610832565b9080601f830112156103b2576020908235610873816107d8565b9361088160405195866106bd565b81855260208086019260051b8201019283116103b257602001905b8282106108aa575050505090565b8135815290830190830161089c565b81601f820112156103b2578035916020916108d3846107d8565b936108e160405195866106bd565b808552838086019160051b830101928084116103b257848301915b84831061090c5750505050505090565b82356001600160401b0381116103b257869161092d84848094890101610740565b8152019201916108fc565b60806003198201126103b2576001600160401b03916004358381116103b25782610964916004016107ef565b926024358181116103b2578361097c91600401610859565b926044359182116103b257610993916004016108b9565b9060643590565b346103b2576109a836610938565b6109b681838587969761210d565b926109c084612216565b506109d46109cf600b546105c2565b6105c2565b9260409586519363793d064960e11b855260209081866004818a5afa958615610b54575f96610b86575b50885163b1c5f42760e01b81523060601b6001600160601b0319169190911896829082908180610a348c8a8a8d60048601612b28565b03915afa918215610b54575f92610b59575b5050610a5187611bd5565b55610a606109cf600b546105c2565b90813b156103b2575f8094610a8b878b51998a97889687956308f2a0bb60e41b875260048701612b6d565b03925af1908115610b5457610aaf92610aaa92610b3b575b5042612713565b61304b565b65ffffffffffff811615610b2a57917f9a2e42fd6722813d69113e7d0079d3d940171428df7373df9c7f7617cfda2892610b1984610afb610561966001610af588611be3565b01611bf1565b835185815265ffffffffffff90911660208201529081906040820190565b0390a1519081529081906020820190565b8251634844252360e11b8152600490fd5b80610b48610b4e92610638565b806103b6565b5f610aa3565b611c4c565b610b789250803d10610b7f575b610b7081836106bd565b8101906129de565b5f80610a46565b503d610b66565b610b9e919650823d8411610b7f57610b7081836106bd565b945f6109fe565b610bae36610938565b610bbc81838587959761210d565b92610bc684612268565b50610be6610bd385611be3565b805460ff60f01b1916600160f01b179055565b600b546001600160a01b03939084163003610c90575b94610c0c92916105619686612bba565b610c1a3091600b54166105c2565b141580610c71575b610c63575b6040518181527f712ae1383f79ac853f8d882153778e0260ef8f03b504e2866e0593e04d2b291f90602090a16040519081529081906020820190565b610c6c5f600555565b610c27565b506005546001600160801b03811660809190911c1415610c22565b1590565b929093915f5b8451811015610ceb5760019030610cc06109cf610cb3848a611c1e565b516001600160a01b031690565b14610ccc575b01610c96565b610ce6610cd9828a611c1e565b51602081519101206122ba565b610cc6565b5091939092610bfc565b346103b25760203660031901126103b2576004355f526004602052602065ffffffffffff60405f205460a01c16604051908152f35b346103b2575f3660031901126103b25760206040515f805160206139e88339815191528152f35b346103b2575f3660031901126103b257602065ffffffffffff60085416604051908152f35b634e487b7160e01b5f52602160045260245ffd5b60081115610d9457565b610d76565b906008821015610d945752565b346103b25760203660031901126103b2576020610dc4600435612328565b610dd16040518092610d99565bf35b346103b25760403660031901126103b257602060ff610e0c602435610df781610613565b6004355f5260098452600360405f2001611c37565b54166040519015158152f35b346103b257610e2636610938565b92610e368483858496959661210d565b610e3f81612328565b6008811015610d94571580610e97575b15610e7357610561610e6386868686612d27565b6040519081529081906020820190565b604051638fe5d8a960e01b81526004810191909152336024820152604490fd5b0390fd5b50805f52600460205260018060a01b0360405f2054163314610e4f565b346103b2575f3660031901126103b257610561610ecf611ca2565b6040519182916020835260208301906104cf565b6040919493926060820195825260208201520152565b346103b25760203660031901126103b2576004355f52600960205260405f2080546105616002600184015493015460405193849384610ee3565b346103b2575f3660031901126103b257610561604051610f5281610650565b60018152603160f81b60208201526040519182916020835260208301906104cf565b6024359060ff821682036103b257565b346103b25760403660031901126103b2576020610fca610fa2610f74565b604051610fae8161066b565b5f815260405191610fbe8361066b565b5f8352336004356124a1565b604051908152f35b9181601f840112156103b2578235916001600160401b0383116103b257602083818601950101116103b257565b346103b25760c03660031901126103b257611018610f74565b6044359061102582610613565b6001600160401b03906064358281116103b257611046903690600401610fd2565b6084358481116103b25761105e903690600401610740565b9160a4359485116103b2576105619561107e610e63963690600401610740565b94600435611d70565b346103b25760803660031901126103b2576110a0610f74565b6001600160401b03906044358281116103b2576110c1903690600401610fd2565b90916064359384116103b2576110ec610fca936110e46020963690600401610740565b93369161070a565b90336004356124a1565b346103b25760203660031901126103b2576020610fca6004356125bc565b65ffffffffffff8116036103b257565b346103b25760203660031901126103b25760043561114181611114565b611149612185565b6008547fc565b045403dc03c2eea82b81a0465edad9e2e7fc4d97e11421c209da93d7a93604065ffffffffffff81519481851686521693846020820152a165ffffffffffff191617600855005b346103b25760603660031901126103b2576111af610f74565b6044356001600160401b0381116103b2576020916111de6111d7610fca933690600401610fd2565b369161070a565b60405191610fbe8361066b565b346103b25760803660031901126103b2576001600160401b036004358181116103b25761121c9036906004016107ef565b906024358181116103b257611235903690600401610859565b916044358281116103b25761124e9036906004016108b9565b6064359283116103b257366023840112156103b2576105619361127e610e6394369060248160040135910161070a565b92611e46565b346103b25760203660031901126103b2576004356112a181610613565b60018060a01b03165f526002602052602060405f2054604051908152f35b9081518082526020808093019301915f5b8281106112de575050505090565b8351855293810193928101926001016112d0565b346103b2575f3660031901126103b25761138b61132e7f0000000000000000000000000000000000000000000000000000000000000000613169565b61056161135a7f0000000000000000000000000000000000000000000000000000000000000000613240565b6113996040519161136a8361066b565b5f8352604051958695600f60f81b875260e0602088015260e08701906104cf565b9085820360408701526104cf565b904660608501523060808501525f60a085015283820360c08501526112bf565b346103b25760803660031901126103b2576004356113d5610f74565b90604435916113e383610613565b6064356001600160401b0381116103b257610c8c611408611469923690600401610740565b61146361141487612e46565b60405160208101915f805160206139c8833981519152835288604083015260ff8816606083015260018060a01b038a16608083015260a082015260a0815261145b81610686565b519020612e68565b86612e98565b6114845790610e63916105619361147e611c57565b92612426565b6040516394ab6c0760e01b815280610e9385600483016105ce565b346103b2575f3660031901126103b25760206114b9611f66565b65ffffffffffff60405191168152f35b346103b2575f3660031901126103b257602060405160648152f35b346103b25760603660031901126103b25760043561150181610613565b6044356001600160401b0381116103b2576044916115256020923690600401610740565b50604051630748d63560e31b81526001600160a01b039182166004820152602480359082015292839182907f0000000000000000000000000000000000000000000000000000000000000000165afa8015610b5457610561915f91611596575b506040519081529081906020820190565b6115af915060203d602011610b7f57610b7081836106bd565b5f611585565b346103b2575f3660031901126103b25760206001600160d01b036115d7612a78565b16604051908152f35b346103b25760203660031901126103b2576004356115fd81610613565b611605612185565b600b547f08f74ea46ef7894f65eabfb5e6e695de773a000b47c529ab559178069b226401604060018060a01b038094169381519084168152846020820152a16001600160a01b03191617600b55005b346103b2576020610fca61166736610938565b9291909161210d565b346103b25760203660031901126103b257602060405160018152f35b346103b25760203660031901126103b2576004355f526004602052602065ffffffffffff600160405f20015416604051908152f35b346103b2575f3660031901126103b2576020600754604051908152f35b346103b25760a03660031901126103b2576116fa600435610613565b611705602435610613565b6001600160401b036044358181116103b257611725903690600401610859565b506064358181116103b25761173e903690600401610859565b506084359081116103b257611757903690600401610740565b50610561611763611ff9565b6040516001600160e01b031990911681529081906020820190565b346103b25760203660031901126103b2576020610fca600435612016565b60603660031901126103b2576004356117b481610613565b604435906001600160401b0382116103b2575f80916117da610020943690600401610fd2565b906117e3612185565b81604051928392833781018481520391602435905af1611801612046565b90612aac565b346103b2575f3660031901126103b257600b546040516001600160a01b039091168152602090f35b346103b2575f3660031901126103b25761056160405161184e81610650565b602081527f737570706f72743d627261766f2671756f72756d3d666f722c6162737461696e60208201526040519182916020835260208301906104cf565b346103b2575f3660031901126103b25760206040515f805160206139c88339815191528152f35b346103b25760203660031901126103b25763ffffffff600435818116918282036103b2576118df612185565b821561193e5760407f7e3f7f0708a84de9203036abaa450dccc85ad5ff52f78c170f3edb55cf5e882891600854948251918660301c1682526020820152a163ffffffff60301b1990911660309190911b63ffffffff60301b1617600855005b60405163f1cfbf0560e01b81525f6004820152602490fd5b346103b25760403660031901126103b2576044602060043561197781610613565b5f6040516119848161066b565b52604051630748d63560e31b81526001600160a01b039182166004820152602480359082015292839182907f0000000000000000000000000000000000000000000000000000000000000000165afa8015610b5457610561915f9161159657506040519081529081906020820190565b346103b25760203660031901126103b257600435611a10612185565b60075460408051918252602082018390527fccb45da8d5717e6c4544694297c4ba5cf151d455c9bb0ed4fc7a38411bc0546191a1600755005b346103b25760a03660031901126103b257611a65600435610613565b611a70602435610613565b6084356001600160401b0381116103b257611a8f903690600401610740565b50600b546001600160a01b031630036107c65760405163f23a6e6160e01b8152602090f35b346103b25760203660031901126103b257604051632394e7a360e21b815260048035908201819052906020816024817f00000000000000000000000000000000000000000000000000000000000000006001600160a01b03165afa8015610b545761056192610e63925f92611b34575b50611b2e906125bc565b906132fe565b611b2e919250611b529060203d602011610b7f57610b7081836106bd565b9190611b24565b346103b2575f3660031901126103b2576040517f00000000000000000000000000000000000000000000000000000000000000006001600160a01b03168152602090f35b90600182811c92168015611bcb575b6020831014611bb757565b634e487b7160e01b5f52602260045260245ffd5b91607f1691611bac565b5f52600c60205260405f2090565b5f52600460205260405f2090565b9065ffffffffffff1665ffffffffffff19825416179055565b634e487b7160e01b5f52603260045260245ffd5b8051821015611c325760209160051b010190565b611c0a565b9060018060a01b03165f5260205260405f2090565b6040513d5f823e3d90fd5b60405190611c648261066b565b5f8252565b60405190611c7682610650565b601d82527f6d6f64653d626c6f636b6e756d6265722666726f6d3d64656661756c740000006020830152565b604051634bf5d7e960e01b81525f816004817f00000000000000000000000000000000000000000000000000000000000000006001600160a01b03165afa5f9181611cf6575b506105055750610505611c69565b9091503d805f833e611d0881836106bd565b8101906020818303126103b2578051906001600160401b0382116103b2570181601f820112156103b2578051611d3d816106ef565b92611d4b60405194856106bd565b818452602082840101116103b257611d6991602080850191016104ae565b905f611ce8565b939092919695610c8c611dfc91611df68a611d8c36878961070a565b611d9582612e46565b90602081519101208b5160208d0120906040519260208401945f805160206139e883398151915286528d604086015260ff8d16606086015260018060a01b0316608085015260a084015260c083015260e082015260e0815261145b816106a1565b8a612e98565b611e1757610505959691611e1191369161070a565b926124a1565b6040516394ab6c0760e01b815280610e9389600483016105ce565b634e487b7160e01b5f52601160045260245ffd5b9193929093611e55823361269d565b15611f4e576007549485611e71575b6105059495503393612837565b65ffffffffffff5f1981611e83611f66565b160190808211611f49575f604051611e9a8161066b565b52604051630748d63560e31b8152336004820152911660248201526020816044817f00000000000000000000000000000000000000000000000000000000000000006001600160a01b03165afa908115610b54575f91611f2a575b50868110611f035750611e64565b604051636121770b60e11b8152336004820152602481019190915260448101879052606490fd5b611f43915060203d602011610b7f57610b7081836106bd565b5f611ef5565b611e32565b60405163d9b3955760e01b8152336004820152602490fd5b6040516324776b7d60e21b81526020816004817f00000000000000000000000000000000000000000000000000000000000000006001600160a01b03165afa5f9181611fbc575b5061050557506105054361304b565b9091506020813d602011611ff1575b81611fd8602093836106bd565b810103126103b25751611fea81611114565b905f611fad565b3d9150611fcb565b600b546001600160a01b031630036107c65763bc197c8160e01b90565b5f52600460205260405f205465ffffffffffff908163ffffffff8260d01c169160a01c1601818111611f49571690565b3d15612070573d90612057826106ef565b9161206560405193846106bd565b82523d5f602084013e565b606090565b9081518082526020808093019301915f5b828110612094575050505090565b83516001600160a01b031685529381019392810192600101612086565b90808251908181526020809101926020808460051b8301019501935f915b8483106120df5750505050505090565b90919293949584806120fd600193601f198682030187528a516104cf565b98019301930191949392906120cf565b92906121599261216b92604051948592612149612136602086019960808b5260a0870190612075565b601f1996878783030160408801526112bf565b90858583030160608601526120b1565b906080830152039081018352826106bd565b51902090565b600b546001600160a01b031630036107c657565b600b546001600160a01b03163381036121df5730036121a057565b6121a9366106ef565b6121b660405191826106bd565b3681526020810190365f83375f602036830101525190205b806121d7612ad5565b036121ce5750565b6040516347096e4760e01b8152336004820152602490fd5b6040906122125f939594606083019683526020830190610d99565b0152565b61221f81612328565b906008821015610d94576010600160ff84161b161561223c575090565b61225f606492604051926331b75e4d60e01b845260048401526024830190610d99565b60106044820152fd5b61227181612328565b906008821015610d94576030600160ff84161b161561228e575090565b6122b1606492604051926331b75e4d60e01b845260048401526024830190610d99565b60306044820152fd5b6005548060801c91600183019260018060801b03809316838516146122fe575f52600660205260405f20556005549160018060801b03199060801b16911617600555565b634e487b715f5260416020526024601cfd5b908160209103126103b2575180151581036103b25790565b61233181612c36565b9061233b82610d8a565b600582036124225761234d9150611bd5565b5461235c6109cf600b546105c2565b604051632c258a9f60e11b81526004810183905260209291908381602481855afa908115610b54575f91612405575b501561239957505050600590565b604051632ab0f52960e01b815260048101929092528290829060249082905afa918215610b54575f926123d8575b5050156123d357600790565b600290565b6123f79250803d106123fe575b6123ef81836106bd565b810190612310565b5f806123c7565b503d6123e5565b61241c9150843d86116123fe576123ef81836106bd565b5f61238b565b5090565b916105059391604051936124398561066b565b5f85526124a1565b93909260ff61246d9361050597958752166020860152604085015260a0606085015260a08401906104cf565b9160808184039101526104cf565b909260ff60809361050596958452166020830152604082015281606082015201906104cf565b9291906124ad84612328565b6008811015610d94576002600160ff83161b161561258e5750835f5260046020526125066124fe6124f86124ed60405f205460a01c65ffffffffffff1690565b65ffffffffffff1690565b836129ed565b838387612f47565b948051155f14612552575061254c7fb8e138887d0aa13bab447e82de9d5c1777041ecd21ca36ba824ff1e6c07ddda4938660405194859460018060a01b0316978561247b565b0390a290565b61254c907fe2babfbac5889a709b63bb7f598b324e08bc5a4fb9ec647fb3cbc9ec07eb8712948760405195869560018060a01b03169886612441565b6040516331b75e4d60e01b8152600481018690526064916125b3906024830190610d99565b60026044820152fd5b6125c4613006565b9265ffffffffffff925090821681106125e65750505b6001600160d01b031690565b6125f191925061304b565b600a54905f908260058111612649575b5061260c93506137ad565b8061261857505f6125da565b61263d61262761264492612a6a565b600a5f525f805160206139a88339815191520190565b5460301c90565b6125da565b909261265482613683565b8203918211611f4957600a5f525f805160206139a883398151915282015461260c95908116908516101561268b5750915b5f612601565b92915061269790612705565b90612685565b908051603481106126fd5760131981830101516001600160b01b03191669dc8f8d908f908c9a8dc360b01b016126fd576126dc916029198201906130a9565b90159182156126ea57505090565b6001600160a01b03918216911614919050565b505050600190565b9060018201809211611f4957565b91908201809211611f4957565b9061272a826107d8565b61273760405191826106bd565b8281528092612748601f19916107d8565b01905f5b82811061275857505050565b80606060208093850101520161274c565b959261279d906127ab939b9a989996959261012090895260209c60018060a01b03168d8a01528060408a0152880190612075565b9086820360608801526112bf565b9784890360808601528251808a52818a019180808360051b8d01019501925f905b838210612809575050505050610505969750906127f09184820360a08601526120b1565b9360c083015260e08201526101008184039101526104cf565b909192939583806128288f93600194601f199082030186528a516104cf565b980192019201909392916127cc565b91949390929461284f8651602088012082868661210d565b9583518551908181148015906129d3575b80156129cb575b6129ab57505065ffffffffffff94856128916128828a611be3565b5460a01c65ffffffffffff1690565b16612984577f7d84a6263ae0d98d3329bd7b46bb4e8d6f98cd35a7adb45c274c8b7fd5ebd5e09561297f9363ffffffff6128da6128cc611f66565b600854948086169116612713565b9260301c1661295d6128eb8c611be3565b80546001600160a01b0319166001600160a01b038a161781556129346129108661304b565b825465ffffffffffff60a01b191660a09190911b65ffffffffffff60a01b16178255565b61293d83613139565b815463ffffffff60d01b191660d09190911b63ffffffff60d01b16179055565b61297161296a8951612720565b9184612713565b936040519889988d8a612769565b0390a1565b8761298e81612328565b6040516331b75e4d60e01b8152918291610e9391600484016121f7565b8351604051630447b05d60e41b8152928392610e93929060048501610ee3565b508015612867565b508351811415612860565b908160209103126103b2575190565b604051630748d63560e31b81526001600160a01b0391821660048201526024810192909252602090829060449082907f0000000000000000000000000000000000000000000000000000000000000000165afa908115610b54575f91612a51575090565b610505915060203d602011610b7f57610b7081836106bd565b5f19810191908211611f4957565b600a5480612a8557505f90565b5f19908082810111611f4957600a5f52015f805160206139a8833981519152015460301c90565b9091906106ed5750805115612ac357602081519101fd5b60405163d6bda27560e01b8152600490fd5b6005546001600160801b03808216929160801c8314612b1657825f526006602052600160405f20935f85549555011660018060801b03196005541617600555565b634e487b715f5260316020526024601cfd5b949392612b54608093612b46612b629460a08a5260a08a0190612075565b9088820360208a01526112bf565b9086820360408801526120b1565b935f60608201520152565b9192612b9c60a094612b8e612baa949998979960c0875260c0870190612075565b9085820360208701526112bf565b9083820360408501526120b1565b945f606083015260808201520152565b9290939160018060a01b03600b541690813b156103b25760405163e38335e560e01b8152955f94879485938493612c06933060601b6001600160601b0319161892919060048601612b28565b039134905af1908115610b54575f92612c2492612c27575b50611bd5565b55565b612c3090610638565b5f612c1e565b612c3f81611be3565b5460ff8160f01c16612d205760f81c612d1a57612c616124ed61288283611be3565b8015612d0157612c726124ed611f66565b80911015612cfb57612c8382612016565b10612c8e5750600190565b612c9a610c8c8261349d565b8015612cd8575b15612cac5750600390565b6124ed6001612cbd612cca93611be3565b015465ffffffffffff1690565b612cd357600490565b600590565b50612cf6610c8c825f52600960205260405f20600181015490541090565b612ca1565b50505f90565b604051636ad0607560e01b815260048101839052602490fd5b50600290565b5050600790565b90612d3393929161210d565b612d3c81612328565b6008811015610d9457603b600160ff83161b1615612e195750612d76612d6182611be3565b80546001600160f81b0316600160f81b179055565b6040518181527f789cf55be980739dad1d0699b93b58e806b51c9d96619bfa8fe0a28abaa7b30c90602090a1612dab81611bd5565b5480612db5575090565b612dc36109cf600b546105c2565b803b156103b25760405163c4d252f560e01b815260048101929092525f908290602490829084905af18015610b5457612e06575b505f612e0282611bd5565b5590565b80610b48612e1392610638565b5f612df7565b90612e3d606492604051926331b75e4d60e01b845260048401526024830190610d99565b603b6044820152fd5b6001600160a01b03165f90815260026020526040902080546001810190915590565b604290612e73613535565b906040519161190160f01b8352600283015260228201522090565b60041115610d9457565b9091813b612ec057612eaa9192613649565b50612eb481612e8e565b1591826126ea57505090565b5f918291604051612f0381612ef56020820194630b135d3f60e11b998a875260248401526040604484015260648301906104cf565b03601f1981018352826106bd565b51915afa90612f10612046565b82612f39575b82612f2057505090565b612f35919250602080825183010191016129de565b1490565b915060208251101591612f16565b612f5c909291925f52600960205260405f2090565b9160038301612f75612f6e8383611c37565b5460ff1690565b612feb57612f8960ff9392612f9692611c37565b805460ff19166001179055565b1680612fad5750612fa8828254612713565b905590565b60018103612fc45750600101612fa8828254612713565b600203612fd957600201612fa8828254612713565b6040516303599be160e11b8152600490fd5b6040516371c6af4960e01b815280610e9384600483016105ce565b600a548061301757505f905f905f90565b5f19908082810111611f4957600a5f52015f805160206139a8833981519152015460019165ffffffffffff82169160301c90565b65ffffffffffff9081811161305e571690565b604490604051906306dfcc6560e41b8252603060048301526024820152fd5b908160011b9180830460021490151715611f4957565b908160041b9180830460101490151715611f4957565b9190825182118015613130575b613109576130c381612705565b821180613112575b6130d690151561307d565b60280180602811611f4957818303838111611f495703613109576130f992613813565b90916001600160a01b0390911690565b5050505f905f90565b50828101602001516001600160f01b03191661060f60f31b146130cb565b508181116130b6565b63ffffffff9081811161314a571690565b604490604051906306dfcc6560e41b8252602060048301526024820152fd5b60ff81146131a75760ff811690601f8211613195576040519161318b83610650565b8252602082015290565b604051632cd44ac360e21b8152600490fd5b506040515f815f54916131b983611b9d565b80835260209360019081811690811561322057506001146131e3575b5050610505925003826106bd565b5f80805285812095935091905b81831061320857505061050593508201015f806131d5565b855487840185015294850194869450918301916131f0565b91505061050594925060ff191682840152151560051b8201015f806131d5565b60ff81146132625760ff811690601f8211613195576040519161318b83610650565b506040515f816001916001549261327884611b9d565b908184526020946001811690815f1461322057506001146132a1575050610505925003826106bd565b9093915060015f52815f20935f915b8183106132c857505061050593508201015f806131d5565b855487840185015294850194869450918301916132b0565b81156132ea570490565b634e487b7160e01b5f52601260045260245ffd5b5f198282098282029182808310920391808303921461336b578160641115613359577f5c28f5c28f5c28f5c28f5c28f5c28f5c28f5c28f5c28f5c28f5c28f5c28f5c29936064910990828211900360fe1b910360021c170290565b634e487b715f5260116020526024601cfd5b5050606491500490565b9065ffffffffffff82549181199060301b169116179055565b600a5490600160401b82101561064b576001820180600a55821015611c32576106ed91600a5f5260205f2001906133ce65ffffffffffff82511683611bf1565b602001516001600160d01b031690613375565b600a549192918015613474576126276133f991612a6a565b9081549165ffffffffffff908184169183168083116134625786920361342a576134239250613375565b60301c9190565b505061345d9061344961343b6106e0565b65ffffffffffff9092168252565b6001600160d01b038516602082015261338e565b613423565b604051632520601d60e01b8152600490fd5b506134989061348461343b6106e0565b6001600160d01b038416602082015261338e565b5f9190565b5f52600960205260405f20600460205265ffffffffffff60405f205460a01c16604051632394e7a360e21b815281600482015260208160248160018060a01b037f0000000000000000000000000000000000000000000000000000000000000000165afa8015610b54576135309261351f925f92611b345750611b2e906125bc565b916002600182015491015490612713565b101590565b307f00000000000000000000000000000000000000000000000000000000000000006001600160a01b03161480613620575b15613590577f000000000000000000000000000000000000000000000000000000000000000090565b60405160208101907f8b73c3c69bb8fe3d512ecc4cf759cc79239f7b179b0ffacaa9a75d522b39400f82527f000000000000000000000000000000000000000000000000000000000000000060408201527f000000000000000000000000000000000000000000000000000000000000000060608201524660808201523060a082015260a0815261216b81610686565b507f00000000000000000000000000000000000000000000000000000000000000004614613567565b8151919060418303613679576136729250602082015190606060408401519301515f1a906138bd565b9192909190565b50505f9160029190565b600181111561050557600181600160801b81101561379b575b61374361373961372f61372561371b61371161374f97600461374a98600160401b81101561378e575b600160201b811015613781575b62010000811015613774575b610100811015613768575b601081101561375c575b1015613754575b60030260011c61370a818b6132e0565b0160011c90565b61370a818a6132e0565b61370a81896132e0565b61370a81886132e0565b61370a81876132e0565b61370a81866132e0565b80936132e0565b821190565b900390565b60011b6136fa565b811c9160021b916136f3565b60081c91811b916136e9565b60101c9160081b916136de565b60201c9160101b916136d2565b60401c9160201b916136c5565b50600160401b9050608082901c61369c565b905b8281106137bb57505090565b90918082169080831860011c8201809211611f4957600a5f525f805160206139a883398151915282015465ffffffffffff90811690851610156138015750915b906137af565b92915061380d90612705565b906137fb565b92909261381f84612705565b83118061389f575b6138396138409194929394151561307d565b5f95612713565b915b8183106138525750505060019190565b9092919360ff61387361386e6020888601015160ff60f81b1690565b613935565b1690600f82116138945790613889600192613093565b019401919290613842565b505f94508493505050565b50602084820101516001600160f01b03191661060f60f31b14613827565b91906fa2a8918ca85bafe22016d0b997e4df60600160ff1b03841161392a579160209360809260ff5f9560405194855216868401526040830152606082015282805260015afa15610b54575f516001600160a01b0381161561392057905f905f90565b505f906001905f90565b5050505f9160039190565b60f81c602f81118061399d575b1561395157602f190160ff1690565b6060811180613993575b1561396a576056190160ff1690565b6040811180613989575b15613983576036190160ff1690565b5060ff90565b5060478110613974565b506067811061395b565b50603a811061394256fec65a7bb8d6351c1cf70c95a316cc6a92839c986682d98bc35f958f4883f9d2a8f2aad550cf55f045cb27e9c559f9889fdfb6e6cdaa032301d6ea397784ae51d73e83946653575f9a39005e1545185629e92736b7528ab20ca3816f315424a811a2646970667358221220a66c5791e14d0359d8c75deca31fc54c1bbd0d42e061acff30c1b0fbaaaf592b64736f6c63430008180033c65a7bb8d6351c1cf70c95a316cc6a92839c986682d98bc35f958f4883f9d2a80553476bf02ef2726e8ce5ced78d63e26e602e4a2257b1f559418e24b4633997",
  "immutableReferences": {
    "4650": [
      {
        "length": 32,
        "start": 5458
      },
      {
        "length": 32,
        "start": 6577
      },
      {
        "length": 32,
        "start": 6885
      },
      {
        "length": 32,
        "start": 7022
      },
      {
        "length": 32,
        "start": 7350
      },
      {
        "length": 32,
        "start": 7869
      },
      {
        "length": 32,
        "start": 8059
      },
      {
        "length": 32,
        "start": 10782
      },
      {
        "length": 32,
        "start": 13535
      }
    ],
    "11587": [
      {
        "length": 32,
        "start": 13678
      }
    ],
    "11589": [
      {
        "length": 32,
        "start": 13859
      }
    ],
    "11591": [
      {
        "length": 32,
        "start": 13624
      }
    ],
    "11593": [
      {
        "length": 32,
        "start": 13757
      }
    ],
    "11595": [
      {
        "length": 32,
        "start": 13795
      }
    ],
    "11598": [
      {
        "length": 32,
        "start": 4874
      }
    ],
    "11601": [
      {
        "length": 32,
        "start": 4918
      }
    ]
  },
  "source": "// SPDX-License-Identifier: MIT\npragma solidity ^0.8.24;\n\nimport \"@openzeppelin/contracts/governance/Governor.sol\";\nimport \"@openzeppelin/contracts/governance/extensions/GovernorSettings.sol\";\nimport \"@openzeppelin/contracts/governance/extensions/GovernorCountingSimple.sol\";\nimport \"@openzeppelin/contracts/governance/extensions/GovernorVotes.sol\";\nimport \"@openzeppelin/contracts/governance/extensions/GovernorVotesQuorumFraction.sol\";\nimport \"@openzeppelin/contracts/governance/extensions/GovernorTimelockControl.sol\";\n\n/**\n * @title ChessGovernor\n * @notice Governance contract for the Chess protocol\n * @dev Implements OpenZeppelin Governor with multiple extensions\n *\n * Voting Parameters:\n * - Voting Delay: 1 day (time before voting starts after proposal)\n * - Voting Period: 5 days\n * - Proposal Threshold: 100,000 CHESS (0.1% of supply to propose)\n * - Quorum: 4% of total supply must vote\n *\n * Key Features:\n * - Token-based voting with delegation (ERC20Votes)\n * - Timelock integration for execution delay\n * - Quorum requirements to prevent low-participation attacks\n * - Simple majority voting (For/Against/Abstain)\n *\n * Governable Parameters:\n * - BondingManager: bondRatioChess, bondRatioEth, minBondEthValue\n * - DisputeDAO: challengeWindow, commitPeriod, revealPeriod, quorum, supermajority\n * - ArbitratorRegistry: tier thresholds, cooldown periods\n * - ChessFactory: platform fee percentage\n */\ncontract ChessGovernor is\n    Governor,\n    GovernorSettings,\n    GovernorCountingSimple,\n    GovernorVotes,\n    GovernorVotesQuorumFraction,\n    GovernorTimelockControl\n{\n    /**\n     * @notice Initialize the governor\n     * @param _token The CHESS token with voting power\n     * @param _timelock The timelock controller for execution\n     */\n    constructor(\n        IVotes _token,\n        TimelockController _timelock\n    )\n        Governor(\"Chess Governor\")\n        GovernorSettings(\n            7200,       // 1 day voting delay (7200 blocks @ 12s/block)\n            36000,      // 5 days voting period (36000 blocks @ 12s/block)\n            100000e18   // 100,000 CHESS proposal threshold\n        )\n        GovernorVotes(_token)\n        GovernorVotesQuorumFraction(4) // 4% quorum\n        GovernorTimelockControl(_timelock)\n    {}\n\n    // Required overrides\n\n    function votingDelay()\n        public\n        view\n        override(Governor, GovernorSettings)\n        returns (uint256)\n    {\n        return super.votingDelay();\n    }\n\n    function votingPeriod()\n        public\n        view\n        override(Governor, GovernorSettings)\n        returns (uint256)\n    {\n        return super.votingPeriod();\n    }\n\n    function quorum(uint256 blockNumber)\n        public\n        view\n        override(Governor, GovernorVotesQuorumFraction)\n        returns (uint256)\n    {\n        return super.quorum(blockNumber);\n    }\n\n    function state(uint256 proposalId)\n        public\n        view\n        override(Governor, GovernorTimelockControl)\n        returns (ProposalState)\n    {\n        return super.state(proposalId);\n    }\n\n    function proposalNeedsQueuing(uint256 proposalId)\n        public\n        view\n        override(Governor, GovernorTimelockControl)\n        returns (bool)\n    {\n        return super.proposalNeedsQueuing(proposalId);\n    }\n\n    function proposalThreshold()\n        public\n        view\n        override(Governor, GovernorSettings)\n        returns (uint256)\n    {\n        return super.proposalThreshold();\n    }\n\n    function _queueOperations(\n        uint256 proposalId,\n        address[] memory targets,\n        uint256[] memory values,\n        bytes[] memory calldatas,\n        bytes32 descriptionHash\n    ) internal override(Governor, GovernorTimelockControl) returns (uint48) {\n        return super._queueOperations(proposalId, targets, values, calldatas, descriptionHash);\n    }\n\n    function _executeOperations(\n        uint256 proposalId,\n        address[] memory targets,\n        uint256[] memory values,\n        bytes[] memory calldatas,\n        bytes32 descriptionHash\n    ) internal override(Governor, GovernorTimelockControl) {\n        super._executeOperations(proposalId, targets, values, calldatas, descriptionHash);\n    }\n\n    function _cancel(\n        address[] memory targets,\n        uint256[] memory values,\n        bytes[] memory calldatas,\n        bytes32 descriptionHash\n    ) internal override(Governor, GovernorTimelockControl) returns (uint256) {\n        return super._cancel(targets, values, calldatas, descriptionHash);\n    }\n\n    function _executor()\n        internal\n        view\n        override(Governor, GovernorTimelockControl)\n        returns (address)\n    {\n        return super._executor();\n    }\n}\n",
  "sourcePath": "/Users/jacopo/Documents/solidity/chessgame/ethereum/contracts/Governance/ChessGovernor.sol",
  "compiler": {
    "name": "solc",
    "version": "0.8.24+commit.e11b9ed9.Emscripten.clang"
  },
  "schemaVersion": "3.4.16",
  "updatedAt": "2026-01-07T00:53:44.158Z",
  "devdoc": {
    "details": "Implements OpenZeppelin Governor with multiple extensions Voting Parameters: - Voting Delay: 1 day (time before voting starts after proposal) - Voting Period: 5 days - Proposal Threshold: 100,000 CHESS (0.1% of supply to propose) - Quorum: 4% of total supply must vote Key Features: - Token-based voting with delegation (ERC20Votes) - Timelock integration for execution delay - Quorum requirements to prevent low-participation attacks - Simple majority voting (For/Against/Abstain) Governable Parameters: - BondingManager: bondRatioChess, bondRatioEth, minBondEthValue - DisputeDAO: challengeWindow, commitPeriod, revealPeriod, quorum, supermajority - ArbitratorRegistry: tier thresholds, cooldown periods - ChessFactory: platform fee percentage",
    "errors": {
      "CheckpointUnorderedInsertion()": [
        {
          "details": "A value was attempted to be inserted on a past checkpoint."
        }
      ],
      "FailedCall()": [
        {
          "details": "A call to an address target failed. The target may have reverted."
        }
      ],
      "GovernorAlreadyCastVote(address)": [
        {
          "details": "The vote was already cast."
        }
      ],
      "GovernorAlreadyQueuedProposal(uint256)": [
        {
          "details": "The proposal has already been queued."
        }
      ],
      "GovernorDisabledDeposit()": [
        {
          "details": "Token deposits are disabled in this contract."
        }
      ],
      "GovernorInsufficientProposerVotes(address,uint256,uint256)": [
        {
          "details": "The `proposer` does not have the required votes to create a proposal."
        }
      ],
      "GovernorInvalidProposalLength(uint256,uint256,uint256)": [
        {
          "details": "Empty proposal or a mismatch between the parameters length for a proposal call."
        }
      ],
      "GovernorInvalidQuorumFraction(uint256,uint256)": [
        {
          "details": "The quorum set is not a valid fraction."
        }
      ],
      "GovernorInvalidSignature(address)": [
        {
          "details": "The provided signature is not valid for the expected `voter`. If the `voter` is a contract, the signature is not valid using {IERC1271-isValidSignature}."
        }
      ],
      "GovernorInvalidVoteParams()": [
        {
          "details": "The provided params buffer is not supported by the counting module."
        }
      ],
      "GovernorInvalidVoteType()": [
        {
          "details": "The vote type used is not valid for the corresponding counting module."
        }
      ],
      "GovernorInvalidVotingPeriod(uint256)": [
        {
          "details": "The voting period set is not a valid period."
        }
      ],
      "GovernorNonexistentProposal(uint256)": [
        {
          "details": "The `proposalId` doesn't exist."
        }
      ],
      "GovernorNotQueuedProposal(uint256)": [
        {
          "details": "The proposal hasn't been queued yet."
        }
      ],
      "GovernorOnlyExecutor(address)": [
        {
          "details": "The `account` is not the governance executor."
        }
      ],
      "GovernorQueueNotImplemented()": [
        {
          "details": "Queue operation is not implemented for this governor. Execute should be called directly."
        }
      ],
      "GovernorRestrictedProposer(address)": [
        {
          "details": "The `proposer` is not allowed to create a proposal."
        }
      ],
      "GovernorUnableToCancel(uint256,address)": [
        {
          "details": "The given `account` is unable to cancel the proposal with given `proposalId`."
        }
      ],
      "GovernorUnexpectedProposalState(uint256,uint8,bytes32)": [
        {
          "details": "The current state of a proposal is not the required for performing an operation. The `expectedStates` is a bitmap with the bits enabled for each ProposalState enum position counting from right to left. NOTE: If `expectedState` is `bytes32(0)`, the proposal is expected to not be in any state (i.e. not exist). This is the case when a proposal that is expected to be unset is already initiated (the proposal is duplicated). See {Governor-_encodeStateBitmap}."
        }
      ],
      "InvalidAccountNonce(address,uint256)": [
        {
          "details": "The nonce used for an `account` is not the expected current nonce."
        }
      ],
      "SafeCastOverflowedUintDowncast(uint8,uint256)": [
        {
          "details": "Value doesn't fit in an uint of `bits` size."
        }
      ]
    },
    "events": {
      "EIP712DomainChanged()": {
        "details": "MAY be emitted to signal that the domain could have changed."
      },
      "ProposalCanceled(uint256)": {
        "details": "Emitted when a proposal is canceled."
      },
      "ProposalCreated(uint256,address,address[],uint256[],string[],bytes[],uint256,uint256,string)": {
        "details": "Emitted when a proposal is created."
      },
      "ProposalExecuted(uint256)": {
        "details": "Emitted when a proposal is executed."
      },
      "ProposalQueued(uint256,uint256)": {
        "details": "Emitted when a proposal is queued."
      },
      "TimelockChange(address,address)": {
        "details": "Emitted when the timelock controller used for proposal execution is modified."
      },
      "VoteCast(address,uint256,uint8,uint256,string)": {
        "details": "Emitted when a vote is cast without params. Note: `support` values should be seen as buckets. Their interpretation depends on the voting module used."
      },
      "VoteCastWithParams(address,uint256,uint8,uint256,string,bytes)": {
        "details": "Emitted when a vote is cast with params. Note: `support` values should be seen as buckets. Their interpretation depends on the voting module used. `params` are additional encoded parameters. Their interpretation  also depends on the voting module used."
      }
    },
    "kind": "dev",
    "methods": {
      "CLOCK_MODE()": {
        "details": "Machine-readable description of the clock as specified in ERC-6372."
      },
      "COUNTING_MODE()": {
        "details": "A description of the possible `support` values for {castVote} and the way these votes are counted, meant to be consumed by UIs to show correct vote options and interpret the results. The string is a URL-encoded sequence of key-value pairs that each describe one aspect, for example `support=bravo&quorum=for,abstain`. There are 2 standard keys: `support` and `quorum`. - `support=bravo` refers to the vote options 0 = Against, 1 = For, 2 = Abstain, as in `GovernorBravo`. - `quorum=bravo` means that only For votes are counted towards quorum. - `quorum=for,abstain` means that both For and Abstain votes are counted towards quorum. If a counting module makes use of encoded `params`, it should  include this under a `params` key with a unique name that describes the behavior. For example: - `params=fractional` might refer to a scheme where votes are divided fractionally between for/against/abstain. - `params=erc721` might refer to a scheme where specific NFTs are delegated to vote. NOTE: The string can be decoded by the standard https://developer.mozilla.org/en-US/docs/Web/API/URLSearchParams[`URLSearchParams`] JavaScript class."
      },
      "cancel(address[],uint256[],bytes[],bytes32)": {
        "details": "Cancel a proposal. A proposal is cancellable by the proposer, but only while it is Pending state, i.e. before the vote starts. Emits a {ProposalCanceled} event."
      },
      "castVote(uint256,uint8)": {
        "details": "Cast a vote Emits a {VoteCast} event."
      },
      "castVoteBySig(uint256,uint8,address,bytes)": {
        "details": "Cast a vote using the voter's signature, including ERC-1271 signature support. Emits a {VoteCast} event."
      },
      "castVoteWithReason(uint256,uint8,string)": {
        "details": "Cast a vote with a reason Emits a {VoteCast} event."
      },
      "castVoteWithReasonAndParams(uint256,uint8,string,bytes)": {
        "details": "Cast a vote with a reason and additional encoded parameters Emits a {VoteCast} or {VoteCastWithParams} event depending on the length of params."
      },
      "castVoteWithReasonAndParamsBySig(uint256,uint8,address,string,bytes,bytes)": {
        "details": "Cast a vote with a reason and additional encoded parameters using the voter's signature, including ERC-1271 signature support. Emits a {VoteCast} or {VoteCastWithParams} event depending on the length of params."
      },
      "clock()": {
        "details": "Clock (as specified in ERC-6372) is set to match the token's clock. Fallback to block numbers if the token does not implement ERC-6372."
      },
      "constructor": {
        "params": {
          "_timelock": "The timelock controller for execution",
          "_token": "The CHESS token with voting power"
        }
      },
      "eip712Domain()": {
        "details": "returns the fields and values that describe the domain separator used by this contract for EIP-712 signature."
      },
      "execute(address[],uint256[],bytes[],bytes32)": {
        "details": "Execute a successful proposal. This requires the quorum to be reached, the vote to be successful, and the deadline to be reached. Depending on the governor it might also be required that the proposal was queued and that some delay passed. Emits a {ProposalExecuted} event. NOTE: Some modules can modify the requirements for execution, for example by adding an additional timelock."
      },
      "getProposalId(address[],uint256[],bytes[],bytes32)": {
        "details": "Function used to get the proposal id from the proposal details."
      },
      "getVotes(address,uint256)": {
        "details": "Voting power of an `account` at a specific `timepoint`. Note: this can be implemented in a number of ways, for example by reading the delegated balance from one (or multiple), {ERC20Votes} tokens."
      },
      "getVotesWithParams(address,uint256,bytes)": {
        "details": "Voting power of an `account` at a specific `timepoint` given additional encoded parameters."
      },
      "hasVoted(uint256,address)": {
        "details": "Returns whether `account` has cast a vote on `proposalId`."
      },
      "hashProposal(address[],uint256[],bytes[],bytes32)": {
        "details": "See {IGovernor-hashProposal}. The proposal id is produced by hashing the ABI encoded `targets` array, the `values` array, the `calldatas` array and the descriptionHash (bytes32 which itself is the keccak256 hash of the description string). This proposal id can be produced from the proposal data which is part of the {ProposalCreated} event. It can even be computed in advance, before the proposal is submitted. Note that the chainId and the governor address are not part of the proposal id computation. Consequently, the same proposal (with same operation and same description) will have the same id if submitted on multiple governors across multiple networks. This also means that in order to execute the same operation twice (on the same governor) the proposer will have to change the description in order to avoid proposal id conflicts."
      },
      "name()": {
        "details": "Name of the governor instance (used in building the EIP-712 domain separator)."
      },
      "nonces(address)": {
        "details": "Returns the next unused nonce for an address."
      },
      "onERC1155BatchReceived(address,address,uint256[],uint256[],bytes)": {
        "details": "See {IERC1155Receiver-onERC1155BatchReceived}. Receiving tokens is disabled if the governance executor is other than the governor itself (eg. when using with a timelock)."
      },
      "onERC1155Received(address,address,uint256,uint256,bytes)": {
        "details": "See {IERC1155Receiver-onERC1155Received}. Receiving tokens is disabled if the governance executor is other than the governor itself (eg. when using with a timelock)."
      },
      "onERC721Received(address,address,uint256,bytes)": {
        "details": "See {IERC721Receiver-onERC721Received}. Receiving tokens is disabled if the governance executor is other than the governor itself (eg. when using with a timelock)."
      },
      "proposalDeadline(uint256)": {
        "details": "Timepoint at which votes close. If using block number, votes close at the end of this block, so it is possible to cast a vote during this block."
      },
      "proposalEta(uint256)": {
        "details": "The time when a queued proposal becomes executable (\"ETA\"). Unlike {proposalSnapshot} and {proposalDeadline}, this doesn't use the governor clock, and instead relies on the executor's clock which may be different. In most cases this will be a timestamp."
      },
      "proposalProposer(uint256)": {
        "details": "The account that created a proposal."
      },
      "proposalSnapshot(uint256)": {
        "details": "Timepoint used to retrieve user's votes and quorum. If using block number (as per Compound's Comp), the snapshot is performed at the end of this block. Hence, voting for this proposal starts at the beginning of the following block."
      },
      "proposalVotes(uint256)": {
        "details": "Accessor to the internal vote counts."
      },
      "propose(address[],uint256[],bytes[],string)": {
        "details": "See {IGovernor-propose}. This function has opt-in frontrunning protection, described in {_isValidDescriptionForProposer}."
      },
      "queue(address[],uint256[],bytes[],bytes32)": {
        "details": "Queue a proposal. Some governors require this step to be performed before execution can happen. If queuing is not necessary, this function may revert. Queuing a proposal requires the quorum to be reached, the vote to be successful, and the deadline to be reached. Emits a {ProposalQueued} event."
      },
      "quorumDenominator()": {
        "details": "Returns the quorum denominator. Defaults to 100, but may be overridden."
      },
      "quorumNumerator()": {
        "details": "Returns the current quorum numerator. See {quorumDenominator}."
      },
      "quorumNumerator(uint256)": {
        "details": "Returns the quorum numerator at a specific timepoint. See {quorumDenominator}."
      },
      "relay(address,uint256,bytes)": {
        "details": "Relays a transaction or function call to an arbitrary target. In cases where the governance executor is some contract other than the governor itself, like when using a timelock, this function can be invoked in a governance proposal to recover tokens or Ether that was sent to the governor contract by mistake. Note that if the executor is simply the governor itself, use of `relay` is redundant."
      },
      "setProposalThreshold(uint256)": {
        "details": "Update the proposal threshold. This operation can only be performed through a governance proposal. Emits a {ProposalThresholdSet} event."
      },
      "setVotingDelay(uint48)": {
        "details": "Update the voting delay. This operation can only be performed through a governance proposal. Emits a {VotingDelaySet} event."
      },
      "setVotingPeriod(uint32)": {
        "details": "Update the voting period. This operation can only be performed through a governance proposal. Emits a {VotingPeriodSet} event."
      },
      "supportsInterface(bytes4)": {
        "details": "Returns true if this contract implements the interface defined by `interfaceId`. See the corresponding https://eips.ethereum.org/EIPS/eip-165#how-interfaces-are-identified[ERC section] to learn more about how these ids are created. This function call must use less than 30 000 gas."
      },
      "timelock()": {
        "details": "Public accessor to check the address of the timelock"
      },
      "token()": {
        "details": "The token that voting power is sourced from."
      },
      "updateQuorumNumerator(uint256)": {
        "details": "Changes the quorum numerator. Emits a {QuorumNumeratorUpdated} event. Requirements: - Must be called through a governance proposal. - New numerator must be smaller or equal to the denominator."
      },
      "updateTimelock(address)": {
        "details": "Public endpoint to update the underlying timelock instance. Restricted to the timelock itself, so updates must be proposed, scheduled, and executed through governance proposals. CAUTION: It is not recommended to change the timelock while there are other queued governance proposals."
      },
      "version()": {
        "details": "Version of the governor instance (used in building the EIP-712 domain separator). Default: \"1\""
      }
    },
    "title": "ChessGovernor",
    "version": 1
  },
  "userdoc": {
    "kind": "user",
    "methods": {
      "COUNTING_MODE()": {
        "notice": "module:voting"
      },
      "constructor": {
        "notice": "Initialize the governor"
      },
      "getProposalId(address[],uint256[],bytes[],bytes32)": {
        "notice": "module:core"
      },
      "getVotes(address,uint256)": {
        "notice": "module:reputation"
      },
      "getVotesWithParams(address,uint256,bytes)": {
        "notice": "module:reputation"
      },
      "hasVoted(uint256,address)": {
        "notice": "module:voting"
      },
      "name()": {
        "notice": "module:core"
      },
      "proposalDeadline(uint256)": {
        "notice": "module:core"
      },
      "proposalEta(uint256)": {
        "notice": "module:core"
      },
      "proposalProposer(uint256)": {
        "notice": "module:core"
      },
      "proposalSnapshot(uint256)": {
        "notice": "module:core"
      },
      "version()": {
        "notice": "module:core"
      }
    },
    "notice": "Governance contract for the Chess protocol",
    "version": 1
  }
}