{
  "contractName": "ChessBoard",
  "abi": [
    {
      "inputs": [
        {
          "internalType": "uint256",
          "name": "",
          "type": "uint256"
        },
        {
          "internalType": "uint256",
          "name": "",
          "type": "uint256"
        }
      ],
      "name": "board",
      "outputs": [
        {
          "internalType": "int8",
          "name": "",
          "type": "int8"
        }
      ],
      "stateMutability": "view",
      "type": "function"
    },
    {
      "inputs": [],
      "name": "printBoard",
      "outputs": [
        {
          "internalType": "string",
          "name": "",
          "type": "string"
        }
      ],
      "stateMutability": "pure",
      "type": "function"
    },
    {
      "inputs": [],
      "name": "printChessBoardLayoutSVG",
      "outputs": [
        {
          "internalType": "string",
          "name": "",
          "type": "string"
        }
      ],
      "stateMutability": "view",
      "type": "function"
    },
    {
      "inputs": [],
      "name": "getBoardState",
      "outputs": [
        {
          "internalType": "int8[8][8]",
          "name": "",
          "type": "int8[8][8]"
        }
      ],
      "stateMutability": "view",
      "type": "function"
    }
  ],
  "bytecode": "0x6101608060405234610077575f608052600160a052600260c052600360e052610100906004825261012060058152610140906006825266ff00000000000080196008541617600855610458938461007c853960805184505060a05184505060c05184505060e051845050518350505182505051815050f35b5f80fdfe6040608081526004361015610012575f80fd5b5f90813560e01c8063085791b61461018d5780632420f7f0146100e45780638086a92a146100a057639454986514610048575f80fd5b3461009c578160031936011261009c57805190602082016001600160401b0381118382101761008857926100849382528252519182918261030b565b0390f35b634e487b7160e01b84526041600452602484fd5b5080fd5b503461009c578060031936011261009c576004359160243591600884101561009c57600883101561009c5760f86020948460051c015491519360031b161c900b8152f35b50903461018a578060031936011261018a5781519061010282610337565b805b6101008082101561012b5784516020929161011e82610337565b3682378185015201610104565b848361013561038a565b9151918190835b6008808410156101845782518590835b83831061016b575050505060206101006001920192019201919061013c565b6001908251890b8152602080910192019201919061014c565b61080086f35b80fd5b50903461018a578060031936011261018a576101a761038a565b8251639ef3eb8760e01b815292829190600485015b6008808510156102045783518690835b8383106101eb57505050506020610100600192019301930192916101bc565b60019082518a0b815260208091019201920191906101cc565b86868481836108048173__ChessMediaLibrary_____________________5af49182156102df57809261023f575b815180610084858261030b565b9091503d8082853e6102518185610367565b83019060208483031261018a5783516001600160401b03948582116102db57019082601f8301121561018a5781519485116102c75783519261029d601f8701601f191660200185610367565b8584526020868401011161018a5750610084936102c091602080850191016102ea565b9083610232565b634e487b7160e01b81526041600452602490fd5b8280fd5b9051903d90823e3d90fd5b5f5b8381106102fb5750505f910152565b81810151838201526020016102ec565b6040916020825261032b81518092816020860152602086860191016102ea565b601f01601f1916010190565b61010081019081106001600160401b0382111761035357604052565b634e487b7160e01b5f52604160045260245ffd5b601f909101601f19168101906001600160401b0382119082101761035357604052565b60409081519061039982610337565b5f928390835b6008908187101561041957600191829184518654805f0b8252806020941c5f0b848301528060101c5f0b878301528060181c5f0b606083015280841c5f0b60808301528060281c5f0b60a08301528060301c5f0b60c083015260381c5f0b60e082015261040b81610337565b81520193019501949161039f565b5050505090915056fea2646970667358221220963423d9557f3c8892228892d0110b005d52d7c5f2a5e82b01e52a04e78bd42d64736f6c63430008140033",
  "immutableReferences": {},
  "source": "// SPDX-License-Identifier: MIT\npragma solidity ^0.8.20;\n\nimport \"./ChessMediaLibrary.sol\";\n\n/// @title ChessBoard - Base contract with board state and constants\n/// @notice Contains the chessboard, piece constants, and initialization logic\ncontract ChessBoard {\n    uint8 constant BOARD_SIZE = 8;\n\n    using ChessMediaLibrary for int8[BOARD_SIZE][BOARD_SIZE];\n    int8[BOARD_SIZE][BOARD_SIZE] public board;\n\n    // Piece constants from ChessMediaLibrary\n    int8 internal immutable EMPTY = ChessMediaLibrary.EMPTY;\n    int8 internal immutable PAWN = ChessMediaLibrary.PAWN;\n    int8 internal immutable KNIGHT = ChessMediaLibrary.KNIGHT;\n    int8 internal immutable BISHOP = ChessMediaLibrary.BISHOP;\n    int8 internal immutable ROOK = ChessMediaLibrary.ROOK;\n    int8 internal immutable QUEEN = ChessMediaLibrary.QUEEN;\n    int8 internal immutable KING = ChessMediaLibrary.KING;\n\n    // Row constants\n    uint8 internal constant ROW_BLACK_PIECES = 0;\n    uint8 internal constant ROW_BLACK_PAWNS = 1;\n    uint8 internal constant ROW_BLACK_PAWNS_LONG_OPENING = 3;\n    uint8 internal constant ROW_WHITE_PAWNS_LONG_OPENING = 4;\n    uint8 internal constant ROW_WHITE_PAWNS = 6;\n    uint8 internal constant ROW_WHITE_PIECES = 7;\n\n    // Column constants\n    uint8 internal constant COL_SHORTW_LONGB_ROOK = 0;\n    uint8 internal constant COL_UNNAMED_KNIGHT = 1;\n    uint8 internal constant COL_BISHOP = 2;\n    uint8 internal constant COL_QUEEN = 3;\n    uint8 internal constant COL_KING = 4;\n    uint8 internal constant COL_UNNAMED_BISHOP = 5;\n    uint8 internal constant COL_KNIGHT = 6;\n    uint8 internal constant COL_LONGW_SHORTB_ROOK = 7;\n\n    // Player constants\n    int8 internal constant PLAYER_WHITE = 1;\n    int8 internal constant PLAYER_BLACK = -1;\n\n    // Castling tracking\n    bool internal whiteKingMoved;\n    bool internal whiteShortRookMoved;\n    bool internal whiteLongRookMoved;\n    bool internal blackKingMoved;\n    bool internal blackLongRookMoved;\n    bool internal blackShortRookMoved;\n\n    // En passant tracking\n    int8 internal enPassantCol = -1;\n    uint8 internal enPassantRow;\n\n    // King position caching (avoids O(n²) search)\n    uint8 internal whiteKingRow;\n    uint8 internal whiteKingCol;\n    uint8 internal blackKingRow;\n    uint8 internal blackKingCol;\n\n    /// @notice Initialize the board with starting positions\n    function initializeBoard() internal {\n        // Set up black pieces (row 0)\n        board[ROW_BLACK_PIECES][COL_SHORTW_LONGB_ROOK] = -ROOK;\n        board[ROW_BLACK_PIECES][COL_UNNAMED_KNIGHT] = -KNIGHT;\n        board[ROW_BLACK_PIECES][COL_BISHOP] = -BISHOP;\n        board[ROW_BLACK_PIECES][COL_QUEEN] = -QUEEN;\n        board[ROW_BLACK_PIECES][COL_KING] = -KING;\n        board[ROW_BLACK_PIECES][COL_UNNAMED_BISHOP] = -BISHOP;\n        board[ROW_BLACK_PIECES][COL_KNIGHT] = -KNIGHT;\n        board[ROW_BLACK_PIECES][COL_LONGW_SHORTB_ROOK] = -ROOK;\n\n        for (uint8 col = 0; col < BOARD_SIZE; col++) {\n            board[ROW_BLACK_PAWNS][col] = -PAWN;\n        }\n\n        // Set up white pieces (row 7)\n        board[ROW_WHITE_PIECES][COL_SHORTW_LONGB_ROOK] = ROOK;\n        board[ROW_WHITE_PIECES][COL_UNNAMED_KNIGHT] = KNIGHT;\n        board[ROW_WHITE_PIECES][COL_BISHOP] = BISHOP;\n        board[ROW_WHITE_PIECES][COL_QUEEN] = QUEEN;\n        board[ROW_WHITE_PIECES][COL_KING] = KING;\n        board[ROW_WHITE_PIECES][COL_UNNAMED_BISHOP] = BISHOP;\n        board[ROW_WHITE_PIECES][COL_KNIGHT] = KNIGHT;\n        board[ROW_WHITE_PIECES][COL_LONGW_SHORTB_ROOK] = ROOK;\n\n        for (uint8 col = 0; col < BOARD_SIZE; col++) {\n            board[ROW_WHITE_PAWNS][col] = PAWN;\n        }\n\n        // Reset castling flags\n        whiteKingMoved = false;\n        whiteShortRookMoved = false;\n        whiteLongRookMoved = false;\n        blackKingMoved = false;\n        blackLongRookMoved = false;\n        blackShortRookMoved = false;\n\n        // Initialize king positions\n        whiteKingRow = ROW_WHITE_PIECES;\n        whiteKingCol = COL_KING;\n        blackKingRow = ROW_BLACK_PIECES;\n        blackKingCol = COL_KING;\n    }\n\n    /// @notice Absolute value of int8\n    function abs(int8 x) internal pure returns (uint8) {\n        return x >= 0 ? uint8(x) : uint8(-x);\n    }\n\n    /// @notice Print board as string (deprecated - use getBoardState)\n    function printBoard() public pure returns (string memory) {\n        return \"\";\n    }\n\n    /// @notice Get SVG representation of the board\n    function printChessBoardLayoutSVG() external view returns (string memory) {\n        return board.getCurrentBoard();\n    }\n\n    /// @notice Get entire board state in a single call (saves 63 RPC calls)\n    /// @return The complete 8x8 board array\n    function getBoardState() external view returns (int8[8][8] memory) {\n        return board;\n    }\n}\n",
  "sourcePath": "/Users/jacopo/Documents/solidity/chessgame/ethereum/contracts/Chess/ChessBoard.sol",
  "compiler": {
    "name": "solc",
    "version": "0.8.20+commit.a1b79de6.Emscripten.clang"
  },
  "schemaVersion": "3.4.16",
  "updatedAt": "2025-12-31T01:52:07.331Z",
  "devdoc": {
    "kind": "dev",
    "methods": {
      "getBoardState()": {
        "returns": {
          "_0": "The complete 8x8 board array"
        }
      }
    },
    "title": "ChessBoard - Base contract with board state and constants",
    "version": 1
  },
  "userdoc": {
    "kind": "user",
    "methods": {
      "getBoardState()": {
        "notice": "Get entire board state in a single call (saves 63 RPC calls)"
      },
      "printBoard()": {
        "notice": "Print board as string (deprecated - use getBoardState)"
      },
      "printChessBoardLayoutSVG()": {
        "notice": "Get SVG representation of the board"
      }
    },
    "notice": "Contains the chessboard, piece constants, and initialization logic",
    "version": 1
  }
}