{
  "contractName": "ChessCore",
  "abi": [
    {
      "inputs": [],
      "stateMutability": "nonpayable",
      "type": "constructor"
    },
    {
      "inputs": [],
      "name": "AlreadyInitialized",
      "type": "error"
    },
    {
      "inputs": [],
      "name": "AlreadyWhitePlayer",
      "type": "error"
    },
    {
      "inputs": [],
      "name": "BlackPlayerTaken",
      "type": "error"
    },
    {
      "inputs": [],
      "name": "CancelTimeoutNotReached",
      "type": "error"
    },
    {
      "inputs": [],
      "name": "CancelledGame",
      "type": "error"
    },
    {
      "inputs": [],
      "name": "CannotClaimYet",
      "type": "error"
    },
    {
      "inputs": [],
      "name": "CannotResign",
      "type": "error"
    },
    {
      "inputs": [],
      "name": "FiftyMoveRuleNotReached",
      "type": "error"
    },
    {
      "inputs": [],
      "name": "FriendlyOnly",
      "type": "error"
    },
    {
      "inputs": [],
      "name": "GameAlreadyStarted",
      "type": "error"
    },
    {
      "inputs": [],
      "name": "GameNotFinished",
      "type": "error"
    },
    {
      "inputs": [],
      "name": "GameNotInProgress",
      "type": "error"
    },
    {
      "inputs": [],
      "name": "GameNotStarted",
      "type": "error"
    },
    {
      "inputs": [],
      "name": "InvalidCoordinates",
      "type": "error"
    },
    {
      "inputs": [],
      "name": "InvalidMove",
      "type": "error"
    },
    {
      "inputs": [],
      "name": "InvalidPromotionPiece",
      "type": "error"
    },
    {
      "inputs": [],
      "name": "NoDrawOffer",
      "type": "error"
    },
    {
      "inputs": [],
      "name": "NoPrizeToDistribute",
      "type": "error"
    },
    {
      "inputs": [],
      "name": "NotAPlayer",
      "type": "error"
    },
    {
      "inputs": [],
      "name": "NotPrizeRecipient",
      "type": "error"
    },
    {
      "inputs": [],
      "name": "NotTimedOut",
      "type": "error"
    },
    {
      "inputs": [],
      "name": "NotYourTurn",
      "type": "error"
    },
    {
      "inputs": [],
      "name": "OnlyWhitePlayer",
      "type": "error"
    },
    {
      "inputs": [],
      "name": "PositionNotRepeated",
      "type": "error"
    },
    {
      "inputs": [],
      "name": "PrizeAlreadyClaimed",
      "type": "error"
    },
    {
      "inputs": [],
      "name": "ReentrancyGuardReentrantCall",
      "type": "error"
    },
    {
      "inputs": [],
      "name": "TransferFailed",
      "type": "error"
    },
    {
      "inputs": [],
      "name": "WrongBetAmount",
      "type": "error"
    },
    {
      "anonymous": false,
      "inputs": [],
      "name": "DrawAccepted",
      "type": "event"
    },
    {
      "anonymous": false,
      "inputs": [
        {
          "indexed": true,
          "internalType": "address",
          "name": "claimant",
          "type": "address"
        }
      ],
      "name": "DrawByFiftyMoveRule",
      "type": "event"
    },
    {
      "anonymous": false,
      "inputs": [
        {
          "indexed": true,
          "internalType": "address",
          "name": "claimant",
          "type": "address"
        }
      ],
      "name": "DrawByRepetition",
      "type": "event"
    },
    {
      "anonymous": false,
      "inputs": [
        {
          "indexed": true,
          "internalType": "address",
          "name": "player",
          "type": "address"
        }
      ],
      "name": "DrawOfferDeclined",
      "type": "event"
    },
    {
      "anonymous": false,
      "inputs": [
        {
          "indexed": true,
          "internalType": "address",
          "name": "player",
          "type": "address"
        }
      ],
      "name": "DrawOffered",
      "type": "event"
    },
    {
      "anonymous": false,
      "inputs": [
        {
          "indexed": true,
          "internalType": "address",
          "name": "player",
          "type": "address"
        },
        {
          "indexed": false,
          "internalType": "uint256",
          "name": "refundAmount",
          "type": "uint256"
        }
      ],
      "name": "GameCancelled",
      "type": "event"
    },
    {
      "anonymous": false,
      "inputs": [
        {
          "indexed": true,
          "internalType": "address",
          "name": "whitePlayer",
          "type": "address"
        },
        {
          "indexed": true,
          "internalType": "address",
          "name": "blackPlayer",
          "type": "address"
        },
        {
          "indexed": false,
          "internalType": "uint256",
          "name": "betAmount",
          "type": "uint256"
        }
      ],
      "name": "GameStarted",
      "type": "event"
    },
    {
      "anonymous": false,
      "inputs": [
        {
          "indexed": false,
          "internalType": "enum ChessCore.GameState",
          "name": "newState",
          "type": "uint8"
        }
      ],
      "name": "GameStateChanged",
      "type": "event"
    },
    {
      "anonymous": false,
      "inputs": [
        {
          "indexed": false,
          "internalType": "address",
          "name": "winner",
          "type": "address"
        },
        {
          "indexed": false,
          "internalType": "address",
          "name": "loser",
          "type": "address"
        }
      ],
      "name": "GameTimeout",
      "type": "event"
    },
    {
      "anonymous": false,
      "inputs": [
        {
          "indexed": true,
          "internalType": "address",
          "name": "player",
          "type": "address"
        },
        {
          "indexed": false,
          "internalType": "uint8",
          "name": "fromRow",
          "type": "uint8"
        },
        {
          "indexed": false,
          "internalType": "uint8",
          "name": "fromCol",
          "type": "uint8"
        },
        {
          "indexed": false,
          "internalType": "uint8",
          "name": "toRow",
          "type": "uint8"
        },
        {
          "indexed": false,
          "internalType": "uint8",
          "name": "toCol",
          "type": "uint8"
        },
        {
          "indexed": false,
          "internalType": "int8",
          "name": "piece",
          "type": "int8"
        },
        {
          "indexed": false,
          "internalType": "int8",
          "name": "capturedPiece",
          "type": "int8"
        },
        {
          "indexed": false,
          "internalType": "int8",
          "name": "promotionPiece",
          "type": "int8"
        },
        {
          "indexed": false,
          "internalType": "bool",
          "name": "isCheck",
          "type": "bool"
        },
        {
          "indexed": false,
          "internalType": "bool",
          "name": "isMate",
          "type": "bool"
        },
        {
          "indexed": false,
          "internalType": "bool",
          "name": "isCastling",
          "type": "bool"
        },
        {
          "indexed": false,
          "internalType": "bool",
          "name": "isEnPassant",
          "type": "bool"
        }
      ],
      "name": "MoveMade",
      "type": "event"
    },
    {
      "anonymous": false,
      "inputs": [
        {
          "indexed": false,
          "internalType": "address",
          "name": "player",
          "type": "address"
        },
        {
          "indexed": false,
          "internalType": "address",
          "name": "winner",
          "type": "address"
        }
      ],
      "name": "PlayerResigned",
      "type": "event"
    },
    {
      "anonymous": false,
      "inputs": [
        {
          "indexed": false,
          "internalType": "address",
          "name": "winner",
          "type": "address"
        },
        {
          "indexed": false,
          "internalType": "uint256",
          "name": "amount",
          "type": "uint256"
        }
      ],
      "name": "PrizeClaimed",
      "type": "event"
    },
    {
      "anonymous": false,
      "inputs": [
        {
          "indexed": false,
          "internalType": "address",
          "name": "white",
          "type": "address"
        },
        {
          "indexed": false,
          "internalType": "address",
          "name": "black",
          "type": "address"
        },
        {
          "indexed": false,
          "internalType": "uint8",
          "name": "result",
          "type": "uint8"
        }
      ],
      "name": "RatingReportFailed",
      "type": "event"
    },
    {
      "inputs": [],
      "name": "BUTERIN_BLOCKS",
      "outputs": [
        {
          "internalType": "uint48",
          "name": "",
          "type": "uint48"
        }
      ],
      "stateMutability": "view",
      "type": "function"
    },
    {
      "inputs": [],
      "name": "CANCEL_UNJOINED_TIMEOUT",
      "outputs": [
        {
          "internalType": "uint48",
          "name": "",
          "type": "uint48"
        }
      ],
      "stateMutability": "view",
      "type": "function"
    },
    {
      "inputs": [],
      "name": "FINNEY_BLOCKS",
      "outputs": [
        {
          "internalType": "uint48",
          "name": "",
          "type": "uint48"
        }
      ],
      "stateMutability": "view",
      "type": "function"
    },
    {
      "inputs": [],
      "name": "NAKAMOTO_BLOCKS",
      "outputs": [
        {
          "internalType": "uint48",
          "name": "",
          "type": "uint48"
        }
      ],
      "stateMutability": "view",
      "type": "function"
    },
    {
      "inputs": [],
      "name": "betting",
      "outputs": [
        {
          "internalType": "uint256",
          "name": "",
          "type": "uint256"
        }
      ],
      "stateMutability": "view",
      "type": "function"
    },
    {
      "inputs": [],
      "name": "blackLastMoveBlock",
      "outputs": [
        {
          "internalType": "uint48",
          "name": "",
          "type": "uint48"
        }
      ],
      "stateMutability": "view",
      "type": "function"
    },
    {
      "inputs": [
        {
          "internalType": "uint256",
          "name": "",
          "type": "uint256"
        },
        {
          "internalType": "uint256",
          "name": "",
          "type": "uint256"
        }
      ],
      "name": "board",
      "outputs": [
        {
          "internalType": "int8",
          "name": "",
          "type": "int8"
        }
      ],
      "stateMutability": "view",
      "type": "function"
    },
    {
      "inputs": [],
      "name": "bondingManager",
      "outputs": [
        {
          "internalType": "contract BondingManager",
          "name": "",
          "type": "address"
        }
      ],
      "stateMutability": "view",
      "type": "function"
    },
    {
      "inputs": [],
      "name": "bondsLocked",
      "outputs": [
        {
          "internalType": "bool",
          "name": "",
          "type": "bool"
        }
      ],
      "stateMutability": "view",
      "type": "function"
    },
    {
      "inputs": [],
      "name": "cancelled",
      "outputs": [
        {
          "internalType": "bool",
          "name": "",
          "type": "bool"
        }
      ],
      "stateMutability": "view",
      "type": "function"
    },
    {
      "inputs": [],
      "name": "createdAt",
      "outputs": [
        {
          "internalType": "uint48",
          "name": "",
          "type": "uint48"
        }
      ],
      "stateMutability": "view",
      "type": "function"
    },
    {
      "inputs": [],
      "name": "currentPlayer",
      "outputs": [
        {
          "internalType": "address",
          "name": "",
          "type": "address"
        }
      ],
      "stateMutability": "view",
      "type": "function"
    },
    {
      "inputs": [],
      "name": "disputeDAO",
      "outputs": [
        {
          "internalType": "contract DisputeDAO",
          "name": "",
          "type": "address"
        }
      ],
      "stateMutability": "view",
      "type": "function"
    },
    {
      "inputs": [],
      "name": "drawOfferedBy",
      "outputs": [
        {
          "internalType": "address",
          "name": "",
          "type": "address"
        }
      ],
      "stateMutability": "view",
      "type": "function"
    },
    {
      "inputs": [],
      "name": "gameId",
      "outputs": [
        {
          "internalType": "uint256",
          "name": "",
          "type": "uint256"
        }
      ],
      "stateMutability": "view",
      "type": "function"
    },
    {
      "inputs": [],
      "name": "gameMode",
      "outputs": [
        {
          "internalType": "enum ChessCore.GameMode",
          "name": "",
          "type": "uint8"
        }
      ],
      "stateMutability": "view",
      "type": "function"
    },
    {
      "inputs": [],
      "name": "gameRegisteredForDispute",
      "outputs": [
        {
          "internalType": "bool",
          "name": "",
          "type": "bool"
        }
      ],
      "stateMutability": "view",
      "type": "function"
    },
    {
      "inputs": [],
      "name": "getBoardState",
      "outputs": [
        {
          "internalType": "int8[8][8]",
          "name": "",
          "type": "int8[8][8]"
        }
      ],
      "stateMutability": "view",
      "type": "function"
    },
    {
      "inputs": [],
      "name": "getDrawRuleStatus",
      "outputs": [
        {
          "internalType": "uint16",
          "name": "halfMoves",
          "type": "uint16"
        },
        {
          "internalType": "uint8",
          "name": "maxRepetitions",
          "type": "uint8"
        }
      ],
      "stateMutability": "view",
      "type": "function"
    },
    {
      "inputs": [
        {
          "internalType": "address",
          "name": "",
          "type": "address"
        }
      ],
      "name": "pendingPrize",
      "outputs": [
        {
          "internalType": "uint256",
          "name": "",
          "type": "uint256"
        }
      ],
      "stateMutability": "view",
      "type": "function"
    },
    {
      "inputs": [],
      "name": "playerRating",
      "outputs": [
        {
          "internalType": "contract PlayerRating",
          "name": "",
          "type": "address"
        }
      ],
      "stateMutability": "view",
      "type": "function"
    },
    {
      "inputs": [],
      "name": "plyCount",
      "outputs": [
        {
          "internalType": "uint16",
          "name": "",
          "type": "uint16"
        }
      ],
      "stateMutability": "view",
      "type": "function"
    },
    {
      "inputs": [],
      "name": "printBoard",
      "outputs": [
        {
          "internalType": "string",
          "name": "",
          "type": "string"
        }
      ],
      "stateMutability": "pure",
      "type": "function"
    },
    {
      "inputs": [],
      "name": "printChessBoardLayoutSVG",
      "outputs": [
        {
          "internalType": "string",
          "name": "",
          "type": "string"
        }
      ],
      "stateMutability": "view",
      "type": "function"
    },
    {
      "inputs": [],
      "name": "ratingReported",
      "outputs": [
        {
          "internalType": "bool",
          "name": "",
          "type": "bool"
        }
      ],
      "stateMutability": "view",
      "type": "function"
    },
    {
      "inputs": [],
      "name": "rewardPool",
      "outputs": [
        {
          "internalType": "contract RewardPool",
          "name": "",
          "type": "address"
        }
      ],
      "stateMutability": "view",
      "type": "function"
    },
    {
      "inputs": [],
      "name": "timeoutBlocks",
      "outputs": [
        {
          "internalType": "uint48",
          "name": "",
          "type": "uint48"
        }
      ],
      "stateMutability": "view",
      "type": "function"
    },
    {
      "inputs": [],
      "name": "whiteLastMoveBlock",
      "outputs": [
        {
          "internalType": "uint48",
          "name": "",
          "type": "uint48"
        }
      ],
      "stateMutability": "view",
      "type": "function"
    },
    {
      "stateMutability": "payable",
      "type": "receive"
    },
    {
      "inputs": [
        {
          "internalType": "address",
          "name": "_whitePlayer",
          "type": "address"
        },
        {
          "internalType": "uint256",
          "name": "_value",
          "type": "uint256"
        },
        {
          "internalType": "enum ChessCore.TimeoutPreset",
          "name": "_preset",
          "type": "uint8"
        },
        {
          "internalType": "enum ChessCore.GameMode",
          "name": "_mode",
          "type": "uint8"
        },
        {
          "internalType": "uint256",
          "name": "_gameId",
          "type": "uint256"
        },
        {
          "internalType": "address",
          "name": "_bondingManager",
          "type": "address"
        },
        {
          "internalType": "address",
          "name": "_disputeDAO",
          "type": "address"
        },
        {
          "internalType": "address",
          "name": "_playerRating",
          "type": "address"
        },
        {
          "internalType": "address",
          "name": "_rewardPool",
          "type": "address"
        }
      ],
      "name": "initialize",
      "outputs": [],
      "stateMutability": "payable",
      "type": "function"
    },
    {
      "inputs": [],
      "name": "joinGameAsBlack",
      "outputs": [],
      "stateMutability": "payable",
      "type": "function"
    },
    {
      "inputs": [],
      "name": "canClaimPrize",
      "outputs": [
        {
          "internalType": "bool",
          "name": "",
          "type": "bool"
        }
      ],
      "stateMutability": "view",
      "type": "function"
    },
    {
      "inputs": [],
      "name": "finalizePrizes",
      "outputs": [],
      "stateMutability": "nonpayable",
      "type": "function"
    },
    {
      "inputs": [],
      "name": "withdrawPrize",
      "outputs": [],
      "stateMutability": "nonpayable",
      "type": "function"
    },
    {
      "inputs": [],
      "name": "claimPrize",
      "outputs": [],
      "stateMutability": "nonpayable",
      "type": "function"
    },
    {
      "inputs": [],
      "name": "resign",
      "outputs": [],
      "stateMutability": "nonpayable",
      "type": "function"
    },
    {
      "inputs": [],
      "name": "offerDraw",
      "outputs": [],
      "stateMutability": "nonpayable",
      "type": "function"
    },
    {
      "inputs": [],
      "name": "acceptDraw",
      "outputs": [],
      "stateMutability": "nonpayable",
      "type": "function"
    },
    {
      "inputs": [],
      "name": "declineDraw",
      "outputs": [],
      "stateMutability": "nonpayable",
      "type": "function"
    },
    {
      "inputs": [],
      "name": "cancelDrawOffer",
      "outputs": [],
      "stateMutability": "nonpayable",
      "type": "function"
    },
    {
      "inputs": [],
      "name": "getDrawOfferStatus",
      "outputs": [
        {
          "internalType": "address",
          "name": "",
          "type": "address"
        }
      ],
      "stateMutability": "view",
      "type": "function"
    },
    {
      "inputs": [],
      "name": "claimDrawByRepetition",
      "outputs": [],
      "stateMutability": "nonpayable",
      "type": "function"
    },
    {
      "inputs": [],
      "name": "claimDrawByFiftyMoveRule",
      "outputs": [],
      "stateMutability": "nonpayable",
      "type": "function"
    },
    {
      "inputs": [],
      "name": "claimVictoryByTimeout",
      "outputs": [],
      "stateMutability": "nonpayable",
      "type": "function"
    },
    {
      "inputs": [
        {
          "internalType": "uint8",
          "name": "startX",
          "type": "uint8"
        },
        {
          "internalType": "uint8",
          "name": "startY",
          "type": "uint8"
        },
        {
          "internalType": "uint8",
          "name": "endX",
          "type": "uint8"
        },
        {
          "internalType": "uint8",
          "name": "endY",
          "type": "uint8"
        }
      ],
      "name": "makeMove",
      "outputs": [],
      "stateMutability": "nonpayable",
      "type": "function"
    },
    {
      "inputs": [
        {
          "internalType": "uint8",
          "name": "startX",
          "type": "uint8"
        },
        {
          "internalType": "uint8",
          "name": "startY",
          "type": "uint8"
        },
        {
          "internalType": "uint8",
          "name": "endX",
          "type": "uint8"
        },
        {
          "internalType": "uint8",
          "name": "endY",
          "type": "uint8"
        },
        {
          "internalType": "int8",
          "name": "promotionPiece",
          "type": "int8"
        }
      ],
      "name": "makeMoveWithPromotion",
      "outputs": [],
      "stateMutability": "nonpayable",
      "type": "function"
    },
    {
      "inputs": [],
      "name": "getPlayers",
      "outputs": [
        {
          "internalType": "address",
          "name": "",
          "type": "address"
        },
        {
          "internalType": "address",
          "name": "",
          "type": "address"
        }
      ],
      "stateMutability": "view",
      "type": "function"
    },
    {
      "inputs": [
        {
          "internalType": "uint8",
          "name": "x",
          "type": "uint8"
        },
        {
          "internalType": "uint8",
          "name": "y",
          "type": "uint8"
        },
        {
          "internalType": "int8",
          "name": "piece",
          "type": "int8"
        }
      ],
      "name": "debugCreative",
      "outputs": [
        {
          "internalType": "string",
          "name": "",
          "type": "string"
        }
      ],
      "stateMutability": "nonpayable",
      "type": "function"
    },
    {
      "inputs": [
        {
          "internalType": "address",
          "name": "caller",
          "type": "address"
        }
      ],
      "name": "canCancelUnjoinedGame",
      "outputs": [
        {
          "internalType": "bool",
          "name": "",
          "type": "bool"
        }
      ],
      "stateMutability": "view",
      "type": "function"
    },
    {
      "inputs": [],
      "name": "getCancelUnjoinedRemaining",
      "outputs": [
        {
          "internalType": "uint256",
          "name": "",
          "type": "uint256"
        }
      ],
      "stateMutability": "view",
      "type": "function"
    },
    {
      "inputs": [],
      "name": "cancelUnjoinedGame",
      "outputs": [],
      "stateMutability": "nonpayable",
      "type": "function"
    },
    {
      "inputs": [],
      "name": "getGameState",
      "outputs": [
        {
          "internalType": "uint8",
          "name": "",
          "type": "uint8"
        }
      ],
      "stateMutability": "view",
      "type": "function"
    },
    {
      "inputs": [],
      "name": "getTimeoutStatus",
      "outputs": [
        {
          "internalType": "uint256",
          "name": "whiteBlocksRemaining",
          "type": "uint256"
        },
        {
          "internalType": "uint256",
          "name": "blackBlocksRemaining",
          "type": "uint256"
        },
        {
          "internalType": "bool",
          "name": "currentPlayerIsWhite",
          "type": "bool"
        }
      ],
      "stateMutability": "view",
      "type": "function"
    }
  ],
  "bytecode": "0x60a08060405234620000ce576008805460ff60301b191666ff0000000000001790556001600c556125a08181016001600160401b03811183821017620000ba57829162004e1a833903905ff08015620000af576080526c010000000000000000000000006cff000000000000000000000000196013541617601355604051614d479081620000d38239608051818181612a1101528181612c7701528181613765015281816139c501526149db0152f35b6040513d5f823e3d90fd5b634e487b7160e01b5f52604160045260245ffd5b5f80fdfe6040608081526004908136101561006c575b361561001b575f80fd5b60135460ff8160881c1661005e5760301c60ff16600581101561004b5761003e57005b5163ba26162b60e01b8152fd5b602183634e487b7160e01b5f525260245ffd5b5051631fc7953160e11b8152fd5b5f803560e01c8063085791b6146120b85780630eeae9b614612094578063182db672146120715780632420f7f014611fcf57806324df1aa014611be55780632ebe14b014611bbf5780633229202e14611abf57806338b572ef1461161e57806339b4b0d614611aa157806339e98ab114611a85578063426eae4514611a5d5780634404a43814611a3557806346c1d9b414611a0457806348d37a581461197f57806348df41af146118955780634d2bf82d14611870578063538a93ed146116ba57806358090c4a1461168b5780636516fed61461166e57806366666aa9146116465780636873d9841461161e57806369652fcf146114fc57806369ccbf30146114d15780636ca88326146114ac5780636d30c7051461125e57806370740ac914610f7c5780637bed3d1c14610ec15780637c22c12a14610ea45780638086a92a14610e5a57806384f5294114610e105780638b5b9ccc14610dd95780638d85c94514610d085780639454986514610cd55780639914618614610cae5780639a82a09a14610c875780639bf55dab14610acb5780639c2a094f146109eb578063b31542b5146109c1578063b7d0628b1461099a578063cf09e0d014610970578063d7a8e60e1461094e578063d7c81b551461092f578063e203112614610908578063e52f3917146108eb578063e91401d414610854578063ee545d4f1461066a578063f033d8b71461059e578063f1c2d0d914610575578063f21b5db51461053d578063f4d6fa4d14610464578063f91acfe7146104375763fa6aefc9146102b35750610011565b9190346104335782600319360112610433576102cd6142c4565b6014546001600160a01b039081169233849003610425576013549060ff8260881c16610417578260155416158015906103ec575b6103de5765ffffffffffff61031a818460a01c16612431565b1642106103d0575066ff0000000000ff60581b1916660100000000000160581b17601355601680546001600160a01b031990811690915560178054909116905547928490848061039b575b50505050519081527fecf51bb2698f4bba616fb07332e1d861a5430f472e11538556f2823d33ecb15d60203392a26001600c5580f35b8280929181925af16103ab612627565b50156103ba575b838184610365565b601454168352601860205281818420555f6103b2565b835163ee2fab9760e01b8152fd5b835163ba26162b60e01b8152fd5b5060ff8260301c166005811015610404571515610301565b634e487b7160e01b875260218252602487fd5b8351631fc7953160e11b8152fd5b825163cd13e19560e01b8152fd5b8280fd5b50903461046057816003193601126104605760115490516001600160a01b039091168152602090f35b5080fd5b509190346104335782600319360112610433576014546001600160a01b039081163314158061052f575b6105215760ff60135460301c16600581101561050e5760011490811591610500575b506104f357601780546001600160a01b0319163390811790915583907f1f98adb5ace3488254376a3b468650078ab6c1f367638863cb967310df8a0a998280a280f35b5163067fe19560e41b8152fd5b90506017541615155f6104b0565b634e487b7160e01b855260218452602485fd5b505163abca351760e01b8152fd5b50806015541633141561048e565b5090346104605760203660031901126104605760209181906001600160a01b0361056561223c565b1681526018845220549051908152f35b50903461046057816003193601126104605760105490516001600160a01b039091168152602090f35b509034610460576020366003190112610460576105b961223c565b6014546001600160a01b0391821690821614929083610659575b8361064c575b5082610616575b5060209250816105f3575b519015158152f35b905065ffffffffffff61060c8160135460a01c16612431565b16421015906105eb565b90915060ff60135460301c1690600582101561063957506020925015905f6105e0565b634e487b7160e01b815260218452602490fd5b601554161592505f6105d9565b60135460881c60ff161593506105d3565b5091826003193601126104335760135460ff8160881c166108455760301c60ff16600581101561083257610824576014546001600160a01b039190821633811461081557600d54918234036108075783601554166107f9579085929184600f54168061076e575b601580546001600160a01b031916339081179091556013805460ff60301b1916600160301b1790556012805465ffffffffffff60a01b19164360a01b65ffffffffffff60a01b16179055601454600d54895190815287925f80516020614cb2833981519152926020928c92918c16907fee0dca10a9957dad74da3fe318a3ccc561c46d96be0ab0b66e7aff32aab94cf3908590a35160018152a180f35b600e5492813b156107f55785809461079b8a519788968795869463595cd9cf60e01b86523392860161411f565b03925af180156107eb576107d7575b50506013805460ff60401b1916600160401b1790558260205f80516020614cb28339815191525f806106d1565b6107e0906122d9565b61043357825f6107aa565b84513d84823e3d90fd5b8580fd5b84516376b4fccd60e11b8152fd5b84516348f65bb760e01b8152fd5b50825163b6ade22960e01b8152fd5b905163ba26162b60e01b8152fd5b634e487b7160e01b845260218252602484fd5b509051631fc7953160e11b8152fd5b5091346104335782600319360112610433576014546001600160a01b0391908216331415806108dd575b6108cf5760175491821692831580156108c6575b6108b95750506001600160a01b0319166017555f80516020614c928339815191528280a280f35b5163039ad16960e01b8152fd5b50338414610892565b825163abca351760e01b8152fd5b50816015541633141561087e565b5090346104605781600319360112610460576020905161012c8152f35b50903461046057816003193601126104605760209060ff60135460481c1690519015158152f35b509034610460578160031936011261046057602090600e549051908152f35b50903461046057816003193601126104605760209060125460d01c9051908152f35b50903461046057816003193601126104605760209065ffffffffffff60135460a01c169051908152f35b50903461046057816003193601126104605760209060ff6109b96140bc565b915191168152f35b50903461046057816003193601126104605760209065ffffffffffff60125460a01c169051908152f35b5090346104605760a036600319011261046057610a06612252565b610a0e612262565b610a16612272565b90610a1f612282565b926084359485870b8603610ac7576016546001600160a01b0390811633819003610ab7576001916015541614610aaf575b6008831015610a9c57610a768891610a688686612292565b90549060031b1c830b6128c2565b810b1315610a8d5750610a8a959650613682565b80f35b516321e08b4d60e21b81528790fd5b634e487b7160e01b885260328952602488fd5b505f19610a50565b8251631cc191eb60e31b81528a90fd5b8680fd5b5091346104335782600319360112610433576014546001600160a01b0390811690338214801580610c79575b610c695760139384549260ff8460301c166005811015610c5657600103610c47576016541693843314610c38578403610c2d5765ffffffffffff60125460a01c165b65ffffffffffff8091169084168101809111610c1a574310610c0c575060ff60801b198216600160801b1784555f80516020614cb283398151915294610be694909360ff9391927f5d90ddefa858c7e60b58274a3fca3108b94bb3cc1f596e26d0c69db70abef4b092610bd3929115610bec57508354603086901b1916600360301b1784555b610bc7614211565b855191829133836122bf565b0390a15460301c16905191829182612567565b0390a180f35b608086901b603087901b011916600160321b600160801b01178455610bbf565b855163828630fb60e01b8152fd5b634e487b7160e01b885260118252602488fd5b60125460d01c610b39565b508551631cc191eb60e31b8152fd5b50855163067fe19560e41b8152fd5b634e487b7160e01b895260218352602489fd5b845163abca351760e01b81528490fd5b508160155416331415610af7565b50903461046057816003193601126104605760209060ff60135460881c1690519015158152f35b50903461046057816003193601126104605760209060ff60135460501c1690519015158152f35b5090346104605781600319360112610460579081610d04925191610cf883612338565b82525191829182612210565b0390f35b5091346104335782600319360112610433576014546001600160a01b039190821633141580610dcb575b6108cf576017549182168015908115610dc1575b50610db357506013805460ff60301b1916600160311b1790556001600160a01b0319166017555f80516020614cb283398151915290602090610d86614211565b517fa98b7e4cecce3d6b2e0f80801552dd1350aec19a1cc2bbf0aa4806308cd87bb78480a160028152a180f35b825163039ad16960e01b8152fd5b905033145f610d46565b508160155416331415610d32565b5034610e0d5780600319360112610e0d57506014546015549151918291610d04916001600160a01b039081169116836122bf565b80fd5b50913461043357826003193601126104335760175491336001600160a01b038416036108b95750506001600160a01b031916601755335f80516020614c928339815191528280a280f35b50913461043357816003193601126104335735602435906008811015610ea0576008821015610ea05760209391610e9091612292565b92905490519260031b1c900b8152f35b8380fd5b509034610460578160031936011261046057602090516108348152f35b50903461046057608036600319011261046057610edc612252565b610ee4612262565b610eec612272565b91610ef5612282565b9360018060a01b038060165416803303610f6c576001916015541614610f64575b6008831015610f5157610f2e8791610a688686612292565b810b1315610f425750610a8a949550612930565b516321e08b4d60e21b81528690fd5b634e487b7160e01b875260328852602487fd5b505f19610f16565b8251631cc191eb60e31b81528990fd5b50919034610433578260031936011261043357610f976142c4565b60135460ff8160581c166112505760ff9060301c166005811015908161050e576003811490811580611243575b838161121f575b5061120f57610fd8614832565b6014546001600160a01b03949085169391851692838514918291908215611201575b6111ee5760021490816111e5575b506111d5579084939291806111c8575b156111a35750505080601554165b16330361119557611035614211565b60105416806110ba575b50611048614300565b61105061444c565b611058614709565b6013805460ff60581b1916600160581b17905547918380808086335af161107d612627565b50156110ac5750515f80516020614cd28339815191529181906110a1903383612656565b0390a16001600c5580f35b90516312171d8360e31b8152fd5b6110c2612745565b15611187578390600e548351638110502f60e01b81528186820152602081602481865afa90811561117d578491611144575b50611101575b505061103f565b813b156104335782916024839286519485938492639d213f0760e01b84528a8401525af1611130575b806110fa565b611139906122d9565b61043357825f61112a565b9350506020833d602011611175575b8161116060209383612353565b81010312611171578592515f6110f4565b5f80fd5b3d9150611153565b85513d86823e3d90fd5b505163064d0b2b60e31b8152fd5b5051636db580af60e11b8152fd5b60155484169182036111b6575050611026565b156111c15750611026565b9050611026565b5083601554161515611018565b855163064d0b2b60e31b81528790fd5b9050155f611008565b634e487b7160e01b8a526021895260248afd5b601554881686149250610ffa565b5050505163b7c3a5b360e01b8152fd5b905061123057600281141583610fcb565b634e487b7160e01b865260218552602486fd5b505f925084811415610fc4565b505163611ab18960e11b8152fd5b50919034611171575f366003190112611171576112796142c4565b60135460ff8160581c166112505760ff9060301c1660058110159081611499576003811415918261148c575b8261147a575b505061146d576112b9614211565b6010546001600160a01b039081168061139b575b506112d6614300565b6112de61444c565b6112e6614709565b6013805460ff60581b1916600160581b1790554792611303614bbf565b906005821015611388576003820361132e57505060145416835260186020528220555b6001600c5580f35b810361134857506015541683526018602052822055611326565b600214611358575b505050611326565b6113668360011c809461245e565b92816014541685526018602052828520556015541683528220555f8080611350565b634e487b7160e01b865260219052602485fd5b6113a3612745565b1561145e57600e548351638110502f60e01b8152858101829052602081602481865afa908115611454575f91611422575b506113e0575b506112cd565b813b15611171575f916024839286519485938492639d213f0760e01b84528a8401525af161140f575b806113da565b61141a9194506122d9565b5f925f611409565b90506020813d60201161144c575b8161143d60209383612353565b8101031261117157515f6113d4565b3d9150611430565b85513d5f823e3d90fd5b50505163064d0b2b60e31b8152fd5b5163b7c3a5b360e01b8152fd5b90915061004b57600214155f806112ab565b508381141591505f6112a5565b602184634e487b7160e01b5f525260245ffd5b8234611171575f366003190112611171576020906114c8612745565b90519015158152f35b8234611171575f36600319011261117157600b5460ff82519161ffff8160081c168352166020820152f35b505034611171575f366003190112611171576014546001600160a01b0390811633811493841580611610575b6116025760139485549160ff8360301c1660058110156115ef576001036115e15760ff60781b198316600160781b1787555f80516020614cb28339815191526115ba8760ff8a7fc42bb29411173bbda4c2ff27b35fb6dc57e2cbdb1bac3fcb7c51b87dc0beb78a610bd38b8b8b8b156115bf5750508354603086901b1916600160321b17845560155416610bc7614211565b0390a1005b607887901b603088901b011916600360301b600160781b011785559050610bbf565b855163067fe19560e41b8152fd5b602182634e487b7160e01b5f525260245ffd5b835163abca351760e01b8152fd5b508260155416331415611528565b8234611171575f3660031901126111715760175490516001600160a01b039091168152602090f35b8234611171575f3660031901126111715760125490516001600160a01b039091168152602090f35b8234611171575f3660031901126111715760209051620151808152f35b505034611171575f3660031901126111715760ff60135460381c16905190600281101561004b57602092508152f35b505034611171576060366003190112611171576116d5612252565b916116de612262565b9260443593845f0b8086036111715760135460ff8160381c16600281101561185d5760010361184d576014546001600160a01b0316330361183d5760301c60ff16600581101561182a5761181a576008938460ff85161080159061180d575b6117ff57848410156117ec5750611761610d049661175b8486612292565b906126a0565b600681036117aa5750825461ffff60401b191691841b60ff60401b169190911760489190911b60ff60481b161790555b80519061179d82612338565b5f82525191829182612210565b600519146117bb575b505050611791565b825461ffff60501b191660509290921b60ff60501b169190911760589190911b60ff60581b161790555f80806117b3565b603290634e487b7160e01b5f525260245ffd5b855163179a054560e01b8152fd5b508460ff8416101561173d565b845163ba26162b60e01b81528490fd5b602185634e487b7160e01b5f525260245ffd5b855163cd13e19560e01b81528590fd5b8551632d35b88f60e11b81528590fd5b602186634e487b7160e01b5f525260245ffd5b8234611171575f3660031901126111715760209061ffff60135460901c169051908152f35b505034611171575f36600319011261117157601454336001600160a01b0391821614159081611970575b50611963576013549160ff8360301c1660058110156115ef5760010361195557606461ffff600b5460081c16106119475760ff60301b198316600160311b176013555f80516020614cb283398151915260208361191a614211565b51337faaa10238f5aee7c565b8eb5261a53255b61e54b54b0818fe5c3e8f281adb2bb65f80a260028152a1005b905163dc644e5d60e01b8152fd5b905163067fe19560e41b8152fd5b5163abca351760e01b8152fd5b9050601554163314155f6118bf565b505034611171575f366003190112611171576119996142c4565b335f526018602052805f20549182156119f657335f5260186020525f828120555f80808086335af16119c9612627565b50156110ac5781515f80516020614cd283398151915290806119ec863383612656565b0390a16001600c55005b90516301ba780160e01b8152fd5b8234611171575f36600319011261117157606090611a2061257a565b90839293519384526020840152151590820152f35b8234611171575f3660031901126111715760165490516001600160a01b039091168152602090f35b8234611171575f36600319011261117157600f5490516001600160a01b039091168152602090f35b8234611171575f366003190112611171576020905161c4e08152f35b8234611171575f36600319011261117157602090600d549051908152f35b505034611171575f366003190112611171576014546001600160a01b03929083163381141580611bb1575b611ba2576013549360ff8560301c16600581101561149957600103611b925790611b18916016541614614147565b5f526009602052600360ff835f20541610611b845760ff60301b198316600160311b176013555f80516020614cb2833981519152602083611b57614211565b51337fd0f4810f2b48eb69de0cbc8c361bea8bb4b4cbf14c8da5fdac4cdd95d3896ac55f80a260028152a1005b9051632f9a3dd960e01b8152fd5b835163067fe19560e41b81528390fd5b50905163abca351760e01b8152fd5b508360155416331415611aea565b8234611171575f3660031901126111715760209065ffffffffffff601354169051908152f35b828461012036600319011261117157611bfc61223c565b6024916003906044358281101561117157606435936002851015611171576001600160a01b0360a435818116989193908990036111715760c435968488168098036111715760e435978589168099036111715761010435928684168094036111715760139384549a60ff9b8c8160601c16611fc05760ff60601b1916600160601b1786555f80546001600160401b031990811667fcfefdfafbfdfefc1782559d9e9c9d9c94939291908e5b600890818184161015611d0b5750811015611cf957918e9a99979593918b60018f95829c9a98968160051c8301908460f8848454931b161b90811916179055011691939597995091939597999a611ca7565b8f60328d634e487b7160e01b5f52525ffd5b9e905067040203060503020491509c9b9a9c60075416176007555f9d8e5b6008918291161015611d7d578e1015611d6b57600660058f901c0180548f8d1b60f8168f811b1990911660019182901b179091559d909d018c169c8c8e611d29565b8e60328b634e487b7160e01b5f52525ffd5b50600880546bffffffff0000ffffffffffff1916630400040760401b178155601480546001600160a01b03199081169b8f169b8c17909155601680548216909b17909a55602435600d558754608435600e5560ff60381b65ffffffffffff60a01b0119811660389890981b60ff60381b169788174260a01b65ffffffffffff60a01b169081178a5560019d50919b5098998e99979196919590929180611fb1575b5080611fa2575b5080611f93575b5081611f84575b505080611f3f575050505061012c65ffffffffffff198254161790555b6008548251906020820192835f80915b888310611f2357505050611f179495508660f81b61082084015260f8908083161515821b610821850152808360081c161515821b610822850152808360101c161515821b610823850152808360181c161515821b610824850152808360281c161515821b6108258501528260201c161515901b61082683015260ff60f81b9060c81b166108278201526108088152611ef78161231c565b51902091825f5260096020525f209160ff199284848254161790556124f8565b600b541617600b555f80f35b8961010082611f33839486612376565b01920192019190611e60565b8803611f5e5750505061083465ffffffffffff19825416179055611e50565b61c4e067ff00ffffffffffff65ffffffffffff60a01b0119939093161717179055611e50565b60125416176012558980611e33565b8160115416176011558b611e2c565b8260105416176010558c611e25565b83600f541617600f558d611e1e565b875162dc149f60e41b81528b90fd5b8234611171575f366003190112611171578051611feb81612300565b5f5b610100908181101561201457835160209261200782612300565b3682378184015201611fed565b8361201d6123cb565b9051905f825b60088083101561206b5783515f90835b8383106120525750505050602061010060019201930191019091612023565b60019082515f0b81526020809101920192019190612033565b61080085f35b8234611171575f3660031901126111715760209061208d61246b565b9051908152f35b8234611171575f366003190112611171576013548151911c60ff1615158152602090f35b505034611171575f366003190112611171576120d26123cb565b8151639ef3eb8760e01b8152925f919084015b60088084101561212d5782515f90835b83831061211457505050506020610100600192019201920191906120e5565b60019082515f0b815260208091019201920191906120f5565b85855f826108048173__ChessMediaLibrary_____________________5af49081156121e6575f91612169575b610d0492505191829182612210565b90503d805f843e61217a8184612353565b820191602081840312611171578051906001600160401b03821161117157019180601f84011215611171578251926121b184612416565b916121be84519384612353565b8483526020858301011161117157610d04936121e091602080850191016121ef565b9061215a565b513d5f823e3d90fd5b5f5b8381106122005750505f910152565b81810151838201526020016121f1565b6040916020825261223081518092816020860152602086860191016121ef565b601f01601f1916010190565b600435906001600160a01b038216820361117157565b6004359060ff8216820361117157565b6024359060ff8216820361117157565b6044359060ff8216820361117157565b6064359060ff8216820361117157565b91909160088310156122ab57601f908360051c01921690565b634e487b7160e01b5f52603260045260245ffd5b6001600160a01b0391821681529116602082015260400190565b6001600160401b0381116122ec57604052565b634e487b7160e01b5f52604160045260245ffd5b61010081019081106001600160401b038211176122ec57604052565b61084081019081106001600160401b038211176122ec57604052565b602081019081106001600160401b038211176122ec57604052565b601f909101601f19168101906001600160401b038211908210176122ec57604052565b60e09054805f0b83528060081c5f0b60208401528060101c5f0b60408401528060181c5f0b60608401528060201c5f0b60808401528060281c5f0b60a08401528060301c5f0b60c084015260381c5f0b910152565b604090604051916123db83612300565b5f80845b600883106123ed5750505050565b60016020819286516123ff8187612376565b61240881612300565b8152019201920191906123df565b6001600160401b0381116122ec57601f01601f191660200190565b906201518065ffffffffffff8093160191821161244a57565b634e487b7160e01b5f52601160045260245ffd5b9190820391821161244a57565b60135460ff8160881c1680156124e4575b80156124b8575b6124b35761249c65ffffffffffff809260a01c16612431565b16804210156124b3576124b090429061245e565b90565b505f90565b5060ff8160301c1660058110156124d0571515612483565b634e487b7160e01b5f52602160045260245ffd5b506015546001600160a01b0316151561247c565b600a54600160401b8110156122ec576001810180600a558110156122ab57600a5f527fc65a7bb8d6351c1cf70c95a316cc6a92839c986682d98bc35f958f4883f9d2a80155565b60058110156124d0576013805460ff60301b191660309290921b60ff60301b16919091179055565b9190602083019260058210156124d05752565b60018060a01b0380601654169060145416149060135460ff8160301c1660058110156124d0576001036126205782156125e65765ffffffffffff6125c58160125460a01c164361245e565b9116908181106125d85750505f5b915f91565b6125e19161245e565b6125d3565b65ffffffffffff6125ff60129493945460d01c4361245e565b9116908181106126125750505f5b905f92565b61261b9161245e565b61260d565b505f918291565b3d15612651573d9061263882612416565b916126466040519384612353565b82523d5f602084013e565b606090565b6001600160a01b039091168152602081019190915260400190565b9063ff00000080198354169160181b16179055565b9060ff60281b198254169060ff60281b9060281b16179055565b919060ff83549160031b928116831b921b1916179055565b5f0b607f19811461244a575f0390565b51906001600160a01b038216820361117157565b919082610100910312611171578151916126f8602082016126c8565b91612705604083016126c8565b9160608101516006811015611171579160808201519160a08101519160c082015160048110156111715760e09092015190565b5190811515820361117157565b6010546001600160a01b031680156128bc57600e5460408051638110502f60e01b8152600481018390529092916020918281602481875afa908115611454575f9161288f575b5080156128465784519063e3a96cbd60e01b82526004820152610100908181602481885afa918215612885575f92612850575b505060068110156124d05760048114612846576001146127e057505050505f90565b819060248551809581936306b4e4e760e21b835260048301525afa9283156121e657505f92612810575b50501590565b90809250813d831161283f575b6128278183612353565b810103126111715761283890612738565b5f8061280a565b503d61281d565b5050505050600190565b61286f9250803d1061287e575b6128678183612353565b8101906126dc565b50505050925050505f806127be565b503d61285d565b86513d5f823e3d90fd5b90508281813d83116128b5575b6128a68183612353565b8101031261117157515f61278b565b503d61289c565b50600190565b905f0b905f0b0290815f0b91820361244a57565b5f905f905b600882106128e857505050565b6001610100826128f9839487612376565b019301910190916128db565b5f91820b910b0390607f198212607f83131761244a57565b61ffff80911690811461244a5760010190565b929091600860ff851610801590613674575b8015613666575b8015613658575b6136465760ff60135460301c1660058110156124d057600103613634576017546001600160a01b038116613621575b5061298c82828587614956565b156135ca5760085460405163d5f3741360e01b8152949060ff906129b2600488016128d6565b604081901c8216610804880152604881901c8216610824880152605081901c821661084488015260581c1661086486015260ff8181166108848701528481166108a48701528281166108c487015283166108e4860152602085610904817f00000000000000000000000000000000000000000000000000000000000000006001600160a01b03165afa8015613616575f955f916135dc575b50601354600260ff8260381c1610156124d057600160ff839260381c16146135c0575b5060088210156122ab57612a818583612292565b9190549260088510156122ab578688612a9a8888612292565b90549060031b1c5f0b96612abf612ab18a83612292565b898960031b1c5f0b916126a0565b5f612adc612acd8587612292565b60ff82549160031b1b19169055565b600660ff612af08a8a60031b1c5f0b614ba1565b1614613559575b5f8a600160ff612b0d8c8c60031b1c5f0b614ba1565b1614613302575b50156132ea575b60ff612b2d898960031b1c5f0b614ba1565b16600614613203575b5088600660ff612b4c8a8a60031b1c5f0b614ba1565b161492836131db575b600160ff612b698b8b60031b1c5f0b614ba1565b161494856131b2575b505050826131a9575b82156131a3578a878760031b1c5f0b135f1461319c575f195b60018060a01b036016541660018060a01b0360145416149160135496600260ff8960381c1610156131885760ff90818f60085490612bd0614c13565b936040519863270cbc9b60e01b8a52612beb60048b016128d6565b6108048a0152838d60381c16156108248a01521515610844890152828260401c16610864890152828260481c16610884890152828260501c166108a4890152828260581c166108c48901528160301c900b6108e488015260381c166109048601521661092484015260ff811661094484015260ff8b166109648401526060836109848160018060a01b037f0000000000000000000000000000000000000000000000000000000000000000165afa801561317d57908d93929184938591613119575b50600560ff82161015613105579261016095928f8f9996938f60ff809287612ce5835f80516020614cf28339815191529f9c1661253f565b6130ee575b8160018060a01b03601654169e816040519d168d521660208c01521660408a01521660608801528c8c60031b1c5f0b60808801520b60a0860152600560c0860152151560e0850152151561010084015215156101208301521515610140820152a260ff60135460301c1690600560ff8260301c1610156130da5760058210156130da5760301c60ff16810361304d575b5060165460145460019360ff93612dc893919290916001600160a01b0391821691160361302657601254858060d01b03194360d01b1690868060d01b0316176012555b60031b1c5f0b614ba1565b1614929015801592849282612fd5575b5050509115612fcd575b5015612fa25762ffff0019600b5416600b555b60135461ffff609661ffff60901b612e12609085901c841661291d565b60901b16918261ffff60901b19851617601355600b5460081c161015612f545750506016546014546001600160a01b039081169082168103612f4e576015546001600160a01b03165b6001600160a01b03166001600160a01b03198316811760165560135460ff60309190911c166005811015612f3a57600114612e97575b50505050565b83612ea493161714614147565b808252600960205260ff60408320541615612f2c575b808252600960205260408220805460ff811660ff8114612f1857926040926001959260ff95868019988992011691161790558152600960205220541690600b5460ff81168311612f0b575b80612e91565b1617600b555f8080612f05565b634e487b7160e01b85526011600452602485fd5b612f35816124f8565b612eba565b634e487b7160e01b85526021600452602485fd5b80612e5b565b60ff60301b61ffff60901b011990911617600160311b1760135550612f77614211565b5f80516020614cb2833981519152612f9d60ff60135460301c1660405191829182612567565b0390a1565b600b5462ffff00612fb961ffff8360081c1661291d565b60081b169062ffff00191617600b55612df5565b90505f612de2565b929350909183612ffa575b505081612ff2575b50815f8080612dd8565b90505f612fe8565b600192935061301760ff92838061301c9416890b9116880b612905565b614ba1565b1614905f80612fe0565b6012805465ffffffffffff60a01b19164360a01b65ffffffffffff60a01b16179055612dbd565b5f80516020614cb2833981519152604051806130698482612567565b0390a160038114908782156130cd575b82156130a7575b505060019260ff92612dc89261309a575b92509250612d7a565b6130a2614211565b613091565b9091506130b9576002148260ff613080565b634e487b7160e01b87526021600452602487fd5b5060048114915087613079565b634e487b7160e01b88526021600452602488fd5b600160701b8260701b196013541617601355612cea565b634e487b7160e01b8f52602160045260248ffd5b93505092506060823d606011613175575b8161313760609383612353565b810103126131715761314882612738565b92604061315760208501612738565b9301519360ff8516850361316d5792935f612cad565b8e80fd5b8c80fd5b3d915061312a565b6040513d8f823e3d90fd5b634e487b7160e01b8e52602160045260248efd5b6001612b94565b87612b94565b87159250612b7b565b600193955060ff926131d09284806130179416820b9216900b612905565b161491888b8b612b72565b600292935061301760ff926131f99284808916820b9216900b612905565b161490888b612b55565b6016546014546001600160a01b039081169116036132d257600160ff1960085416176008555b600260ff613242613017878316870b8e8416880b612905565b1603612b36579092909160ff8a1660060361329657505061328257888891613270845460381c830b85612686565b835460ff60381b191684555b5f612b36565b634e487b7160e01b89526032600452602489fd5b91600260ff8b95939516146132ac575b5061327c565b91509150613282578888916132c48454830b85612671565b835460ff191684555f6132a6565b630100000063ff000000196008541617600855613229565b6008805460ff60301b191660ff60301b179055612b1b565b60019294506130176133219160ff8080959799165f0b91165f0b612905565b161480613551575b6134ad575b6001878760031b1c5f0b14908180926134a0575b80613493575b1561342d57506008805461ffff60301b191660308b901b60ff60301b1617603885901b60ff60381b161790556001905b80613422575b5f19888860031b1c5f0b1480613415575b8190821561340d575b506133aa575b50918a918a938a612b14565b919a909291156133e457509088915f9a8b926133c68b84612292565b81549060031b9060ff6005831b921b19161790555b9193509161339e565b99908a918a936133f48b84612292565b81549060031b9060ff60fb831b921b19161790556133db565b90505f613398565b50600760ff85161461338f565b5060ff83161561337e565b905f19888860031b1c5f0b1480613486575b80613479575b15613378576008805461ffff60301b191660308c901b60ff60301b1617603886901b60ff60381b1617905560019150613378565b50600360ff851614613445565b50600160ff86161461343f565b50600460ff851614613348565b50600660ff861614613342565b816001888860031b1c5f0b148061353c575b8061352f575b156134e0576122ab576134db612acd8a86612292565b61332e565b505f19878760031b1c5f0b148061351a575b8061350d575b1561332e575f91506134db612acd8a86612292565b50600460ff8516146134f8565b5060ff89165f0b60085460301c5f0b146134f2565b50600360ff8616146134c5565b5060ff8a165f0b60085460301c5f0b146134bf565b508715613329565b6006888860031b1c5f0b145f14613595576008805461ffff60401b1916604084901b60ff60401b161760488c901b60ff60481b16179055612af7565b6008805461ffff60501b1916605084901b60ff60501b161760588c901b60ff60581b16179055612af7565b6135ca5780612a6d565b6040516321e08b4d60e21b8152600490fd5b90506020813d60201161360e575b816135f760209383612353565b810103126111715761360890612738565b5f612a4a565b3d91506135ea565b6040513d5f823e3d90fd5b6001600160a01b0319166017555f61297f565b60405163067fe19560e41b8152600490fd5b60405163179a054560e01b8152600490fd5b50600860ff83161015612950565b50600860ff82161015612949565b50600860ff84161015612942565b9392919092600860ff8616108015906140ae575b80156140a0575b8015614092575b6136465760ff60135460301c1660058110156124d057600103613634576017546001600160a01b03811661407f575b506136e083838688614956565b156135ca5760085460405163d5f3741360e01b8152959060ff90613706600489016128d6565b604081901c8216610804890152604881901c8216610824890152605081901c821661084489015260581c1661086487015260ff8181166108848801528581166108a48801528381166108c488015284166108e4870152602086610904817f00000000000000000000000000000000000000000000000000000000000000006001600160a01b03165afa8015613616575f965f91614045575b50601354600260ff8260381c1610156124d057600160ff839260381c161461403b575b5060088210156122ab576137d58683612292565b9290549360088610156122ab578888916137ef8989612292565b90549060031b1c5f0b976138146138068b83612292565b8a8a60031b1c5f0b916126a0565b5f613822612acd8688612292565b600660ff6138368b8b60031b1c5f0b614ba1565b1614613fd4575b5f8b600160ff6138538d8d60031b1c5f0b614ba1565b1614613d31575b5015613d19575b8a60ff6138748b8b60031b1c5f0b614ba1565b16600614613c24575b9050600660ff6138938b8b60031b1c5f0b614ba1565b16149384613bfc575b600160ff6138b08c8c60031b1c5f0b614ba1565b16149586613bd3575b50505083613bca575b8315613bc3578b888860031b1c5f0b135f14613bbc575f195b905b60018060a01b036016541660018060a01b03601454161460135497600260ff8a60381c161015613105576004949392918f8a60ff939184928360085493613922614c13565b9661393b6040519d8e63270cbc9b60e01b8152016128d6565b6108048d015260381c16156108248b015215156108448a0152828260401c166108648a0152828260481c166108848a0152828260501c166108a48a0152828260581c166108c48a01528160301c900b6108e489015260381c166109048701521661092485015260ff811661094485015260ff8c166109648501526060846109848160018060a01b037f0000000000000000000000000000000000000000000000000000000000000000165afa8015613baf57908e9493929185948691613b4b575b50600560ff82161015613b36578f908f99989796959493928f91613a2360ff89921661253f565b613b1e575b600160a01b60019003601654169a6040519a60ff168b5260ff1660208b015260ff1660408a015260ff1660608901528b8b60031b1c5f0b60808901520b60a08701528d0b60c0860152151560e08501521515610100840152151561012083015215156101408201526101605f80516020614cf283398151915291a260135460301c60ff16908060301c60ff16600511156130da5760058210156130da5760301c60ff16810361304d575060165460145460019360ff93612dc893919290916001600160a01b0391821691160361302657601254858060d01b03194360d01b1690868060d01b03161760125560031b1c5f0b614ba1565b6013805460ff60701b1916600160701b179055613a28565b50634e487b7160e01b8f52602160045260248ffd5b94505093506060833d606011613ba7575b81613b6960609383612353565b81010312613ba357613b7a83612738565b936040613b8960208601612738565b9401519460ff86168603613b9f5793945f6139fc565b8f80fd5b8d80fd5b3d9150613b5c565b8e604051903d90823e3d90fd5b60016138db565b88906138dd565b881593506138c2565b600193965060ff92613bf19284806130179416820b9216900b612905565b161492898c8c6138b9565b600292945061301760ff92613c1a9284808a16820b9216900b612905565b161491898c61389c565b60165460145460029260ff92613c679261301792916001600160a01b03918216911603613d01576001841960085416176008555b83808b168a0b9116890b612905565b1614613c74575b8a61387d565b9193909260ff8b16600603613cc3575050613caf5788918a91613c9d855460381c840b86612686565b845460ff60381b191685555b5f613c6e565b634e487b7160e01b8a52603260045260248afd5b92909391600260ff8c1614613cd9575b50613ca9565b9193509150613caf5788918a91613cf38554840b86612671565b845460ff191685555f613cd3565b630100000063ff000000196008541617600855613c58565b6008805460ff60301b191660ff60301b179055613861565b60ff91939550613017613d51918380600196989a165f0b91165f0b612905565b161480613fcc575b613f28575b6001888860031b1c5f0b1490818092613f1b575b80613f0e575b15613ea857506008805461ffff60301b191660308c901b60ff60301b1617603885901b60ff60381b161790556001905b80613e9d575b5f19898960031b1c5f0b1480613e90575b81908215613e88575b50613ddb575b50918a93918c938b61385a565b6005855f9e939695949e0b141580613e7b575b80613e6e575b80613e61575b613e4f5715613e2b5750908992915f9b8c9383613e178d85612292565b613e2192916126a0565b9193509193613dce565b9a9082918b94613e4a8c8f96613e4361175b916126b8565b9186612292565b613e21565b604051631c6d606160e21b8152600490fd5b506002845f0b1415613dfa565b506003845f0b1415613df4565b506004845f0b1415613dee565b90505f613dc8565b50600760ff851614613dbf565b5060ff831615613dae565b905f19898960031b1c5f0b1480613f01575b80613ef4575b15613da8576008805461ffff60301b191660308d901b60ff60301b1617603886901b60ff60381b1617905560019150613da8565b50600360ff851614613ec0565b50600160ff871614613eba565b50600460ff851614613d78565b50600660ff871614613d72565b816001898960031b1c5f0b1480613fb7575b80613faa575b15613f5b576122ab57613f56612acd8b87612292565b613d5e565b505f19888860031b1c5f0b1480613f95575b80613f88575b15613d5e575f9150613f56612acd8b87612292565b50600460ff861614613f73565b5060ff8a165f0b60085460301c5f0b14613f6d565b50600360ff871614613f40565b5060ff8b165f0b60085460301c5f0b14613f3a565b508815613d59565b6006898960031b1c5f0b145f14614010576008805461ffff60401b1916604084901b60ff60401b161760488d901b60ff60481b1617905561383d565b6008805461ffff60501b1916605084901b60ff60501b161760588d901b60ff60581b1617905561383d565b6135ca57806137c1565b90506020813d602011614077575b8161406060209383612353565b810103126111715761407190612738565b5f61379e565b3d9150614053565b6001600160a01b0319166017555f6136d3565b50600860ff841610156136a4565b50600860ff8316101561369d565b50600860ff85161015613696565b60135460ff8160881c166141195760301c60ff1660058110156124d05780156128bc5760018114614113576002811461410d576003811461410757600414614102575f90565b600590565b50600490565b50600390565b50600290565b50600690565b9081526001600160a01b03918216602082015291166040820152606081019190915260800190565b600880546040516020810193909260ff905f80875b8383106141f4575050505060f8911515821b6108208501528083161515821b610821850152808360081c161515821b610822850152808360101c161515821b610823850152808360181c161515821b610824850152808360281c161515821b6108258501528260201c161515901b61082683015260ff60f81b9060c81b1661082782015261080881526141ee8161231c565b51902090565b600161010082614205839486612376565b0192019201919061415c565b6010546001600160a01b03908116801515806142b4575b806142a7575b614236575050565b600e54908260145416926015541690600d5493813b15611171575f80946142736040519788968795869463b619984360e01b86526004860161411f565b03925af1801561361657614298575b506013805460ff60481b1916600160481b179055565b6142a1906122d9565b5f614282565b508160155416151561422e565b5060ff60135460481c1615614228565b6002600c54146142d5576002600c55565b604051633ee5aeb560e01b8152600490fd5b9081526001600160a01b03909116602082015260400190565b600f545f906001600160a01b03908116801515806143f2575b61432257505050565b8160145416806143a2575b50508060155416908161434d575b50506013805460ff60401b1916905550565b600f5416600e54813b15610ea05791839161437f9383604051809681958294630bbaa9c160e31b8452600484016142e7565b03925af161438e575b8061433b565b61439882916122d9565b610e0d5780614388565b600e5490823b15611171576143d0925f9283604051809681958294630bbaa9c160e31b8452600484016142e7565b03925af16143df575b8061432d565b6143ea9192506122d9565b5f905f6143d9565b5060ff60135460401c16614319565b6001600160a01b0391821681529116602082015290151560408201529015156060820152901515608082015260a081019190915290151560c082015290151560e08201526101000190565b6012546001600160a01b0390811691905f90831580156146d6575b80156146ca575b6146c45761447a614bbf565b600581101590816124d057600281149283159182806146b6575b84816146a5575b5061469b57600160681b60ff60681b196013541617908160135561ffff8260901c16946124d05760031493826144cf614832565b16159081809a8b9361468c575b81614683575b8161467b575b8361466c575b83614664575b8b80614657575b8061464f575b80614648575b8c614639575b8c614630575b86601454169260ff88601554169760701c169384614628575b833b15611171578b928b9287604051978896879663145c79e760e21b9d8e8952600489019761455a98614401565b03815a5f948591f1801561361657614615575b508360125416948460155416946014541696159788918261460d575b60ff60135460701c169283614605575b50826145fd575b50863b156145f957926145cb928a9b9c928b9a9b96956040519c8d9b8c9a8b998a5260048a01614401565b03925af180156145ee576145dd575050565b6145e782916122d9565b610e0d5750565b6040513d84823e3d90fd5b8980fd5b91505f6145a0565b92505f614599565b985088614589565b6146209198506122d9565b5f965f61456d565b8a945061452c565b9b50879b614513565b9b5060ff8560801c169b61450d565b5086614507565b508715614501565b5060ff8560801c166144fb565b8793506144f4565b925060ff8460781c16926144ee565b8691506144e8565b871591506144e2565b905060ff8460781c16906144dc565b5050505050509050565b90506124d05760048114158461449b565b505f93506003811415614494565b50509050565b5080601554161561446e565b5060ff60135460681c16614467565b6001600160a01b0391821681529116602082015260ff909116604082015260600190565b6011546001600160a01b0390811680151580614822575b80614815575b61472e575050565b614736614bbf565b60058110156124d057600281036147f557505f905b6013805460ff60501b1916600160501b1790556014546015548416908416823b1561117157614796925f9283869360405196879586948593634ff08ec160e11b8552600485016146e5565b03925af190816147e6575b506147e25781612f9d7f9b0f262a0414bc4002cc2e79d18d262c942e58d27d74e2fae9fcfb54618a2d1e9360145416916015541692604051938493846146e5565b5050565b6147ef906122d9565b5f6147a1565b60038103614806575060019061474b565b6004036147e25760029061474b565b5081601554161515614726565b5060ff60135460501c1615614720565b6010546001600160a01b031680156124b357600e54604051638110502f60e01b815260049182820152602081602481865afa908115613616575f91614924575b50801561491d5760405192839163e3a96cbd60e01b8352838301528160246101009384935afa908115613616575f935f915f936148f2575b5050600681101561004b57821491826148c9575b50506124b057505f90565b818192935010156148df57506002145f806148be565b602190634e487b7160e01b5f525260245ffd5b9150915061490d929350803d1061287e576128678183612353565b5094505050939250925f806148aa565b5050505f90565b90506020813d60201161494e575b8161493f60209383612353565b8101031261117157515f614872565b3d9150614932565b91909160089384549360ff9261496a614c13565b604051633f62fc2760e01b8152908590614986600484016128d6565b8860301c5f0b610804840152818960381c1661082484015216610844820152848083169485610864840152818086169889610884860152166108a4840152166108c48201526020816108e48160018060a01b037f0000000000000000000000000000000000000000000000000000000000000000165afa908115613616575f91614b67575b5015614b5c57868110156122ab57614a37614a296004938693612292565b90549060031b1c5f0b614ba1565b1614614a47575050505050600190565b600781148080614b54575b80614b48575b15614a7a57505050505061010061ff00198254161790555b5f80808080612846565b80614b3e575b80614b31575b15614aa357505050506201000062ff000019825416179055614a70565b15918280614b27575b80614b1a575b15614ad3575050825460ff60201b1916600160201b1790925550614a709050565b82614b11575b5081614b03575b50614aed575b5050614a70565b60ff60281b1916600160281b1790555f80614ae6565b90508160281c16155f614ae0565b1591505f614ad9565b50818460201c1615614ab2565b5060078114614aac565b50818460101c1615614a86565b5060078314614a80565b508285871c1615614a58565b508315614a52565b505050505050505f90565b90506020813d602011614b99575b81614b8260209383612353565b8101031261117157614b9390612738565b5f614a0b565b3d9150614b75565b5f81810b12614bb05760ff1690565b614bb9906126b8565b60ff1690565b614bc7614832565b6014546001600160a01b0391821691908116821480614c06575b614bff576015541614614bfa5760ff60135460301c1690565b600390565b5050600490565b5080601554161515614be1565b5f9060085460ff90818116614c88575b818160081c16614c7e575b818160101c16614c74575b818160181c16614c6a575b818160201c16614c60575b60281c16614c5957565b9060201790565b9260101792614c4f565b9260081792614c44565b9260041792614c39565b9260021792614c2e565b60019350614c2356fedcde4d5f323b6ae67236b395481f3b50ffa4fe7f1886ad479738a833734f568100a8b06dd72552dea96e97c9a96acf39a1908ada44765cefe367620485b2c7e195681e512bc0fe659e195e06c283eada494316f3d801213e48e7101af92bf770335c82276d0b79a1d1920709e66ffd09ec3f814451cbf8001d5d6965416233b8a2646970667358221220eb09b96ed585ca532a35c6eb057567c55de9ad9986ae11b2f739022bc2e1e6ee64736f6c634300081800336080806040523461001657612585908161001b8239f35b5f80fdfe60806040526004361015610011575f80fd5b5f3560e01c8063270cbc9b146102115780633f62fc27146101345763d5f374131461003a575f80fd5b346100d8576109003660031901126100d85736602312156100d85761005d61035d565b610804813682116100d8576004905b8282106100dc575050359060ff821682036100d8576100896103d5565b6100916103e6565b610099610391565b6100a16103a2565b6100a96103b3565b916100b26103c4565b936108e4359560ff871687036100d8576020986100ce9861052e565b6040519015158152f35b5f80fd5b36601f830112156100d8576100ef61035d565b8061010084013681116100d85784915b81831061011b575050508160209161010093520191019061006c565b8235805f0b81036100d8578152602092830192016100ff565b346100d8576108e03660031901126100d85736602312156100d85761015761035d565b610804813682116100d8576004905b8282106101b957505035805f0b81036100d8576020916100ce916101886103d5565b6101906103e6565b610198610391565b906101a16103a2565b926101aa6103b3565b946101b36103c4565b966109f3565b36601f830112156100d8576101cc61035d565b8061010084013681116100d85784915b8183106101f85750505081602091610100935201910190610166565b8235805f0b81036100d8578152602092830192016101dc565b346100d8576109803660031901126100d85736602312156100d85761023461035d565b610804813682116100d8576004905b8282106103055750503580151581036100d857610824359182151583036100d8576108443580151581036100d857610279610391565b6102816103a2565b6102896103b3565b6102916103c4565b6108e43590815f0b82036100d857610904359260ff841684036100d857610924359460ff861686036100d857610944359660ff881688036100d857610964359860ff8a168a036100d85760609c60ff9c6102ea9c6103f7565b90604093929351931515845215156020840152166040820152f35b36601f830112156100d85761031861035d565b8061010084013681116100d85784915b8183106103445750505081602091610100935201910190610243565b8235805f0b81036100d857815260209283019201610328565b6040519061010082016001600160401b0381118382101761037d57604052565b634e487b7160e01b5f52604160045260245ffd5b610864359060ff821682036100d857565b610884359060ff821682036100d857565b6108a4359060ff821682036100d857565b6108c4359060ff821682036100d857565b610824359060ff821682036100d857565b610844359060ff821682036100d857565b9b929a9190939495969798999a816104d9575b506104b65761041e8a8a8a8a8f8b906106c4565b610494576104318a8a8a888f899061076e565b6104685750509761044a985f14610460575f199061085f565b156104595760025b5f915f9190565b6001610452565b60019061085f565b97959391509795939161047a99610839565b90811561048c576004905b8215929190565b600190610485565b9795939150979593916104a6996107eb565b90811561048c5781159190600390565b50509750505050505050505f146104d25760045b5f9160019190565b60036104ca565b90505f61040a565b9060088110156104f25760051b0190565b634e487b7160e01b5f52603260045260245ffd5b905f0b905f0b0290815f0b91820361051a57565b634e487b7160e01b5f52601160045260245ffd5b96939895929097949160ff996105536105498c86168b6104e1565b518c8716906104e1565b515f0b925f84135f146106ba578b6001809c5b60068361057289610eb1565b160361069b575050600691506105888895610eb1565b160361068057505084905b5f985b8a8a16986008808b101561066f575f5b8d8082168381101561065c578a8f93928f8a8f948a8f948f94928e938d838a16821480610651575b61063d575f926105e46105f4936105ea936104e1565b516104e1565b51820b9384610506565b810b121561062c57508761060998998c610eee565b6106195760018e915b01166105a6565b5050505050505050505092505050600190565b985050505050505050600190610612565b505050985050505050505050600190610612565b50838b1683146105ce565b50939c9150506001919a50011698610596565b505050505050505050925050505f90565b60018a5f0b145f1461069457505b90610593565b905061068e565b600693610588925f0b6001036106b357505b95610eb1565b90506106ad565b8b5f19809c610566565b949593909192955f915b60ff97888416976008808a101561075f575f5b8b81168281101561074a576106fa906105e48d866104e1565b515f0b5f0390815f0b91820361051a575f8d921261071c575b600101166106e1565b905061072e8989838a8a8a8a8a6109f3565b610739578b90610713565b505050505050505050915050600190565b5050509750975091600160ff910116916106ce565b50505050505050509150505f90565b949593909192955f915b60ff97888416976008808a101561075f575f5b8b8116828110156107d657905f6107a78e936105e48f886104e1565b51810b126107b9575b6001011661078b565b90506107cb8989838a8a8a8a8a6109f3565b610739578b906107b0565b5050509750975091600160ff91011691610778565b9897969594939291906107ff84848c6112e9565b61082b5761081189898989898f611425565b61082b5761081e996115b1565b61082757600190565b5f90565b505050505050505050505f90565b98979695949392919061084d82828c611391565b61082b5761081189898989898f6114f3565b989793919461088e93919697956001885f0b1493845f146109d35750925b156109cb5750905b8181878b6119e1565b6109c2575f939293915b600860ff841610156109b7575f935b600860ff861610156109a7575f6108d5876108cd60ff89166105e48d60ff8b16906104e1565b51830b610506565b810b131561099b575f955b600860ff88161015610988575f5b8960ff8216600881101561097757878787878c96956109158f966105e460ff8916846104e1565b515f0b61092c60ff8a166105e460ff8916856104e1565b515f0b14610966579186979391610945979695936109f3565b6109595760ff60018b925b011690506108ee565b505f985050505050505050565b96505050505050600160ff91610950565b50505095600160ff910116956108e0565b9460ff9196506001905b011693946108a7565b9493600160ff91610992565b9350600190920160ff1691610898565b506001955050505050565b505f9450505050565b905090610885565b90509261087d565b5f91820b910b0390607f198212607f83131761051a57565b8597939692610a13610a0860ff8816846104e1565b5160ff8916906104e1565b515f0b97600260ff610a51610a4c82610a3b610a31828c168a6104e1565b51828d16906104e1565b515f0b9c165f0b838b165f0b6109db565b610eb1565b161480610e9c575b610ce9575086151580610cd4575b610cc75760ff610a7689610eb1565b169260018414610cb057505060028214610c2c5760038214610bde5760048214610bb45760058214610b1f5750600614610ab4575050505050505f90565b610a4c60ff928380610ad7610a4c610ae496838060019b165f0b91165f0b6109db565b99165f0b91165f0b6109db565b941611159283610b0e575b5082610afa57505090565b5f925090610b0791610506565b810b131590565b600191935060ff161115915f610aef565b969192939050610b3c610a4c60ff83165f0b60ff86165f0b6109db565b60ff80610b54610a4c8287165f0b838a165f0b6109db565b16911614968715610ba3575b8715610b92575b87610b7c575b505050505082610afa57505090565b610b8795975061212c565b915f80808080610b6d565b965060ff841660ff83161496610b67565b965060ff831660ff82161496610b60565b96919293905060ff831660ff821614968715610b925787610b7c57505050505082610afa57505090565b969192939050610bfb610a4c60ff83165f0b60ff86165f0b6109db565b60ff80610c13610a4c8287165f0b838a165f0b6109db565b169116149687610b7c57505050505082610afa57505090565b5050610c5c9160ff80610c4f610a4c610a4c958380809a165f0b91165f0b6109db565b98165f0b91165f0b6109db565b931692600184149384610ca2575b8415610c7d575b505082610afa57505090565b600291929450149081610c94575b50915f80610c71565b6001915060ff16145f610c8b565b60ff82166002149450610c6a565b909150610cc4989394959250969596611bd1565b90565b5050505050505050505f90565b505f610ce0888a610506565b810b1215610a67565b949792505096945060069150145f14610de157600760ff83161480610dd4575b80610dc9575b610d1d575b50505050505f90565b600460ff610d3c60e0610d328387168a6104e1565b5101515f0b610eb1565b161480610dbc575b80610db1575b610da757600460ff610d6a610d61828616896104e1565b51515f0b610eb1565b16149081610d99575b81610d8d575b50610d845780610d14565b610cc493611ae7565b6002915016155f610d79565b60ff85166002149150610d73565b50610cc493611ae7565b506004811615610d4a565b50600660ff851614610d44565b506001811615610d0f565b50600460ff841614610d09565b60ff82161580610e8f575b80610e84575b610dff5750505050505f90565b600460ff610e1460e0610d328387168a6104e1565b161480610e77575b80610e6c575b610da757600460ff610e39610d61828616896104e1565b16149081610e5e575b81610e525750610d845780610d14565b6020915016155f610d79565b60ff85166002149150610e42565b506010811615610e22565b50600660ff851614610e1c565b506008811615610df2565b50600460ff841614610dec565b50600660ff610eaa8b610eb1565b1614610a59565b5f81810b908112610ec3575060ff1690565b9050607f19811461051a575f0360ff1690565b905f0b905f0b0190607f198212607f83131761051a57565b90959798919493929860ff9788610f048c610eb1565b169460019b8c871461126c5750600286146111ea576006861461118e578980911698165f0b968980610f388a8c5f0b6109db565b981691165f0b610f4a81835f0b6109db565b96610f5489610eb1565b988c80610f608b610eb1565b169a1699808b149182611184575b5f0b92831591829c8315611178575b83611157575b5050600381148061114f575b611132576004811480611147575b611132576005149182611129575b5081611120575b5061110e578d98156110f05750610fe85f998a985b5f0b806110cc5750610fe15f9b8c918f918d969594610ed6565b1692610ed6565b8c16915b611001575b5050505050505050505050505090565b8b168a81148015906110c0575b156110bb578b8a91818f168114806110ae575b1561104c575b906110388a61104394935f0b610ed6565b811693165f0b610ed6565b8b169088610fec565b9950905084168814806110a1575b801561107f575b61106e57888b8e99611027565b505050505050505050505050505f90565b5061109761108d89876104e1565b518c8316906104e1565b515f0b1515611061565b508a86168b82161461105a565b5081861682851614611021565b610ff1565b50828c8316141561100e565b5f12156110e657610fe18a5b9b8c918f918d969594610ed6565b610fe15f196110d8565b5f121561110457610fe8885b998a98610fc7565b610fe85f196110fc565b50505050505050505050505050505f90565b9050155f610fb2565b1591505f610fab565b50505050505050505050505050505050505f90565b508115610f9d565b508215610f8f565b90919250159081159161116e575b50905f80610f83565b905015155f611165565b92508b5f0b1592610f7d565b8b15159250610f6e565b925050508897506111b39250610a4c915086808095979a969a165f0b91165f0b6109db565b16111593846111c4575b5050505090565b82806111de94959650610a4c9392165f0b91165f0b6109db565b1611155f8080806111bd565b611223979a50610a4c9695508980809a8197508196506112169550610a4c9450165f0b91165f0b6109db565b97165f0b91165f0b6109db565b921692600284149384611260575b841561123e575050505090565b1492509082611253575b50505f8080806111bd565b6002925016145f80611248565b83831682149450611231565b9250969a995050611298935087949692505f80925050810b135f146112d157825f19915b165f0b610ed6565b5f0b91165f0b1493846112ac575050505090565b82806112c694959650610a4c9392165f0b91165f0b6109db565b16145f8080806111bd565b828791611290565b5f0b607f811461051a5760010190565b5f195b805f0b6001808213611387575f199115815b611314575b50505061130f906112d9565b6112ec565b825f97949693979592950b85811361137957819081611370575b50611365576113408787868686611e62565b61135b5761134f8596976112d9565b929591949693966112fe565b5050505091505090565b61134f8596976112d9565b9050155f61132e565b508295939650819450611303565b5050505050505f90565b5f195b805f0b6001808213611387575f199115815b6113bc575b5050506113b7906112d9565b611394565b825f97949693979592950b8581136114175781908161140e575b50611403576113e88787868686611f34565b61135b576113f78596976112d9565b929591949693966113a6565b6113f78596976112d9565b9050155f6113d6565b5082959396508194506113ab565b949295939190955f915b60ff97600897848a168981101561075f575f5b8b81168b8110156114de578061145d8e926105e486886104e1565b515f0b9081159182156114c2575b5081156114a2575b5061149957506114898989838a8a8a8a8a6109f3565b6107395760018c915b0116611442565b90600190611492565b8a831685149150816114b6575b505f611473565b9050818b16145f6114af565b915091505f0390815f0b91820361051a575f8e9212905f61146b565b5050509750975091600160ff9101169161142f565b949295939190955f915b60ff97600897848a168981101561075f575f5b8b81168b81101561159c578061152b8e926105e486886104e1565b515f0b908115918215611590575b508115611570575b5061156757506115578989838a8a8a8a8a6109f3565b6107395760018c915b0116611510565b90600190611560565b8a83168514915081611584575b505f611541565b9050818b16145f61157d565b5f91925012905f611539565b5050509750975091600160ff910116916114fd565b9195939099989694929760ff16956115d860ff6115ce89866104e1565b51991680996104e1565b515f0b915f83135f146117ff575f199b60029260ff92611610928f6001905b5f0b149d8e156117f757509c5b156117ef575093610eb1565b161461095957611627865f0b60ff8a165f0b6109db565b90611639885f0b60ff83165f0b6109db565b915f0b806117cc575060ff6116735f9889945b5f0b806117a857506116685f949a9091859394505b5f0b610ed6565b60ff16995f0b610ed6565b60ff16985b60ff811660ff8a1614801590611798575b1561178957965f975b600860ff8a161015611757575f5b8d60ff82166008811015611746576116bf906105e460ff8e168a6104e1565b515f0b801591821561172d575b508115611716575b5061170c576116e98c8c838d8d8d8d8d6109f3565b6116fa57600160ff915b01166116a0565b5060019c505050505050505050505050565b600160ff916116f3565b6006915061172560ff91610eb1565b16145f6116d4565b81925061173b905f92610506565b810b1315908f6116cc565b505050600190980160ff1697611692565b99988398508260ff611773819495968261177e95165f0b610ed6565b81169b165f0b610ed6565b169890969190611678565b505f9a50505050505050505050565b5060ff881660ff8b161415611689565b5f12156117c25761166860015b949a909185939450611661565b6116685f196117b5565b5f12156117e35760ff61167360015b98899461164c565b60ff6116735f196117db565b905093610eb1565b90509c611604565b60019b60029260ff92611610928f806115f7565b91939094925f945b60ff96878716966008808910156118fa575f5b8a8116828110156118e6578b8088168c14806118db575b80156118c4575b6118ba575061185f906105e48c8b6104e1565b515f0b5f03805f0b90810361051a575f138787878785888e876118a4575b505050505050506118945760018b915b011661182e565b5050505050505050915050600190565b6118ae9750611fee565b8787878785888e61187d565b916001915061188d565b508086168c14801561184c5750808716821461184c565b508089168214611845565b509299505060010160ff16965061181b9050565b505050505050509150505f90565b91939094925f945b60ff96878716966008808910156118fa575f5b8a8116828110156119cd57878787878f8f958e96828b9387168214806119c2575b80156119ab575b61199957506119618993926105e45f938b6104e1565b51810b129687611983575b505050505050506118945760018b915b0116611923565b61198d9750611fee565b8787878785888e61196c565b9896505050505050506001915061197c565b508085168214801561194b5750808616831461194b565b508088168314611944565b509299505060010160ff1696506119109050565b929593909491955f965b60ff97888116976008808a101561075f575f5b8b811682811015611aad578888888f8f888f968b92848e958816821480611aa2575b8015611a8b575b611a7857508993926108cd5f936105e4611a41948d6104e1565b810b129687611a62575b505050505050506107395760018c915b01166119fe565b611a6c9750611fee565b8888888885898f611a4b565b9997505050505050505060019150611a5b565b5080861682148015611a2757508087168314611a27565b508089168314611a20565b505050975060ff91985060010116966119eb565b60ff60019116019060ff821161051a57565b9060ff8091169116019060ff821161051a57565b60ff948585169490938681169391611b13919087861015611ba3578782965b1115611b9b575093611ac1565b868116878516811015611b4c57611b30906105e4898516866104e1565b515f0b611b41576001018616611b13565b505050509150505f90565b50509150939291936002831480611b80575b611b7857611b71936105e49216906104e1565b515f0b1590565b505050505f90565b506020611b8f858416836104e1565b5101515f0b1515611b5e565b905093611ac1565b878196611b06565b60ff5f199116019060ff821161051a57565b9060ff8091169116039060ff821161051a57565b9691929094939560ff8080961692169180831480611e58575b611db7575b5f0b915f0b6001988987611c06610a4c85886109db565b1614611d34575b5f0b9389875f8712159384611d17575b50505081611d0c575b50611c38575b50505050505050505f90565b5f0b87811480611cf7575b80611ceb575b80611ce2575b80611cd5575b611ccb575f19149586611cb2575b5085611ca5575b85611c9b575b505083611c8b575b505050610cc45780808080808080611c2c565b81929350169116145f8080611c78565b1493505f80611c70565b8284166004149550611c6a565b9095508380611cc085611ac1565b16911614945f611c63565b5050505050505090565b5084841685871614611c55565b50828214611c4f565b50600385851614611c49565b5084611d0285611bab565b1685881614611c43565b90505f0b155f611c26565b611d299192939450610a4c90876109db565b16149089875f611c1d565b825f0b8a811480611da2575b80611d97575b611d8a575f191480611d75575b80611d6a575b15611c0d5750505050505050505090565b505f85810b13611d59565b5086611d8087611ac1565b16878a1614611d53565b5050505050505050505090565b505f86810b12611d46565b5087611dad88611bab565b16888b1614611d40565b5f82900b19611e0d5785611dca86611ac1565b16868916908114908115611ded575b5015611bef57505050505050505050600190565b868816600114915081611e02575b505f611dd9565b60039150145f611dfb565b85611e1786611bab565b16868916908114908115611e39575015611bef57505050505050505050600190565b868816600614915081611e4d57505f611dd9565b60049150145f611dfb565b50835f0b15611bea565b9290919260ff91611e7883851691825f0b610ed6565b90611e8884871697885f0b610ed6565b96825f0b5f8112908115611f28575b508015611f1d575b8015611f10575b611c2c57611ed4906105e4611eca611ec0888716886104e1565b51888c16906104e1565b515f0b93866104e1565b515f0b8115159182611ef9575b505061138757611ef5958316921690611813565b1590565b5f925090611f0691610506565b810b135f80611ee1565b506008885f0b1215611ea6565b505f88810b12611e9f565b6008915012155f611e97565b9290919260ff91611f4a83851691825f0b610ed6565b90611f5a84871697885f0b610ed6565b96825f0b5f8112908115611fe2575b508015611fd7575b8015611fca575b611c2c57611f92906105e4611eca611ec0888716886104e1565b515f0b8115159182611fb3575b505061138757611ef5958316921690611908565b5f925090611fc091610506565b810b135f80611f9f565b506008885f0b1215611f78565b505f88810b12611f71565b6008915012155f611f69565b94929095939160ff968781169661200588826104e1565b5198612014818516809b6104e1565b515f0b9061202182610eb1565b99818b166001938482146120d15750600281146120985760061461204c57505050610cc49850612325565b9098508199508895925085919697506120709450610a4c93505f0b91165f0b6109db565b1611159384612080575050505090565b826111de93949550610a4c92915f0b91165f0b6109db565b50610a4c929b9a508199508198506112239795508194506120c5935090610a4c96915f0b91165f0b6109db565b965f0b91165f0b6109db565b939b50509350975087949596506120f993505f80925050135f14612125575f19905f0b610ed6565b5f0b91165f0b14938461210d575050505090565b826112c693949550610a4c92915f0b91165f0b6109db565b8690611661565b949360ff93808516939291858316808611928484156123155761214e91611bbd565b905b878616958884169389808987119284845f146123065761216f91611bbd565b16941698848a146122775783146121fe5750505050831461219457505f955050505050565b60015b84868216106121ac5750600196505050505050565b81156121e7576121cb846105e4886121c48588611ad3565b168b6104e1565b515f0b6121dc576001018516612197565b505f96505050505050565b6121cb846105e4886121f98588611bbd565b6121c4565b94509450945095969794505060015b85878216106122225750505050505050600190565b8115612265576122496122358285611ad3565b8861224087896104e1565b519116906104e1565b515f0b61225a57600101861661220d565b505050505050505f90565b6122496122728285611bbd565b612235565b509798999a965094939250505060015b868882161061229d575050505050505050600190565b81156122f4576122ce6122b08285611ad3565b87156122df5789612240816122c5868a611ad3565b935b16896104e1565b515f0b611c2c576001018716612287565b89612240816122ee868a611bbd565b936122c7565b6122ce6123018285611bbd565b6122b0565b9061231091611bbd565b61216f565b9061231f91611bbd565b90612150565b91969590939497929760ff80809a1695165f0b9789806123478b895f0b6109db565b981691165f0b9761235a89835f0b6109db565b9761236481610eb1565b908c806123708c610eb1565b169216918d8184149283612545575b5f0b9485159283958415612539575b84612518575b5050166003811480612510575b6124f5576004811480612508575b6124f55760051491826124ec575b50816124e3575b506124d357156124b25750896123f45f9a8b995b5f0b8061249357506123ec5f9c8d92610ed6565b83169a610ed6565b8116985b16868114801590612487575b15612477578a831681148061246a575b1580612448575b612439576124318a8c6117738b82955f0b610ed6565b8116986123f8565b50505050509450505050505f90565b5061246061245682876104e1565b518c8b16906104e1565b515f0b151561241b565b508a84168b8a1614612414565b5050505050945050505050600190565b50818b8a161415612404565b5f12156124a8576123ec60015b9c8d92610ed6565b6123ec5f196124a0565b5f12156124c857896123f460015b9a8b996123d8565b896123f45f196124c0565b5050505050509450505050505f90565b9050155f6123c4565b1591505f6123bd565b5050505050505050509450505050505f90565b5081156123af565b5082156123a1565b90919350159081159161252f575b50915f80612394565b905015155f612526565b93508d5f0b159361238e565b841515935061237f56fea2646970667358221220522f0432b643e9a525b69f1ccc8e32469f68a1e00943b8db9dfd7c47b3dd044064736f6c63430008180033",
  "immutableReferences": {
    "13834": [
      {
        "length": 32,
        "start": 10769
      },
      {
        "length": 32,
        "start": 11383
      },
      {
        "length": 32,
        "start": 14181
      },
      {
        "length": 32,
        "start": 14789
      },
      {
        "length": 32,
        "start": 18907
      }
    ]
  },
  "source": "// SPDX-License-Identifier: MIT\npragma solidity ^0.8.24;\nimport \"@openzeppelin/contracts/utils/Strings.sol\";\nimport \"@openzeppelin/contracts/utils/ReentrancyGuard.sol\";\nimport \"./ChessBoard.sol\";\nimport \"./ChessRulesEngine.sol\";\nimport \"../Token/BondingManager.sol\";\nimport \"../Token/RewardPool.sol\";\nimport \"../DAO/DisputeDAO.sol\";\nimport \"../Rating/PlayerRating.sol\";\n\n/// @title ChessCore - Main chess game logic\n/// @notice Inherits from ChessBoard and implements move validation and game state\ncontract ChessCore is ChessBoard, ReentrancyGuard {\n    // ========== CUSTOM ERRORS ==========\n    error GameNotInProgress();\n    error NotYourTurn();\n    error InvalidMove();\n    error GameAlreadyStarted();\n    error GameNotStarted();\n    error AlreadyInitialized();\n    error CannotClaimYet();\n    error PrizeAlreadyClaimed();\n    error NoPrizeToDistribute();\n    error NotAPlayer();\n    error NoDrawOffer();\n    error CannotResign();\n    error NotTimedOut();\n    error CancelledGame();\n    error AlreadyWhitePlayer();\n    error WrongBetAmount();\n    error BlackPlayerTaken();\n    error GameNotFinished();\n    error TransferFailed();\n    error NotPrizeRecipient();\n    error PositionNotRepeated();\n    error FiftyMoveRuleNotReached();\n    error InvalidCoordinates();\n    error OnlyWhitePlayer();\n    error FriendlyOnly();\n    error CancelTimeoutNotReached();\n    error InvalidPromotionPiece();\n\n    // ========== ENUMS (must be declared before state variables) ==========\n    enum TimeoutPreset { Finney, Buterin, Nakamoto }\n    enum GameMode { Tournament, Friendly }\n    enum GameState { NotStarted, InProgress, Draw, WhiteWins, BlackWins }\n\n    // ========== CONSTANTS ==========\n    // Timeout presets (based on ~12 sec/block on Ethereum)\n    uint48 public constant FINNEY_BLOCKS = 300;      // ~1 hour (Hal Finney - fast)\n    uint48 public constant BUTERIN_BLOCKS = 2100;    // ~7 hours (Vitalik Buterin - medium)\n    uint48 public constant NAKAMOTO_BLOCKS = 50400;  // ~7 days (Satoshi Nakamoto - slow)\n    uint48 public constant CANCEL_UNJOINED_TIMEOUT = 1 days;\n\n    // ========== STORAGE LAYOUT OPTIMIZED FOR GAS ==========\n    // Slot 1: betting (32 bytes)\n    uint256 public betting;\n\n    // Slot 2: gameId (32 bytes)\n    uint256 public gameId;\n\n    // Slot 3: Anti-cheating contracts (addresses stored separately for external access)\n    BondingManager public bondingManager;  // 20 bytes\n\n    // Slot 4\n    DisputeDAO public disputeDAO;          // 20 bytes\n\n    // Slot 5\n    PlayerRating public playerRating;      // 20 bytes\n\n    // Slot 6\n    RewardPool public rewardPool;          // 20 bytes\n    ChessRulesEngine private immutable rulesEngine;\n\n    // Slot 7: PACKED - timeout tracking + state flags (32 bytes total)\n    // uint48 max = 281 trillion blocks, far exceeds any realistic blockchain lifetime\n    uint48 public whiteLastMoveBlock;      // 6 bytes\n    uint48 public blackLastMoveBlock;      // 6 bytes\n    uint48 public timeoutBlocks;           // 6 bytes\n    GameState private gameState;           // 1 byte\n    GameMode public gameMode;              // 1 byte\n    bool public bondsLocked;               // 1 byte\n    bool public gameRegisteredForDispute;  // 1 byte\n    bool public ratingReported;            // 1 byte\n    bool private prizeClaimed;             // 1 byte\n    bool private initialized;              // 1 byte\n    bool private rewardsDistributed;       // 1 byte\n    // Game end tracking for rewards\n    bool private wasCheckmate;             // 1 byte\n    bool private wasResign;                // 1 byte\n    bool private wasTimeout;               // 1 byte\n    bool public cancelled;                 // 1 byte\n    uint16 public plyCount;                // 2 bytes\n    // Total: 32 bytes (fits exactly in 1 slot)\n\n    // Slot 8: creation metadata\n    uint48 public createdAt;\n\n    // Structured events for frontend\n    event MoveMade(\n        address indexed player,\n        uint8 fromRow,\n        uint8 fromCol,\n        uint8 toRow,\n        uint8 toCol,\n        int8 piece,\n        int8 capturedPiece,\n        int8 promotionPiece,\n        bool isCheck,\n        bool isMate,\n        bool isCastling,\n        bool isEnPassant\n    );\n    event GameStarted(address indexed whitePlayer, address indexed blackPlayer, uint256 betAmount);\n    event GameStateChanged(GameState newState);\n    event PrizeClaimed(address winner, uint256 amount);\n    event PlayerResigned(address player, address winner);\n    event GameTimeout(address winner, address loser);\n    event DrawOffered(address indexed player);\n    event DrawOfferDeclined(address indexed player);\n    event DrawAccepted();\n    event DrawByRepetition(address indexed claimant);\n    event DrawByFiftyMoveRule(address indexed claimant);\n    event GameCancelled(address indexed player, uint256 refundAmount);\n    event RatingReportFailed(address white, address black, uint8 result);\n\n    // Slot 7: Player addresses\n    address whitePlayer;\n    address blackPlayer;\n    address public currentPlayer;\n\n    // Slot 8: Draw offer tracking\n    address public drawOfferedBy;\n\n    // Prize claim tracking for pull pattern (prevents locked funds)\n    mapping(address => uint256) public pendingPrize;\n\n    // NOTE: initialized is in the packed slot 6 above\n\n    /// @notice Modifier to prevent re-initialization\n    modifier initializer() {\n        if (initialized) revert AlreadyInitialized();\n        initialized = true;\n        _;\n    }\n\n    /// @notice Empty constructor for implementation contract\n    constructor() {\n        rulesEngine = new ChessRulesEngine();\n        // Implementation contract should not be used directly\n        // Mark as initialized to prevent usage\n        initialized = true;\n    }\n\n    /// @notice Initialize the game (called by factory on clones)\n    /// @param _whitePlayer Address of white player\n    /// @param _value Bet amount in wei\n    /// @param _preset Timeout preset (Finney/Buterin/Nakamoto)\n    /// @param _mode Game mode (Tournament/Friendly)\n    /// @param _gameId Unique game identifier\n    /// @param _bondingManager BondingManager contract address\n    /// @param _disputeDAO DisputeDAO contract address\n    /// @param _playerRating PlayerRating contract address\n    /// @param _rewardPool RewardPool contract address\n    function initialize(\n        address _whitePlayer,\n        uint _value,\n        TimeoutPreset _preset,\n        GameMode _mode,\n        uint256 _gameId,\n        address _bondingManager,\n        address _disputeDAO,\n        address _playerRating,\n        address _rewardPool\n    ) external payable initializer {\n        // Initialize the board\n        initializeBoard();\n\n        whitePlayer = _whitePlayer;\n        currentPlayer = _whitePlayer;\n        betting = _value;\n        gameMode = _mode;\n        gameId = _gameId;\n        createdAt = uint48(block.timestamp);\n\n        // Set anti-cheating contracts (can be address(0) if not using bonding)\n        if (_bondingManager != address(0)) {\n            bondingManager = BondingManager(payable(_bondingManager));\n        }\n        if (_disputeDAO != address(0)) {\n            disputeDAO = DisputeDAO(_disputeDAO);\n        }\n        if (_playerRating != address(0)) {\n            playerRating = PlayerRating(_playerRating);\n        }\n        if (_rewardPool != address(0)) {\n            rewardPool = RewardPool(_rewardPool);\n        }\n\n        // Set timeout based on preset\n        if (_preset == TimeoutPreset.Finney) {\n            timeoutBlocks = FINNEY_BLOCKS;\n        } else if (_preset == TimeoutPreset.Buterin) {\n            timeoutBlocks = BUTERIN_BLOCKS;\n        } else {\n            timeoutBlocks = NAKAMOTO_BLOCKS;\n        }\n\n        // Record initial position for threefold repetition\n        bytes32 initialPosition = _computePositionHash(true);\n        positionCount[initialPosition] = 1;\n        positionHistory.push(initialPosition);\n        maxPositionRepetitions = 1;\n    }\n   \n   receive() external payable {\n        if (cancelled) revert CancelledGame();\n        if (gameState != GameState.NotStarted) revert GameAlreadyStarted();\n    }\n\n    function switchTurn() internal {\n        currentPlayer = (currentPlayer == whitePlayer) ? blackPlayer : whitePlayer;\n    }\n\n   function joinGameAsBlack() public payable {\n        if (cancelled) revert CancelledGame();\n        if (gameState != GameState.NotStarted) revert GameAlreadyStarted();\n        if (msg.sender == whitePlayer) revert AlreadyWhitePlayer();\n        if (msg.value != betting) revert WrongBetAmount();\n        if (blackPlayer != address(0)) revert BlackPlayerTaken();\n\n        // If bonding is enabled, lock bonds for both players (single external call)\n        if (address(bondingManager) != address(0)) {\n            bondingManager.lockBondsForGame(gameId, whitePlayer, msg.sender, betting);\n            bondsLocked = true;\n        }\n\n        blackPlayer = msg.sender;\n        gameState = GameState.InProgress;\n\n        // Start white's clock (white moves first)\n        whiteLastMoveBlock = uint48(block.number);\n\n        // NOTE: Initial position already recorded in initialize()\n        // No need to record again here - was causing duplicate entries\n\n        emit GameStarted(whitePlayer, blackPlayer, betting);\n        emit GameStateChanged(GameState.InProgress);\n    }\n\n    /// @notice Register game completion in DisputeDAO for challenge window\n    /// @dev Called automatically when game ends, starts the 48h challenge window\n    function _registerGameForDispute() internal {\n        if (address(disputeDAO) != address(0) && !gameRegisteredForDispute && blackPlayer != address(0)) {\n            disputeDAO.registerGame(gameId, whitePlayer, blackPlayer, betting);\n            gameRegisteredForDispute = true;\n        }\n    }\n\n    /// @notice Distribute rewards to both players after game ends\n    function _distributeRewards() internal {\n        if (address(rewardPool) == address(0) || rewardsDistributed || blackPlayer == address(0)) {\n            return;\n        }\n\n        GameState settledState = _getSettledOutcome();\n        if (\n            settledState != GameState.Draw &&\n            settledState != GameState.WhiteWins &&\n            settledState != GameState.BlackWins\n        ) {\n            return;\n        }\n        rewardsDistributed = true;\n\n        uint256 moveCount = plyCount;\n        bool isDraw = (settledState == GameState.Draw);\n        bool whiteWins = (settledState == GameState.WhiteWins);\n        bool clearBehaviorPenalties = _getResolvedDisputeCheater() != address(0);\n        bool whiteWasResign = !clearBehaviorPenalties && wasResign && !whiteWins && !isDraw;\n        bool blackWasResign = !clearBehaviorPenalties && wasResign && whiteWins;\n        bool whiteWasTimeout = !clearBehaviorPenalties && wasTimeout && !whiteWins && !isDraw;\n        bool blackWasTimeout = !clearBehaviorPenalties && wasTimeout && whiteWins;\n\n        // Distribute to white player\n        rewardPool.distributeReward(\n            whitePlayer,\n            blackPlayer,\n            whiteWins,                    // isWinner\n            isDraw,                       // isDraw\n            wasCheckmate && whiteWins,    // isCheckmate (only for winner)\n            moveCount,\n            whiteWasResign,\n            whiteWasTimeout\n        );\n\n        // Distribute to black player\n        rewardPool.distributeReward(\n            blackPlayer,\n            whitePlayer,\n            !whiteWins && !isDraw,        // isWinner\n            isDraw,                       // isDraw\n            wasCheckmate && !whiteWins && !isDraw,  // isCheckmate (only for winner)\n            moveCount,\n            blackWasResign,\n            blackWasTimeout\n        );\n    }\n\n    /// @notice Release bonds after challenge window (no dispute)\n    function _releaseBonds() internal {\n        if (address(bondingManager) != address(0) && bondsLocked) {\n            if (whitePlayer != address(0)) {\n                try bondingManager.releaseBond(gameId, whitePlayer) {} catch {}\n            }\n            if (blackPlayer != address(0)) {\n                try bondingManager.releaseBond(gameId, blackPlayer) {} catch {}\n            }\n            bondsLocked = false;\n        }\n    }\n\n    function _getResolvedDisputeCheater() internal view returns (address) {\n        if (address(disputeDAO) == address(0)) {\n            return address(0);\n        }\n\n        uint256 disputeId = disputeDAO.gameToDispute(gameId);\n        if (disputeId == 0) {\n            return address(0);\n        }\n\n        (\n            ,\n            ,\n            address accusedPlayer,\n            DisputeDAO.DisputeState state,\n            ,\n            ,\n            DisputeDAO.Vote finalDecision,\n            uint256 _ignoredEscalationLevel\n        ) = disputeDAO.getDispute(disputeId);\n        _ignoredEscalationLevel;\n\n        if (state == DisputeDAO.DisputeState.Resolved && finalDecision == DisputeDAO.Vote.Cheat) {\n            return accusedPlayer;\n        }\n\n        return address(0);\n    }\n\n    function _getSettledOutcome() internal view returns (GameState) {\n        address cheater = _getResolvedDisputeCheater();\n\n        if (cheater == whitePlayer && blackPlayer != address(0)) {\n            return GameState.BlackWins;\n        }\n\n        if (cheater == blackPlayer) {\n            return GameState.WhiteWins;\n        }\n\n        return gameState;\n    }\n\n    function _allocatePrizes(uint256 totalPrize) internal {\n        GameState settledState = _getSettledOutcome();\n\n        if (settledState == GameState.WhiteWins) {\n            pendingPrize[whitePlayer] = totalPrize;\n        }\n        else if (settledState == GameState.BlackWins) {\n            pendingPrize[blackPlayer] = totalPrize;\n        }\n        else if (settledState == GameState.Draw) {\n            uint256 halfPrize = totalPrize / 2;\n            uint256 remainingPrize = totalPrize - halfPrize;\n            pendingPrize[whitePlayer] = halfPrize;\n            pendingPrize[blackPlayer] = remainingPrize;\n        }\n    }\n\n    /// @notice Report game result to rating system\n    function _reportRating() internal {\n        if (address(playerRating) != address(0) && !ratingReported && blackPlayer != address(0)) {\n            // Determine result: 0 = draw, 1 = white wins, 2 = black wins\n            uint8 result;\n            GameState settledState = _getSettledOutcome();\n            if (settledState == GameState.Draw) {\n                result = 0;\n            } else if (settledState == GameState.WhiteWins) {\n                result = 1;\n            } else if (settledState == GameState.BlackWins) {\n                result = 2;\n            } else {\n                return; // Game not finished\n            }\n\n            ratingReported = true;\n            try playerRating.reportGame(whitePlayer, blackPlayer, result) {} catch {\n                emit RatingReportFailed(whitePlayer, blackPlayer, result);\n            }\n        }\n    }\n\n    /// @notice Check if the challenge window has passed and no dispute is active\n    function canClaimPrize() public view returns (bool) {\n        if (address(disputeDAO) == address(0)) {\n            return true; // No dispute system, can claim immediately\n        }\n\n        uint256 disputeId = disputeDAO.gameToDispute(gameId);\n        if (disputeId == 0) {\n            return true; // Game not registered yet, allow (will register on claim)\n        }\n\n        (\n            ,  // gameId\n            ,  // challenger\n            ,  // accusedPlayer\n            DisputeDAO.DisputeState state,\n            ,  // legitVotes\n            ,  // cheatVotes\n            ,  // finalDecision\n               // escalationLevel\n        ) = disputeDAO.getDispute(disputeId);\n\n        // Can claim if dispute is resolved\n        if (state == DisputeDAO.DisputeState.Resolved) {\n            return true;\n        }\n\n        // If still pending, only allow if challenge window has definitively expired\n        // This prevents frontrunning attacks where someone submits a challenge\n        // right before the claim transaction is mined\n        if (state == DisputeDAO.DisputeState.Pending) {\n            return !disputeDAO.isChallengeWindowOpen(gameId);\n        }\n\n        return false;\n    }\n\n    /// @notice Finalize game and allocate prizes (must be called before withdrawPrize)\n    /// @dev Uses pull pattern to prevent locked funds if one player's address reverts\n    function finalizePrizes() external nonReentrant {\n        if (prizeClaimed) revert PrizeAlreadyClaimed();\n        if (\n            gameState != GameState.WhiteWins &&\n            gameState != GameState.BlackWins &&\n            gameState != GameState.Draw\n        ) revert GameNotFinished();\n\n        // Register game for dispute if not already done\n        _registerGameForDispute();\n\n        // If dispute system is active, check that we can claim\n        if (address(disputeDAO) != address(0)) {\n            if (!canClaimPrize()) revert CannotClaimYet();\n\n            // Close the challenge window in DisputeDAO\n            uint256 disputeId = disputeDAO.gameToDispute(gameId);\n            if (disputeId != 0) {\n                try disputeDAO.closeChallengeWindow(gameId) {} catch {}\n            }\n        }\n\n        // Release bonds if bonding was used\n        _releaseBonds();\n\n        // Keep reward calculation based on pre-update ratings.\n        _distributeRewards();\n        _reportRating();\n\n        prizeClaimed = true;\n        uint256 totalPrize = address(this).balance;\n\n        _allocatePrizes(totalPrize);\n    }\n\n    /// @notice Withdraw allocated prize (pull pattern)\n    /// @dev Each player calls this to withdraw their prize after finalizePrizes()\n    function withdrawPrize() external nonReentrant {\n        uint256 amount = pendingPrize[msg.sender];\n        if (amount == 0) revert NoPrizeToDistribute();\n\n        pendingPrize[msg.sender] = 0;\n\n        (bool success, ) = payable(msg.sender).call{value: amount}(\"\");\n        if (!success) revert TransferFailed();\n\n        emit PrizeClaimed(msg.sender, amount);\n    }\n\n    /// @notice Legacy function for backward compatibility - finalizes and withdraws in one call\n    /// @dev Only works for winner in win scenarios, not for draws\n    function claimPrize() external nonReentrant {\n        if (prizeClaimed) revert PrizeAlreadyClaimed();\n        if (\n            gameState != GameState.WhiteWins &&\n            gameState != GameState.BlackWins &&\n            gameState != GameState.Draw\n        ) revert GameNotFinished();\n\n        address cheater = _getResolvedDisputeCheater();\n        bool cheatResolved = (cheater == whitePlayer || cheater == blackPlayer);\n\n        // For normal draws, must use finalizePrizes() + withdrawPrize() pattern\n        if (gameState == GameState.Draw && !cheatResolved) revert CannotClaimYet();\n\n        // Verify caller is the rightful recipient\n        address recipient;\n        if (cheater == whitePlayer && blackPlayer != address(0)) {\n            recipient = blackPlayer;\n        } else if (cheater == blackPlayer) {\n            recipient = whitePlayer;\n        } else if (gameState == GameState.WhiteWins) {\n            recipient = whitePlayer;\n        } else {\n            recipient = blackPlayer;\n        }\n        if (msg.sender != recipient) revert NotPrizeRecipient();\n\n        // Register game for dispute if not already done\n        _registerGameForDispute();\n\n        // If dispute system is active, check that we can claim\n        if (address(disputeDAO) != address(0)) {\n            if (!canClaimPrize()) revert CannotClaimYet();\n\n            uint256 disputeId = disputeDAO.gameToDispute(gameId);\n            if (disputeId != 0) {\n                try disputeDAO.closeChallengeWindow(gameId) {} catch {}\n            }\n        }\n\n        // Release bonds if bonding was used\n        _releaseBonds();\n\n        // Keep reward calculation based on pre-update ratings.\n        _distributeRewards();\n        _reportRating();\n\n        prizeClaimed = true;\n        uint256 totalPrize = address(this).balance;\n\n        (bool success, ) = payable(msg.sender).call{value: totalPrize}(\"\");\n        if (!success) revert TransferFailed();\n        emit PrizeClaimed(msg.sender, totalPrize);\n    }\n\n    function resign() external {\n        if (msg.sender != whitePlayer && msg.sender != blackPlayer) revert NotAPlayer();\n        if (gameState != GameState.InProgress) revert GameNotInProgress();\n\n        wasResign = true;  // Track for reward penalty\n\n        address winner;\n        if (msg.sender == whitePlayer) {\n            gameState = GameState.BlackWins;\n            winner = blackPlayer;\n        } else {\n            gameState = GameState.WhiteWins;\n            winner = whitePlayer;\n        }\n\n        // Register for dispute system and distribute rewards\n        _registerGameForDispute();\n\n        emit PlayerResigned(msg.sender, winner);\n        emit GameStateChanged(gameState);\n    }\n\n    /// @notice Offer a draw to the opponent\n    function offerDraw() external {\n        if (msg.sender != whitePlayer && msg.sender != blackPlayer) revert NotAPlayer();\n        if (gameState != GameState.InProgress || drawOfferedBy != address(0)) revert GameNotInProgress();\n        drawOfferedBy = msg.sender;\n        emit DrawOffered(msg.sender);\n    }\n\n    /// @notice Accept a draw offer from the opponent\n    function acceptDraw() external {\n        if (msg.sender != whitePlayer && msg.sender != blackPlayer) revert NotAPlayer();\n        if (drawOfferedBy == address(0) || drawOfferedBy == msg.sender) revert NoDrawOffer();\n        gameState = GameState.Draw;\n        drawOfferedBy = address(0);\n\n        // Register for dispute system and distribute rewards\n        _registerGameForDispute();\n\n        emit DrawAccepted();\n        emit GameStateChanged(GameState.Draw);\n    }\n\n    /// @notice Decline a draw offer\n    function declineDraw() external {\n        if (msg.sender != whitePlayer && msg.sender != blackPlayer) revert NotAPlayer();\n        if (drawOfferedBy == address(0) || drawOfferedBy == msg.sender) revert NoDrawOffer();\n        address offerer = drawOfferedBy;\n        drawOfferedBy = address(0);\n        emit DrawOfferDeclined(offerer);\n    }\n\n    /// @notice Cancel your own draw offer\n    function cancelDrawOffer() external {\n        if (drawOfferedBy != msg.sender) revert NoDrawOffer();\n        drawOfferedBy = address(0);\n        emit DrawOfferDeclined(msg.sender);\n    }\n\n    /// @notice Get current draw offer status\n    function getDrawOfferStatus() external view returns (address) {\n        return drawOfferedBy;\n    }\n\n    /// @notice Claim draw by threefold repetition\n    /// @dev Can be called by either player when position has occurred 3+ times\n    function claimDrawByRepetition() external {\n        if (msg.sender != whitePlayer && msg.sender != blackPlayer) revert NotAPlayer();\n        if (gameState != GameState.InProgress) revert GameNotInProgress();\n\n        // Check current position count\n        bool isWhiteTurn = (currentPlayer == whitePlayer);\n        bytes32 posHash = _computePositionHash(isWhiteTurn);\n        if (positionCount[posHash] < 3) revert PositionNotRepeated();\n\n        gameState = GameState.Draw;\n        _registerGameForDispute();\n\n        emit DrawByRepetition(msg.sender);\n        emit GameStateChanged(GameState.Draw);\n    }\n\n    /// @notice Claim draw by 50-move rule\n    /// @dev Can be called by either player when 50 moves have passed without pawn move or capture\n    function claimDrawByFiftyMoveRule() external {\n        if (msg.sender != whitePlayer && msg.sender != blackPlayer) revert NotAPlayer();\n        if (gameState != GameState.InProgress) revert GameNotInProgress();\n        if (halfMoveClock < 100) revert FiftyMoveRuleNotReached(); // 100 half-moves = 50 full moves\n\n        gameState = GameState.Draw;\n        _registerGameForDispute();\n\n        emit DrawByFiftyMoveRule(msg.sender);\n        emit GameStateChanged(GameState.Draw);\n    }\n\n    /// @notice Claim victory when opponent has not moved within timeout period\n    function claimVictoryByTimeout() external {\n        if (msg.sender != whitePlayer && msg.sender != blackPlayer) revert NotAPlayer();\n        if (gameState != GameState.InProgress) revert GameNotInProgress();\n        if (msg.sender == currentPlayer) revert NotYourTurn();\n\n        // Check if current player (opponent) has exceeded their time\n        uint256 opponentLastMove = (currentPlayer == whitePlayer)\n            ? whiteLastMoveBlock\n            : blackLastMoveBlock;\n\n        if (block.number < opponentLastMove + timeoutBlocks) revert NotTimedOut();\n\n        wasTimeout = true;  // Track for reward penalty (loser timed out)\n\n        address winner = msg.sender;\n        address loser = currentPlayer;\n\n        if (msg.sender == whitePlayer) {\n            gameState = GameState.WhiteWins;\n        } else {\n            gameState = GameState.BlackWins;\n        }\n\n        // Register for dispute system and distribute rewards\n        _registerGameForDispute();\n\n        emit GameTimeout(winner, loser);\n        emit GameStateChanged(gameState);\n    }\n\n    function _getCastlingFlags() private view returns (uint8 flags) {\n        if (whiteKingMoved) flags |= 1 << 0;\n        if (whiteShortRookMoved) flags |= 1 << 1;\n        if (whiteLongRookMoved) flags |= 1 << 2;\n        if (blackKingMoved) flags |= 1 << 3;\n        if (blackLongRookMoved) flags |= 1 << 4;\n        if (blackShortRookMoved) flags |= 1 << 5;\n    }\n\n    /// @notice Validates move and updates rook moved flags when rook moves\n    function isValidMove(uint8 startX, uint8 startY, uint8 endX, uint8 endY) private returns (bool) {\n        if (!rulesEngine.isValidMoveView(board, enPassantCol, enPassantRow, _getCastlingFlags(), startX, startY, endX, endY)) {\n            return false;\n        }\n\n        int8 piece = board[startX][startY];\n        if (abs(piece) == uint8(ROOK)) {\n            if (startX == ROW_WHITE_PIECES && startY == COL_SHORTW_LONGB_ROOK && !whiteShortRookMoved) {\n                whiteShortRookMoved = true;\n            } else if (startX == ROW_WHITE_PIECES && startY == COL_LONGW_SHORTB_ROOK && !whiteLongRookMoved) {\n                whiteLongRookMoved = true;\n            } else if (startX == ROW_BLACK_PIECES && startY == COL_LONGW_SHORTB_ROOK && !blackLongRookMoved) {\n                blackLongRookMoved = true;\n            } else if (startX == ROW_BLACK_PIECES && startY == COL_SHORTW_LONGB_ROOK && !blackShortRookMoved) {\n                blackShortRookMoved = true;\n            }\n        }\n\n        return true;\n    }\n\n    modifier onlyCurrentPlayer() {\n        if (msg.sender != currentPlayer) revert NotYourTurn();\n        _;\n    }\n\n    modifier onlyOwnPieces(uint8 startX, uint8 startY){\n        int8 playerColor = 1;\n        if (currentPlayer == blackPlayer){\n            playerColor *= PLAYER_BLACK;\n        }\n        if (board[startX][startY] * playerColor <= 0) revert InvalidMove();\n        _;\n    }\n\n    // Wrapper for backward compatibility - promotes to Queen by default\n    function makeMove(uint8 startX, uint8 startY, uint8 endX, uint8 endY) public {\n        makeMoveWithPromotion(startX, startY, endX, endY, QUEEN);\n    }\n\n    // Main move function with promotion support\n    function makeMoveWithPromotion(\n        uint8 startX,\n        uint8 startY,\n        uint8 endX,\n        uint8 endY,\n        int8 promotionPiece\n    ) public onlyCurrentPlayer onlyOwnPieces(startX, startY) {\n        // Bounds checking for coordinates\n        if (startX >= BOARD_SIZE || startY >= BOARD_SIZE || endX >= BOARD_SIZE || endY >= BOARD_SIZE) {\n            revert InvalidCoordinates();\n        }\n\n        if (gameState != GameState.InProgress) revert GameNotInProgress();\n\n        // Making a move automatically declines any pending draw offer\n        if (drawOfferedBy != address(0)) {\n            drawOfferedBy = address(0);\n        }\n\n        // Check if the move is valid for this piece type\n        if (!isValidMove(startX, startY, endX, endY)) revert InvalidMove();\n\n        // Check that this move doesn't leave our own king in check\n        bool leavesKingInCheck = rulesEngine.wouldMoveLeaveKingInCheck(\n            board,\n            whiteKingRow,\n            whiteKingCol,\n            blackKingRow,\n            blackKingCol,\n            startX,\n            startY,\n            endX,\n            endY\n        );\n        if (gameMode == GameMode.Friendly) {\n            // Friendly mode: reject illegal moves (protect player from mistakes)\n            if (leavesKingInCheck) revert InvalidMove();\n        }\n\n        // Store the piece being moved before clearing the start position\n        int8 movingPiece = board[startX][startY];\n        int8 targetPiece = board[endX][endY];\n\n        // Make the move\n        board[endX][endY] = movingPiece;\n        board[startX][startY] = EMPTY;\n\n        // Update cached king position if king was moved\n        if (abs(movingPiece) == uint8(KING)) {\n            if (movingPiece == KING) {\n                whiteKingRow = endX;\n                whiteKingCol = endY;\n            } else {\n                blackKingRow = endX;\n                blackKingCol = endY;\n            }\n        }\n\n        // Track if this move sets up en passant for the opponent\n        bool isDoublePawnMove = false;\n\n        // Handle pawn-specific logic\n        if (abs(movingPiece) == uint8(PAWN)) {\n            // Check for en passant capture (diagonal move to empty square)\n            if (abs(int8(endY) - int8(startY)) == 1 && targetPiece == EMPTY) {\n                // This is an en passant capture - remove the captured pawn\n                if (movingPiece == PAWN && enPassantCol == int8(endY) && startX == ROW_BLACK_PAWNS_LONG_OPENING) {\n                    // White captures black pawn en passant (white is on row 3)\n                    board[startX][endY] = EMPTY; // Remove the black pawn\n                } else if (movingPiece == -PAWN && enPassantCol == int8(endY) && startX == ROW_WHITE_PAWNS_LONG_OPENING) {\n                    // Black captures white pawn en passant (black is on row 4)\n                    board[startX][endY] = EMPTY; // Remove the white pawn\n                }\n            }\n\n            // Check for double pawn move (sets up en passant for opponent)\n            if (movingPiece == PAWN && startX == ROW_WHITE_PAWNS && endX == ROW_WHITE_PAWNS_LONG_OPENING) {\n                // White pawn double move\n                isDoublePawnMove = true;\n                enPassantCol = int8(endY);\n                enPassantRow = endX; // Row 4\n            } else if (movingPiece == -PAWN && startX == ROW_BLACK_PAWNS && endX == ROW_BLACK_PAWNS_LONG_OPENING) {\n                // Black pawn double move\n                isDoublePawnMove = true;\n                enPassantCol = int8(endY);\n                enPassantRow = endX; // Row 3\n            }\n\n            // Handle pawn promotion\n            bool isWhitePawnPromoting = (movingPiece == PAWN && endX == ROW_BLACK_PIECES);\n            bool isBlackPawnPromoting = (movingPiece == -PAWN && endX == ROW_WHITE_PIECES);\n\n            if (isWhitePawnPromoting || isBlackPawnPromoting) {\n                // Validate promotion piece (must be Queen, Rook, Bishop, or Knight)\n                if (\n                    promotionPiece != QUEEN &&\n                    promotionPiece != ROOK &&\n                    promotionPiece != BISHOP &&\n                    promotionPiece != KNIGHT\n                ) revert InvalidPromotionPiece();\n\n                // Apply the correct sign based on player color\n                if (isWhitePawnPromoting) {\n                    board[endX][endY] = promotionPiece; // White piece (positive)\n                } else {\n                    board[endX][endY] = -promotionPiece; // Black piece (negative)\n                }\n            }\n        }\n\n        // Reset en passant if this was not a double pawn move\n        if (!isDoublePawnMove) {\n            enPassantCol = -1;\n        }\n\n        // Track king moves (any king move prevents future castling)\n        if (uint8(KING) == abs(movingPiece)) {\n            if (currentPlayer == whitePlayer) {\n                whiteKingMoved = true;\n            } else {\n                blackKingMoved = true;\n            }\n\n            // Handle castling (king moves 2 squares horizontally)\n            if (abs(int8(endY) - int8(startY)) == 2) {\n                // Move the rook during castling\n                if (endY == COL_KNIGHT) {\n                    // Kingside castling - rook h1/h8 moves to f1/f8\n                    board[startX][COL_UNNAMED_BISHOP] = board[startX][COL_LONGW_SHORTB_ROOK];\n                    board[startX][COL_LONGW_SHORTB_ROOK] = EMPTY;\n                } else if (endY == COL_BISHOP) {\n                    // Queenside castling - rook a1/a8 moves to d1/d8\n                    board[startX][COL_QUEEN] = board[startX][COL_SHORTW_LONGB_ROOK];\n                    board[startX][COL_SHORTW_LONGB_ROOK] = EMPTY;\n                }\n            }\n        }\n\n        // Handle game state updates and emit events\n        _handleMoveResult(\n            startX, startY, endX, endY,\n            movingPiece, targetPiece, promotionPiece,\n            leavesKingInCheck\n        );\n\n        // Update opponent's clock (they now need to move)\n        // currentPlayer is still the player who just moved\n        if (currentPlayer == whitePlayer) {\n            blackLastMoveBlock = uint48(block.number);\n        } else {\n            whiteLastMoveBlock = uint48(block.number);\n        }\n\n        // Update 50-move rule counter\n        // Reset if pawn moved or capture occurred, otherwise increment\n        bool isPawnMove = (abs(movingPiece) == uint8(PAWN));\n        bool isCapture = (targetPiece != EMPTY) ||\n                         (isPawnMove && abs(int8(endY) - int8(startY)) == 1 && targetPiece == EMPTY); // en passant\n\n        if (isPawnMove || isCapture) {\n            halfMoveClock = 0;\n        } else {\n            halfMoveClock++;\n        }\n        plyCount++;\n\n        // FIDE 75-move rule: automatic draw after 75 full moves without progress\n        // This prevents unbounded game length and positionHistory growth\n        if (halfMoveClock >= MAX_HALF_MOVES_WITHOUT_PROGRESS) {\n            gameState = GameState.Draw;\n            _registerGameForDispute();\n            emit GameStateChanged(gameState);\n            return; // Exit early - game over\n        }\n\n        switchTurn();\n\n        // Track position for threefold repetition (after turn switch)\n        // Only track if game is still in progress\n        if (gameState == GameState.InProgress) {\n            bool isWhiteTurn = (currentPlayer == whitePlayer);\n            bytes32 posHash = _computePositionHash(isWhiteTurn);\n\n            if (positionCount[posHash] == 0) {\n                positionHistory.push(posHash);\n            }\n            positionCount[posHash]++;\n\n            // Update cached max repetitions (avoids O(n) loop in getDrawRuleStatus)\n            if (positionCount[posHash] > maxPositionRepetitions) {\n                maxPositionRepetitions = positionCount[posHash];\n            }\n        }\n    }\n\n    /// @notice Handle move result: check/mate detection, events, and dispute registration\n    function _handleMoveResult(\n        uint8 startX, uint8 startY, uint8 endX, uint8 endY,\n        int8 movingPiece, int8 targetPiece, int8 promotionPiece,\n        bool leavesKingInCheck\n    ) internal {\n        // Detect special moves\n        bool isCastling = (abs(movingPiece) == uint8(KING)) && (abs(int8(endY) - int8(startY)) == 2);\n        bool isEnPassant = (abs(movingPiece) == uint8(PAWN)) &&\n                           (abs(int8(endY) - int8(startY)) == 1) &&\n                           (targetPiece == EMPTY);\n        int8 actualCaptured = isEnPassant ? (movingPiece > 0 ? -PAWN : PAWN) : targetPiece;\n\n        // Check/checkmate detection\n        (bool isCheck, bool isMate, GameState newState) = _detectCheckMate(endX, endY, leavesKingInCheck);\n        GameState previousState = gameState;\n        gameState = newState;\n\n        // Track checkmate for reward bonus\n        if (isMate) {\n            wasCheckmate = true;\n        }\n\n        // Emit structured event\n        emit MoveMade(currentPlayer, startX, startY, endX, endY, movingPiece, actualCaptured,\n                      promotionPiece, isCheck, isMate, isCastling, isEnPassant);\n\n        // Emit game state change and register dispute if game ended\n        if (gameState != previousState) {\n            emit GameStateChanged(gameState);\n            if (gameState == GameState.WhiteWins || gameState == GameState.BlackWins || gameState == GameState.Draw) {\n                _registerGameForDispute();\n            }\n        }\n    }\n\n    /// @notice Detect check/checkmate state after a move\n    function _detectCheckMate(uint8 endX, uint8 endY, bool leavesKingInCheck) internal view returns (bool isCheck, bool isMate, GameState newState) {\n        uint8 stateValue;\n        (isCheck, isMate, stateValue) = rulesEngine.detectCheckState(\n            board,\n            currentPlayer == whitePlayer,\n            gameMode == GameMode.Tournament,\n            leavesKingInCheck,\n            whiteKingRow,\n            whiteKingCol,\n            blackKingRow,\n            blackKingCol,\n            enPassantCol,\n            enPassantRow,\n            _getCastlingFlags(),\n            endX,\n            endY\n        );\n        newState = GameState(stateValue);\n    }\n\n    function getPlayers() external view returns (address, address) {\n        return (whitePlayer, blackPlayer);\n    }\n\n    /// @notice Setup function for custom board positions (Friendly mode only)\n    /// @dev Only callable in Friendly mode, by white player, before game starts\n    /// @dev This allows creative chess variants but is disabled in Tournament mode\n    function debugCreative(uint8 x, uint8 y, int8 piece) external returns (string memory) {\n        if (gameMode != GameMode.Friendly) revert FriendlyOnly();\n        if (msg.sender != whitePlayer) revert OnlyWhitePlayer();\n        if (gameState != GameState.NotStarted) revert GameAlreadyStarted();\n        if (x >= BOARD_SIZE || y >= BOARD_SIZE) revert InvalidCoordinates();\n\n        board[x][y] = piece;\n        // Update king position cache if placing a king\n        if (piece == KING) {\n            whiteKingRow = x;\n            whiteKingCol = y;\n        } else if (piece == -KING) {\n            blackKingRow = x;\n            blackKingCol = y;\n        }\n        return \"\";\n    }\n\n    function canCancelUnjoinedGame(address caller) external view returns (bool) {\n        return (\n            caller == whitePlayer &&\n            !cancelled &&\n            blackPlayer == address(0) &&\n            gameState == GameState.NotStarted &&\n            block.timestamp >= createdAt + CANCEL_UNJOINED_TIMEOUT\n        );\n    }\n\n    function getCancelUnjoinedRemaining() external view returns (uint256) {\n        if (cancelled || blackPlayer != address(0) || gameState != GameState.NotStarted) {\n            return 0;\n        }\n\n        uint256 deadline = createdAt + CANCEL_UNJOINED_TIMEOUT;\n        if (block.timestamp >= deadline) {\n            return 0;\n        }\n\n        return deadline - block.timestamp;\n    }\n\n    function cancelUnjoinedGame() external nonReentrant {\n        if (msg.sender != whitePlayer) revert OnlyWhitePlayer();\n        if (cancelled) revert CancelledGame();\n        if (blackPlayer != address(0) || gameState != GameState.NotStarted) revert GameAlreadyStarted();\n        if (block.timestamp < createdAt + CANCEL_UNJOINED_TIMEOUT) revert CancelTimeoutNotReached();\n\n        cancelled = true;\n        prizeClaimed = true;\n        currentPlayer = address(0);\n        drawOfferedBy = address(0);\n\n        uint256 refundAmount = address(this).balance;\n        if (refundAmount > 0) {\n            (bool success, ) = payable(whitePlayer).call{value: refundAmount}(\"\");\n            if (!success) {\n                pendingPrize[whitePlayer] = refundAmount;\n            }\n        }\n\n        emit GameCancelled(msg.sender, refundAmount);\n    }\n\n    function getGameState () external view returns (uint8) {\n        if (cancelled) return 6;\n        if (gameState == GameState.NotStarted) return 1;\n        if (gameState == GameState.InProgress) return 2;\n        if (gameState == GameState.Draw) return 3;\n        if (gameState == GameState.WhiteWins) return 4;\n        if (gameState == GameState.BlackWins) return 5;\n\n        return 0;\n    }\n\n    /// @notice Get timeout status for both players\n    /// @return whiteBlocksRemaining Blocks remaining before white times out (0 if not their turn)\n    /// @return blackBlocksRemaining Blocks remaining before black times out (0 if not their turn)\n    /// @return currentPlayerIsWhite True if it's white's turn\n    function getTimeoutStatus() external view returns (\n        uint256 whiteBlocksRemaining,\n        uint256 blackBlocksRemaining,\n        bool currentPlayerIsWhite\n    ) {\n        currentPlayerIsWhite = (currentPlayer == whitePlayer);\n\n        if (gameState != GameState.InProgress) {\n            return (0, 0, currentPlayerIsWhite);\n        }\n\n        if (currentPlayerIsWhite) {\n            uint256 elapsed = block.number - whiteLastMoveBlock;\n            whiteBlocksRemaining = elapsed >= timeoutBlocks ? 0 : timeoutBlocks - elapsed;\n            blackBlocksRemaining = 0;\n        } else {\n            uint256 elapsed = block.number - blackLastMoveBlock;\n            blackBlocksRemaining = elapsed >= timeoutBlocks ? 0 : timeoutBlocks - elapsed;\n            whiteBlocksRemaining = 0;\n        }\n    }\n}\n",
  "sourcePath": "/Users/jacopo/Documents/development/chessgame/ethereum/contracts/Chess/ChessCore.sol",
  "compiler": {
    "name": "solc",
    "version": "0.8.24+commit.e11b9ed9.Emscripten.clang"
  },
  "schemaVersion": "3.4.16",
  "updatedAt": "2026-03-15T16:05:23.385Z",
  "devdoc": {
    "errors": {
      "ReentrancyGuardReentrantCall()": [
        {
          "details": "Unauthorized reentrant call."
        }
      ]
    },
    "kind": "dev",
    "methods": {
      "claimDrawByFiftyMoveRule()": {
        "details": "Can be called by either player when 50 moves have passed without pawn move or capture"
      },
      "claimDrawByRepetition()": {
        "details": "Can be called by either player when position has occurred 3+ times"
      },
      "claimPrize()": {
        "details": "Only works for winner in win scenarios, not for draws"
      },
      "debugCreative(uint8,uint8,int8)": {
        "details": "Only callable in Friendly mode, by white player, before game startsThis allows creative chess variants but is disabled in Tournament mode"
      },
      "finalizePrizes()": {
        "details": "Uses pull pattern to prevent locked funds if one player's address reverts"
      },
      "getBoardState()": {
        "returns": {
          "_0": "The complete 8x8 board array"
        }
      },
      "getDrawRuleStatus()": {
        "returns": {
          "halfMoves": "Current half-move clock (50-move rule)",
          "maxRepetitions": "Maximum times any position has occurred"
        }
      },
      "getTimeoutStatus()": {
        "returns": {
          "blackBlocksRemaining": "Blocks remaining before black times out (0 if not their turn)",
          "currentPlayerIsWhite": "True if it's white's turn",
          "whiteBlocksRemaining": "Blocks remaining before white times out (0 if not their turn)"
        }
      },
      "initialize(address,uint256,uint8,uint8,uint256,address,address,address,address)": {
        "params": {
          "_bondingManager": "BondingManager contract address",
          "_disputeDAO": "DisputeDAO contract address",
          "_gameId": "Unique game identifier",
          "_mode": "Game mode (Tournament/Friendly)",
          "_playerRating": "PlayerRating contract address",
          "_preset": "Timeout preset (Finney/Buterin/Nakamoto)",
          "_rewardPool": "RewardPool contract address",
          "_value": "Bet amount in wei",
          "_whitePlayer": "Address of white player"
        }
      },
      "withdrawPrize()": {
        "details": "Each player calls this to withdraw their prize after finalizePrizes()"
      }
    },
    "title": "ChessCore - Main chess game logic",
    "version": 1
  },
  "userdoc": {
    "kind": "user",
    "methods": {
      "acceptDraw()": {
        "notice": "Accept a draw offer from the opponent"
      },
      "canClaimPrize()": {
        "notice": "Check if the challenge window has passed and no dispute is active"
      },
      "cancelDrawOffer()": {
        "notice": "Cancel your own draw offer"
      },
      "claimDrawByFiftyMoveRule()": {
        "notice": "Claim draw by 50-move rule"
      },
      "claimDrawByRepetition()": {
        "notice": "Claim draw by threefold repetition"
      },
      "claimPrize()": {
        "notice": "Legacy function for backward compatibility - finalizes and withdraws in one call"
      },
      "claimVictoryByTimeout()": {
        "notice": "Claim victory when opponent has not moved within timeout period"
      },
      "constructor": {
        "notice": "Empty constructor for implementation contract"
      },
      "debugCreative(uint8,uint8,int8)": {
        "notice": "Setup function for custom board positions (Friendly mode only)"
      },
      "declineDraw()": {
        "notice": "Decline a draw offer"
      },
      "finalizePrizes()": {
        "notice": "Finalize game and allocate prizes (must be called before withdrawPrize)"
      },
      "getBoardState()": {
        "notice": "Get entire board state in a single call (saves 63 RPC calls)"
      },
      "getDrawOfferStatus()": {
        "notice": "Get current draw offer status"
      },
      "getDrawRuleStatus()": {
        "notice": "Get draw rule status"
      },
      "getTimeoutStatus()": {
        "notice": "Get timeout status for both players"
      },
      "initialize(address,uint256,uint8,uint8,uint256,address,address,address,address)": {
        "notice": "Initialize the game (called by factory on clones)"
      },
      "offerDraw()": {
        "notice": "Offer a draw to the opponent"
      },
      "printBoard()": {
        "notice": "Print board as string (deprecated - use getBoardState)"
      },
      "printChessBoardLayoutSVG()": {
        "notice": "Get SVG representation of the board"
      },
      "withdrawPrize()": {
        "notice": "Withdraw allocated prize (pull pattern)"
      }
    },
    "notice": "Inherits from ChessBoard and implements move validation and game state",
    "version": 1
  }
}