{
  "contractName": "ChessFactory",
  "abi": [
    {
      "inputs": [],
      "stateMutability": "nonpayable",
      "type": "constructor"
    },
    {
      "anonymous": false,
      "inputs": [
        {
          "indexed": true,
          "internalType": "uint256",
          "name": "gameId",
          "type": "uint256"
        },
        {
          "indexed": true,
          "internalType": "address",
          "name": "gameAddress",
          "type": "address"
        },
        {
          "indexed": true,
          "internalType": "address",
          "name": "whitePlayer",
          "type": "address"
        },
        {
          "indexed": false,
          "internalType": "uint256",
          "name": "betAmount",
          "type": "uint256"
        },
        {
          "indexed": false,
          "internalType": "enum ChessCore.TimeoutPreset",
          "name": "timeoutPreset",
          "type": "uint8"
        },
        {
          "indexed": false,
          "internalType": "enum ChessCore.GameMode",
          "name": "gameMode",
          "type": "uint8"
        }
      ],
      "name": "GameCreated",
      "type": "event"
    },
    {
      "inputs": [],
      "name": "MAX_BET",
      "outputs": [
        {
          "internalType": "uint256",
          "name": "",
          "type": "uint256"
        }
      ],
      "stateMutability": "view",
      "type": "function",
      "constant": true
    },
    {
      "inputs": [],
      "name": "MIN_BET",
      "outputs": [
        {
          "internalType": "uint256",
          "name": "",
          "type": "uint256"
        }
      ],
      "stateMutability": "view",
      "type": "function",
      "constant": true
    },
    {
      "inputs": [],
      "name": "addressNFT",
      "outputs": [
        {
          "internalType": "address",
          "name": "",
          "type": "address"
        }
      ],
      "stateMutability": "view",
      "type": "function",
      "constant": true
    },
    {
      "inputs": [
        {
          "internalType": "uint256",
          "name": "",
          "type": "uint256"
        }
      ],
      "name": "deployedChessGames",
      "outputs": [
        {
          "internalType": "address",
          "name": "",
          "type": "address"
        }
      ],
      "stateMutability": "view",
      "type": "function",
      "constant": true
    },
    {
      "inputs": [],
      "name": "totalChessGames",
      "outputs": [
        {
          "internalType": "uint256",
          "name": "",
          "type": "uint256"
        }
      ],
      "stateMutability": "view",
      "type": "function",
      "constant": true
    },
    {
      "inputs": [
        {
          "internalType": "enum ChessCore.TimeoutPreset",
          "name": "_timeoutPreset",
          "type": "uint8"
        },
        {
          "internalType": "enum ChessCore.GameMode",
          "name": "_gameMode",
          "type": "uint8"
        }
      ],
      "name": "createChessGame",
      "outputs": [
        {
          "internalType": "address",
          "name": "",
          "type": "address"
        }
      ],
      "stateMutability": "payable",
      "type": "function",
      "payable": true
    },
    {
      "inputs": [],
      "name": "getDeployedChessGames",
      "outputs": [
        {
          "internalType": "address[]",
          "name": "",
          "type": "address[]"
        }
      ],
      "stateMutability": "view",
      "type": "function",
      "constant": true
    }
  ],
  "bytecode": "0x60808060405234610089576116d9818101906001600160401b03821183831017610075576020918391615dad83393381520301905ff0801561006a57600180546001600160a01b0319166001600160a01b0392909216919091179055604051615d1f908161008e8239f35b6040513d5f823e3d90fd5b634e487b7160e01b5f52604160045260245ffd5b5f80fdfe608060408181526004918236101562000016575f80fd5b5f92833560e01c9182632cf1becd1462000231575081632e4ccf72146200020657816364fffe6914620001305781636540742f146200010c5781637e95b52314620000e6578163a4b7bbde146200009a575063c6b68eef1462000077575f80fd5b3462000096578160031936011262000096576020906002549051908152f35b5080fd5b905034620000e2576020366003190112620000e25735918054831015620000df5750620000c960209262000442565b905491519160018060a01b039160031b1c168152f35b80fd5b8280fd5b50503462000096578160031936011262000096576020905168056bc75e2d631000008152f35b50503462000096578160031936011262000096576020905166038d7ea4c680008152f35b828434620000df5780600319360112620000df57815180918054938483526020809301809583805284842090845b86828210620001e85750505050849003601f01601f19168401956001600160401b03871185881017620001d5575085815282865292518583018190528594938501939290915b828110620001b457505050500390f35b83516001600160a01b031685528695509381019392810192600101620001a4565b634e487b7160e01b835260419052602482fd5b83546001600160a01b0316855290930192600192830192016200015e565b505034620000965781600319360112620000965760015490516001600160a01b039091168152602090f35b90928092506003193601126200043e5782359060038210156200043a576024908135916002831015620004365766038d7ea4c680003410620004365768056bc75e2d63100000341162000436576001600160401b039161584a818101908482118383101762000424576080918391620004a08339338152346020820152620002bc898201896200046f565b620002cb606082018862000491565b03019034f0968715620004195780546001600160a01b039889169790600160401b8110156200040857806001620003059201845562000442565b81549060031b908b8b831b921b1916179055600254985f198a14620003f75760018a016002556001541693843b15620000e257828960648c838c51998a9485936346676cd360e11b8552898501528a8401523360448401525af18015620003ed57620003c2575b6020898989828e620003968c6200038c865195348752898701906200046f565b8585019062000491565b7f9c8d7736756ff0354a8d44bbc2cd052aca0b2ebfa014ee3ecb3c3a1b8b5cc22c60603394a451908152f35b8411620003dd57505050835284620003968560205f6200036c565b634e487b7160e01b825260419052fd5b88513d85823e3d90fd5b50634e487b7160e01b825260119052fd5b50634e487b7160e01b825260419052fd5b8551903d90823e3d90fd5b634e487b7160e01b8a5260418952838afd5b8680fd5b8480fd5b8380fd5b905f9182548110156200045b5782805260208320019190565b634e487b7160e01b83526032600452602483fd5b9060038210156200047d5752565b634e487b7160e01b5f52602160045260245ffd5b9060028210156200047d575256fe610160601f6200584a38819003918201601f19168301916001600160401b038311848410176200051457808492608094604052833981010312620005105780516001600160a01b0381168103620005105760208201516040830151926003841015620005105760600151600281101562000510575f6080819052600160a0819052600260c052600360e0526004610100526005610120526006610140526008805460ff60301b191666ff000000000000179055600955600f805461ff001916905580546001600160401b03191667fcfefdfafbfdfefc1781555b600860ff821610620004c057506101005160075466ff00000000000060c0519165ff000000000060e0519164ff000000006101205163ff000000610140519360ff8a60381b67ff00000000000000169a169060018060401b0319161761ff008960081b161762ff00008760101b16179160181b16179160201b16179160281b16179160301b1617176007555f5b600860ff821610620004765750600880546bffffffff0000ffffffffffff19166b040004070000000000000000179055600f8054601180546001600160a01b0319166001600160a01b038716179055600a9390935561ff01600160b01b031990921660109390931b62010000600160b01b03169290921760ff929092169190911790558062000456575061012c600e555b6040516152f790816200055382396080518181816105ac01528181610a2f01528181610b1801528181610b7f01528181610f83015281816118f7015281816119d601528181611a4501528181611db101528181612f15015281816131e1015281816137c001528181613c3d01528181613efd01528181613fc60152818161405f0152818161446b0152818161456701528181614b5701528181614c8c01528181614d8c0152614ffd015260a051818181610616015281816106b70152818161070501528181610a0401528181610c0201528181610c7101528181610e0401528181610ea301528181610ef30152818161154b015281816115ac015281816115fa015281816118cc01528181611ac901528181611b3501528181611c1e01528181611cbd01528181611d2101528181612cbd01528181613227015281816136af0152818161380c015281816138bd01526147f6015260c051818181610d5301528181612ceb01528181613268015281816148200152614ee8015260e051818181610d8201528181612da7015281816132a60152614a30015261010051818181610db101528181612dda015281816132e4015281816134230152818161351601528181613d4e0152614a60015261012051818181610cb70152818161174701528181611b9101528181611bc501528181612e0e015281816133220152614a900152610140518181816105df015281816106540152818161067f01528181610fad0152818161150e0152818161226f01528181612b0e01528181612d1801528181613360015281816133c3015281816135cb01528181614849015261507a0152f35b6001036200046a57610834600e55620001f7565b61c4e0600e55620001f7565b60a0515f0b906008811015620004ac57620004a0620004a692601f83168360051c60060162000528565b62000540565b62000166565b634e487b7160e01b5f52603260045260245ffd5b60a0515f0b90607f198214620004fc576008811015620004ac57620004a0620004f6925f03601f83168360051c60010162000528565b620000d9565b634e487b7160e01b5f52601160045260245ffd5b5f80fd5b634e487b7160e01b5f52604160045260245ffd5b919060ff83549160031b928116831b921b1916179055565b60ff1660ff8114620004fc576001019056fe60c080604052600436101561004a575b50361561001a575f80fd5b60ff600f5460081c1660058110156100365761003257005b5f80fd5b634e487b7160e01b5f52602160045260245ffd5b5f90813560e01c908163085791b6146124fb575080632420f7f0146123cf5780632ebe14b0146123b157806338b572ef1461218f57806339b4b0d6146123935780634404a4381461236a57806346c1d9b41461233a578063538a93ed146121e457806358090c4a146121b85780636873d9841461218f57806369652fcf146120c35780636ea1b3e5146120a657806370740ac914611e8d5780637bed3d1c146113aa5780638086a92a1461136257806384f529411461131c5780638b5b9ccc146112e85780638d85c9451461122e57806394549865146111f35780639bf55dab146110d05780639c2a094f14610433578063b31542b514610415578063b7d0628b146103ef578063d7a8e60e146103d1578063e91401d414610356578063ee545d4f1461028c578063f2e1bc5d1461026f578063f4d6fa4d146101b05763f4f3756d0361000f57346101ad57806003193601126101ad57602060405161c4e08152f35b80fd5b50346101ad57806003193601126101ad57600f546001600160a01b039033601082901c8316148015610262575b1561025e5760081c60ff16600581101561024a57600114908161023d575b50156101ad57601280546001600160a01b031916339081179091557f1f98adb5ace3488254376a3b468650078ab6c1f367638863cb967310df8a0a998280a280f35b905060125416155f6101fb565b634e487b7160e01b83526021600452602483fd5b8280fd5b50816010541633146101dd565b50346101ad57806003193601126101ad5760206040516108348152f35b50806003193601126101ad57600f5460ff8160081c16600581101561024a57610352576001600160a01b039033601082901c83161461025e57600a549081340361034e576010549083821661034a576101006020917fee0dca10a9957dad74da3fe318a3ccc561c46d96be0ab0b66e7aff32aab94cf393339060018060a01b0319161760105561ff001916179384600f5543600c55604051938452339460101c1692a35f80516020615242833981519152602060405160018152a180f35b8480fd5b8380fd5b5080fd5b50346101ad57806003193601126101ad5760018060a01b0380600f5460101c16331480156103c4575b156103525760125490811690811515806103ba575b1561025e576001600160a01b0319166012555f805160206152228339815191528280a280f35b5033821415610394565b508060105416331461037f565b50346101ad57806003193601126101ad576020600d54604051908152f35b50346101ad57806003193601126101ad57602061040a615138565b60ff60405191168152f35b50346101ad57806003193601126101ad576020600c54604051908152f35b50346101ad5760a03660031901126101ad5761044d612708565b610455612718565b9061045e612728565b91610467612738565b91608435850b6084350361034a576011546001600160a01b031633819003611045576010546001916001600160a01b03909116146110c8575b60088210156110b4576104c686916104b88585612748565b90549060031b1c830b6128b6565b810b131561034a57600860ff821610806110a7575b8061109a575b8061108d575b1561034a5760ff600f5460081c1660058110156110795760018114908115611070575b501561034a576012546001600160a01b03811661105d575b5061052f83858484613d0e565b1561034a5761054083858484612acb565b9260ff600f541660028110156110495760011461103e575b6105628383612748565b90549060031b1c860b600886101561102a5761057e8287612748565b90549060031b1c870b9161059c82610596838a612748565b90612913565b876105d16105aa8787612748565b7f000000000000000000000000000000000000000000000000000000000000000091612913565b6105da83612953565b60ff807f000000000000000000000000000000000000000000000000000000000000000016911614610fab575b8861061184612953565b60ff807f000000000000000000000000000000000000000000000000000000000000000016911614610bda575b15610bc2575b60ff61064f84612953565b1660ff7f00000000000000000000000000000000000000000000000000000000000000001614610aa4575b5060ff7f00000000000000000000000000000000000000000000000000000000000000001660ff6106aa84612953565b16149182610a81575b60ff7f00000000000000000000000000000000000000000000000000000000000000001660ff6106e283612953565b16149384610a59575b84610a2d575b8415610a28575088811315610a02576107297f0000000000000000000000000000000000000000000000000000000000000000612943565b89918a92600f5499600260ff8c1610156109ee57918c979593918997959360ff8d161590816109e6575b50156109615750601154600f54600195916001600160a01b0360109290921c8216911603610957576107856004612818565b60405190610792826127bf565b898252600160a01b60019003601154169d8e9c8d600f548060a052600160a01b600190039060101c16145f149c6101609c61082a5f805160206152a28339815191529f60ff805f8051602061528283398151915296819361094e57816001975b6040519889980b885216602087015216968760408601521696876060850152169687608084015260c060a084015260c08301906126e3565b0390a160ff6040519a168a5260208a01526040890152606088015260808701528b0b60a08601526084358b0b60c0860152151560e0850152151561010084015215156101208301521515610140820152a260ff8060a05160081c169160081c16600581101561093a57600582101561093a578103610913575b5060a05160101c6001600160a01b03160361090a5743600d555b601154600f5460101c6001600160a01b03908116908216810361090557506010546001600160a01b03165b6001600160a01b03166001600160a01b0319919091161760115580f35b6108e8565b43600c556108bd565b6109315f805160206152428339815191529160405191829182612838565b0390a15f6108a3565b634e487b7160e01b84526021600452602484fd5b815f19976107f2565b6107856003612818565b90939261096c612982565b1561099f57505061097d828c614269565b9283159283610995576109906003612818565b610785565b6109906001612818565b6109a7612a33565b156109cb5750506109b8828c61423c565b9283159283610995576109906004612818565b926109d7949194614111565b15610995576109906002612818565b90505f610753565b634e487b7160e01b8d52602160045260248dfd5b7f0000000000000000000000000000000000000000000000000000000000000000610729565b610729565b7f00000000000000000000000000000000000000000000000000000000000000008a0b811494506106f1565b9350600160ff610a79610a748983168d0b8684168e0b61292b565b612953565b1614936106eb565b9150600260ff610a9c610a748289168c0b8386168d0b61292b565b1614916106b3565b601154600f5460101c6001600160a01b03908116911603610baa57600160ff1960085416176008555b60ff8216600260ff610ae9610a748d85848d16820b910b61292b565b1614610af6575b5061067a565b60068103610b585750610b4457610b13845460381c890b856128df565b610b3d7f0000000000000000000000000000000000000000000000000000000000000000856128f9565b5f80610af0565b634e487b7160e01b88526032600452602488fd5b600214610b66575b50610b3d565b610b4457610b778454890b856128ca565b60ff198454167f000000000000000000000000000000000000000000000000000000000000000060ff161784555f610b60565b630100000063ff000000196008541617600855610acd565b6008805460ff60301b191660ff60301b179055610644565b600160ff610bf3610a748a83168e0b8784168f0b61292b565b161480610f80575b610ea0575b7f00000000000000000000000000000000000000000000000000000000000000008a0b8414908a8280610e93575b80610e86575b15610dfd576008805461ffff60301b1916603087901b60ff60301b161760388d901b60ff60381b161790556001929091505b80610df2575b610c957f0000000000000000000000000000000000000000000000000000000000000000612943565b820b861480610de5575b81908215610ddd575b50610cb5575b505061063e565b7f0000000000000000000000000000000000000000000000000000000000000000820b608435830b148015610dae575b8015610d7f575b8015610d50575b156103525715610d3257610d1e57610d17610d0e848b612748565b60843591612913565b895f610cae565b634e487b7160e01b8a52603260045260248afd5b50610d4b610d41608435612943565b610596858c612748565b610d17565b507f0000000000000000000000000000000000000000000000000000000000000000820b608435830b14610cf3565b507f0000000000000000000000000000000000000000000000000000000000000000820b608435830b14610cec565b507f0000000000000000000000000000000000000000000000000000000000000000820b608435830b14610ce5565b90505f610ca8565b50600760ff8c1614610c9f565b5060ff8a1615610c6c565b9091610e287f0000000000000000000000000000000000000000000000000000000000000000612943565b820b861480610e79575b80610e6c575b15610c66576008805461ffff60301b1916603087901b60ff60301b161760388d901b60ff60381b1617905560019250610c66565b50600360ff8c1614610e38565b50600160ff891614610e32565b50600460ff8c1614610c34565b50600660ff891614610c2e565b817f00000000000000000000000000000000000000000000000000000000000000008b0b851480610f6b575b80610f5e575b15610eed57610d1e57610ee86105aa8488612748565b610c00565b50610f177f0000000000000000000000000000000000000000000000000000000000000000612943565b8a0b841480610f49575b80610f3c575b15610c0057899150610ee86105aa8488612748565b50600460ff871614610f27565b5060ff83168a0b60085460301c8b0b14610f21565b50600360ff881614610ed2565b5060ff84168b0b60085460301c8c0b14610ecc565b507f00000000000000000000000000000000000000000000000000000000000000008a0b8514610bfb565b7f0000000000000000000000000000000000000000000000000000000000000000890b8303610fff576008805461ffff60401b191660408a901b60ff60401b1617604884901b60ff60481b16179055610607565b6008805461ffff60501b191660508a901b60ff60501b1617605884901b60ff60581b16179055610607565b634e487b7160e01b87526032600452602487fd5b8315610558575b8580fd5b634e487b7160e01b87526021600452602487fd5b6001600160a01b0319166012555f610522565b9050155f61050a565b634e487b7160e01b86526021600452602486fd5b50600860ff8416106104e7565b50600860ff8516106104e1565b50600860ff8316106104db565b634e487b7160e01b86526032600452602486fd5b505f196104a0565b50346101ad57806003193601126101ad57600f5460018060a01b03808260101c16803314918280156111e6575b1561034a5760ff8460081c1660058110156110795760010361034a57601154169081331461034a5781036111de57600c545b600e5481018091116111ca57431061034e577f5d90ddefa858c7e60b58274a3fca3108b94bb3cc1f596e26d0c69db70abef4b09261118a92156111b9575061030061ff0019600f541617600f555b6040519182913383612775565b0390a15f805160206152428339815191526111b360ff600f5460081c1660405191829182612838565b0390a180f35b61ff00191661040017600f5561117d565b634e487b7160e01b85526011600452602485fd5b600d5461112f565b50806010541633146110fd565b50346101ad57806003193601126101ad5760405161122a91611214826127bf565b81526040519182916020835260208301906126e3565b0390f35b50346101ad57806003193601126101ad57600f546001600160a01b039033601082901c83161480156112db575b1561025e5760125491821680151590816112d0575b501561025e5761ff00191661020017600f556001600160a01b0319166012556040515f80516020615242833981519152906020907fa98b7e4cecce3d6b2e0f80801552dd1350aec19a1cc2bbf0aa4806308cd87bb78480a160028152a180f35b90503314155f611270565b508160105416331461125b565b50346101ad57806003193601126101ad57600f5460018060a01b039061122a826010541660405193849360101c1683612775565b50346101ad57806003193601126101ad57601254336001600160a01b03821603610352576001600160a01b031916601255335f805160206152228339815191528280a280f35b50346101ad5760403660031901126101ad57602435600435600881101561025e57600882101561025e576020929161139991612748565b9190546040519260031b1c900b8152f35b50346101ad5760803660031901126101ad576113c4612708565b6113cc612718565b906113d5612728565b916113de612738565b6011549092906001600160a01b031633819003611045576010546001916001600160a01b0390911614611e85575b60088210156110b45761142486916104b88585612748565b810b131561034a57600860ff82161080611e78575b80611e6b575b80611e5e575b1561034a5760ff600f5460081c1660058110156110795760018114908115611e55575b501561034a576012546001600160a01b038116611e42575b5061148d83858484613d0e565b1561034a5761149e83858484612acb565b9260ff600f5416600281101561104957600114611e38575b6114c08383612748565b90549060031b1c860b600886101561102a576114dc8287612748565b90549060031b1c870b916114f482610596838a612748565b876115026105aa8787612748565b61150b83612953565b907f00000000000000000000000000000000000000000000000000000000000000009160ff808416911614611dd9575b898a61154686612953565b60ff807f000000000000000000000000000000000000000000000000000000000000000016911614611a9f575b5015611a87575b60ff61158585612953565b1660ff831614611967575b5060ff1660ff61159f84612953565b16149182611944575b60ff7f00000000000000000000000000000000000000000000000000000000000000001660ff6115d783612953565b16149384611921575b846118f5575b84156118f05750888113156118ca5761161e7f0000000000000000000000000000000000000000000000000000000000000000612943565b89918a92600f5499600260ff8c1610156109ee57918c979593918997959360ff8d161590816118c2575b501561183d5750601154600f54600195916001600160a01b0360109290921c82169116036118335761167a6004612818565b60405190611687826127bf565b898252600160a01b60019003601154169d8e9c8d600f5480608052600160a01b600190039060101c16145f149c6101609c61171e5f805160206152a28339815191529f60ff805f8051602061528283398151915296819361094e57816001976040519889980b885216602087015216968760408601521696876060850152169687608084015260c060a084015260c08301906126e3565b0390a160ff6040519a168a5260208a01526040890152606088015260808701528b0b60a08601527f00000000000000000000000000000000000000000000000000000000000000008b0b60c0860152151560e0850152151561010084015215156101208301521515610140820152a260ff8060805160081c169160081c16600581101561093a57600582101561093a57810361180c575b5060805160101c6001600160a01b03160361090a5743600d55601154600f5460101c6001600160a01b03908116908216810361090557506010546001600160a01b03166001600160a01b0319919091161760115580f35b61182a5f805160206152428339815191529160405191829182612838565b0390a15f6117b5565b61167a6003612818565b909392611848612982565b1561187b575050611859828c614269565b92831592836118715761186c6003612818565b61167a565b61186c6001612818565b611883612a33565b156118a7575050611894828c61423c565b92831592836118715761186c6004612818565b926118b3949194614111565b156118715761186c6002612818565b90505f611648565b7f000000000000000000000000000000000000000000000000000000000000000061161e565b61161e565b7f00000000000000000000000000000000000000000000000000000000000000008a0b811494506115e6565b9350600160ff61193c610a748983168d0b8684168e0b61292b565b1614936115e0565b9150600260ff61195f610a748289168c0b8386168d0b61292b565b1614916115a8565b601154600f5460101c6001600160a01b03908116911603611a6f57600160ff1960085416176008555b600260ff6119a9610a748a83168e0b8784168f0b61292b565b16036115905760ff8316600603611a1557611a015760ff906119d1865460381c8b0b876128df565b6119fb7f0000000000000000000000000000000000000000000000000000000000000000876128f9565b90611590565b634e487b7160e01b89526032600452602489fd5b600260ff841614611a2a575b5060ff906119fb565b611a015760ff90611a3e86548b0b876128ca565b81198654167f0000000000000000000000000000000000000000000000000000000000000000831617865590611a21565b630100000063ff000000196008541617600855611990565b6008805460ff60301b191660ff60301b17905561157a565b60ff611aba610a74600193838d16810b90848a16900b61292b565b161480611dae575b611cba575b7f00000000000000000000000000000000000000000000000000000000000000008b0b8514908180611cad575b80611ca0575b15611c1857506008805461ffff60301b1916603086901b60ff60301b161760388c901b60ff60381b161790556001905b80611c0d575b611b597f0000000000000000000000000000000000000000000000000000000000000000612943565b8c0b861480611c00575b81908215611bf8575b50611b79575b508a611573565b909a9015611bbc5799611bb6611b8f858c612748565b7f000000000000000000000000000000000000000000000000000000000000000091612913565b5f611b72565b99611bf3611be97f0000000000000000000000000000000000000000000000000000000000000000612943565b610596868d612748565b611bb6565b90505f611b6c565b50600760ff8c1614611b63565b5060ff8a1615611b30565b90611c427f0000000000000000000000000000000000000000000000000000000000000000612943565b8c0b861480611c93575b80611c86575b15611b2a576008805461ffff60301b1916603087901b60ff60301b161760388d901b60ff60381b1617905560019150611b2a565b50600360ff8c1614611c52565b50600160ff891614611c4c565b50600460ff8c1614611afa565b50600660ff891614611af4565b817f00000000000000000000000000000000000000000000000000000000000000008c0b861480611d99575b80611d8c575b15611d1b57611d0757611d026105aa8589612748565b611ac7565b634e487b7160e01b8b52603260045260248bfd5b50611d457f0000000000000000000000000000000000000000000000000000000000000000612943565b8b0b851480611d77575b80611d6a575b15611ac7578a9150611d026105aa8589612748565b50600460ff881614611d55565b5060ff84168b0b60085460301c8c0b14611d4f565b50600360ff891614611cec565b5060ff85168c0b60085460301c8d0b14611ce6565b507f00000000000000000000000000000000000000000000000000000000000000008b0b8614611ac2565b818a0b8403611e0d576008805461ffff60401b191660408b901b60ff60401b1617604885901b60ff60481b1617905561153b565b6008805461ffff60501b191660508b901b60ff60501b1617605885901b60ff60581b1617905561153b565b83156114b6578580fd5b6001600160a01b0319166012555f611480565b9050155f611468565b50600860ff841610611445565b50600860ff85161061143f565b50600860ff831610611439565b505f1961140c565b50346101ad57806003193601126101ad57600260095414612094576002600955600b5460ff811661035257600f5460ff8160081c1660058110159283612063576003821490818015612087575b858115612077575b50156110455760ff1916600117600b5547936120635715611f61575050600f546001600160a01b039190839060101c8316338190036103525781808481935af1611f2a61286c565b501561025e575f8051602061526283398151915291600f5460101c16611f556040519283928361289b565b0390a15b600160095580f35b60048103611fc35750506010546001600160a01b03919083908316338190036103525781808481935af1611f9361286c565b501561025e575f805160206152628339815191529160105416611fbb6040519283928361289b565b0390a1611f59565b600214611fd2575b5050611f59565b611fe08260011c809361284b565b90838080808660018060a01b03809660101c165af1611ffd61286c565b501561034e5780600f5460101c16604051806120295f805160206152628339815191529687948361289b565b0390a1838080808585601054165af161204061286c565b501561034e57601054166120596040519283928361289b565b0390a15f80611fcb565b634e487b7160e01b85526021600452602485fd5b9050611079576002831485611ee2565b5085945060048314611eda565b604051633ee5aeb560e01b8152600490fd5b50346101ad57806003193601126101ad57602060405161012c8152f35b50346101ad57806003193601126101ad57600f5460018060a01b03808260101c16331490818015612182575b1561034e5760ff8360081c1660058110156120635760018114908115612179575b501561034e577fc42bb29411173bbda4c2ff27b35fb6dc57e2cbdb1bac3fcb7c51b87dc0beb78a926111b39215612162575061040061ff0019600f541617600f55601054166040519182913383612775565b61ff00191661030017600f81905560101c1661117d565b9050155f612110565b50806010541633146120ef565b50346101ad57806003193601126101ad576012546040516001600160a01b039091168152602090f35b50346101ad57806003193601126101ad5760ff600f541660405190600281101561024a57602092508152f35b50346101ad5760603660031901126101ad576121fe612708565b90612207612718565b6044359283830b9182850361034e57600f5492601084901c6001600160a01b0316330361034a5760ff600894851c1660058110156110795761034a578360ff8416108061232e575b1561034a578383101561231a5761226d61122a966105968486612748565b7f000000000000000000000000000000000000000000000000000000000000000080860b82036122d0575050825461ffff60401b191660409290921b60ff60401b169190911760489190911b60ff60481b161790555b60405190611214826127bf565b6122d990612943565b850b146122e9575b5050506122c3565b825461ffff60501b191660509290921b60ff60501b169190911760589190911b60ff60581b161790555f80806122e1565b634e487b7160e01b85526032600452602485fd5b508360ff83161061224f565b50346101ad57806003193601126101ad57606061235561518a565b90604051928352602083015215156040820152f35b50346101ad57806003193601126101ad576011546040516001600160a01b039091168152602090f35b50346101ad57806003193601126101ad576020600a54604051908152f35b50346101ad57806003193601126101ad576020600e54604051908152f35b50346101ad57806003193601126101ad57604051906123ed8261278f565b805b61010080821015612417576040516020929161240a8261278f565b36823781850152016123ef565b604051836124248261278f565b818182935b600890818610156124a5576001918291604051855480890b8252806020941c890b848301528060101c890b60408301528060181c890b606083015280841c890b60808301528060281c890b60a08301528060301c890b60c083015260381c880b60e08201526124978161278f565b815201920194019390612429565b604051858086835b6008808410156124f55782518590835b8383106124dc57505050506020610100600192019201920191906124ad565b6001908251890b815260208091019201920191906124bd565b61080086f35b82346101ad57806003193601126101ad576125158261278f565b818182935b60089081861015612596576001918291604051855480890b8252806020941c890b848301528060101c890b60408301528060181c890b606083015280841c890b60808301528060281c890b60a08301528060301c890b60c083015260381c880b60e08201526125888161278f565b81520192019401939061251a565b5050604051639ef3eb8760e01b815291839150600483015b6008808410156125f65782518690835b8383106125dd57505050506020610100600192019201920191906125ae565b60019082518a0b815260208091019201920191906125be565b858581816108048173__ChessMediaLibrary_____________________5af49081156126b7578291612639575b6040516020808252819061122a908201856126e3565b90503d8083833e61264a81836127da565b81019060208183031261025e578051906001600160401b03821161034e570181601f8201121561025e57805192612680846127fd565b9261268e60405194856127da565b848452602085840101116101ad575061122a926126b191602080850191016126c2565b82612623565b6040513d84823e3d90fd5b5f5b8381106126d35750505f910152565b81810151838201526020016126c4565b906020916126fc815180928185528580860191016126c2565b601f01601f1916010190565b6004359060ff8216820361003257565b6024359060ff8216820361003257565b6044359060ff8216820361003257565b6064359060ff8216820361003257565b919091600883101561276157601f908360051c01921690565b634e487b7160e01b5f52603260045260245ffd5b6001600160a01b0391821681529116602082015260400190565b61010081019081106001600160401b038211176127ab57604052565b634e487b7160e01b5f52604160045260245ffd5b602081019081106001600160401b038211176127ab57604052565b601f909101601f19168101906001600160401b038211908210176127ab57604052565b6001600160401b0381116127ab57601f01601f191660200190565b60058110156100365761ff00600f549160081b169061ff00191617600f55565b9190602083019260058210156100365752565b9190820391821161285857565b634e487b7160e01b5f52601160045260245ffd5b3d15612896573d9061287d826127fd565b9161288b60405193846127da565b82523d5f602084013e565b606090565b6001600160a01b039091168152602081019190915260400190565b905f0b905f0b0290815f0b91820361285857565b9063ff00000080198354169160181b16179055565b9060ff60281b198254169060ff60281b9060281b16179055565b9060ff60381b198254169060ff60381b9060381b16179055565b919060ff83549160031b928116831b921b1916179055565b5f91820b910b0390607f198212607f83131761285857565b5f0b607f198114612858575f0390565b5f81810b126129625760ff1690565b61296b90612943565b60ff1690565b60ff1660ff81146128585760010190565b6008805460ff9081808260501c169160581c16905f5b84848216106129aa5750505050505f90565b5f5b85858216106129c457506129bf90612971565b612998565b8582979596921015612761576129da8188612748565b90549060031b1c5f0b5f0390815f0b918203612858575f839212612a0e575b612a0290612971565b905095909493956129ac565b9050612a1c8484838a613171565b612a275781906129f9565b50505050915050600190565b6008805460ff9081808260401c169160481c16905f5b8484821610612a5b5750505050505f90565b5f5b8585821610612a755750612a7090612971565b612a49565b858297959692101561276157805f612a8e84938a612748565b90549060031b1c810b12612ab2575b612aa690612971565b90509590949395612a5d565b9050612ac08484838a613171565b612a27578190612a9d565b9193929093600894858410156127615783612ae7828896612748565b9054600391821b1c5f90810b9080821315612c83576001905b612b0983612953565b60ff997f00000000000000000000000000000000000000000000000000000000000000008b16918b919082168303612c5c5750612b468995612953565b1603612c385787935b819b5b8a8d169a818c1015612c2857835b81811683811015612c14578f8d8f92858f9481899616149283612c05575b505050612bfa57101561231a578e908c8c8c8c8c8c8c8c612bb18d612ba38b8d612748565b9054911b1c820b92836128b6565b810b1215612be95787612bc49899612ca3565b612bd657612bd190612971565b612b60565b5060019d50505050505050505050505050565b50505050505050612bd19150612971565b5050612bd190612971565b9091925016145f8f8690612b7e565b50509a509b612c2290612971565b9b612b52565b50919b5050505050505050505050565b81810b600103612c5057888b5460481c165b93612b4f565b888b5460581c16612c4a565b81612b4691600187870b145f14612c79575460401c165b95612953565b5460501c16612c73565b5f1990612b00565b905f0b905f0b0190607f198212607f83131761285857565b989497939796919695909295612cb888612953565b9760ff7f00000000000000000000000000000000000000000000000000000000000000001660ff8a161461310d575060ff7f00000000000000000000000000000000000000000000000000000000000000001660ff8916146130975760ff7f00000000000000000000000000000000000000000000000000000000000000001660ff89161461304557612d5560ff8b165f0b60ff89165f0b61292b565b612d6960ff86165f0b60ff8c165f0b61292b565b98612d7382612953565b9060ff612d7f8c612953565b168060ff8416149182613038575b845f0b15918294831561302c575b83613008575b505060ff7f00000000000000000000000000000000000000000000000000000000000000001660ff82161480613000575b612fe55760ff7f00000000000000000000000000000000000000000000000000000000000000001660ff82161480612ff8575b612fe55760ff807f0000000000000000000000000000000000000000000000000000000000000000169116149182612fdc575b5081612fd3575b50612fc3579a612e7c9160ff9b9c5f14612fa957505f995b5f0b80612f8657508a612e718b5f9d8e945b165f0b612c8b565b811696165f0b612c8b565b60ff16935b60ff81169060ff89168214801590612f76575b15612f6557898b9160ff8516841480612f56575b15612ec9575b50612e7160ff91612ec0945f0b612c8b565b60ff1693612e81565b91505060ff851682149081612f45575b8115612efc575b50612eed5789895f612eae565b50505050505093505050505f90565b905060088110156127615785612f1191612748565b90547f00000000000000000000000000000000000000000000000000000000000000005f0b9160031b1c5f0b14155f612ee0565b905060ff871660ff87161490612ed9565b5060ff861660ff891614612ea8565b505050505050509350505050600190565b5060ff8c1660ff87161415612e94565b5f1215612f9d578a612e718b60015b9d8e94612e69565b8a612e718b5f19612f95565b5f90810b1315612fbc5760015b99612e57565b5f19612fb6565b5050505050505093505050505f90565b9050155f612e3f565b1591505f612e38565b5050505050505050505093505050505f90565b508115612e05565b508215612dd2565b60ff91929350161590811591613022575b50905f80612da1565b905015155f613019565b92508d5f0b1592612d9b565b60ff841615159250612d8d565b5050509493505093613067610a7460019360ff808095165f0b91165f0b61292b565b161115918261307557505090565b60019250610a7460ff92838061309194165f0b91165f0b61292b565b16111590565b50505094905060ff808095506130c0610a746130cd968380610a74989c165f0b91165f0b61292b565b96165f0b91165f0b61292b565b9116906002821491826130ff575b82156130e657505090565b6001149150816130f4575090565b6002915060ff161490565b60ff821660011492506130db565b9250505060ff93979196955061313592505f90810b135f14613168575f199083165f0b612c8b565b5f0b91165f0b14918261314757505090565b60019250610a7460ff92838061316394165f0b91165f0b61292b565b161490565b82600191612e69565b909260089283831015612761576131888584612748565b9590545f9660031b1c860b938583101561102a576131a68484612748565b90549060031b1c870b9560ff9081861690896002846131d0610a74828a16948786820b910b61292b565b1614806135bd575b6133b7575050507f0000000000000000000000000000000000000000000000000000000000000000880b871480156133a3575b61321a575b5050505050505090565b61322386612953565b81167f000000000000000000000000000000000000000000000000000000000000000082160361325b5750613258965061363e565b90565b61326486612953565b81167f00000000000000000000000000000000000000000000000000000000000000008216036132995750613258965061398b565b6132a286612953565b81167f00000000000000000000000000000000000000000000000000000000000000008216036132d757506132589650613a45565b6132e086612953565b81167f000000000000000000000000000000000000000000000000000000000000000082160361331557506132589650613ac0565b61331e86612953565b81167f000000000000000000000000000000000000000000000000000000000000000082160361335357506132589650613b2a565b61335c86612953565b90807f000000000000000000000000000000000000000000000000000000000000000016911614613399575050505050505f808080808080613210565b6132589650613ba2565b50876133af88886128b6565b810b1261320b565b929497919550929597507f0000000000000000000000000000000000000000000000000000000000000000890b145f146134e15760078386161490816134d6575b50806134cb575b61340d575b50505050505090565b83548261341e8260381c8a0b612953565b1690837f000000000000000000000000000000000000000000000000000000000000000016918214806134c1575b806134b3575b6134a45761346284918a0b612953565b16149283613499575b508261348a575b505061348057808080613404565b6132589350613c10565b8054901c161590505f80613472565b60021492505f61346b565b50505050506132589350613c10565b5083835460101c1615613452565b506006851461344c565b5081815416156133ff565b60049150145f6133f8565b8285161590816135b2575b50806135a4575b6135005750505050505090565b8354826135118260381c8a0b612953565b1690837f0000000000000000000000000000000000000000000000000000000000000000169182148061359a575b8061358c575b6134a45761355584918a0b612953565b16149283613581575b508261357257505061348057808080613404565b5460281c161590505f80613472565b60021492505f61355e565b5083835460201c1615613545565b506006851461353f565b5081815460181c16156134f3565b60049150145f6134ec565b506135c789612953565b84167f00000000000000000000000000000000000000000000000000000000000000008516146131d8565b60ff5f199116019060ff821161285857565b9060ff8091169116039060ff821161285857565b60ff60019116019060ff821161285857565b9060ff8091169116019060ff821161285857565b60ff9384169592939182169283871480613981575b6138b8575b5f96870b93870b936001968785613672610a74898661292b565b1614613807575b600854958660301c8a0b9389878c87121593846137ea575b505050816137bc575b506136ab575b505050505050505090565b880b7f0000000000000000000000000000000000000000000000000000000000000000808a0b8214806137a7575b8061379b575b80613792575b80613782575b156136fd575050505050505050905090565b61370690612943565b890b149586613769575b508561375c575b85613752575b50508361373f575b50505061373a57505f808080808080806136a0565b905090565b81929350169160381c16145f8080613725565b1493505f8061371d565b8284166004149550613717565b909550838061377785613618565b16911614945f613710565b50858516868860381c16146136eb565b508383146136e5565b506003868616146136df565b50856137b2866135f2565b16868916146136d9565b8a0b7f00000000000000000000000000000000000000000000000000000000000000008b0b1490505f61369a565b6137fc9192939450610a74908761292b565b16149089875f613691565b80890b7f0000000000000000000000000000000000000000000000000000000000000000808b0b8214806138a3575b80613898575b1561384f57505050505050505050905090565b61385890612943565b8a0b1480613883575b80613878575b156136795750505050505050905090565b508883810b13613867565b508461388e85613618565b1685881614613861565b508a85810b1261383c565b50866138ae876135f2565b16878a1614613836565b6138e17f0000000000000000000000000000000000000000000000000000000000000000612943565b5f0b865f0b145f1461393857826138f783613618565b16838616908114908115613918575b50156136585750505050505050600190565b83851660011491508161392d575b505f613906565b60039150145f613926565b82613942836135f2565b168386169081149081156139625750156136585750505050505050600190565b83851660061491508161397657505f613906565b60049150145f613926565b50805f0b15613653565b93919094929460ff809681808095815f9b8c9b168b0b91168a0b906139af9161292b565b6139b890612953565b9416880b9116870b906139ca9161292b565b6139d390612953565b911691600183149283613a38575b8315613a15575b5050506139f6575b50505090565b6139ff916128b6565b810b1315613a0f57805f806139f0565b50600190565b60021492509082613a2b575b50505f80806139e8565b6001925016145f80613a21565b82821660021493506139e1565b90949293919360ff945f9686613a67610a748a9987168a0b8386168b0b61292b565b9080613a7e610a748286168c0b8389168d0b61292b565b16911614613a90575050505050505090565b613a9993613ea2565b613aa7575b80808080613210565b613ab0916128b6565b810b1315613a0f57805f80613a9e565b92919094939460ff821660ff8516148015613b1b575b613ae5575b5050505050505f90565b613aee93613ea2565b613afc575b80808080613adb565b5f91613b07916128b6565b810b1315613b16575f80613af3565b600190565b5060ff831660ff821614613ad6565b909391949260ff95868116958784165f98898099613b4f610a7485840b83850b61292b565b8388169380613b69610a74828a16968888820b910b61292b565b16911614938415613b98575b50508215613b8e575b5050613a90575050505050505090565b1490505f80613b7e565b1492505f80613b75565b939194929460ff809681808094815f9b8c9b168b0b91168a0b90613bc59161292b565b613bce90612953565b9516880b9116870b90613be09161292b565b613be990612953565b9216600110159182613c02575b50506139f65750505090565b600192501611155f80613bf6565b909160ff80821690808516948286105f14613d06578281965b1115613cfa57613c3a909195613618565b947f00000000000000000000000000000000000000000000000000000000000000005f0b955b81831682821610613cbc57505050600214613c9f575b600882101561276157613c8891612748565b90549060031b1c5f0b03613c9b57600190565b5f90565b600882101561276157815460081c5f0b8314613c76575050505f90565b60088610156127615786613cd08288612748565b90549060031b1c5f0b03613cef57613ce88291612971565b9050613c60565b505050505050505f90565b50613c3a839195613618565b828496613c29565b92613d1b91928385613171565b15613e9c576008918281101561276157613d46613d388383612748565b90549060031b1c5f0b612953565b60ff919082167f0000000000000000000000000000000000000000000000000000000000000000831614613d7e575b50505050600190565b8116600781148080613e92575b80613e85575b15613db1575050505061010061ff00198254161790555b5f808080613d75565b80613e79575b80613e6b575b15613dd9575050506201000062ff000019825416179055613da8565b15918280613e5f575b80613e51575b15613e07575050815460ff60201b1916600160201b1790915550613da8565b82613e46575b5081613e37575b50613e20575b50613da8565b805460ff60281b1916600160281b1790555f613e1a565b9050815460281c16155f613e14565b81161591505f613e0d565b5081845460201c1615613de8565b50600782821614613de2565b5081845460101c1615613dbd565b50600782841614613db7565b50828554861c1615613d91565b5082841615613d8b565b50505f90565b929060ff92838516948482168681119282845f1461410157613ec391613604565b905b86851687871691888083851199898b5f146140f257613ee391613604565b16941699848b145f14613faf5750505050506001959495947f00000000000000000000000000000000000000000000000000000000000000005f0b955b8188821610613f36575050505050505050600190565b8315613fa057613f46818461362a565b8615613f9157613f56828761362a565b600882101561276157613f6891612748565b90549060031b1c5f0b8703613f8557613f8090612971565b613f20565b50505050505050505f90565b613f9b8287613604565b613f56565b613faa8184613604565b613f46565b9399949795930361404d57505050506001949394937f00000000000000000000000000000000000000000000000000000000000000005f0b945b8187821610613ffe5750505050505050600190565b821561403e5761400e818561362a565b6008861015612761576140219086612748565b90549060031b1c5f0b8603613cef5761403990612971565b613fe9565b6140488185613604565b61400e565b929750939493909250036140e95792937f00000000000000000000000000000000000000000000000000000000000000005f0b939060015b818782161061409a5750505050505050600190565b82156140da576140aa818561362a565b600881101561276157856140bd91612748565b90549060031b1c5f0b8603613cef576140d590612971565b614085565b6140e48185613604565b6140aa565b50505050505f90565b906140fc91613604565b613ee3565b9061410b91613604565b90613ec5565b601154600f5460101c6001600160a01b039081169116036142355760015b5f905b600860ff818185161015613d75575f5b828282161061415e575050509061415890612971565b90614132565b82851015806127615784905f614187614177858a612748565b949054600395861b1c830b6128b6565b810b1361419f575b505061419a90612971565b614142565b5f5b85858216106141b0575061418f565b5f5b86868216106141ca57506141c590612971565b6141a1565b8682101561276157826141dd8284612748565b905490861b1c5f0b90612761576141f4868b612748565b905490861b1c5f0b141580614223575b6142165761421190612971565b6141b2565b5050505050505050505f90565b506142308183878c613171565b614204565b5f1961412f565b90614245614290565b613e9c576142538183614c87565b613e9c5761426091614e86565b613c9b57600190565b9061427261433f565b613e9c576142538183614d87565b5f0b607f81146128585760010190565b60085460ff808260401c169160481c16905f195b5f81810b90600190818313613adb575f19921590825b6142d1575b505050506142cc90614280565b6142a4565b8381979497969395960b85811361433257829081614329575b5061431e576142fb878786866143e4565b6143145761430a859697614280565b93969492956142ba565b5050505091505090565b61430a859697614280565b9050155f6142ea565b50839650829594506142bf565b60085460ff808260501c169160581c16905f195b5f81810b90600190818313613adb575f19921590825b614380575b5050505061437b90614280565b614353565b8381979497969395960b8581136143d7578290816143ce575b506143c3576143aa878786866144ec565b614314576143b9859697614280565b9396949295614369565b6143b9859697614280565b9050155f614399565b508396508295945061436e565b9091926144066143fa5f9560ff8516870b612c8b565b9160ff8516860b612c8b565b9080850b8581129081156144e0575b5080156144d5575b80156144c8575b6144ab5760ff169060ff1690600881101561231a576144438282612748565b90549060031b1c850b60088410156110b457856144608686612748565b90549060031b1c810b7f0000000000000000000000000000000000000000000000000000000000000000820b83141592836144b2575b5050506144ab576144a794506145dd565b1590565b5050505090565b6144bd9293506128b6565b810b13855f80614496565b50600882860b1215614424565b508482810b1261441d565b6008915012155f614415565b9091926145026143fa5f9560ff8516870b612c8b565b9080850b8581129081156145d1575b5080156145c6575b80156145b9575b6144ab5760ff169060ff1690600881101561231a5761453f8282612748565b90549060031b1c850b60088410156110b4578561455c8686612748565b90549060031b1c810b7f0000000000000000000000000000000000000000000000000000000000000000820b83141592836145a3575b5050506144ab576144a794506146d5565b6145ae9293506128b6565b810b13855f80614592565b50600882860b1215614520565b508482810b12614519565b6008915012155f614511565b929093915f945b60ff946008878716818110156146c8575f5b888116838110156146b257898716831490816146a6575b8115614686575b5061467d57828a1015612761578990878787875f6146328688612748565b90549060031b1c810b12614654575b5050505061464f9150612971565b6145f6565b8461465f95966147be565b61466e57899087878787614641565b50505050505050915050600190565b61464f90612971565b858b16841491508161469a575b505f614614565b9050898616145f614693565b888b168114915061460d565b505050509450946146c290612971565b946145e4565b5050505050509150505f90565b929093915f945b60ff946008878716818110156146c8575f5b888116838110156147a8578987168314908161479c575b811561477c575b5061477357828a101561276157614723818b612748565b90549060031b1c5f0b5f0390815f0b91820361285857878787875f8f9612614759575b505050506147549150612971565b6146ee565b8461476495966147be565b61466e57899087878787614746565b61475490612971565b858b168414915081614790575b505f61470c565b9050898616145f614789565b888b1681149150614705565b505050509450946147b890612971565b946146dc565b9391949290946008851015612761576147d78686612748565b9590545f9660031b1c860b6147eb81612953565b9660ff9182891690837f00000000000000000000000000000000000000000000000000000000000000001682146149515750827f00000000000000000000000000000000000000000000000000000000000000001681146148d157827f0000000000000000000000000000000000000000000000000000000000000000161461487a57505095613258966149bb565b945095506001929450610a748692838061489a9416870b9116860b61292b565b16111593846148aa575050505090565b6001945091610a749184806148c59516820b9216900b61292b565b1611155f8080806144ab565b50918198975081965061490795506148fa610a74610a7496958480809516870b9116860b61292b565b9716820b9216900b61292b565b911691600283149283614944575b83156149215750505090565b60011492509082614937575b50505f80806139f0565b6002925016145f8061492d565b8282166001149350614915565b90508298506149789392949597508180975050135f146149b257825f19915b16850b612c8b565b830b9116820b14938461498c575050505090565b6001945091610a749184806149a79516820b9216900b61292b565b16145f8080806144ab565b82600191614970565b939594909160ff80919894981694165f0b956149d987865f0b61292b565b956149ee60ff85165f0b60ff8b165f0b61292b565b966149f881612953565b9060ff614a048a612953565b168060ff8416149182614c7a575b5f0b9384159182948315614c6e575b83614c4a575b505060ff1660ff7f000000000000000000000000000000000000000000000000000000000000000016811480614c42575b614c295760ff7f000000000000000000000000000000000000000000000000000000000000000016811480614c3a575b614c295760ff7f000000000000000000000000000000000000000000000000000000000000000016149182614c20575b5081614c17575b50614c095715614bea5750614af35f9788975b5f0b80614bc7575060ff614ae85f9a8b93612c8b565b811695165f0b612c8b565b60ff16925b60ff811690868214801590614bb7575b15614ba85787899160ff8516841480614b99575b15614b3d575b50614ae860ff91614b34945f0b612c8b565b60ff1692614af8565b91505060088110156127615784614b5391612748565b90547f00000000000000000000000000000000000000000000000000000000000000005f0b9160031b1c5f0b03614b8c5787875f614b22565b5050505093505050505f90565b5060ff861660ff881614614b1c565b50505050509350505050600190565b5060ff8a1660ff86161415614b08565b5f1215614bde5760ff614ae860015b9a8b93612c8b565b60ff614ae85f19614bd6565b5f1215614bff57614af360015b978897614ad2565b614af35f19614bf7565b505050505093505050505f90565b9050155f614abf565b1591505f614ab8565b505050505050505093505050505f90565b508115614a88565b508215614a58565b60ff92935082161590811591614c64575b5091905f614a27565b905015155f614c5b565b92508b5f0b1592614a21565b60ff841615159250614a12565b905f917f0000000000000000000000000000000000000000000000000000000000000000830b925b60ff9384821694600880871015613cef575f5b82811682811015614d735782861015612761578490614ce18388612748565b929054600393841b1c5f0b14918215614d56575b508115614d36575b50614d2d57614d0e87878388613171565b614d2057614d1b90612971565b614cc2565b5050505050505050600190565b614d1b90612971565b8785168a14915081614d4a575b505f614cfd565b9050838816145f614d43565b5f919250614d648489612748565b9054911b1c810b12905f614cf5565b505050509350614d8290612971565b614caf565b905f917f0000000000000000000000000000000000000000000000000000000000000000830b925b60ff9384821694600880871015613cef575f5b82811682811015614e725782861015612761578490614de18388612748565b929054600393841b1c5f0b14918215614e49575b508115614e29575b50614e2057614e0e87878388613171565b614d2057614e1b90612971565b614dc2565b614e1b90612971565b8785168a14915081614e3d575b505f614dfd565b9050838816145f614e36565b909150614e568388612748565b9054911b1c5f0b5f03805f0b908103612858575f13905f614df5565b505050509350614e8190612971565b614daf565b919091600881101561276157614e9c8382612748565b90549060031b1c5f0b905f82135f14615130575f19925b6001845f0b1491825f146151215760ff60085460401c16925b1561510f57614ee360ff60085460481c1694612953565b60ff807f0000000000000000000000000000000000000000000000000000000000000000169116146151055760ff165f0b9360ff80614f26878287165f0b61292b565b951696165f0b90614f3982885f0b61292b565b945f0b806150e65750614f675f9687965b5f0b806150c75750614f5e5f988992612c8b565b60ff1693612c8b565b60ff16915b60ff81169060ff861682148015906150ba575b15614b8c578688915f5b600860ff821610614fbb575050614fa760ff91614fb2945f0b612c8b565b811694165f0b612c8b565b60ff1691614f6c565b915091505f5b600860ff821610614fdf5750614fd690612971565b88918891614f89565b600882101561276157614ff28183612748565b90549060031b1c5f0b7f00000000000000000000000000000000000000000000000000000000000000005f0b81149081156150a3575b811561506b575b506150625761504086848385613171565b6150525761504d90612971565b614fc1565b5050505050509350505050600190565b61504d90612971565b6150759150612953565b60ff807f0000000000000000000000000000000000000000000000000000000000000000169116145f61502f565b90505f6150b087836128b6565b810b131590615028565b508860ff85161415614f7f565b5f12156150dc57614f5e60015b988992612c8b565b614f5e5f196150d4565b5f12156150fb57614f6760015b968796614f4a565b614f675f196150f3565b5093505050505f90565b614ee360ff60085460581c1694612953565b60ff60085460501c1692614ecc565b600192614eb3565b60ff600f5460081c166005811015610036578015613a0f5760018114615184576002811461517e576003811461517857600414615173575f90565b600590565b50600490565b50600390565b50600290565b60018060a01b039060ff8260115416600f54938460101c16149260081c1660058110156100365760010361521b5781156151ec576151ca600c544361284b565b600e54908181106151de5750505f5b915f91565b6151e79161284b565b6151d9565b906151f9600d544361284b565b600e549081811061520d5750505f5b905f92565b6152169161284b565b615208565b5f91829156fedcde4d5f323b6ae67236b395481f3b50ffa4fe7f1886ad479738a833734f568100a8b06dd72552dea96e97c9a96acf39a1908ada44765cefe367620485b2c7e195681e512bc0fe659e195e06c283eada494316f3d801213e48e7101af92bf7707de434f9168186fcb0e74da7dead1bc82322202f75330ba72b80d27dd4926218335c82276d0b79a1d1920709e66ffd09ec3f814451cbf8001d5d6965416233b8a264697066735822122042c0cd36bb712e87da07d3158583236498f4d599716b5cc7f3ac5e32f3328ded64736f6c63430008140033a2646970667358221220e242905f2fa6d65d81be391855ad2f8a518ef747ab99601e023d5d5be291154064736f6c6343000814003360a034620003c257601f906001600160401b0390601f1990620016d9388190038581018416830185811184821017620003ae57839282916040528339602092839181010312620003c257516001600160a01b03948582169491859003620003c2576200006a620003c6565b92600884526710da195cdcd3919560c21b8185015262000089620003c6565b906005825264436865737360d81b81830152845195848711620003ae575f968754966001978881811c91168015620003a3575b858210146200038f579081878493116200033c575b508490878311600114620002dc578a92620002d0575b50505f19600383901b1c191690871b1787555b8251948511620002bc5785548681811c91168015620002b1575b838210146200029d5790818587969594931162000244575b5081938511600114620001e05750508592620001d4575b50505f19600383901b1c191690821b1790555b8115620001bc57600a80546001600160a01b0319811684179091556040519316907f8be0079c531659141344cd1fd0a4f28419497f9722a3daafe3b4186f6b6457e09080a3336080526112f29081620003e782396080518181816102e901526105820152f35b60249060405190631e4fbdf760e01b82526004820152fd5b015190505f8062000143565b869593929193168588528388209388905b8282106200022a575050841162000211575b505050811b01905562000156565b01515f1960f88460031b161c191690555f808062000203565b8484015186558897909501949384019390810190620001f1565b9091929394508688528288208580880160051c82019285891062000293575b9188978a9297969594930160051c01915b828110620002845750506200012c565b8a815588975089910162000274565b9250819262000263565b634e487b7160e01b88526022600452602488fd5b90607f169062000114565b634e487b7160e01b87526041600452602487fd5b015190505f80620000e7565b90848a9416918b8052868c20928c5b888282106200032557505084116200030c575b505050811b018755620000fa565b01515f1960f88460031b161c191690555f8080620002fe565b8385015186558d97909501949384019301620002eb565b909150898052848a208780850160051c82019287861062000385575b918b91869594930160051c01915b82811062000376575050620000d1565b8c81558594508b910162000366565b9250819262000358565b634e487b7160e01b8a52602260045260248afd5b90607f1690620000bc565b634e487b7160e01b5f52604160045260245ffd5b5f80fd5b60408051919082016001600160401b03811183821017620003ae5760405256fe6080806040526004361015610012575f80fd5b5f3560e01c90816301ffc9a714610c225750806306fdde0314610b84578063081812fc14610b48578063095ea7b314610a6757806313ec0eb714610a2557806318160ddd14610a0857806323b872dd146109f15780632f745c591461097c57806342842e0e146109425780634f6ccce7146108ed578063562d60b7146108bb5780636352211e1461088b57806370a0823114610860578063715018a6146108185780638cced9a6146105525780638da5cb5b1461052a57806395d89b4114610442578063a22cb465146103a1578063b88d4fde14610318578063c45a0155146102d4578063c87b56dd146101e2578063e985e9c5146101905763f2fde38b14610119575f80fd5b3461018c57602036600319011261018c57610132610ced565b61013a610dd0565b6001600160a01b0390811690811561017457600a80546001600160a01b031981168417909155165f8051602061127d8339815191525f80a3005b604051631e4fbdf760e01b81525f6004820152602490fd5b5f80fd5b3461018c57604036600319011261018c576101a9610ced565b6101b1610d03565b9060018060a01b038091165f52600560205260405f2091165f52602052602060ff60405f2054166040519015158152f35b3461018c5760208060031936011261018c575f90610201600435610d19565b905460405163042bc8db60e11b815293918491600491839160039190911b1c6001600160a01b03165afa9182156102c9575f92610252575b5061024e604051928284938452830190610cc8565b0390f35b9091503d805f833e6102648183610d92565b810190828183031261018c578051906001600160401b03821161018c570181601f8201121561018c57805161029881610db5565b926102a66040519485610d92565b81845284828401011161018c576102c291848085019101610ca7565b9082610239565b6040513d5f823e3d90fd5b3461018c575f36600319011261018c576040517f00000000000000000000000000000000000000000000000000000000000000006001600160a01b03168152602090f35b3461018c57608036600319011261018c57610331610ced565b610339610d03565b606435916001600160401b03831161018c573660238401121561018c5782600401359161036583610db5565b926103736040519485610d92565b808452366024828701011161018c576020815f92602461039f98018388013785010152604435916110a0565b005b3461018c57604036600319011261018c576103ba610ced565b6024359081151580920361018c576001600160a01b031690811561042957335f52600560205260405f20825f5260205260405f2060ff1981541660ff83161790556040519081527f17307eab39ab6107e8899845ad3d59bd9653f200f220920489ca2b5937696c3160203392a3005b604051630b61174360e31b815260048101839052602490fd5b3461018c575f36600319011261018c576040515f60019081549182811c91818416918215610520575b602094858510841461050c5785879486865291825f146104ec5750506001146104b0575b5061049c92500383610d92565b61024e604051928284938452830190610cc8565b849150805f52815f20905f915b8583106104d457505061049c93508201018561048f565b805483890185015287945086939092019181016104bd565b60ff19168582015261049c95151560051b850101925087915061048f9050565b634e487b7160e01b5f52602260045260245ffd5b92607f169261046b565b3461018c575f36600319011261018c57600a546040516001600160a01b039091168152602090f35b3461018c57606036600319011261018c5761056b610d03565b6001600160a01b03604435808216900361018c57807f000000000000000000000000000000000000000000000000000000000000000016330361018c576004355f52600b6020528060405f20541661018c57600c54600160401b811015610748578060016105dc9201600c55610d19565b81549060031b9083808616831b921b1916179055806044351615610800576004355f5260026020528060405f205416806107dd575b60443582165f818152600360209081526040808320805460010190556004358084526002909252822080546001600160a01b03191684179055919083905f8051602061129d8339815191529080a48061075c576008546004355f5260096020528060405f2055600160401b8110156107485761069681600161069f9301600855610d45565b60043591611265565b816044351681036106ec575b6106d4576004355f908152600b6020526040902080546001600160a01b03191691909216179055005b6040516339e3563760e11b81525f6004820152602490fd5b6106f7604435610dfc565b5f1981019081116107345782604435165f52600660205260405f20815f5260205260043560405f20556004355f52600760205260405f20556106ab565b634e487b7160e01b5f52601160045260245ffd5b634e487b7160e01b5f52604160045260245ffd5b6044358216811461069f5761077081610dfc565b6004355f52600760205260405f205490825f52600660205260405f20918181036107b6575b506004355f5260076020525f60408120555f526020525f604081205561069f565b815f528260205260405f2054815f528060405f20555f52600760205260405f205585610795565b6107e86004356111f3565b805f52600360205260405f205f198154019055610611565b604051633250574960e11b81525f6004820152602490fd5b3461018c575f36600319011261018c57610830610dd0565b600a80546001600160a01b031981169091555f906001600160a01b03165f8051602061127d8339815191528280a3005b3461018c57602036600319011261018c57602061088361087e610ced565b610dfc565b604051908152f35b3461018c57602036600319011261018c5760206108a9600435611210565b6040516001600160a01b039091168152f35b3461018c57602036600319011261018c576004355f52600b602052602060018060a01b0360405f205416604051908152f35b3461018c57602036600319011261018c5760043560085481101561092457610916602091610d45565b90546040519160031b1c8152f35b6044906040519063295f44f760e21b82525f60048301526024820152fd5b3461018c5761095036610d5d565b60405160208101939092906001600160401b038511848610176107485761039f946040525f84526110a0565b3461018c57604036600319011261018c57610995610ced565b602435906109a281610dfc565b8210156109d15760018060a01b03165f52600660205260405f20905f52602052602060405f2054604051908152f35b6109ed60405192839263295f44f760e21b84526004840161124a565b0390fd5b3461018c5761039f610a0236610d5d565b91610e32565b3461018c575f36600319011261018c576020600854604051908152f35b3461018c57602036600319011261018c57600435600c5481101561018c57610a4e602091610d19565b905460405160039290921b1c6001600160a01b03168152f35b3461018c57604036600319011261018c57610a80610ced565b602435610a8c81611210565b33151580610b35575b80610b0c575b610af4576001600160a01b039283169282918491167f8c5be1e5ebec7d5bd14f71427d1e84f3dd0314c0f7b2291e5b200ac8c7c3b9255f80a45f90815260046020526040902080546001600160a01b0319169091179055005b60405163a9fbf51f60e01b8152336004820152602490fd5b5060018060a01b0381165f52600560205260405f20335f5260205260ff60405f20541615610a9b565b506001600160a01b038116331415610a95565b3461018c57602036600319011261018c57600435610b6581611210565b505f526004602052602060018060a01b0360405f205416604051908152f35b3461018c575f36600319011261018c576040515f805490600182811c91818416918215610c18575b602094858510841461050c5785879486865291825f146104ec575050600114610bdc575061049c92500383610d92565b8491505f8052815f20905f915b858310610c0057505061049c93508201018561048f565b80548389018501528794508693909201918101610be9565b92607f1692610bac565b3461018c57602036600319011261018c576004359063ffffffff60e01b821680920361018c5760209163780e9d6360e01b8114908115610c64575b5015158152f35b6380ac58cd60e01b811491508115610c96575b8115610c85575b5083610c5d565b6301ffc9a760e01b14905083610c7e565b635b5e139f60e01b81149150610c77565b5f5b838110610cb85750505f910152565b8181015183820152602001610ca9565b90602091610ce181518092818552858086019101610ca7565b601f01601f1916010190565b600435906001600160a01b038216820361018c57565b602435906001600160a01b038216820361018c57565b600c54811015610d3157600c5f5260205f2001905f90565b634e487b7160e01b5f52603260045260245ffd5b600854811015610d315760085f5260205f2001905f90565b606090600319011261018c576001600160a01b0390600435828116810361018c5791602435908116810361018c579060443590565b601f909101601f19168101906001600160401b0382119082101761074857604052565b6001600160401b03811161074857601f01601f191660200190565b600a546001600160a01b03163303610de457565b60405163118cdaa760e01b8152336004820152602490fd5b6001600160a01b03168015610e1a575f52600360205260405f205490565b6040516322718ad960e21b81525f6004820152602490fd5b6001600160a01b0382811693918415610800575f94838652602095600287526040968488832054169633151580611014575b5087158015610ff5575b84845260038352898420805460010190558784526002835289842080546001600160a01b0319168617905587858a5f8051602061129d8339815191528780a415610f895760085487845260098352898420819055600160401b811015610f755787610ee2826001610ee89401600855610d45565b90611265565b838803610f24575b505050501692838303610f035750505050565b6064945051926364283d7b60e01b8452600484015260248301526044820152fd5b610f2d90610dfc565b5f19810193908411610f615782916007918a945260068152838320858452815287848420558783525220555f808080610ef0565b634e487b7160e01b83526011600452602483fd5b634e487b7160e01b84526041600452602484fd5b878414610ee857610f9988610dfc565b878452600783528984205490898552600684528a852091818103610fd3575b5088855260078452848b812055845282528289812055610ee8565b8186528285528b862054818752808d8820558652600785528b8620555f610fb8565b610ffe886111f3565b8884526003835289842080545f19019055610e6e565b8061105f575b15611025575f610e64565b888789611042576024915190637e27328960e01b82526004820152fd5b905163177e802f60e01b81529081906109ed90336004840161124a565b503388148015611084575b8061101a57508683526004825233868a852054161461101a565b5087835260058252888320338452825260ff898420541661106a565b9290926110ae838583610e32565b833b6110bb575b50505050565b604051630a85bd0160e11b8082523360048301526001600160a01b0392831660248301526044820194909452608060648201529493169260209290918590611107906084830190610cc8565b039483815f978189895af18691816111af575b5061117a575050503d5f14611171573d61113381610db5565b906111416040519283610d92565b81528093823d92013e5b8251928361116c57604051633250574960e11b815260048101849052602490fd5b019050fd5b6060925061114b565b919450915063ffffffff60e01b160361119757505f8080806110b5565b60249060405190633250574960e11b82526004820152fd5b9091508481813d83116111ec575b6111c78183610d92565b810103126111e857516001600160e01b0319811681036111e857905f61111a565b8680fd5b503d6111bd565b5f90815260046020526040902080546001600160a01b0319169055565b5f818152600260205260409020546001600160a01b0316908115611232575090565b60249060405190637e27328960e01b82526004820152fd5b6001600160a01b039091168152602081019190915260400190565b919082549060031b91821b915f19901b191617905556fe8be0079c531659141344cd1fd0a4f28419497f9722a3daafe3b4186f6b6457e0ddf252ad1be2c89b69c2b068fc378daa952ba7f163c4a11628f55a4df523b3efa2646970667358221220ffaeca3db1819dc75ddc7aa644955702d8c1dbdb262b29d16e0e0e4f8f81129b64736f6c63430008140033",
  "immutableReferences": {},
  "source": "// SPDX-License-Identifier: MIT\npragma solidity ^0.8.20;\n\nimport \"./ChessCore.sol\";\nimport \"./ChessNFT.sol\";\n\ncontract ChessFactory {\n    address[] public deployedChessGames;\n    address public addressNFT;\n    uint256 public totalChessGames;\n\n    // Bet limits (can be adjusted for different networks)\n    uint256 public constant MIN_BET = 0.001 ether;\n    uint256 public constant MAX_BET = 100 ether;\n\n    event GameCreated(\n        uint256 indexed gameId,\n        address indexed gameAddress,\n        address indexed whitePlayer,\n        uint256 betAmount,\n        ChessCore.TimeoutPreset timeoutPreset,\n        ChessCore.GameMode gameMode\n    );\n\n    constructor(){\n        ChessNFT newChessNFT = new ChessNFT(msg.sender);\n        addressNFT = address(newChessNFT);\n    }\n\n    function createChessGame(ChessCore.TimeoutPreset _timeoutPreset, ChessCore.GameMode _gameMode) public payable returns (address) {\n        require(msg.value >= MIN_BET, \"Bet amount too low\");\n        require(msg.value <= MAX_BET, \"Bet amount too high\");\n\n        ChessCore newChessGame = new ChessCore{value: msg.value}(msg.sender, msg.value, _timeoutPreset, _gameMode);\n        address toRet = address(newChessGame);\n        deployedChessGames.push(toRet);\n\n        uint256 gameId = totalChessGames;\n        totalChessGames++;\n\n        ChessNFT(addressNFT).createGameNFT(gameId, toRet, msg.sender);\n\n        emit GameCreated(gameId, toRet, msg.sender, msg.value, _timeoutPreset, _gameMode);\n        return toRet;\n    }\n \n    function getDeployedChessGames() public view returns (address[] memory) {\n        return deployedChessGames;\n    }\n\n}",
  "sourcePath": "/Users/jacopo/Documents/solidity/chessgame/ethereum/contracts/Chess/ChessFactory.sol",
  "compiler": {
    "name": "solc",
    "version": "0.8.20+commit.a1b79de6.Emscripten.clang"
  },
  "schemaVersion": "3.4.16",
  "updatedAt": "2025-12-31T02:14:15.718Z",
  "networkType": "ethereum",
  "devdoc": {
    "kind": "dev",
    "methods": {},
    "version": 1
  },
  "userdoc": {
    "kind": "user",
    "methods": {},
    "version": 1
  }
}