{
  "contractName": "DisputeDAO",
  "abi": [
    {
      "inputs": [
        {
          "internalType": "address",
          "name": "_chessToken",
          "type": "address"
        },
        {
          "internalType": "address",
          "name": "_bondingManager",
          "type": "address"
        },
        {
          "internalType": "address",
          "name": "_arbitratorRegistry",
          "type": "address"
        }
      ],
      "stateMutability": "nonpayable",
      "type": "constructor"
    },
    {
      "inputs": [],
      "name": "AccessControlBadConfirmation",
      "type": "error"
    },
    {
      "inputs": [
        {
          "internalType": "address",
          "name": "account",
          "type": "address"
        },
        {
          "internalType": "bytes32",
          "name": "neededRole",
          "type": "bytes32"
        }
      ],
      "name": "AccessControlUnauthorizedAccount",
      "type": "error"
    },
    {
      "inputs": [],
      "name": "ReentrancyGuardReentrantCall",
      "type": "error"
    },
    {
      "anonymous": false,
      "inputs": [
        {
          "indexed": true,
          "internalType": "uint256",
          "name": "gameId",
          "type": "uint256"
        }
      ],
      "name": "ChallengeWindowClosed",
      "type": "event"
    },
    {
      "anonymous": false,
      "inputs": [
        {
          "indexed": true,
          "internalType": "uint256",
          "name": "disputeId",
          "type": "uint256"
        },
        {
          "indexed": true,
          "internalType": "uint256",
          "name": "gameId",
          "type": "uint256"
        },
        {
          "indexed": false,
          "internalType": "address",
          "name": "challenger",
          "type": "address"
        },
        {
          "indexed": false,
          "internalType": "address",
          "name": "accused",
          "type": "address"
        }
      ],
      "name": "DisputeCreated",
      "type": "event"
    },
    {
      "anonymous": false,
      "inputs": [
        {
          "indexed": true,
          "internalType": "uint256",
          "name": "disputeId",
          "type": "uint256"
        },
        {
          "indexed": false,
          "internalType": "uint256",
          "name": "newLevel",
          "type": "uint256"
        }
      ],
      "name": "DisputeEscalated",
      "type": "event"
    },
    {
      "anonymous": false,
      "inputs": [
        {
          "indexed": true,
          "internalType": "uint256",
          "name": "disputeId",
          "type": "uint256"
        },
        {
          "indexed": false,
          "internalType": "enum DisputeDAO.Vote",
          "name": "decision",
          "type": "uint8"
        },
        {
          "indexed": false,
          "internalType": "uint256",
          "name": "legitVotes",
          "type": "uint256"
        },
        {
          "indexed": false,
          "internalType": "uint256",
          "name": "cheatVotes",
          "type": "uint256"
        }
      ],
      "name": "DisputeResolved",
      "type": "event"
    },
    {
      "anonymous": false,
      "inputs": [
        {
          "indexed": true,
          "internalType": "uint256",
          "name": "gameId",
          "type": "uint256"
        },
        {
          "indexed": false,
          "internalType": "address",
          "name": "white",
          "type": "address"
        },
        {
          "indexed": false,
          "internalType": "address",
          "name": "black",
          "type": "address"
        },
        {
          "indexed": false,
          "internalType": "uint256",
          "name": "stake",
          "type": "uint256"
        }
      ],
      "name": "GameRegistered",
      "type": "event"
    },
    {
      "anonymous": false,
      "inputs": [
        {
          "indexed": true,
          "internalType": "uint256",
          "name": "disputeId",
          "type": "uint256"
        },
        {
          "indexed": true,
          "internalType": "address",
          "name": "recipient",
          "type": "address"
        },
        {
          "indexed": false,
          "internalType": "uint256",
          "name": "amount",
          "type": "uint256"
        }
      ],
      "name": "RewardDistributed",
      "type": "event"
    },
    {
      "anonymous": false,
      "inputs": [
        {
          "indexed": true,
          "internalType": "bytes32",
          "name": "role",
          "type": "bytes32"
        },
        {
          "indexed": true,
          "internalType": "bytes32",
          "name": "previousAdminRole",
          "type": "bytes32"
        },
        {
          "indexed": true,
          "internalType": "bytes32",
          "name": "newAdminRole",
          "type": "bytes32"
        }
      ],
      "name": "RoleAdminChanged",
      "type": "event"
    },
    {
      "anonymous": false,
      "inputs": [
        {
          "indexed": true,
          "internalType": "bytes32",
          "name": "role",
          "type": "bytes32"
        },
        {
          "indexed": true,
          "internalType": "address",
          "name": "account",
          "type": "address"
        },
        {
          "indexed": true,
          "internalType": "address",
          "name": "sender",
          "type": "address"
        }
      ],
      "name": "RoleGranted",
      "type": "event"
    },
    {
      "anonymous": false,
      "inputs": [
        {
          "indexed": true,
          "internalType": "bytes32",
          "name": "role",
          "type": "bytes32"
        },
        {
          "indexed": true,
          "internalType": "address",
          "name": "account",
          "type": "address"
        },
        {
          "indexed": true,
          "internalType": "address",
          "name": "sender",
          "type": "address"
        }
      ],
      "name": "RoleRevoked",
      "type": "event"
    },
    {
      "anonymous": false,
      "inputs": [
        {
          "indexed": true,
          "internalType": "uint256",
          "name": "disputeId",
          "type": "uint256"
        },
        {
          "indexed": true,
          "internalType": "address",
          "name": "arbitrator",
          "type": "address"
        }
      ],
      "name": "VoteCommitted",
      "type": "event"
    },
    {
      "anonymous": false,
      "inputs": [
        {
          "indexed": true,
          "internalType": "uint256",
          "name": "disputeId",
          "type": "uint256"
        },
        {
          "indexed": true,
          "internalType": "address",
          "name": "arbitrator",
          "type": "address"
        },
        {
          "indexed": false,
          "internalType": "enum DisputeDAO.Vote",
          "name": "vote",
          "type": "uint8"
        }
      ],
      "name": "VoteRevealed",
      "type": "event"
    },
    {
      "inputs": [],
      "name": "DEFAULT_ADMIN_ROLE",
      "outputs": [
        {
          "internalType": "bytes32",
          "name": "",
          "type": "bytes32"
        }
      ],
      "stateMutability": "view",
      "type": "function",
      "constant": true
    },
    {
      "inputs": [],
      "name": "GAME_MANAGER_ROLE",
      "outputs": [
        {
          "internalType": "bytes32",
          "name": "",
          "type": "bytes32"
        }
      ],
      "stateMutability": "view",
      "type": "function",
      "constant": true
    },
    {
      "inputs": [],
      "name": "MAX_ACTIVE_CHALLENGES",
      "outputs": [
        {
          "internalType": "uint256",
          "name": "",
          "type": "uint256"
        }
      ],
      "stateMutability": "view",
      "type": "function",
      "constant": true
    },
    {
      "inputs": [
        {
          "internalType": "address",
          "name": "",
          "type": "address"
        }
      ],
      "name": "activeChallenges",
      "outputs": [
        {
          "internalType": "uint256",
          "name": "",
          "type": "uint256"
        }
      ],
      "stateMutability": "view",
      "type": "function",
      "constant": true
    },
    {
      "inputs": [],
      "name": "arbitratorRegistry",
      "outputs": [
        {
          "internalType": "contract ArbitratorRegistry",
          "name": "",
          "type": "address"
        }
      ],
      "stateMutability": "view",
      "type": "function",
      "constant": true
    },
    {
      "inputs": [],
      "name": "bondingManager",
      "outputs": [
        {
          "internalType": "contract BondingManager",
          "name": "",
          "type": "address"
        }
      ],
      "stateMutability": "view",
      "type": "function",
      "constant": true
    },
    {
      "inputs": [],
      "name": "challengeDeposit",
      "outputs": [
        {
          "internalType": "uint256",
          "name": "",
          "type": "uint256"
        }
      ],
      "stateMutability": "view",
      "type": "function",
      "constant": true
    },
    {
      "inputs": [],
      "name": "challengeWindow",
      "outputs": [
        {
          "internalType": "uint256",
          "name": "",
          "type": "uint256"
        }
      ],
      "stateMutability": "view",
      "type": "function",
      "constant": true
    },
    {
      "inputs": [],
      "name": "chessToken",
      "outputs": [
        {
          "internalType": "contract ChessToken",
          "name": "",
          "type": "address"
        }
      ],
      "stateMutability": "view",
      "type": "function",
      "constant": true
    },
    {
      "inputs": [],
      "name": "commitPeriod",
      "outputs": [
        {
          "internalType": "uint256",
          "name": "",
          "type": "uint256"
        }
      ],
      "stateMutability": "view",
      "type": "function",
      "constant": true
    },
    {
      "inputs": [],
      "name": "disputeCounter",
      "outputs": [
        {
          "internalType": "uint256",
          "name": "",
          "type": "uint256"
        }
      ],
      "stateMutability": "view",
      "type": "function",
      "constant": true
    },
    {
      "inputs": [
        {
          "internalType": "uint256",
          "name": "",
          "type": "uint256"
        }
      ],
      "name": "disputes",
      "outputs": [
        {
          "internalType": "uint256",
          "name": "gameId",
          "type": "uint256"
        },
        {
          "internalType": "address",
          "name": "challenger",
          "type": "address"
        },
        {
          "internalType": "address",
          "name": "accusedPlayer",
          "type": "address"
        },
        {
          "internalType": "address",
          "name": "otherPlayer",
          "type": "address"
        },
        {
          "internalType": "uint256",
          "name": "gameStake",
          "type": "uint256"
        },
        {
          "internalType": "enum DisputeDAO.DisputeState",
          "name": "state",
          "type": "uint8"
        },
        {
          "internalType": "uint256",
          "name": "challengedAt",
          "type": "uint256"
        },
        {
          "internalType": "uint256",
          "name": "commitDeadline",
          "type": "uint256"
        },
        {
          "internalType": "uint256",
          "name": "revealDeadline",
          "type": "uint256"
        },
        {
          "internalType": "uint256",
          "name": "legitVotes",
          "type": "uint256"
        },
        {
          "internalType": "uint256",
          "name": "cheatVotes",
          "type": "uint256"
        },
        {
          "internalType": "uint256",
          "name": "abstainVotes",
          "type": "uint256"
        },
        {
          "internalType": "enum DisputeDAO.Vote",
          "name": "finalDecision",
          "type": "uint8"
        },
        {
          "internalType": "bool",
          "name": "resolved",
          "type": "bool"
        },
        {
          "internalType": "uint256",
          "name": "escalationLevel",
          "type": "uint256"
        }
      ],
      "stateMutability": "view",
      "type": "function",
      "constant": true
    },
    {
      "inputs": [
        {
          "internalType": "uint256",
          "name": "",
          "type": "uint256"
        }
      ],
      "name": "gameToDispute",
      "outputs": [
        {
          "internalType": "uint256",
          "name": "",
          "type": "uint256"
        }
      ],
      "stateMutability": "view",
      "type": "function",
      "constant": true
    },
    {
      "inputs": [
        {
          "internalType": "bytes32",
          "name": "role",
          "type": "bytes32"
        }
      ],
      "name": "getRoleAdmin",
      "outputs": [
        {
          "internalType": "bytes32",
          "name": "",
          "type": "bytes32"
        }
      ],
      "stateMutability": "view",
      "type": "function",
      "constant": true
    },
    {
      "inputs": [
        {
          "internalType": "bytes32",
          "name": "role",
          "type": "bytes32"
        },
        {
          "internalType": "address",
          "name": "account",
          "type": "address"
        }
      ],
      "name": "grantRole",
      "outputs": [],
      "stateMutability": "nonpayable",
      "type": "function"
    },
    {
      "inputs": [
        {
          "internalType": "bytes32",
          "name": "role",
          "type": "bytes32"
        },
        {
          "internalType": "address",
          "name": "account",
          "type": "address"
        }
      ],
      "name": "hasRole",
      "outputs": [
        {
          "internalType": "bool",
          "name": "",
          "type": "bool"
        }
      ],
      "stateMutability": "view",
      "type": "function",
      "constant": true
    },
    {
      "inputs": [],
      "name": "quorum",
      "outputs": [
        {
          "internalType": "uint256",
          "name": "",
          "type": "uint256"
        }
      ],
      "stateMutability": "view",
      "type": "function",
      "constant": true
    },
    {
      "inputs": [
        {
          "internalType": "bytes32",
          "name": "role",
          "type": "bytes32"
        },
        {
          "internalType": "address",
          "name": "callerConfirmation",
          "type": "address"
        }
      ],
      "name": "renounceRole",
      "outputs": [],
      "stateMutability": "nonpayable",
      "type": "function"
    },
    {
      "inputs": [],
      "name": "revealPeriod",
      "outputs": [
        {
          "internalType": "uint256",
          "name": "",
          "type": "uint256"
        }
      ],
      "stateMutability": "view",
      "type": "function",
      "constant": true
    },
    {
      "inputs": [
        {
          "internalType": "bytes32",
          "name": "role",
          "type": "bytes32"
        },
        {
          "internalType": "address",
          "name": "account",
          "type": "address"
        }
      ],
      "name": "revokeRole",
      "outputs": [],
      "stateMutability": "nonpayable",
      "type": "function"
    },
    {
      "inputs": [],
      "name": "supermajority",
      "outputs": [
        {
          "internalType": "uint256",
          "name": "",
          "type": "uint256"
        }
      ],
      "stateMutability": "view",
      "type": "function",
      "constant": true
    },
    {
      "inputs": [
        {
          "internalType": "bytes4",
          "name": "interfaceId",
          "type": "bytes4"
        }
      ],
      "name": "supportsInterface",
      "outputs": [
        {
          "internalType": "bool",
          "name": "",
          "type": "bool"
        }
      ],
      "stateMutability": "view",
      "type": "function",
      "constant": true
    },
    {
      "inputs": [
        {
          "internalType": "uint256",
          "name": "",
          "type": "uint256"
        },
        {
          "internalType": "address",
          "name": "",
          "type": "address"
        }
      ],
      "name": "votes",
      "outputs": [
        {
          "internalType": "bytes32",
          "name": "commitHash",
          "type": "bytes32"
        },
        {
          "internalType": "bool",
          "name": "revealed",
          "type": "bool"
        },
        {
          "internalType": "enum DisputeDAO.Vote",
          "name": "vote",
          "type": "uint8"
        }
      ],
      "stateMutability": "view",
      "type": "function",
      "constant": true
    },
    {
      "inputs": [
        {
          "internalType": "uint256",
          "name": "gameId",
          "type": "uint256"
        },
        {
          "internalType": "address",
          "name": "white",
          "type": "address"
        },
        {
          "internalType": "address",
          "name": "black",
          "type": "address"
        },
        {
          "internalType": "uint256",
          "name": "stake",
          "type": "uint256"
        }
      ],
      "name": "registerGame",
      "outputs": [],
      "stateMutability": "nonpayable",
      "type": "function"
    },
    {
      "inputs": [
        {
          "internalType": "uint256",
          "name": "gameId",
          "type": "uint256"
        },
        {
          "internalType": "address",
          "name": "accusedPlayer",
          "type": "address"
        }
      ],
      "name": "challenge",
      "outputs": [],
      "stateMutability": "nonpayable",
      "type": "function"
    },
    {
      "inputs": [
        {
          "internalType": "uint256",
          "name": "disputeId",
          "type": "uint256"
        },
        {
          "internalType": "bytes32",
          "name": "commitHash",
          "type": "bytes32"
        }
      ],
      "name": "commitVote",
      "outputs": [],
      "stateMutability": "nonpayable",
      "type": "function"
    },
    {
      "inputs": [
        {
          "internalType": "uint256",
          "name": "disputeId",
          "type": "uint256"
        },
        {
          "internalType": "enum DisputeDAO.Vote",
          "name": "vote",
          "type": "uint8"
        },
        {
          "internalType": "bytes32",
          "name": "salt",
          "type": "bytes32"
        }
      ],
      "name": "revealVote",
      "outputs": [],
      "stateMutability": "nonpayable",
      "type": "function"
    },
    {
      "inputs": [
        {
          "internalType": "uint256",
          "name": "disputeId",
          "type": "uint256"
        }
      ],
      "name": "resolveDispute",
      "outputs": [],
      "stateMutability": "nonpayable",
      "type": "function"
    },
    {
      "inputs": [
        {
          "internalType": "uint256",
          "name": "gameId",
          "type": "uint256"
        }
      ],
      "name": "closeChallengeWindow",
      "outputs": [],
      "stateMutability": "nonpayable",
      "type": "function"
    },
    {
      "inputs": [
        {
          "internalType": "uint256",
          "name": "disputeId",
          "type": "uint256"
        }
      ],
      "name": "getDispute",
      "outputs": [
        {
          "internalType": "uint256",
          "name": "gameId",
          "type": "uint256"
        },
        {
          "internalType": "address",
          "name": "challenger",
          "type": "address"
        },
        {
          "internalType": "address",
          "name": "accusedPlayer",
          "type": "address"
        },
        {
          "internalType": "enum DisputeDAO.DisputeState",
          "name": "state",
          "type": "uint8"
        },
        {
          "internalType": "uint256",
          "name": "legitVotes",
          "type": "uint256"
        },
        {
          "internalType": "uint256",
          "name": "cheatVotes",
          "type": "uint256"
        },
        {
          "internalType": "enum DisputeDAO.Vote",
          "name": "finalDecision",
          "type": "uint8"
        },
        {
          "internalType": "uint256",
          "name": "escalationLevel",
          "type": "uint256"
        }
      ],
      "stateMutability": "view",
      "type": "function",
      "constant": true
    },
    {
      "inputs": [
        {
          "internalType": "uint256",
          "name": "disputeId",
          "type": "uint256"
        }
      ],
      "name": "getSelectedArbitrators",
      "outputs": [
        {
          "internalType": "address[]",
          "name": "",
          "type": "address[]"
        }
      ],
      "stateMutability": "view",
      "type": "function",
      "constant": true
    },
    {
      "inputs": [
        {
          "internalType": "uint256",
          "name": "disputeId",
          "type": "uint256"
        },
        {
          "internalType": "address",
          "name": "arbitrator",
          "type": "address"
        }
      ],
      "name": "getVoteStatus",
      "outputs": [
        {
          "internalType": "bool",
          "name": "hasCommitted",
          "type": "bool"
        },
        {
          "internalType": "bool",
          "name": "hasRevealed",
          "type": "bool"
        },
        {
          "internalType": "enum DisputeDAO.Vote",
          "name": "revealedVote",
          "type": "uint8"
        }
      ],
      "stateMutability": "view",
      "type": "function",
      "constant": true
    },
    {
      "inputs": [
        {
          "internalType": "uint256",
          "name": "_challengeWindow",
          "type": "uint256"
        },
        {
          "internalType": "uint256",
          "name": "_commitPeriod",
          "type": "uint256"
        },
        {
          "internalType": "uint256",
          "name": "_revealPeriod",
          "type": "uint256"
        },
        {
          "internalType": "uint256",
          "name": "_quorum",
          "type": "uint256"
        },
        {
          "internalType": "uint256",
          "name": "_supermajority",
          "type": "uint256"
        },
        {
          "internalType": "uint256",
          "name": "_challengeDeposit",
          "type": "uint256"
        }
      ],
      "name": "setParameters",
      "outputs": [],
      "stateMutability": "nonpayable",
      "type": "function"
    }
  ],
  "bytecode": "0x60e0346200017057601f620024ee38819003918201601f19168301916001600160401b03831184841017620001745780849260609460405283398101031262000170576200004d8162000188565b620000696040620000616020850162000188565b930162000188565b600180556202a300600255620151806003819055600455600a60055560426006556802b5e3af16b18800006007556001600160a01b0391821692909190831562000170578116918215620001705716918215620001705760805260a05260c052620000d4336200019d565b506040516122c090816200022e82396080518181816101c901528181610f0d0152818161188901528181611bef01528181611d2101528181611d8b01528181611dd60152612150015260a051818181610cd201526117f7015260c0518181816102e3015281816106f801528181610ff3015281816112b201528181611992015281816119e401528181611ad501528181611b270152611fc10152f35b5f80fd5b634e487b7160e01b5f52604160045260245ffd5b51906001600160a01b03821682036200017057565b6001600160a01b03165f8181527fad3228b676f7d3cd4284a5443f17f1962b36e491b30a40b2405849e597ba5fb5602052604081205490919060ff166200022957818052816020526040822081835260205260408220600160ff1982541617905533917f2f8788117e7eff1d82e926ec794901d17c78024a50270940304540a733656f0d8180a4600190565b509056fe6080806040526004361015610012575f80fd5b5f90813560e01c90816301ffc9a7146113d9575080630b05b14f146111995780630d13fd7b1461117b578063141c4e6014610e5d5780631703a01814610e3f578063248a9ca314610e13578063282c874914610d865780632f2ff15d14610d4957806336568abe14610d01578063426eae4514610cbc5780634ac73f4114610ca0578063564a565d14610bae5780635c31f22014610b90578063677edcff14610adb5780637d36f4d314610abd5780637ec2996b14610a805780638110502f14610a56578063861a141214610a3857806391d14854146109ef5780639d213f07146109475780639da691801461087f578063a217fddf14610863578063b619984314610451578063c2b7b86814610425578063cdeed605146103bc578063d23254b414610353578063d547741f14610312578063e2616c8b146102cd578063e3a96cbd14610234578063f713b05214610216578063f9604681146101f8578063fd36b435146101b35763ff6fcdbd14610189575f80fd5b346101b057806003193601126101b05760206040515f8051602061226b8339815191528152f35b80fd5b50346101b057806003193601126101b0576040517f00000000000000000000000000000000000000000000000000000000000000006001600160a01b03168152602090f35b50346101b057806003193601126101b0576020600454604051908152f35b50346101b057806003193601126101b0576020600354604051908152f35b50346101b05760203660031901126101b05760406101009160043581526008602052208054906102c660018060a01b0391826001820154169260028201541660ff6005830154166102b2600984015491600a85015493600e60ff600c8801541696015497604051998a5260208a015260408901526060880190611444565b608086015260a085015260c0840190611465565b60e0820152f35b50346101b057806003193601126101b0576040517f00000000000000000000000000000000000000000000000000000000000000006001600160a01b03168152602090f35b50346101b05760403660031901126101b05761034f60043561033261142e565b908084528360205261034a6001604086200154611472565b61150f565b5080f35b50346101b05760403660031901126101b057604061036f61142e565b9160043581526009602052209060018060a01b03165f52602052606060405f206103ba6001825492015460405192835260ff81161515602084015260ff604084019160081c16611465565bf35b50346101b05760403660031901126101b05760406103d861142e565b9160043581526009602052209060018060a01b03165f52602052606060405f206103ba60018254151592015460405192835260ff81161515602084015260ff604084019160081c16611465565b50346101b05760203660031901126101b05761043f6116c6565b61044a600435611713565b6001805580f35b50346101b05760803660031901126101b05761046b61142e565b6044356001600160a01b038116900361085f57335f9081527ff11d5cd6172e4d486247e8873a157a5cbd86d37171bf6cd250fc0a75f26713f960205260409020545f8051602061226b8339815191529060ff161561084157506004358252600a60205260408220546107af576104e2600c54611582565b600c819055604051602081016001600160401b0381118282101761082d576040908152848252519061020082016001600160401b0381118382101761082d5760405260043582528460208301528460408301528460608301526064356080830152600160a08301528460c08301528460e08301528461010083015284610120830152846101408301528461016083015284610180830152846101a08301526101c0820152836101e082015281845260086020526040842090805182556001820160018060a01b036020830151169060018060a01b031991828254161790556002830160018060a01b0360408401511682825416179055600383019060018060a01b0360608401511690825416179055608081015160048301556005820160a082015160068110156108195760ff8019835416911617905560c0810151600683015560e0810151600783015561010081015160088301556101208101516009830155610140810151600a830155610160810151600b830155600c8201610180820151600481101561081957815460ff61ff006101a0860151151560081b1692169061ffff1916171790556101c081015180519060018060401b03821161080557600160401b821161080557600d84015482600d8601558083106107db575b50602001600d8401875260208720875b8381106107be57505050506101e00151600e91909101556004358352600a6020526040832055817f00000000000000000000000000000000000000000000000000000000000000006001600160a01b0316803b156107af5781604051809263024629a760e51b825281838161074a6044358a600484016115da565b03925af180156107b35761079b575b50507f4612fe0e4f68ac52572c03b03caf17a6522a0e84d5381b5a34db2e9395f77cba60405180610795600435946064359060443590846115f4565b0390a280f35b6107a4906115a4565b6107af57815f610759565b5080fd5b6040513d84823e3d90fd5b82516001600160a01b0316818301556020909201916001016106cf565b600d8501885260208820908382015b81830181106107fa5750506106bf565b8981556001016107ea565b634e487b7160e01b87526041600452602487fd5b634e487b7160e01b87526021600452602487fd5b634e487b7160e01b5f52604160045260245ffd5b6044906040519063e2517d3f60e01b82523360048301526024820152fd5b5f80fd5b50346101b057806003193601126101b057602090604051908152f35b50346101b05760403660031901126101b05760043580825260086020526040822060ff60058201541660068110156109335760020361092f576007015442116107af576108cc33826121e9565b156107af57808252600960205260408220335f5260205260405f20546107af57808252600960205260408220335f5260205260243560405f205533907f3834a2c8ea101e1468b529270d35fbff0a12de32a5a7e5729b8b4dad6fb32c018380a380f35b8280fd5b634e487b7160e01b84526021600452602484fd5b50346101b05760203660031901126101b057600435808252600a6020526040822054801561092f578252600860205260408220600581019081549160ff831660068110156109db576001036109d7576004600c9360ff19161790550161010061ff00198254161790557f4046dd81830080823ff817cf7dc48d363c5fc9c21f48af3932bbd3e212cfd1a78280a280f35b8480fd5b634e487b7160e01b86526021600452602486fd5b50346101b05760403660031901126101b0576040610a0b61142e565b91600435815280602052209060018060a01b03165f52602052602060ff60405f2054166040519015158152f35b50346101b057806003193601126101b0576020600254604051908152f35b50346101b05760203660031901126101b05760406020916004358152600a83522054604051908152f35b50346101b05760203660031901126101b0576004356001600160a01b0381169081900361085f578160409160209352600b83522054604051908152f35b50346101b057806003193601126101b0576020600c54604051908152f35b50346101b0576020806003193601126107af57600435825260088152600d604083200160405192838383549182815201908193835284832090835b818110610b735750505084610b2c9103856115b7565b60405193838594850191818652518092526040850193925b828110610b5357505050500390f35b83516001600160a01b031685528695509381019392810192600101610b44565b82546001600160a01b031684529286019260019283019201610b16565b50346101b057806003193601126101b0576020600654604051908152f35b50346101b05760203660031901126101b0576004358152600860205260409020805490600160a01b6001900390816001820154169180600283015416906003830154166004830154600584015460ff166006850154600786015490600887015492600988015494600a89015496600b8a015498600c8b01549a600e01549b604051809e81526020015260408d015260608c015260808b015260a08a01610c5391611444565b60c089015260e0880152610100870152610120860152610140850152610160840152610c86610180840160ff8316611465565b60081c60ff1615156101a08301526101c08201526101e090f35b50346101b057806003193601126101b057602060405160038152f35b50346101b057806003193601126101b0576040517f00000000000000000000000000000000000000000000000000000000000000006001600160a01b03168152602090f35b50346101b05760403660031901126101b057610d1b61142e565b336001600160a01b03821603610d375761034f9060043561150f565b60405163334bd91960e11b8152600490fd5b50346101b05760403660031901126101b05761034f600435610d6961142e565b9080845283602052610d816001604086200154611472565b611493565b50346101b05760c03660031901126101b057335f9081527fad3228b676f7d3cd4284a5443f17f1962b36e491b30a40b2405849e597ba5fb5602052604090205460ff1615610df55760043560025560243560035560443560045560643560055560843560065560a43560075580f35b60405163e2517d3f60e01b81523360048201525f6024820152604490fd5b50346101b05760203660031901126101b057600160406020926004358152808452200154604051908152f35b50346101b057806003193601126101b0576020600554604051908152f35b50346101b05760403660031901126101b057600435610e7a61142e565b90610e836116c6565b808352602091600a835260408420549081156109d757818552600884526040852093600585019060ff82541695600687101561116757600180970361116357338852600b8252600360408920541015611163576007546040516323b872dd60e01b815291908290610ef9903033600485016115f4565b6001600160a01b039391859183919003818d7f000000000000000000000000000000000000000000000000000000000000000088165af1908115611158578a9161112b575b5015611127578781019360018060a01b0319943386825416179055600282018387168096825416179055600260ff19825416179055426006820155610f856003544261162e565b6007820155610fa2610f996003544261162e565b6004549061162e565b6008820155338952600b835260408920610fbc8154611582565b90558160038201541660405194637d3b24c160e01b86528760048701526024860152604485015260056064850152888460848183867f0000000000000000000000000000000000000000000000000000000000000000165af193841561111c5789946110f5575b50600d019183519360018060401b0385116110e157600160401b85116110e157819084548686558087106110b7575b500192895280892091888a5b8681106110a3578b828b8b7f1efc064a20015d5f957c4c8acb473eb1d3c0ce8e0f48ea8f1b8c4797b360978661109b8d60405191829133836115da565b0390a3805580f35b83838751169601958186015501899061105e565b8a87848e8981522092830192015b8281106110d3575050611052565b8d81558594508c91016110c5565b634e487b7160e01b8a52604160045260248afd5b600d919450611115903d808c833e61110d81836115b7565b81019061163b565b9390611023565b6040513d8b823e3d90fd5b8880fd5b61114b9150843d8611611151575b61114381836115b7565b810190611616565b5f610f3e565b503d611139565b6040513d8c823e3d90fd5b8780fd5b634e487b7160e01b88526021600452602488fd5b50346101b057806003193601126101b0576020600754604051908152f35b50346101b05760603660031901126101b05760043560243590600482101561092f5780835260086020526040832060058101805460ff811660068110156108195790600260ff939214806113cc575b6113be575b50541660068110156113aa576003036113a657600881015442116113a65781845260096020526040842033855260205260408420805490811561139e576001019081549060ff82166113a25785156113a25760405160208101908760f81b825260443560218201523360601b6041820152603581526060810181811060018060401b038211176110e1576040525190200361139e5761ffff1916600885901b61ff0016176001908117909155830361135e576009016112ac8154611582565b90555b827f00000000000000000000000000000000000000000000000000000000000000006001600160a01b0316803b156107af5781906024604051809481936324b07fd160e21b83523360048401525af1801561135357611340575b506113176040518093611465565b7ffb0a2a4b906424480a54d601db26ad920592115a97358d199495345723df34cb60203393a380f35b61134c909391936115a4565b915f611309565b6040513d86823e3d90fd5b6002830361137a57600a016113738154611582565b90556112af565b60038314611389575b506112af565b600b016113968154611582565b90555f611383565b8580fd5b8680fd5b8380fd5b634e487b7160e01b85526021600452602485fd5b82191660031781555f6111ed565b50600784015442116111e8565b9050346107af5760203660031901126107af5760043563ffffffff60e01b811680910361092f5760209250637965db0b60e01b811490811561141d575b5015158152f35b6301ffc9a760e01b1490505f611416565b602435906001600160a01b038216820361085f57565b9060068210156114515752565b634e487b7160e01b5f52602160045260245ffd5b9060048210156114515752565b805f525f60205260405f20335f5260205260ff60405f205416156108415750565b905f9180835282602052604083209160018060a01b03169182845260205260ff604084205416155f1461150a57808352826020526040832082845260205260408320600160ff198254161790557f2f8788117e7eff1d82e926ec794901d17c78024a50270940304540a733656f0d339380a4600190565b505090565b905f9180835282602052604083209160018060a01b03169182845260205260ff6040842054165f1461150a5780835282602052604083208284526020526040832060ff1981541690557ff6391f5c32d9c69d2a47ea670b442974b53935d1edc7fd64eb21e047a839171b339380a4600190565b5f1981146115905760010190565b634e487b7160e01b5f52601160045260245ffd5b6001600160401b03811161082d57604052565b601f909101601f19168101906001600160401b0382119082101761082d57604052565b6001600160a01b0391821681529116602082015260400190565b6001600160a01b03918216815291166020820152604081019190915260600190565b9081602091031261085f5751801515810361085f5790565b9190820180921161159057565b90602090818382031261085f5782516001600160401b039384821161085f570181601f8201121561085f57805193841161082d578360051b9060405194611684858401876115b7565b8552838086019282010192831161085f578301905b8282106116a7575050505090565b81516001600160a01b038116810361085f578152908301908301611699565b6002600154146116d7576002600155565b604051633ee5aeb560e01b8152600490fd5b81156116f3570490565b634e487b7160e01b5f52601260045260245ffd5b8015611590575f190190565b905f9180835260086020526040832091600583019060ff82541660068110156109db5760038114908115611ea2575b50156109d75760088401544211156109d757600c84019360ff855460081c1661139e57600981019081549361177d600a83019586549061162e565b6005548110611e91578354606481029080820460641490151715611e7d57816117a5916116e9565b908654606481029080820460641490151715611e6957906117c5916116e9565b60065491908211611cca575050865460ff19166002908117885586895260086020526040892080549181015490918a917f00000000000000000000000000000000000000000000000000000000000000006001600160a01b03908116929116823b156113a65760448492836040519586948593630750ee8360e21b8552600485015260248401525af180156107b357611cb6575b505061186b6007548060011c9061162e565b6040516370a0823160e01b81523060048201529091906020816024817f00000000000000000000000000000000000000000000000000000000000000006001600160a01b03165afa8015611c725783918c91611c7d575b501015611bb5575b50505b865461ff001916610100178755805460ff19166004179055600101546001600160a01b03168652600b60205260408620805461190890611707565b905583865260086020526040862092865b600d850154811015611b665761193281600d87016121c0565b60018060a01b0391549060031b1c16868952600960205260408920815f52602052600160405f20018960ff82541615611ad0575060ff600c88015416906004821015611abc57908a9291600282149182611a84575b8215611a3d575b50507f00000000000000000000000000000000000000000000000000000000000000006001600160a01b03163b1561092f576040516371609f1960e11b81526004810192909252151560248201528181604481837f00000000000000000000000000000000000000000000000000000000000000006001600160a01b03165af180156107b357611a29575b5050611a2490611582565b611919565b611a32906115a4565b61116357875f611a19565b600114915081611a50575b505f8061198e565b549192505060081c60ff166004811015611a70579060018a92145f611a48565b634e487b7160e01b8a52602160045260248afd5b929350905060ff815460081c166004811015611aa8579060028c9493921491611987565b634e487b7160e01b8c52602160045260248cfd5b634e487b7160e01b8b52602160045260248bfd5b9190507f00000000000000000000000000000000000000000000000000000000000000006001600160a01b03163b156107af576040516371609f1960e11b81526004810191909152602481018290528181604481837f00000000000000000000000000000000000000000000000000000000000000006001600160a01b03165af180156107b357611a29575050611a2490611582565b50909195506060925060ff7faf541d32d08f610bc972c187e7df44798be3b0312f37495ac0513e31eff6467e949554169154905490611ba86040518094611465565b60208301526040820152a2565b600181015460405163a9059cbb60e01b81529060209082908d9082908190611beb9089906001600160a01b031660048401611ec0565b03917f00000000000000000000000000000000000000000000000000000000000000006001600160a01b03165af18015611c725789925f8051602061224b83398151915292602092611c55575b50600101546040519485526001600160a01b031693a35f806118ca565b611c6b90833d85116111515761114381836115b7565b505f611c38565b6040513d8d823e3d90fd5b9150506020813d602011611cae575b81611c99602093836115b7565b81010312611caa578290515f6118c2565b8a80fd5b3d9150611c8c565b611cbf906115a4565b61112757885f611859565b10611e5757600160ff1988541617875585885260086020526040882060075460011c90611d1d6020838c60018060a01b0360028601541660405180958194829363a9059cbb60e01b845260048401611ec0565b03917f00000000000000000000000000000000000000000000000000000000000000006001600160a01b03165af18015611c7257611e38575b50600260018060a01b0391015416875f8051602061224b8339815191526020604051858152a3600754908103908111611e24577f00000000000000000000000000000000000000000000000000000000000000006001600160a01b03163b1561112757604051630852cd8d60e31b815260048101919091528881602481837f00000000000000000000000000000000000000000000000000000000000000006001600160a01b03165af1801561111c57611e11575b506118cd565b611e1d909891986115a4565b965f611e0b565b634e487b7160e01b89526011600452602489fd5b611e509060203d6020116111515761114381836115b7565b505f611d56565b505050935050611e679150611edb565b565b634e487b7160e01b8b52601160045260248bfd5b634e487b7160e01b8a52601160045260248afd5b50505050935050611e679150611edb565b600291501480611eb3575b5f611742565b5060078401544211611ead565b6001600160a01b039091168152602081019190915260400190565b905f918083526020600881526040808520600e8101906003611efd8354611582565b80845510156120f25760058101600260ff1982541617905586600982015586600a82015586600b820155611f336003544261162e565b6007820155611f446003544261162e565b90611f5360049283549061162e565b6008820155825497600198808a1b90808204600214901517156120df5760050191826005116120df57600281015460038201548751637d3b24c160e01b81528681018b90526001600160a01b03928316602482015290821660448201526064810194909452908284608481837f000000000000000000000000000000000000000000000000000000000000000087165af19384156120d55783946120b6575b50600d019280519460018060401b0386116120a357600160401b86116120a3575087908454868655808710612079575b5001928252868220915b8481106120665750505050507f366e7dd2cab048eaff199cb82b06661733696643e03b462e0b2635552275ed1493949550549051908152a2565b8351821683820155928701928a0161202c565b8585528c8784872092830192015b828110612095575050612022565b8681558b94508e9101612087565b634e487b7160e01b845260419052602483fd5b600d9194506120ce903d8086833e61110d81836115b7565b9390611ff2565b87513d85823e3d90fd5b634e487b7160e01b825260118452602482fd5b905060019194959350600c810161010061ff001982541617905560058101600460ff198254161790550160018060a01b039061214a8383835416600754908851938492839263a9059cbb60e01b845260048401611ec0565b038188877f0000000000000000000000000000000000000000000000000000000000000000165af180156121b65790600b94939291612199575b505416835252206121958154611707565b9055565b6121af90843d86116111515761114381836115b7565b505f612184565b86513d87823e3d90fd5b80548210156121d5575f5260205f2001905f90565b634e487b7160e01b5f52603260045260245ffd5b5f526008602052600d60405f2001905f918054925b83811061220d57505050505f90565b61221781836121c0565b905460039190911b1c6001600160a01b03908116908416146122415761223c90611582565b6121fe565b5050505060019056feab7542bafced3da2d8c881cb2dd1de859fac7c20d3650d2902ad389a64e08883ef17b1f3c5a412f9c8e887e3abd186802afec7dc657fd3b7002bf87b128dd0b1a26469706673582212208ce007e98cb517d81383427cdd147966fea5da5fbcdf32b970af370eacab25a564736f6c63430008140033",
  "immutableReferences": {
    "2925": [
      {
        "length": 32,
        "start": 457
      },
      {
        "length": 32,
        "start": 3853
      },
      {
        "length": 32,
        "start": 6281
      },
      {
        "length": 32,
        "start": 7151
      },
      {
        "length": 32,
        "start": 7457
      },
      {
        "length": 32,
        "start": 7563
      },
      {
        "length": 32,
        "start": 7638
      },
      {
        "length": 32,
        "start": 8528
      }
    ],
    "2928": [
      {
        "length": 32,
        "start": 3282
      },
      {
        "length": 32,
        "start": 6135
      }
    ],
    "2931": [
      {
        "length": 32,
        "start": 739
      },
      {
        "length": 32,
        "start": 1784
      },
      {
        "length": 32,
        "start": 4083
      },
      {
        "length": 32,
        "start": 4786
      },
      {
        "length": 32,
        "start": 6546
      },
      {
        "length": 32,
        "start": 6628
      },
      {
        "length": 32,
        "start": 6869
      },
      {
        "length": 32,
        "start": 6951
      },
      {
        "length": 32,
        "start": 8129
      }
    ]
  },
  "source": "// SPDX-License-Identifier: MIT\npragma solidity ^0.8.19;\n\nimport \"@openzeppelin/contracts/access/AccessControl.sol\";\nimport \"@openzeppelin/contracts/utils/ReentrancyGuard.sol\";\nimport \"../Token/ChessToken.sol\";\nimport \"../Token/BondingManager.sol\";\nimport \"./ArbitratorRegistry.sol\";\n\n/**\n * @title DisputeDAO\n * @notice Decentralized dispute resolution for chess games\n * @dev Implements commit-reveal voting with Schelling Point mechanism\n *\n * Key Features:\n * - Challenge window after each game (48h)\n * - Commit-reveal voting to prevent coordination\n * - Multi-level escalation for contested disputes\n * - Slashing for cheaters, rewards for honest challengers\n */\ncontract DisputeDAO is AccessControl, ReentrancyGuard {\n    bytes32 public constant GAME_MANAGER_ROLE = keccak256(\"GAME_MANAGER_ROLE\");\n\n    ChessToken public immutable chessToken;\n    BondingManager public immutable bondingManager;\n    ArbitratorRegistry public immutable arbitratorRegistry;\n\n    // Timing parameters\n    uint256 public challengeWindow = 48 hours;\n    uint256 public commitPeriod = 24 hours;\n    uint256 public revealPeriod = 24 hours;\n\n    // Voting parameters\n    uint256 public quorum = 10;           // Minimum votes required\n    uint256 public supermajority = 66;    // 66% for decision\n    uint256 public challengeDeposit = 50 * 10**18; // 50 CHESS\n\n    // Vote options\n    enum Vote { None, Legit, Cheat, Abstain }\n\n    // Dispute states\n    enum DisputeState {\n        None,\n        Pending,        // Challenge window open\n        Challenged,     // In commit phase\n        Revealing,      // In reveal phase\n        Resolved,       // Decision made\n        Escalated       // Needs higher-level review\n    }\n\n    struct Dispute {\n        uint256 gameId;\n        address challenger;\n        address accusedPlayer;\n        address otherPlayer;\n        uint256 gameStake;\n\n        DisputeState state;\n\n        uint256 challengedAt;\n        uint256 commitDeadline;\n        uint256 revealDeadline;\n\n        uint256 legitVotes;\n        uint256 cheatVotes;\n        uint256 abstainVotes;\n\n        Vote finalDecision;\n        bool resolved;\n\n        address[] selectedArbitrators;\n        uint256 escalationLevel;\n    }\n\n    struct VoteCommit {\n        bytes32 commitHash;\n        bool revealed;\n        Vote vote;\n    }\n\n    // Storage\n    mapping(uint256 => Dispute) public disputes;      // disputeId => Dispute\n    mapping(uint256 => mapping(address => VoteCommit)) public votes; // disputeId => arbitrator => vote\n    mapping(uint256 => uint256) public gameToDispute; // gameId => disputeId\n    mapping(address => uint256) public activeChallenges; // challenger => count\n\n    uint256 public disputeCounter;\n    uint256 public constant MAX_ACTIVE_CHALLENGES = 3;\n\n    // Events\n    event GameRegistered(uint256 indexed gameId, address white, address black, uint256 stake);\n    event DisputeCreated(uint256 indexed disputeId, uint256 indexed gameId, address challenger, address accused);\n    event VoteCommitted(uint256 indexed disputeId, address indexed arbitrator);\n    event VoteRevealed(uint256 indexed disputeId, address indexed arbitrator, Vote vote);\n    event DisputeResolved(uint256 indexed disputeId, Vote decision, uint256 legitVotes, uint256 cheatVotes);\n    event DisputeEscalated(uint256 indexed disputeId, uint256 newLevel);\n    event ChallengeWindowClosed(uint256 indexed gameId);\n    event RewardDistributed(uint256 indexed disputeId, address indexed recipient, uint256 amount);\n\n    constructor(\n        address _chessToken,\n        address _bondingManager,\n        address _arbitratorRegistry\n    ) {\n        require(_chessToken != address(0), \"Invalid token\");\n        require(_bondingManager != address(0), \"Invalid bonding manager\");\n        require(_arbitratorRegistry != address(0), \"Invalid arbitrator registry\");\n\n        chessToken = ChessToken(_chessToken);\n        bondingManager = BondingManager(payable(_bondingManager));\n        arbitratorRegistry = ArbitratorRegistry(_arbitratorRegistry);\n\n        _grantRole(DEFAULT_ADMIN_ROLE, msg.sender);\n    }\n\n    /**\n     * @notice Register a completed game (starts challenge window)\n     * @param gameId Game identifier\n     * @param white White player address\n     * @param black Black player address\n     * @param stake Game stake amount\n     */\n    function registerGame(\n        uint256 gameId,\n        address white,\n        address black,\n        uint256 stake\n    ) external onlyRole(GAME_MANAGER_ROLE) {\n        require(gameToDispute[gameId] == 0, \"Game already registered\");\n\n        disputeCounter++;\n        uint256 disputeId = disputeCounter;\n\n        disputes[disputeId] = Dispute({\n            gameId: gameId,\n            challenger: address(0),\n            accusedPlayer: address(0),\n            otherPlayer: address(0),\n            gameStake: stake,\n            state: DisputeState.Pending,\n            challengedAt: 0,\n            commitDeadline: 0,\n            revealDeadline: 0,\n            legitVotes: 0,\n            cheatVotes: 0,\n            abstainVotes: 0,\n            finalDecision: Vote.None,\n            resolved: false,\n            selectedArbitrators: new address[](0),\n            escalationLevel: 0\n        });\n\n        gameToDispute[gameId] = disputeId;\n\n        // Record game in arbitrator registry for exclusion tracking\n        arbitratorRegistry.recordGame(white, black);\n\n        emit GameRegistered(gameId, white, black, stake);\n    }\n\n    /**\n     * @notice Challenge a game (accuse player of cheating)\n     * @param gameId Game to challenge\n     * @param accusedPlayer Player being accused\n     */\n    function challenge(uint256 gameId, address accusedPlayer) external nonReentrant {\n        uint256 disputeId = gameToDispute[gameId];\n        require(disputeId != 0, \"Game not registered\");\n\n        Dispute storage dispute = disputes[disputeId];\n        require(dispute.state == DisputeState.Pending, \"Not in challenge window\");\n        require(activeChallenges[msg.sender] < MAX_ACTIVE_CHALLENGES, \"Too many active challenges\");\n\n        // Transfer challenge deposit\n        require(\n            chessToken.transferFrom(msg.sender, address(this), challengeDeposit),\n            \"Deposit transfer failed\"\n        );\n\n        dispute.challenger = msg.sender;\n        dispute.accusedPlayer = accusedPlayer;\n        dispute.state = DisputeState.Challenged;\n        dispute.challengedAt = block.timestamp;\n        dispute.commitDeadline = block.timestamp + commitPeriod;\n        dispute.revealDeadline = block.timestamp + commitPeriod + revealPeriod;\n\n        activeChallenges[msg.sender]++;\n\n        // Select arbitrators (5 from each tier = 15 total)\n        address[] memory arbitrators = arbitratorRegistry.selectArbitrators(\n            disputeId,\n            accusedPlayer,\n            dispute.otherPlayer,\n            5\n        );\n        dispute.selectedArbitrators = arbitrators;\n\n        emit DisputeCreated(disputeId, gameId, msg.sender, accusedPlayer);\n    }\n\n    /**\n     * @notice Commit a vote (hash of vote + salt)\n     * @param disputeId Dispute identifier\n     * @param commitHash keccak256(abi.encodePacked(vote, salt, msg.sender))\n     */\n    function commitVote(uint256 disputeId, bytes32 commitHash) external {\n        Dispute storage dispute = disputes[disputeId];\n        require(dispute.state == DisputeState.Challenged, \"Not in commit phase\");\n        require(block.timestamp <= dispute.commitDeadline, \"Commit period ended\");\n        require(_isSelectedArbitrator(disputeId, msg.sender), \"Not selected arbitrator\");\n        require(votes[disputeId][msg.sender].commitHash == bytes32(0), \"Already committed\");\n\n        votes[disputeId][msg.sender].commitHash = commitHash;\n\n        emit VoteCommitted(disputeId, msg.sender);\n    }\n\n    /**\n     * @notice Reveal a previously committed vote\n     * @param disputeId Dispute identifier\n     * @param vote The vote (1=Legit, 2=Cheat, 3=Abstain)\n     * @param salt The salt used in commit\n     */\n    function revealVote(uint256 disputeId, Vote vote, bytes32 salt) external {\n        Dispute storage dispute = disputes[disputeId];\n\n        // Transition to revealing if commit period ended\n        if (dispute.state == DisputeState.Challenged && block.timestamp > dispute.commitDeadline) {\n            dispute.state = DisputeState.Revealing;\n        }\n\n        require(dispute.state == DisputeState.Revealing, \"Not in reveal phase\");\n        require(block.timestamp <= dispute.revealDeadline, \"Reveal period ended\");\n\n        VoteCommit storage voteCommit = votes[disputeId][msg.sender];\n        require(voteCommit.commitHash != bytes32(0), \"No commit found\");\n        require(!voteCommit.revealed, \"Already revealed\");\n        require(vote != Vote.None, \"Invalid vote\");\n\n        // Verify commit hash\n        bytes32 expectedHash = keccak256(abi.encodePacked(vote, salt, msg.sender));\n        require(expectedHash == voteCommit.commitHash, \"Hash mismatch\");\n\n        voteCommit.revealed = true;\n        voteCommit.vote = vote;\n\n        // Count vote\n        if (vote == Vote.Legit) {\n            dispute.legitVotes++;\n        } else if (vote == Vote.Cheat) {\n            dispute.cheatVotes++;\n        } else if (vote == Vote.Abstain) {\n            dispute.abstainVotes++;\n        }\n\n        // Record vote in registry (for cooldown)\n        arbitratorRegistry.recordVote(msg.sender);\n\n        emit VoteRevealed(disputeId, msg.sender, vote);\n    }\n\n    /**\n     * @notice Resolve dispute after reveal period\n     * @param disputeId Dispute identifier\n     */\n    function resolveDispute(uint256 disputeId) external nonReentrant {\n        Dispute storage dispute = disputes[disputeId];\n        require(\n            dispute.state == DisputeState.Revealing ||\n            (dispute.state == DisputeState.Challenged && block.timestamp > dispute.commitDeadline),\n            \"Cannot resolve yet\"\n        );\n        require(block.timestamp > dispute.revealDeadline, \"Reveal period not ended\");\n        require(!dispute.resolved, \"Already resolved\");\n\n        uint256 totalVotes = dispute.legitVotes + dispute.cheatVotes;\n\n        // Check quorum\n        if (totalVotes < quorum) {\n            // Not enough votes - escalate or return deposits\n            _escalate(disputeId);\n            return;\n        }\n\n        // Check for supermajority\n        uint256 legitPercent = (dispute.legitVotes * 100) / totalVotes;\n        uint256 cheatPercent = (dispute.cheatVotes * 100) / totalVotes;\n\n        if (cheatPercent >= supermajority) {\n            // CHEAT: Accused is guilty\n            dispute.finalDecision = Vote.Cheat;\n            _handleCheatDecision(disputeId);\n        } else if (legitPercent >= supermajority) {\n            // LEGIT: Accused is innocent\n            dispute.finalDecision = Vote.Legit;\n            _handleLegitDecision(disputeId);\n        } else {\n            // No clear majority - escalate\n            _escalate(disputeId);\n            return;\n        }\n\n        dispute.resolved = true;\n        dispute.state = DisputeState.Resolved;\n        activeChallenges[dispute.challenger]--;\n\n        // Update arbitrator reputations\n        _updateArbitratorReputations(disputeId);\n\n        emit DisputeResolved(disputeId, dispute.finalDecision, dispute.legitVotes, dispute.cheatVotes);\n    }\n\n    /**\n     * @notice Close challenge window if no challenge was made\n     * @param gameId Game identifier\n     */\n    function closeChallengeWindow(uint256 gameId) external {\n        uint256 disputeId = gameToDispute[gameId];\n        require(disputeId != 0, \"Game not registered\");\n\n        Dispute storage dispute = disputes[disputeId];\n        require(dispute.state == DisputeState.Pending, \"Not pending\");\n\n        // Challenge window implementation would check timestamp\n        // For now, this can be called by game manager after window expires\n        dispute.state = DisputeState.Resolved;\n        dispute.resolved = true;\n\n        emit ChallengeWindowClosed(gameId);\n    }\n\n    // Internal functions\n\n    function _handleCheatDecision(uint256 disputeId) internal {\n        Dispute storage dispute = disputes[disputeId];\n\n        // Slash cheater's bond (burned)\n        bondingManager.slashBond(dispute.gameId, dispute.accusedPlayer);\n\n        // Return challenge deposit + reward to challenger\n        uint256 challengerReward = challengeDeposit + (challengeDeposit / 2); // 150% back\n        if (chessToken.balanceOf(address(this)) >= challengerReward) {\n            chessToken.transfer(dispute.challenger, challengerReward);\n            emit RewardDistributed(disputeId, dispute.challenger, challengerReward);\n        }\n    }\n\n    function _handleLegitDecision(uint256 disputeId) internal {\n        Dispute storage dispute = disputes[disputeId];\n\n        // Challenger loses deposit\n        // 50% to accused (compensation)\n        uint256 accusedCompensation = challengeDeposit / 2;\n        chessToken.transfer(dispute.accusedPlayer, accusedCompensation);\n        emit RewardDistributed(disputeId, dispute.accusedPlayer, accusedCompensation);\n\n        // 50% to arbitrators (distributed in _updateArbitratorReputations)\n        // For simplicity, burn the rest or send to treasury\n        uint256 remaining = challengeDeposit - accusedCompensation;\n        chessToken.burn(remaining);\n    }\n\n    function _escalate(uint256 disputeId) internal {\n        Dispute storage dispute = disputes[disputeId];\n        dispute.escalationLevel++;\n\n        if (dispute.escalationLevel >= 3) {\n            // Max escalation reached - return deposits, no penalty\n            dispute.resolved = true;\n            dispute.state = DisputeState.Resolved;\n            chessToken.transfer(dispute.challenger, challengeDeposit);\n            activeChallenges[dispute.challenger]--;\n            return;\n        }\n\n        // Reset for new round with more arbitrators\n        dispute.state = DisputeState.Challenged;\n        dispute.legitVotes = 0;\n        dispute.cheatVotes = 0;\n        dispute.abstainVotes = 0;\n        dispute.commitDeadline = block.timestamp + commitPeriod;\n        dispute.revealDeadline = block.timestamp + commitPeriod + revealPeriod;\n\n        // Select new arbitrators (more this time)\n        uint256 newCount = 5 + (dispute.escalationLevel * 2); // 7, 9...\n        address[] memory newArbitrators = arbitratorRegistry.selectArbitrators(\n            disputeId,\n            dispute.accusedPlayer,\n            dispute.otherPlayer,\n            newCount\n        );\n        dispute.selectedArbitrators = newArbitrators;\n\n        emit DisputeEscalated(disputeId, dispute.escalationLevel);\n    }\n\n    function _updateArbitratorReputations(uint256 disputeId) internal {\n        Dispute storage dispute = disputes[disputeId];\n\n        for (uint256 i = 0; i < dispute.selectedArbitrators.length; i++) {\n            address arbitrator = dispute.selectedArbitrators[i];\n            VoteCommit storage voteCommit = votes[disputeId][arbitrator];\n\n            if (!voteCommit.revealed) {\n                // Didn't reveal - penalty\n                arbitratorRegistry.updateReputation(arbitrator, false);\n                continue;\n            }\n\n            // Check if voted with majority\n            bool votedWithMajority = (\n                (dispute.finalDecision == Vote.Cheat && voteCommit.vote == Vote.Cheat) ||\n                (dispute.finalDecision == Vote.Legit && voteCommit.vote == Vote.Legit)\n            );\n\n            arbitratorRegistry.updateReputation(arbitrator, votedWithMajority);\n        }\n    }\n\n    function _isSelectedArbitrator(uint256 disputeId, address arbitrator) internal view returns (bool) {\n        address[] storage selected = disputes[disputeId].selectedArbitrators;\n        for (uint256 i = 0; i < selected.length; i++) {\n            if (selected[i] == arbitrator) return true;\n        }\n        return false;\n    }\n\n    // View functions\n\n    function getDispute(uint256 disputeId) external view returns (\n        uint256 gameId,\n        address challenger,\n        address accusedPlayer,\n        DisputeState state,\n        uint256 legitVotes,\n        uint256 cheatVotes,\n        Vote finalDecision,\n        uint256 escalationLevel\n    ) {\n        Dispute storage d = disputes[disputeId];\n        return (\n            d.gameId,\n            d.challenger,\n            d.accusedPlayer,\n            d.state,\n            d.legitVotes,\n            d.cheatVotes,\n            d.finalDecision,\n            d.escalationLevel\n        );\n    }\n\n    function getSelectedArbitrators(uint256 disputeId) external view returns (address[] memory) {\n        return disputes[disputeId].selectedArbitrators;\n    }\n\n    function getVoteStatus(uint256 disputeId, address arbitrator) external view returns (\n        bool hasCommitted,\n        bool hasRevealed,\n        Vote revealedVote\n    ) {\n        VoteCommit storage v = votes[disputeId][arbitrator];\n        hasCommitted = v.commitHash != bytes32(0);\n        hasRevealed = v.revealed;\n        revealedVote = v.vote;\n    }\n\n    // Admin functions\n\n    function setParameters(\n        uint256 _challengeWindow,\n        uint256 _commitPeriod,\n        uint256 _revealPeriod,\n        uint256 _quorum,\n        uint256 _supermajority,\n        uint256 _challengeDeposit\n    ) external onlyRole(DEFAULT_ADMIN_ROLE) {\n        challengeWindow = _challengeWindow;\n        commitPeriod = _commitPeriod;\n        revealPeriod = _revealPeriod;\n        quorum = _quorum;\n        supermajority = _supermajority;\n        challengeDeposit = _challengeDeposit;\n    }\n}\n",
  "sourcePath": "/Users/jacopo/Documents/solidity/chessgame/ethereum/contracts/DAO/DisputeDAO.sol",
  "compiler": {
    "name": "solc",
    "version": "0.8.20+commit.a1b79de6.Emscripten.clang"
  },
  "schemaVersion": "3.4.16",
  "updatedAt": "2026-01-07T00:14:29.469Z",
  "networkType": "ethereum",
  "devdoc": {
    "details": "Implements commit-reveal voting with Schelling Point mechanism Key Features: - Challenge window after each game (48h) - Commit-reveal voting to prevent coordination - Multi-level escalation for contested disputes - Slashing for cheaters, rewards for honest challengers",
    "errors": {
      "AccessControlBadConfirmation()": [
        {
          "details": "The caller of a function is not the expected one. NOTE: Don't confuse with {AccessControlUnauthorizedAccount}."
        }
      ],
      "AccessControlUnauthorizedAccount(address,bytes32)": [
        {
          "details": "The `account` is missing a role."
        }
      ],
      "ReentrancyGuardReentrantCall()": [
        {
          "details": "Unauthorized reentrant call."
        }
      ]
    },
    "events": {
      "RoleAdminChanged(bytes32,bytes32,bytes32)": {
        "details": "Emitted when `newAdminRole` is set as ``role``'s admin role, replacing `previousAdminRole` `DEFAULT_ADMIN_ROLE` is the starting admin for all roles, despite {RoleAdminChanged} not being emitted to signal this."
      },
      "RoleGranted(bytes32,address,address)": {
        "details": "Emitted when `account` is granted `role`. `sender` is the account that originated the contract call. This account bears the admin role (for the granted role). Expected in cases where the role was granted using the internal {AccessControl-_grantRole}."
      },
      "RoleRevoked(bytes32,address,address)": {
        "details": "Emitted when `account` is revoked `role`. `sender` is the account that originated the contract call:   - if using `revokeRole`, it is the admin role bearer   - if using `renounceRole`, it is the role bearer (i.e. `account`)"
      }
    },
    "kind": "dev",
    "methods": {
      "challenge(uint256,address)": {
        "params": {
          "accusedPlayer": "Player being accused",
          "gameId": "Game to challenge"
        }
      },
      "closeChallengeWindow(uint256)": {
        "params": {
          "gameId": "Game identifier"
        }
      },
      "commitVote(uint256,bytes32)": {
        "params": {
          "commitHash": "keccak256(abi.encodePacked(vote, salt, msg.sender))",
          "disputeId": "Dispute identifier"
        }
      },
      "getRoleAdmin(bytes32)": {
        "details": "Returns the admin role that controls `role`. See {grantRole} and {revokeRole}. To change a role's admin, use {_setRoleAdmin}."
      },
      "grantRole(bytes32,address)": {
        "details": "Grants `role` to `account`. If `account` had not been already granted `role`, emits a {RoleGranted} event. Requirements: - the caller must have ``role``'s admin role. May emit a {RoleGranted} event."
      },
      "hasRole(bytes32,address)": {
        "details": "Returns `true` if `account` has been granted `role`."
      },
      "registerGame(uint256,address,address,uint256)": {
        "params": {
          "black": "Black player address",
          "gameId": "Game identifier",
          "stake": "Game stake amount",
          "white": "White player address"
        }
      },
      "renounceRole(bytes32,address)": {
        "details": "Revokes `role` from the calling account. Roles are often managed via {grantRole} and {revokeRole}: this function's purpose is to provide a mechanism for accounts to lose their privileges if they are compromised (such as when a trusted device is misplaced). If the calling account had been revoked `role`, emits a {RoleRevoked} event. Requirements: - the caller must be `callerConfirmation`. May emit a {RoleRevoked} event."
      },
      "resolveDispute(uint256)": {
        "params": {
          "disputeId": "Dispute identifier"
        }
      },
      "revealVote(uint256,uint8,bytes32)": {
        "params": {
          "disputeId": "Dispute identifier",
          "salt": "The salt used in commit",
          "vote": "The vote (1=Legit, 2=Cheat, 3=Abstain)"
        }
      },
      "revokeRole(bytes32,address)": {
        "details": "Revokes `role` from `account`. If `account` had been granted `role`, emits a {RoleRevoked} event. Requirements: - the caller must have ``role``'s admin role. May emit a {RoleRevoked} event."
      },
      "supportsInterface(bytes4)": {
        "details": "Returns true if this contract implements the interface defined by `interfaceId`. See the corresponding https://eips.ethereum.org/EIPS/eip-165#how-interfaces-are-identified[ERC section] to learn more about how these ids are created. This function call must use less than 30 000 gas."
      }
    },
    "title": "DisputeDAO",
    "version": 1
  },
  "userdoc": {
    "kind": "user",
    "methods": {
      "challenge(uint256,address)": {
        "notice": "Challenge a game (accuse player of cheating)"
      },
      "closeChallengeWindow(uint256)": {
        "notice": "Close challenge window if no challenge was made"
      },
      "commitVote(uint256,bytes32)": {
        "notice": "Commit a vote (hash of vote + salt)"
      },
      "registerGame(uint256,address,address,uint256)": {
        "notice": "Register a completed game (starts challenge window)"
      },
      "resolveDispute(uint256)": {
        "notice": "Resolve dispute after reveal period"
      },
      "revealVote(uint256,uint8,bytes32)": {
        "notice": "Reveal a previously committed vote"
      }
    },
    "notice": "Decentralized dispute resolution for chess games",
    "version": 1
  }
}