{
  "contractName": "DisputeDAO",
  "abi": [
    {
      "inputs": [
        {
          "internalType": "address",
          "name": "_chessToken",
          "type": "address"
        },
        {
          "internalType": "address",
          "name": "_bondingManager",
          "type": "address"
        },
        {
          "internalType": "address",
          "name": "_arbitratorRegistry",
          "type": "address"
        }
      ],
      "stateMutability": "nonpayable",
      "type": "constructor"
    },
    {
      "inputs": [],
      "name": "AccessControlBadConfirmation",
      "type": "error"
    },
    {
      "inputs": [
        {
          "internalType": "address",
          "name": "account",
          "type": "address"
        },
        {
          "internalType": "bytes32",
          "name": "neededRole",
          "type": "bytes32"
        }
      ],
      "name": "AccessControlUnauthorizedAccount",
      "type": "error"
    },
    {
      "inputs": [],
      "name": "ReentrancyGuardReentrantCall",
      "type": "error"
    },
    {
      "inputs": [
        {
          "internalType": "address",
          "name": "token",
          "type": "address"
        }
      ],
      "name": "SafeERC20FailedOperation",
      "type": "error"
    },
    {
      "anonymous": false,
      "inputs": [
        {
          "indexed": true,
          "internalType": "uint256",
          "name": "gameId",
          "type": "uint256"
        }
      ],
      "name": "ChallengeWindowClosed",
      "type": "event"
    },
    {
      "anonymous": false,
      "inputs": [
        {
          "indexed": true,
          "internalType": "uint256",
          "name": "disputeId",
          "type": "uint256"
        },
        {
          "indexed": true,
          "internalType": "uint256",
          "name": "gameId",
          "type": "uint256"
        },
        {
          "indexed": false,
          "internalType": "address",
          "name": "challenger",
          "type": "address"
        },
        {
          "indexed": false,
          "internalType": "address",
          "name": "accused",
          "type": "address"
        }
      ],
      "name": "DisputeCreated",
      "type": "event"
    },
    {
      "anonymous": false,
      "inputs": [
        {
          "indexed": true,
          "internalType": "uint256",
          "name": "disputeId",
          "type": "uint256"
        },
        {
          "indexed": false,
          "internalType": "uint256",
          "name": "newLevel",
          "type": "uint256"
        }
      ],
      "name": "DisputeEscalated",
      "type": "event"
    },
    {
      "anonymous": false,
      "inputs": [
        {
          "indexed": true,
          "internalType": "uint256",
          "name": "disputeId",
          "type": "uint256"
        },
        {
          "indexed": false,
          "internalType": "enum DisputeDAO.Vote",
          "name": "decision",
          "type": "uint8"
        },
        {
          "indexed": false,
          "internalType": "uint256",
          "name": "legitVotes",
          "type": "uint256"
        },
        {
          "indexed": false,
          "internalType": "uint256",
          "name": "cheatVotes",
          "type": "uint256"
        }
      ],
      "name": "DisputeResolved",
      "type": "event"
    },
    {
      "anonymous": false,
      "inputs": [
        {
          "indexed": true,
          "internalType": "uint256",
          "name": "gameId",
          "type": "uint256"
        },
        {
          "indexed": false,
          "internalType": "address",
          "name": "white",
          "type": "address"
        },
        {
          "indexed": false,
          "internalType": "address",
          "name": "black",
          "type": "address"
        },
        {
          "indexed": false,
          "internalType": "uint256",
          "name": "stake",
          "type": "uint256"
        }
      ],
      "name": "GameRegistered",
      "type": "event"
    },
    {
      "anonymous": false,
      "inputs": [
        {
          "indexed": true,
          "internalType": "uint256",
          "name": "disputeId",
          "type": "uint256"
        },
        {
          "indexed": true,
          "internalType": "address",
          "name": "recipient",
          "type": "address"
        },
        {
          "indexed": false,
          "internalType": "uint256",
          "name": "amount",
          "type": "uint256"
        }
      ],
      "name": "RewardDistributed",
      "type": "event"
    },
    {
      "anonymous": false,
      "inputs": [
        {
          "indexed": true,
          "internalType": "bytes32",
          "name": "role",
          "type": "bytes32"
        },
        {
          "indexed": true,
          "internalType": "bytes32",
          "name": "previousAdminRole",
          "type": "bytes32"
        },
        {
          "indexed": true,
          "internalType": "bytes32",
          "name": "newAdminRole",
          "type": "bytes32"
        }
      ],
      "name": "RoleAdminChanged",
      "type": "event"
    },
    {
      "anonymous": false,
      "inputs": [
        {
          "indexed": true,
          "internalType": "bytes32",
          "name": "role",
          "type": "bytes32"
        },
        {
          "indexed": true,
          "internalType": "address",
          "name": "account",
          "type": "address"
        },
        {
          "indexed": true,
          "internalType": "address",
          "name": "sender",
          "type": "address"
        }
      ],
      "name": "RoleGranted",
      "type": "event"
    },
    {
      "anonymous": false,
      "inputs": [
        {
          "indexed": true,
          "internalType": "bytes32",
          "name": "role",
          "type": "bytes32"
        },
        {
          "indexed": true,
          "internalType": "address",
          "name": "account",
          "type": "address"
        },
        {
          "indexed": true,
          "internalType": "address",
          "name": "sender",
          "type": "address"
        }
      ],
      "name": "RoleRevoked",
      "type": "event"
    },
    {
      "anonymous": false,
      "inputs": [
        {
          "indexed": true,
          "internalType": "uint256",
          "name": "disputeId",
          "type": "uint256"
        },
        {
          "indexed": true,
          "internalType": "address",
          "name": "arbitrator",
          "type": "address"
        }
      ],
      "name": "VoteCommitted",
      "type": "event"
    },
    {
      "anonymous": false,
      "inputs": [
        {
          "indexed": true,
          "internalType": "uint256",
          "name": "disputeId",
          "type": "uint256"
        },
        {
          "indexed": true,
          "internalType": "address",
          "name": "arbitrator",
          "type": "address"
        },
        {
          "indexed": false,
          "internalType": "enum DisputeDAO.Vote",
          "name": "vote",
          "type": "uint8"
        }
      ],
      "name": "VoteRevealed",
      "type": "event"
    },
    {
      "inputs": [],
      "name": "DEFAULT_ADMIN_ROLE",
      "outputs": [
        {
          "internalType": "bytes32",
          "name": "",
          "type": "bytes32"
        }
      ],
      "stateMutability": "view",
      "type": "function"
    },
    {
      "inputs": [],
      "name": "GAME_MANAGER_ROLE",
      "outputs": [
        {
          "internalType": "bytes32",
          "name": "",
          "type": "bytes32"
        }
      ],
      "stateMutability": "view",
      "type": "function"
    },
    {
      "inputs": [],
      "name": "MAX_ACTIVE_CHALLENGES",
      "outputs": [
        {
          "internalType": "uint256",
          "name": "",
          "type": "uint256"
        }
      ],
      "stateMutability": "view",
      "type": "function"
    },
    {
      "inputs": [],
      "name": "MAX_DISPUTE_DURATION",
      "outputs": [
        {
          "internalType": "uint256",
          "name": "",
          "type": "uint256"
        }
      ],
      "stateMutability": "view",
      "type": "function"
    },
    {
      "inputs": [
        {
          "internalType": "address",
          "name": "",
          "type": "address"
        }
      ],
      "name": "activeChallenges",
      "outputs": [
        {
          "internalType": "uint256",
          "name": "",
          "type": "uint256"
        }
      ],
      "stateMutability": "view",
      "type": "function"
    },
    {
      "inputs": [],
      "name": "arbitratorRegistry",
      "outputs": [
        {
          "internalType": "contract ArbitratorRegistry",
          "name": "",
          "type": "address"
        }
      ],
      "stateMutability": "view",
      "type": "function"
    },
    {
      "inputs": [],
      "name": "bondingManager",
      "outputs": [
        {
          "internalType": "contract BondingManager",
          "name": "",
          "type": "address"
        }
      ],
      "stateMutability": "view",
      "type": "function"
    },
    {
      "inputs": [],
      "name": "challengeDeposit",
      "outputs": [
        {
          "internalType": "uint256",
          "name": "",
          "type": "uint256"
        }
      ],
      "stateMutability": "view",
      "type": "function"
    },
    {
      "inputs": [],
      "name": "challengeWindow",
      "outputs": [
        {
          "internalType": "uint256",
          "name": "",
          "type": "uint256"
        }
      ],
      "stateMutability": "view",
      "type": "function"
    },
    {
      "inputs": [],
      "name": "chessToken",
      "outputs": [
        {
          "internalType": "contract ChessToken",
          "name": "",
          "type": "address"
        }
      ],
      "stateMutability": "view",
      "type": "function"
    },
    {
      "inputs": [],
      "name": "commitPeriod",
      "outputs": [
        {
          "internalType": "uint256",
          "name": "",
          "type": "uint256"
        }
      ],
      "stateMutability": "view",
      "type": "function"
    },
    {
      "inputs": [],
      "name": "disputeCounter",
      "outputs": [
        {
          "internalType": "uint256",
          "name": "",
          "type": "uint256"
        }
      ],
      "stateMutability": "view",
      "type": "function"
    },
    {
      "inputs": [
        {
          "internalType": "uint256",
          "name": "",
          "type": "uint256"
        }
      ],
      "name": "disputes",
      "outputs": [
        {
          "internalType": "uint256",
          "name": "gameId",
          "type": "uint256"
        },
        {
          "internalType": "address",
          "name": "challenger",
          "type": "address"
        },
        {
          "internalType": "address",
          "name": "accusedPlayer",
          "type": "address"
        },
        {
          "internalType": "address",
          "name": "otherPlayer",
          "type": "address"
        },
        {
          "internalType": "uint256",
          "name": "gameStake",
          "type": "uint256"
        },
        {
          "internalType": "enum DisputeDAO.DisputeState",
          "name": "state",
          "type": "uint8"
        },
        {
          "internalType": "uint256",
          "name": "registeredAt",
          "type": "uint256"
        },
        {
          "internalType": "uint256",
          "name": "challengedAt",
          "type": "uint256"
        },
        {
          "internalType": "uint256",
          "name": "commitDeadline",
          "type": "uint256"
        },
        {
          "internalType": "uint256",
          "name": "revealDeadline",
          "type": "uint256"
        },
        {
          "internalType": "uint256",
          "name": "requiredQuorum",
          "type": "uint256"
        },
        {
          "internalType": "uint256",
          "name": "legitVotes",
          "type": "uint256"
        },
        {
          "internalType": "uint256",
          "name": "cheatVotes",
          "type": "uint256"
        },
        {
          "internalType": "uint256",
          "name": "abstainVotes",
          "type": "uint256"
        },
        {
          "internalType": "enum DisputeDAO.Vote",
          "name": "finalDecision",
          "type": "uint8"
        },
        {
          "internalType": "bool",
          "name": "resolved",
          "type": "bool"
        },
        {
          "internalType": "uint256",
          "name": "escalationLevel",
          "type": "uint256"
        }
      ],
      "stateMutability": "view",
      "type": "function"
    },
    {
      "inputs": [
        {
          "internalType": "uint256",
          "name": "",
          "type": "uint256"
        }
      ],
      "name": "gameBlackPlayer",
      "outputs": [
        {
          "internalType": "address",
          "name": "",
          "type": "address"
        }
      ],
      "stateMutability": "view",
      "type": "function"
    },
    {
      "inputs": [
        {
          "internalType": "uint256",
          "name": "",
          "type": "uint256"
        }
      ],
      "name": "gameToDispute",
      "outputs": [
        {
          "internalType": "uint256",
          "name": "",
          "type": "uint256"
        }
      ],
      "stateMutability": "view",
      "type": "function"
    },
    {
      "inputs": [
        {
          "internalType": "uint256",
          "name": "",
          "type": "uint256"
        }
      ],
      "name": "gameWhitePlayer",
      "outputs": [
        {
          "internalType": "address",
          "name": "",
          "type": "address"
        }
      ],
      "stateMutability": "view",
      "type": "function"
    },
    {
      "inputs": [
        {
          "internalType": "bytes32",
          "name": "role",
          "type": "bytes32"
        }
      ],
      "name": "getRoleAdmin",
      "outputs": [
        {
          "internalType": "bytes32",
          "name": "",
          "type": "bytes32"
        }
      ],
      "stateMutability": "view",
      "type": "function"
    },
    {
      "inputs": [
        {
          "internalType": "bytes32",
          "name": "role",
          "type": "bytes32"
        },
        {
          "internalType": "address",
          "name": "account",
          "type": "address"
        }
      ],
      "name": "grantRole",
      "outputs": [],
      "stateMutability": "nonpayable",
      "type": "function"
    },
    {
      "inputs": [
        {
          "internalType": "bytes32",
          "name": "role",
          "type": "bytes32"
        },
        {
          "internalType": "address",
          "name": "account",
          "type": "address"
        }
      ],
      "name": "hasRole",
      "outputs": [
        {
          "internalType": "bool",
          "name": "",
          "type": "bool"
        }
      ],
      "stateMutability": "view",
      "type": "function"
    },
    {
      "inputs": [],
      "name": "quorum",
      "outputs": [
        {
          "internalType": "uint256",
          "name": "",
          "type": "uint256"
        }
      ],
      "stateMutability": "view",
      "type": "function"
    },
    {
      "inputs": [
        {
          "internalType": "bytes32",
          "name": "role",
          "type": "bytes32"
        },
        {
          "internalType": "address",
          "name": "callerConfirmation",
          "type": "address"
        }
      ],
      "name": "renounceRole",
      "outputs": [],
      "stateMutability": "nonpayable",
      "type": "function"
    },
    {
      "inputs": [],
      "name": "revealPeriod",
      "outputs": [
        {
          "internalType": "uint256",
          "name": "",
          "type": "uint256"
        }
      ],
      "stateMutability": "view",
      "type": "function"
    },
    {
      "inputs": [
        {
          "internalType": "bytes32",
          "name": "role",
          "type": "bytes32"
        },
        {
          "internalType": "address",
          "name": "account",
          "type": "address"
        }
      ],
      "name": "revokeRole",
      "outputs": [],
      "stateMutability": "nonpayable",
      "type": "function"
    },
    {
      "inputs": [],
      "name": "supermajority",
      "outputs": [
        {
          "internalType": "uint256",
          "name": "",
          "type": "uint256"
        }
      ],
      "stateMutability": "view",
      "type": "function"
    },
    {
      "inputs": [
        {
          "internalType": "bytes4",
          "name": "interfaceId",
          "type": "bytes4"
        }
      ],
      "name": "supportsInterface",
      "outputs": [
        {
          "internalType": "bool",
          "name": "",
          "type": "bool"
        }
      ],
      "stateMutability": "view",
      "type": "function"
    },
    {
      "inputs": [
        {
          "internalType": "uint256",
          "name": "",
          "type": "uint256"
        },
        {
          "internalType": "address",
          "name": "",
          "type": "address"
        }
      ],
      "name": "votes",
      "outputs": [
        {
          "internalType": "bytes32",
          "name": "commitHash",
          "type": "bytes32"
        },
        {
          "internalType": "bool",
          "name": "revealed",
          "type": "bool"
        },
        {
          "internalType": "enum DisputeDAO.Vote",
          "name": "vote",
          "type": "uint8"
        }
      ],
      "stateMutability": "view",
      "type": "function"
    },
    {
      "inputs": [
        {
          "internalType": "uint256",
          "name": "gameId",
          "type": "uint256"
        },
        {
          "internalType": "address",
          "name": "white",
          "type": "address"
        },
        {
          "internalType": "address",
          "name": "black",
          "type": "address"
        },
        {
          "internalType": "uint256",
          "name": "stake",
          "type": "uint256"
        }
      ],
      "name": "registerGame",
      "outputs": [],
      "stateMutability": "nonpayable",
      "type": "function"
    },
    {
      "inputs": [
        {
          "internalType": "uint256",
          "name": "gameId",
          "type": "uint256"
        },
        {
          "internalType": "address",
          "name": "accusedPlayer",
          "type": "address"
        }
      ],
      "name": "challenge",
      "outputs": [],
      "stateMutability": "nonpayable",
      "type": "function"
    },
    {
      "inputs": [
        {
          "internalType": "uint256",
          "name": "disputeId",
          "type": "uint256"
        },
        {
          "internalType": "bytes32",
          "name": "commitHash",
          "type": "bytes32"
        }
      ],
      "name": "commitVote",
      "outputs": [],
      "stateMutability": "nonpayable",
      "type": "function"
    },
    {
      "inputs": [
        {
          "internalType": "uint256",
          "name": "disputeId",
          "type": "uint256"
        },
        {
          "internalType": "enum DisputeDAO.Vote",
          "name": "vote",
          "type": "uint8"
        },
        {
          "internalType": "bytes32",
          "name": "salt",
          "type": "bytes32"
        }
      ],
      "name": "revealVote",
      "outputs": [],
      "stateMutability": "nonpayable",
      "type": "function"
    },
    {
      "inputs": [
        {
          "internalType": "uint256",
          "name": "disputeId",
          "type": "uint256"
        }
      ],
      "name": "resolveDispute",
      "outputs": [],
      "stateMutability": "nonpayable",
      "type": "function"
    },
    {
      "inputs": [
        {
          "internalType": "uint256",
          "name": "gameId",
          "type": "uint256"
        }
      ],
      "name": "closeChallengeWindow",
      "outputs": [],
      "stateMutability": "nonpayable",
      "type": "function"
    },
    {
      "inputs": [
        {
          "internalType": "uint256",
          "name": "gameId",
          "type": "uint256"
        }
      ],
      "name": "isChallengeWindowOpen",
      "outputs": [
        {
          "internalType": "bool",
          "name": "",
          "type": "bool"
        }
      ],
      "stateMutability": "view",
      "type": "function"
    },
    {
      "inputs": [
        {
          "internalType": "uint256",
          "name": "gameId",
          "type": "uint256"
        }
      ],
      "name": "getChallengeWindowRemaining",
      "outputs": [
        {
          "internalType": "uint256",
          "name": "",
          "type": "uint256"
        }
      ],
      "stateMutability": "view",
      "type": "function"
    },
    {
      "inputs": [
        {
          "internalType": "uint256",
          "name": "disputeId",
          "type": "uint256"
        }
      ],
      "name": "getDispute",
      "outputs": [
        {
          "internalType": "uint256",
          "name": "gameId",
          "type": "uint256"
        },
        {
          "internalType": "address",
          "name": "challenger",
          "type": "address"
        },
        {
          "internalType": "address",
          "name": "accusedPlayer",
          "type": "address"
        },
        {
          "internalType": "enum DisputeDAO.DisputeState",
          "name": "state",
          "type": "uint8"
        },
        {
          "internalType": "uint256",
          "name": "legitVotes",
          "type": "uint256"
        },
        {
          "internalType": "uint256",
          "name": "cheatVotes",
          "type": "uint256"
        },
        {
          "internalType": "enum DisputeDAO.Vote",
          "name": "finalDecision",
          "type": "uint8"
        },
        {
          "internalType": "uint256",
          "name": "escalationLevel",
          "type": "uint256"
        }
      ],
      "stateMutability": "view",
      "type": "function"
    },
    {
      "inputs": [
        {
          "internalType": "uint256",
          "name": "disputeId",
          "type": "uint256"
        }
      ],
      "name": "getSelectedArbitrators",
      "outputs": [
        {
          "internalType": "address[]",
          "name": "",
          "type": "address[]"
        }
      ],
      "stateMutability": "view",
      "type": "function"
    },
    {
      "inputs": [
        {
          "internalType": "uint256",
          "name": "disputeId",
          "type": "uint256"
        }
      ],
      "name": "getEffectiveQuorum",
      "outputs": [
        {
          "internalType": "uint256",
          "name": "",
          "type": "uint256"
        }
      ],
      "stateMutability": "view",
      "type": "function"
    },
    {
      "inputs": [
        {
          "internalType": "uint256",
          "name": "disputeId",
          "type": "uint256"
        },
        {
          "internalType": "address",
          "name": "arbitrator",
          "type": "address"
        }
      ],
      "name": "getVoteStatus",
      "outputs": [
        {
          "internalType": "bool",
          "name": "hasCommitted",
          "type": "bool"
        },
        {
          "internalType": "bool",
          "name": "hasRevealed",
          "type": "bool"
        },
        {
          "internalType": "enum DisputeDAO.Vote",
          "name": "revealedVote",
          "type": "uint8"
        }
      ],
      "stateMutability": "view",
      "type": "function"
    },
    {
      "inputs": [
        {
          "internalType": "uint256",
          "name": "_challengeWindow",
          "type": "uint256"
        },
        {
          "internalType": "uint256",
          "name": "_commitPeriod",
          "type": "uint256"
        },
        {
          "internalType": "uint256",
          "name": "_revealPeriod",
          "type": "uint256"
        },
        {
          "internalType": "uint256",
          "name": "_quorum",
          "type": "uint256"
        },
        {
          "internalType": "uint256",
          "name": "_supermajority",
          "type": "uint256"
        },
        {
          "internalType": "uint256",
          "name": "_challengeDeposit",
          "type": "uint256"
        }
      ],
      "name": "setParameters",
      "outputs": [],
      "stateMutability": "nonpayable",
      "type": "function"
    }
  ],
  "bytecode": "0x60e0346200017057601f6200295038819003918201601f19168301916001600160401b03831184841017620001745780849260609460405283398101031262000170576200004d8162000188565b620000696040620000616020850162000188565b930162000188565b600180556202a300600255620151806003819055600455600a60055560426006556802b5e3af16b18800006007556001600160a01b0391821692909190831562000170578116918215620001705716918215620001705760805260a05260c052620000d4336200019d565b50604051612710908162000220823960805181818161020b015281816111f901528181611b3201528181611b9f01528181611f0e01528181611fd8015281816120f501526125e4015260a051818181610e370152611aa1015260c051818181610325015281816107db015281816112de015281816115a801528181611ca501528181611cf701528181611de901528181611e3b015261245e0152f35b5f80fd5b634e487b7160e01b5f52604160045260245ffd5b51906001600160a01b03821682036200017057565b6001600160a01b03165f8181525f8051602062002930833981519152602052604090205460ff166200021a575f8181525f805160206200293083398151915260205260408120805460ff191660011790553391907f2f8788117e7eff1d82e926ec794901d17c78024a50270940304540a733656f0d8180a4600190565b505f9056fe60a0806040526004361015610012575f80fd5b5f905f3560e01c90816301ffc9a7146116f65750806309d5086e146116c45780630b05b14f146114905780630d13fd7b1461147257806311c618ca1461144b578063141c4e60146110f45780631703a018146110d65780631ad3939c146110ad578063248a9ca314611081578063282c874914610f4b5780632b3a0de014610f185780632f2ff15d14610edb5780632f30acd314610eae57806336568abe14610e66578063426eae4514610e215780634ac73f4114610e05578063564a565d14610cd35780635c31f22014610cb5578063677edcff14610c005780637d36f4d314610be25780637ec2996b14610ba55780638110502f14610b7b578063861a141214610b5d57806391d1485414610b145780639d213f0714610a685780639da69180146109a0578063a217fddf14610984578063aceac5af14610966578063b619984314610493578063c2b7b86814610467578063cdeed605146103fe578063d23254b414610395578063d547741f14610354578063e2616c8b1461030f578063e3a96cbd14610276578063f713b05214610258578063f96046811461023a578063fd36b435146101f55763ff6fcdbd146101cb575f80fd5b346101f257806003193601126101f25760206040515f805160206126bb8339815191528152f35b80fd5b50346101f257806003193601126101f2576040517f00000000000000000000000000000000000000000000000000000000000000006001600160a01b03168152602090f35b50346101f257806003193601126101f2576020600454604051908152f35b50346101f257806003193601126101f2576020600354604051908152f35b50346101f25760203660031901126101f257604061010091600435815260086020522080549061030860018060a01b0391826001820154169260028201541660ff6005830154166102f4600b84015491600c85015493601060ff600e8801541696015497604051998a5260208a01526040890152606088019061175f565b608086015260a085015260c084019061176c565b60e0820152f35b50346101f257806003193601126101f2576040517f00000000000000000000000000000000000000000000000000000000000000006001600160a01b03168152602090f35b50346101f25760403660031901126101f257610391600435610374611749565b908084528360205261038c6001604086200154612198565b612235565b5080f35b50346101f25760403660031901126101f25760406103b1611749565b9160043581526009602052209060018060a01b03165f52602052606060405f206103fc6001825492015460405192835260ff81161515602084015260ff604084019160081c1661176c565bf35b50346101f25760403660031901126101f257604061041a611749565b9160043581526009602052209060018060a01b03165f52602052606060405f206103fc60018254151592015460405192835260ff81161515602084015260ff604084019160081c1661176c565b50346101f25760203660031901126101f257610481612159565b61048c600435611987565b6001805580f35b50346101f25760803660031901126101f2576104ad611749565b6044356001600160a01b038116900361096257335f9081527ff11d5cd6172e4d486247e8873a157a5cbd86d37171bf6cd250fc0a75f26713f960205260409020545f805160206126bb8339815191529060ff161561094457506004358252600a602052604082205461088a576001600160a01b038116151580610930575b1561088a576001600160a01b038181166044359091161461088a57610551600e546117af565b600e819055604051602081016001600160401b0381118282101761091c576040908152848252519061024082016001600160401b0381118382101761091c5760405260043582528460208301528460408301528460608301526064356080830152600160a08301524260c08301528460e08301528461010083015284610120830152846101408301528461016083015284610180830152846101a0830152846101c0830152846101e083015261020082015283610220820152818452600860205260408420908051825560018060a01b0360208201511660018060a01b03196001840154161760018301556002820160018060a01b0360408301511660018060a01b03198254161790556003820160018060a01b0360608301511660018060a01b03198254161790556080810151600483015560a081015160068110156109085760ff8019600585015416911617600583015560c0810151600683015560e0810151600783015561010081015160088301556101208101516009830155610140810151600a830155610160810151600b830155610180810151600c8301556101a0810151600d830155600e82016101c082015160048110156108f457815460ff61ff006101e0860151151560081b1692169061ffff19161717905561020081015180519060018060401b0382116108e057600160401b82116108e057600f84015482600f8601558083106108b6575b50602001600f8401875260208720875b83811061089957505050506102200151601091909101556004358352600a6020908152604080852092909255600b815281842080546001600160a01b038581166001600160a01b031992831617909255600c90925291842080546044358416921691909117905582907f000000000000000000000000000000000000000000000000000000000000000016803b1561088a5781604051809263024629a760e51b82528183816108256044358a600484016118d6565b03925af1801561088e57610876575b50507f4612fe0e4f68ac52572c03b03caf17a6522a0e84d5381b5a34db2e9395f77cba604051806108706004359460643590604435908461193b565b0390a280f35b61087f90611779565b61088a57815f610834565b5080fd5b6040513d84823e3d90fd5b82516001600160a01b031681830155602090920191600101610770565b600f8501885260208820908382015b81830181106108d5575050610760565b8981556001016108c5565b634e487b7160e01b87526041600452602487fd5b634e487b7160e01b87526021600452602487fd5b634e487b7160e01b86526021600452602486fd5b634e487b7160e01b5f52604160045260245ffd5b506044356001600160a01b0316151561052b565b6044906040519063e2517d3f60e01b82523360048301526024820152fd5b5f80fd5b50346101f257806003193601126101f257602060405162278d008152f35b50346101f257806003193601126101f257602090604051908152f35b50346101f25760403660031901126101f25760043580825260086020526040822060ff6005820154166006811015610a5457600203610a505760080154421161088a576109ed33826122d0565b1561088a57808252600960205260408220335f5260205260405f205461088a57808252600960205260408220335f5260205260243560405f205533907f3834a2c8ea101e1468b529270d35fbff0a12de32a5a7e5729b8b4dad6fb32c018380a380f35b8280fd5b634e487b7160e01b84526021600452602484fd5b50346101f25760203660031901126101f257600435808252600a60205260408220548015610a50578252600860205260408220600581019081549160ff8316600681101561090857600103610b1057610ac86006830154600254906117d1565b421115610b10576004600e9360ff19161790550161010061ff00198254161790557f4046dd81830080823ff817cf7dc48d363c5fc9c21f48af3932bbd3e212cfd1a78280a280f35b8480fd5b50346101f25760403660031901126101f2576040610b30611749565b91600435815280602052209060018060a01b03165f52602052602060ff60405f2054166040519015158152f35b50346101f257806003193601126101f2576020600254604051908152f35b50346101f25760203660031901126101f25760406020916004358152600a83522054604051908152f35b50346101f25760203660031901126101f2576004356001600160a01b03811690819003610962578160409160209352600d83522054604051908152f35b50346101f257806003193601126101f2576020600e54604051908152f35b50346101f25760208060031936011261088a57600435825260088152600f604083200160405192838383549182815201908193835284832090835b818110610c985750505084610c5191038561178c565b60405193838594850191818652518092526040850193925b828110610c7857505050500390f35b83516001600160a01b031685528695509381019392810192600101610c69565b82546001600160a01b031684529286019260019283019201610c3b565b50346101f257806003193601126101f2576020600654604051908152f35b50346101f25760203660031901126101f257600435815260086020526040902080549080600160a01b60019003806001830154169080600284015416906003840154166004840154600585015460ff166006860154600787015490600888015492600989015494600a8a015496600b8b015498600c8c01549a600d8d01549c600e01549d601001549e604051608052608051526080516020015260805160400152608051606001526080516080015260805160a001610d919161175f565b60805160c0015260805160e00152608051610100015260805161012001526080516101400152608051610160015260805161018001526080516101a001526080516101c00160ff821690610de49161176c565b60081c60ff1615156080516101e00152608051610200015260805161022090f35b50346101f257806003193601126101f257602060405160038152f35b50346101f257806003193601126101f2576040517f00000000000000000000000000000000000000000000000000000000000000006001600160a01b03168152602090f35b50346101f25760403660031901126101f257610e80611749565b336001600160a01b03821603610e9c5761039190600435612235565b60405163334bd91960e11b8152600490fd5b50346101f25760203660031901126101f257600a6040602092600435815260088452200154604051908152f35b50346101f25760403660031901126101f257610391600435610efb611749565b9080845283602052610f136001604086200154612198565b6121b9565b50346101f25760203660031901126101f2576020906004358152600c8252604060018060a01b0391205416604051908152f35b50346101f25760c03660031901126101f257335f9081527fad3228b676f7d3cd4284a5443f17f1962b36e491b30a40b2405849e597ba5fb5602052604090205460a43590608435906064359060443590602435906004359060ff161561106357610e108082101580611056575b15611045578083101580611049575b156110455783101580611038575b1561101e5760038410158061102d575b1561101e57603385101580611022575b1561101e57670de0b6b3a7640000861061101e5760025560035560045560055560065560075580f35b8680fd5b506064851115610ff5565b506064841115610fe5565b5062093a80831115610fd5565b8780fd5b5062093a80831115610fc7565b5062093a80821115610fb8565b60405163e2517d3f60e01b81523360048201525f6024820152604490fd5b50346101f25760203660031901126101f257600160406020926004358152808452200154604051908152f35b50346101f25760203660031901126101f25760206110cc6004356118f0565b6040519015158152f35b50346101f257806003193601126101f2576020600554604051908152f35b50346101f25760403660031901126101f257600435611111611749565b9061111a612159565b808352602091600a83526040842054908115610b10578185526008845260408520838652600b855260018060a01b038060408820541695600c81528160408920541691600584019760ff8954169860068a1015611437578a906001809b0361088a57338252600d855260036040832054101561088a57838816958387149384801561142e575b1561142a576111b660068a0154600254906117d1565b421161142a57859461121e6111e86111f66007546040519283918d6323b872dd60e01b9084015230336024850161193b565b03601f19810183528261178c565b877f000000000000000000000000000000000000000000000000000000000000000016612620565b898e0180546001600160a01b0319908116331790915560028b01805482168b1790559450156114225750915b8360038901931690835416178255600260ff19825416179055426007870155611275600354426117d1565b6008870155611292611289600354426117d1565b600454906117d1565b6009870155338b52600d845260408b206112ac81546117af565b9055541660405193637d3b24c160e01b85528760048601526024850152604484015260056064840152888360848183857f0000000000000000000000000000000000000000000000000000000000000000165af19283156114175789936113f3575b50825191600f850191906001600160401b0384116113df57600160401b84116113df5782548484558085106113b8575b50808501928b52808b20918a8c5b8681106113a457505050505050509161139c91600a61138c7f1efc064a20015d5f957c4c8acb473eb1d3c0ce8e0f48ea8f1b8c4797b3609786955161217c565b91015560405191829133836118d6565b0390a3805580f35b838387511696019581860155018b9061134c565b8a85838e8781522092830192015b8281106113d457505061133e565b8d8155018b906113c6565b634e487b7160e01b8b52604160045260248bfd5b6114109193503d808b833e611408818361178c565b81019061184b565b915f61130e565b6040513d8b823e3d90fd5b90509161124a565b8380fd5b508188146111a0565b634e487b7160e01b8b52602160045260248bfd5b50346101f25760203660031901126101f257602061146a6004356117eb565b604051908152f35b50346101f257806003193601126101f2576020600754604051908152f35b50346109625760603660031901126109625760043560243590600482101561096257805f52600860205260405f206005810180549060ff821691600683101561169557600260ff9314806116b7575b6116a9575b505416600681101561169557600303610962576009810154421161096257815f52600960205260405f20335f5260205260405f208054908115610962576001019081549060ff82166109625785156109625760405160208101908760f81b825260443560218201523360601b6041820152603581526060810181811060018060401b0382111761091c57604052519020036109625761ffff1916600885901b61ff0016176001908117909155830361165557600b016115a381546117af565b90555b7f00000000000000000000000000000000000000000000000000000000000000006001600160a01b0316803b15610962575f80916024604051809481936324b07fd160e21b83523360048401525af1801561164a57611637575b5061160e604051809361176c565b7ffb0a2a4b906424480a54d601db26ad920592115a97358d199495345723df34cb60203393a380f35b611642919350611779565b5f915f611600565b6040513d5f823e3d90fd5b6002830361167157600c0161166a81546117af565b90556115a6565b60038314611680575b506115a6565b600d0161168d81546117af565b90555f61167a565b634e487b7160e01b5f52602160045260245ffd5b82191660031781555f6114e4565b50600884015442116114df565b34610962576020366003190112610962576004355f52600b602052602060018060a01b0360405f205416604051908152f35b34610962576020366003190112610962576004359063ffffffff60e01b821680920361096257602091637965db0b60e01b8114908115611738575b5015158152f35b6301ffc9a760e01b14905083611731565b602435906001600160a01b038216820361096257565b9060068210156116955752565b9060048210156116955752565b6001600160401b03811161091c57604052565b601f909101601f19168101906001600160401b0382119082101761091c57604052565b5f1981146117bd5760010190565b634e487b7160e01b5f52601160045260245ffd5b919082018092116117bd57565b919082039182116117bd57565b5f52600a60205260405f20548015611846575f52600860205260405f2060ff6005820154166006811015611695576001036118465760060154600254611830916117d1565b80421015611846576118439042906117de565b90565b505f90565b9060209081838203126109625782516001600160401b0393848211610962570181601f8201121561096257805193841161091c578360051b90604051946118948584018761178c565b85528380860192820101928311610962578301905b8282106118b7575050505090565b81516001600160a01b03811681036109625781529083019083016118a9565b6001600160a01b0391821681529116602082015260400190565b5f52600a60205260405f20548015611846575f52600860205260405f2060ff6005820154166006811015611695576001036118465760060154600254611935916117d1565b42111590565b6001600160a01b03918216815291166020820152604081019190915260600190565b80156117bd575f190190565b8115611973570490565b634e487b7160e01b5f52601260045260245ffd5b905f91805f52600860205260405f2091600e83015460ff8160081c1661096257600684015462278d0081018091116117bd5742116120b7575060ff60058401541660068110156116955760038114908115612099575b501561096257600983015442111561096257611a10611a05600b850154600c860154906117d1565b600d850154906117d1565b600a840154801590811561208f575b5061208257600b8401546064810290808204606414901517156117bd5781611a4691611969565b90600c85015490816064810204606414821517156117bd576064611a6a9202611969565b60065491908211611fa1575050600e8301805460ff19166002908117909155828552600860205260408520805491810154909186917f00000000000000000000000000000000000000000000000000000000000000006001600160a01b03908116929116823b1561142a5760448492836040519586948593630750ee8360e21b8552600485015260248401525af1801561088e57611f8d575b5050611b156007548060011c906117d1565b6040516370a0823160e01b815230600482015290916020826024817f00000000000000000000000000000000000000000000000000000000000000006001600160a01b03165afa8015611f825785928891611f4d575b50838110611ed3575060010180545f8051602061269b83398151915291602091611bc49086906001600160a01b03908116907f00000000000000000000000000000000000000000000000000000000000000001661232b565b546040519485526001600160a01b031693a35b600e8301805461ff00191661010017905560058301805460ff1916600417905560018301546001600160a01b03168452600d602052604084208054611c1b9061195d565b905581845260086020526040842090845b600f830154811015611e8f57611c4581600f85016122a7565b60018060a01b0391549060031b1c16848752600960205260408720815f52602052600160405f20018760ff82541615611de4575060ff600e86015416906004821015611dd05790889291600282149182611d98575b8215611d51575b50507f00000000000000000000000000000000000000000000000000000000000000006001600160a01b03163b15610a50576040516371609f1960e11b81526004810192909252151560248201528181604481837f00000000000000000000000000000000000000000000000000000000000000006001600160a01b03165af1801561088e57611d39575b5050600101935b93611c2c565b611d4290611779565b611d4d57855f611d2c565b8580fd5b600114915081611d64575b505f80611ca1565b549192505060081c60ff166004811015611d84579060018892145f611d5c565b634e487b7160e01b88526021600452602488fd5b929350905060ff815460081c166004811015611dbc579060028a9493921491611c9a565b634e487b7160e01b8a52602160045260248afd5b634e487b7160e01b89526021600452602489fd5b9190507f00000000000000000000000000000000000000000000000000000000000000006001600160a01b03163b1561088a576040516371609f1960e11b81526004810191909152602481018290528181604481837f00000000000000000000000000000000000000000000000000000000000000006001600160a01b03165af1801561088e57611e7b575b505060010193611d33565b611e8490611779565b611d4d57855f611e70565b509350509060605f8051602061267b8339815191529160ff600e8201541690600c600b82015491015490611ec6604051809461176c565b60208301526040820152a2565b809350611ee3575b505050611bd7565b60010180545f8051602061269b83398151915291602091611f339086906001600160a01b03908116907f00000000000000000000000000000000000000000000000000000000000000001661232b565b546040519485526001600160a01b031693a35f8281611edb565b9250506020823d602011611f7a575b81611f696020938361178c565b8101031261101e578491515f611b6b565b3d9150611f5c565b6040513d89823e3d90fd5b611f9690611779565b610b1057845f611b03565b1061207457600160ff19600e8501541617600e840155815f52600860205260405f2061202a60075460011c60018060a01b036002817f000000000000000000000000000000000000000000000000000000000000000016940161200883838354168761232b565b5416855f8051602061269b8339815191526020604051858152a36007546117de565b813b15610962575f91602483926040519485938492630852cd8d60e31b845260048401525af1801561164a57612061575b50611bd7565b61206c919450611779565b5f925f61205b565b9250612080915061237a565b565b509250612080915061237a565b905081105f611a1f565b6002915014806120aa575b5f6119dd565b50600883015442116120a4565b61ff00191661010017600e84015560058301805460ff191660041790556001909201805460075493945091926001600160a01b039261211b919084167f0000000000000000000000000000000000000000000000000000000000000000851661232b565b54165f52600d60205260405f20612132815461195d565b90555f8051602061267b83398151915260606040515f81525f60208201525f6040820152a2565b60026001541461216a576002600155565b604051633ee5aeb560e01b8152600490fd5b600281106118465760055480821015612193575090565b905090565b805f525f60205260405f20335f5260205260ff60405f205416156109445750565b90815f525f60205260405f209060018060a01b031690815f5260205260ff60405f205416155f1461222f57815f525f60205260405f20815f5260205260405f20600160ff1982541617905533917f2f8788117e7eff1d82e926ec794901d17c78024a50270940304540a733656f0d5f80a4600190565b50505f90565b90815f525f60205260405f209060018060a01b031690815f5260205260ff60405f2054165f1461222f57815f525f60205260405f20815f5260205260405f2060ff19815416905533917ff6391f5c32d9c69d2a47ea670b442974b53935d1edc7fd64eb21e047a839171b5f80a4600190565b80548210156122bc575f5260205f2001905f90565b634e487b7160e01b5f52603260045260245ffd5b5f526008602052600f60405f2001905f918054925b8381106122f457505050505f90565b6122fe81836122a7565b905460039190911b1c6001600160a01b0390811690841614612322576001016122e5565b50505050600190565b60405163a9059cbb60e01b60208201526001600160a01b03909216602483015260448083019390935291815260808101916001600160401b0383118284101761091c5761208092604052612620565b90815f526020916008835260405f209260108401600361239a82546117af565b80835510156125a55760058501600260ff198254161790555f600b8601555f600c8601555f600d8601556123d0600354426117d1565b60088601556123e1600354426117d1565b946123f06004968754906117d1565b600982015581546001908060011b908082046002149015171561259257600501968760051161257f5760028301546003840154604051637d3b24c160e01b81528381018990526001600160a01b039283166024820152908216604482015260648101999099525f89608481837f000000000000000000000000000000000000000000000000000000000000000086165af198891561164a575f99612563575b50885191600f850191906001600160401b03841161255057600160401b841161255057508154838355808410612529575b50868a01915f52865f20905f5b84811061251657505050505050600a6125097f366e7dd2cab048eaff199cb82b06661733696643e03b462e0b2635552275ed149596975161217c565b91015554604051908152a2565b83518216838201559288019285016124cd565b825f528484895f2092830192015b8281106125455750506124c0565b5f8155018590612537565b604190634e487b7160e01b5f525260245ffd5b6125789199503d805f833e611408818361178c565b975f61248f565b601190634e487b7160e01b5f525260245ffd5b601188634e487b7160e01b5f525260245ffd5b50905082600e600d93940161010061ff001982541617905560058101600460ff198254161790556001808060a01b0391016126098282541660075490847f00000000000000000000000000000000000000000000000000000000000000001661232b565b54165f525260405f2061261c815461195d565b9055565b905f602091828151910182855af11561164a575f513d61267157506001600160a01b0381163b155b61264f5750565b604051635274afe760e01b81526001600160a01b039091166004820152602490fd5b6001141561264856feaf541d32d08f610bc972c187e7df44798be3b0312f37495ac0513e31eff6467eab7542bafced3da2d8c881cb2dd1de859fac7c20d3650d2902ad389a64e08883ef17b1f3c5a412f9c8e887e3abd186802afec7dc657fd3b7002bf87b128dd0b1a264697066735822122059076f55be7e9a4c08c064d2437cd9885b291760597411ea3ee4443d1702e84564736f6c63430008180033ad3228b676f7d3cd4284a5443f17f1962b36e491b30a40b2405849e597ba5fb5",
  "immutableReferences": {
    "23828": [
      {
        "length": 32,
        "start": 523
      },
      {
        "length": 32,
        "start": 4601
      },
      {
        "length": 32,
        "start": 6962
      },
      {
        "length": 32,
        "start": 7071
      },
      {
        "length": 32,
        "start": 7950
      },
      {
        "length": 32,
        "start": 8152
      },
      {
        "length": 32,
        "start": 8437
      },
      {
        "length": 32,
        "start": 9700
      }
    ],
    "23831": [
      {
        "length": 32,
        "start": 3639
      },
      {
        "length": 32,
        "start": 6817
      }
    ],
    "23834": [
      {
        "length": 32,
        "start": 805
      },
      {
        "length": 32,
        "start": 2011
      },
      {
        "length": 32,
        "start": 4830
      },
      {
        "length": 32,
        "start": 5544
      },
      {
        "length": 32,
        "start": 7333
      },
      {
        "length": 32,
        "start": 7415
      },
      {
        "length": 32,
        "start": 7657
      },
      {
        "length": 32,
        "start": 7739
      },
      {
        "length": 32,
        "start": 9310
      }
    ]
  },
  "source": "// SPDX-License-Identifier: MIT\npragma solidity ^0.8.24;\n\nimport \"@openzeppelin/contracts/access/AccessControl.sol\";\nimport \"@openzeppelin/contracts/utils/ReentrancyGuard.sol\";\nimport \"@openzeppelin/contracts/token/ERC20/utils/SafeERC20.sol\";\nimport \"../Token/ChessToken.sol\";\nimport \"../Token/BondingManager.sol\";\nimport \"./ArbitratorRegistry.sol\";\n\n/**\n * @title DisputeDAO\n * @notice Decentralized dispute resolution for chess games\n * @dev Implements commit-reveal voting with Schelling Point mechanism\n *\n * Key Features:\n * - Challenge window after each game (48h)\n * - Commit-reveal voting to prevent coordination\n * - Multi-level escalation for contested disputes\n * - Slashing for cheaters, rewards for honest challengers\n */\ncontract DisputeDAO is AccessControl, ReentrancyGuard {\n    using SafeERC20 for ChessToken;\n\n    bytes32 public constant GAME_MANAGER_ROLE = keccak256(\"GAME_MANAGER_ROLE\");\n\n    ChessToken public immutable chessToken;\n    BondingManager public immutable bondingManager;\n    ArbitratorRegistry public immutable arbitratorRegistry;\n\n    // Timing parameters\n    uint256 public challengeWindow = 48 hours;\n    uint256 public commitPeriod = 24 hours;\n    uint256 public revealPeriod = 24 hours;\n\n    // Voting parameters\n    uint256 public quorum = 10;           // Minimum votes required\n    uint256 public supermajority = 66;    // 66% for decision\n    uint256 public challengeDeposit = 50 * 10**18; // 50 CHESS\n\n    // Vote options\n    enum Vote { None, Legit, Cheat, Abstain }\n\n    // Dispute states\n    enum DisputeState {\n        None,\n        Pending,        // Challenge window open\n        Challenged,     // In commit phase\n        Revealing,      // In reveal phase\n        Resolved,       // Decision made\n        Escalated       // Needs higher-level review\n    }\n\n    struct Dispute {\n        uint256 gameId;\n        address challenger;\n        address accusedPlayer;\n        address otherPlayer;\n        uint256 gameStake;\n\n        DisputeState state;\n\n        uint256 registeredAt;      // When game was registered (start of challenge window)\n        uint256 challengedAt;\n        uint256 commitDeadline;\n        uint256 revealDeadline;\n        uint256 requiredQuorum;\n\n        uint256 legitVotes;\n        uint256 cheatVotes;\n        uint256 abstainVotes;\n\n        Vote finalDecision;\n        bool resolved;\n\n        address[] selectedArbitrators;\n        uint256 escalationLevel;\n    }\n\n    struct VoteCommit {\n        bytes32 commitHash;\n        bool revealed;\n        Vote vote;\n    }\n\n    // Storage\n    mapping(uint256 => Dispute) public disputes;      // disputeId => Dispute\n    mapping(uint256 => mapping(address => VoteCommit)) public votes; // disputeId => arbitrator => vote\n    mapping(uint256 => uint256) public gameToDispute; // gameId => disputeId\n    mapping(uint256 => address) public gameWhitePlayer; // gameId => white player\n    mapping(uint256 => address) public gameBlackPlayer; // gameId => black player\n    mapping(address => uint256) public activeChallenges; // challenger => count\n\n    uint256 public disputeCounter;\n    uint256 public constant MAX_ACTIVE_CHALLENGES = 3;\n    uint256 public constant MAX_DISPUTE_DURATION = 30 days;\n    uint256 private constant PERCENTAGE_BASE = 100;\n    uint256 private constant MIN_EFFECTIVE_QUORUM = 2;\n\n    // Events\n    event GameRegistered(uint256 indexed gameId, address white, address black, uint256 stake);\n    event DisputeCreated(uint256 indexed disputeId, uint256 indexed gameId, address challenger, address accused);\n    event VoteCommitted(uint256 indexed disputeId, address indexed arbitrator);\n    event VoteRevealed(uint256 indexed disputeId, address indexed arbitrator, Vote vote);\n    event DisputeResolved(uint256 indexed disputeId, Vote decision, uint256 legitVotes, uint256 cheatVotes);\n    event DisputeEscalated(uint256 indexed disputeId, uint256 newLevel);\n    event ChallengeWindowClosed(uint256 indexed gameId);\n    event RewardDistributed(uint256 indexed disputeId, address indexed recipient, uint256 amount);\n\n    constructor(\n        address _chessToken,\n        address _bondingManager,\n        address _arbitratorRegistry\n    ) {\n        require(_chessToken != address(0), \"Invalid token\");\n        require(_bondingManager != address(0), \"Invalid bonding manager\");\n        require(_arbitratorRegistry != address(0), \"Invalid arbitrator registry\");\n\n        chessToken = ChessToken(_chessToken);\n        bondingManager = BondingManager(payable(_bondingManager));\n        arbitratorRegistry = ArbitratorRegistry(_arbitratorRegistry);\n\n        _grantRole(DEFAULT_ADMIN_ROLE, msg.sender);\n    }\n\n    /**\n     * @notice Register a completed game (starts challenge window)\n     * @param gameId Game identifier\n     * @param white White player address\n     * @param black Black player address\n     * @param stake Game stake amount\n     */\n    function registerGame(\n        uint256 gameId,\n        address white,\n        address black,\n        uint256 stake\n    ) external onlyRole(GAME_MANAGER_ROLE) {\n        require(gameToDispute[gameId] == 0, \"Game already registered\");\n        require(white != address(0) && black != address(0), \"Invalid players\");\n        require(white != black, \"Same player\");\n\n        disputeCounter++;\n        uint256 disputeId = disputeCounter;\n\n        disputes[disputeId] = Dispute({\n            gameId: gameId,\n            challenger: address(0),\n            accusedPlayer: address(0),\n            otherPlayer: address(0),\n            gameStake: stake,\n            state: DisputeState.Pending,\n            registeredAt: block.timestamp,  // Track when challenge window opens\n            challengedAt: 0,\n            commitDeadline: 0,\n            revealDeadline: 0,\n            requiredQuorum: 0,\n            legitVotes: 0,\n            cheatVotes: 0,\n            abstainVotes: 0,\n            finalDecision: Vote.None,\n            resolved: false,\n            selectedArbitrators: new address[](0),\n            escalationLevel: 0\n        });\n\n        gameToDispute[gameId] = disputeId;\n        gameWhitePlayer[gameId] = white;\n        gameBlackPlayer[gameId] = black;\n\n        // Record game in arbitrator registry for exclusion tracking\n        arbitratorRegistry.recordGame(white, black);\n\n        emit GameRegistered(gameId, white, black, stake);\n    }\n\n    /**\n     * @notice Challenge a game (accuse player of cheating)\n     * @param gameId Game to challenge\n     * @param accusedPlayer Player being accused\n     */\n    function challenge(uint256 gameId, address accusedPlayer) external nonReentrant {\n        uint256 disputeId = gameToDispute[gameId];\n        require(disputeId != 0, \"Game not registered\");\n\n        Dispute storage dispute = disputes[disputeId];\n        address white = gameWhitePlayer[gameId];\n        address black = gameBlackPlayer[gameId];\n        require(dispute.state == DisputeState.Pending, \"Not in challenge window\");\n        require(activeChallenges[msg.sender] < MAX_ACTIVE_CHALLENGES, \"Too many active challenges\");\n        require(accusedPlayer == white || accusedPlayer == black, \"Accused not in game\");\n\n        // Enforce challenge window (48 hours from registration)\n        require(\n            block.timestamp <= dispute.registeredAt + challengeWindow,\n            \"Challenge window expired\"\n        );\n\n        // Transfer challenge deposit (using SafeERC20)\n        chessToken.safeTransferFrom(msg.sender, address(this), challengeDeposit);\n\n        dispute.challenger = msg.sender;\n        dispute.accusedPlayer = accusedPlayer;\n        dispute.otherPlayer = (accusedPlayer == white) ? black : white;\n        dispute.state = DisputeState.Challenged;\n        dispute.challengedAt = block.timestamp;\n        dispute.commitDeadline = block.timestamp + commitPeriod;\n        dispute.revealDeadline = block.timestamp + commitPeriod + revealPeriod;\n\n        activeChallenges[msg.sender]++;\n\n        // Select arbitrators (5 from each tier = 15 total)\n        address[] memory arbitrators = arbitratorRegistry.selectArbitrators(\n            disputeId,\n            accusedPlayer,\n            dispute.otherPlayer,\n            5\n        );\n        dispute.selectedArbitrators = arbitrators;\n        dispute.requiredQuorum = _calculateRequiredQuorum(arbitrators.length);\n\n        emit DisputeCreated(disputeId, gameId, msg.sender, accusedPlayer);\n    }\n\n    /**\n     * @notice Commit a vote (hash of vote + salt)\n     * @param disputeId Dispute identifier\n     * @param commitHash keccak256(abi.encodePacked(vote, salt, msg.sender))\n     */\n    function commitVote(uint256 disputeId, bytes32 commitHash) external {\n        Dispute storage dispute = disputes[disputeId];\n        require(dispute.state == DisputeState.Challenged, \"Not in commit phase\");\n        require(block.timestamp <= dispute.commitDeadline, \"Commit period ended\");\n        require(_isSelectedArbitrator(disputeId, msg.sender), \"Not selected arbitrator\");\n        require(votes[disputeId][msg.sender].commitHash == bytes32(0), \"Already committed\");\n\n        votes[disputeId][msg.sender].commitHash = commitHash;\n\n        emit VoteCommitted(disputeId, msg.sender);\n    }\n\n    /**\n     * @notice Reveal a previously committed vote\n     * @param disputeId Dispute identifier\n     * @param vote The vote (1=Legit, 2=Cheat, 3=Abstain)\n     * @param salt The salt used in commit\n     */\n    function revealVote(uint256 disputeId, Vote vote, bytes32 salt) external {\n        Dispute storage dispute = disputes[disputeId];\n\n        // Transition to revealing if commit period ended\n        if (dispute.state == DisputeState.Challenged && block.timestamp > dispute.commitDeadline) {\n            dispute.state = DisputeState.Revealing;\n        }\n\n        require(dispute.state == DisputeState.Revealing, \"Not in reveal phase\");\n        require(block.timestamp <= dispute.revealDeadline, \"Reveal period ended\");\n\n        VoteCommit storage voteCommit = votes[disputeId][msg.sender];\n        require(voteCommit.commitHash != bytes32(0), \"No commit found\");\n        require(!voteCommit.revealed, \"Already revealed\");\n        require(vote != Vote.None, \"Invalid vote\");\n\n        // Verify commit hash\n        bytes32 expectedHash = keccak256(abi.encodePacked(vote, salt, msg.sender));\n        require(expectedHash == voteCommit.commitHash, \"Hash mismatch\");\n\n        voteCommit.revealed = true;\n        voteCommit.vote = vote;\n\n        // Count vote\n        if (vote == Vote.Legit) {\n            dispute.legitVotes++;\n        } else if (vote == Vote.Cheat) {\n            dispute.cheatVotes++;\n        } else if (vote == Vote.Abstain) {\n            dispute.abstainVotes++;\n        }\n\n        // Record vote in registry (for cooldown)\n        arbitratorRegistry.recordVote(msg.sender);\n\n        emit VoteRevealed(disputeId, msg.sender, vote);\n    }\n\n    /**\n     * @notice Resolve dispute after reveal period\n     * @param disputeId Dispute identifier\n     */\n    function resolveDispute(uint256 disputeId) external nonReentrant {\n        Dispute storage dispute = disputes[disputeId];\n        require(!dispute.resolved, \"Already resolved\");\n\n        // L-6: Absolute maximum dispute duration to prevent indefinite escalation\n        if (block.timestamp > dispute.registeredAt + MAX_DISPUTE_DURATION) {\n            dispute.resolved = true;\n            dispute.state = DisputeState.Resolved;\n            // Return challenger deposit without penalty - timeout not their fault\n            chessToken.safeTransfer(dispute.challenger, challengeDeposit);\n            activeChallenges[dispute.challenger]--;\n            emit DisputeResolved(disputeId, Vote.None, 0, 0);\n            return;\n        }\n\n        require(\n            dispute.state == DisputeState.Revealing ||\n            (dispute.state == DisputeState.Challenged && block.timestamp > dispute.commitDeadline),\n            \"Cannot resolve yet\"\n        );\n        require(block.timestamp > dispute.revealDeadline, \"Reveal period not ended\");\n\n        uint256 totalVotes = dispute.legitVotes + dispute.cheatVotes + dispute.abstainVotes;\n        uint256 requiredQuorum = dispute.requiredQuorum;\n\n        // Check quorum\n        if (requiredQuorum == 0 || totalVotes < requiredQuorum) {\n            // Not enough votes - escalate or return deposits\n            _escalate(disputeId);\n            return;\n        }\n\n        // Check for supermajority\n        uint256 legitPercent = (dispute.legitVotes * PERCENTAGE_BASE) / totalVotes;\n        uint256 cheatPercent = (dispute.cheatVotes * PERCENTAGE_BASE) / totalVotes;\n\n        if (cheatPercent >= supermajority) {\n            // CHEAT: Accused is guilty\n            dispute.finalDecision = Vote.Cheat;\n            _handleCheatDecision(disputeId);\n        } else if (legitPercent >= supermajority) {\n            // LEGIT: Accused is innocent\n            dispute.finalDecision = Vote.Legit;\n            _handleLegitDecision(disputeId);\n        } else {\n            // No clear majority - escalate\n            _escalate(disputeId);\n            return;\n        }\n\n        dispute.resolved = true;\n        dispute.state = DisputeState.Resolved;\n        activeChallenges[dispute.challenger]--;\n\n        // Update arbitrator reputations\n        _updateArbitratorReputations(disputeId);\n\n        emit DisputeResolved(disputeId, dispute.finalDecision, dispute.legitVotes, dispute.cheatVotes);\n    }\n\n    /**\n     * @notice Close challenge window if no challenge was made\n     * @param gameId Game identifier\n     */\n    function closeChallengeWindow(uint256 gameId) external {\n        uint256 disputeId = gameToDispute[gameId];\n        require(disputeId != 0, \"Game not registered\");\n\n        Dispute storage dispute = disputes[disputeId];\n        require(dispute.state == DisputeState.Pending, \"Not pending\");\n\n        // Enforce that challenge window has actually expired\n        require(\n            block.timestamp > dispute.registeredAt + challengeWindow,\n            \"Challenge window still open\"\n        );\n\n        dispute.state = DisputeState.Resolved;\n        dispute.resolved = true;\n\n        emit ChallengeWindowClosed(gameId);\n    }\n\n    /**\n     * @notice Check if challenge window is still open for a game\n     * @param gameId Game identifier\n     * @return True if window is still open\n     */\n    function isChallengeWindowOpen(uint256 gameId) external view returns (bool) {\n        uint256 disputeId = gameToDispute[gameId];\n        if (disputeId == 0) return false;\n\n        Dispute storage dispute = disputes[disputeId];\n        if (dispute.state != DisputeState.Pending) return false;\n\n        return block.timestamp <= dispute.registeredAt + challengeWindow;\n    }\n\n    /**\n     * @notice Get time remaining in challenge window\n     * @param gameId Game identifier\n     * @return Seconds remaining (0 if expired or not registered)\n     */\n    function getChallengeWindowRemaining(uint256 gameId) external view returns (uint256) {\n        uint256 disputeId = gameToDispute[gameId];\n        if (disputeId == 0) return 0;\n\n        Dispute storage dispute = disputes[disputeId];\n        if (dispute.state != DisputeState.Pending) return 0;\n\n        uint256 deadline = dispute.registeredAt + challengeWindow;\n        if (block.timestamp >= deadline) return 0;\n\n        return deadline - block.timestamp;\n    }\n\n    // Internal functions\n\n    function _handleCheatDecision(uint256 disputeId) internal {\n        Dispute storage dispute = disputes[disputeId];\n\n        // Slash cheater's bond (burned)\n        bondingManager.slashBond(dispute.gameId, dispute.accusedPlayer);\n\n        // Return challenge deposit + reward to challenger (using SafeERC20)\n        uint256 challengerReward = challengeDeposit + (challengeDeposit / 2); // 150% back\n        uint256 balance = chessToken.balanceOf(address(this));\n        if (balance >= challengerReward) {\n            chessToken.safeTransfer(dispute.challenger, challengerReward);\n            emit RewardDistributed(disputeId, dispute.challenger, challengerReward);\n        } else if (balance > 0) {\n            // Transfer whatever is available\n            chessToken.safeTransfer(dispute.challenger, balance);\n            emit RewardDistributed(disputeId, dispute.challenger, balance);\n        }\n    }\n\n    function _handleLegitDecision(uint256 disputeId) internal {\n        Dispute storage dispute = disputes[disputeId];\n\n        // Challenger loses deposit\n        // 50% to accused (compensation) - using SafeERC20\n        uint256 accusedCompensation = challengeDeposit / 2;\n        chessToken.safeTransfer(dispute.accusedPlayer, accusedCompensation);\n        emit RewardDistributed(disputeId, dispute.accusedPlayer, accusedCompensation);\n\n        // 50% burned (deflationary)\n        uint256 remaining = challengeDeposit - accusedCompensation;\n        chessToken.burn(remaining);\n    }\n\n    function _escalate(uint256 disputeId) internal {\n        Dispute storage dispute = disputes[disputeId];\n        dispute.escalationLevel++;\n\n        if (dispute.escalationLevel >= 3) {\n            // Max escalation reached - return deposits, no penalty (using SafeERC20)\n            dispute.resolved = true;\n            dispute.state = DisputeState.Resolved;\n            chessToken.safeTransfer(dispute.challenger, challengeDeposit);\n            activeChallenges[dispute.challenger]--;\n            return;\n        }\n\n        // Reset for new round with more arbitrators\n        dispute.state = DisputeState.Challenged;\n        dispute.legitVotes = 0;\n        dispute.cheatVotes = 0;\n        dispute.abstainVotes = 0;\n        dispute.commitDeadline = block.timestamp + commitPeriod;\n        dispute.revealDeadline = block.timestamp + commitPeriod + revealPeriod;\n\n        // Select new arbitrators (more this time)\n        uint256 newCount = 5 + (dispute.escalationLevel * 2); // 7, 9...\n        address[] memory newArbitrators = arbitratorRegistry.selectArbitrators(\n            disputeId,\n            dispute.accusedPlayer,\n            dispute.otherPlayer,\n            newCount\n        );\n        dispute.selectedArbitrators = newArbitrators;\n        dispute.requiredQuorum = _calculateRequiredQuorum(newArbitrators.length);\n\n        emit DisputeEscalated(disputeId, dispute.escalationLevel);\n    }\n\n    function _calculateRequiredQuorum(uint256 selectedCount) internal view returns (uint256) {\n        if (selectedCount < MIN_EFFECTIVE_QUORUM) {\n            return 0;\n        }\n        return selectedCount < quorum ? selectedCount : quorum;\n    }\n\n    function _updateArbitratorReputations(uint256 disputeId) internal {\n        Dispute storage dispute = disputes[disputeId];\n\n        for (uint256 i = 0; i < dispute.selectedArbitrators.length;) {\n            address arbitrator = dispute.selectedArbitrators[i];\n            VoteCommit storage voteCommit = votes[disputeId][arbitrator];\n\n            if (!voteCommit.revealed) {\n                // Didn't reveal - penalty\n                arbitratorRegistry.updateReputation(arbitrator, false);\n                unchecked { ++i; }\n                continue;\n            }\n\n            // Check if voted with majority\n            bool votedWithMajority = (\n                (dispute.finalDecision == Vote.Cheat && voteCommit.vote == Vote.Cheat) ||\n                (dispute.finalDecision == Vote.Legit && voteCommit.vote == Vote.Legit)\n            );\n\n            arbitratorRegistry.updateReputation(arbitrator, votedWithMajority);\n            unchecked { ++i; }\n        }\n    }\n\n    function _isSelectedArbitrator(uint256 disputeId, address arbitrator) internal view returns (bool) {\n        address[] storage selected = disputes[disputeId].selectedArbitrators;\n        for (uint256 i = 0; i < selected.length;) {\n            if (selected[i] == arbitrator) return true;\n            unchecked { ++i; }\n        }\n        return false;\n    }\n\n    // View functions\n\n    function getDispute(uint256 disputeId) external view returns (\n        uint256 gameId,\n        address challenger,\n        address accusedPlayer,\n        DisputeState state,\n        uint256 legitVotes,\n        uint256 cheatVotes,\n        Vote finalDecision,\n        uint256 escalationLevel\n    ) {\n        Dispute storage d = disputes[disputeId];\n        return (\n            d.gameId,\n            d.challenger,\n            d.accusedPlayer,\n            d.state,\n            d.legitVotes,\n            d.cheatVotes,\n            d.finalDecision,\n            d.escalationLevel\n        );\n    }\n\n    function getSelectedArbitrators(uint256 disputeId) external view returns (address[] memory) {\n        return disputes[disputeId].selectedArbitrators;\n    }\n\n    function getEffectiveQuorum(uint256 disputeId) external view returns (uint256) {\n        return disputes[disputeId].requiredQuorum;\n    }\n\n    function getVoteStatus(uint256 disputeId, address arbitrator) external view returns (\n        bool hasCommitted,\n        bool hasRevealed,\n        Vote revealedVote\n    ) {\n        VoteCommit storage v = votes[disputeId][arbitrator];\n        hasCommitted = v.commitHash != bytes32(0);\n        hasRevealed = v.revealed;\n        revealedVote = v.vote;\n    }\n\n    // Admin functions\n\n    function setParameters(\n        uint256 _challengeWindow,\n        uint256 _commitPeriod,\n        uint256 _revealPeriod,\n        uint256 _quorum,\n        uint256 _supermajority,\n        uint256 _challengeDeposit\n    ) external onlyRole(DEFAULT_ADMIN_ROLE) {\n        require(_challengeWindow >= 1 hours && _challengeWindow <= 7 days, \"Invalid challenge window\");\n        require(_commitPeriod >= 1 hours && _commitPeriod <= 7 days, \"Invalid commit period\");\n        require(_revealPeriod >= 1 hours && _revealPeriod <= 7 days, \"Invalid reveal period\");\n        require(_quorum >= 3 && _quorum <= 100, \"Invalid quorum\");\n        require(_supermajority >= 51 && _supermajority <= 100, \"Invalid supermajority\");\n        require(_challengeDeposit >= 1 * 10**18, \"Challenge deposit too low\");\n\n        challengeWindow = _challengeWindow;\n        commitPeriod = _commitPeriod;\n        revealPeriod = _revealPeriod;\n        quorum = _quorum;\n        supermajority = _supermajority;\n        challengeDeposit = _challengeDeposit;\n    }\n}\n",
  "sourcePath": "/Users/jacopo/Documents/development/chessgame/ethereum/contracts/DAO/DisputeDAO.sol",
  "compiler": {
    "name": "solc",
    "version": "0.8.24+commit.e11b9ed9.Emscripten.clang"
  },
  "schemaVersion": "3.4.16",
  "updatedAt": "2026-03-15T18:53:54.376Z",
  "devdoc": {
    "details": "Implements commit-reveal voting with Schelling Point mechanism Key Features: - Challenge window after each game (48h) - Commit-reveal voting to prevent coordination - Multi-level escalation for contested disputes - Slashing for cheaters, rewards for honest challengers",
    "errors": {
      "AccessControlBadConfirmation()": [
        {
          "details": "The caller of a function is not the expected one. NOTE: Don't confuse with {AccessControlUnauthorizedAccount}."
        }
      ],
      "AccessControlUnauthorizedAccount(address,bytes32)": [
        {
          "details": "The `account` is missing a role."
        }
      ],
      "ReentrancyGuardReentrantCall()": [
        {
          "details": "Unauthorized reentrant call."
        }
      ],
      "SafeERC20FailedOperation(address)": [
        {
          "details": "An operation with an ERC-20 token failed."
        }
      ]
    },
    "events": {
      "RoleAdminChanged(bytes32,bytes32,bytes32)": {
        "details": "Emitted when `newAdminRole` is set as ``role``'s admin role, replacing `previousAdminRole` `DEFAULT_ADMIN_ROLE` is the starting admin for all roles, despite {RoleAdminChanged} not being emitted to signal this."
      },
      "RoleGranted(bytes32,address,address)": {
        "details": "Emitted when `account` is granted `role`. `sender` is the account that originated the contract call. This account bears the admin role (for the granted role). Expected in cases where the role was granted using the internal {AccessControl-_grantRole}."
      },
      "RoleRevoked(bytes32,address,address)": {
        "details": "Emitted when `account` is revoked `role`. `sender` is the account that originated the contract call:   - if using `revokeRole`, it is the admin role bearer   - if using `renounceRole`, it is the role bearer (i.e. `account`)"
      }
    },
    "kind": "dev",
    "methods": {
      "challenge(uint256,address)": {
        "params": {
          "accusedPlayer": "Player being accused",
          "gameId": "Game to challenge"
        }
      },
      "closeChallengeWindow(uint256)": {
        "params": {
          "gameId": "Game identifier"
        }
      },
      "commitVote(uint256,bytes32)": {
        "params": {
          "commitHash": "keccak256(abi.encodePacked(vote, salt, msg.sender))",
          "disputeId": "Dispute identifier"
        }
      },
      "getChallengeWindowRemaining(uint256)": {
        "params": {
          "gameId": "Game identifier"
        },
        "returns": {
          "_0": "Seconds remaining (0 if expired or not registered)"
        }
      },
      "getRoleAdmin(bytes32)": {
        "details": "Returns the admin role that controls `role`. See {grantRole} and {revokeRole}. To change a role's admin, use {_setRoleAdmin}."
      },
      "grantRole(bytes32,address)": {
        "details": "Grants `role` to `account`. If `account` had not been already granted `role`, emits a {RoleGranted} event. Requirements: - the caller must have ``role``'s admin role. May emit a {RoleGranted} event."
      },
      "hasRole(bytes32,address)": {
        "details": "Returns `true` if `account` has been granted `role`."
      },
      "isChallengeWindowOpen(uint256)": {
        "params": {
          "gameId": "Game identifier"
        },
        "returns": {
          "_0": "True if window is still open"
        }
      },
      "registerGame(uint256,address,address,uint256)": {
        "params": {
          "black": "Black player address",
          "gameId": "Game identifier",
          "stake": "Game stake amount",
          "white": "White player address"
        }
      },
      "renounceRole(bytes32,address)": {
        "details": "Revokes `role` from the calling account. Roles are often managed via {grantRole} and {revokeRole}: this function's purpose is to provide a mechanism for accounts to lose their privileges if they are compromised (such as when a trusted device is misplaced). If the calling account had been revoked `role`, emits a {RoleRevoked} event. Requirements: - the caller must be `callerConfirmation`. May emit a {RoleRevoked} event."
      },
      "resolveDispute(uint256)": {
        "params": {
          "disputeId": "Dispute identifier"
        }
      },
      "revealVote(uint256,uint8,bytes32)": {
        "params": {
          "disputeId": "Dispute identifier",
          "salt": "The salt used in commit",
          "vote": "The vote (1=Legit, 2=Cheat, 3=Abstain)"
        }
      },
      "revokeRole(bytes32,address)": {
        "details": "Revokes `role` from `account`. If `account` had been granted `role`, emits a {RoleRevoked} event. Requirements: - the caller must have ``role``'s admin role. May emit a {RoleRevoked} event."
      },
      "supportsInterface(bytes4)": {
        "details": "Returns true if this contract implements the interface defined by `interfaceId`. See the corresponding https://eips.ethereum.org/EIPS/eip-165#how-interfaces-are-identified[ERC section] to learn more about how these ids are created. This function call must use less than 30 000 gas."
      }
    },
    "title": "DisputeDAO",
    "version": 1
  },
  "userdoc": {
    "kind": "user",
    "methods": {
      "challenge(uint256,address)": {
        "notice": "Challenge a game (accuse player of cheating)"
      },
      "closeChallengeWindow(uint256)": {
        "notice": "Close challenge window if no challenge was made"
      },
      "commitVote(uint256,bytes32)": {
        "notice": "Commit a vote (hash of vote + salt)"
      },
      "getChallengeWindowRemaining(uint256)": {
        "notice": "Get time remaining in challenge window"
      },
      "isChallengeWindowOpen(uint256)": {
        "notice": "Check if challenge window is still open for a game"
      },
      "registerGame(uint256,address,address,uint256)": {
        "notice": "Register a completed game (starts challenge window)"
      },
      "resolveDispute(uint256)": {
        "notice": "Resolve dispute after reveal period"
      },
      "revealVote(uint256,uint8,bytes32)": {
        "notice": "Reveal a previously committed vote"
      }
    },
    "notice": "Decentralized dispute resolution for chess games",
    "version": 1
  }
}