{
  "contractName": "PlayerRating",
  "abi": [
    {
      "inputs": [],
      "stateMutability": "nonpayable",
      "type": "constructor"
    },
    {
      "inputs": [],
      "name": "AccessControlBadConfirmation",
      "type": "error"
    },
    {
      "inputs": [
        {
          "internalType": "address",
          "name": "account",
          "type": "address"
        },
        {
          "internalType": "bytes32",
          "name": "neededRole",
          "type": "bytes32"
        }
      ],
      "name": "AccessControlUnauthorizedAccount",
      "type": "error"
    },
    {
      "anonymous": false,
      "inputs": [
        {
          "indexed": true,
          "internalType": "address",
          "name": "white",
          "type": "address"
        },
        {
          "indexed": true,
          "internalType": "address",
          "name": "black",
          "type": "address"
        },
        {
          "indexed": false,
          "internalType": "uint8",
          "name": "result",
          "type": "uint8"
        },
        {
          "indexed": false,
          "internalType": "uint256",
          "name": "whiteRatingChange",
          "type": "uint256"
        },
        {
          "indexed": false,
          "internalType": "uint256",
          "name": "blackRatingChange",
          "type": "uint256"
        }
      ],
      "name": "GameRecorded",
      "type": "event"
    },
    {
      "anonymous": false,
      "inputs": [
        {
          "indexed": true,
          "internalType": "address",
          "name": "player",
          "type": "address"
        },
        {
          "indexed": false,
          "internalType": "uint256",
          "name": "initialRating",
          "type": "uint256"
        }
      ],
      "name": "PlayerRegistered",
      "type": "event"
    },
    {
      "anonymous": false,
      "inputs": [
        {
          "indexed": true,
          "internalType": "address",
          "name": "player",
          "type": "address"
        },
        {
          "indexed": false,
          "internalType": "uint256",
          "name": "oldRating",
          "type": "uint256"
        },
        {
          "indexed": false,
          "internalType": "uint256",
          "name": "newRating",
          "type": "uint256"
        },
        {
          "indexed": false,
          "internalType": "int256",
          "name": "change",
          "type": "int256"
        }
      ],
      "name": "RatingUpdated",
      "type": "event"
    },
    {
      "anonymous": false,
      "inputs": [
        {
          "indexed": true,
          "internalType": "bytes32",
          "name": "role",
          "type": "bytes32"
        },
        {
          "indexed": true,
          "internalType": "bytes32",
          "name": "previousAdminRole",
          "type": "bytes32"
        },
        {
          "indexed": true,
          "internalType": "bytes32",
          "name": "newAdminRole",
          "type": "bytes32"
        }
      ],
      "name": "RoleAdminChanged",
      "type": "event"
    },
    {
      "anonymous": false,
      "inputs": [
        {
          "indexed": true,
          "internalType": "bytes32",
          "name": "role",
          "type": "bytes32"
        },
        {
          "indexed": true,
          "internalType": "address",
          "name": "account",
          "type": "address"
        },
        {
          "indexed": true,
          "internalType": "address",
          "name": "sender",
          "type": "address"
        }
      ],
      "name": "RoleGranted",
      "type": "event"
    },
    {
      "anonymous": false,
      "inputs": [
        {
          "indexed": true,
          "internalType": "bytes32",
          "name": "role",
          "type": "bytes32"
        },
        {
          "indexed": true,
          "internalType": "address",
          "name": "account",
          "type": "address"
        },
        {
          "indexed": true,
          "internalType": "address",
          "name": "sender",
          "type": "address"
        }
      ],
      "name": "RoleRevoked",
      "type": "event"
    },
    {
      "inputs": [],
      "name": "DEFAULT_ADMIN_ROLE",
      "outputs": [
        {
          "internalType": "bytes32",
          "name": "",
          "type": "bytes32"
        }
      ],
      "stateMutability": "view",
      "type": "function"
    },
    {
      "inputs": [],
      "name": "DEFAULT_RATING",
      "outputs": [
        {
          "internalType": "uint256",
          "name": "",
          "type": "uint256"
        }
      ],
      "stateMutability": "view",
      "type": "function"
    },
    {
      "inputs": [],
      "name": "GAME_REPORTER_ROLE",
      "outputs": [
        {
          "internalType": "bytes32",
          "name": "",
          "type": "bytes32"
        }
      ],
      "stateMutability": "view",
      "type": "function"
    },
    {
      "inputs": [],
      "name": "K_FACTOR_HIGH",
      "outputs": [
        {
          "internalType": "uint256",
          "name": "",
          "type": "uint256"
        }
      ],
      "stateMutability": "view",
      "type": "function"
    },
    {
      "inputs": [],
      "name": "K_FACTOR_NEW",
      "outputs": [
        {
          "internalType": "uint256",
          "name": "",
          "type": "uint256"
        }
      ],
      "stateMutability": "view",
      "type": "function"
    },
    {
      "inputs": [],
      "name": "K_FACTOR_NORMAL",
      "outputs": [
        {
          "internalType": "uint256",
          "name": "",
          "type": "uint256"
        }
      ],
      "stateMutability": "view",
      "type": "function"
    },
    {
      "inputs": [],
      "name": "MAX_RATING",
      "outputs": [
        {
          "internalType": "uint256",
          "name": "",
          "type": "uint256"
        }
      ],
      "stateMutability": "view",
      "type": "function"
    },
    {
      "inputs": [],
      "name": "MIN_RATING",
      "outputs": [
        {
          "internalType": "uint256",
          "name": "",
          "type": "uint256"
        }
      ],
      "stateMutability": "view",
      "type": "function"
    },
    {
      "inputs": [],
      "name": "PROVISIONAL_GAMES",
      "outputs": [
        {
          "internalType": "uint256",
          "name": "",
          "type": "uint256"
        }
      ],
      "stateMutability": "view",
      "type": "function"
    },
    {
      "inputs": [],
      "name": "chessFactory",
      "outputs": [
        {
          "internalType": "address",
          "name": "",
          "type": "address"
        }
      ],
      "stateMutability": "view",
      "type": "function"
    },
    {
      "inputs": [
        {
          "internalType": "bytes32",
          "name": "role",
          "type": "bytes32"
        }
      ],
      "name": "getRoleAdmin",
      "outputs": [
        {
          "internalType": "bytes32",
          "name": "",
          "type": "bytes32"
        }
      ],
      "stateMutability": "view",
      "type": "function"
    },
    {
      "inputs": [
        {
          "internalType": "bytes32",
          "name": "role",
          "type": "bytes32"
        },
        {
          "internalType": "address",
          "name": "account",
          "type": "address"
        }
      ],
      "name": "grantRole",
      "outputs": [],
      "stateMutability": "nonpayable",
      "type": "function"
    },
    {
      "inputs": [
        {
          "internalType": "bytes32",
          "name": "role",
          "type": "bytes32"
        },
        {
          "internalType": "address",
          "name": "account",
          "type": "address"
        }
      ],
      "name": "hasRole",
      "outputs": [
        {
          "internalType": "bool",
          "name": "",
          "type": "bool"
        }
      ],
      "stateMutability": "view",
      "type": "function"
    },
    {
      "inputs": [
        {
          "internalType": "address",
          "name": "",
          "type": "address"
        }
      ],
      "name": "isRanked",
      "outputs": [
        {
          "internalType": "bool",
          "name": "",
          "type": "bool"
        }
      ],
      "stateMutability": "view",
      "type": "function"
    },
    {
      "inputs": [
        {
          "internalType": "address",
          "name": "",
          "type": "address"
        }
      ],
      "name": "players",
      "outputs": [
        {
          "internalType": "uint256",
          "name": "rating",
          "type": "uint256"
        },
        {
          "internalType": "uint256",
          "name": "gamesPlayed",
          "type": "uint256"
        },
        {
          "internalType": "uint256",
          "name": "wins",
          "type": "uint256"
        },
        {
          "internalType": "uint256",
          "name": "losses",
          "type": "uint256"
        },
        {
          "internalType": "uint256",
          "name": "draws",
          "type": "uint256"
        },
        {
          "internalType": "uint256",
          "name": "peakRating",
          "type": "uint256"
        },
        {
          "internalType": "uint256",
          "name": "lastGameTimestamp",
          "type": "uint256"
        }
      ],
      "stateMutability": "view",
      "type": "function"
    },
    {
      "inputs": [
        {
          "internalType": "uint256",
          "name": "",
          "type": "uint256"
        }
      ],
      "name": "rankedPlayers",
      "outputs": [
        {
          "internalType": "address",
          "name": "",
          "type": "address"
        }
      ],
      "stateMutability": "view",
      "type": "function"
    },
    {
      "inputs": [
        {
          "internalType": "bytes32",
          "name": "role",
          "type": "bytes32"
        },
        {
          "internalType": "address",
          "name": "callerConfirmation",
          "type": "address"
        }
      ],
      "name": "renounceRole",
      "outputs": [],
      "stateMutability": "nonpayable",
      "type": "function"
    },
    {
      "inputs": [
        {
          "internalType": "bytes32",
          "name": "role",
          "type": "bytes32"
        },
        {
          "internalType": "address",
          "name": "account",
          "type": "address"
        }
      ],
      "name": "revokeRole",
      "outputs": [],
      "stateMutability": "nonpayable",
      "type": "function"
    },
    {
      "inputs": [
        {
          "internalType": "bytes4",
          "name": "interfaceId",
          "type": "bytes4"
        }
      ],
      "name": "supportsInterface",
      "outputs": [
        {
          "internalType": "bool",
          "name": "",
          "type": "bool"
        }
      ],
      "stateMutability": "view",
      "type": "function"
    },
    {
      "inputs": [
        {
          "internalType": "address",
          "name": "_chessFactory",
          "type": "address"
        }
      ],
      "name": "setChessFactory",
      "outputs": [],
      "stateMutability": "nonpayable",
      "type": "function"
    },
    {
      "inputs": [
        {
          "internalType": "address",
          "name": "player",
          "type": "address"
        }
      ],
      "name": "registerPlayer",
      "outputs": [],
      "stateMutability": "nonpayable",
      "type": "function"
    },
    {
      "inputs": [
        {
          "internalType": "address",
          "name": "white",
          "type": "address"
        },
        {
          "internalType": "address",
          "name": "black",
          "type": "address"
        },
        {
          "internalType": "uint8",
          "name": "result",
          "type": "uint8"
        }
      ],
      "name": "reportGame",
      "outputs": [],
      "stateMutability": "nonpayable",
      "type": "function"
    },
    {
      "inputs": [
        {
          "internalType": "address",
          "name": "player",
          "type": "address"
        }
      ],
      "name": "getRating",
      "outputs": [
        {
          "internalType": "uint256",
          "name": "",
          "type": "uint256"
        }
      ],
      "stateMutability": "view",
      "type": "function"
    },
    {
      "inputs": [
        {
          "internalType": "address",
          "name": "player",
          "type": "address"
        }
      ],
      "name": "getPlayerStats",
      "outputs": [
        {
          "internalType": "uint256",
          "name": "rating",
          "type": "uint256"
        },
        {
          "internalType": "uint256",
          "name": "gamesPlayed",
          "type": "uint256"
        },
        {
          "internalType": "uint256",
          "name": "wins",
          "type": "uint256"
        },
        {
          "internalType": "uint256",
          "name": "losses",
          "type": "uint256"
        },
        {
          "internalType": "uint256",
          "name": "draws",
          "type": "uint256"
        },
        {
          "internalType": "uint256",
          "name": "peakRating",
          "type": "uint256"
        },
        {
          "internalType": "uint256",
          "name": "lastGameTimestamp",
          "type": "uint256"
        }
      ],
      "stateMutability": "view",
      "type": "function"
    },
    {
      "inputs": [
        {
          "internalType": "address",
          "name": "player",
          "type": "address"
        }
      ],
      "name": "getWinRate",
      "outputs": [
        {
          "internalType": "uint256",
          "name": "",
          "type": "uint256"
        }
      ],
      "stateMutability": "view",
      "type": "function"
    },
    {
      "inputs": [
        {
          "internalType": "address",
          "name": "player",
          "type": "address"
        }
      ],
      "name": "isProvisional",
      "outputs": [
        {
          "internalType": "bool",
          "name": "",
          "type": "bool"
        }
      ],
      "stateMutability": "view",
      "type": "function"
    },
    {
      "inputs": [],
      "name": "getRankedPlayerCount",
      "outputs": [
        {
          "internalType": "uint256",
          "name": "",
          "type": "uint256"
        }
      ],
      "stateMutability": "view",
      "type": "function"
    },
    {
      "inputs": [
        {
          "internalType": "uint256",
          "name": "offset",
          "type": "uint256"
        },
        {
          "internalType": "uint256",
          "name": "limit",
          "type": "uint256"
        }
      ],
      "name": "getTopPlayers",
      "outputs": [
        {
          "internalType": "address[]",
          "name": "addresses",
          "type": "address[]"
        },
        {
          "internalType": "uint256[]",
          "name": "ratings",
          "type": "uint256[]"
        }
      ],
      "stateMutability": "view",
      "type": "function"
    }
  ],
  "bytecode": "0x6080604052346100225761001233610026565b506040516112d990816100a68239f35b5f80fd5b6001600160a01b03165f8181525f8051602061137f833981519152602052604090205460ff166100a0575f8181525f8051602061137f83398151915260205260408120805460ff191660011790553391907f2f8788117e7eff1d82e926ec794901d17c78024a50270940304540a733656f0d8180a4600190565b505f9056fe604060808152600480361015610013575f80fd5b5f3560e01c806301966646146109b957806301ffc9a714610966578063142276771461094b578063248a9ca3146109215780632e9a1c84146109035780632f2ff15d146108da57806336568abe146108955780633935bb3f146108795780634edbe0fc146108525780634fd66eae14610818578063595ccf10146107fd57806359d0a9c3146107c05780636b5cc6d91461079f578063747c118f1461078457806380fc9c0e1461075f578063914a1e761461073357806391d14854146106ef578063924920431461067e57806394e113ea146106625780639fe11d82146102e4578063a217fddf146102ca578063a91fa281146102a2578063bb0e4ea214610287578063bd1392c41461026c578063d178fec714610231578063d547741f146101f5578063e2eb41ff146101915763ff4671881461014f575f80fd5b3461018d57602036600319011261018d57359060035482101561018d57610177602092610ab4565b60018060a01b0391549060031b1c169051908152f35b5f80fd5b50903461018d57602036600319011261018d576001600160a01b036101b4610a70565b165f5260026020526101f1815f20918254926001810154946002820154906003830154908301549160066005850154940154945197889788610a86565b0390f35b50903461018d578060031936011261018d5761022f913561022a6001610219610a5a565b93835f525f6020525f200154610f28565b610fdd565b005b50903461018d57602036600319011261018d576020916001600160a01b03610257610a70565b165f52825260ff815f20541690519015158152f35b823461018d575f36600319011261018d5760209051600a8152f35b823461018d575f36600319011261018d576020905160648152f35b823461018d575f36600319011261018d5760015490516001600160a01b039091168152602090f35b823461018d575f36600319011261018d57602090515f8152f35b503461018d57606036600319011261018d576102fe610a70565b91610307610a5a565b926044359160ff831680930361018d576103203361104f565b8015610638575b1561018d576001600160a01b03858116959083169485871461018d5760029182861161018d5761035685610cf8565b61035f81610cf8565b865f52602094838652845f205492895f52855f20549161037f8584610eea565b61019090818113610631575b61018f19808212610629575b50610199908181029181830514901517156106165705906101f4905f838303931282841281169083851390151617610616575f831261060e575b6103e893848413610606575b838503948086116105f35761047e8f9692958f92957f09ed8ae65d12ca1694dd94d34b044d4722440faf1f091467fad93c9823dc04bb9f9d9b99969560609f9d9b988f8f8f91908f916104859b8f9180155f1461059f575050916104779593916104719593889b5f5282825284845f20016104588154610edc565b90555f52525f200161046a8154610edc565b90556111bb565b986111bb565b978a6111f8565b94846111f8565b908b6104918685610eea565b9561049c8385610eea565b97825f52808b5260018a5f20878155016104b68154610edc565b9055825f52808b528560058b5f204260068201550180548211610597575b5050865f5260018a5f20868155016104ec8154610edc565b9055865f528a528360058a5f20426006820155018054821161058f575b505088518061053c897f24bacc2874aa90810fec64ec56f036c692a50129ae32f0af448ee5d0878e34e098899584610f02565b0390a261054e86885193849384610f02565b0390a25f811261058057905b5f811261057157925b8251948552840152820152a3005b61057a90610f18565b92610563565b61058990610f18565b9061055a565b55835f610509565b55855f6104d4565b909750909594506001036105d057916003916104719493610477965f9b5f5282825282845f20016104588154610edc565b91816104719493610477965f989b5f528282526003845f20016104588154610edc565b601182634e487b7160e01b5f525260245ffd5b8493506103dd565b5f92506103d1565b601184634e487b7160e01b5f525260245ffd5b90505f610397565b508061038b565b505f805160206112648339815191525f525f602052805f20335f5260205260ff815f205416610327565b823461018d575f36600319011261018d5760209051610bb88152f35b503461018d57602036600319011261018d57610698610a70565b915f80525f602052805f20335f5260205260ff815f205416156106d257600180546001600160a01b0319166001600160a01b038516179055005b60449250519063e2517d3f60e01b825233908201525f6024820152fd5b50903461018d578060031936011261018d5760209161070c610a5a565b90355f525f8352815f209060018060a01b03165f52825260ff815f20541690519015158152f35b823461018d57602036600319011261018d57602090610758610753610a70565b610e4e565b9051908152f35b823461018d57602036600319011261018d5760209061075861077f610a70565b610e27565b823461018d575f36600319011261018d576020905160148152f35b3461018d57602036600319011261018d5761022f6107bb610a70565b610cf8565b823461018d57602036600319011261018d576020906001600160a01b036107e5610a70565b165f5260028252601e6001825f200154109051908152f35b823461018d575f36600319011261018d576020905160288152f35b823461018d57602036600319011261018d576101f19061083e610839610a70565b610c9a565b949795969390939291925197889788610a86565b823461018d575f36600319011261018d57602090515f805160206112648339815191528152f35b823461018d575f36600319011261018d57602090516104b08152f35b50903461018d578060031936011261018d576108af610a5a565b90336001600160a01b038316036108cb575061022f9135610fdd565b5163334bd91960e11b81529050fd5b50903461018d578060031936011261018d5761022f91356108fe6001610219610a5a565b610f67565b823461018d575f36600319011261018d576020906003549051908152f35b50903461018d57602036600319011261018d57602091355f525f82526001815f2001549051908152f35b823461018d575f36600319011261018d5760209051601e8152f35b503461018d57602036600319011261018d573563ffffffff60e01b811680910361018d57602091637965db0b60e01b82149182156109a8575b50519015158152f35b6301ffc9a760e01b1491505f61099f565b503461018d578160031936011261018d576109d8906024359035610bb0565b8251838152825193810184905292839260209160608501918301905f5b818110610a3a57505050838103828501528180845192838152019301915f5b828110610a2357505050500390f35b835185528695509381019392810192600101610a14565b82516001600160a01b0316845287965092840192918401916001016109f5565b602435906001600160a01b038216820361018d57565b600435906001600160a01b038216820361018d57565b93909796959260c0959260e08601998652602086015260408501526060840152608083015260a08201520152565b600354811015610acc5760035f5260205f2001905f90565b634e487b7160e01b5f52603260045260245ffd5b602081019081106001600160401b03821117610afb57604052565b634e487b7160e01b5f52604160045260245ffd5b601f909101601f19168101906001600160401b03821190821017610afb57604052565b6001600160401b038111610afb5760051b60200190565b90610b5382610b32565b610b606040519182610b0f565b8281528092610b71601f1991610b32565b0190602036910137565b91908201809211610b8857565b634e487b7160e01b5f52601160045260245ffd5b8051821015610acc5760209160051b010190565b91906003906003549081851015610c6d57610bcb9085610b7b565b90808211610c65575b50838103908111610b8857610be881610b49565b91610bf282610b49565b945f5b838110610c0457505050509190565b80610c19610c1460019385610b7b565b610ab4565b90838060a01b039182915490871b1c16610c338389610b9c565b52610c41610c148386610b7b565b905490861b1c165f52600260205260405f2054610c5e828a610b9c565b5201610bf5565b90505f610bd4565b505050905060405190610c7f82610ae0565b5f825260405191610c8f83610ae0565b5f83525f3681379190565b6001600160a01b03165f90815260026020526040902080548015610ce457600182015492600283015492600381015492600482015492600660058401549301549196959493929190565b50506104b0905f905f905f905f9085905f90565b60018060a01b0380911690815f526020600281526040805f205415610d1e575b50505050565b80519060e082016001600160401b03811183821017610afb5781526104b09182815260068482015f81528383015f8152606084015f815260808501905f825260a086019288845260c08701945f86528c5f5260028b52885f2097518855516001880155516002870155516003860155516004850155516005840155519101556004835260ff815f20541615610dcc575b5f80516020611284833981519152935051908152a25f808080610d18565b60035493600160401b851015610afb57610dfa8560015f805160206112848339815191529701600355610ab4565b819291549060031b9188831b921b1916179055845f5260048352805f20600160ff19825416179055610dae565b6001600160a01b03165f908152600260205260409020548015610e475790565b506104b090565b6001600160a01b03165f9081526002602052604090206001810154908115610ed65760028101548060011b9080820460021490151715610b88576004610e9692015490610b7b565b8160011b918204600203610b885761271090818102918183041490151715610b88578115610ec2570490565b634e487b7160e01b5f52601260045260245ffd5b50505f90565b5f198114610b885760010190565b81810392915f138015828513169184121617610b8857565b6040919493926060820195825260208201520152565b600160ff1b8114610b88575f0390565b805f525f60205260405f20335f5260205260ff60405f20541615610f495750565b6044906040519063e2517d3f60e01b82523360048301526024820152fd5b90815f525f60205260405f209060018060a01b031690815f5260205260ff60405f205416155f14610ed657815f525f60205260405f20815f5260205260405f20600160ff1982541617905533917f2f8788117e7eff1d82e926ec794901d17c78024a50270940304540a733656f0d5f80a4600190565b90815f525f60205260405f209060018060a01b031690815f5260205260ff60405f2054165f14610ed657815f525f60205260405f20815f5260205260405f2060ff19815416905533917ff6391f5c32d9c69d2a47ea670b442974b53935d1edc7fd64eb21e047a839171b5f80a4600190565b600180546001600160a01b0390811693929084156111b357604080516364fffe6960e01b602080830191825260048352976001600160401b039291828501919084831184841017610afb575f938493875251915afa903d156111ab573d91818311610afb578351926110ca601f8201601f19168b0185610b0f565b83523d5f8a85013e5b156111a0578151820191888181850194031261018d578881015191821161018d57019181603f8401121561018d57878301519061110f82610b32565b9361111c82519586610b0f565b828552818a86019360051b82010193841161018d5701905b82821061118857505050839495505f935b611153575b50505050505f90565b8051841015611183578382611169879684610b9c565b51168385161461117b57840193611145565b505050505090565b61114a565b8151858116810361018d578152908801908801611134565b505f96505050505050565b6060916110d3565b505f93505050565b6001600160a01b03165f9081526002602052604090206001810154601e116111f257610960905410156111ed57601490565b600a90565b50602890565b926112039192610eea565b81810291905f8212600160ff1b821416610b88578183051490151715610b88576103e89005905f8282019283129112908015821691151617610b88576064811261125b575b610bb8808213611256575090565b905090565b50606461124856fe10a4ad6121a0e8e2ed7aed6f1645d37888e03aec8592ffc480ed1f8178081ceb324cb0062138d65997c86cd3012489ceb351d602f2f55c7408306e8040c79f3fa2646970667358221220f38a36ccf309584158b4751eeea6b3931b747890952d30f0d7cae649defc885564736f6c63430008180033ad3228b676f7d3cd4284a5443f17f1962b36e491b30a40b2405849e597ba5fb5",
  "immutableReferences": {},
  "source": "// SPDX-License-Identifier: MIT\npragma solidity ^0.8.24;\n\nimport \"@openzeppelin/contracts/access/AccessControl.sol\";\n\n/// @title PlayerRating - ELO Rating System for Chess Players\n/// @notice Manages player ratings using the ELO rating system\n/// @dev Uses fixed-point math for ELO calculations (multiply by 100 for precision)\ncontract PlayerRating is AccessControl {\n    bytes32 public constant GAME_REPORTER_ROLE = keccak256(\"GAME_REPORTER_ROLE\");\n\n    // ChessFactory address for validating game contracts\n    address public chessFactory;\n\n    // Default starting rating (1200 is standard for new players)\n    uint256 public constant DEFAULT_RATING = 1200;\n\n    // K-factor determines how much ratings change per game\n    // Higher K = more volatile ratings\n    uint256 public constant K_FACTOR_NEW = 40;      // First 30 games\n    uint256 public constant K_FACTOR_NORMAL = 20;   // After 30 games\n    uint256 public constant K_FACTOR_HIGH = 10;     // Rating > 2400\n\n    // Minimum and maximum ratings\n    uint256 public constant MIN_RATING = 100;\n    uint256 public constant MAX_RATING = 3000;\n\n    // Number of games before player is considered \"established\"\n    uint256 public constant PROVISIONAL_GAMES = 30;\n\n    // Player stats\n    struct PlayerStats {\n        uint256 rating;\n        uint256 gamesPlayed;\n        uint256 wins;\n        uint256 losses;\n        uint256 draws;\n        uint256 peakRating;\n        uint256 lastGameTimestamp;\n    }\n\n    // Player address => stats\n    mapping(address => PlayerStats) public players;\n\n    // Leaderboard tracking\n    address[] public rankedPlayers;\n    mapping(address => bool) public isRanked;\n\n    // Events\n    event RatingUpdated(\n        address indexed player,\n        uint256 oldRating,\n        uint256 newRating,\n        int256 change\n    );\n    event GameRecorded(\n        address indexed white,\n        address indexed black,\n        uint8 result, // 0 = draw, 1 = white wins, 2 = black wins\n        uint256 whiteRatingChange,\n        uint256 blackRatingChange\n    );\n    event PlayerRegistered(address indexed player, uint256 initialRating);\n\n    constructor() {\n        _grantRole(DEFAULT_ADMIN_ROLE, msg.sender);\n    }\n\n    /// @notice Set the ChessFactory address (allows game contracts to report)\n    function setChessFactory(address _chessFactory) external onlyRole(DEFAULT_ADMIN_ROLE) {\n        chessFactory = _chessFactory;\n    }\n\n    /// @notice Check if caller is a valid game contract\n    function _isValidGameContract(address caller) internal view returns (bool) {\n        if (chessFactory == address(0)) return false;\n\n        // Check if caller is in the deployedChessGames array\n        (bool success, bytes memory data) = chessFactory.staticcall(\n            abi.encodeWithSignature(\"getDeployedChessGames()\")\n        );\n\n        if (!success) return false;\n\n        address[] memory games = abi.decode(data, (address[]));\n        for (uint256 i = 0; i < games.length; i++) {\n            if (games[i] == caller) return true;\n        }\n        return false;\n    }\n\n    /// @notice Register a new player with default rating\n    /// @param player Address of the player\n    function registerPlayer(address player) external {\n        if (players[player].rating == 0) {\n            players[player] = PlayerStats({\n                rating: DEFAULT_RATING,\n                gamesPlayed: 0,\n                wins: 0,\n                losses: 0,\n                draws: 0,\n                peakRating: DEFAULT_RATING,\n                lastGameTimestamp: 0\n            });\n\n            if (!isRanked[player]) {\n                rankedPlayers.push(player);\n                isRanked[player] = true;\n            }\n\n            emit PlayerRegistered(player, DEFAULT_RATING);\n        }\n    }\n\n    /// @notice Ensure player is registered (internal helper)\n    function _ensureRegistered(address player) internal {\n        if (players[player].rating == 0) {\n            players[player] = PlayerStats({\n                rating: DEFAULT_RATING,\n                gamesPlayed: 0,\n                wins: 0,\n                losses: 0,\n                draws: 0,\n                peakRating: DEFAULT_RATING,\n                lastGameTimestamp: 0\n            });\n\n            if (!isRanked[player]) {\n                rankedPlayers.push(player);\n                isRanked[player] = true;\n            }\n\n            emit PlayerRegistered(player, DEFAULT_RATING);\n        }\n    }\n\n    /// @notice Report a game result and update ratings\n    /// @param white Address of white player\n    /// @param black Address of black player\n    /// @param result 0 = draw, 1 = white wins, 2 = black wins\n    function reportGame(\n        address white,\n        address black,\n        uint8 result\n    ) external {\n        // Allow calls from valid game contracts OR accounts with GAME_REPORTER_ROLE\n        require(\n            _isValidGameContract(msg.sender) || hasRole(GAME_REPORTER_ROLE, msg.sender),\n            \"Not authorized\"\n        );\n        require(white != black, \"Same player\");\n        require(result <= 2, \"Invalid result\");\n\n        // Ensure both players are registered\n        _ensureRegistered(white);\n        _ensureRegistered(black);\n\n        uint256 whiteRating = players[white].rating;\n        uint256 blackRating = players[black].rating;\n\n        // Calculate expected scores (fixed-point, multiply by 1000)\n        uint256 whiteExpected = _expectedScore(whiteRating, blackRating);\n        uint256 blackExpected = 1000 - whiteExpected;\n\n        // Actual scores (multiply by 1000 for comparison)\n        uint256 whiteActual;\n        uint256 blackActual;\n\n        if (result == 0) {\n            // Draw\n            whiteActual = 500;\n            blackActual = 500;\n            players[white].draws++;\n            players[black].draws++;\n        } else if (result == 1) {\n            // White wins\n            whiteActual = 1000;\n            blackActual = 0;\n            players[white].wins++;\n            players[black].losses++;\n        } else {\n            // Black wins\n            whiteActual = 0;\n            blackActual = 1000;\n            players[white].losses++;\n            players[black].wins++;\n        }\n\n        // Get K-factors\n        uint256 whiteK = _getKFactor(white);\n        uint256 blackK = _getKFactor(black);\n\n        // Calculate new ratings\n        uint256 newWhiteRating = _calculateNewRating(whiteRating, whiteK, whiteActual, whiteExpected);\n        uint256 newBlackRating = _calculateNewRating(blackRating, blackK, blackActual, blackExpected);\n\n        // Update player stats\n        int256 whiteChange = int256(newWhiteRating) - int256(whiteRating);\n        int256 blackChange = int256(newBlackRating) - int256(blackRating);\n\n        players[white].rating = newWhiteRating;\n        players[white].gamesPlayed++;\n        players[white].lastGameTimestamp = block.timestamp;\n        if (newWhiteRating > players[white].peakRating) {\n            players[white].peakRating = newWhiteRating;\n        }\n\n        players[black].rating = newBlackRating;\n        players[black].gamesPlayed++;\n        players[black].lastGameTimestamp = block.timestamp;\n        if (newBlackRating > players[black].peakRating) {\n            players[black].peakRating = newBlackRating;\n        }\n\n        emit RatingUpdated(white, whiteRating, newWhiteRating, whiteChange);\n        emit RatingUpdated(black, blackRating, newBlackRating, blackChange);\n        emit GameRecorded(\n            white,\n            black,\n            result,\n            whiteChange >= 0 ? uint256(whiteChange) : uint256(-whiteChange),\n            blackChange >= 0 ? uint256(blackChange) : uint256(-blackChange)\n        );\n    }\n\n    /// @notice Calculate expected score (returns value * 1000)\n    /// @dev Uses approximation of 1 / (1 + 10^((Rb-Ra)/400))\n    function _expectedScore(uint256 ratingA, uint256 ratingB) internal pure returns (uint256) {\n        int256 diff = int256(ratingB) - int256(ratingA);\n\n        // Clamp difference to prevent overflow\n        if (diff > 400) diff = 400;\n        if (diff < -400) diff = -400;\n\n        // Approximation using linear interpolation for the sigmoid\n        // At diff = 0: expected = 500 (0.5)\n        // At diff = 400: expected = 91 (0.091)\n        // At diff = -400: expected = 909 (0.909)\n\n        // Linear approximation: expected = 500 - (diff * 409) / 400\n        int256 expected = 500 - (diff * 409) / 400;\n\n        if (expected < 0) expected = 0;\n        if (expected > 1000) expected = 1000;\n\n        return uint256(expected);\n    }\n\n    /// @notice Calculate new rating\n    function _calculateNewRating(\n        uint256 currentRating,\n        uint256 kFactor,\n        uint256 actualScore,\n        uint256 expectedScore\n    ) internal pure returns (uint256) {\n        int256 change = (int256(kFactor) * (int256(actualScore) - int256(expectedScore))) / 1000;\n\n        int256 newRating = int256(currentRating) + change;\n\n        // Clamp to min/max\n        if (newRating < int256(MIN_RATING)) newRating = int256(MIN_RATING);\n        if (newRating > int256(MAX_RATING)) newRating = int256(MAX_RATING);\n\n        return uint256(newRating);\n    }\n\n    /// @notice Get K-factor for a player\n    function _getKFactor(address player) internal view returns (uint256) {\n        PlayerStats storage stats = players[player];\n\n        // New players have higher K-factor (ratings change more)\n        if (stats.gamesPlayed < PROVISIONAL_GAMES) {\n            return K_FACTOR_NEW;\n        }\n\n        // High-rated players have lower K-factor (more stable ratings)\n        if (stats.rating >= 2400) {\n            return K_FACTOR_HIGH;\n        }\n\n        return K_FACTOR_NORMAL;\n    }\n\n    /// @notice Get player rating\n    function getRating(address player) external view returns (uint256) {\n        if (players[player].rating == 0) {\n            return DEFAULT_RATING;\n        }\n        return players[player].rating;\n    }\n\n    /// @notice Get full player stats\n    function getPlayerStats(address player) external view returns (\n        uint256 rating,\n        uint256 gamesPlayed,\n        uint256 wins,\n        uint256 losses,\n        uint256 draws,\n        uint256 peakRating,\n        uint256 lastGameTimestamp\n    ) {\n        PlayerStats storage stats = players[player];\n\n        if (stats.rating == 0) {\n            return (DEFAULT_RATING, 0, 0, 0, 0, DEFAULT_RATING, 0);\n        }\n\n        return (\n            stats.rating,\n            stats.gamesPlayed,\n            stats.wins,\n            stats.losses,\n            stats.draws,\n            stats.peakRating,\n            stats.lastGameTimestamp\n        );\n    }\n\n    /// @notice Get win rate (returns percentage * 100, e.g., 5500 = 55.00%)\n    function getWinRate(address player) external view returns (uint256) {\n        PlayerStats storage stats = players[player];\n\n        if (stats.gamesPlayed == 0) {\n            return 0;\n        }\n\n        // Calculate win rate including draws as 0.5 wins\n        uint256 points = (stats.wins * 2) + stats.draws; // Each win = 2 points, draw = 1 point\n        uint256 maxPoints = stats.gamesPlayed * 2;\n\n        return (points * 10000) / maxPoints; // Returns percentage * 100\n    }\n\n    /// @notice Check if player is still provisional (< 30 games)\n    function isProvisional(address player) external view returns (bool) {\n        return players[player].gamesPlayed < PROVISIONAL_GAMES;\n    }\n\n    /// @notice Get total number of ranked players\n    function getRankedPlayerCount() external view returns (uint256) {\n        return rankedPlayers.length;\n    }\n\n    /// @notice Get top players (paginated)\n    /// @param offset Starting index\n    /// @param limit Number of players to return\n    function getTopPlayers(uint256 offset, uint256 limit) external view returns (\n        address[] memory addresses,\n        uint256[] memory ratings\n    ) {\n        // Simple implementation - in production you'd want a sorted data structure\n        uint256 count = rankedPlayers.length;\n\n        if (offset >= count) {\n            return (new address[](0), new uint256[](0));\n        }\n\n        uint256 end = offset + limit;\n        if (end > count) {\n            end = count;\n        }\n\n        uint256 resultCount = end - offset;\n        addresses = new address[](resultCount);\n        ratings = new uint256[](resultCount);\n\n        // Copy players (not sorted - would need off-chain sorting for large sets)\n        for (uint256 i = 0; i < resultCount; i++) {\n            addresses[i] = rankedPlayers[offset + i];\n            ratings[i] = players[rankedPlayers[offset + i]].rating;\n        }\n\n        return (addresses, ratings);\n    }\n}\n",
  "sourcePath": "/Users/jacopo/Documents/solidity/chessgame/ethereum/contracts/Rating/PlayerRating.sol",
  "compiler": {
    "name": "solc",
    "version": "0.8.24+commit.e11b9ed9.Emscripten.clang"
  },
  "schemaVersion": "3.4.16",
  "updatedAt": "2026-01-07T08:04:49.615Z",
  "devdoc": {
    "details": "Uses fixed-point math for ELO calculations (multiply by 100 for precision)",
    "errors": {
      "AccessControlBadConfirmation()": [
        {
          "details": "The caller of a function is not the expected one. NOTE: Don't confuse with {AccessControlUnauthorizedAccount}."
        }
      ],
      "AccessControlUnauthorizedAccount(address,bytes32)": [
        {
          "details": "The `account` is missing a role."
        }
      ]
    },
    "events": {
      "RoleAdminChanged(bytes32,bytes32,bytes32)": {
        "details": "Emitted when `newAdminRole` is set as ``role``'s admin role, replacing `previousAdminRole` `DEFAULT_ADMIN_ROLE` is the starting admin for all roles, despite {RoleAdminChanged} not being emitted to signal this."
      },
      "RoleGranted(bytes32,address,address)": {
        "details": "Emitted when `account` is granted `role`. `sender` is the account that originated the contract call. This account bears the admin role (for the granted role). Expected in cases where the role was granted using the internal {AccessControl-_grantRole}."
      },
      "RoleRevoked(bytes32,address,address)": {
        "details": "Emitted when `account` is revoked `role`. `sender` is the account that originated the contract call:   - if using `revokeRole`, it is the admin role bearer   - if using `renounceRole`, it is the role bearer (i.e. `account`)"
      }
    },
    "kind": "dev",
    "methods": {
      "getRoleAdmin(bytes32)": {
        "details": "Returns the admin role that controls `role`. See {grantRole} and {revokeRole}. To change a role's admin, use {_setRoleAdmin}."
      },
      "getTopPlayers(uint256,uint256)": {
        "params": {
          "limit": "Number of players to return",
          "offset": "Starting index"
        }
      },
      "grantRole(bytes32,address)": {
        "details": "Grants `role` to `account`. If `account` had not been already granted `role`, emits a {RoleGranted} event. Requirements: - the caller must have ``role``'s admin role. May emit a {RoleGranted} event."
      },
      "hasRole(bytes32,address)": {
        "details": "Returns `true` if `account` has been granted `role`."
      },
      "registerPlayer(address)": {
        "params": {
          "player": "Address of the player"
        }
      },
      "renounceRole(bytes32,address)": {
        "details": "Revokes `role` from the calling account. Roles are often managed via {grantRole} and {revokeRole}: this function's purpose is to provide a mechanism for accounts to lose their privileges if they are compromised (such as when a trusted device is misplaced). If the calling account had been revoked `role`, emits a {RoleRevoked} event. Requirements: - the caller must be `callerConfirmation`. May emit a {RoleRevoked} event."
      },
      "reportGame(address,address,uint8)": {
        "params": {
          "black": "Address of black player",
          "result": "0 = draw, 1 = white wins, 2 = black wins",
          "white": "Address of white player"
        }
      },
      "revokeRole(bytes32,address)": {
        "details": "Revokes `role` from `account`. If `account` had been granted `role`, emits a {RoleRevoked} event. Requirements: - the caller must have ``role``'s admin role. May emit a {RoleRevoked} event."
      },
      "supportsInterface(bytes4)": {
        "details": "Returns true if this contract implements the interface defined by `interfaceId`. See the corresponding https://eips.ethereum.org/EIPS/eip-165#how-interfaces-are-identified[ERC section] to learn more about how these ids are created. This function call must use less than 30 000 gas."
      }
    },
    "title": "PlayerRating - ELO Rating System for Chess Players",
    "version": 1
  },
  "userdoc": {
    "kind": "user",
    "methods": {
      "getPlayerStats(address)": {
        "notice": "Get full player stats"
      },
      "getRankedPlayerCount()": {
        "notice": "Get total number of ranked players"
      },
      "getRating(address)": {
        "notice": "Get player rating"
      },
      "getTopPlayers(uint256,uint256)": {
        "notice": "Get top players (paginated)"
      },
      "getWinRate(address)": {
        "notice": "Get win rate (returns percentage * 100, e.g., 5500 = 55.00%)"
      },
      "isProvisional(address)": {
        "notice": "Check if player is still provisional (< 30 games)"
      },
      "registerPlayer(address)": {
        "notice": "Register a new player with default rating"
      },
      "reportGame(address,address,uint8)": {
        "notice": "Report a game result and update ratings"
      },
      "setChessFactory(address)": {
        "notice": "Set the ChessFactory address (allows game contracts to report)"
      }
    },
    "notice": "Manages player ratings using the ELO rating system",
    "version": 1
  }
}